{
  "_format": "hh-sol-artifact-1",
  "contractName": "NFT721",
  "sourceName": "newContracts/NFT721.sol",
  "abi": [
    {
      "inputs": [
        {
          "internalType": "string",
          "name": "_collectionName",
          "type": "string"
        },
        {
          "internalType": "string",
          "name": "_collectionSymbol",
          "type": "string"
        },
        {
          "internalType": "uint96",
          "name": "contractRoyalty",
          "type": "uint96"
        },
        {
          "internalType": "address",
          "name": "royaltyReceiver",
          "type": "address"
        }
      ],
      "stateMutability": "nonpayable",
      "type": "constructor"
    },
    {
      "anonymous": false,
      "inputs": [
        {
          "indexed": true,
          "internalType": "address",
          "name": "owner",
          "type": "address"
        },
        {
          "indexed": true,
          "internalType": "address",
          "name": "approved",
          "type": "address"
        },
        {
          "indexed": true,
          "internalType": "uint256",
          "name": "tokenId",
          "type": "uint256"
        }
      ],
      "name": "Approval",
      "type": "event"
    },
    {
      "anonymous": false,
      "inputs": [
        {
          "indexed": true,
          "internalType": "address",
          "name": "owner",
          "type": "address"
        },
        {
          "indexed": true,
          "internalType": "address",
          "name": "operator",
          "type": "address"
        },
        {
          "indexed": false,
          "internalType": "bool",
          "name": "approved",
          "type": "bool"
        }
      ],
      "name": "ApprovalForAll",
      "type": "event"
    },
    {
      "anonymous": false,
      "inputs": [
        {
          "indexed": true,
          "internalType": "address",
          "name": "from",
          "type": "address"
        },
        {
          "indexed": true,
          "internalType": "address",
          "name": "to",
          "type": "address"
        },
        {
          "indexed": true,
          "internalType": "uint256",
          "name": "tokenId",
          "type": "uint256"
        }
      ],
      "name": "Transfer",
      "type": "event"
    },
    {
      "inputs": [
        {
          "internalType": "address",
          "name": "to",
          "type": "address"
        },
        {
          "internalType": "uint256",
          "name": "tokenId",
          "type": "uint256"
        }
      ],
      "name": "approve",
      "outputs": [],
      "stateMutability": "nonpayable",
      "type": "function"
    },
    {
      "inputs": [
        {
          "internalType": "address",
          "name": "owner",
          "type": "address"
        }
      ],
      "name": "balanceOf",
      "outputs": [
        {
          "internalType": "uint256",
          "name": "",
          "type": "uint256"
        }
      ],
      "stateMutability": "view",
      "type": "function"
    },
    {
      "inputs": [
        {
          "internalType": "uint256",
          "name": "_tokenID",
          "type": "uint256"
        }
      ],
      "name": "burn",
      "outputs": [],
      "stateMutability": "nonpayable",
      "type": "function"
    },
    {
      "inputs": [
        {
          "internalType": "uint256",
          "name": "tokenId",
          "type": "uint256"
        }
      ],
      "name": "getApproved",
      "outputs": [
        {
          "internalType": "address",
          "name": "",
          "type": "address"
        }
      ],
      "stateMutability": "view",
      "type": "function"
    },
    {
      "inputs": [
        {
          "internalType": "address",
          "name": "owner",
          "type": "address"
        },
        {
          "internalType": "address",
          "name": "operator",
          "type": "address"
        }
      ],
      "name": "isApprovedForAll",
      "outputs": [
        {
          "internalType": "bool",
          "name": "",
          "type": "bool"
        }
      ],
      "stateMutability": "view",
      "type": "function"
    },
    {
      "inputs": [
        {
          "internalType": "string",
          "name": "_tokenURI",
          "type": "string"
        },
        {
          "internalType": "address",
          "name": "royaltyReceiver",
          "type": "address"
        },
        {
          "internalType": "uint96",
          "name": "tokenRoyalty",
          "type": "uint96"
        }
      ],
      "name": "mint",
      "outputs": [
        {
          "internalType": "uint256",
          "name": "",
          "type": "uint256"
        }
      ],
      "stateMutability": "nonpayable",
      "type": "function"
    },
    {
      "inputs": [],
      "name": "name",
      "outputs": [
        {
          "internalType": "string",
          "name": "",
          "type": "string"
        }
      ],
      "stateMutability": "view",
      "type": "function"
    },
    {
      "inputs": [],
      "name": "owner",
      "outputs": [
        {
          "internalType": "address",
          "name": "",
          "type": "address"
        }
      ],
      "stateMutability": "view",
      "type": "function"
    },
    {
      "inputs": [
        {
          "internalType": "uint256",
          "name": "tokenId",
          "type": "uint256"
        }
      ],
      "name": "ownerOf",
      "outputs": [
        {
          "internalType": "address",
          "name": "",
          "type": "address"
        }
      ],
      "stateMutability": "view",
      "type": "function"
    },
    {
      "inputs": [
        {
          "internalType": "uint256",
          "name": "_tokenId",
          "type": "uint256"
        },
        {
          "internalType": "uint256",
          "name": "_salePrice",
          "type": "uint256"
        }
      ],
      "name": "royaltyInfo",
      "outputs": [
        {
          "internalType": "address",
          "name": "",
          "type": "address"
        },
        {
          "internalType": "uint256",
          "name": "",
          "type": "uint256"
        }
      ],
      "stateMutability": "view",
      "type": "function"
    },
    {
      "inputs": [
        {
          "internalType": "address",
          "name": "from",
          "type": "address"
        },
        {
          "internalType": "address",
          "name": "to",
          "type": "address"
        },
        {
          "internalType": "uint256",
          "name": "tokenId",
          "type": "uint256"
        }
      ],
      "name": "safeTransferFrom",
      "outputs": [],
      "stateMutability": "nonpayable",
      "type": "function"
    },
    {
      "inputs": [
        {
          "internalType": "address",
          "name": "from",
          "type": "address"
        },
        {
          "internalType": "address",
          "name": "to",
          "type": "address"
        },
        {
          "internalType": "uint256",
          "name": "tokenId",
          "type": "uint256"
        },
        {
          "internalType": "bytes",
          "name": "_data",
          "type": "bytes"
        }
      ],
      "name": "safeTransferFrom",
      "outputs": [],
      "stateMutability": "nonpayable",
      "type": "function"
    },
    {
      "inputs": [
        {
          "internalType": "address",
          "name": "operator",
          "type": "address"
        },
        {
          "internalType": "bool",
          "name": "approved",
          "type": "bool"
        }
      ],
      "name": "setApprovalForAll",
      "outputs": [],
      "stateMutability": "nonpayable",
      "type": "function"
    },
    {
      "inputs": [
        {
          "internalType": "bytes4",
          "name": "interfaceId",
          "type": "bytes4"
        }
      ],
      "name": "supportsInterface",
      "outputs": [
        {
          "internalType": "bool",
          "name": "",
          "type": "bool"
        }
      ],
      "stateMutability": "pure",
      "type": "function"
    },
    {
      "inputs": [],
      "name": "symbol",
      "outputs": [
        {
          "internalType": "string",
          "name": "",
          "type": "string"
        }
      ],
      "stateMutability": "view",
      "type": "function"
    },
    {
      "inputs": [],
      "name": "tokenCount",
      "outputs": [
        {
          "internalType": "uint256",
          "name": "",
          "type": "uint256"
        }
      ],
      "stateMutability": "view",
      "type": "function"
    },
    {
      "inputs": [
        {
          "internalType": "uint256",
          "name": "tokenId",
          "type": "uint256"
        }
      ],
      "name": "tokenURI",
      "outputs": [
        {
          "internalType": "string",
          "name": "",
          "type": "string"
        }
      ],
      "stateMutability": "view",
      "type": "function"
    },
    {
      "inputs": [
        {
          "internalType": "address",
          "name": "from",
          "type": "address"
        },
        {
          "internalType": "address",
          "name": "to",
          "type": "address"
        },
        {
          "internalType": "uint256",
          "name": "tokenId",
          "type": "uint256"
        }
      ],
      "name": "transferFrom",
      "outputs": [],
      "stateMutability": "nonpayable",
      "type": "function"
    }
  ],
  "bytecode": "0x60806040523480156200001157600080fd5b5060405162004217380380620042178339818101604052810190620000379190620004bb565b838381600290816200004a9190620007b6565b5080600390816200005c9190620007b6565b50505033600b60006101000a81548173ffffffffffffffffffffffffffffffffffffffff021916908373ffffffffffffffffffffffffffffffffffffffff160217905550620000b28183620000c460201b60201c565b6000600a8190555050505050620009b8565b620000d46200026660201b60201c565b6bffffffffffffffffffffffff16816bffffffffffffffffffffffff16111562000135576040517f08c379a00000000000000000000000000000000000000000000000000000000081526004016200012c9062000924565b60405180910390fd5b600073ffffffffffffffffffffffffffffffffffffffff168273ffffffffffffffffffffffffffffffffffffffff1603620001a7576040517f08c379a00000000000000000000000000000000000000000000000000000000081526004016200019e9062000996565b60405180910390fd5b60405180604001604052808373ffffffffffffffffffffffffffffffffffffffff168152602001826bffffffffffffffffffffffff168152506000808201518160000160006101000a81548173ffffffffffffffffffffffffffffffffffffffff021916908373ffffffffffffffffffffffffffffffffffffffff16021790555060208201518160000160146101000a8154816bffffffffffffffffffffffff02191690836bffffffffffffffffffffffff1602179055509050505050565b6000612710905090565b6000604051905090565b600080fd5b600080fd5b600080fd5b600080fd5b6000601f19601f8301169050919050565b7f4e487b7100000000000000000000000000000000000000000000000000000000600052604160045260246000fd5b620002d9826200028e565b810181811067ffffffffffffffff82111715620002fb57620002fa6200029f565b5b80604052505050565b60006200031062000270565b90506200031e8282620002ce565b919050565b600067ffffffffffffffff8211156200034157620003406200029f565b5b6200034c826200028e565b9050602081019050919050565b60005b83811015620003795780820151818401526020810190506200035c565b8381111562000389576000848401525b50505050565b6000620003a6620003a08462000323565b62000304565b905082815260208101848484011115620003c557620003c462000289565b5b620003d284828562000359565b509392505050565b600082601f830112620003f257620003f162000284565b5b8151620004048482602086016200038f565b91505092915050565b60006bffffffffffffffffffffffff82169050919050565b62000430816200040d565b81146200043c57600080fd5b50565b600081519050620004508162000425565b92915050565b600073ffffffffffffffffffffffffffffffffffffffff82169050919050565b6000620004838262000456565b9050919050565b620004958162000476565b8114620004a157600080fd5b50565b600081519050620004b5816200048a565b92915050565b60008060008060808587031215620004d857620004d76200027a565b5b600085015167ffffffffffffffff811115620004f957620004f86200027f565b5b6200050787828801620003da565b945050602085015167ffffffffffffffff8111156200052b576200052a6200027f565b5b6200053987828801620003da565b93505060406200054c878288016200043f565b92505060606200055f87828801620004a4565b91505092959194509250565b600081519050919050565b7f4e487b7100000000000000000000000000000000000000000000000000000000600052602260045260246000fd5b60006002820490506001821680620005be57607f821691505b602082108103620005d457620005d362000576565b5b50919050565b60008190508160005260206000209050919050565b60006020601f8301049050919050565b600082821b905092915050565b6000600883026200063e7fffffffffffffffffffffffffffffffffffffffffffffffffffffffffffffffff82620005ff565b6200064a8683620005ff565b95508019841693508086168417925050509392505050565b6000819050919050565b6000819050919050565b600062000697620006916200068b8462000662565b6200066c565b62000662565b9050919050565b6000819050919050565b620006b38362000676565b620006cb620006c2826200069e565b8484546200060c565b825550505050565b600090565b620006e2620006d3565b620006ef818484620006a8565b505050565b5b8181101562000717576200070b600082620006d8565b600181019050620006f5565b5050565b601f82111562000766576200073081620005da565b6200073b84620005ef565b810160208510156200074b578190505b620007636200075a85620005ef565b830182620006f4565b50505b505050565b600082821c905092915050565b60006200078b600019846008026200076b565b1980831691505092915050565b6000620007a6838362000778565b9150826002028217905092915050565b620007c1826200056b565b67ffffffffffffffff811115620007dd57620007dc6200029f565b5b620007e98254620005a5565b620007f68282856200071b565b600060209050601f8311600181146200082e576000841562000819578287015190505b62000825858262000798565b86555062000895565b601f1984166200083e86620005da565b60005b82811015620008685784890151825560018201915060208501945060208101905062000841565b8683101562000888578489015162000884601f89168262000778565b8355505b6001600288020188555050505b505050505050565b600082825260208201905092915050565b7f455243323938313a20726f79616c7479206665652077696c6c2065786365656460008201527f2073616c65507269636500000000000000000000000000000000000000000000602082015250565b60006200090c602a836200089d565b91506200091982620008ae565b604082019050919050565b600060208201905081810360008301526200093f81620008fd565b9050919050565b7f455243323938313a20696e76616c696420726563656976657200000000000000600082015250565b60006200097e6019836200089d565b91506200098b8262000946565b602082019050919050565b60006020820190508181036000830152620009b1816200096f565b9050919050565b61384f80620009c86000396000f3fe608060405234801561001057600080fd5b50600436106101165760003560e01c806370a08231116100a2578063a22cb46511610071578063a22cb465146102f4578063b88d4fde14610310578063c87b56dd1461032c578063e985e9c51461035c578063f1b7075a1461038c57610116565b806370a082311461026a5780638da5cb5b1461029a57806395d89b41146102b85780639f181b5e146102d657610116565b806323b872dd116100e957806323b872dd146101b55780632a55205a146101d157806342842e0e1461020257806342966c681461021e5780636352211e1461023a57610116565b806301ffc9a71461011b57806306fdde031461014b578063081812fc14610169578063095ea7b314610199575b600080fd5b61013560048036038101906101309190611ff9565b6103bc565b6040516101429190612041565b60405180910390f35b61015361044e565b60405161016091906120f5565b60405180910390f35b610183600480360381019061017e919061214d565b6104e0565b60405161019091906121bb565b60405180910390f35b6101b360048036038101906101ae9190612202565b610565565b005b6101cf60048036038101906101ca9190612242565b61067c565b005b6101eb60048036038101906101e69190612295565b6106dc565b6040516101f99291906122e4565b60405180910390f35b61021c60048036038101906102179190612242565b6108c6565b005b6102386004803603810190610233919061214d565b6108e6565b005b610254600480360381019061024f919061214d565b610983565b60405161026191906121bb565b60405180910390f35b610284600480360381019061027f919061230d565b610a34565b604051610291919061233a565b60405180910390f35b6102a2610aeb565b6040516102af91906121bb565b60405180910390f35b6102c0610b11565b6040516102cd91906120f5565b60405180910390f35b6102de610ba3565b6040516102eb919061233a565b60405180910390f35b61030e60048036038101906103099190612381565b610ba9565b005b61032a600480360381019061032591906124f6565b610bbf565b005b6103466004803603810190610341919061214d565b610c21565b60405161035391906120f5565b60405180910390f35b61037660048036038101906103719190612579565b610c33565b6040516103839190612041565b60405180910390f35b6103a660048036038101906103a1919061269e565b610cc7565b6040516103b3919061233a565b60405180910390f35b60006301ffc9a760e01b827bffffffffffffffffffffffffffffffffffffffffffffffffffffffff19161480610417575063150b7a0260e01b827bffffffffffffffffffffffffffffffffffffffffffffffffffffffff1916145b806104475750632a55205a60e01b827bffffffffffffffffffffffffffffffffffffffffffffffffffffffff1916145b9050919050565b60606002805461045d9061273c565b80601f01602080910402602001604051908101604052809291908181526020018280546104899061273c565b80156104d65780601f106104ab576101008083540402835291602001916104d6565b820191906000526020600020905b8154815290600101906020018083116104b957829003601f168201915b5050505050905090565b60006104eb82610d47565b61052a576040517f08c379a0000000000000000000000000000000000000000000000000000000008152600401610521906127df565b60405180910390fd5b6006600083815260200190815260200160002060009054906101000a900473ffffffffffffffffffffffffffffffffffffffff169050919050565b600061057082610983565b90508073ffffffffffffffffffffffffffffffffffffffff168373ffffffffffffffffffffffffffffffffffffffff16036105e0576040517f08c379a00000000000000000000000000000000000000000000000000000000081526004016105d790612871565b60405180910390fd5b8073ffffffffffffffffffffffffffffffffffffffff166105ff610db3565b73ffffffffffffffffffffffffffffffffffffffff16148061062e575061062d81610628610db3565b610c33565b5b61066d576040517f08c379a000000000000000000000000000000000000000000000000000000000815260040161066490612903565b60405180910390fd5b6106778383610dbb565b505050565b61068d610687610db3565b82610e74565b6106cc576040517f08c379a00000000000000000000000000000000000000000000000000000000081526004016106c390612995565b60405180910390fd5b6106d7838383610f52565b505050565b6000806000600160008681526020019081526020016000206040518060400160405290816000820160009054906101000a900473ffffffffffffffffffffffffffffffffffffffff1673ffffffffffffffffffffffffffffffffffffffff1673ffffffffffffffffffffffffffffffffffffffff1681526020016000820160149054906101000a90046bffffffffffffffffffffffff166bffffffffffffffffffffffff166bffffffffffffffffffffffff16815250509050600073ffffffffffffffffffffffffffffffffffffffff16816000015173ffffffffffffffffffffffffffffffffffffffff16036108715760006040518060400160405290816000820160009054906101000a900473ffffffffffffffffffffffffffffffffffffffff1673ffffffffffffffffffffffffffffffffffffffff1673ffffffffffffffffffffffffffffffffffffffff1681526020016000820160149054906101000a90046bffffffffffffffffffffffff166bffffffffffffffffffffffff166bffffffffffffffffffffffff168152505090505b600061087b6111b8565b6bffffffffffffffffffffffff1682602001516bffffffffffffffffffffffff16866108a791906129e4565b6108b19190612a6d565b90508160000151819350935050509250929050565b6108e183838360405180602001604052806000815250610bbf565b505050565b6108f03382610e74565b61092f576040517f08c379a000000000000000000000000000000000000000000000000000000000815260040161092690612b36565b60405180910390fd5b61093881610d47565b610977576040517f08c379a000000000000000000000000000000000000000000000000000000000815260040161096e90612ba2565b60405180910390fd5b610980816111c2565b50565b6000806004600084815260200190815260200160002060009054906101000a900473ffffffffffffffffffffffffffffffffffffffff169050600073ffffffffffffffffffffffffffffffffffffffff168173ffffffffffffffffffffffffffffffffffffffff1603610a2b576040517f08c379a0000000000000000000000000000000000000000000000000000000008152600401610a2290612c34565b60405180910390fd5b80915050919050565b60008073ffffffffffffffffffffffffffffffffffffffff168273ffffffffffffffffffffffffffffffffffffffff1603610aa4576040517f08c379a0000000000000000000000000000000000000000000000000000000008152600401610a9b90612cc6565b60405180910390fd5b600560008373ffffffffffffffffffffffffffffffffffffffff1673ffffffffffffffffffffffffffffffffffffffff168152602001908152602001600020549050919050565b600b60009054906101000a900473ffffffffffffffffffffffffffffffffffffffff1681565b606060038054610b209061273c565b80601f0160208091040260200160405190810160405280929190818152602001828054610b4c9061273c565b8015610b995780601f10610b6e57610100808354040283529160200191610b99565b820191906000526020600020905b815481529060010190602001808311610b7c57829003601f168201915b5050505050905090565b600a5481565b610bbb610bb4610db3565b83836111d7565b5050565b610bd0610bca610db3565b83610e74565b610c0f576040517f08c379a0000000000000000000000000000000000000000000000000000000008152600401610c0690612995565b60405180910390fd5b610c1b84848484611343565b50505050565b6060610c2c8261139f565b9050919050565b6000600760008473ffffffffffffffffffffffffffffffffffffffff1673ffffffffffffffffffffffffffffffffffffffff16815260200190815260200160002060008373ffffffffffffffffffffffffffffffffffffffff1673ffffffffffffffffffffffffffffffffffffffff16815260200190815260200160002060009054906101000a900460ff16905092915050565b6000610cd360096114f0565b6000610cdf6009611506565b905080600a81905550610cf23382611514565b610cfc8186611532565b600073ffffffffffffffffffffffffffffffffffffffff168473ffffffffffffffffffffffffffffffffffffffff1614610d3c57610d3b81858561159f565b5b809150509392505050565b60008073ffffffffffffffffffffffffffffffffffffffff166004600084815260200190815260200160002060009054906101000a900473ffffffffffffffffffffffffffffffffffffffff1673ffffffffffffffffffffffffffffffffffffffff1614159050919050565b600033905090565b816006600083815260200190815260200160002060006101000a81548173ffffffffffffffffffffffffffffffffffffffff021916908373ffffffffffffffffffffffffffffffffffffffff160217905550808273ffffffffffffffffffffffffffffffffffffffff16610e2e83610983565b73ffffffffffffffffffffffffffffffffffffffff167f8c5be1e5ebec7d5bd14f71427d1e84f3dd0314c0f7b2291e5b200ac8c7c3b92560405160405180910390a45050565b6000610e7f82610d47565b610ebe576040517f08c379a0000000000000000000000000000000000000000000000000000000008152600401610eb590612d58565b60405180910390fd5b6000610ec983610983565b90508073ffffffffffffffffffffffffffffffffffffffff168473ffffffffffffffffffffffffffffffffffffffff161480610f3857508373ffffffffffffffffffffffffffffffffffffffff16610f20846104e0565b73ffffffffffffffffffffffffffffffffffffffff16145b80610f495750610f488185610c33565b5b91505092915050565b8273ffffffffffffffffffffffffffffffffffffffff16610f7282610983565b73ffffffffffffffffffffffffffffffffffffffff1614610fc8576040517f08c379a0000000000000000000000000000000000000000000000000000000008152600401610fbf90612dea565b60405180910390fd5b600073ffffffffffffffffffffffffffffffffffffffff168273ffffffffffffffffffffffffffffffffffffffff1603611037576040517f08c379a000000000000000000000000000000000000000000000000000000000815260040161102e90612e7c565b60405180910390fd5b611042838383611746565b61104d600082610dbb565b6001600560008573ffffffffffffffffffffffffffffffffffffffff1673ffffffffffffffffffffffffffffffffffffffff168152602001908152602001600020600082825461109d9190612e9c565b925050819055506001600560008473ffffffffffffffffffffffffffffffffffffffff1673ffffffffffffffffffffffffffffffffffffffff16815260200190815260200160002060008282546110f49190612ed0565b92505081905550816004600083815260200190815260200160002060006101000a81548173ffffffffffffffffffffffffffffffffffffffff021916908373ffffffffffffffffffffffffffffffffffffffff160217905550808273ffffffffffffffffffffffffffffffffffffffff168473ffffffffffffffffffffffffffffffffffffffff167fddf252ad1be2c89b69c2b068fc378daa952ba7f163c4a11628f55a4df523b3ef60405160405180910390a46111b383838361174b565b505050565b6000612710905090565b6111cb81611750565b6111d481611765565b50565b8173ffffffffffffffffffffffffffffffffffffffff168373ffffffffffffffffffffffffffffffffffffffff1603611245576040517f08c379a000000000000000000000000000000000000000000000000000000000815260040161123c90612f72565b60405180910390fd5b80600760008573ffffffffffffffffffffffffffffffffffffffff1673ffffffffffffffffffffffffffffffffffffffff16815260200190815260200160002060008473ffffffffffffffffffffffffffffffffffffffff1673ffffffffffffffffffffffffffffffffffffffff16815260200190815260200160002060006101000a81548160ff0219169083151502179055508173ffffffffffffffffffffffffffffffffffffffff168373ffffffffffffffffffffffffffffffffffffffff167f17307eab39ab6107e8899845ad3d59bd9653f200f220920489ca2b5937696c31836040516113369190612041565b60405180910390a3505050565b61134e848484610f52565b61135a848484846117c4565b611399576040517f08c379a000000000000000000000000000000000000000000000000000000000815260040161139090613004565b60405180910390fd5b50505050565b60606113aa82610d47565b6113e9576040517f08c379a00000000000000000000000000000000000000000000000000000000081526004016113e090613096565b60405180910390fd5b60006008600084815260200190815260200160002080546114099061273c565b80601f01602080910402602001604051908101604052809291908181526020018280546114359061273c565b80156114825780601f1061145757610100808354040283529160200191611482565b820191906000526020600020905b81548152906001019060200180831161146557829003601f168201915b50505050509050600061149361194b565b905060008151036114a85781925050506114eb565b6000825111156114dd5780826040516020016114c59291906130f2565b604051602081830303815290604052925050506114eb565b6114e684611962565b925050505b919050565b6001816000016000828254019250508190555050565b600081600001549050919050565b61152e828260405180602001604052806000815250611a09565b5050565b61153b82610d47565b61157a576040517f08c379a000000000000000000000000000000000000000000000000000000000815260040161157190613188565b60405180910390fd5b8060086000848152602001908152602001600020908161159a9190613354565b505050565b6115a76111b8565b6bffffffffffffffffffffffff16816bffffffffffffffffffffffff161115611605576040517f08c379a00000000000000000000000000000000000000000000000000000000081526004016115fc90613498565b60405180910390fd5b600073ffffffffffffffffffffffffffffffffffffffff168273ffffffffffffffffffffffffffffffffffffffff1603611674576040517f08c379a000000000000000000000000000000000000000000000000000000000815260040161166b90613504565b60405180910390fd5b60405180604001604052808373ffffffffffffffffffffffffffffffffffffffff168152602001826bffffffffffffffffffffffff168152506001600085815260200190815260200160002060008201518160000160006101000a81548173ffffffffffffffffffffffffffffffffffffffff021916908373ffffffffffffffffffffffffffffffffffffffff16021790555060208201518160000160146101000a8154816bffffffffffffffffffffffff02191690836bffffffffffffffffffffffff160217905550905050505050565b505050565b505050565b61175981611a64565b61176281611765565b50565b60016000828152602001908152602001600020600080820160006101000a81549073ffffffffffffffffffffffffffffffffffffffff02191690556000820160146101000a8154906bffffffffffffffffffffffff0219169055505050565b60006117e58473ffffffffffffffffffffffffffffffffffffffff16611ab7565b1561193e578373ffffffffffffffffffffffffffffffffffffffff1663150b7a0261180e610db3565b8786866040518563ffffffff1660e01b81526004016118309493929190613579565b6020604051808303816000875af192505050801561186c57506040513d601f19601f8201168201806040525081019061186991906135da565b60015b6118ee573d806000811461189c576040519150601f19603f3d011682016040523d82523d6000602084013e6118a1565b606091505b5060008151036118e6576040517f08c379a00000000000000000000000000000000000000000000000000000000081526004016118dd90613004565b60405180910390fd5b805181602001fd5b63150b7a0260e01b7bffffffffffffffffffffffffffffffffffffffffffffffffffffffff1916817bffffffffffffffffffffffffffffffffffffffffffffffffffffffff191614915050611943565b600190505b949350505050565b606060405180602001604052806000815250905090565b606061196d82610d47565b6119ac576040517f08c379a00000000000000000000000000000000000000000000000000000000081526004016119a390613679565b60405180910390fd5b60006119b661194b565b905060008151116119d65760405180602001604052806000815250611a01565b806119e084611ada565b6040516020016119f19291906130f2565b6040516020818303038152906040525b915050919050565b611a138383611c3a565b611a2060008484846117c4565b611a5f576040517f08c379a0000000000000000000000000000000000000000000000000000000008152600401611a5690613004565b60405180910390fd5b505050565b611a6d81611e13565b6000600860008381526020019081526020016000208054611a8d9061273c565b905014611ab457600860008281526020019081526020016000206000611ab39190611f30565b5b50565b6000808273ffffffffffffffffffffffffffffffffffffffff163b119050919050565b606060008203611b21576040518060400160405280600181526020017f30000000000000000000000000000000000000000000000000000000000000008152509050611c35565b600082905060005b60008214611b53578080611b3c90613699565b915050600a82611b4c9190612a6d565b9150611b29565b60008167ffffffffffffffff811115611b6f57611b6e6123cb565b5b6040519080825280601f01601f191660200182016040528015611ba15781602001600182028036833780820191505090505b5090505b60008514611c2e57600182611bba9190612e9c565b9150600a85611bc991906136e1565b6030611bd59190612ed0565b60f81b818381518110611beb57611bea613712565b5b60200101907effffffffffffffffffffffffffffffffffffffffffffffffffffffffffffff1916908160001a905350600a85611c279190612a6d565b9450611ba5565b8093505050505b919050565b600073ffffffffffffffffffffffffffffffffffffffff168273ffffffffffffffffffffffffffffffffffffffff1603611ca9576040517f08c379a0000000000000000000000000000000000000000000000000000000008152600401611ca09061378d565b60405180910390fd5b611cb281610d47565b15611cf2576040517f08c379a0000000000000000000000000000000000000000000000000000000008152600401611ce9906137f9565b60405180910390fd5b611cfe60008383611746565b6001600560008473ffffffffffffffffffffffffffffffffffffffff1673ffffffffffffffffffffffffffffffffffffffff1681526020019081526020016000206000828254611d4e9190612ed0565b92505081905550816004600083815260200190815260200160002060006101000a81548173ffffffffffffffffffffffffffffffffffffffff021916908373ffffffffffffffffffffffffffffffffffffffff160217905550808273ffffffffffffffffffffffffffffffffffffffff16600073ffffffffffffffffffffffffffffffffffffffff167fddf252ad1be2c89b69c2b068fc378daa952ba7f163c4a11628f55a4df523b3ef60405160405180910390a4611e0f6000838361174b565b5050565b6000611e1e82610983565b9050611e2c81600084611746565b611e37600083610dbb565b6001600560008373ffffffffffffffffffffffffffffffffffffffff1673ffffffffffffffffffffffffffffffffffffffff1681526020019081526020016000206000828254611e879190612e9c565b925050819055506004600083815260200190815260200160002060006101000a81549073ffffffffffffffffffffffffffffffffffffffff021916905581600073ffffffffffffffffffffffffffffffffffffffff168273ffffffffffffffffffffffffffffffffffffffff167fddf252ad1be2c89b69c2b068fc378daa952ba7f163c4a11628f55a4df523b3ef60405160405180910390a4611f2c8160008461174b565b5050565b508054611f3c9061273c565b6000825580601f10611f4e5750611f6d565b601f016020900490600052602060002090810190611f6c9190611f70565b5b50565b5b80821115611f89576000816000905550600101611f71565b5090565b6000604051905090565b600080fd5b600080fd5b60007fffffffff0000000000000000000000000000000000000000000000000000000082169050919050565b611fd681611fa1565b8114611fe157600080fd5b50565b600081359050611ff381611fcd565b92915050565b60006020828403121561200f5761200e611f97565b5b600061201d84828501611fe4565b91505092915050565b60008115159050919050565b61203b81612026565b82525050565b60006020820190506120566000830184612032565b92915050565b600081519050919050565b600082825260208201905092915050565b60005b8381101561209657808201518184015260208101905061207b565b838111156120a5576000848401525b50505050565b6000601f19601f8301169050919050565b60006120c78261205c565b6120d18185612067565b93506120e1818560208601612078565b6120ea816120ab565b840191505092915050565b6000602082019050818103600083015261210f81846120bc565b905092915050565b6000819050919050565b61212a81612117565b811461213557600080fd5b50565b60008135905061214781612121565b92915050565b60006020828403121561216357612162611f97565b5b600061217184828501612138565b91505092915050565b600073ffffffffffffffffffffffffffffffffffffffff82169050919050565b60006121a58261217a565b9050919050565b6121b58161219a565b82525050565b60006020820190506121d060008301846121ac565b92915050565b6121df8161219a565b81146121ea57600080fd5b50565b6000813590506121fc816121d6565b92915050565b6000806040838503121561221957612218611f97565b5b6000612227858286016121ed565b925050602061223885828601612138565b9150509250929050565b60008060006060848603121561225b5761225a611f97565b5b6000612269868287016121ed565b935050602061227a868287016121ed565b925050604061228b86828701612138565b9150509250925092565b600080604083850312156122ac576122ab611f97565b5b60006122ba85828601612138565b92505060206122cb85828601612138565b9150509250929050565b6122de81612117565b82525050565b60006040820190506122f960008301856121ac565b61230660208301846122d5565b9392505050565b60006020828403121561232357612322611f97565b5b6000612331848285016121ed565b91505092915050565b600060208201905061234f60008301846122d5565b92915050565b61235e81612026565b811461236957600080fd5b50565b60008135905061237b81612355565b92915050565b6000806040838503121561239857612397611f97565b5b60006123a6858286016121ed565b92505060206123b78582860161236c565b9150509250929050565b600080fd5b600080fd5b7f4e487b7100000000000000000000000000000000000000000000000000000000600052604160045260246000fd5b612403826120ab565b810181811067ffffffffffffffff82111715612422576124216123cb565b5b80604052505050565b6000612435611f8d565b905061244182826123fa565b919050565b600067ffffffffffffffff821115612461576124606123cb565b5b61246a826120ab565b9050602081019050919050565b82818337600083830152505050565b600061249961249484612446565b61242b565b9050828152602081018484840111156124b5576124b46123c6565b5b6124c0848285612477565b509392505050565b600082601f8301126124dd576124dc6123c1565b5b81356124ed848260208601612486565b91505092915050565b600080600080608085870312156125105761250f611f97565b5b600061251e878288016121ed565b945050602061252f878288016121ed565b935050604061254087828801612138565b925050606085013567ffffffffffffffff81111561256157612560611f9c565b5b61256d878288016124c8565b91505092959194509250565b600080604083850312156125905761258f611f97565b5b600061259e858286016121ed565b92505060206125af858286016121ed565b9150509250929050565b600067ffffffffffffffff8211156125d4576125d36123cb565b5b6125dd826120ab565b9050602081019050919050565b60006125fd6125f8846125b9565b61242b565b905082815260208101848484011115612619576126186123c6565b5b612624848285612477565b509392505050565b600082601f830112612641576126406123c1565b5b81356126518482602086016125ea565b91505092915050565b60006bffffffffffffffffffffffff82169050919050565b61267b8161265a565b811461268657600080fd5b50565b60008135905061269881612672565b92915050565b6000806000606084860312156126b7576126b6611f97565b5b600084013567ffffffffffffffff8111156126d5576126d4611f9c565b5b6126e18682870161262c565b93505060206126f2868287016121ed565b925050604061270386828701612689565b9150509250925092565b7f4e487b7100000000000000000000000000000000000000000000000000000000600052602260045260246000fd5b6000600282049050600182168061275457607f821691505b6020821081036127675761276661270d565b5b50919050565b7f4552433732313a20617070726f76656420717565727920666f72206e6f6e657860008201527f697374656e7420746f6b656e0000000000000000000000000000000000000000602082015250565b60006127c9602c83612067565b91506127d48261276d565b604082019050919050565b600060208201905081810360008301526127f8816127bc565b9050919050565b7f4552433732313a20617070726f76616c20746f2063757272656e74206f776e6560008201527f7200000000000000000000000000000000000000000000000000000000000000602082015250565b600061285b602183612067565b9150612866826127ff565b604082019050919050565b6000602082019050818103600083015261288a8161284e565b9050919050565b7f4552433732313a20617070726f76652063616c6c6572206973206e6f74206f7760008201527f6e6572206e6f7220617070726f76656420666f7220616c6c0000000000000000602082015250565b60006128ed603883612067565b91506128f882612891565b604082019050919050565b6000602082019050818103600083015261291c816128e0565b9050919050565b7f4552433732313a207472616e736665722063616c6c6572206973206e6f74206f60008201527f776e6572206e6f7220617070726f766564000000000000000000000000000000602082015250565b600061297f603183612067565b915061298a82612923565b604082019050919050565b600060208201905081810360008301526129ae81612972565b9050919050565b7f4e487b7100000000000000000000000000000000000000000000000000000000600052601160045260246000fd5b60006129ef82612117565b91506129fa83612117565b9250817fffffffffffffffffffffffffffffffffffffffffffffffffffffffffffffffff0483118215151615612a3357612a326129b5565b5b828202905092915050565b7f4e487b7100000000000000000000000000000000000000000000000000000000600052601260045260246000fd5b6000612a7882612117565b9150612a8383612117565b925082612a9357612a92612a3e565b5b828204905092915050565b7f4f776e6572206f7220417070726f7665642073656e646572206f66207468652060008201527f4e46542063616e206f6e6c79206275726e204e465473206f776e65642062792060208201527f7468656d00000000000000000000000000000000000000000000000000000000604082015250565b6000612b20604483612067565b9150612b2b82612a9e565b606082019050919050565b60006020820190508181036000830152612b4f81612b13565b9050919050565b7f4e465420646f6573206e6f742065786973740000000000000000000000000000600082015250565b6000612b8c601283612067565b9150612b9782612b56565b602082019050919050565b60006020820190508181036000830152612bbb81612b7f565b9050919050565b7f4552433732313a206f776e657220717565727920666f72206e6f6e657869737460008201527f656e7420746f6b656e0000000000000000000000000000000000000000000000602082015250565b6000612c1e602983612067565b9150612c2982612bc2565b604082019050919050565b60006020820190508181036000830152612c4d81612c11565b9050919050565b7f4552433732313a2062616c616e636520717565727920666f7220746865207a6560008201527f726f206164647265737300000000000000000000000000000000000000000000602082015250565b6000612cb0602a83612067565b9150612cbb82612c54565b604082019050919050565b60006020820190508181036000830152612cdf81612ca3565b9050919050565b7f4552433732313a206f70657261746f7220717565727920666f72206e6f6e657860008201527f697374656e7420746f6b656e0000000000000000000000000000000000000000602082015250565b6000612d42602c83612067565b9150612d4d82612ce6565b604082019050919050565b60006020820190508181036000830152612d7181612d35565b9050919050565b7f4552433732313a207472616e736665722066726f6d20696e636f72726563742060008201527f6f776e6572000000000000000000000000000000000000000000000000000000602082015250565b6000612dd4602583612067565b9150612ddf82612d78565b604082019050919050565b60006020820190508181036000830152612e0381612dc7565b9050919050565b7f4552433732313a207472616e7366657220746f20746865207a65726f2061646460008201527f7265737300000000000000000000000000000000000000000000000000000000602082015250565b6000612e66602483612067565b9150612e7182612e0a565b604082019050919050565b60006020820190508181036000830152612e9581612e59565b9050919050565b6000612ea782612117565b9150612eb283612117565b925082821015612ec557612ec46129b5565b5b828203905092915050565b6000612edb82612117565b9150612ee683612117565b9250827fffffffffffffffffffffffffffffffffffffffffffffffffffffffffffffffff03821115612f1b57612f1a6129b5565b5b828201905092915050565b7f4552433732313a20617070726f766520746f2063616c6c657200000000000000600082015250565b6000612f5c601983612067565b9150612f6782612f26565b602082019050919050565b60006020820190508181036000830152612f8b81612f4f565b9050919050565b7f4552433732313a207472616e7366657220746f206e6f6e20455243373231526560008201527f63656976657220696d706c656d656e7465720000000000000000000000000000602082015250565b6000612fee603283612067565b9150612ff982612f92565b604082019050919050565b6000602082019050818103600083015261301d81612fe1565b9050919050565b7f45524337323155524953746f726167653a2055524920717565727920666f722060008201527f6e6f6e6578697374656e7420746f6b656e000000000000000000000000000000602082015250565b6000613080603183612067565b915061308b82613024565b604082019050919050565b600060208201905081810360008301526130af81613073565b9050919050565b600081905092915050565b60006130cc8261205c565b6130d681856130b6565b93506130e6818560208601612078565b80840191505092915050565b60006130fe82856130c1565b915061310a82846130c1565b91508190509392505050565b7f45524337323155524953746f726167653a2055524920736574206f66206e6f6e60008201527f6578697374656e7420746f6b656e000000000000000000000000000000000000602082015250565b6000613172602e83612067565b915061317d82613116565b604082019050919050565b600060208201905081810360008301526131a181613165565b9050919050565b60008190508160005260206000209050919050565b60006020601f8301049050919050565b600082821b905092915050565b60006008830261320a7fffffffffffffffffffffffffffffffffffffffffffffffffffffffffffffffff826131cd565b61321486836131cd565b95508019841693508086168417925050509392505050565b6000819050919050565b600061325161324c61324784612117565b61322c565b612117565b9050919050565b6000819050919050565b61326b83613236565b61327f61327782613258565b8484546131da565b825550505050565b600090565b613294613287565b61329f818484613262565b505050565b5b818110156132c3576132b860008261328c565b6001810190506132a5565b5050565b601f821115613308576132d9816131a8565b6132e2846131bd565b810160208510156132f1578190505b6133056132fd856131bd565b8301826132a4565b50505b505050565b600082821c905092915050565b600061332b6000198460080261330d565b1980831691505092915050565b6000613344838361331a565b9150826002028217905092915050565b61335d8261205c565b67ffffffffffffffff811115613376576133756123cb565b5b613380825461273c565b61338b8282856132c7565b600060209050601f8311600181146133be57600084156133ac578287015190505b6133b68582613338565b86555061341e565b601f1984166133cc866131a8565b60005b828110156133f4578489015182556001820191506020850194506020810190506133cf565b86831015613411578489015161340d601f89168261331a565b8355505b6001600288020188555050505b505050505050565b7f455243323938313a20726f79616c7479206665652077696c6c2065786365656460008201527f2073616c65507269636500000000000000000000000000000000000000000000602082015250565b6000613482602a83612067565b915061348d82613426565b604082019050919050565b600060208201905081810360008301526134b181613475565b9050919050565b7f455243323938313a20496e76616c696420706172616d65746572730000000000600082015250565b60006134ee601b83612067565b91506134f9826134b8565b602082019050919050565b6000602082019050818103600083015261351d816134e1565b9050919050565b600081519050919050565b600082825260208201905092915050565b600061354b82613524565b613555818561352f565b9350613565818560208601612078565b61356e816120ab565b840191505092915050565b600060808201905061358e60008301876121ac565b61359b60208301866121ac565b6135a860408301856122d5565b81810360608301526135ba8184613540565b905095945050505050565b6000815190506135d481611fcd565b92915050565b6000602082840312156135f0576135ef611f97565b5b60006135fe848285016135c5565b91505092915050565b7f4552433732314d657461646174613a2055524920717565727920666f72206e6f60008201527f6e6578697374656e7420746f6b656e0000000000000000000000000000000000602082015250565b6000613663602f83612067565b915061366e82613607565b604082019050919050565b6000602082019050818103600083015261369281613656565b9050919050565b60006136a482612117565b91507fffffffffffffffffffffffffffffffffffffffffffffffffffffffffffffffff82036136d6576136d56129b5565b5b600182019050919050565b60006136ec82612117565b91506136f783612117565b92508261370757613706612a3e565b5b828206905092915050565b7f4e487b7100000000000000000000000000000000000000000000000000000000600052603260045260246000fd5b7f4552433732313a206d696e7420746f20746865207a65726f2061646472657373600082015250565b6000613777602083612067565b915061378282613741565b602082019050919050565b600060208201905081810360008301526137a68161376a565b9050919050565b7f4552433732313a20746f6b656e20616c7265616479206d696e74656400000000600082015250565b60006137e3601c83612067565b91506137ee826137ad565b602082019050919050565b60006020820190508181036000830152613812816137d6565b905091905056fea2646970667358221220b687ae3e0810e0bc90236f72034fcec060a2fe9ee02435f8312fac011398fb3864736f6c634300080f0033",
  "linkReferences": {},
  "deployedLinkReferences": {}
}