{
  "_format": "hh-sol-artifact-1",
  "contractName": "NFT721",
  "sourceName": "newContracts/NFT721.sol",
  "abi": [
    {
      "inputs": [
        {
          "internalType": "string",
          "name": "_collectionName",
          "type": "string"
        },
        {
          "internalType": "string",
          "name": "_collectionSymbol",
          "type": "string"
        },
        {
          "internalType": "uint96",
          "name": "contractRoyalty",
          "type": "uint96"
        },
        {
          "internalType": "address",
          "name": "royaltyReceiver",
          "type": "address"
        }
      ],
      "stateMutability": "nonpayable",
      "type": "constructor"
    },
    {
      "anonymous": false,
      "inputs": [
        {
          "indexed": true,
          "internalType": "address",
          "name": "owner",
          "type": "address"
        },
        {
          "indexed": true,
          "internalType": "address",
          "name": "approved",
          "type": "address"
        },
        {
          "indexed": true,
          "internalType": "uint256",
          "name": "tokenId",
          "type": "uint256"
        }
      ],
      "name": "Approval",
      "type": "event"
    },
    {
      "anonymous": false,
      "inputs": [
        {
          "indexed": true,
          "internalType": "address",
          "name": "owner",
          "type": "address"
        },
        {
          "indexed": true,
          "internalType": "address",
          "name": "operator",
          "type": "address"
        },
        {
          "indexed": false,
          "internalType": "bool",
          "name": "approved",
          "type": "bool"
        }
      ],
      "name": "ApprovalForAll",
      "type": "event"
    },
    {
      "anonymous": false,
      "inputs": [
        {
          "indexed": true,
          "internalType": "address",
          "name": "from",
          "type": "address"
        },
        {
          "indexed": true,
          "internalType": "address",
          "name": "to",
          "type": "address"
        },
        {
          "indexed": true,
          "internalType": "uint256",
          "name": "tokenId",
          "type": "uint256"
        }
      ],
      "name": "Transfer",
      "type": "event"
    },
    {
      "inputs": [
        {
          "internalType": "address",
          "name": "to",
          "type": "address"
        },
        {
          "internalType": "uint256",
          "name": "tokenId",
          "type": "uint256"
        }
      ],
      "name": "approve",
      "outputs": [],
      "stateMutability": "nonpayable",
      "type": "function"
    },
    {
      "inputs": [
        {
          "internalType": "address",
          "name": "owner",
          "type": "address"
        }
      ],
      "name": "balanceOf",
      "outputs": [
        {
          "internalType": "uint256",
          "name": "",
          "type": "uint256"
        }
      ],
      "stateMutability": "view",
      "type": "function"
    },
    {
      "inputs": [
        {
          "internalType": "uint256",
          "name": "_tokenID",
          "type": "uint256"
        }
      ],
      "name": "burn",
      "outputs": [],
      "stateMutability": "nonpayable",
      "type": "function"
    },
    {
      "inputs": [
        {
          "internalType": "uint256",
          "name": "tokenId",
          "type": "uint256"
        }
      ],
      "name": "getApproved",
      "outputs": [
        {
          "internalType": "address",
          "name": "",
          "type": "address"
        }
      ],
      "stateMutability": "view",
      "type": "function"
    },
    {
      "inputs": [
        {
          "internalType": "address",
          "name": "owner",
          "type": "address"
        },
        {
          "internalType": "address",
          "name": "operator",
          "type": "address"
        }
      ],
      "name": "isApprovedForAll",
      "outputs": [
        {
          "internalType": "bool",
          "name": "",
          "type": "bool"
        }
      ],
      "stateMutability": "view",
      "type": "function"
    },
    {
      "inputs": [
        {
          "internalType": "string",
          "name": "_tokenURI",
          "type": "string"
        },
        {
          "internalType": "address",
          "name": "royaltyReceiver",
          "type": "address"
        },
        {
          "internalType": "uint96",
          "name": "tokenRoyalty",
          "type": "uint96"
        }
      ],
      "name": "mint",
      "outputs": [
        {
          "internalType": "uint256",
          "name": "",
          "type": "uint256"
        }
      ],
      "stateMutability": "nonpayable",
      "type": "function"
    },
    {
      "inputs": [],
      "name": "name",
      "outputs": [
        {
          "internalType": "string",
          "name": "",
          "type": "string"
        }
      ],
      "stateMutability": "view",
      "type": "function"
    },
    {
      "inputs": [],
      "name": "owner",
      "outputs": [
        {
          "internalType": "address",
          "name": "",
          "type": "address"
        }
      ],
      "stateMutability": "view",
      "type": "function"
    },
    {
      "inputs": [
        {
          "internalType": "uint256",
          "name": "tokenId",
          "type": "uint256"
        }
      ],
      "name": "ownerOf",
      "outputs": [
        {
          "internalType": "address",
          "name": "",
          "type": "address"
        }
      ],
      "stateMutability": "view",
      "type": "function"
    },
    {
      "inputs": [
        {
          "internalType": "uint256",
          "name": "_tokenId",
          "type": "uint256"
        },
        {
          "internalType": "uint256",
          "name": "_salePrice",
          "type": "uint256"
        }
      ],
      "name": "royaltyInfo",
      "outputs": [
        {
          "internalType": "address",
          "name": "",
          "type": "address"
        },
        {
          "internalType": "uint256",
          "name": "",
          "type": "uint256"
        }
      ],
      "stateMutability": "view",
      "type": "function"
    },
    {
      "inputs": [
        {
          "internalType": "address",
          "name": "from",
          "type": "address"
        },
        {
          "internalType": "address",
          "name": "to",
          "type": "address"
        },
        {
          "internalType": "uint256",
          "name": "tokenId",
          "type": "uint256"
        }
      ],
      "name": "safeTransferFrom",
      "outputs": [],
      "stateMutability": "nonpayable",
      "type": "function"
    },
    {
      "inputs": [
        {
          "internalType": "address",
          "name": "from",
          "type": "address"
        },
        {
          "internalType": "address",
          "name": "to",
          "type": "address"
        },
        {
          "internalType": "uint256",
          "name": "tokenId",
          "type": "uint256"
        },
        {
          "internalType": "bytes",
          "name": "data",
          "type": "bytes"
        }
      ],
      "name": "safeTransferFrom",
      "outputs": [],
      "stateMutability": "nonpayable",
      "type": "function"
    },
    {
      "inputs": [
        {
          "internalType": "address",
          "name": "operator",
          "type": "address"
        },
        {
          "internalType": "bool",
          "name": "approved",
          "type": "bool"
        }
      ],
      "name": "setApprovalForAll",
      "outputs": [],
      "stateMutability": "nonpayable",
      "type": "function"
    },
    {
      "inputs": [
        {
          "internalType": "bytes4",
          "name": "interfaceId",
          "type": "bytes4"
        }
      ],
      "name": "supportsInterface",
      "outputs": [
        {
          "internalType": "bool",
          "name": "",
          "type": "bool"
        }
      ],
      "stateMutability": "pure",
      "type": "function"
    },
    {
      "inputs": [],
      "name": "symbol",
      "outputs": [
        {
          "internalType": "string",
          "name": "",
          "type": "string"
        }
      ],
      "stateMutability": "view",
      "type": "function"
    },
    {
      "inputs": [],
      "name": "tokenCount",
      "outputs": [
        {
          "internalType": "uint256",
          "name": "",
          "type": "uint256"
        }
      ],
      "stateMutability": "view",
      "type": "function"
    },
    {
      "inputs": [
        {
          "internalType": "uint256",
          "name": "tokenId",
          "type": "uint256"
        }
      ],
      "name": "tokenURI",
      "outputs": [
        {
          "internalType": "string",
          "name": "",
          "type": "string"
        }
      ],
      "stateMutability": "view",
      "type": "function"
    },
    {
      "inputs": [
        {
          "internalType": "address",
          "name": "from",
          "type": "address"
        },
        {
          "internalType": "address",
          "name": "to",
          "type": "address"
        },
        {
          "internalType": "uint256",
          "name": "tokenId",
          "type": "uint256"
        }
      ],
      "name": "transferFrom",
      "outputs": [],
      "stateMutability": "nonpayable",
      "type": "function"
    }
  ],
  "bytecode": "0x60806040523480156200001157600080fd5b5060405162003eee38038062003eee8339818101604052810190620000379190620004bb565b838381600290816200004a9190620007b6565b5080600390816200005c9190620007b6565b50505033600b60006101000a81548173ffffffffffffffffffffffffffffffffffffffff021916908373ffffffffffffffffffffffffffffffffffffffff160217905550620000b28183620000c460201b60201c565b6000600a8190555050505050620009b8565b620000d46200026660201b60201c565b6bffffffffffffffffffffffff16816bffffffffffffffffffffffff16111562000135576040517f08c379a00000000000000000000000000000000000000000000000000000000081526004016200012c9062000924565b60405180910390fd5b600073ffffffffffffffffffffffffffffffffffffffff168273ffffffffffffffffffffffffffffffffffffffff1603620001a7576040517f08c379a00000000000000000000000000000000000000000000000000000000081526004016200019e9062000996565b60405180910390fd5b60405180604001604052808373ffffffffffffffffffffffffffffffffffffffff168152602001826bffffffffffffffffffffffff168152506000808201518160000160006101000a81548173ffffffffffffffffffffffffffffffffffffffff021916908373ffffffffffffffffffffffffffffffffffffffff16021790555060208201518160000160146101000a8154816bffffffffffffffffffffffff02191690836bffffffffffffffffffffffff1602179055509050505050565b6000612710905090565b6000604051905090565b600080fd5b600080fd5b600080fd5b600080fd5b6000601f19601f8301169050919050565b7f4e487b7100000000000000000000000000000000000000000000000000000000600052604160045260246000fd5b620002d9826200028e565b810181811067ffffffffffffffff82111715620002fb57620002fa6200029f565b5b80604052505050565b60006200031062000270565b90506200031e8282620002ce565b919050565b600067ffffffffffffffff8211156200034157620003406200029f565b5b6200034c826200028e565b9050602081019050919050565b60005b83811015620003795780820151818401526020810190506200035c565b8381111562000389576000848401525b50505050565b6000620003a6620003a08462000323565b62000304565b905082815260208101848484011115620003c557620003c462000289565b5b620003d284828562000359565b509392505050565b600082601f830112620003f257620003f162000284565b5b8151620004048482602086016200038f565b91505092915050565b60006bffffffffffffffffffffffff82169050919050565b62000430816200040d565b81146200043c57600080fd5b50565b600081519050620004508162000425565b92915050565b600073ffffffffffffffffffffffffffffffffffffffff82169050919050565b6000620004838262000456565b9050919050565b620004958162000476565b8114620004a157600080fd5b50565b600081519050620004b5816200048a565b92915050565b60008060008060808587031215620004d857620004d76200027a565b5b600085015167ffffffffffffffff811115620004f957620004f86200027f565b5b6200050787828801620003da565b945050602085015167ffffffffffffffff8111156200052b576200052a6200027f565b5b6200053987828801620003da565b93505060406200054c878288016200043f565b92505060606200055f87828801620004a4565b91505092959194509250565b600081519050919050565b7f4e487b7100000000000000000000000000000000000000000000000000000000600052602260045260246000fd5b60006002820490506001821680620005be57607f821691505b602082108103620005d457620005d362000576565b5b50919050565b60008190508160005260206000209050919050565b60006020601f8301049050919050565b600082821b905092915050565b6000600883026200063e7fffffffffffffffffffffffffffffffffffffffffffffffffffffffffffffffff82620005ff565b6200064a8683620005ff565b95508019841693508086168417925050509392505050565b6000819050919050565b6000819050919050565b600062000697620006916200068b8462000662565b6200066c565b62000662565b9050919050565b6000819050919050565b620006b38362000676565b620006cb620006c2826200069e565b8484546200060c565b825550505050565b600090565b620006e2620006d3565b620006ef818484620006a8565b505050565b5b8181101562000717576200070b600082620006d8565b600181019050620006f5565b5050565b601f82111562000766576200073081620005da565b6200073b84620005ef565b810160208510156200074b578190505b620007636200075a85620005ef565b830182620006f4565b50505b505050565b600082821c905092915050565b60006200078b600019846008026200076b565b1980831691505092915050565b6000620007a6838362000778565b9150826002028217905092915050565b620007c1826200056b565b67ffffffffffffffff811115620007dd57620007dc6200029f565b5b620007e98254620005a5565b620007f68282856200071b565b600060209050601f8311600181146200082e576000841562000819578287015190505b62000825858262000798565b86555062000895565b601f1984166200083e86620005da565b60005b82811015620008685784890151825560018201915060208501945060208101905062000841565b8683101562000888578489015162000884601f89168262000778565b8355505b6001600288020188555050505b505050505050565b600082825260208201905092915050565b7f455243323938313a20726f79616c7479206665652077696c6c2065786365656460008201527f2073616c65507269636500000000000000000000000000000000000000000000602082015250565b60006200090c602a836200089d565b91506200091982620008ae565b604082019050919050565b600060208201905081810360008301526200093f81620008fd565b9050919050565b7f455243323938313a20696e76616c696420726563656976657200000000000000600082015250565b60006200097e6019836200089d565b91506200098b8262000946565b602082019050919050565b60006020820190508181036000830152620009b1816200096f565b9050919050565b61352680620009c86000396000f3fe608060405234801561001057600080fd5b50600436106101165760003560e01c806370a08231116100a2578063a22cb46511610071578063a22cb465146102f4578063b88d4fde14610310578063c87b56dd1461032c578063e985e9c51461035c578063f1b7075a1461038c57610116565b806370a082311461026a5780638da5cb5b1461029a57806395d89b41146102b85780639f181b5e146102d657610116565b806323b872dd116100e957806323b872dd146101b55780632a55205a146101d157806342842e0e1461020257806342966c681461021e5780636352211e1461023a57610116565b806301ffc9a71461011b57806306fdde031461014b578063081812fc14610169578063095ea7b314610199575b600080fd5b61013560048036038101906101309190611f3e565b6103bc565b6040516101429190611f86565b60405180910390f35b61015361044e565b604051610160919061203a565b60405180910390f35b610183600480360381019061017e9190612092565b6104e0565b6040516101909190612100565b60405180910390f35b6101b360048036038101906101ae9190612147565b610526565b005b6101cf60048036038101906101ca9190612187565b61063d565b005b6101eb60048036038101906101e691906121da565b61069d565b6040516101f9929190612229565b60405180910390f35b61021c60048036038101906102179190612187565b610887565b005b61023860048036038101906102339190612092565b6108a7565b005b610254600480360381019061024f9190612092565b610944565b6040516102619190612100565b60405180910390f35b610284600480360381019061027f9190612252565b6109f5565b604051610291919061227f565b60405180910390f35b6102a2610aac565b6040516102af9190612100565b60405180910390f35b6102c0610ad2565b6040516102cd919061203a565b60405180910390f35b6102de610b64565b6040516102eb919061227f565b60405180910390f35b61030e600480360381019061030991906122c6565b610b6a565b005b61032a6004803603810190610325919061243b565b610b80565b005b61034660048036038101906103419190612092565b610be2565b604051610353919061203a565b60405180910390f35b610376600480360381019061037191906124be565b610bf4565b6040516103839190611f86565b60405180910390f35b6103a660048036038101906103a191906125e3565b610c88565b6040516103b3919061227f565b60405180910390f35b60006301ffc9a760e01b827bffffffffffffffffffffffffffffffffffffffffffffffffffffffff19161480610417575063150b7a0260e01b827bffffffffffffffffffffffffffffffffffffffffffffffffffffffff1916145b806104475750632a55205a60e01b827bffffffffffffffffffffffffffffffffffffffffffffffffffffffff1916145b9050919050565b60606002805461045d90612681565b80601f016020809104026020016040519081016040528092919081815260200182805461048990612681565b80156104d65780601f106104ab576101008083540402835291602001916104d6565b820191906000526020600020905b8154815290600101906020018083116104b957829003601f168201915b5050505050905090565b60006104eb82610d08565b6006600083815260200190815260200160002060009054906101000a900473ffffffffffffffffffffffffffffffffffffffff169050919050565b600061053182610944565b90508073ffffffffffffffffffffffffffffffffffffffff168373ffffffffffffffffffffffffffffffffffffffff16036105a1576040517f08c379a000000000000000000000000000000000000000000000000000000000815260040161059890612724565b60405180910390fd5b8073ffffffffffffffffffffffffffffffffffffffff166105c0610d53565b73ffffffffffffffffffffffffffffffffffffffff1614806105ef57506105ee816105e9610d53565b610bf4565b5b61062e576040517f08c379a0000000000000000000000000000000000000000000000000000000008152600401610625906127b6565b60405180910390fd5b6106388383610d5b565b505050565b61064e610648610d53565b82610e14565b61068d576040517f08c379a000000000000000000000000000000000000000000000000000000000815260040161068490612848565b60405180910390fd5b610698838383610ea9565b505050565b6000806000600160008681526020019081526020016000206040518060400160405290816000820160009054906101000a900473ffffffffffffffffffffffffffffffffffffffff1673ffffffffffffffffffffffffffffffffffffffff1673ffffffffffffffffffffffffffffffffffffffff1681526020016000820160149054906101000a90046bffffffffffffffffffffffff166bffffffffffffffffffffffff166bffffffffffffffffffffffff16815250509050600073ffffffffffffffffffffffffffffffffffffffff16816000015173ffffffffffffffffffffffffffffffffffffffff16036108325760006040518060400160405290816000820160009054906101000a900473ffffffffffffffffffffffffffffffffffffffff1673ffffffffffffffffffffffffffffffffffffffff1673ffffffffffffffffffffffffffffffffffffffff1681526020016000820160149054906101000a90046bffffffffffffffffffffffff166bffffffffffffffffffffffff166bffffffffffffffffffffffff168152505090505b600061083c61110f565b6bffffffffffffffffffffffff1682602001516bffffffffffffffffffffffff16866108689190612897565b6108729190612920565b90508160000151819350935050509250929050565b6108a283838360405180602001604052806000815250610b80565b505050565b6108b13382610e14565b6108f0576040517f08c379a00000000000000000000000000000000000000000000000000000000081526004016108e7906129e9565b60405180910390fd5b6108f981611119565b610938576040517f08c379a000000000000000000000000000000000000000000000000000000000815260040161092f90612a55565b60405180910390fd5b61094181611185565b50565b6000806004600084815260200190815260200160002060009054906101000a900473ffffffffffffffffffffffffffffffffffffffff169050600073ffffffffffffffffffffffffffffffffffffffff168173ffffffffffffffffffffffffffffffffffffffff16036109ec576040517f08c379a00000000000000000000000000000000000000000000000000000000081526004016109e390612ac1565b60405180910390fd5b80915050919050565b60008073ffffffffffffffffffffffffffffffffffffffff168273ffffffffffffffffffffffffffffffffffffffff1603610a65576040517f08c379a0000000000000000000000000000000000000000000000000000000008152600401610a5c90612b53565b60405180910390fd5b600560008373ffffffffffffffffffffffffffffffffffffffff1673ffffffffffffffffffffffffffffffffffffffff168152602001908152602001600020549050919050565b600b60009054906101000a900473ffffffffffffffffffffffffffffffffffffffff1681565b606060038054610ae190612681565b80601f0160208091040260200160405190810160405280929190818152602001828054610b0d90612681565b8015610b5a5780601f10610b2f57610100808354040283529160200191610b5a565b820191906000526020600020905b815481529060010190602001808311610b3d57829003601f168201915b5050505050905090565b600a5481565b610b7c610b75610d53565b838361119a565b5050565b610b91610b8b610d53565b83610e14565b610bd0576040517f08c379a0000000000000000000000000000000000000000000000000000000008152600401610bc790612848565b60405180910390fd5b610bdc84848484611306565b50505050565b6060610bed82611362565b9050919050565b6000600760008473ffffffffffffffffffffffffffffffffffffffff1673ffffffffffffffffffffffffffffffffffffffff16815260200190815260200160002060008373ffffffffffffffffffffffffffffffffffffffff1673ffffffffffffffffffffffffffffffffffffffff16815260200190815260200160002060009054906101000a900460ff16905092915050565b6000610c946009611474565b6000610ca0600961148a565b905080600a81905550610cb33382611498565b610cbd81866114b6565b600073ffffffffffffffffffffffffffffffffffffffff168473ffffffffffffffffffffffffffffffffffffffff1614610cfd57610cfc818585611523565b5b809150509392505050565b610d1181611119565b610d50576040517f08c379a0000000000000000000000000000000000000000000000000000000008152600401610d4790612ac1565b60405180910390fd5b50565b600033905090565b816006600083815260200190815260200160002060006101000a81548173ffffffffffffffffffffffffffffffffffffffff021916908373ffffffffffffffffffffffffffffffffffffffff160217905550808273ffffffffffffffffffffffffffffffffffffffff16610dce83610944565b73ffffffffffffffffffffffffffffffffffffffff167f8c5be1e5ebec7d5bd14f71427d1e84f3dd0314c0f7b2291e5b200ac8c7c3b92560405160405180910390a45050565b600080610e2083610944565b90508073ffffffffffffffffffffffffffffffffffffffff168473ffffffffffffffffffffffffffffffffffffffff161480610e625750610e618185610bf4565b5b80610ea057508373ffffffffffffffffffffffffffffffffffffffff16610e88846104e0565b73ffffffffffffffffffffffffffffffffffffffff16145b91505092915050565b8273ffffffffffffffffffffffffffffffffffffffff16610ec982610944565b73ffffffffffffffffffffffffffffffffffffffff1614610f1f576040517f08c379a0000000000000000000000000000000000000000000000000000000008152600401610f1690612be5565b60405180910390fd5b600073ffffffffffffffffffffffffffffffffffffffff168273ffffffffffffffffffffffffffffffffffffffff1603610f8e576040517f08c379a0000000000000000000000000000000000000000000000000000000008152600401610f8590612c77565b60405180910390fd5b610f998383836116ca565b610fa4600082610d5b565b6001600560008573ffffffffffffffffffffffffffffffffffffffff1673ffffffffffffffffffffffffffffffffffffffff1681526020019081526020016000206000828254610ff49190612c97565b925050819055506001600560008473ffffffffffffffffffffffffffffffffffffffff1673ffffffffffffffffffffffffffffffffffffffff168152602001908152602001600020600082825461104b9190612ccb565b92505081905550816004600083815260200190815260200160002060006101000a81548173ffffffffffffffffffffffffffffffffffffffff021916908373ffffffffffffffffffffffffffffffffffffffff160217905550808273ffffffffffffffffffffffffffffffffffffffff168473ffffffffffffffffffffffffffffffffffffffff167fddf252ad1be2c89b69c2b068fc378daa952ba7f163c4a11628f55a4df523b3ef60405160405180910390a461110a8383836116cf565b505050565b6000612710905090565b60008073ffffffffffffffffffffffffffffffffffffffff166004600084815260200190815260200160002060009054906101000a900473ffffffffffffffffffffffffffffffffffffffff1673ffffffffffffffffffffffffffffffffffffffff1614159050919050565b61118e816116d4565b611197816116e9565b50565b8173ffffffffffffffffffffffffffffffffffffffff168373ffffffffffffffffffffffffffffffffffffffff1603611208576040517f08c379a00000000000000000000000000000000000000000000000000000000081526004016111ff90612d6d565b60405180910390fd5b80600760008573ffffffffffffffffffffffffffffffffffffffff1673ffffffffffffffffffffffffffffffffffffffff16815260200190815260200160002060008473ffffffffffffffffffffffffffffffffffffffff1673ffffffffffffffffffffffffffffffffffffffff16815260200190815260200160002060006101000a81548160ff0219169083151502179055508173ffffffffffffffffffffffffffffffffffffffff168373ffffffffffffffffffffffffffffffffffffffff167f17307eab39ab6107e8899845ad3d59bd9653f200f220920489ca2b5937696c31836040516112f99190611f86565b60405180910390a3505050565b611311848484610ea9565b61131d84848484611748565b61135c576040517f08c379a000000000000000000000000000000000000000000000000000000000815260040161135390612dff565b60405180910390fd5b50505050565b606061136d82610d08565b600060086000848152602001908152602001600020805461138d90612681565b80601f01602080910402602001604051908101604052809291908181526020018280546113b990612681565b80156114065780601f106113db57610100808354040283529160200191611406565b820191906000526020600020905b8154815290600101906020018083116113e957829003601f168201915b5050505050905060006114176118cf565b9050600081510361142c57819250505061146f565b600082511115611461578082604051602001611449929190612e5b565b6040516020818303038152906040529250505061146f565b61146a846118e6565b925050505b919050565b6001816000016000828254019250508190555050565b600081600001549050919050565b6114b282826040518060200160405280600081525061194e565b5050565b6114bf82611119565b6114fe576040517f08c379a00000000000000000000000000000000000000000000000000000000081526004016114f590612ef1565b60405180910390fd5b8060086000848152602001908152602001600020908161151e91906130bd565b505050565b61152b61110f565b6bffffffffffffffffffffffff16816bffffffffffffffffffffffff161115611589576040517f08c379a000000000000000000000000000000000000000000000000000000000815260040161158090613201565b60405180910390fd5b600073ffffffffffffffffffffffffffffffffffffffff168273ffffffffffffffffffffffffffffffffffffffff16036115f8576040517f08c379a00000000000000000000000000000000000000000000000000000000081526004016115ef9061326d565b60405180910390fd5b60405180604001604052808373ffffffffffffffffffffffffffffffffffffffff168152602001826bffffffffffffffffffffffff168152506001600085815260200190815260200160002060008201518160000160006101000a81548173ffffffffffffffffffffffffffffffffffffffff021916908373ffffffffffffffffffffffffffffffffffffffff16021790555060208201518160000160146101000a8154816bffffffffffffffffffffffff02191690836bffffffffffffffffffffffff160217905550905050505050565b505050565b505050565b6116dd816119a9565b6116e6816116e9565b50565b60016000828152602001908152602001600020600080820160006101000a81549073ffffffffffffffffffffffffffffffffffffffff02191690556000820160146101000a8154906bffffffffffffffffffffffff0219169055505050565b60006117698473ffffffffffffffffffffffffffffffffffffffff166119fc565b156118c2578373ffffffffffffffffffffffffffffffffffffffff1663150b7a02611792610d53565b8786866040518563ffffffff1660e01b81526004016117b494939291906132e2565b6020604051808303816000875af19250505080156117f057506040513d601f19601f820116820180604052508101906117ed9190613343565b60015b611872573d8060008114611820576040519150601f19603f3d011682016040523d82523d6000602084013e611825565b606091505b50600081510361186a576040517f08c379a000000000000000000000000000000000000000000000000000000000815260040161186190612dff565b60405180910390fd5b805181602001fd5b63150b7a0260e01b7bffffffffffffffffffffffffffffffffffffffffffffffffffffffff1916817bffffffffffffffffffffffffffffffffffffffffffffffffffffffff1916149150506118c7565b600190505b949350505050565b606060405180602001604052806000815250905090565b60606118f182610d08565b60006118fb6118cf565b9050600081511161191b5760405180602001604052806000815250611946565b8061192584611a1f565b604051602001611936929190612e5b565b6040516020818303038152906040525b915050919050565b6119588383611b7f565b6119656000848484611748565b6119a4576040517f08c379a000000000000000000000000000000000000000000000000000000000815260040161199b90612dff565b60405180910390fd5b505050565b6119b281611d58565b60006008600083815260200190815260200160002080546119d290612681565b9050146119f9576008600082815260200190815260200160002060006119f89190611e75565b5b50565b6000808273ffffffffffffffffffffffffffffffffffffffff163b119050919050565b606060008203611a66576040518060400160405280600181526020017f30000000000000000000000000000000000000000000000000000000000000008152509050611b7a565b600082905060005b60008214611a98578080611a8190613370565b915050600a82611a919190612920565b9150611a6e565b60008167ffffffffffffffff811115611ab457611ab3612310565b5b6040519080825280601f01601f191660200182016040528015611ae65781602001600182028036833780820191505090505b5090505b60008514611b7357600182611aff9190612c97565b9150600a85611b0e91906133b8565b6030611b1a9190612ccb565b60f81b818381518110611b3057611b2f6133e9565b5b60200101907effffffffffffffffffffffffffffffffffffffffffffffffffffffffffffff1916908160001a905350600a85611b6c9190612920565b9450611aea565b8093505050505b919050565b600073ffffffffffffffffffffffffffffffffffffffff168273ffffffffffffffffffffffffffffffffffffffff1603611bee576040517f08c379a0000000000000000000000000000000000000000000000000000000008152600401611be590613464565b60405180910390fd5b611bf781611119565b15611c37576040517f08c379a0000000000000000000000000000000000000000000000000000000008152600401611c2e906134d0565b60405180910390fd5b611c43600083836116ca565b6001600560008473ffffffffffffffffffffffffffffffffffffffff1673ffffffffffffffffffffffffffffffffffffffff1681526020019081526020016000206000828254611c939190612ccb565b92505081905550816004600083815260200190815260200160002060006101000a81548173ffffffffffffffffffffffffffffffffffffffff021916908373ffffffffffffffffffffffffffffffffffffffff160217905550808273ffffffffffffffffffffffffffffffffffffffff16600073ffffffffffffffffffffffffffffffffffffffff167fddf252ad1be2c89b69c2b068fc378daa952ba7f163c4a11628f55a4df523b3ef60405160405180910390a4611d54600083836116cf565b5050565b6000611d6382610944565b9050611d71816000846116ca565b611d7c600083610d5b565b6001600560008373ffffffffffffffffffffffffffffffffffffffff1673ffffffffffffffffffffffffffffffffffffffff1681526020019081526020016000206000828254611dcc9190612c97565b925050819055506004600083815260200190815260200160002060006101000a81549073ffffffffffffffffffffffffffffffffffffffff021916905581600073ffffffffffffffffffffffffffffffffffffffff168273ffffffffffffffffffffffffffffffffffffffff167fddf252ad1be2c89b69c2b068fc378daa952ba7f163c4a11628f55a4df523b3ef60405160405180910390a4611e71816000846116cf565b5050565b508054611e8190612681565b6000825580601f10611e935750611eb2565b601f016020900490600052602060002090810190611eb19190611eb5565b5b50565b5b80821115611ece576000816000905550600101611eb6565b5090565b6000604051905090565b600080fd5b600080fd5b60007fffffffff0000000000000000000000000000000000000000000000000000000082169050919050565b611f1b81611ee6565b8114611f2657600080fd5b50565b600081359050611f3881611f12565b92915050565b600060208284031215611f5457611f53611edc565b5b6000611f6284828501611f29565b91505092915050565b60008115159050919050565b611f8081611f6b565b82525050565b6000602082019050611f9b6000830184611f77565b92915050565b600081519050919050565b600082825260208201905092915050565b60005b83811015611fdb578082015181840152602081019050611fc0565b83811115611fea576000848401525b50505050565b6000601f19601f8301169050919050565b600061200c82611fa1565b6120168185611fac565b9350612026818560208601611fbd565b61202f81611ff0565b840191505092915050565b600060208201905081810360008301526120548184612001565b905092915050565b6000819050919050565b61206f8161205c565b811461207a57600080fd5b50565b60008135905061208c81612066565b92915050565b6000602082840312156120a8576120a7611edc565b5b60006120b68482850161207d565b91505092915050565b600073ffffffffffffffffffffffffffffffffffffffff82169050919050565b60006120ea826120bf565b9050919050565b6120fa816120df565b82525050565b600060208201905061211560008301846120f1565b92915050565b612124816120df565b811461212f57600080fd5b50565b6000813590506121418161211b565b92915050565b6000806040838503121561215e5761215d611edc565b5b600061216c85828601612132565b925050602061217d8582860161207d565b9150509250929050565b6000806000606084860312156121a05761219f611edc565b5b60006121ae86828701612132565b93505060206121bf86828701612132565b92505060406121d08682870161207d565b9150509250925092565b600080604083850312156121f1576121f0611edc565b5b60006121ff8582860161207d565b92505060206122108582860161207d565b9150509250929050565b6122238161205c565b82525050565b600060408201905061223e60008301856120f1565b61224b602083018461221a565b9392505050565b60006020828403121561226857612267611edc565b5b600061227684828501612132565b91505092915050565b6000602082019050612294600083018461221a565b92915050565b6122a381611f6b565b81146122ae57600080fd5b50565b6000813590506122c08161229a565b92915050565b600080604083850312156122dd576122dc611edc565b5b60006122eb85828601612132565b92505060206122fc858286016122b1565b9150509250929050565b600080fd5b600080fd5b7f4e487b7100000000000000000000000000000000000000000000000000000000600052604160045260246000fd5b61234882611ff0565b810181811067ffffffffffffffff8211171561236757612366612310565b5b80604052505050565b600061237a611ed2565b9050612386828261233f565b919050565b600067ffffffffffffffff8211156123a6576123a5612310565b5b6123af82611ff0565b9050602081019050919050565b82818337600083830152505050565b60006123de6123d98461238b565b612370565b9050828152602081018484840111156123fa576123f961230b565b5b6124058482856123bc565b509392505050565b600082601f83011261242257612421612306565b5b81356124328482602086016123cb565b91505092915050565b6000806000806080858703121561245557612454611edc565b5b600061246387828801612132565b945050602061247487828801612132565b93505060406124858782880161207d565b925050606085013567ffffffffffffffff8111156124a6576124a5611ee1565b5b6124b28782880161240d565b91505092959194509250565b600080604083850312156124d5576124d4611edc565b5b60006124e385828601612132565b92505060206124f485828601612132565b9150509250929050565b600067ffffffffffffffff82111561251957612518612310565b5b61252282611ff0565b9050602081019050919050565b600061254261253d846124fe565b612370565b90508281526020810184848401111561255e5761255d61230b565b5b6125698482856123bc565b509392505050565b600082601f83011261258657612585612306565b5b813561259684826020860161252f565b91505092915050565b60006bffffffffffffffffffffffff82169050919050565b6125c08161259f565b81146125cb57600080fd5b50565b6000813590506125dd816125b7565b92915050565b6000806000606084860312156125fc576125fb611edc565b5b600084013567ffffffffffffffff81111561261a57612619611ee1565b5b61262686828701612571565b935050602061263786828701612132565b9250506040612648868287016125ce565b9150509250925092565b7f4e487b7100000000000000000000000000000000000000000000000000000000600052602260045260246000fd5b6000600282049050600182168061269957607f821691505b6020821081036126ac576126ab612652565b5b50919050565b7f4552433732313a20617070726f76616c20746f2063757272656e74206f776e6560008201527f7200000000000000000000000000000000000000000000000000000000000000602082015250565b600061270e602183611fac565b9150612719826126b2565b604082019050919050565b6000602082019050818103600083015261273d81612701565b9050919050565b7f4552433732313a20617070726f76652063616c6c6572206973206e6f7420746f60008201527f6b656e206f776e6572206e6f7220617070726f76656420666f7220616c6c0000602082015250565b60006127a0603e83611fac565b91506127ab82612744565b604082019050919050565b600060208201905081810360008301526127cf81612793565b9050919050565b7f4552433732313a2063616c6c6572206973206e6f7420746f6b656e206f776e6560008201527f72206e6f7220617070726f766564000000000000000000000000000000000000602082015250565b6000612832602e83611fac565b915061283d826127d6565b604082019050919050565b6000602082019050818103600083015261286181612825565b9050919050565b7f4e487b7100000000000000000000000000000000000000000000000000000000600052601160045260246000fd5b60006128a28261205c565b91506128ad8361205c565b9250817fffffffffffffffffffffffffffffffffffffffffffffffffffffffffffffffff04831182151516156128e6576128e5612868565b5b828202905092915050565b7f4e487b7100000000000000000000000000000000000000000000000000000000600052601260045260246000fd5b600061292b8261205c565b91506129368361205c565b925082612946576129456128f1565b5b828204905092915050565b7f4f776e6572206f7220417070726f7665642073656e646572206f66207468652060008201527f4e46542063616e206f6e6c79206275726e204e465473206f776e65642062792060208201527f7468656d00000000000000000000000000000000000000000000000000000000604082015250565b60006129d3604483611fac565b91506129de82612951565b606082019050919050565b60006020820190508181036000830152612a02816129c6565b9050919050565b7f4e465420646f6573206e6f742065786973740000000000000000000000000000600082015250565b6000612a3f601283611fac565b9150612a4a82612a09565b602082019050919050565b60006020820190508181036000830152612a6e81612a32565b9050919050565b7f4552433732313a20696e76616c696420746f6b656e2049440000000000000000600082015250565b6000612aab601883611fac565b9150612ab682612a75565b602082019050919050565b60006020820190508181036000830152612ada81612a9e565b9050919050565b7f4552433732313a2061646472657373207a65726f206973206e6f74206120766160008201527f6c6964206f776e65720000000000000000000000000000000000000000000000602082015250565b6000612b3d602983611fac565b9150612b4882612ae1565b604082019050919050565b60006020820190508181036000830152612b6c81612b30565b9050919050565b7f4552433732313a207472616e736665722066726f6d20696e636f72726563742060008201527f6f776e6572000000000000000000000000000000000000000000000000000000602082015250565b6000612bcf602583611fac565b9150612bda82612b73565b604082019050919050565b60006020820190508181036000830152612bfe81612bc2565b9050919050565b7f4552433732313a207472616e7366657220746f20746865207a65726f2061646460008201527f7265737300000000000000000000000000000000000000000000000000000000602082015250565b6000612c61602483611fac565b9150612c6c82612c05565b604082019050919050565b60006020820190508181036000830152612c9081612c54565b9050919050565b6000612ca28261205c565b9150612cad8361205c565b925082821015612cc057612cbf612868565b5b828203905092915050565b6000612cd68261205c565b9150612ce18361205c565b9250827fffffffffffffffffffffffffffffffffffffffffffffffffffffffffffffffff03821115612d1657612d15612868565b5b828201905092915050565b7f4552433732313a20617070726f766520746f2063616c6c657200000000000000600082015250565b6000612d57601983611fac565b9150612d6282612d21565b602082019050919050565b60006020820190508181036000830152612d8681612d4a565b9050919050565b7f4552433732313a207472616e7366657220746f206e6f6e20455243373231526560008201527f63656976657220696d706c656d656e7465720000000000000000000000000000602082015250565b6000612de9603283611fac565b9150612df482612d8d565b604082019050919050565b60006020820190508181036000830152612e1881612ddc565b9050919050565b600081905092915050565b6000612e3582611fa1565b612e3f8185612e1f565b9350612e4f818560208601611fbd565b80840191505092915050565b6000612e678285612e2a565b9150612e738284612e2a565b91508190509392505050565b7f45524337323155524953746f726167653a2055524920736574206f66206e6f6e60008201527f6578697374656e7420746f6b656e000000000000000000000000000000000000602082015250565b6000612edb602e83611fac565b9150612ee682612e7f565b604082019050919050565b60006020820190508181036000830152612f0a81612ece565b9050919050565b60008190508160005260206000209050919050565b60006020601f8301049050919050565b600082821b905092915050565b600060088302612f737fffffffffffffffffffffffffffffffffffffffffffffffffffffffffffffffff82612f36565b612f7d8683612f36565b95508019841693508086168417925050509392505050565b6000819050919050565b6000612fba612fb5612fb08461205c565b612f95565b61205c565b9050919050565b6000819050919050565b612fd483612f9f565b612fe8612fe082612fc1565b848454612f43565b825550505050565b600090565b612ffd612ff0565b613008818484612fcb565b505050565b5b8181101561302c57613021600082612ff5565b60018101905061300e565b5050565b601f8211156130715761304281612f11565b61304b84612f26565b8101602085101561305a578190505b61306e61306685612f26565b83018261300d565b50505b505050565b600082821c905092915050565b600061309460001984600802613076565b1980831691505092915050565b60006130ad8383613083565b9150826002028217905092915050565b6130c682611fa1565b67ffffffffffffffff8111156130df576130de612310565b5b6130e98254612681565b6130f4828285613030565b600060209050601f8311600181146131275760008415613115578287015190505b61311f85826130a1565b865550613187565b601f19841661313586612f11565b60005b8281101561315d57848901518255600182019150602085019450602081019050613138565b8683101561317a5784890151613176601f891682613083565b8355505b6001600288020188555050505b505050505050565b7f455243323938313a20726f79616c7479206665652077696c6c2065786365656460008201527f2073616c65507269636500000000000000000000000000000000000000000000602082015250565b60006131eb602a83611fac565b91506131f68261318f565b604082019050919050565b6000602082019050818103600083015261321a816131de565b9050919050565b7f455243323938313a20496e76616c696420706172616d65746572730000000000600082015250565b6000613257601b83611fac565b915061326282613221565b602082019050919050565b600060208201905081810360008301526132868161324a565b9050919050565b600081519050919050565b600082825260208201905092915050565b60006132b48261328d565b6132be8185613298565b93506132ce818560208601611fbd565b6132d781611ff0565b840191505092915050565b60006080820190506132f760008301876120f1565b61330460208301866120f1565b613311604083018561221a565b818103606083015261332381846132a9565b905095945050505050565b60008151905061333d81611f12565b92915050565b60006020828403121561335957613358611edc565b5b60006133678482850161332e565b91505092915050565b600061337b8261205c565b91507fffffffffffffffffffffffffffffffffffffffffffffffffffffffffffffffff82036133ad576133ac612868565b5b600182019050919050565b60006133c38261205c565b91506133ce8361205c565b9250826133de576133dd6128f1565b5b828206905092915050565b7f4e487b7100000000000000000000000000000000000000000000000000000000600052603260045260246000fd5b7f4552433732313a206d696e7420746f20746865207a65726f2061646472657373600082015250565b600061344e602083611fac565b915061345982613418565b602082019050919050565b6000602082019050818103600083015261347d81613441565b9050919050565b7f4552433732313a20746f6b656e20616c7265616479206d696e74656400000000600082015250565b60006134ba601c83611fac565b91506134c582613484565b602082019050919050565b600060208201905081810360008301526134e9816134ad565b905091905056fea2646970667358221220b04a217027c6805a56fc69f60e82060849694bc802cb42a3efd927ecf091e6d164736f6c634300080f0033",
  "linkReferences": {},
  "deployedLinkReferences": {}
}