{
  "contractName": "NFT721",
  "abi": [
    {
      "inputs": [
        {
          "internalType": "string",
          "name": "_collectionName",
          "type": "string"
        },
        {
          "internalType": "string",
          "name": "_collectionSymbol",
          "type": "string"
        },
        {
          "internalType": "address",
          "name": "_marketplace",
          "type": "address"
        }
      ],
      "stateMutability": "nonpayable",
      "type": "constructor"
    },
    {
      "anonymous": false,
      "inputs": [
        {
          "indexed": true,
          "internalType": "address",
          "name": "owner",
          "type": "address"
        },
        {
          "indexed": true,
          "internalType": "address",
          "name": "approved",
          "type": "address"
        },
        {
          "indexed": true,
          "internalType": "uint256",
          "name": "tokenId",
          "type": "uint256"
        }
      ],
      "name": "Approval",
      "type": "event"
    },
    {
      "anonymous": false,
      "inputs": [
        {
          "indexed": true,
          "internalType": "address",
          "name": "owner",
          "type": "address"
        },
        {
          "indexed": true,
          "internalType": "address",
          "name": "operator",
          "type": "address"
        },
        {
          "indexed": false,
          "internalType": "bool",
          "name": "approved",
          "type": "bool"
        }
      ],
      "name": "ApprovalForAll",
      "type": "event"
    },
    {
      "anonymous": false,
      "inputs": [
        {
          "indexed": true,
          "internalType": "address",
          "name": "from",
          "type": "address"
        },
        {
          "indexed": true,
          "internalType": "address",
          "name": "to",
          "type": "address"
        },
        {
          "indexed": true,
          "internalType": "uint256",
          "name": "tokenId",
          "type": "uint256"
        }
      ],
      "name": "Transfer",
      "type": "event"
    },
    {
      "inputs": [
        {
          "internalType": "address",
          "name": "to",
          "type": "address"
        },
        {
          "internalType": "uint256",
          "name": "tokenId",
          "type": "uint256"
        }
      ],
      "name": "approve",
      "outputs": [],
      "stateMutability": "nonpayable",
      "type": "function"
    },
    {
      "inputs": [
        {
          "internalType": "address",
          "name": "owner",
          "type": "address"
        }
      ],
      "name": "balanceOf",
      "outputs": [
        {
          "internalType": "uint256",
          "name": "",
          "type": "uint256"
        }
      ],
      "stateMutability": "view",
      "type": "function"
    },
    {
      "inputs": [
        {
          "internalType": "uint256",
          "name": "tokenId",
          "type": "uint256"
        }
      ],
      "name": "getApproved",
      "outputs": [
        {
          "internalType": "address",
          "name": "",
          "type": "address"
        }
      ],
      "stateMutability": "view",
      "type": "function"
    },
    {
      "inputs": [
        {
          "internalType": "address",
          "name": "owner",
          "type": "address"
        },
        {
          "internalType": "address",
          "name": "operator",
          "type": "address"
        }
      ],
      "name": "isApprovedForAll",
      "outputs": [
        {
          "internalType": "bool",
          "name": "",
          "type": "bool"
        }
      ],
      "stateMutability": "view",
      "type": "function"
    },
    {
      "inputs": [],
      "name": "name",
      "outputs": [
        {
          "internalType": "string",
          "name": "",
          "type": "string"
        }
      ],
      "stateMutability": "view",
      "type": "function"
    },
    {
      "inputs": [
        {
          "internalType": "uint256",
          "name": "tokenId",
          "type": "uint256"
        }
      ],
      "name": "ownerOf",
      "outputs": [
        {
          "internalType": "address",
          "name": "",
          "type": "address"
        }
      ],
      "stateMutability": "view",
      "type": "function"
    },
    {
      "inputs": [
        {
          "internalType": "address",
          "name": "from",
          "type": "address"
        },
        {
          "internalType": "address",
          "name": "to",
          "type": "address"
        },
        {
          "internalType": "uint256",
          "name": "tokenId",
          "type": "uint256"
        }
      ],
      "name": "safeTransferFrom",
      "outputs": [],
      "stateMutability": "nonpayable",
      "type": "function"
    },
    {
      "inputs": [
        {
          "internalType": "address",
          "name": "from",
          "type": "address"
        },
        {
          "internalType": "address",
          "name": "to",
          "type": "address"
        },
        {
          "internalType": "uint256",
          "name": "tokenId",
          "type": "uint256"
        },
        {
          "internalType": "bytes",
          "name": "_data",
          "type": "bytes"
        }
      ],
      "name": "safeTransferFrom",
      "outputs": [],
      "stateMutability": "nonpayable",
      "type": "function"
    },
    {
      "inputs": [
        {
          "internalType": "address",
          "name": "operator",
          "type": "address"
        },
        {
          "internalType": "bool",
          "name": "approved",
          "type": "bool"
        }
      ],
      "name": "setApprovalForAll",
      "outputs": [],
      "stateMutability": "nonpayable",
      "type": "function"
    },
    {
      "inputs": [
        {
          "internalType": "bytes4",
          "name": "interfaceId",
          "type": "bytes4"
        }
      ],
      "name": "supportsInterface",
      "outputs": [
        {
          "internalType": "bool",
          "name": "",
          "type": "bool"
        }
      ],
      "stateMutability": "view",
      "type": "function"
    },
    {
      "inputs": [],
      "name": "symbol",
      "outputs": [
        {
          "internalType": "string",
          "name": "",
          "type": "string"
        }
      ],
      "stateMutability": "view",
      "type": "function"
    },
    {
      "inputs": [
        {
          "internalType": "uint256",
          "name": "tokenId",
          "type": "uint256"
        }
      ],
      "name": "tokenURI",
      "outputs": [
        {
          "internalType": "string",
          "name": "",
          "type": "string"
        }
      ],
      "stateMutability": "view",
      "type": "function"
    },
    {
      "inputs": [
        {
          "internalType": "address",
          "name": "from",
          "type": "address"
        },
        {
          "internalType": "address",
          "name": "to",
          "type": "address"
        },
        {
          "internalType": "uint256",
          "name": "tokenId",
          "type": "uint256"
        }
      ],
      "name": "transferFrom",
      "outputs": [],
      "stateMutability": "nonpayable",
      "type": "function"
    },
    {
      "inputs": [
        {
          "internalType": "string",
          "name": "_tokenURI",
          "type": "string"
        }
      ],
      "name": "createToken",
      "outputs": [
        {
          "internalType": "uint256",
          "name": "",
          "type": "uint256"
        }
      ],
      "stateMutability": "nonpayable",
      "type": "function"
    },
    {
      "inputs": [
        {
          "internalType": "uint256",
          "name": "_tokenID",
          "type": "uint256"
        }
      ],
      "name": "burnToken",
      "outputs": [],
      "stateMutability": "nonpayable",
      "type": "function"
    }
  ],
  "bytecode": "0x60806040523480156200001157600080fd5b5060405162003931380380620039318339818101604052810190620000379190620002ec565b828281600090816200004a9190620005d1565b5080600190816200005c9190620005d1565b50505080600860006101000a81548173ffffffffffffffffffffffffffffffffffffffff021916908373ffffffffffffffffffffffffffffffffffffffff16021790555033600960006101000a81548173ffffffffffffffffffffffffffffffffffffffff021916908373ffffffffffffffffffffffffffffffffffffffff160217905550505050620006b8565b6000604051905090565b600080fd5b600080fd5b600080fd5b600080fd5b6000601f19601f8301169050919050565b7f4e487b7100000000000000000000000000000000000000000000000000000000600052604160045260246000fd5b620001538262000108565b810181811067ffffffffffffffff8211171562000175576200017462000119565b5b80604052505050565b60006200018a620000ea565b905062000198828262000148565b919050565b600067ffffffffffffffff821115620001bb57620001ba62000119565b5b620001c68262000108565b9050602081019050919050565b60005b83811015620001f3578082015181840152602081019050620001d6565b8381111562000203576000848401525b50505050565b6000620002206200021a846200019d565b6200017e565b9050828152602081018484840111156200023f576200023e62000103565b5b6200024c848285620001d3565b509392505050565b600082601f8301126200026c576200026b620000fe565b5b81516200027e84826020860162000209565b91505092915050565b600073ffffffffffffffffffffffffffffffffffffffff82169050919050565b6000620002b48262000287565b9050919050565b620002c681620002a7565b8114620002d257600080fd5b50565b600081519050620002e681620002bb565b92915050565b600080600060608486031215620003085762000307620000f4565b5b600084015167ffffffffffffffff811115620003295762000328620000f9565b5b620003378682870162000254565b935050602084015167ffffffffffffffff8111156200035b576200035a620000f9565b5b620003698682870162000254565b92505060406200037c86828701620002d5565b9150509250925092565b600081519050919050565b7f4e487b7100000000000000000000000000000000000000000000000000000000600052602260045260246000fd5b60006002820490506001821680620003d957607f821691505b602082108103620003ef57620003ee62000391565b5b50919050565b60008190508160005260206000209050919050565b60006020601f8301049050919050565b600082821b905092915050565b600060088302620004597fffffffffffffffffffffffffffffffffffffffffffffffffffffffffffffffff826200041a565b6200046586836200041a565b95508019841693508086168417925050509392505050565b6000819050919050565b6000819050919050565b6000620004b2620004ac620004a6846200047d565b62000487565b6200047d565b9050919050565b6000819050919050565b620004ce8362000491565b620004e6620004dd82620004b9565b84845462000427565b825550505050565b600090565b620004fd620004ee565b6200050a818484620004c3565b505050565b5b81811015620005325762000526600082620004f3565b60018101905062000510565b5050565b601f82111562000581576200054b81620003f5565b62000556846200040a565b8101602085101562000566578190505b6200057e62000575856200040a565b8301826200050f565b50505b505050565b600082821c905092915050565b6000620005a66000198460080262000586565b1980831691505092915050565b6000620005c1838362000593565b9150826002028217905092915050565b620005dc8262000386565b67ffffffffffffffff811115620005f857620005f762000119565b5b620006048254620003c0565b6200061182828562000536565b600060209050601f83116001811462000649576000841562000634578287015190505b620006408582620005b3565b865550620006b0565b601f1984166200065986620003f5565b60005b8281101562000683578489015182556001820191506020850194506020810190506200065c565b86831015620006a357848901516200069f601f89168262000593565b8355505b6001600288020188555050505b505050505050565b61326980620006c86000396000f3fe608060405234801561001057600080fd5b50600436106100f55760003560e01c80636352211e11610097578063a22cb46511610066578063a22cb46514610296578063b88d4fde146102b2578063c87b56dd146102ce578063e985e9c5146102fe576100f5565b80636352211e146101fc57806370a082311461022c5780637b47ec1a1461025c57806395d89b4114610278576100f5565b8063095ea7b3116100d3578063095ea7b31461017857806323b872dd1461019457806342842e0e146101b057806345576f94146101cc576100f5565b806301ffc9a7146100fa57806306fdde031461012a578063081812fc14610148575b600080fd5b610114600480360381019061010f9190611c3e565b61032e565b6040516101219190611c86565b60405180910390f35b610132610410565b60405161013f9190611d3a565b60405180910390f35b610162600480360381019061015d9190611d92565b6104a2565b60405161016f9190611e00565b60405180910390f35b610192600480360381019061018d9190611e47565b610527565b005b6101ae60048036038101906101a99190611e87565b61063e565b005b6101ca60048036038101906101c59190611e87565b61069e565b005b6101e660048036038101906101e1919061200f565b6106be565b6040516101f39190612067565b60405180910390f35b61021660048036038101906102119190611d92565b610722565b6040516102239190611e00565b60405180910390f35b61024660048036038101906102419190612082565b6107d3565b6040516102539190612067565b60405180910390f35b61027660048036038101906102719190611d92565b61088a565b005b6102806109be565b60405161028d9190611d3a565b60405180910390f35b6102b060048036038101906102ab91906120db565b610a50565b005b6102cc60048036038101906102c791906121bc565b610a66565b005b6102e860048036038101906102e39190611d92565b610ac8565b6040516102f59190611d3a565b60405180910390f35b6103186004803603810190610313919061223f565b610c19565b6040516103259190611c86565b60405180910390f35b60007f80ac58cd000000000000000000000000000000000000000000000000000000007bffffffffffffffffffffffffffffffffffffffffffffffffffffffff1916827bffffffffffffffffffffffffffffffffffffffffffffffffffffffff191614806103f957507f5b5e139f000000000000000000000000000000000000000000000000000000007bffffffffffffffffffffffffffffffffffffffffffffffffffffffff1916827bffffffffffffffffffffffffffffffffffffffffffffffffffffffff1916145b80610409575061040882610cad565b5b9050919050565b60606000805461041f906122ae565b80601f016020809104026020016040519081016040528092919081815260200182805461044b906122ae565b80156104985780601f1061046d57610100808354040283529160200191610498565b820191906000526020600020905b81548152906001019060200180831161047b57829003601f168201915b5050505050905090565b60006104ad82610d17565b6104ec576040517f08c379a00000000000000000000000000000000000000000000000000000000081526004016104e390612351565b60405180910390fd5b6004600083815260200190815260200160002060009054906101000a900473ffffffffffffffffffffffffffffffffffffffff169050919050565b600061053282610722565b90508073ffffffffffffffffffffffffffffffffffffffff168373ffffffffffffffffffffffffffffffffffffffff16036105a2576040517f08c379a0000000000000000000000000000000000000000000000000000000008152600401610599906123e3565b60405180910390fd5b8073ffffffffffffffffffffffffffffffffffffffff166105c1610d83565b73ffffffffffffffffffffffffffffffffffffffff1614806105f057506105ef816105ea610d83565b610c19565b5b61062f576040517f08c379a000000000000000000000000000000000000000000000000000000000815260040161062690612475565b60405180910390fd5b6106398383610d8b565b505050565b61064f610649610d83565b82610e44565b61068e576040517f08c379a000000000000000000000000000000000000000000000000000000000815260040161068590612507565b60405180910390fd5b610699838383610f22565b505050565b6106b983838360405180602001604052806000815250610a66565b505050565b60006106ca6007611188565b60006106d6600761119e565b90506106e233826111ac565b6106ec81846111ca565b610719600860009054906101000a900473ffffffffffffffffffffffffffffffffffffffff166001610a50565b80915050919050565b6000806002600084815260200190815260200160002060009054906101000a900473ffffffffffffffffffffffffffffffffffffffff169050600073ffffffffffffffffffffffffffffffffffffffff168173ffffffffffffffffffffffffffffffffffffffff16036107ca576040517f08c379a00000000000000000000000000000000000000000000000000000000081526004016107c190612599565b60405180910390fd5b80915050919050565b60008073ffffffffffffffffffffffffffffffffffffffff168273ffffffffffffffffffffffffffffffffffffffff1603610843576040517f08c379a000000000000000000000000000000000000000000000000000000000815260040161083a9061262b565b60405180910390fd5b600360008373ffffffffffffffffffffffffffffffffffffffff1673ffffffffffffffffffffffffffffffffffffffff168152602001908152602001600020549050919050565b600960009054906101000a900473ffffffffffffffffffffffffffffffffffffffff1673ffffffffffffffffffffffffffffffffffffffff163373ffffffffffffffffffffffffffffffffffffffff161461091a576040517f08c379a0000000000000000000000000000000000000000000000000000000008152600401610911906126bd565b60405180910390fd5b600960009054906101000a900473ffffffffffffffffffffffffffffffffffffffff1673ffffffffffffffffffffffffffffffffffffffff1661095c82610722565b73ffffffffffffffffffffffffffffffffffffffff16146109b2576040517f08c379a00000000000000000000000000000000000000000000000000000000081526004016109a99061274f565b60405180910390fd5b6109bb81611237565b50565b6060600180546109cd906122ae565b80601f01602080910402602001604051908101604052809291908181526020018280546109f9906122ae565b8015610a465780601f10610a1b57610100808354040283529160200191610a46565b820191906000526020600020905b815481529060010190602001808311610a2957829003601f168201915b5050505050905090565b610a62610a5b610d83565b838361128a565b5050565b610a77610a71610d83565b83610e44565b610ab6576040517f08c379a0000000000000000000000000000000000000000000000000000000008152600401610aad90612507565b60405180910390fd5b610ac2848484846113f6565b50505050565b6060610ad382610d17565b610b12576040517f08c379a0000000000000000000000000000000000000000000000000000000008152600401610b09906127e1565b60405180910390fd5b6000600660008481526020019081526020016000208054610b32906122ae565b80601f0160208091040260200160405190810160405280929190818152602001828054610b5e906122ae565b8015610bab5780601f10610b8057610100808354040283529160200191610bab565b820191906000526020600020905b815481529060010190602001808311610b8e57829003601f168201915b505050505090506000610bbc611452565b90506000815103610bd1578192505050610c14565b600082511115610c06578082604051602001610bee92919061283d565b60405160208183030381529060405292505050610c14565b610c0f84611469565b925050505b919050565b6000600560008473ffffffffffffffffffffffffffffffffffffffff1673ffffffffffffffffffffffffffffffffffffffff16815260200190815260200160002060008373ffffffffffffffffffffffffffffffffffffffff1673ffffffffffffffffffffffffffffffffffffffff16815260200190815260200160002060009054906101000a900460ff16905092915050565b60007f01ffc9a7000000000000000000000000000000000000000000000000000000007bffffffffffffffffffffffffffffffffffffffffffffffffffffffff1916827bffffffffffffffffffffffffffffffffffffffffffffffffffffffff1916149050919050565b60008073ffffffffffffffffffffffffffffffffffffffff166002600084815260200190815260200160002060009054906101000a900473ffffffffffffffffffffffffffffffffffffffff1673ffffffffffffffffffffffffffffffffffffffff1614159050919050565b600033905090565b816004600083815260200190815260200160002060006101000a81548173ffffffffffffffffffffffffffffffffffffffff021916908373ffffffffffffffffffffffffffffffffffffffff160217905550808273ffffffffffffffffffffffffffffffffffffffff16610dfe83610722565b73ffffffffffffffffffffffffffffffffffffffff167f8c5be1e5ebec7d5bd14f71427d1e84f3dd0314c0f7b2291e5b200ac8c7c3b92560405160405180910390a45050565b6000610e4f82610d17565b610e8e576040517f08c379a0000000000000000000000000000000000000000000000000000000008152600401610e85906128d3565b60405180910390fd5b6000610e9983610722565b90508073ffffffffffffffffffffffffffffffffffffffff168473ffffffffffffffffffffffffffffffffffffffff161480610f0857508373ffffffffffffffffffffffffffffffffffffffff16610ef0846104a2565b73ffffffffffffffffffffffffffffffffffffffff16145b80610f195750610f188185610c19565b5b91505092915050565b8273ffffffffffffffffffffffffffffffffffffffff16610f4282610722565b73ffffffffffffffffffffffffffffffffffffffff1614610f98576040517f08c379a0000000000000000000000000000000000000000000000000000000008152600401610f8f90612965565b60405180910390fd5b600073ffffffffffffffffffffffffffffffffffffffff168273ffffffffffffffffffffffffffffffffffffffff1603611007576040517f08c379a0000000000000000000000000000000000000000000000000000000008152600401610ffe906129f7565b60405180910390fd5b611012838383611510565b61101d600082610d8b565b6001600360008573ffffffffffffffffffffffffffffffffffffffff1673ffffffffffffffffffffffffffffffffffffffff168152602001908152602001600020600082825461106d9190612a46565b925050819055506001600360008473ffffffffffffffffffffffffffffffffffffffff1673ffffffffffffffffffffffffffffffffffffffff16815260200190815260200160002060008282546110c49190612a7a565b92505081905550816002600083815260200190815260200160002060006101000a81548173ffffffffffffffffffffffffffffffffffffffff021916908373ffffffffffffffffffffffffffffffffffffffff160217905550808273ffffffffffffffffffffffffffffffffffffffff168473ffffffffffffffffffffffffffffffffffffffff167fddf252ad1be2c89b69c2b068fc378daa952ba7f163c4a11628f55a4df523b3ef60405160405180910390a4611183838383611515565b505050565b6001816000016000828254019250508190555050565b600081600001549050919050565b6111c682826040518060200160405280600081525061151a565b5050565b6111d382610d17565b611212576040517f08c379a000000000000000000000000000000000000000000000000000000000815260040161120990612b42565b60405180910390fd5b806006600084815260200190815260200160002090816112329190612d0e565b505050565b61124081611575565b6000600660008381526020019081526020016000208054611260906122ae565b905014611287576006600082815260200190815260200160002060006112869190611b75565b5b50565b8173ffffffffffffffffffffffffffffffffffffffff168373ffffffffffffffffffffffffffffffffffffffff16036112f8576040517f08c379a00000000000000000000000000000000000000000000000000000000081526004016112ef90612e2c565b60405180910390fd5b80600560008573ffffffffffffffffffffffffffffffffffffffff1673ffffffffffffffffffffffffffffffffffffffff16815260200190815260200160002060008473ffffffffffffffffffffffffffffffffffffffff1673ffffffffffffffffffffffffffffffffffffffff16815260200190815260200160002060006101000a81548160ff0219169083151502179055508173ffffffffffffffffffffffffffffffffffffffff168373ffffffffffffffffffffffffffffffffffffffff167f17307eab39ab6107e8899845ad3d59bd9653f200f220920489ca2b5937696c31836040516113e99190611c86565b60405180910390a3505050565b611401848484610f22565b61140d84848484611692565b61144c576040517f08c379a000000000000000000000000000000000000000000000000000000000815260040161144390612ebe565b60405180910390fd5b50505050565b606060405180602001604052806000815250905090565b606061147482610d17565b6114b3576040517f08c379a00000000000000000000000000000000000000000000000000000000081526004016114aa90612f50565b60405180910390fd5b60006114bd611452565b905060008151116114dd5760405180602001604052806000815250611508565b806114e784611819565b6040516020016114f892919061283d565b6040516020818303038152906040525b915050919050565b505050565b505050565b6115248383611979565b6115316000848484611692565b611570576040517f08c379a000000000000000000000000000000000000000000000000000000000815260040161156790612ebe565b60405180910390fd5b505050565b600061158082610722565b905061158e81600084611510565b611599600083610d8b565b6001600360008373ffffffffffffffffffffffffffffffffffffffff1673ffffffffffffffffffffffffffffffffffffffff16815260200190815260200160002060008282546115e99190612a46565b925050819055506002600083815260200190815260200160002060006101000a81549073ffffffffffffffffffffffffffffffffffffffff021916905581600073ffffffffffffffffffffffffffffffffffffffff168273ffffffffffffffffffffffffffffffffffffffff167fddf252ad1be2c89b69c2b068fc378daa952ba7f163c4a11628f55a4df523b3ef60405160405180910390a461168e81600084611515565b5050565b60006116b38473ffffffffffffffffffffffffffffffffffffffff16611b52565b1561180c578373ffffffffffffffffffffffffffffffffffffffff1663150b7a026116dc610d83565b8786866040518563ffffffff1660e01b81526004016116fe9493929190612fc5565b6020604051808303816000875af192505050801561173a57506040513d601f19601f820116820180604052508101906117379190613026565b60015b6117bc573d806000811461176a576040519150601f19603f3d011682016040523d82523d6000602084013e61176f565b606091505b5060008151036117b4576040517f08c379a00000000000000000000000000000000000000000000000000000000081526004016117ab90612ebe565b60405180910390fd5b805181602001fd5b63150b7a0260e01b7bffffffffffffffffffffffffffffffffffffffffffffffffffffffff1916817bffffffffffffffffffffffffffffffffffffffffffffffffffffffff191614915050611811565b600190505b949350505050565b606060008203611860576040518060400160405280600181526020017f30000000000000000000000000000000000000000000000000000000000000008152509050611974565b600082905060005b6000821461189257808061187b90613053565b915050600a8261188b91906130ca565b9150611868565b60008167ffffffffffffffff8111156118ae576118ad611ee4565b5b6040519080825280601f01601f1916602001820160405280156118e05781602001600182028036833780820191505090505b5090505b6000851461196d576001826118f99190612a46565b9150600a8561190891906130fb565b60306119149190612a7a565b60f81b81838151811061192a5761192961312c565b5b60200101907effffffffffffffffffffffffffffffffffffffffffffffffffffffffffffff1916908160001a905350600a8561196691906130ca565b94506118e4565b8093505050505b919050565b600073ffffffffffffffffffffffffffffffffffffffff168273ffffffffffffffffffffffffffffffffffffffff16036119e8576040517f08c379a00000000000000000000000000000000000000000000000000000000081526004016119df906131a7565b60405180910390fd5b6119f181610d17565b15611a31576040517f08c379a0000000000000000000000000000000000000000000000000000000008152600401611a2890613213565b60405180910390fd5b611a3d60008383611510565b6001600360008473ffffffffffffffffffffffffffffffffffffffff1673ffffffffffffffffffffffffffffffffffffffff1681526020019081526020016000206000828254611a8d9190612a7a565b92505081905550816002600083815260200190815260200160002060006101000a81548173ffffffffffffffffffffffffffffffffffffffff021916908373ffffffffffffffffffffffffffffffffffffffff160217905550808273ffffffffffffffffffffffffffffffffffffffff16600073ffffffffffffffffffffffffffffffffffffffff167fddf252ad1be2c89b69c2b068fc378daa952ba7f163c4a11628f55a4df523b3ef60405160405180910390a4611b4e60008383611515565b5050565b6000808273ffffffffffffffffffffffffffffffffffffffff163b119050919050565b508054611b81906122ae565b6000825580601f10611b935750611bb2565b601f016020900490600052602060002090810190611bb19190611bb5565b5b50565b5b80821115611bce576000816000905550600101611bb6565b5090565b6000604051905090565b600080fd5b600080fd5b60007fffffffff0000000000000000000000000000000000000000000000000000000082169050919050565b611c1b81611be6565b8114611c2657600080fd5b50565b600081359050611c3881611c12565b92915050565b600060208284031215611c5457611c53611bdc565b5b6000611c6284828501611c29565b91505092915050565b60008115159050919050565b611c8081611c6b565b82525050565b6000602082019050611c9b6000830184611c77565b92915050565b600081519050919050565b600082825260208201905092915050565b60005b83811015611cdb578082015181840152602081019050611cc0565b83811115611cea576000848401525b50505050565b6000601f19601f8301169050919050565b6000611d0c82611ca1565b611d168185611cac565b9350611d26818560208601611cbd565b611d2f81611cf0565b840191505092915050565b60006020820190508181036000830152611d548184611d01565b905092915050565b6000819050919050565b611d6f81611d5c565b8114611d7a57600080fd5b50565b600081359050611d8c81611d66565b92915050565b600060208284031215611da857611da7611bdc565b5b6000611db684828501611d7d565b91505092915050565b600073ffffffffffffffffffffffffffffffffffffffff82169050919050565b6000611dea82611dbf565b9050919050565b611dfa81611ddf565b82525050565b6000602082019050611e156000830184611df1565b92915050565b611e2481611ddf565b8114611e2f57600080fd5b50565b600081359050611e4181611e1b565b92915050565b60008060408385031215611e5e57611e5d611bdc565b5b6000611e6c85828601611e32565b9250506020611e7d85828601611d7d565b9150509250929050565b600080600060608486031215611ea057611e9f611bdc565b5b6000611eae86828701611e32565b9350506020611ebf86828701611e32565b9250506040611ed086828701611d7d565b9150509250925092565b600080fd5b600080fd5b7f4e487b7100000000000000000000000000000000000000000000000000000000600052604160045260246000fd5b611f1c82611cf0565b810181811067ffffffffffffffff82111715611f3b57611f3a611ee4565b5b80604052505050565b6000611f4e611bd2565b9050611f5a8282611f13565b919050565b600067ffffffffffffffff821115611f7a57611f79611ee4565b5b611f8382611cf0565b9050602081019050919050565b82818337600083830152505050565b6000611fb2611fad84611f5f565b611f44565b905082815260208101848484011115611fce57611fcd611edf565b5b611fd9848285611f90565b509392505050565b600082601f830112611ff657611ff5611eda565b5b8135612006848260208601611f9f565b91505092915050565b60006020828403121561202557612024611bdc565b5b600082013567ffffffffffffffff81111561204357612042611be1565b5b61204f84828501611fe1565b91505092915050565b61206181611d5c565b82525050565b600060208201905061207c6000830184612058565b92915050565b60006020828403121561209857612097611bdc565b5b60006120a684828501611e32565b91505092915050565b6120b881611c6b565b81146120c357600080fd5b50565b6000813590506120d5816120af565b92915050565b600080604083850312156120f2576120f1611bdc565b5b600061210085828601611e32565b9250506020612111858286016120c6565b9150509250929050565b600067ffffffffffffffff82111561213657612135611ee4565b5b61213f82611cf0565b9050602081019050919050565b600061215f61215a8461211b565b611f44565b90508281526020810184848401111561217b5761217a611edf565b5b612186848285611f90565b509392505050565b600082601f8301126121a3576121a2611eda565b5b81356121b384826020860161214c565b91505092915050565b600080600080608085870312156121d6576121d5611bdc565b5b60006121e487828801611e32565b94505060206121f587828801611e32565b935050604061220687828801611d7d565b925050606085013567ffffffffffffffff81111561222757612226611be1565b5b6122338782880161218e565b91505092959194509250565b6000806040838503121561225657612255611bdc565b5b600061226485828601611e32565b925050602061227585828601611e32565b9150509250929050565b7f4e487b7100000000000000000000000000000000000000000000000000000000600052602260045260246000fd5b600060028204905060018216806122c657607f821691505b6020821081036122d9576122d861227f565b5b50919050565b7f4552433732313a20617070726f76656420717565727920666f72206e6f6e657860008201527f697374656e7420746f6b656e0000000000000000000000000000000000000000602082015250565b600061233b602c83611cac565b9150612346826122df565b604082019050919050565b6000602082019050818103600083015261236a8161232e565b9050919050565b7f4552433732313a20617070726f76616c20746f2063757272656e74206f776e6560008201527f7200000000000000000000000000000000000000000000000000000000000000602082015250565b60006123cd602183611cac565b91506123d882612371565b604082019050919050565b600060208201905081810360008301526123fc816123c0565b9050919050565b7f4552433732313a20617070726f76652063616c6c6572206973206e6f74206f7760008201527f6e6572206e6f7220617070726f76656420666f7220616c6c0000000000000000602082015250565b600061245f603883611cac565b915061246a82612403565b604082019050919050565b6000602082019050818103600083015261248e81612452565b9050919050565b7f4552433732313a207472616e736665722063616c6c6572206973206e6f74206f60008201527f776e6572206e6f7220617070726f766564000000000000000000000000000000602082015250565b60006124f1603183611cac565b91506124fc82612495565b604082019050919050565b60006020820190508181036000830152612520816124e4565b9050919050565b7f4552433732313a206f776e657220717565727920666f72206e6f6e657869737460008201527f656e7420746f6b656e0000000000000000000000000000000000000000000000602082015250565b6000612583602983611cac565b915061258e82612527565b604082019050919050565b600060208201905081810360008301526125b281612576565b9050919050565b7f4552433732313a2062616c616e636520717565727920666f7220746865207a6560008201527f726f206164647265737300000000000000000000000000000000000000000000602082015250565b6000612615602a83611cac565b9150612620826125b9565b604082019050919050565b6000602082019050818103600083015261264481612608565b9050919050565b7f4f6e6c7920746865206f776e6572206f662074686520636f6c6c656374696f6e60008201527f2063616e206275726e204e465473000000000000000000000000000000000000602082015250565b60006126a7602e83611cac565b91506126b28261264b565b604082019050919050565b600060208201905081810360008301526126d68161269a565b9050919050565b7f4f776e6572206f662074686520636f6c6c656374696f6e2063616e206f6e6c7960008201527f206275726e204e465473206f776e6564206279207468656d0000000000000000602082015250565b6000612739603883611cac565b9150612744826126dd565b604082019050919050565b600060208201905081810360008301526127688161272c565b9050919050565b7f45524337323155524953746f726167653a2055524920717565727920666f722060008201527f6e6f6e6578697374656e7420746f6b656e000000000000000000000000000000602082015250565b60006127cb603183611cac565b91506127d68261276f565b604082019050919050565b600060208201905081810360008301526127fa816127be565b9050919050565b600081905092915050565b600061281782611ca1565b6128218185612801565b9350612831818560208601611cbd565b80840191505092915050565b6000612849828561280c565b9150612855828461280c565b91508190509392505050565b7f4552433732313a206f70657261746f7220717565727920666f72206e6f6e657860008201527f697374656e7420746f6b656e0000000000000000000000000000000000000000602082015250565b60006128bd602c83611cac565b91506128c882612861565b604082019050919050565b600060208201905081810360008301526128ec816128b0565b9050919050565b7f4552433732313a207472616e736665722066726f6d20696e636f72726563742060008201527f6f776e6572000000000000000000000000000000000000000000000000000000602082015250565b600061294f602583611cac565b915061295a826128f3565b604082019050919050565b6000602082019050818103600083015261297e81612942565b9050919050565b7f4552433732313a207472616e7366657220746f20746865207a65726f2061646460008201527f7265737300000000000000000000000000000000000000000000000000000000602082015250565b60006129e1602483611cac565b91506129ec82612985565b604082019050919050565b60006020820190508181036000830152612a10816129d4565b9050919050565b7f4e487b7100000000000000000000000000000000000000000000000000000000600052601160045260246000fd5b6000612a5182611d5c565b9150612a5c83611d5c565b925082821015612a6f57612a6e612a17565b5b828203905092915050565b6000612a8582611d5c565b9150612a9083611d5c565b9250827fffffffffffffffffffffffffffffffffffffffffffffffffffffffffffffffff03821115612ac557612ac4612a17565b5b828201905092915050565b7f45524337323155524953746f726167653a2055524920736574206f66206e6f6e60008201527f6578697374656e7420746f6b656e000000000000000000000000000000000000602082015250565b6000612b2c602e83611cac565b9150612b3782612ad0565b604082019050919050565b60006020820190508181036000830152612b5b81612b1f565b9050919050565b60008190508160005260206000209050919050565b60006020601f8301049050919050565b600082821b905092915050565b600060088302612bc47fffffffffffffffffffffffffffffffffffffffffffffffffffffffffffffffff82612b87565b612bce8683612b87565b95508019841693508086168417925050509392505050565b6000819050919050565b6000612c0b612c06612c0184611d5c565b612be6565b611d5c565b9050919050565b6000819050919050565b612c2583612bf0565b612c39612c3182612c12565b848454612b94565b825550505050565b600090565b612c4e612c41565b612c59818484612c1c565b505050565b5b81811015612c7d57612c72600082612c46565b600181019050612c5f565b5050565b601f821115612cc257612c9381612b62565b612c9c84612b77565b81016020851015612cab578190505b612cbf612cb785612b77565b830182612c5e565b50505b505050565b600082821c905092915050565b6000612ce560001984600802612cc7565b1980831691505092915050565b6000612cfe8383612cd4565b9150826002028217905092915050565b612d1782611ca1565b67ffffffffffffffff811115612d3057612d2f611ee4565b5b612d3a82546122ae565b612d45828285612c81565b600060209050601f831160018114612d785760008415612d66578287015190505b612d708582612cf2565b865550612dd8565b601f198416612d8686612b62565b60005b82811015612dae57848901518255600182019150602085019450602081019050612d89565b86831015612dcb5784890151612dc7601f891682612cd4565b8355505b6001600288020188555050505b505050505050565b7f4552433732313a20617070726f766520746f2063616c6c657200000000000000600082015250565b6000612e16601983611cac565b9150612e2182612de0565b602082019050919050565b60006020820190508181036000830152612e4581612e09565b9050919050565b7f4552433732313a207472616e7366657220746f206e6f6e20455243373231526560008201527f63656976657220696d706c656d656e7465720000000000000000000000000000602082015250565b6000612ea8603283611cac565b9150612eb382612e4c565b604082019050919050565b60006020820190508181036000830152612ed781612e9b565b9050919050565b7f4552433732314d657461646174613a2055524920717565727920666f72206e6f60008201527f6e6578697374656e7420746f6b656e0000000000000000000000000000000000602082015250565b6000612f3a602f83611cac565b9150612f4582612ede565b604082019050919050565b60006020820190508181036000830152612f6981612f2d565b9050919050565b600081519050919050565b600082825260208201905092915050565b6000612f9782612f70565b612fa18185612f7b565b9350612fb1818560208601611cbd565b612fba81611cf0565b840191505092915050565b6000608082019050612fda6000830187611df1565b612fe76020830186611df1565b612ff46040830185612058565b81810360608301526130068184612f8c565b905095945050505050565b60008151905061302081611c12565b92915050565b60006020828403121561303c5761303b611bdc565b5b600061304a84828501613011565b91505092915050565b600061305e82611d5c565b91507fffffffffffffffffffffffffffffffffffffffffffffffffffffffffffffffff82036130905761308f612a17565b5b600182019050919050565b7f4e487b7100000000000000000000000000000000000000000000000000000000600052601260045260246000fd5b60006130d582611d5c565b91506130e083611d5c565b9250826130f0576130ef61309b565b5b828204905092915050565b600061310682611d5c565b915061311183611d5c565b9250826131215761312061309b565b5b828206905092915050565b7f4e487b7100000000000000000000000000000000000000000000000000000000600052603260045260246000fd5b7f4552433732313a206d696e7420746f20746865207a65726f2061646472657373600082015250565b6000613191602083611cac565b915061319c8261315b565b602082019050919050565b600060208201905081810360008301526131c081613184565b9050919050565b7f4552433732313a20746f6b656e20616c7265616479206d696e74656400000000600082015250565b60006131fd601c83611cac565b9150613208826131c7565b602082019050919050565b6000602082019050818103600083015261322c816131f0565b905091905056fea2646970667358221220aca67a1952a2708a36023074113736b205170aac168c0077ddd168ee7449ebf664736f6c634300080f0033",
  "immutableReferences": {},
  "source": "//SPDX-License-Identifier: MIT\r\npragma solidity ^0.8.15;\r\n\r\nimport \"@openzeppelin/contracts/utils/Counters.sol\";\r\nimport \"@openzeppelin/contracts/token/ERC721/extensions/ERC721URIStorage.sol\";\r\n\r\ncontract NFT721 is ERC721URIStorage {\r\n    using Counters for Counters.Counter;\r\n    Counters.Counter private _tokenIds;\r\n    address marketplace;\r\n    address owner;\r\n\r\n    /**\r\n        Construct the NFT Contract that follows the ERC-721 standard.\r\n\r\n        @param _collectionName - Name of the collection\r\n        @param _collectionSymbol - Symbol for the collection\r\n        @param _marketplace - Address for the XDSea marketplace\r\n    */\r\n    constructor(\r\n        string memory _collectionName, \r\n        string memory _collectionSymbol, \r\n        address _marketplace\r\n    ) ERC721(\r\n        _collectionName, \r\n        _collectionSymbol\r\n    ) {\r\n        marketplace = _marketplace;\r\n        owner = msg.sender;\r\n    }\r\n\r\n    /**\r\n        Mint the next token on the contract and store the token metadata with the token.\r\n        \r\n        @param _tokenURI - URI of the NFT Metadata\r\n        @return newItemId - token ID of the minted NFT\r\n     */\r\n    function createToken(string memory _tokenURI) public returns (uint256) {\r\n        _tokenIds.increment();\r\n        uint256 newItemId = _tokenIds.current();\r\n\r\n        _safeMint(msg.sender, newItemId);\r\n        _setTokenURI(newItemId, _tokenURI);\r\n        setApprovalForAll(marketplace, true);\r\n        return newItemId;\r\n    }\r\n\r\n    /**\r\n        Burn a given token ID. (Only owner has permission and that too only if they own the NFT)\r\n\r\n        @param _tokenID - token ID of the NFT to be burned\r\n     */\r\n    function burnToken(uint256 _tokenID) public {\r\n        require(msg.sender == owner, \"Only the owner of the collection can burn NFTs\");\r\n        require(ownerOf(_tokenID) == owner, \"Owner of the collection can only burn NFTs owned by them\");\r\n\r\n        _burn(_tokenID);\r\n    }\r\n}",
  "sourcePath": "C:\\Users\\priya\\XDSea\\contracts\\NFT\\NFT721.sol",
  "compiler": {
    "name": "solc",
    "version": "0.8.15+commit.e14f2714.Emscripten.clang"
  },
  "schemaVersion": "3.4.9",
  "updatedAt": "2022-08-12T18:38:11.938Z",
  "devdoc": {
    "kind": "dev",
    "methods": {
      "approve(address,uint256)": {
        "details": "See {IERC721-approve}."
      },
      "balanceOf(address)": {
        "details": "See {IERC721-balanceOf}."
      },
      "burnToken(uint256)": {
        "params": {
          "_tokenID": "- token ID of the NFT to be burned"
        }
      },
      "constructor": {
        "params": {
          "_collectionName": "- Name of the collection",
          "_collectionSymbol": "- Symbol for the collection",
          "_marketplace": "- Address for the XDSea marketplace"
        }
      },
      "createToken(string)": {
        "params": {
          "_tokenURI": "- URI of the NFT Metadata"
        },
        "returns": {
          "_0": "newItemId - token ID of the minted NFT"
        }
      },
      "getApproved(uint256)": {
        "details": "See {IERC721-getApproved}."
      },
      "isApprovedForAll(address,address)": {
        "details": "See {IERC721-isApprovedForAll}."
      },
      "name()": {
        "details": "See {IERC721Metadata-name}."
      },
      "ownerOf(uint256)": {
        "details": "See {IERC721-ownerOf}."
      },
      "safeTransferFrom(address,address,uint256)": {
        "details": "See {IERC721-safeTransferFrom}."
      },
      "safeTransferFrom(address,address,uint256,bytes)": {
        "details": "See {IERC721-safeTransferFrom}."
      },
      "setApprovalForAll(address,bool)": {
        "details": "See {IERC721-setApprovalForAll}."
      },
      "supportsInterface(bytes4)": {
        "details": "See {IERC165-supportsInterface}."
      },
      "symbol()": {
        "details": "See {IERC721Metadata-symbol}."
      },
      "tokenURI(uint256)": {
        "details": "See {IERC721Metadata-tokenURI}."
      },
      "transferFrom(address,address,uint256)": {
        "details": "See {IERC721-transferFrom}."
      }
    },
    "version": 1
  },
  "userdoc": {
    "kind": "user",
    "methods": {
      "burnToken(uint256)": {
        "notice": "Burn a given token ID. (Only owner has permission and that too only if they own the NFT)"
      },
      "constructor": {
        "notice": "Construct the NFT Contract that follows the ERC-721 standard."
      },
      "createToken(string)": {
        "notice": "Mint the next token on the contract and store the token metadata with the token."
      }
    },
    "version": 1
  }
}