{
  "contractName": "NFTMarket",
  "abi": [
    {
      "inputs": [],
      "stateMutability": "nonpayable",
      "type": "constructor"
    },
    {
      "anonymous": false,
      "inputs": [
        {
          "indexed": true,
          "internalType": "uint256",
          "name": "itemId",
          "type": "uint256"
        },
        {
          "indexed": true,
          "internalType": "address",
          "name": "nftContract",
          "type": "address"
        },
        {
          "indexed": true,
          "internalType": "uint256",
          "name": "tokenId",
          "type": "uint256"
        },
        {
          "indexed": false,
          "internalType": "address",
          "name": "seller",
          "type": "address"
        },
        {
          "indexed": false,
          "internalType": "address",
          "name": "owner",
          "type": "address"
        },
        {
          "indexed": false,
          "internalType": "address",
          "name": "creator",
          "type": "address"
        },
        {
          "indexed": false,
          "internalType": "uint256",
          "name": "price",
          "type": "uint256"
        },
        {
          "indexed": false,
          "internalType": "bool",
          "name": "sold",
          "type": "bool"
        },
        {
          "indexed": false,
          "internalType": "bool",
          "name": "isListed",
          "type": "bool"
        },
        {
          "indexed": false,
          "internalType": "uint256",
          "name": "royalty",
          "type": "uint256"
        },
        {
          "indexed": false,
          "internalType": "uint256",
          "name": "eventCount",
          "type": "uint256"
        }
      ],
      "name": "MarketItemCreated",
      "type": "event"
    },
    {
      "anonymous": false,
      "inputs": [
        {
          "indexed": true,
          "internalType": "uint256",
          "name": "itemId",
          "type": "uint256"
        },
        {
          "indexed": true,
          "internalType": "address",
          "name": "nftContract",
          "type": "address"
        },
        {
          "indexed": true,
          "internalType": "uint256",
          "name": "tokenId",
          "type": "uint256"
        },
        {
          "indexed": false,
          "internalType": "address",
          "name": "seller",
          "type": "address"
        },
        {
          "indexed": false,
          "internalType": "address",
          "name": "owner",
          "type": "address"
        },
        {
          "indexed": false,
          "internalType": "address",
          "name": "creator",
          "type": "address"
        },
        {
          "indexed": false,
          "internalType": "uint256",
          "name": "price",
          "type": "uint256"
        },
        {
          "indexed": false,
          "internalType": "bool",
          "name": "sold",
          "type": "bool"
        },
        {
          "indexed": false,
          "internalType": "bool",
          "name": "isListed",
          "type": "bool"
        },
        {
          "indexed": false,
          "internalType": "uint256",
          "name": "royalty",
          "type": "uint256"
        },
        {
          "indexed": false,
          "internalType": "uint256",
          "name": "eventCount",
          "type": "uint256"
        }
      ],
      "name": "MarketItemListed",
      "type": "event"
    },
    {
      "anonymous": false,
      "inputs": [
        {
          "indexed": true,
          "internalType": "uint256",
          "name": "itemId",
          "type": "uint256"
        },
        {
          "indexed": true,
          "internalType": "address",
          "name": "nftContract",
          "type": "address"
        },
        {
          "indexed": true,
          "internalType": "uint256",
          "name": "tokenId",
          "type": "uint256"
        },
        {
          "indexed": false,
          "internalType": "address",
          "name": "seller",
          "type": "address"
        },
        {
          "indexed": false,
          "internalType": "address",
          "name": "owner",
          "type": "address"
        },
        {
          "indexed": false,
          "internalType": "address",
          "name": "prevOwner",
          "type": "address"
        },
        {
          "indexed": false,
          "internalType": "address",
          "name": "creator",
          "type": "address"
        },
        {
          "indexed": false,
          "internalType": "uint256",
          "name": "price",
          "type": "uint256"
        },
        {
          "indexed": false,
          "internalType": "bool",
          "name": "sold",
          "type": "bool"
        },
        {
          "indexed": false,
          "internalType": "bool",
          "name": "isListed",
          "type": "bool"
        },
        {
          "indexed": false,
          "internalType": "uint256",
          "name": "royalty",
          "type": "uint256"
        },
        {
          "indexed": false,
          "internalType": "uint256",
          "name": "eventCount",
          "type": "uint256"
        }
      ],
      "name": "MarketItemSold",
      "type": "event"
    },
    {
      "anonymous": false,
      "inputs": [
        {
          "indexed": true,
          "internalType": "uint256",
          "name": "itemId",
          "type": "uint256"
        },
        {
          "indexed": true,
          "internalType": "address",
          "name": "nftContract",
          "type": "address"
        },
        {
          "indexed": true,
          "internalType": "uint256",
          "name": "tokenId",
          "type": "uint256"
        },
        {
          "indexed": false,
          "internalType": "address",
          "name": "seller",
          "type": "address"
        },
        {
          "indexed": false,
          "internalType": "address",
          "name": "owner",
          "type": "address"
        },
        {
          "indexed": false,
          "internalType": "address",
          "name": "prevOwner",
          "type": "address"
        },
        {
          "indexed": false,
          "internalType": "address",
          "name": "creator",
          "type": "address"
        },
        {
          "indexed": false,
          "internalType": "uint256",
          "name": "price",
          "type": "uint256"
        },
        {
          "indexed": false,
          "internalType": "bool",
          "name": "sold",
          "type": "bool"
        },
        {
          "indexed": false,
          "internalType": "bool",
          "name": "isListed",
          "type": "bool"
        },
        {
          "indexed": false,
          "internalType": "uint256",
          "name": "royalty",
          "type": "uint256"
        },
        {
          "indexed": false,
          "internalType": "uint256",
          "name": "eventCount",
          "type": "uint256"
        }
      ],
      "name": "MarketItemTransferred",
      "type": "event"
    },
    {
      "anonymous": false,
      "inputs": [
        {
          "indexed": true,
          "internalType": "uint256",
          "name": "itemId",
          "type": "uint256"
        },
        {
          "indexed": true,
          "internalType": "address",
          "name": "nftContract",
          "type": "address"
        },
        {
          "indexed": true,
          "internalType": "uint256",
          "name": "tokenId",
          "type": "uint256"
        },
        {
          "indexed": false,
          "internalType": "address",
          "name": "seller",
          "type": "address"
        },
        {
          "indexed": false,
          "internalType": "address",
          "name": "owner",
          "type": "address"
        },
        {
          "indexed": false,
          "internalType": "address",
          "name": "creator",
          "type": "address"
        },
        {
          "indexed": false,
          "internalType": "uint256",
          "name": "price",
          "type": "uint256"
        },
        {
          "indexed": false,
          "internalType": "bool",
          "name": "sold",
          "type": "bool"
        },
        {
          "indexed": false,
          "internalType": "bool",
          "name": "isListed",
          "type": "bool"
        },
        {
          "indexed": false,
          "internalType": "uint256",
          "name": "royalty",
          "type": "uint256"
        },
        {
          "indexed": false,
          "internalType": "uint256",
          "name": "eventCount",
          "type": "uint256"
        }
      ],
      "name": "MarketItemUpdated",
      "type": "event"
    },
    {
      "anonymous": false,
      "inputs": [
        {
          "indexed": true,
          "internalType": "uint256",
          "name": "itemId",
          "type": "uint256"
        },
        {
          "indexed": true,
          "internalType": "address",
          "name": "nftContract",
          "type": "address"
        },
        {
          "indexed": true,
          "internalType": "uint256",
          "name": "tokenId",
          "type": "uint256"
        },
        {
          "indexed": false,
          "internalType": "address",
          "name": "seller",
          "type": "address"
        },
        {
          "indexed": false,
          "internalType": "address",
          "name": "owner",
          "type": "address"
        },
        {
          "indexed": false,
          "internalType": "address",
          "name": "creator",
          "type": "address"
        },
        {
          "indexed": false,
          "internalType": "uint256",
          "name": "price",
          "type": "uint256"
        },
        {
          "indexed": false,
          "internalType": "bool",
          "name": "sold",
          "type": "bool"
        },
        {
          "indexed": false,
          "internalType": "bool",
          "name": "isListed",
          "type": "bool"
        },
        {
          "indexed": false,
          "internalType": "uint256",
          "name": "royalty",
          "type": "uint256"
        },
        {
          "indexed": false,
          "internalType": "uint256",
          "name": "eventCount",
          "type": "uint256"
        }
      ],
      "name": "MarketItemWithdrawn",
      "type": "event"
    },
    {
      "inputs": [
        {
          "internalType": "uint256",
          "name": "",
          "type": "uint256"
        },
        {
          "internalType": "uint256",
          "name": "",
          "type": "uint256"
        }
      ],
      "name": "eventHistory",
      "outputs": [
        {
          "internalType": "enum NFTMarket.EventType",
          "name": "eventType",
          "type": "uint8"
        },
        {
          "internalType": "address",
          "name": "from",
          "type": "address"
        },
        {
          "internalType": "address",
          "name": "to",
          "type": "address"
        },
        {
          "internalType": "uint256",
          "name": "price",
          "type": "uint256"
        },
        {
          "internalType": "uint256",
          "name": "timestamp",
          "type": "uint256"
        }
      ],
      "stateMutability": "view",
      "type": "function"
    },
    {
      "inputs": [
        {
          "internalType": "uint256",
          "name": "",
          "type": "uint256"
        }
      ],
      "name": "idToMarketItem",
      "outputs": [
        {
          "internalType": "uint256",
          "name": "itemId",
          "type": "uint256"
        },
        {
          "internalType": "address",
          "name": "nftContract",
          "type": "address"
        },
        {
          "internalType": "uint256",
          "name": "tokenId",
          "type": "uint256"
        },
        {
          "internalType": "address payable",
          "name": "seller",
          "type": "address"
        },
        {
          "internalType": "address payable",
          "name": "owner",
          "type": "address"
        },
        {
          "internalType": "address",
          "name": "creator",
          "type": "address"
        },
        {
          "internalType": "uint256",
          "name": "price",
          "type": "uint256"
        },
        {
          "internalType": "bool",
          "name": "sold",
          "type": "bool"
        },
        {
          "internalType": "bool",
          "name": "isListed",
          "type": "bool"
        },
        {
          "internalType": "uint256",
          "name": "royalty",
          "type": "uint256"
        },
        {
          "internalType": "uint256",
          "name": "eventCount",
          "type": "uint256"
        }
      ],
      "stateMutability": "view",
      "type": "function"
    },
    {
      "inputs": [],
      "name": "getOwner",
      "outputs": [
        {
          "internalType": "address",
          "name": "",
          "type": "address"
        }
      ],
      "stateMutability": "view",
      "type": "function"
    },
    {
      "inputs": [
        {
          "internalType": "uint256",
          "name": "_tokenId",
          "type": "uint256"
        }
      ],
      "name": "getPrice",
      "outputs": [
        {
          "internalType": "uint256",
          "name": "",
          "type": "uint256"
        }
      ],
      "stateMutability": "view",
      "type": "function"
    },
    {
      "inputs": [
        {
          "internalType": "uint256",
          "name": "itemId",
          "type": "uint256"
        },
        {
          "internalType": "uint256",
          "name": "eventId",
          "type": "uint256"
        }
      ],
      "name": "getEventHistory",
      "outputs": [
        {
          "components": [
            {
              "internalType": "enum NFTMarket.EventType",
              "name": "eventType",
              "type": "uint8"
            },
            {
              "internalType": "address",
              "name": "from",
              "type": "address"
            },
            {
              "internalType": "address",
              "name": "to",
              "type": "address"
            },
            {
              "internalType": "uint256",
              "name": "price",
              "type": "uint256"
            },
            {
              "internalType": "uint256",
              "name": "timestamp",
              "type": "uint256"
            }
          ],
          "internalType": "struct NFTMarket.Event",
          "name": "",
          "type": "tuple"
        }
      ],
      "stateMutability": "view",
      "type": "function"
    },
    {
      "inputs": [
        {
          "internalType": "address",
          "name": "nftContract",
          "type": "address"
        },
        {
          "internalType": "uint256",
          "name": "tokenId",
          "type": "uint256"
        },
        {
          "internalType": "uint256",
          "name": "price",
          "type": "uint256"
        },
        {
          "internalType": "uint256",
          "name": "royalty",
          "type": "uint256"
        }
      ],
      "name": "createMarketItem",
      "outputs": [],
      "stateMutability": "payable",
      "type": "function"
    },
    {
      "inputs": [
        {
          "internalType": "address",
          "name": "nftContract",
          "type": "address"
        },
        {
          "internalType": "uint256",
          "name": "tokenId",
          "type": "uint256"
        }
      ],
      "name": "getOwnerOfToken",
      "outputs": [
        {
          "internalType": "address",
          "name": "",
          "type": "address"
        }
      ],
      "stateMutability": "view",
      "type": "function"
    },
    {
      "inputs": [
        {
          "internalType": "address",
          "name": "nftContract",
          "type": "address"
        },
        {
          "internalType": "uint256",
          "name": "itemId",
          "type": "uint256"
        },
        {
          "internalType": "uint256",
          "name": "price",
          "type": "uint256"
        }
      ],
      "name": "listItem",
      "outputs": [],
      "stateMutability": "payable",
      "type": "function"
    },
    {
      "inputs": [
        {
          "internalType": "uint256",
          "name": "itemId",
          "type": "uint256"
        },
        {
          "internalType": "uint256",
          "name": "price",
          "type": "uint256"
        }
      ],
      "name": "editListing",
      "outputs": [],
      "stateMutability": "payable",
      "type": "function"
    },
    {
      "inputs": [
        {
          "internalType": "address",
          "name": "nftContract",
          "type": "address"
        },
        {
          "internalType": "uint256",
          "name": "itemId",
          "type": "uint256"
        }
      ],
      "name": "withdrawListing",
      "outputs": [],
      "stateMutability": "nonpayable",
      "type": "function"
    },
    {
      "inputs": [
        {
          "internalType": "address",
          "name": "nftContract",
          "type": "address"
        },
        {
          "internalType": "uint256",
          "name": "itemId",
          "type": "uint256"
        },
        {
          "internalType": "address",
          "name": "receiver",
          "type": "address"
        }
      ],
      "name": "transferNFT",
      "outputs": [],
      "stateMutability": "payable",
      "type": "function"
    },
    {
      "inputs": [
        {
          "internalType": "address",
          "name": "",
          "type": "address"
        },
        {
          "internalType": "address",
          "name": "",
          "type": "address"
        },
        {
          "internalType": "uint256",
          "name": "",
          "type": "uint256"
        },
        {
          "internalType": "bytes",
          "name": "",
          "type": "bytes"
        }
      ],
      "name": "onERC721Received",
      "outputs": [
        {
          "internalType": "bytes4",
          "name": "",
          "type": "bytes4"
        }
      ],
      "stateMutability": "nonpayable",
      "type": "function"
    },
    {
      "inputs": [
        {
          "internalType": "address",
          "name": "nftContract",
          "type": "address"
        },
        {
          "internalType": "uint256",
          "name": "itemId",
          "type": "uint256"
        }
      ],
      "name": "createMarketSale",
      "outputs": [],
      "stateMutability": "payable",
      "type": "function"
    },
    {
      "inputs": [],
      "name": "fetchMarketItems",
      "outputs": [
        {
          "components": [
            {
              "internalType": "uint256",
              "name": "itemId",
              "type": "uint256"
            },
            {
              "internalType": "address",
              "name": "nftContract",
              "type": "address"
            },
            {
              "internalType": "uint256",
              "name": "tokenId",
              "type": "uint256"
            },
            {
              "internalType": "address payable",
              "name": "seller",
              "type": "address"
            },
            {
              "internalType": "address payable",
              "name": "owner",
              "type": "address"
            },
            {
              "internalType": "address",
              "name": "creator",
              "type": "address"
            },
            {
              "internalType": "uint256",
              "name": "price",
              "type": "uint256"
            },
            {
              "internalType": "bool",
              "name": "sold",
              "type": "bool"
            },
            {
              "internalType": "bool",
              "name": "isListed",
              "type": "bool"
            },
            {
              "internalType": "uint256",
              "name": "royalty",
              "type": "uint256"
            },
            {
              "internalType": "uint256",
              "name": "eventCount",
              "type": "uint256"
            }
          ],
          "internalType": "struct NFTMarket.MarketItem[]",
          "name": "",
          "type": "tuple[]"
        }
      ],
      "stateMutability": "view",
      "type": "function"
    },
    {
      "inputs": [
        {
          "internalType": "address",
          "name": "user",
          "type": "address"
        }
      ],
      "name": "fetchMyNFTs",
      "outputs": [
        {
          "components": [
            {
              "internalType": "uint256",
              "name": "itemId",
              "type": "uint256"
            },
            {
              "internalType": "address",
              "name": "nftContract",
              "type": "address"
            },
            {
              "internalType": "uint256",
              "name": "tokenId",
              "type": "uint256"
            },
            {
              "internalType": "address payable",
              "name": "seller",
              "type": "address"
            },
            {
              "internalType": "address payable",
              "name": "owner",
              "type": "address"
            },
            {
              "internalType": "address",
              "name": "creator",
              "type": "address"
            },
            {
              "internalType": "uint256",
              "name": "price",
              "type": "uint256"
            },
            {
              "internalType": "bool",
              "name": "sold",
              "type": "bool"
            },
            {
              "internalType": "bool",
              "name": "isListed",
              "type": "bool"
            },
            {
              "internalType": "uint256",
              "name": "royalty",
              "type": "uint256"
            },
            {
              "internalType": "uint256",
              "name": "eventCount",
              "type": "uint256"
            }
          ],
          "internalType": "struct NFTMarket.MarketItem[]",
          "name": "",
          "type": "tuple[]"
        }
      ],
      "stateMutability": "view",
      "type": "function"
    },
    {
      "inputs": [
        {
          "internalType": "address",
          "name": "user",
          "type": "address"
        }
      ],
      "name": "fetchItemsCreated",
      "outputs": [
        {
          "components": [
            {
              "internalType": "uint256",
              "name": "itemId",
              "type": "uint256"
            },
            {
              "internalType": "address",
              "name": "nftContract",
              "type": "address"
            },
            {
              "internalType": "uint256",
              "name": "tokenId",
              "type": "uint256"
            },
            {
              "internalType": "address payable",
              "name": "seller",
              "type": "address"
            },
            {
              "internalType": "address payable",
              "name": "owner",
              "type": "address"
            },
            {
              "internalType": "address",
              "name": "creator",
              "type": "address"
            },
            {
              "internalType": "uint256",
              "name": "price",
              "type": "uint256"
            },
            {
              "internalType": "bool",
              "name": "sold",
              "type": "bool"
            },
            {
              "internalType": "bool",
              "name": "isListed",
              "type": "bool"
            },
            {
              "internalType": "uint256",
              "name": "royalty",
              "type": "uint256"
            },
            {
              "internalType": "uint256",
              "name": "eventCount",
              "type": "uint256"
            }
          ],
          "internalType": "struct NFTMarket.MarketItem[]",
          "name": "",
          "type": "tuple[]"
        }
      ],
      "stateMutability": "view",
      "type": "function"
    }
  ],
  "bytecode": "0x608060405234801561001057600080fd5b50600160008190555033600360006101000a81548173ffffffffffffffffffffffffffffffffffffffff021916908373ffffffffffffffffffffffffffffffffffffffff160217905550614796806100696000396000f3fe6080604052600436106100f25760003560e01c8063893d20e81161008a578063d2f0922a11610059578063d2f0922a1461031b578063e61a70c014610337578063e75722301461037e578063f5aa8372146103bb576100f2565b8063893d20e81461027b57806389bfd38f146102a6578063c23b139e146102c2578063c8338456146102de576100f2565b806344fc390d116100c657806344fc390d146101c55780634a141b29146101e157806353822c4d1461021e578063599ba2341461025f576100f2565b8062a67292146100f75780630f08efe01461012057806310afee1e1461014b578063150b7a0214610188575b600080fd5b34801561010357600080fd5b5061011e60048036038101906101199190613a8a565b6103f8565b005b34801561012c57600080fd5b50610135610974565b60405161014291906140e4565b60405180910390f35b34801561015757600080fd5b50610172600480360381019061016d91906139bd565b610c75565b60405161017f91906140e4565b60405180910390f35b34801561019457600080fd5b506101af60048036038101906101aa9190613a0f565b611097565b6040516101bc9190614106565b60405180910390f35b6101df60048036038101906101da9190613bf0565b6110ab565b005b3480156101ed57600080fd5b5061020860048036038101906102039190613a8a565b6115c6565b6040516102159190613f09565b60405180910390f35b34801561022a57600080fd5b5061024560048036038101906102409190613bf0565b611659565b604051610256959493929190614121565b60405180910390f35b61027960048036038101906102749190613b64565b6116e9565b005b34801561028757600080fd5b50610290611c01565b60405161029d9190613f09565b60405180910390f35b6102c060048036038101906102bb9190613b15565b611c2b565b005b6102dc60048036038101906102d79190613a8a565b612229565b005b3480156102ea57600080fd5b50610305600480360381019061030091906139bd565b612af2565b60405161031291906140e4565b60405180910390f35b61033560048036038101906103309190613ac6565b612f14565b005b34801561034357600080fd5b5061035e60048036038101906103599190613bc7565b61350f565b6040516103759b9a9998979695949392919061420a565b60405180910390f35b34801561038a57600080fd5b506103a560048036038101906103a09190613bc7565b613603565b6040516103b291906141ef565b60405180910390f35b3480156103c757600080fd5b506103e260048036038101906103dd9190613bf0565b613623565b6040516103ef91906141d4565b60405180910390f35b6002600054141561043e576040517f08c379a000000000000000000000000000000000000000000000000000000000815260040161043590614194565b60405180910390fd5b60026000819055506000600460008381526020019081526020016000206002015490508273ffffffffffffffffffffffffffffffffffffffff166323b872dd3033846040518463ffffffff1660e01b815260040161049e939291906140ad565b600060405180830381600087803b1580156104b857600080fd5b505af11580156104cc573d6000803e3d6000fd5b5050505060006004600084815260200190815260200160002060070160016101000a81548160ff0219169083151502179055506040518060a0016040528060026005811115610544577f4e487b7100000000000000000000000000000000000000000000000000000000600052602160045260246000fd5b81526020013073ffffffffffffffffffffffffffffffffffffffff1681526020013373ffffffffffffffffffffffffffffffffffffffff1681526020016000815260200142815250600560008481526020019081526020016000206000600160046000878152602001908152602001600020600901546105c49190614355565b815260200190815260200160002060008201518160000160006101000a81548160ff02191690836005811115610623577f4e487b7100000000000000000000000000000000000000000000000000000000600052602160045260246000fd5b021790555060208201518160000160016101000a81548173ffffffffffffffffffffffffffffffffffffffff021916908373ffffffffffffffffffffffffffffffffffffffff16021790555060408201518160010160006101000a81548173ffffffffffffffffffffffffffffffffffffffff021916908373ffffffffffffffffffffffffffffffffffffffff1602179055506060820151816002015560808201518160030155905050600160046000848152602001908152602001600020600901546106f09190614355565b600460008481526020019081526020016000206009018190555060006004600084815260200190815260200160002060405180610160016040529081600082015481526020016001820160009054906101000a900473ffffffffffffffffffffffffffffffffffffffff1673ffffffffffffffffffffffffffffffffffffffff1673ffffffffffffffffffffffffffffffffffffffff168152602001600282015481526020016003820160009054906101000a900473ffffffffffffffffffffffffffffffffffffffff1673ffffffffffffffffffffffffffffffffffffffff1673ffffffffffffffffffffffffffffffffffffffff1681526020016004820160009054906101000a900473ffffffffffffffffffffffffffffffffffffffff1673ffffffffffffffffffffffffffffffffffffffff1673ffffffffffffffffffffffffffffffffffffffff1681526020016005820160009054906101000a900473ffffffffffffffffffffffffffffffffffffffff1673ffffffffffffffffffffffffffffffffffffffff1673ffffffffffffffffffffffffffffffffffffffff168152602001600682015481526020016007820160009054906101000a900460ff161515151581526020016007820160019054906101000a900460ff161515151581526020016008820154815260200160098201548152505090508060400151816020015173ffffffffffffffffffffffffffffffffffffffff16847f2b294404c6f5a97c54dc5a7e77584fcaed90c254f24478a3e20ca503ea28522533338660a001518760c001516000808a61012001518b610140015160405161095e98979695949392919061402f565b60405180910390a4505060016000819055505050565b6060600061098260016137a9565b90506000808267ffffffffffffffff8111156109c7577f4e487b7100000000000000000000000000000000000000000000000000000000600052604160045260246000fd5b604051908082528060200260200182016040528015610a0057816020015b6109ed6137cd565b8152602001906001900390816109e55790505b50905060005b83811015610c6b576000600182610a1d9190614355565b905060006004600083815260200190815260200160002090508060405180610160016040529081600082015481526020016001820160009054906101000a900473ffffffffffffffffffffffffffffffffffffffff1673ffffffffffffffffffffffffffffffffffffffff1673ffffffffffffffffffffffffffffffffffffffff168152602001600282015481526020016003820160009054906101000a900473ffffffffffffffffffffffffffffffffffffffff1673ffffffffffffffffffffffffffffffffffffffff1673ffffffffffffffffffffffffffffffffffffffff1681526020016004820160009054906101000a900473ffffffffffffffffffffffffffffffffffffffff1673ffffffffffffffffffffffffffffffffffffffff1673ffffffffffffffffffffffffffffffffffffffff1681526020016005820160009054906101000a900473ffffffffffffffffffffffffffffffffffffffff1673ffffffffffffffffffffffffffffffffffffffff1673ffffffffffffffffffffffffffffffffffffffff168152602001600682015481526020016007820160009054906101000a900460ff161515151581526020016007820160019054906101000a900460ff1615151515815260200160088201548152602001600982015481525050848681518110610c3c577f4e487b7100000000000000000000000000000000000000000000000000000000600052603260045260246000fd5b6020026020010181905250600185610c549190614355565b945050508080610c6390614567565b915050610a06565b5080935050505090565b60606000610c8360016137a9565b905060008060005b83811015610d2c578573ffffffffffffffffffffffffffffffffffffffff1660046000600184610cbb9190614355565b815260200190815260200160002060040160009054906101000a900473ffffffffffffffffffffffffffffffffffffffff1673ffffffffffffffffffffffffffffffffffffffff161415610d1957600183610d169190614355565b92505b8080610d2490614567565b915050610c8b565b5060008267ffffffffffffffff811115610d6f577f4e487b7100000000000000000000000000000000000000000000000000000000600052604160045260246000fd5b604051908082528060200260200182016040528015610da857816020015b610d956137cd565b815260200190600190039081610d8d5790505b50905060005b8481101561108a578673ffffffffffffffffffffffffffffffffffffffff1660046000600184610dde9190614355565b815260200190815260200160002060040160009054906101000a900473ffffffffffffffffffffffffffffffffffffffff1673ffffffffffffffffffffffffffffffffffffffff161415611077576000600182610e3b9190614355565b905060006004600083815260200190815260200160002090508060405180610160016040529081600082015481526020016001820160009054906101000a900473ffffffffffffffffffffffffffffffffffffffff1673ffffffffffffffffffffffffffffffffffffffff1673ffffffffffffffffffffffffffffffffffffffff168152602001600282015481526020016003820160009054906101000a900473ffffffffffffffffffffffffffffffffffffffff1673ffffffffffffffffffffffffffffffffffffffff1673ffffffffffffffffffffffffffffffffffffffff1681526020016004820160009054906101000a900473ffffffffffffffffffffffffffffffffffffffff1673ffffffffffffffffffffffffffffffffffffffff1673ffffffffffffffffffffffffffffffffffffffff1681526020016005820160009054906101000a900473ffffffffffffffffffffffffffffffffffffffff1673ffffffffffffffffffffffffffffffffffffffff1673ffffffffffffffffffffffffffffffffffffffff168152602001600682015481526020016007820160009054906101000a900460ff161515151581526020016007820160019054906101000a900460ff161515151581526020016008820154815260200160098201548152505084868151811061105a577f4e487b7100000000000000000000000000000000000000000000000000000000600052603260045260246000fd5b60200260200101819052506001856110729190614355565b945050505b808061108290614567565b915050610dae565b5080945050505050919050565b600063150b7a0260e01b9050949350505050565b600260005414156110f1576040517f08c379a00000000000000000000000000000000000000000000000000000000081526004016110e890614194565b60405180910390fd5b60026000819055506000811161113c576040517f08c379a0000000000000000000000000000000000000000000000000000000008152600401611133906141b4565b60405180910390fd5b8060046000848152602001908152602001600020600601819055506040518060a0016040528060058081111561119b577f4e487b7100000000000000000000000000000000000000000000000000000000600052602160045260246000fd5b81526020013373ffffffffffffffffffffffffffffffffffffffff1681526020013073ffffffffffffffffffffffffffffffffffffffff168152602001828152602001428152506005600084815260200190815260200160002060006001600460008781526020019081526020016000206009015461121a9190614355565b815260200190815260200160002060008201518160000160006101000a81548160ff02191690836005811115611279577f4e487b7100000000000000000000000000000000000000000000000000000000600052602160045260246000fd5b021790555060208201518160000160016101000a81548173ffffffffffffffffffffffffffffffffffffffff021916908373ffffffffffffffffffffffffffffffffffffffff16021790555060408201518160010160006101000a81548173ffffffffffffffffffffffffffffffffffffffff021916908373ffffffffffffffffffffffffffffffffffffffff1602179055506060820151816002015560808201518160030155905050600160046000848152602001908152602001600020600901546113469190614355565b600460008481526020019081526020016000206009018190555060006004600084815260200190815260200160002060405180610160016040529081600082015481526020016001820160009054906101000a900473ffffffffffffffffffffffffffffffffffffffff1673ffffffffffffffffffffffffffffffffffffffff1673ffffffffffffffffffffffffffffffffffffffff168152602001600282015481526020016003820160009054906101000a900473ffffffffffffffffffffffffffffffffffffffff1673ffffffffffffffffffffffffffffffffffffffff1673ffffffffffffffffffffffffffffffffffffffff1681526020016004820160009054906101000a900473ffffffffffffffffffffffffffffffffffffffff1673ffffffffffffffffffffffffffffffffffffffff1673ffffffffffffffffffffffffffffffffffffffff1681526020016005820160009054906101000a900473ffffffffffffffffffffffffffffffffffffffff1673ffffffffffffffffffffffffffffffffffffffff1673ffffffffffffffffffffffffffffffffffffffff168152602001600682015481526020016007820160009054906101000a900460ff161515151581526020016007820160019054906101000a900460ff161515151581526020016008820154815260200160098201548152505090508060400151816020015173ffffffffffffffffffffffffffffffffffffffff16847f0daeabafe0f48c4f86e54f5217cf23493d6337d7343aa68b8ea3ab5d180dfc0733338660a0015188600060018a61012001518b61014001516040516115b198979695949392919061402f565b60405180910390a45060016000819055505050565b60008273ffffffffffffffffffffffffffffffffffffffff16636352211e836040518263ffffffff1660e01b815260040161160191906141ef565b60206040518083038186803b15801561161957600080fd5b505afa15801561162d573d6000803e3d6000fd5b505050506040513d601f19601f8201168201806040525081019061165191906139e6565b905092915050565b6005602052816000526040600020602052806000526040600020600091509150508060000160009054906101000a900460ff16908060000160019054906101000a900473ffffffffffffffffffffffffffffffffffffffff16908060010160009054906101000a900473ffffffffffffffffffffffffffffffffffffffff16908060020154908060030154905085565b6002600054141561172f576040517f08c379a000000000000000000000000000000000000000000000000000000000815260040161172690614194565b60405180910390fd5b60026000819055506000821161177a576040517f08c379a0000000000000000000000000000000000000000000000000000000008152600401611771906141b4565b60405180910390fd5b61178460016137b7565b600061179060016137a9565b90506040518060a00160405280600060058111156117d7577f4e487b7100000000000000000000000000000000000000000000000000000000600052602160045260246000fd5b8152602001600073ffffffffffffffffffffffffffffffffffffffff1681526020013373ffffffffffffffffffffffffffffffffffffffff16815260200160008152602001428152506005600083815260200190815260200160002060006001815260200190815260200160002060008201518160000160006101000a81548160ff02191690836005811115611896577f4e487b7100000000000000000000000000000000000000000000000000000000600052602160045260246000fd5b021790555060208201518160000160016101000a81548173ffffffffffffffffffffffffffffffffffffffff021916908373ffffffffffffffffffffffffffffffffffffffff16021790555060408201518160010160006101000a81548173ffffffffffffffffffffffffffffffffffffffff021916908373ffffffffffffffffffffffffffffffffffffffff16021790555060608201518160020155608082015181600301559050506040518061016001604052808281526020018673ffffffffffffffffffffffffffffffffffffffff1681526020018581526020013373ffffffffffffffffffffffffffffffffffffffff1681526020013373ffffffffffffffffffffffffffffffffffffffff1681526020013373ffffffffffffffffffffffffffffffffffffffff1681526020018481526020016000151581526020016000151581526020018381526020016001815250600460008381526020019081526020016000206000820151816000015560208201518160010160006101000a81548173ffffffffffffffffffffffffffffffffffffffff021916908373ffffffffffffffffffffffffffffffffffffffff1602179055506040820151816002015560608201518160030160006101000a81548173ffffffffffffffffffffffffffffffffffffffff021916908373ffffffffffffffffffffffffffffffffffffffff16021790555060808201518160040160006101000a81548173ffffffffffffffffffffffffffffffffffffffff021916908373ffffffffffffffffffffffffffffffffffffffff16021790555060a08201518160050160006101000a81548173ffffffffffffffffffffffffffffffffffffffff021916908373ffffffffffffffffffffffffffffffffffffffff16021790555060c0820151816006015560e08201518160070160006101000a81548160ff0219169083151502179055506101008201518160070160016101000a81548160ff02191690831515021790555061012082015181600801556101408201518160090155905050838573ffffffffffffffffffffffffffffffffffffffff16827f1aa1e4870599a6e5a6de9a51776a6c7b45dfa68ab9d5c25eb3fcfbfabe1db1ce333333896000808b6001604051611bea989796959493929190613fb1565b60405180910390a450600160008190555050505050565b6000600360009054906101000a900473ffffffffffffffffffffffffffffffffffffffff16905090565b60026000541415611c71576040517f08c379a0000000000000000000000000000000000000000000000000000000008152600401611c6890614194565b60405180910390fd5b600260008190555060008111611cbc576040517f08c379a0000000000000000000000000000000000000000000000000000000008152600401611cb3906141b4565b60405180910390fd5b6000600460008481526020019081526020016000206002015490508373ffffffffffffffffffffffffffffffffffffffff166323b872dd3330846040518463ffffffff1660e01b8152600401611d14939291906140ad565b600060405180830381600087803b158015611d2e57600080fd5b505af1158015611d42573d6000803e3d6000fd5b5050505081600460008581526020019081526020016000206006018190555060006004600085815260200190815260200160002060070160006101000a81548160ff02191690831515021790555060016004600085815260200190815260200160002060070160016101000a81548160ff0219169083151502179055506040518060a0016040528060016005811115611e04577f4e487b7100000000000000000000000000000000000000000000000000000000600052602160045260246000fd5b81526020013373ffffffffffffffffffffffffffffffffffffffff1681526020013073ffffffffffffffffffffffffffffffffffffffff1681526020018381526020014281525060056000858152602001908152602001600020600060016004600088815260200190815260200160002060090154611e839190614355565b815260200190815260200160002060008201518160000160006101000a81548160ff02191690836005811115611ee2577f4e487b7100000000000000000000000000000000000000000000000000000000600052602160045260246000fd5b021790555060208201518160000160016101000a81548173ffffffffffffffffffffffffffffffffffffffff021916908373ffffffffffffffffffffffffffffffffffffffff16021790555060408201518160010160006101000a81548173ffffffffffffffffffffffffffffffffffffffff021916908373ffffffffffffffffffffffffffffffffffffffff160217905550606082015181600201556080820151816003015590505060016004600085815260200190815260200160002060090154611faf9190614355565b600460008581526020019081526020016000206009018190555060006004600085815260200190815260200160002060405180610160016040529081600082015481526020016001820160009054906101000a900473ffffffffffffffffffffffffffffffffffffffff1673ffffffffffffffffffffffffffffffffffffffff1673ffffffffffffffffffffffffffffffffffffffff168152602001600282015481526020016003820160009054906101000a900473ffffffffffffffffffffffffffffffffffffffff1673ffffffffffffffffffffffffffffffffffffffff1673ffffffffffffffffffffffffffffffffffffffff1681526020016004820160009054906101000a900473ffffffffffffffffffffffffffffffffffffffff1673ffffffffffffffffffffffffffffffffffffffff1673ffffffffffffffffffffffffffffffffffffffff1681526020016005820160009054906101000a900473ffffffffffffffffffffffffffffffffffffffff1673ffffffffffffffffffffffffffffffffffffffff1673ffffffffffffffffffffffffffffffffffffffff168152602001600682015481526020016007820160009054906101000a900460ff161515151581526020016007820160019054906101000a900460ff16151515158152602001600882015481526020016009820154815250509050818573ffffffffffffffffffffffffffffffffffffffff16857f435fff3117b2bf1439e14905e24357c5195352fae1906157f423aa8beb5ea92733338660a0015189600060018a61012001518b610140015160405161221298979695949392919061402f565b60405180910390a450506001600081905550505050565b6002600054141561226f576040517f08c379a000000000000000000000000000000000000000000000000000000000815260040161226690614194565b60405180910390fd5b6002600081905550600060046000838152602001908152602001600020600601549050600060046000848152602001908152602001600020600201549050813410156122f0576040517f08c379a00000000000000000000000000000000000000000000000000000000081526004016122e790614174565b60405180910390fd5b60006004600085815260200190815260200160002060080154905060006004600086815260200190815260200160002060030160009054906101000a900473ffffffffffffffffffffffffffffffffffffffff169050600360009054906101000a900473ffffffffffffffffffffffffffffffffffffffff1673ffffffffffffffffffffffffffffffffffffffff166108fc600260648761239191906143ab565b61239b91906143dc565b9081150290604051600060405180830381858888f193505050501580156123c6573d6000803e3d6000fd5b506004600086815260200190815260200160002060050160009054906101000a900473ffffffffffffffffffffffffffffffffffffffff1673ffffffffffffffffffffffffffffffffffffffff166108fc8360648761242591906143ab565b61242f91906143dc565b9081150290604051600060405180830381858888f1935050505015801561245a573d6000803e3d6000fd5b506004600086815260200190815260200160002060030160009054906101000a900473ffffffffffffffffffffffffffffffffffffffff1673ffffffffffffffffffffffffffffffffffffffff166108fc8360626124b89190614436565b6064876124c591906143ab565b6124cf91906143dc565b9081150290604051600060405180830381858888f193505050501580156124fa573d6000803e3d6000fd5b508573ffffffffffffffffffffffffffffffffffffffff166323b872dd3033866040518463ffffffff1660e01b8152600401612538939291906140ad565b600060405180830381600087803b15801561255257600080fd5b505af1158015612566573d6000803e3d6000fd5b50505050336004600087815260200190815260200160002060040160006101000a81548173ffffffffffffffffffffffffffffffffffffffff021916908373ffffffffffffffffffffffffffffffffffffffff160217905550336004600087815260200190815260200160002060030160006101000a81548173ffffffffffffffffffffffffffffffffffffffff021916908373ffffffffffffffffffffffffffffffffffffffff16021790555060016004600087815260200190815260200160002060070160006101000a81548160ff02191690831515021790555060006004600087815260200190815260200160002060070160016101000a81548160ff0219169083151502179055506040518060a00160405280600360058111156126b7577f4e487b7100000000000000000000000000000000000000000000000000000000600052602160045260246000fd5b81526020018273ffffffffffffffffffffffffffffffffffffffff1681526020013373ffffffffffffffffffffffffffffffffffffffff168152602001858152602001428152506005600087815260200190815260200160002060006001600460008a8152602001908152602001600020600901546127369190614355565b815260200190815260200160002060008201518160000160006101000a81548160ff02191690836005811115612795577f4e487b7100000000000000000000000000000000000000000000000000000000600052602160045260246000fd5b021790555060208201518160000160016101000a81548173ffffffffffffffffffffffffffffffffffffffff021916908373ffffffffffffffffffffffffffffffffffffffff16021790555060408201518160010160006101000a81548173ffffffffffffffffffffffffffffffffffffffff021916908373ffffffffffffffffffffffffffffffffffffffff1602179055506060820151816002015560808201518160030155905050600160046000878152602001908152602001600020600901546128629190614355565b600460008781526020019081526020016000206009018190555061288660026137b7565b60006004600087815260200190815260200160002060405180610160016040529081600082015481526020016001820160009054906101000a900473ffffffffffffffffffffffffffffffffffffffff1673ffffffffffffffffffffffffffffffffffffffff1673ffffffffffffffffffffffffffffffffffffffff168152602001600282015481526020016003820160009054906101000a900473ffffffffffffffffffffffffffffffffffffffff1673ffffffffffffffffffffffffffffffffffffffff1673ffffffffffffffffffffffffffffffffffffffff1681526020016004820160009054906101000a900473ffffffffffffffffffffffffffffffffffffffff1673ffffffffffffffffffffffffffffffffffffffff1673ffffffffffffffffffffffffffffffffffffffff1681526020016005820160009054906101000a900473ffffffffffffffffffffffffffffffffffffffff1673ffffffffffffffffffffffffffffffffffffffff1673ffffffffffffffffffffffffffffffffffffffff168152602001600682015481526020016007820160009054906101000a900460ff161515151581526020016007820160019054906101000a900460ff161515151581526020016008820154815260200160098201548152505090508060400151816020015173ffffffffffffffffffffffffffffffffffffffff16877f491ab333a9a6984a00a06a672bde7e0cd74f788f57368545d5dd4ee0de6b5f953333878760a001518c600160008b61012001518c6101400151604051612ad999989796959493929190613f24565b60405180910390a4505050505060016000819055505050565b60606000612b0060016137a9565b905060008060005b83811015612ba9578573ffffffffffffffffffffffffffffffffffffffff1660046000600184612b389190614355565b815260200190815260200160002060050160009054906101000a900473ffffffffffffffffffffffffffffffffffffffff1673ffffffffffffffffffffffffffffffffffffffff161415612b9657600183612b939190614355565b92505b8080612ba190614567565b915050612b08565b5060008267ffffffffffffffff811115612bec577f4e487b7100000000000000000000000000000000000000000000000000000000600052604160045260246000fd5b604051908082528060200260200182016040528015612c2557816020015b612c126137cd565b815260200190600190039081612c0a5790505b50905060005b83811015612f07578673ffffffffffffffffffffffffffffffffffffffff1660046000600184612c5b9190614355565b815260200190815260200160002060050160009054906101000a900473ffffffffffffffffffffffffffffffffffffffff1673ffffffffffffffffffffffffffffffffffffffff161415612ef4576000600182612cb89190614355565b905060006004600083815260200190815260200160002090508060405180610160016040529081600082015481526020016001820160009054906101000a900473ffffffffffffffffffffffffffffffffffffffff1673ffffffffffffffffffffffffffffffffffffffff1673ffffffffffffffffffffffffffffffffffffffff168152602001600282015481526020016003820160009054906101000a900473ffffffffffffffffffffffffffffffffffffffff1673ffffffffffffffffffffffffffffffffffffffff1673ffffffffffffffffffffffffffffffffffffffff1681526020016004820160009054906101000a900473ffffffffffffffffffffffffffffffffffffffff1673ffffffffffffffffffffffffffffffffffffffff1673ffffffffffffffffffffffffffffffffffffffff1681526020016005820160009054906101000a900473ffffffffffffffffffffffffffffffffffffffff1673ffffffffffffffffffffffffffffffffffffffff1673ffffffffffffffffffffffffffffffffffffffff168152602001600682015481526020016007820160009054906101000a900460ff161515151581526020016007820160019054906101000a900460ff1615151515815260200160088201548152602001600982015481525050848681518110612ed7577f4e487b7100000000000000000000000000000000000000000000000000000000600052603260045260246000fd5b6020026020010181905250600185612eef9190614355565b945050505b8080612eff90614567565b915050612c2b565b5080945050505050919050565b60026000541415612f5a576040517f08c379a0000000000000000000000000000000000000000000000000000000008152600401612f5190614194565b60405180910390fd5b60026000819055506000600460008481526020019081526020016000206002015490508373ffffffffffffffffffffffffffffffffffffffff166323b872dd3384846040518463ffffffff1660e01b8152600401612fba939291906140ad565b600060405180830381600087803b158015612fd457600080fd5b505af1158015612fe8573d6000803e3d6000fd5b50505050816004600085815260200190815260200160002060030160006101000a81548173ffffffffffffffffffffffffffffffffffffffff021916908373ffffffffffffffffffffffffffffffffffffffff160217905550816004600085815260200190815260200160002060040160006101000a81548173ffffffffffffffffffffffffffffffffffffffff021916908373ffffffffffffffffffffffffffffffffffffffff1602179055506040518060a00160405280600460058111156130db577f4e487b7100000000000000000000000000000000000000000000000000000000600052602160045260246000fd5b81526020013373ffffffffffffffffffffffffffffffffffffffff1681526020018373ffffffffffffffffffffffffffffffffffffffff16815260200160008152602001428152506005600085815260200190815260200160002060006001600460008881526020019081526020016000206009015461315b9190614355565b815260200190815260200160002060008201518160000160006101000a81548160ff021916908360058111156131ba577f4e487b7100000000000000000000000000000000000000000000000000000000600052602160045260246000fd5b021790555060208201518160000160016101000a81548173ffffffffffffffffffffffffffffffffffffffff021916908373ffffffffffffffffffffffffffffffffffffffff16021790555060408201518160010160006101000a81548173ffffffffffffffffffffffffffffffffffffffff021916908373ffffffffffffffffffffffffffffffffffffffff1602179055506060820151816002015560808201518160030155905050600160046000858152602001908152602001600020600901546132879190614355565b600460008581526020019081526020016000206009018190555060006004600085815260200190815260200160002060405180610160016040529081600082015481526020016001820160009054906101000a900473ffffffffffffffffffffffffffffffffffffffff1673ffffffffffffffffffffffffffffffffffffffff1673ffffffffffffffffffffffffffffffffffffffff168152602001600282015481526020016003820160009054906101000a900473ffffffffffffffffffffffffffffffffffffffff1673ffffffffffffffffffffffffffffffffffffffff1673ffffffffffffffffffffffffffffffffffffffff1681526020016004820160009054906101000a900473ffffffffffffffffffffffffffffffffffffffff1673ffffffffffffffffffffffffffffffffffffffff1673ffffffffffffffffffffffffffffffffffffffff1681526020016005820160009054906101000a900473ffffffffffffffffffffffffffffffffffffffff1673ffffffffffffffffffffffffffffffffffffffff1673ffffffffffffffffffffffffffffffffffffffff168152602001600682015481526020016007820160009054906101000a900460ff161515151581526020016007820160019054906101000a900460ff161515151581526020016008820154815260200160098201548152505090508060400151816020015173ffffffffffffffffffffffffffffffffffffffff16857f262e91aedd4dd4b83a8d01abd9227b9465ffa9e4230cfe4286b8b98137c3a29c8687338760a001518860c00151600160008b61012001518c61014001516040516134f899989796959493929190613f24565b60405180910390a450506001600081905550505050565b60046020528060005260406000206000915090508060000154908060010160009054906101000a900473ffffffffffffffffffffffffffffffffffffffff16908060020154908060030160009054906101000a900473ffffffffffffffffffffffffffffffffffffffff16908060040160009054906101000a900473ffffffffffffffffffffffffffffffffffffffff16908060050160009054906101000a900473ffffffffffffffffffffffffffffffffffffffff16908060060154908060070160009054906101000a900460ff16908060070160019054906101000a900460ff1690806008015490806009015490508b565b600060046000838152602001908152602001600020600601549050919050565b61362b613883565b6005600084815260200190815260200160002060008381526020019081526020016000206040518060a00160405290816000820160009054906101000a900460ff1660058111156136a5577f4e487b7100000000000000000000000000000000000000000000000000000000600052602160045260246000fd5b60058111156136dd577f4e487b7100000000000000000000000000000000000000000000000000000000600052602160045260246000fd5b81526020016000820160019054906101000a900473ffffffffffffffffffffffffffffffffffffffff1673ffffffffffffffffffffffffffffffffffffffff1673ffffffffffffffffffffffffffffffffffffffff1681526020016001820160009054906101000a900473ffffffffffffffffffffffffffffffffffffffff1673ffffffffffffffffffffffffffffffffffffffff1673ffffffffffffffffffffffffffffffffffffffff16815260200160028201548152602001600382015481525050905092915050565b600081600001549050919050565b6001816000016000828254019250508190555050565b60405180610160016040528060008152602001600073ffffffffffffffffffffffffffffffffffffffff16815260200160008152602001600073ffffffffffffffffffffffffffffffffffffffff168152602001600073ffffffffffffffffffffffffffffffffffffffff168152602001600073ffffffffffffffffffffffffffffffffffffffff1681526020016000815260200160001515815260200160001515815260200160008152602001600081525090565b6040518060a00160405280600060058111156138c8577f4e487b7100000000000000000000000000000000000000000000000000000000600052602160045260246000fd5b8152602001600073ffffffffffffffffffffffffffffffffffffffff168152602001600073ffffffffffffffffffffffffffffffffffffffff16815260200160008152602001600081525090565b6000613929613924846142da565b6142b5565b90508281526020810184848401111561394157600080fd5b61394c848285614527565b509392505050565b60008135905061396381614732565b92915050565b60008151905061397881614732565b92915050565b600082601f83011261398f57600080fd5b813561399f848260208601613916565b91505092915050565b6000813590506139b781614749565b92915050565b6000602082840312156139cf57600080fd5b60006139dd84828501613954565b91505092915050565b6000602082840312156139f857600080fd5b6000613a0684828501613969565b91505092915050565b60008060008060808587031215613a2557600080fd5b6000613a3387828801613954565b9450506020613a4487828801613954565b9350506040613a55878288016139a8565b925050606085013567ffffffffffffffff811115613a7257600080fd5b613a7e8782880161397e565b91505092959194509250565b60008060408385031215613a9d57600080fd5b6000613aab85828601613954565b9250506020613abc858286016139a8565b9150509250929050565b600080600060608486031215613adb57600080fd5b6000613ae986828701613954565b9350506020613afa868287016139a8565b9250506040613b0b86828701613954565b9150509250925092565b600080600060608486031215613b2a57600080fd5b6000613b3886828701613954565b9350506020613b49868287016139a8565b9250506040613b5a868287016139a8565b9150509250925092565b60008060008060808587031215613b7a57600080fd5b6000613b8887828801613954565b9450506020613b99878288016139a8565b9350506040613baa878288016139a8565b9250506060613bbb878288016139a8565b91505092959194509250565b600060208284031215613bd957600080fd5b6000613be7848285016139a8565b91505092915050565b60008060408385031215613c0357600080fd5b6000613c11858286016139a8565b9250506020613c22858286016139a8565b9150509250929050565b6000613c388383613e0a565b6101608301905092915050565b613c4e8161447c565b82525050565b613c5d8161447c565b82525050565b613c6c8161446a565b82525050565b613c7b8161446a565b82525050565b6000613c8c8261431b565b613c968185614333565b9350613ca18361430b565b8060005b83811015613cd2578151613cb98882613c2c565b9750613cc483614326565b925050600181019050613ca5565b5085935050505092915050565b613ce88161448e565b82525050565b613cf78161448e565b82525050565b613d068161449a565b82525050565b613d1581614503565b82525050565b613d2481614503565b82525050565b613d3381614515565b82525050565b6000613d46604083614344565b9150613d518261467d565b604082019050919050565b6000613d69601f83614344565b9150613d74826146cc565b602082019050919050565b6000613d8c601c83614344565b9150613d97826146f5565b602082019050919050565b60a082016000820151613db86000850182613d0c565b506020820151613dcb6020850182613c63565b506040820151613dde6040850182613c63565b506060820151613df16060850182613eeb565b506080820151613e046080850182613eeb565b50505050565b61016082016000820151613e216000850182613eeb565b506020820151613e346020850182613c63565b506040820151613e476040850182613eeb565b506060820151613e5a6060850182613c45565b506080820151613e6d6080850182613c45565b5060a0820151613e8060a0850182613c63565b5060c0820151613e9360c0850182613eeb565b5060e0820151613ea660e0850182613cdf565b50610100820151613ebb610100850182613cdf565b50610120820151613ed0610120850182613eeb565b50610140820151613ee5610140850182613eeb565b50505050565b613ef4816144f9565b82525050565b613f03816144f9565b82525050565b6000602082019050613f1e6000830184613c72565b92915050565b600061012082019050613f3a600083018c613c72565b613f47602083018b613c72565b613f54604083018a613c72565b613f616060830189613c72565b613f6e6080830188613efa565b613f7b60a0830187613cee565b613f8860c0830186613cee565b613f9560e0830185613efa565b613fa3610100830184613efa565b9a9950505050505050505050565b600061010082019050613fc7600083018b613c72565b613fd4602083018a613c72565b613fe16040830189613c72565b613fee6060830188613efa565b613ffb6080830187613cee565b61400860a0830186613cee565b61401560c0830185613efa565b61402260e0830184613d2a565b9998505050505050505050565b600061010082019050614045600083018b613c72565b614052602083018a613c72565b61405f6040830189613c72565b61406c6060830188613efa565b6140796080830187613cee565b61408660a0830186613cee565b61409360c0830185613efa565b6140a060e0830184613efa565b9998505050505050505050565b60006060820190506140c26000830186613c72565b6140cf6020830185613c72565b6140dc6040830184613efa565b949350505050565b600060208201905081810360008301526140fe8184613c81565b905092915050565b600060208201905061411b6000830184613cfd565b92915050565b600060a0820190506141366000830188613d1b565b6141436020830187613c72565b6141506040830186613c72565b61415d6060830185613efa565b61416a6080830184613efa565b9695505050505050565b6000602082019050818103600083015261418d81613d39565b9050919050565b600060208201905081810360008301526141ad81613d5c565b9050919050565b600060208201905081810360008301526141cd81613d7f565b9050919050565b600060a0820190506141e96000830184613da2565b92915050565b60006020820190506142046000830184613efa565b92915050565b600061016082019050614220600083018e613efa565b61422d602083018d613c72565b61423a604083018c613efa565b614247606083018b613c54565b614254608083018a613c54565b61426160a0830189613c72565b61426e60c0830188613efa565b61427b60e0830187613cee565b614289610100830186613cee565b614297610120830185613efa565b6142a5610140830184613efa565b9c9b505050505050505050505050565b60006142bf6142d0565b90506142cb8282614536565b919050565b6000604051905090565b600067ffffffffffffffff8211156142f5576142f461463d565b5b6142fe8261466c565b9050602081019050919050565b6000819050602082019050919050565b600081519050919050565b6000602082019050919050565b600082825260208201905092915050565b600082825260208201905092915050565b6000614360826144f9565b915061436b836144f9565b9250827fffffffffffffffffffffffffffffffffffffffffffffffffffffffffffffffff038211156143a05761439f6145b0565b5b828201905092915050565b60006143b6826144f9565b91506143c1836144f9565b9250826143d1576143d06145df565b5b828204905092915050565b60006143e7826144f9565b91506143f2836144f9565b9250817fffffffffffffffffffffffffffffffffffffffffffffffffffffffffffffffff048311821515161561442b5761442a6145b0565b5b828202905092915050565b6000614441826144f9565b915061444c836144f9565b92508282101561445f5761445e6145b0565b5b828203905092915050565b6000614475826144d9565b9050919050565b6000614487826144d9565b9050919050565b60008115159050919050565b60007fffffffff0000000000000000000000000000000000000000000000000000000082169050919050565b60008190506144d48261471e565b919050565b600073ffffffffffffffffffffffffffffffffffffffff82169050919050565b6000819050919050565b600061450e826144c6565b9050919050565b6000614520826144f9565b9050919050565b82818337600083830152505050565b61453f8261466c565b810181811067ffffffffffffffff8211171561455e5761455d61463d565b5b80604052505050565b6000614572826144f9565b91507fffffffffffffffffffffffffffffffffffffffffffffffffffffffffffffffff8214156145a5576145a46145b0565b5b600182019050919050565b7f4e487b7100000000000000000000000000000000000000000000000000000000600052601160045260246000fd5b7f4e487b7100000000000000000000000000000000000000000000000000000000600052601260045260246000fd5b7f4e487b7100000000000000000000000000000000000000000000000000000000600052602160045260246000fd5b7f4e487b7100000000000000000000000000000000000000000000000000000000600052604160045260246000fd5b6000601f19601f8301169050919050565b7f506c65617365207375626d6974207468652061736b696e67207072696365206960008201527f6e206f7264657220746f20636f6d706c65746520746865207075726368617365602082015250565b7f5265656e7472616e637947756172643a207265656e7472616e742063616c6c00600082015250565b7f5072696365206d757374206265206174206c6561737420312077656900000000600082015250565b6006811061472f5761472e61460e565b5b50565b61473b8161446a565b811461474657600080fd5b50565b614752816144f9565b811461475d57600080fd5b5056fea2646970667358221220585fa05e5c3f3a4956fb62b174d55591b1d8e26b6253fd88f94c82d49e6dbc3464736f6c63430008030033",
  "immutableReferences": {},
  "source": "// SPDX-License-Identifier: MIT OR Apache-2.0\r\npragma solidity ^0.8.3;\r\n\r\nlibrary SafeMath {\r\n\r\n  /**\r\n  * Multiplies two numbers\r\n  */\r\n  function mul(uint256 a, uint256 b) internal pure returns (uint256 c) {\r\n    if (a == 0) {\r\n      return 0;\r\n    }\r\n    c = a * b;\r\n    assert(c / a == b);\r\n    return c;\r\n  }\r\n\r\n  /**\r\n  * Integer division of two numbers. Rounds down to nearest integer.\r\n  */\r\n  function div(uint256 a, uint256 b) internal pure returns (uint256) {\r\n    return a / b;\r\n  }\r\n\r\n  /**\r\n  * Subtracts two numbers.\r\n  */\r\n  function sub(uint256 a, uint256 b) internal pure returns (uint256) {\r\n    assert(b <= a);\r\n    return a - b;\r\n  }\r\n\r\n  /**\r\n  * Adds two numbers.\r\n  */\r\n  function add(uint256 a, uint256 b) internal pure returns (uint256 c) {\r\n    c = a + b;\r\n    assert(c >= a);\r\n    return c;\r\n  }\r\n}\r\n\r\nimport \"@openzeppelin/contracts/utils/Counters.sol\";\r\nimport \"@openzeppelin/contracts/security/ReentrancyGuard.sol\";\r\nimport \"@openzeppelin/contracts/token/ERC721/ERC721.sol\";\r\nimport \"@openzeppelin/contracts/token/ERC721/IERC721Receiver.sol\";\r\n\r\nimport \"./NFT.sol\";\r\n\r\nimport \"hardhat/console.sol\";\r\n\r\ncontract NFTMarket is ReentrancyGuard, IERC721Receiver {\r\n  using Counters for Counters.Counter;\r\n  Counters.Counter private _itemIds;\r\n  Counters.Counter private _itemsSold;\r\n\r\n  address payable owner;\r\n\r\n  constructor() {\r\n    owner = payable(msg.sender);\r\n  }\r\n\r\n  function getOwner() public view returns(address) {\r\n    return owner;\r\n  }\r\n\r\n  enum EventType {\r\n    Minted,\r\n    Listed,\r\n    Withdrawn,\r\n    Sale,\r\n    Transfer,\r\n    Edit\r\n  }\r\n\r\n  struct MarketItem {\r\n    uint itemId;\r\n    address nftContract;\r\n    uint256 tokenId;\r\n    address payable seller;\r\n    address payable owner;\r\n    address creator;\r\n    uint256 price;\r\n    bool sold;\r\n    bool isListed;\r\n    uint256 royalty;\r\n    uint256 eventCount;\r\n  }\r\n\r\n  struct Event {\r\n    EventType eventType;\r\n    address from;\r\n    address to;\r\n    uint256 price;\r\n    uint256 timestamp;\r\n  }\r\n\r\n  mapping(uint256 => MarketItem) public idToMarketItem;\r\n\r\n  mapping(uint256 => mapping(uint256 => Event)) public eventHistory;\r\n\r\n  event MarketItemCreated (\r\n    uint indexed itemId,\r\n    address indexed nftContract,\r\n    uint256 indexed tokenId,\r\n    address seller,\r\n    address owner,\r\n    address creator,\r\n    uint256 price,\r\n    bool sold,\r\n    bool isListed,\r\n    uint256 royalty,\r\n    uint256 eventCount\r\n  );\r\n\r\n  event MarketItemListed (\r\n    uint indexed itemId,\r\n    address indexed nftContract,\r\n    uint256 indexed tokenId,\r\n    address seller,\r\n    address owner,\r\n    address creator,\r\n    uint256 price,\r\n    bool sold,\r\n    bool isListed,\r\n    uint256 royalty,\r\n    uint256 eventCount\r\n  );\r\n\r\n  event MarketItemWithdrawn (\r\n    uint indexed itemId,\r\n    address indexed nftContract,\r\n    uint256 indexed tokenId,\r\n    address seller,\r\n    address owner,\r\n    address creator,\r\n    uint256 price,\r\n    bool sold,\r\n    bool isListed,\r\n    uint256 royalty,\r\n    uint256 eventCount\r\n  );\r\n\r\n  event MarketItemUpdated (\r\n    uint indexed itemId,\r\n    address indexed nftContract,\r\n    uint256 indexed tokenId,\r\n    address seller,\r\n    address owner,\r\n    address creator,\r\n    uint256 price,\r\n    bool sold,\r\n    bool isListed,\r\n    uint256 royalty,\r\n    uint256 eventCount\r\n  );\r\n\r\n  event MarketItemSold (\r\n    uint indexed itemId,\r\n    address indexed nftContract,\r\n    uint256 indexed tokenId,\r\n    address seller,\r\n    address owner,\r\n    address prevOwner,\r\n    address creator,\r\n    uint256 price,\r\n    bool sold,\r\n    bool isListed,\r\n    uint256 royalty,\r\n    uint256 eventCount\r\n  );\r\n\r\n  event MarketItemTransferred (\r\n    uint indexed itemId,\r\n    address indexed nftContract,\r\n    uint256 indexed tokenId,\r\n    address seller,\r\n    address owner,\r\n    address prevOwner,\r\n    address creator,\r\n    uint256 price,\r\n    bool sold,\r\n    bool isListed,\r\n    uint256 royalty,\r\n    uint256 eventCount\r\n  );\r\n\r\n  function getPrice(uint256 _tokenId) public view returns(uint256){\r\n    return idToMarketItem[_tokenId].price;\r\n  }\r\n\r\n  function getEventHistory(uint256 itemId, uint256 eventId) public view returns(Event memory) {\r\n    return eventHistory[itemId][eventId];\r\n  }\r\n  \r\n  function createMarketItem(\r\n    address nftContract,\r\n    uint256 tokenId,\r\n    uint256 price,\r\n    uint256 royalty\r\n  ) public payable nonReentrant {\r\n    require(price > 0, \"Price must be at least 1 wei\");\r\n\r\n    _itemIds.increment();\r\n    uint256 itemId = _itemIds.current();\r\n\r\n    eventHistory[itemId][1] = Event(\r\n      EventType.Minted,\r\n      address(0),\r\n      msg.sender,\r\n      0,\r\n      block.timestamp\r\n    );\r\n  \r\n    idToMarketItem[itemId] =  MarketItem(\r\n      itemId,\r\n      nftContract,\r\n      tokenId,\r\n      payable(msg.sender),\r\n      payable(msg.sender),\r\n      msg.sender,\r\n      price,\r\n      false,\r\n      false,\r\n      royalty,\r\n      1\r\n    );\r\n\r\n    emit MarketItemCreated(\r\n      itemId,\r\n      nftContract,\r\n      tokenId,\r\n      msg.sender,\r\n      msg.sender,\r\n      msg.sender,\r\n      price,\r\n      false,\r\n      false,\r\n      royalty,\r\n      1\r\n    );\r\n  }\r\n\r\n  function getOwnerOfToken(address nftContract, uint256 tokenId) public view returns (address) {\r\n    return IERC721(nftContract).ownerOf(tokenId);\r\n  }\r\n\r\n  function listItem(\r\n    address nftContract,\r\n    uint256 itemId,\r\n    uint256 price\r\n  ) public payable nonReentrant {\r\n    require(price > 0, \"Price must be at least 1 wei\");\r\n\r\n    uint256 tokenId = idToMarketItem[itemId].tokenId;\r\n\r\n    IERC721(nftContract).transferFrom(msg.sender, address(this), tokenId);\r\n    idToMarketItem[itemId].price = price;\r\n    idToMarketItem[itemId].sold = false;\r\n    idToMarketItem[itemId].isListed = true;\r\n    eventHistory[itemId][idToMarketItem[itemId].eventCount + 1] = Event(\r\n      EventType.Listed,\r\n      msg.sender,\r\n      address(this),\r\n      price,\r\n      block.timestamp\r\n    );\r\n    idToMarketItem[itemId].eventCount = idToMarketItem[itemId].eventCount + 1;\r\n    MarketItem memory item = idToMarketItem[itemId];\r\n    emit MarketItemListed(\r\n      itemId, \r\n      nftContract, \r\n      tokenId, \r\n      msg.sender, \r\n      msg.sender, \r\n      item.creator, \r\n      price, \r\n      false, \r\n      true, \r\n      item.royalty, \r\n      item.eventCount\r\n    );\r\n  }\r\n\r\n  function editListing(\r\n    uint256 itemId,\r\n    uint256 price\r\n  ) public payable nonReentrant {\r\n    require(price > 0, \"Price must be at least 1 wei\");\r\n\r\n    idToMarketItem[itemId].price = price;\r\n    eventHistory[itemId][idToMarketItem[itemId].eventCount + 1] = Event(\r\n      EventType.Edit,\r\n      msg.sender,\r\n      address(this),\r\n      price,\r\n      block.timestamp\r\n    );\r\n    idToMarketItem[itemId].eventCount = idToMarketItem[itemId].eventCount + 1;\r\n    MarketItem memory item = idToMarketItem[itemId];\r\n    emit MarketItemUpdated(\r\n      itemId, \r\n      item.nftContract, \r\n      item.tokenId, \r\n      msg.sender, \r\n      msg.sender, \r\n      item.creator, \r\n      price, \r\n      false, \r\n      true, \r\n      item.royalty, \r\n      item.eventCount\r\n    );\r\n  }\r\n\r\n  function withdrawListing(address nftContract, uint256 itemId) public nonReentrant {\r\n    uint256 tokenId = idToMarketItem[itemId].tokenId;\r\n    IERC721(nftContract).transferFrom(address(this), msg.sender, tokenId);\r\n    idToMarketItem[itemId].isListed = false;\r\n    eventHistory[itemId][idToMarketItem[itemId].eventCount + 1] = Event(\r\n      EventType.Withdrawn,\r\n      address(this),\r\n      msg.sender,\r\n      0,\r\n      block.timestamp\r\n    );\r\n    idToMarketItem[itemId].eventCount = idToMarketItem[itemId].eventCount + 1;\r\n    MarketItem memory item = idToMarketItem[itemId];\r\n    emit MarketItemWithdrawn(\r\n      itemId, \r\n      item.nftContract, \r\n      item.tokenId, \r\n      msg.sender, \r\n      msg.sender, \r\n      item.creator, \r\n      item.price, \r\n      false, \r\n      false, \r\n      item.royalty, \r\n      item.eventCount\r\n    );\r\n  }\r\n\r\n  function transferNFT(address nftContract, uint256 itemId, address receiver) public payable nonReentrant {\r\n    uint256 tokenId = idToMarketItem[itemId].tokenId;\r\n    IERC721(nftContract).transferFrom(msg.sender, receiver, tokenId);\r\n    idToMarketItem[itemId].seller = payable(receiver);\r\n    idToMarketItem[itemId].owner = payable(receiver);\r\n    eventHistory[itemId][idToMarketItem[itemId].eventCount + 1] = Event(\r\n      EventType.Transfer,\r\n      msg.sender,\r\n      receiver,\r\n      0,\r\n      block.timestamp\r\n    );\r\n    idToMarketItem[itemId].eventCount = idToMarketItem[itemId].eventCount + 1;\r\n    MarketItem memory item = idToMarketItem[itemId];\r\n    emit MarketItemTransferred(\r\n      itemId, \r\n      item.nftContract, \r\n      item.tokenId, \r\n      receiver, \r\n      receiver, \r\n      msg.sender,\r\n      item.creator, \r\n      item.price, \r\n      true, \r\n      false, \r\n      item.royalty, \r\n      item.eventCount\r\n    );\r\n  }\r\n\r\n  function onERC721Received(address, address, uint256, bytes memory) public virtual override returns (bytes4) {\r\n        return this.onERC721Received.selector;\r\n  }\r\n\r\n  function createMarketSale(\r\n    address nftContract,\r\n    uint256 itemId\r\n    ) public payable nonReentrant {\r\n    uint price = idToMarketItem[itemId].price;\r\n    uint tokenId = idToMarketItem[itemId].tokenId;\r\n    require(msg.value >= price, \"Please submit the asking price in order to complete the purchase\");\r\n    uint royalty = idToMarketItem[itemId].royalty;\r\n    address prevOwner = idToMarketItem[itemId].seller;\r\n    payable(owner).transfer((price / 100) * 2);\r\n    payable(idToMarketItem[itemId].creator).transfer((price / 100) * royalty);\r\n    idToMarketItem[itemId].seller.transfer((price / 100) * (98 - royalty));\r\n    IERC721(nftContract).transferFrom(address(this), msg.sender, tokenId);\r\n    idToMarketItem[itemId].owner = payable(msg.sender);\r\n    idToMarketItem[itemId].seller = payable(msg.sender);\r\n    idToMarketItem[itemId].sold = true;\r\n    idToMarketItem[itemId].isListed = false;\r\n    eventHistory[itemId][idToMarketItem[itemId].eventCount + 1] = Event(\r\n      EventType.Sale,\r\n      prevOwner,\r\n      msg.sender,\r\n      price,\r\n      block.timestamp\r\n    );\r\n    idToMarketItem[itemId].eventCount = idToMarketItem[itemId].eventCount + 1;\r\n    _itemsSold.increment();\r\n    MarketItem memory item = idToMarketItem[itemId];\r\n    emit MarketItemSold(\r\n      itemId, \r\n      item.nftContract, \r\n      item.tokenId, \r\n      msg.sender, \r\n      msg.sender, \r\n      prevOwner,\r\n      item.creator, \r\n      price, \r\n      true, \r\n      false, \r\n      item.royalty, \r\n      item.eventCount\r\n    );\r\n  }\r\n\r\n  function fetchMarketItems() public view returns (MarketItem[] memory) {\r\n    uint itemCount = _itemIds.current();\r\n    uint currentIndex = 0;\r\n\r\n    MarketItem[] memory items = new MarketItem[](itemCount);\r\n    for (uint i = 0; i < itemCount; i++) {\r\n        uint currentId = i + 1;\r\n        MarketItem storage currentItem = idToMarketItem[currentId];\r\n        items[currentIndex] = currentItem;\r\n        currentIndex += 1;\r\n    }\r\n    return items;\r\n  }\r\n\r\n  function fetchMyNFTs(address user) public view returns (MarketItem[] memory) {\r\n    uint totalItemCount = _itemIds.current();\r\n    uint itemCount = 0;\r\n    uint currentIndex = 0;\r\n\r\n    for (uint i = 0; i < totalItemCount; i++) {\r\n      if (idToMarketItem[i + 1].owner == user) {\r\n        itemCount += 1;\r\n      }\r\n    }\r\n\r\n    MarketItem[] memory items = new MarketItem[](itemCount);\r\n    for (uint i = 0; i < totalItemCount; i++) {\r\n      if (idToMarketItem[i + 1].owner == user) {\r\n        uint currentId = i + 1;\r\n        MarketItem storage currentItem = idToMarketItem[currentId];\r\n        items[currentIndex] = currentItem;\r\n        currentIndex += 1;\r\n      }\r\n    }\r\n    return items;\r\n  }\r\n\r\n  function fetchItemsCreated(address user) public view returns (MarketItem[] memory) {\r\n    uint totalItemCount = _itemIds.current();\r\n    uint itemCount = 0;\r\n    uint currentIndex = 0;\r\n\r\n    for(uint i = 0; i < totalItemCount; i++) {\r\n      if(idToMarketItem[i + 1].creator == user) {\r\n        itemCount += 1;\r\n      }\r\n    }\r\n\r\n    MarketItem[] memory items = new MarketItem[](itemCount);\r\n    for (uint i = 0; i < itemCount; i++) {\r\n      if(idToMarketItem[i + 1].creator == user) {\r\n        uint currentId = i + 1;\r\n        MarketItem storage currentItem = idToMarketItem[currentId];\r\n        items[currentIndex] = currentItem;\r\n        currentIndex += 1;\r\n      }\r\n    }\r\n    return items;\r\n  }\r\n}",
  "sourcePath": "C:\\Users\\priya\\xdsea-Live\\contracts\\NFTMarket.sol",
  "compiler": {
    "name": "solc",
    "version": "0.8.3+commit.8d00100c.Emscripten.clang"
  },
  "schemaVersion": "3.4.4",
  "updatedAt": "2022-03-26T14:07:42.123Z",
  "devdoc": {
    "kind": "dev",
    "methods": {},
    "version": 1
  },
  "userdoc": {
    "kind": "user",
    "methods": {},
    "version": 1
  }
}