{
  "contractName": "NFTMarketCollections",
  "abi": [
    {
      "inputs": [
        {
          "internalType": "string",
          "name": "collectionName",
          "type": "string"
        }
      ],
      "name": "_getCollectionCount",
      "outputs": [
        {
          "internalType": "uint256",
          "name": "",
          "type": "uint256"
        }
      ],
      "stateMutability": "view",
      "type": "function"
    },
    {
      "inputs": [
        {
          "internalType": "string",
          "name": "collectionName",
          "type": "string"
        }
      ],
      "name": "_getCollectionCreator",
      "outputs": [
        {
          "internalType": "address",
          "name": "",
          "type": "address"
        }
      ],
      "stateMutability": "view",
      "type": "function"
    },
    {
      "inputs": [
        {
          "internalType": "string",
          "name": "collectionName",
          "type": "string"
        },
        {
          "internalType": "uint256",
          "name": "collectionId",
          "type": "uint256"
        }
      ],
      "name": "_getCollectionNFT",
      "outputs": [
        {
          "internalType": "uint256",
          "name": "",
          "type": "uint256"
        }
      ],
      "stateMutability": "view",
      "type": "function"
    },
    {
      "inputs": [
        {
          "internalType": "uint256",
          "name": "collectionId",
          "type": "uint256"
        }
      ],
      "name": "_getCollectionName",
      "outputs": [
        {
          "internalType": "string",
          "name": "",
          "type": "string"
        }
      ],
      "stateMutability": "view",
      "type": "function"
    },
    {
      "inputs": [
        {
          "internalType": "string",
          "name": "collectionName",
          "type": "string"
        },
        {
          "internalType": "address",
          "name": "creator",
          "type": "address"
        },
        {
          "internalType": "uint256",
          "name": "collectionCount",
          "type": "uint256"
        }
      ],
      "name": "_addCollection",
      "outputs": [],
      "stateMutability": "nonpayable",
      "type": "function"
    },
    {
      "inputs": [
        {
          "internalType": "string",
          "name": "collectionName",
          "type": "string"
        },
        {
          "internalType": "uint256",
          "name": "nftId",
          "type": "uint256"
        },
        {
          "internalType": "uint256",
          "name": "tokenId",
          "type": "uint256"
        }
      ],
      "name": "_addNFTToCollection",
      "outputs": [],
      "stateMutability": "nonpayable",
      "type": "function"
    },
    {
      "inputs": [
        {
          "internalType": "string",
          "name": "collectionName",
          "type": "string"
        }
      ],
      "name": "_incrementCollectionCount",
      "outputs": [],
      "stateMutability": "nonpayable",
      "type": "function"
    },
    {
      "inputs": [
        {
          "internalType": "string",
          "name": "collectionName",
          "type": "string"
        },
        {
          "internalType": "uint256",
          "name": "price",
          "type": "uint256"
        }
      ],
      "name": "_incrementCollectionVolumeTraded",
      "outputs": [],
      "stateMutability": "nonpayable",
      "type": "function"
    },
    {
      "inputs": [
        {
          "internalType": "string",
          "name": "collectionName",
          "type": "string"
        },
        {
          "internalType": "uint256",
          "name": "price",
          "type": "uint256"
        }
      ],
      "name": "_setVolumeTraded",
      "outputs": [],
      "stateMutability": "nonpayable",
      "type": "function"
    }
  ],
  "bytecode": "0x608060405234801561001057600080fd5b50610b5c806100206000396000f3fe608060405234801561001057600080fd5b50600436106100935760003560e01c806340d82e6c1161006657806340d82e6c1461011c5780635b33397f1461014c5780636cf5efc21461017c578063a7d5307a14610198578063b771362a146101b457610093565b8063128683ac1461009857806319b78291146100c85780631e54294a146100e45780632e92f4a514610100575b600080fd5b6100b260048036038101906100ad9190610623565b6101e4565b6040516100bf919061084e565b60405180910390f35b6100e260048036038101906100dd91906106cb565b61022e565b005b6100fe60048036038101906100f991906106cb565b61026a565b005b61011a60048036038101906101159190610664565b610294565b005b61013660048036038101906101319190610786565b610370565b6040516101439190610869565b60405180910390f35b610166600480360381019061016191906106cb565b610415565b604051610173919061088b565b60405180910390f35b61019660048036038101906101919190610623565b61044f565b005b6101b260048036038101906101ad919061071f565b61048b565b005b6101ce60048036038101906101c99190610623565b6104c4565b6040516101db919061088b565b60405180910390f35b600080826040516101f59190610837565b908152602001604051809103902060000160009054906101000a900473ffffffffffffffffffffffffffffffffffffffff169050919050565b8060008360405161023f9190610837565b9081526020016040518091039020600101600082825461025f9190610923565b925050819055505050565b8060008360405161027b9190610837565b9081526020016040518091039020600101819055505050565b60405180606001604052808373ffffffffffffffffffffffffffffffffffffffff1681526020016000815260200160018152506000846040516102d79190610837565b908152602001604051809103902060008201518160000160006101000a81548173ffffffffffffffffffffffffffffffffffffffff021916908373ffffffffffffffffffffffffffffffffffffffff16021790555060208201518160010155604082015181600201559050508260026000838152602001908152602001600020908051906020019061036a9291906104ee565b50505050565b6060600260008381526020019081526020016000208054610390906109f7565b80601f01602080910402602001604051908101604052809291908181526020018280546103bc906109f7565b80156104095780601f106103de57610100808354040283529160200191610409565b820191906000526020600020905b8154815290600101906020018083116103ec57829003601f168201915b50505050509050919050565b60006001836040516104279190610837565b9081526020016040518091039020600083815260200190815260200160002054905092915050565b60016000826040516104619190610837565b908152602001604051809103902060020160008282546104819190610923565b9250508190555050565b8060018460405161049c9190610837565b9081526020016040518091039020600084815260200190815260200160002081905550505050565b600080826040516104d59190610837565b9081526020016040518091039020600201549050919050565b8280546104fa906109f7565b90600052602060002090601f01602090048101928261051c5760008555610563565b82601f1061053557805160ff1916838001178555610563565b82800160010185558215610563579182015b82811115610562578251825591602001919060010190610547565b5b5090506105709190610574565b5090565b5b8082111561058d576000816000905550600101610575565b5090565b60006105a461059f846108cb565b6108a6565b9050828152602081018484840111156105bc57600080fd5b6105c78482856109b5565b509392505050565b6000813590506105de81610af8565b92915050565b600082601f8301126105f557600080fd5b8135610605848260208601610591565b91505092915050565b60008135905061061d81610b0f565b92915050565b60006020828403121561063557600080fd5b600082013567ffffffffffffffff81111561064f57600080fd5b61065b848285016105e4565b91505092915050565b60008060006060848603121561067957600080fd5b600084013567ffffffffffffffff81111561069357600080fd5b61069f868287016105e4565b93505060206106b0868287016105cf565b92505060406106c18682870161060e565b9150509250925092565b600080604083850312156106de57600080fd5b600083013567ffffffffffffffff8111156106f857600080fd5b610704858286016105e4565b92505060206107158582860161060e565b9150509250929050565b60008060006060848603121561073457600080fd5b600084013567ffffffffffffffff81111561074e57600080fd5b61075a868287016105e4565b935050602061076b8682870161060e565b925050604061077c8682870161060e565b9150509250925092565b60006020828403121561079857600080fd5b60006107a68482850161060e565b91505092915050565b6107b881610979565b82525050565b60006107c9826108fc565b6107d38185610907565b93506107e38185602086016109c4565b6107ec81610ae7565b840191505092915050565b6000610802826108fc565b61080c8185610918565b935061081c8185602086016109c4565b80840191505092915050565b610831816109ab565b82525050565b600061084382846107f7565b915081905092915050565b600060208201905061086360008301846107af565b92915050565b6000602082019050818103600083015261088381846107be565b905092915050565b60006020820190506108a06000830184610828565b92915050565b60006108b06108c1565b90506108bc8282610a29565b919050565b6000604051905090565b600067ffffffffffffffff8211156108e6576108e5610ab8565b5b6108ef82610ae7565b9050602081019050919050565b600081519050919050565b600082825260208201905092915050565b600081905092915050565b600061092e826109ab565b9150610939836109ab565b9250827fffffffffffffffffffffffffffffffffffffffffffffffffffffffffffffffff0382111561096e5761096d610a5a565b5b828201905092915050565b60006109848261098b565b9050919050565b600073ffffffffffffffffffffffffffffffffffffffff82169050919050565b6000819050919050565b82818337600083830152505050565b60005b838110156109e25780820151818401526020810190506109c7565b838111156109f1576000848401525b50505050565b60006002820490506001821680610a0f57607f821691505b60208210811415610a2357610a22610a89565b5b50919050565b610a3282610ae7565b810181811067ffffffffffffffff82111715610a5157610a50610ab8565b5b80604052505050565b7f4e487b7100000000000000000000000000000000000000000000000000000000600052601160045260246000fd5b7f4e487b7100000000000000000000000000000000000000000000000000000000600052602260045260246000fd5b7f4e487b7100000000000000000000000000000000000000000000000000000000600052604160045260246000fd5b6000601f19601f8301169050919050565b610b0181610979565b8114610b0c57600080fd5b50565b610b18816109ab565b8114610b2357600080fd5b5056fea2646970667358221220e29564dad6ac51ba041a036f52e22f83cfe82e480d32f8401bda51f02b21099964736f6c63430008030033",
  "immutableReferences": {},
  "source": "// SPDX-License-Identifier: MIT OR Apache-2.0\r\npragma solidity ^0.8.3;\r\n\r\ncontract NFTMarketCollections {\r\n    struct Collection {\r\n        address creator;\r\n        uint256 volumeTraded;\r\n        uint256 collectionCount;\r\n    }\r\n    \r\n    mapping(string => Collection) internal idToCollection;\r\n\r\n    mapping(string => mapping(uint256 => uint256)) internal collectionNFTs;\r\n\r\n    mapping(uint256 => string) internal collectionList;\r\n\r\n    function _getCollectionCount(string memory collectionName) external view returns (uint256) {\r\n        return idToCollection[collectionName].collectionCount;\r\n    }\r\n\r\n    function _getCollectionCreator(string memory collectionName) external view returns (address) {\r\n        return idToCollection[collectionName].creator;\r\n    }\r\n\r\n    function _getCollectionNFT(string memory collectionName, uint256 collectionId) external view returns (uint256) {\r\n        return collectionNFTs[collectionName][collectionId];\r\n    }\r\n\r\n    function _getCollectionName(uint256 collectionId) external view returns (string memory) {\r\n        return collectionList[collectionId];\r\n    }\r\n\r\n    function _addCollection(string memory collectionName, address creator, uint256 collectionCount) external {\r\n        idToCollection[collectionName] = Collection(\r\n            creator,\r\n            0,\r\n            1\r\n        );\r\n        collectionList[collectionCount] = collectionName;\r\n    }\r\n\r\n    function _addNFTToCollection(string memory collectionName, uint256 nftId, uint256 tokenId) external {\r\n        collectionNFTs[collectionName][nftId] = tokenId;\r\n    }\r\n\r\n    function _incrementCollectionCount(string memory collectionName) external {\r\n        idToCollection[collectionName].collectionCount += 1;\r\n    }\r\n\r\n    function _incrementCollectionVolumeTraded(string memory collectionName, uint256 price) external {\r\n        idToCollection[collectionName].volumeTraded += price;\r\n    }\r\n\r\n    function _setVolumeTraded(string memory collectionName, uint256 price) external {\r\n        idToCollection[collectionName].volumeTraded = price;\r\n    }\r\n}",
  "sourcePath": "C:\\Users\\priya\\xdsea-Live\\contracts\\NFTMarketCollections.sol",
  "compiler": {
    "name": "solc",
    "version": "0.8.3+commit.8d00100c.Emscripten.clang"
  },
  "schemaVersion": "3.4.4",
  "updatedAt": "2022-03-31T12:31:30.361Z",
  "devdoc": {
    "kind": "dev",
    "methods": {},
    "version": 1
  },
  "userdoc": {
    "kind": "user",
    "methods": {},
    "version": 1
  }
}