{
  "contractName": "NFTMarketEvents",
  "abi": [
    {
      "inputs": [
        {
          "internalType": "uint256",
          "name": "tokenId",
          "type": "uint256"
        },
        {
          "internalType": "uint256",
          "name": "eventId",
          "type": "uint256"
        }
      ],
      "name": "_getEvent",
      "outputs": [
        {
          "components": [
            {
              "internalType": "enum EventType",
              "name": "eventType",
              "type": "uint8"
            },
            {
              "internalType": "address",
              "name": "from",
              "type": "address"
            },
            {
              "internalType": "address",
              "name": "to",
              "type": "address"
            },
            {
              "internalType": "uint256",
              "name": "price",
              "type": "uint256"
            },
            {
              "internalType": "uint256",
              "name": "timestamp",
              "type": "uint256"
            }
          ],
          "internalType": "struct Event",
          "name": "",
          "type": "tuple"
        }
      ],
      "stateMutability": "view",
      "type": "function"
    },
    {
      "inputs": [
        {
          "internalType": "uint256",
          "name": "tokenId",
          "type": "uint256"
        },
        {
          "internalType": "uint256",
          "name": "eventId",
          "type": "uint256"
        },
        {
          "internalType": "address",
          "name": "from",
          "type": "address"
        },
        {
          "internalType": "address",
          "name": "to",
          "type": "address"
        },
        {
          "internalType": "uint256",
          "name": "price",
          "type": "uint256"
        },
        {
          "internalType": "uint256",
          "name": "timestamp",
          "type": "uint256"
        },
        {
          "internalType": "uint256",
          "name": "eventType",
          "type": "uint256"
        }
      ],
      "name": "_addEvent",
      "outputs": [],
      "stateMutability": "nonpayable",
      "type": "function"
    }
  ],
  "bytecode": "0x608060405234801561001057600080fd5b50611596806100206000396000f3fe608060405234801561001057600080fd5b50600436106100365760003560e01c806304833d981461003b57806323daaaa114610057575b600080fd5b61005560048036038101906100509190611340565b610087565b005b610071600480360381019061006c9190611304565b610181565b60405161007e9190611473565b60405180910390f35b60008114156100a05761009b878684610306565b610178565b60018114156100bc576100b78787878787876104b8565b610177565b60028114156100d7576100d2878787878661066a565b610176565b60038114156100f3576100ee87878787878761081c565b610175565b600481141561010e5761010987878787866109ce565b610174565b600581141561012a57610125878787878787610b80565b610173565b600681141561014657610141878787878787610d32565b610172565b60078114156101625761015d878787878787610ee4565b610171565b610170878787878787611096565b5b5b5b5b5b5b5b5b50505050505050565b610189611247565b60008084815260200190815260200160002060008381526020019081526020016000206040518060a00160405290816000820160009054906101000a900460ff166008811115610202577f4e487b7100000000000000000000000000000000000000000000000000000000600052602160045260246000fd5b600881111561023a577f4e487b7100000000000000000000000000000000000000000000000000000000600052602160045260246000fd5b81526020016000820160019054906101000a900473ffffffffffffffffffffffffffffffffffffffff1673ffffffffffffffffffffffffffffffffffffffff1673ffffffffffffffffffffffffffffffffffffffff1681526020016001820160009054906101000a900473ffffffffffffffffffffffffffffffffffffffff1673ffffffffffffffffffffffffffffffffffffffff1673ffffffffffffffffffffffffffffffffffffffff16815260200160028201548152602001600382015481525050905092915050565b6040518060a001604052806000600881111561034b577f4e487b7100000000000000000000000000000000000000000000000000000000600052602160045260246000fd5b8152602001600073ffffffffffffffffffffffffffffffffffffffff1681526020018373ffffffffffffffffffffffffffffffffffffffff168152602001600081526020018281525060008085815260200190815260200160002060006001815260200190815260200160002060008201518160000160006101000a81548160ff02191690836008811115610409577f4e487b7100000000000000000000000000000000000000000000000000000000600052602160045260246000fd5b021790555060208201518160000160016101000a81548173ffffffffffffffffffffffffffffffffffffffff021916908373ffffffffffffffffffffffffffffffffffffffff16021790555060408201518160010160006101000a81548173ffffffffffffffffffffffffffffffffffffffff021916908373ffffffffffffffffffffffffffffffffffffffff1602179055506060820151816002015560808201518160030155905050505050565b6040518060a00160405280600160088111156104fd577f4e487b7100000000000000000000000000000000000000000000000000000000600052602160045260246000fd5b81526020018573ffffffffffffffffffffffffffffffffffffffff1681526020018473ffffffffffffffffffffffffffffffffffffffff16815260200183815260200182815250600080888152602001908152602001600020600087815260200190815260200160002060008201518160000160006101000a81548160ff021916908360088111156105b8577f4e487b7100000000000000000000000000000000000000000000000000000000600052602160045260246000fd5b021790555060208201518160000160016101000a81548173ffffffffffffffffffffffffffffffffffffffff021916908373ffffffffffffffffffffffffffffffffffffffff16021790555060408201518160010160006101000a81548173ffffffffffffffffffffffffffffffffffffffff021916908373ffffffffffffffffffffffffffffffffffffffff1602179055506060820151816002015560808201518160030155905050505050505050565b6040518060a00160405280600260088111156106af577f4e487b7100000000000000000000000000000000000000000000000000000000600052602160045260246000fd5b81526020018473ffffffffffffffffffffffffffffffffffffffff1681526020018373ffffffffffffffffffffffffffffffffffffffff1681526020016000815260200182815250600080878152602001908152602001600020600086815260200190815260200160002060008201518160000160006101000a81548160ff0219169083600881111561076b577f4e487b7100000000000000000000000000000000000000000000000000000000600052602160045260246000fd5b021790555060208201518160000160016101000a81548173ffffffffffffffffffffffffffffffffffffffff021916908373ffffffffffffffffffffffffffffffffffffffff16021790555060408201518160010160006101000a81548173ffffffffffffffffffffffffffffffffffffffff021916908373ffffffffffffffffffffffffffffffffffffffff16021790555060608201518160020155608082015181600301559050505050505050565b6040518060a0016040528060036008811115610861577f4e487b7100000000000000000000000000000000000000000000000000000000600052602160045260246000fd5b81526020018573ffffffffffffffffffffffffffffffffffffffff1681526020018473ffffffffffffffffffffffffffffffffffffffff16815260200183815260200182815250600080888152602001908152602001600020600087815260200190815260200160002060008201518160000160006101000a81548160ff0219169083600881111561091c577f4e487b7100000000000000000000000000000000000000000000000000000000600052602160045260246000fd5b021790555060208201518160000160016101000a81548173ffffffffffffffffffffffffffffffffffffffff021916908373ffffffffffffffffffffffffffffffffffffffff16021790555060408201518160010160006101000a81548173ffffffffffffffffffffffffffffffffffffffff021916908373ffffffffffffffffffffffffffffffffffffffff1602179055506060820151816002015560808201518160030155905050505050505050565b6040518060a0016040528060046008811115610a13577f4e487b7100000000000000000000000000000000000000000000000000000000600052602160045260246000fd5b81526020018473ffffffffffffffffffffffffffffffffffffffff1681526020018373ffffffffffffffffffffffffffffffffffffffff1681526020016000815260200182815250600080878152602001908152602001600020600086815260200190815260200160002060008201518160000160006101000a81548160ff02191690836008811115610acf577f4e487b7100000000000000000000000000000000000000000000000000000000600052602160045260246000fd5b021790555060208201518160000160016101000a81548173ffffffffffffffffffffffffffffffffffffffff021916908373ffffffffffffffffffffffffffffffffffffffff16021790555060408201518160010160006101000a81548173ffffffffffffffffffffffffffffffffffffffff021916908373ffffffffffffffffffffffffffffffffffffffff16021790555060608201518160020155608082015181600301559050505050505050565b6040518060a0016040528060056008811115610bc5577f4e487b7100000000000000000000000000000000000000000000000000000000600052602160045260246000fd5b81526020018573ffffffffffffffffffffffffffffffffffffffff1681526020018473ffffffffffffffffffffffffffffffffffffffff16815260200183815260200182815250600080888152602001908152602001600020600087815260200190815260200160002060008201518160000160006101000a81548160ff02191690836008811115610c80577f4e487b7100000000000000000000000000000000000000000000000000000000600052602160045260246000fd5b021790555060208201518160000160016101000a81548173ffffffffffffffffffffffffffffffffffffffff021916908373ffffffffffffffffffffffffffffffffffffffff16021790555060408201518160010160006101000a81548173ffffffffffffffffffffffffffffffffffffffff021916908373ffffffffffffffffffffffffffffffffffffffff1602179055506060820151816002015560808201518160030155905050505050505050565b6040518060a0016040528060066008811115610d77577f4e487b7100000000000000000000000000000000000000000000000000000000600052602160045260246000fd5b81526020018573ffffffffffffffffffffffffffffffffffffffff1681526020018473ffffffffffffffffffffffffffffffffffffffff16815260200183815260200182815250600080888152602001908152602001600020600087815260200190815260200160002060008201518160000160006101000a81548160ff02191690836008811115610e32577f4e487b7100000000000000000000000000000000000000000000000000000000600052602160045260246000fd5b021790555060208201518160000160016101000a81548173ffffffffffffffffffffffffffffffffffffffff021916908373ffffffffffffffffffffffffffffffffffffffff16021790555060408201518160010160006101000a81548173ffffffffffffffffffffffffffffffffffffffff021916908373ffffffffffffffffffffffffffffffffffffffff1602179055506060820151816002015560808201518160030155905050505050505050565b6040518060a0016040528060076008811115610f29577f4e487b7100000000000000000000000000000000000000000000000000000000600052602160045260246000fd5b81526020018573ffffffffffffffffffffffffffffffffffffffff1681526020018473ffffffffffffffffffffffffffffffffffffffff16815260200183815260200182815250600080888152602001908152602001600020600087815260200190815260200160002060008201518160000160006101000a81548160ff02191690836008811115610fe4577f4e487b7100000000000000000000000000000000000000000000000000000000600052602160045260246000fd5b021790555060208201518160000160016101000a81548173ffffffffffffffffffffffffffffffffffffffff021916908373ffffffffffffffffffffffffffffffffffffffff16021790555060408201518160010160006101000a81548173ffffffffffffffffffffffffffffffffffffffff021916908373ffffffffffffffffffffffffffffffffffffffff1602179055506060820151816002015560808201518160030155905050505050505050565b6040518060a001604052806008808111156110da577f4e487b7100000000000000000000000000000000000000000000000000000000600052602160045260246000fd5b81526020018573ffffffffffffffffffffffffffffffffffffffff1681526020018473ffffffffffffffffffffffffffffffffffffffff16815260200183815260200182815250600080888152602001908152602001600020600087815260200190815260200160002060008201518160000160006101000a81548160ff02191690836008811115611195577f4e487b7100000000000000000000000000000000000000000000000000000000600052602160045260246000fd5b021790555060208201518160000160016101000a81548173ffffffffffffffffffffffffffffffffffffffff021916908373ffffffffffffffffffffffffffffffffffffffff16021790555060408201518160010160006101000a81548173ffffffffffffffffffffffffffffffffffffffff021916908373ffffffffffffffffffffffffffffffffffffffff1602179055506060820151816002015560808201518160030155905050505050505050565b6040518060a001604052806000600881111561128c577f4e487b7100000000000000000000000000000000000000000000000000000000600052602160045260246000fd5b8152602001600073ffffffffffffffffffffffffffffffffffffffff168152602001600073ffffffffffffffffffffffffffffffffffffffff16815260200160008152602001600081525090565b6000813590506112e981611532565b92915050565b6000813590506112fe81611549565b92915050565b6000806040838503121561131757600080fd5b6000611325858286016112ef565b9250506020611336858286016112ef565b9150509250929050565b600080600080600080600060e0888a03121561135b57600080fd5b60006113698a828b016112ef565b975050602061137a8a828b016112ef565b965050604061138b8a828b016112da565b955050606061139c8a828b016112da565b94505060806113ad8a828b016112ef565b93505060a06113be8a828b016112ef565b92505060c06113cf8a828b016112ef565b91505092959891949750929550565b6113e78161148e565b82525050565b6113f6816114dd565b82525050565b60a08201600082015161141260008501826113ed565b50602082015161142560208501826113de565b50604082015161143860408501826113de565b50606082015161144b6060850182611464565b50608082015161145e6080850182611464565b50505050565b61146d816114d3565b82525050565b600060a08201905061148860008301846113fc565b92915050565b6000611499826114b3565b9050919050565b60008190506114ae8261151e565b919050565b600073ffffffffffffffffffffffffffffffffffffffff82169050919050565b6000819050919050565b60006114e8826114a0565b9050919050565b7f4e487b7100000000000000000000000000000000000000000000000000000000600052602160045260246000fd5b6009811061152f5761152e6114ef565b5b50565b61153b8161148e565b811461154657600080fd5b50565b611552816114d3565b811461155d57600080fd5b5056fea26469706673582212203dbf27fb5a06865e468f20f5f6aeb6ef64c413377fefb167c27c4820f0da52c764736f6c63430008030033",
  "immutableReferences": {},
  "source": "// SPDX-License-Identifier: MIT OR Apache-2.0\r\npragma solidity ^0.8.3;\r\n\r\nenum EventType {\r\n    Minted,\r\n    Listed,\r\n    Withdrawn,\r\n    Sale,\r\n    Transfer,\r\n    Edit,\r\n    OfferReceived,\r\n    OfferWithdrawn,\r\n    OfferAccepted\r\n}\r\n\r\nstruct Event {\r\n    EventType eventType;\r\n    address from;\r\n    address to;\r\n    uint256 price;\r\n    uint256 timestamp;\r\n}\r\n\r\ncontract NFTMarketEvents {\r\n    mapping(uint256 => mapping(uint256 => Event)) private eventHistory;\r\n\r\n    function _getEvent(uint256 tokenId, uint256 eventId) external view returns (Event memory) {\r\n        return eventHistory[tokenId][eventId];\r\n    }\r\n\r\n    function _addEvent(uint256 tokenId, uint256 eventId, address from, address to, uint256 price, uint256 timestamp, uint256 eventType) external {\r\n        if(eventType == 0) {\r\n            _addMintEvent(tokenId, from, timestamp);\r\n        }\r\n        else if(eventType == 1) {\r\n            _addListEvent(tokenId, eventId, from, to, price, timestamp);\r\n        }\r\n        else if(eventType == 2) {\r\n            _addWithdrawEvent(tokenId, eventId, from, to, timestamp);\r\n        }\r\n        else if(eventType == 3) {\r\n            _addSaleEvent(tokenId, eventId, from, to, price, timestamp);\r\n        }\r\n        else if(eventType == 4) {\r\n            _addTransferEvent(tokenId, eventId, from, to, timestamp);\r\n        }\r\n        else if(eventType == 5) {\r\n            _addEditEvent(tokenId, eventId, from, to, price, timestamp);\r\n        }\r\n        else if(eventType == 6) {\r\n            _addOfferReceivedEvent(tokenId, eventId, from, to, price, timestamp);\r\n        }\r\n        else if(eventType == 7) {\r\n            _addOfferWithdrawEvent(tokenId, eventId, from, to, price, timestamp);\r\n        }\r\n        else {\r\n            _addOfferAcceptedEvent(tokenId, eventId, from, to, price, timestamp);\r\n        }\r\n    }\r\n\r\n    function _addMintEvent(uint256 tokenId, address from, uint256 timestamp) internal {\r\n        eventHistory[tokenId][1] = Event(\r\n            EventType.Minted,\r\n            address(0),\r\n            from,\r\n            0,\r\n            timestamp\r\n        );\r\n    }\r\n\r\n    function _addListEvent(uint256 tokenId, uint256 eventId, address from, address to, uint256 price, uint256 timestamp) internal {\r\n        eventHistory[tokenId][eventId] = Event(\r\n            EventType.Listed,\r\n            from,\r\n            to,\r\n            price,\r\n            timestamp\r\n        );\r\n    }\r\n\r\n    function _addEditEvent(uint256 tokenId, uint256 eventId, address from, address to, uint256 price, uint256 timestamp) internal {\r\n        eventHistory[tokenId][eventId] = Event(\r\n            EventType.Edit,\r\n            from,\r\n            to,\r\n            price,\r\n            timestamp\r\n        );\r\n    }\r\n\r\n    function _addWithdrawEvent(uint256 tokenId, uint256 eventId, address from, address to, uint256 timestamp) internal {\r\n        eventHistory[tokenId][eventId] = Event(\r\n            EventType.Withdrawn,\r\n            from,\r\n            to,\r\n            0,\r\n            timestamp\r\n        );\r\n    }\r\n\r\n    function _addTransferEvent(uint256 tokenId, uint256 eventId, address from, address to, uint256 timestamp) internal {\r\n        eventHistory[tokenId][eventId] = Event(\r\n            EventType.Transfer,\r\n            from,\r\n            to,\r\n            0,\r\n            timestamp\r\n        );\r\n    }\r\n\r\n    function _addSaleEvent(uint256 tokenId, uint256 eventId, address from, address to, uint256 price, uint256 timestamp) internal {\r\n        eventHistory[tokenId][eventId] = Event(\r\n            EventType.Sale,\r\n            from,\r\n            to,\r\n            price,\r\n            timestamp\r\n        );\r\n    }\r\n\r\n    function _addOfferReceivedEvent(uint256 tokenId, uint256 eventId, address from, address to, uint256 price, uint256 timestamp) internal {\r\n        eventHistory[tokenId][eventId] = Event(\r\n            EventType.OfferReceived,\r\n            from,\r\n            to,\r\n            price,\r\n            timestamp\r\n        );\r\n    }\r\n\r\n    function _addOfferWithdrawEvent(uint256 tokenId, uint256 eventId, address from, address to, uint256 price, uint256 timestamp) internal {\r\n        eventHistory[tokenId][eventId] = Event(\r\n            EventType.OfferWithdrawn,\r\n            from,\r\n            to,\r\n            price,\r\n            timestamp\r\n        );\r\n    }\r\n\r\n    function _addOfferAcceptedEvent(uint256 tokenId, uint256 eventId, address from, address to, uint256 price, uint256 timestamp) internal {\r\n        eventHistory[tokenId][eventId] = Event(\r\n            EventType.OfferAccepted,\r\n            from,\r\n            to,\r\n            price,\r\n            timestamp\r\n        );\r\n    }\r\n}",
  "sourcePath": "C:\\Users\\priya\\xdsea-Live\\contracts\\NFTMarketEvents.sol",
  "compiler": {
    "name": "solc",
    "version": "0.8.3+commit.8d00100c.Emscripten.clang"
  },
  "schemaVersion": "3.4.4",
  "updatedAt": "2022-03-26T14:07:42.213Z",
  "devdoc": {
    "kind": "dev",
    "methods": {},
    "version": 1
  },
  "userdoc": {
    "kind": "user",
    "methods": {},
    "version": 1
  }
}