{
  "contractName": "NFTMarketLayer1",
  "abi": [
    {
      "inputs": [],
      "stateMutability": "nonpayable",
      "type": "constructor"
    },
    {
      "inputs": [],
      "name": "collectionCount",
      "outputs": [
        {
          "internalType": "uint256",
          "name": "",
          "type": "uint256"
        }
      ],
      "stateMutability": "view",
      "type": "function"
    },
    {
      "inputs": [
        {
          "internalType": "uint256",
          "name": "",
          "type": "uint256"
        }
      ],
      "name": "idToMarketItem",
      "outputs": [
        {
          "internalType": "uint256",
          "name": "tokenId",
          "type": "uint256"
        },
        {
          "internalType": "uint256",
          "name": "itemId",
          "type": "uint256"
        },
        {
          "internalType": "address payable",
          "name": "owner",
          "type": "address"
        },
        {
          "internalType": "address",
          "name": "creator",
          "type": "address"
        },
        {
          "internalType": "uint256",
          "name": "price",
          "type": "uint256"
        },
        {
          "internalType": "bool",
          "name": "isListed",
          "type": "bool"
        },
        {
          "internalType": "uint256",
          "name": "royalty",
          "type": "uint256"
        },
        {
          "internalType": "uint256",
          "name": "eventCount",
          "type": "uint256"
        },
        {
          "internalType": "uint256",
          "name": "offerCount",
          "type": "uint256"
        },
        {
          "internalType": "string",
          "name": "name",
          "type": "string"
        },
        {
          "internalType": "string",
          "name": "collectionName",
          "type": "string"
        }
      ],
      "stateMutability": "view",
      "type": "function"
    },
    {
      "inputs": [],
      "name": "owner",
      "outputs": [
        {
          "internalType": "address payable",
          "name": "",
          "type": "address"
        }
      ],
      "stateMutability": "view",
      "type": "function"
    },
    {
      "inputs": [],
      "name": "tokenCount",
      "outputs": [
        {
          "internalType": "uint256",
          "name": "",
          "type": "uint256"
        }
      ],
      "stateMutability": "view",
      "type": "function"
    },
    {
      "inputs": [
        {
          "internalType": "string",
          "name": "collectionName",
          "type": "string"
        }
      ],
      "name": "getCollectionNFTs",
      "outputs": [
        {
          "components": [
            {
              "internalType": "uint256",
              "name": "tokenId",
              "type": "uint256"
            },
            {
              "internalType": "uint256",
              "name": "itemId",
              "type": "uint256"
            },
            {
              "internalType": "address payable",
              "name": "owner",
              "type": "address"
            },
            {
              "internalType": "address",
              "name": "creator",
              "type": "address"
            },
            {
              "internalType": "uint256",
              "name": "price",
              "type": "uint256"
            },
            {
              "internalType": "bool",
              "name": "isListed",
              "type": "bool"
            },
            {
              "internalType": "uint256",
              "name": "royalty",
              "type": "uint256"
            },
            {
              "internalType": "uint256",
              "name": "eventCount",
              "type": "uint256"
            },
            {
              "internalType": "uint256",
              "name": "offerCount",
              "type": "uint256"
            },
            {
              "internalType": "string",
              "name": "name",
              "type": "string"
            },
            {
              "internalType": "string",
              "name": "collectionName",
              "type": "string"
            }
          ],
          "internalType": "struct NFTMarketLayer1.MarketItem[]",
          "name": "",
          "type": "tuple[]"
        }
      ],
      "stateMutability": "view",
      "type": "function"
    },
    {
      "inputs": [
        {
          "internalType": "uint256",
          "name": "tokenId",
          "type": "uint256"
        }
      ],
      "name": "getTokenEventHistory",
      "outputs": [
        {
          "components": [
            {
              "internalType": "enum EventType",
              "name": "eventType",
              "type": "uint8"
            },
            {
              "internalType": "address",
              "name": "from",
              "type": "address"
            },
            {
              "internalType": "address",
              "name": "to",
              "type": "address"
            },
            {
              "internalType": "uint256",
              "name": "price",
              "type": "uint256"
            },
            {
              "internalType": "uint256",
              "name": "timestamp",
              "type": "uint256"
            }
          ],
          "internalType": "struct Event[]",
          "name": "",
          "type": "tuple[]"
        }
      ],
      "stateMutability": "view",
      "type": "function"
    },
    {
      "inputs": [
        {
          "internalType": "uint256",
          "name": "tokenId",
          "type": "uint256"
        }
      ],
      "name": "getTokenOfferList",
      "outputs": [
        {
          "components": [
            {
              "internalType": "uint256",
              "name": "price",
              "type": "uint256"
            },
            {
              "internalType": "address payable",
              "name": "from",
              "type": "address"
            },
            {
              "internalType": "address payable",
              "name": "to",
              "type": "address"
            },
            {
              "internalType": "bool",
              "name": "isWithdrawn",
              "type": "bool"
            },
            {
              "internalType": "bool",
              "name": "isAccepted",
              "type": "bool"
            }
          ],
          "internalType": "struct Offer[]",
          "name": "",
          "type": "tuple[]"
        }
      ],
      "stateMutability": "view",
      "type": "function"
    },
    {
      "inputs": [
        {
          "internalType": "address",
          "name": "user",
          "type": "address"
        }
      ],
      "name": "getUserFromOfferList",
      "outputs": [
        {
          "components": [
            {
              "internalType": "uint256",
              "name": "price",
              "type": "uint256"
            },
            {
              "internalType": "address payable",
              "name": "from",
              "type": "address"
            },
            {
              "internalType": "address payable",
              "name": "to",
              "type": "address"
            },
            {
              "internalType": "bool",
              "name": "isWithdrawn",
              "type": "bool"
            },
            {
              "internalType": "bool",
              "name": "isAccepted",
              "type": "bool"
            }
          ],
          "internalType": "struct Offer[]",
          "name": "",
          "type": "tuple[]"
        }
      ],
      "stateMutability": "view",
      "type": "function"
    },
    {
      "inputs": [
        {
          "internalType": "address",
          "name": "user",
          "type": "address"
        }
      ],
      "name": "getUserToOfferList",
      "outputs": [
        {
          "components": [
            {
              "internalType": "uint256",
              "name": "price",
              "type": "uint256"
            },
            {
              "internalType": "address payable",
              "name": "from",
              "type": "address"
            },
            {
              "internalType": "address payable",
              "name": "to",
              "type": "address"
            },
            {
              "internalType": "bool",
              "name": "isWithdrawn",
              "type": "bool"
            },
            {
              "internalType": "bool",
              "name": "isAccepted",
              "type": "bool"
            }
          ],
          "internalType": "struct Offer[]",
          "name": "",
          "type": "tuple[]"
        }
      ],
      "stateMutability": "view",
      "type": "function"
    },
    {
      "inputs": [
        {
          "internalType": "uint256",
          "name": "tokenId",
          "type": "uint256"
        },
        {
          "internalType": "uint256",
          "name": "itemId",
          "type": "uint256"
        },
        {
          "internalType": "address payable",
          "name": "nftowner",
          "type": "address"
        },
        {
          "internalType": "address",
          "name": "creator",
          "type": "address"
        },
        {
          "internalType": "uint256",
          "name": "price",
          "type": "uint256"
        },
        {
          "internalType": "bool",
          "name": "isListed",
          "type": "bool"
        },
        {
          "internalType": "uint256",
          "name": "royalty",
          "type": "uint256"
        },
        {
          "internalType": "uint256",
          "name": "eventCount",
          "type": "uint256"
        },
        {
          "internalType": "string",
          "name": "nftName",
          "type": "string"
        },
        {
          "internalType": "string",
          "name": "collectionName",
          "type": "string"
        }
      ],
      "name": "createMarketItem",
      "outputs": [],
      "stateMutability": "payable",
      "type": "function"
    },
    {
      "inputs": [
        {
          "internalType": "uint256",
          "name": "tokenId",
          "type": "uint256"
        },
        {
          "internalType": "uint256",
          "name": "itemId",
          "type": "uint256"
        },
        {
          "internalType": "address payable",
          "name": "nftowner",
          "type": "address"
        },
        {
          "internalType": "address",
          "name": "creator",
          "type": "address"
        },
        {
          "internalType": "uint256",
          "name": "price",
          "type": "uint256"
        },
        {
          "internalType": "bool",
          "name": "isListed",
          "type": "bool"
        },
        {
          "internalType": "uint256",
          "name": "royalty",
          "type": "uint256"
        },
        {
          "internalType": "uint256",
          "name": "eventCount",
          "type": "uint256"
        },
        {
          "internalType": "string",
          "name": "nftName",
          "type": "string"
        },
        {
          "internalType": "string",
          "name": "collectionName",
          "type": "string"
        }
      ],
      "name": "addMarketItem",
      "outputs": [],
      "stateMutability": "payable",
      "type": "function"
    },
    {
      "inputs": [
        {
          "internalType": "uint256",
          "name": "tokenId",
          "type": "uint256"
        },
        {
          "internalType": "uint256",
          "name": "itemId",
          "type": "uint256"
        },
        {
          "internalType": "address payable",
          "name": "nftowner",
          "type": "address"
        },
        {
          "internalType": "address",
          "name": "creator",
          "type": "address"
        },
        {
          "internalType": "uint256",
          "name": "price",
          "type": "uint256"
        },
        {
          "internalType": "bool",
          "name": "isListed",
          "type": "bool"
        },
        {
          "internalType": "uint256",
          "name": "royalty",
          "type": "uint256"
        },
        {
          "internalType": "uint256",
          "name": "eventCount",
          "type": "uint256"
        },
        {
          "internalType": "uint256",
          "name": "offerCount",
          "type": "uint256"
        },
        {
          "internalType": "string",
          "name": "nftName",
          "type": "string"
        },
        {
          "internalType": "string",
          "name": "collectionName",
          "type": "string"
        }
      ],
      "name": "editMarketItem",
      "outputs": [],
      "stateMutability": "payable",
      "type": "function"
    },
    {
      "inputs": [
        {
          "internalType": "address",
          "name": "nftContract",
          "type": "address"
        },
        {
          "internalType": "uint256",
          "name": "tokenId",
          "type": "uint256"
        }
      ],
      "name": "getOwnerOfToken",
      "outputs": [
        {
          "internalType": "address",
          "name": "",
          "type": "address"
        }
      ],
      "stateMutability": "view",
      "type": "function"
    },
    {
      "inputs": [
        {
          "internalType": "address",
          "name": "nftContract",
          "type": "address"
        },
        {
          "internalType": "uint256",
          "name": "tokenId",
          "type": "uint256"
        },
        {
          "internalType": "uint256",
          "name": "price",
          "type": "uint256"
        }
      ],
      "name": "listItem",
      "outputs": [],
      "stateMutability": "payable",
      "type": "function"
    },
    {
      "inputs": [
        {
          "internalType": "address",
          "name": "nftContract",
          "type": "address"
        },
        {
          "internalType": "uint256",
          "name": "tokenId",
          "type": "uint256"
        }
      ],
      "name": "withdrawListing",
      "outputs": [],
      "stateMutability": "payable",
      "type": "function"
    },
    {
      "inputs": [
        {
          "internalType": "uint256",
          "name": "tokenId",
          "type": "uint256"
        },
        {
          "internalType": "uint256",
          "name": "price",
          "type": "uint256"
        }
      ],
      "name": "editListing",
      "outputs": [],
      "stateMutability": "payable",
      "type": "function"
    },
    {
      "inputs": [
        {
          "internalType": "address",
          "name": "nftContract",
          "type": "address"
        },
        {
          "internalType": "uint256",
          "name": "tokenId",
          "type": "uint256"
        },
        {
          "internalType": "address",
          "name": "receiver",
          "type": "address"
        }
      ],
      "name": "transferNFT",
      "outputs": [],
      "stateMutability": "payable",
      "type": "function"
    },
    {
      "inputs": [
        {
          "internalType": "address",
          "name": "nftContract",
          "type": "address"
        },
        {
          "internalType": "uint256",
          "name": "tokenId",
          "type": "uint256"
        }
      ],
      "name": "createMarketSale",
      "outputs": [],
      "stateMutability": "payable",
      "type": "function"
    },
    {
      "inputs": [
        {
          "internalType": "uint256",
          "name": "tokenId",
          "type": "uint256"
        },
        {
          "internalType": "uint256",
          "name": "price",
          "type": "uint256"
        }
      ],
      "name": "placeOffer",
      "outputs": [],
      "stateMutability": "payable",
      "type": "function"
    },
    {
      "inputs": [
        {
          "internalType": "uint256",
          "name": "tokenId",
          "type": "uint256"
        },
        {
          "internalType": "uint256",
          "name": "offerId",
          "type": "uint256"
        }
      ],
      "name": "withdrawOffer",
      "outputs": [],
      "stateMutability": "nonpayable",
      "type": "function"
    },
    {
      "inputs": [
        {
          "internalType": "uint256",
          "name": "tokenId",
          "type": "uint256"
        },
        {
          "internalType": "uint256",
          "name": "offerId",
          "type": "uint256"
        },
        {
          "internalType": "address",
          "name": "nftContract",
          "type": "address"
        }
      ],
      "name": "acceptOffer",
      "outputs": [],
      "stateMutability": "payable",
      "type": "function"
    },
    {
      "inputs": [
        {
          "internalType": "uint256",
          "name": "price",
          "type": "uint256"
        }
      ],
      "name": "transferFunds",
      "outputs": [],
      "stateMutability": "nonpayable",
      "type": "function"
    },
    {
      "inputs": [],
      "name": "fetchCollections",
      "outputs": [
        {
          "components": [
            {
              "internalType": "uint256",
              "name": "tokenId",
              "type": "uint256"
            },
            {
              "internalType": "uint256",
              "name": "itemId",
              "type": "uint256"
            },
            {
              "internalType": "address payable",
              "name": "owner",
              "type": "address"
            },
            {
              "internalType": "address",
              "name": "creator",
              "type": "address"
            },
            {
              "internalType": "uint256",
              "name": "price",
              "type": "uint256"
            },
            {
              "internalType": "bool",
              "name": "isListed",
              "type": "bool"
            },
            {
              "internalType": "uint256",
              "name": "royalty",
              "type": "uint256"
            },
            {
              "internalType": "uint256",
              "name": "eventCount",
              "type": "uint256"
            },
            {
              "internalType": "uint256",
              "name": "offerCount",
              "type": "uint256"
            },
            {
              "internalType": "string",
              "name": "name",
              "type": "string"
            },
            {
              "internalType": "string",
              "name": "collectionName",
              "type": "string"
            }
          ],
          "internalType": "struct NFTMarketLayer1.MarketItem[]",
          "name": "",
          "type": "tuple[]"
        }
      ],
      "stateMutability": "view",
      "type": "function"
    },
    {
      "inputs": [
        {
          "internalType": "string",
          "name": "collectionName",
          "type": "string"
        }
      ],
      "name": "fetchCollection",
      "outputs": [
        {
          "components": [
            {
              "internalType": "uint256",
              "name": "tokenId",
              "type": "uint256"
            },
            {
              "internalType": "uint256",
              "name": "itemId",
              "type": "uint256"
            },
            {
              "internalType": "address payable",
              "name": "owner",
              "type": "address"
            },
            {
              "internalType": "address",
              "name": "creator",
              "type": "address"
            },
            {
              "internalType": "uint256",
              "name": "price",
              "type": "uint256"
            },
            {
              "internalType": "bool",
              "name": "isListed",
              "type": "bool"
            },
            {
              "internalType": "uint256",
              "name": "royalty",
              "type": "uint256"
            },
            {
              "internalType": "uint256",
              "name": "eventCount",
              "type": "uint256"
            },
            {
              "internalType": "uint256",
              "name": "offerCount",
              "type": "uint256"
            },
            {
              "internalType": "string",
              "name": "name",
              "type": "string"
            },
            {
              "internalType": "string",
              "name": "collectionName",
              "type": "string"
            }
          ],
          "internalType": "struct NFTMarketLayer1.MarketItem",
          "name": "",
          "type": "tuple"
        }
      ],
      "stateMutability": "view",
      "type": "function"
    },
    {
      "inputs": [],
      "name": "fetchMarketItems",
      "outputs": [
        {
          "components": [
            {
              "internalType": "uint256",
              "name": "tokenId",
              "type": "uint256"
            },
            {
              "internalType": "uint256",
              "name": "itemId",
              "type": "uint256"
            },
            {
              "internalType": "address payable",
              "name": "owner",
              "type": "address"
            },
            {
              "internalType": "address",
              "name": "creator",
              "type": "address"
            },
            {
              "internalType": "uint256",
              "name": "price",
              "type": "uint256"
            },
            {
              "internalType": "bool",
              "name": "isListed",
              "type": "bool"
            },
            {
              "internalType": "uint256",
              "name": "royalty",
              "type": "uint256"
            },
            {
              "internalType": "uint256",
              "name": "eventCount",
              "type": "uint256"
            },
            {
              "internalType": "uint256",
              "name": "offerCount",
              "type": "uint256"
            },
            {
              "internalType": "string",
              "name": "name",
              "type": "string"
            },
            {
              "internalType": "string",
              "name": "collectionName",
              "type": "string"
            }
          ],
          "internalType": "struct NFTMarketLayer1.MarketItem[]",
          "name": "",
          "type": "tuple[]"
        }
      ],
      "stateMutability": "view",
      "type": "function"
    },
    {
      "inputs": [
        {
          "internalType": "address",
          "name": "user",
          "type": "address"
        }
      ],
      "name": "fetchMyNFTs",
      "outputs": [
        {
          "components": [
            {
              "internalType": "uint256",
              "name": "tokenId",
              "type": "uint256"
            },
            {
              "internalType": "uint256",
              "name": "itemId",
              "type": "uint256"
            },
            {
              "internalType": "address payable",
              "name": "owner",
              "type": "address"
            },
            {
              "internalType": "address",
              "name": "creator",
              "type": "address"
            },
            {
              "internalType": "uint256",
              "name": "price",
              "type": "uint256"
            },
            {
              "internalType": "bool",
              "name": "isListed",
              "type": "bool"
            },
            {
              "internalType": "uint256",
              "name": "royalty",
              "type": "uint256"
            },
            {
              "internalType": "uint256",
              "name": "eventCount",
              "type": "uint256"
            },
            {
              "internalType": "uint256",
              "name": "offerCount",
              "type": "uint256"
            },
            {
              "internalType": "string",
              "name": "name",
              "type": "string"
            },
            {
              "internalType": "string",
              "name": "collectionName",
              "type": "string"
            }
          ],
          "internalType": "struct NFTMarketLayer1.MarketItem[]",
          "name": "",
          "type": "tuple[]"
        }
      ],
      "stateMutability": "view",
      "type": "function"
    },
    {
      "inputs": [
        {
          "internalType": "address",
          "name": "user",
          "type": "address"
        }
      ],
      "name": "fetchItemsCreated",
      "outputs": [
        {
          "components": [
            {
              "internalType": "uint256",
              "name": "tokenId",
              "type": "uint256"
            },
            {
              "internalType": "uint256",
              "name": "itemId",
              "type": "uint256"
            },
            {
              "internalType": "address payable",
              "name": "owner",
              "type": "address"
            },
            {
              "internalType": "address",
              "name": "creator",
              "type": "address"
            },
            {
              "internalType": "uint256",
              "name": "price",
              "type": "uint256"
            },
            {
              "internalType": "bool",
              "name": "isListed",
              "type": "bool"
            },
            {
              "internalType": "uint256",
              "name": "royalty",
              "type": "uint256"
            },
            {
              "internalType": "uint256",
              "name": "eventCount",
              "type": "uint256"
            },
            {
              "internalType": "uint256",
              "name": "offerCount",
              "type": "uint256"
            },
            {
              "internalType": "string",
              "name": "name",
              "type": "string"
            },
            {
              "internalType": "string",
              "name": "collectionName",
              "type": "string"
            }
          ],
          "internalType": "struct NFTMarketLayer1.MarketItem[]",
          "name": "",
          "type": "tuple[]"
        }
      ],
      "stateMutability": "view",
      "type": "function"
    },
    {
      "inputs": [
        {
          "internalType": "string",
          "name": "collectionName",
          "type": "string"
        },
        {
          "internalType": "uint256",
          "name": "volumeTraded",
          "type": "uint256"
        }
      ],
      "name": "setTradeVolume",
      "outputs": [],
      "stateMutability": "nonpayable",
      "type": "function"
    },
    {
      "inputs": [
        {
          "internalType": "uint256",
          "name": "tokenId",
          "type": "uint256"
        },
        {
          "internalType": "uint256",
          "name": "eventId",
          "type": "uint256"
        },
        {
          "internalType": "uint256",
          "name": "eventType",
          "type": "uint256"
        },
        {
          "internalType": "address",
          "name": "from",
          "type": "address"
        },
        {
          "internalType": "address",
          "name": "to",
          "type": "address"
        },
        {
          "internalType": "uint256",
          "name": "price",
          "type": "uint256"
        },
        {
          "internalType": "uint256",
          "name": "timestamp",
          "type": "uint256"
        }
      ],
      "name": "addEventsToItem",
      "outputs": [],
      "stateMutability": "nonpayable",
      "type": "function"
    },
    {
      "inputs": [
        {
          "internalType": "address",
          "name": "",
          "type": "address"
        },
        {
          "internalType": "address",
          "name": "",
          "type": "address"
        },
        {
          "internalType": "uint256",
          "name": "",
          "type": "uint256"
        },
        {
          "internalType": "bytes",
          "name": "",
          "type": "bytes"
        }
      ],
      "name": "onERC721Received",
      "outputs": [
        {
          "internalType": "bytes4",
          "name": "",
          "type": "bytes4"
        }
      ],
      "stateMutability": "nonpayable",
      "type": "function"
    }
  ],
  "bytecode": "0x60806040526040516200001290620001a5565b604051809103906000f0801580156200002f573d6000803e3d6000fd5b50600460006101000a81548173ffffffffffffffffffffffffffffffffffffffff021916908373ffffffffffffffffffffffffffffffffffffffff1602179055506040516200007e90620001b3565b604051809103906000f0801580156200009b573d6000803e3d6000fd5b50600560006101000a81548173ffffffffffffffffffffffffffffffffffffffff021916908373ffffffffffffffffffffffffffffffffffffffff160217905550604051620000ea90620001c1565b604051809103906000f08015801562000107573d6000803e3d6000fd5b50600660006101000a81548173ffffffffffffffffffffffffffffffffffffffff021916908373ffffffffffffffffffffffffffffffffffffffff1602179055503480156200015557600080fd5b50600160008190555033600160006101000a81548173ffffffffffffffffffffffffffffffffffffffff021916908373ffffffffffffffffffffffffffffffffffffffff160217905550620001cf565b6115aa806200872e83390190565b6115b68062009cd883390190565b610b7c806200b28e83390190565b61854f80620001df6000396000f3fe6080604052600436106101cc5760003560e01c80638da5cb5b116100f7578063cfb1f43211610095578063d782292811610064578063d782292814610665578063e61a70c014610681578063fcb05c0a146106c8578063fd34665a146106f1576101cc565b8063cfb1f432146105b6578063d2ead4cb146105f3578063d2f0922a1461061e578063d57f966b1461063a576101cc565b8063c23b139e116100d1578063c23b139e1461050b578063c5a8d4bb14610527578063c833845614610550578063cf6219cc1461058d576101cc565b80638da5cb5b146104995780639f181b5e146104c4578063a95902b2146104ef576101cc565b80631c1661951161016f5780636f6dd7801161013e5780636f6dd780146103e757806385d20cdb1461042457806389bfd38f146104615780638b5ca03a1461047d576101cc565b80631c1661951461031457806323e406581461035157806344fc390d1461038e5780634a141b29146103aa576101cc565b80630f08efe0116101ab5780630f08efe01461024657806310afee1e14610271578063133ae30b146102ae578063150b7a02146102d7576101cc565b8062a67292146101d15780630435c7ce146101ed57806307ae6a5d1461022a575b600080fd5b6101eb60048036038101906101e6919061695e565b61070d565b005b3480156101f957600080fd5b50610214600480360381019061020f9190616868565b6108f1565b60405161022191906176e9565b60405180910390f35b610244600480360381019061023f9190616c17565b610bfb565b005b34801561025257600080fd5b5061025b611621565b60405161026891906176c7565b60405180910390f35b34801561027d57600080fd5b5061029860048036038101906102939190616868565b61199b565b6040516102a591906176c7565b60405180910390f35b3480156102ba57600080fd5b506102d560048036038101906102d09190616b89565b611e05565b005b3480156102e357600080fd5b506102fe60048036038101906102f991906168e3565b611ecb565b60405161030b919061770b565b60405180910390f35b34801561032057600080fd5b5061033b60048036038101906103369190616b89565b611edf565b60405161034891906176a5565b60405180910390f35b34801561035d57600080fd5b5061037860048036038101906103739190616a61565b6120bf565b60405161038591906178b2565b60405180910390f35b6103a860048036038101906103a39190616bdb565b6123c1565b005b3480156103b657600080fd5b506103d160048036038101906103cc919061695e565b612521565b6040516103de91906175a1565b60405180910390f35b3480156103f357600080fd5b5061040e60048036038101906104099190616a61565b6125b4565b60405161041b91906176c7565b60405180910390f35b34801561043057600080fd5b5061044b60048036038101906104469190616b89565b612b01565b60405161045891906176e9565b60405180910390f35b61047b600480360381019061047691906169e9565b612ce1565b005b61049760048036038101906104929190616d71565b612ee0565b005b3480156104a557600080fd5b506104ae613154565b6040516104bb91906175bc565b60405180910390f35b3480156104d057600080fd5b506104d961317a565b6040516104e691906178d4565b60405180910390f35b61050960048036038101906105049190616bdb565b613180565b005b6105256004803603810190610520919061695e565b6133d0565b005b34801561053357600080fd5b5061054e60048036038101906105499190616bdb565b613c9a565b005b34801561055c57600080fd5b5061057760048036038101906105729190616868565b614103565b60405161058491906176c7565b60405180910390f35b34801561059957600080fd5b506105b460048036038101906105af9190616e91565b61456d565b005b3480156105c257600080fd5b506105dd60048036038101906105d89190616868565b614669565b6040516105ea91906176e9565b60405180910390f35b3480156105ff57600080fd5b50610608614973565b60405161061591906176c7565b60405180910390f35b6106386004803603810190610633919061699a565b614e15565b005b34801561064657600080fd5b5061064f615374565b60405161065c91906178d4565b60405180910390f35b61067f600480360381019061067a9190616c66565b61537a565b005b34801561068d57600080fd5b506106a860048036038101906106a39190616b89565b6159ee565b6040516106bf9b9a99989796959493929190617a49565b60405180910390f35b3480156106d457600080fd5b506106ef60048036038101906106ea9190616ae3565b615ba5565b005b61070b60048036038101906107069190616c66565b615c38565b005b60026000541415610753576040517f08c379a000000000000000000000000000000000000000000000000000000000815260040161074a90617892565b60405180910390fd5b60026000819055508173ffffffffffffffffffffffffffffffffffffffff166323b872dd3033846040518463ffffffff1660e01b815260040161079893929190617645565b600060405180830381600087803b1580156107b257600080fd5b505af11580156107c6573d6000803e3d6000fd5b5050505060006007600083815260200190815260200160002060050160006101000a81548160ff02191690831515021790555061081a600760008381526020019081526020016000206007015460016162ee565b6007600083815260200190815260200160002060070181905550600560009054906101000a900473ffffffffffffffffffffffffffffffffffffffff1673ffffffffffffffffffffffffffffffffffffffff166304833d98826007600085815260200190815260200160002060070154303360004260026040518863ffffffff1660e01b81526004016108b39796959493929190617c4f565b600060405180830381600087803b1580156108cd57600080fd5b505af11580156108e1573d6000803e3d6000fd5b5050505060016000819055505050565b6060600080600460009054906101000a900473ffffffffffffffffffffffffffffffffffffffff1673ffffffffffffffffffffffffffffffffffffffff166393a26cce856040518263ffffffff1660e01b815260040161095191906175a1565b60206040518083038186803b15801561096957600080fd5b505afa15801561097d573d6000803e3d6000fd5b505050506040513d601f19601f820116820180604052508101906109a19190616bb2565b67ffffffffffffffff8111156109e0577f4e487b7100000000000000000000000000000000000000000000000000000000600052604160045260246000fd5b604051908082528060200260200182016040528015610a1957816020015b610a06616346565b8152602001906001900390816109fe5790505b50905060005b600460009054906101000a900473ffffffffffffffffffffffffffffffffffffffff1673ffffffffffffffffffffffffffffffffffffffff166393a26cce866040518263ffffffff1660e01b8152600401610a7a91906175a1565b60206040518083038186803b158015610a9257600080fd5b505afa158015610aa6573d6000803e3d6000fd5b505050506040513d601f19601f82011682018060405250810190610aca9190616bb2565b811015610bf057600460009054906101000a900473ffffffffffffffffffffffffffffffffffffffff1673ffffffffffffffffffffffffffffffffffffffff1663a95087e386600184610b1d9190617fee565b6040518363ffffffff1660e01b8152600401610b3a92919061767c565b60a06040518083038186803b158015610b5257600080fd5b505afa158015610b66573d6000803e3d6000fd5b505050506040513d601f19601f82011682018060405250810190610b8a9190616b60565b828481518110610bc3577f4e487b7100000000000000000000000000000000000000000000000000000000600052603260045260246000fd5b6020026020010181905250600183610bdb9190617fee565b92508080610be89061832b565b915050610a1f565b508092505050919050565b60026000541415610c41576040517f08c379a0000000000000000000000000000000000000000000000000000000008152600401610c3890617892565b60405180910390fd5b6002600081905550600460009054906101000a900473ffffffffffffffffffffffffffffffffffffffff1673ffffffffffffffffffffffffffffffffffffffff1663afc5edcb84846040518363ffffffff1660e01b8152600401610ca69291906179b1565b600060405180830381600087803b158015610cc057600080fd5b505af1158015610cd4573d6000803e3d6000fd5b505050506000600190505b600760008581526020019081526020016000206008015481116115f757600460009054906101000a900473ffffffffffffffffffffffffffffffffffffffff1673ffffffffffffffffffffffffffffffffffffffff16637c93564c85836040518363ffffffff1660e01b8152600401610d599291906179b1565b60206040518083038186803b158015610d7157600080fd5b505afa158015610d85573d6000803e3d6000fd5b505050506040513d601f19601f82011682018060405250810190610da99190616a38565b6115e4576000600460009054906101000a900473ffffffffffffffffffffffffffffffffffffffff1673ffffffffffffffffffffffffffffffffffffffff16639b125c4886846040518363ffffffff1660e01b8152600401610e0c9291906179b1565b60206040518083038186803b158015610e2457600080fd5b505afa158015610e38573d6000803e3d6000fd5b505050506040513d601f19601f82011682018060405250810190610e5c91906168ba565b90506000600460009054906101000a900473ffffffffffffffffffffffffffffffffffffffff1673ffffffffffffffffffffffffffffffffffffffff1663c4e2823787856040518363ffffffff1660e01b8152600401610ebd9291906179b1565b60206040518083038186803b158015610ed557600080fd5b505afa158015610ee9573d6000803e3d6000fd5b505050506040513d601f19601f82011682018060405250810190610f0d9190616bb2565b9050600460009054906101000a900473ffffffffffffffffffffffffffffffffffffffff1673ffffffffffffffffffffffffffffffffffffffff1663a61178bc87856040518363ffffffff1660e01b8152600401610f6c9291906179b1565b60206040518083038186803b158015610f8457600080fd5b505afa158015610f98573d6000803e3d6000fd5b505050506040513d601f19601f82011682018060405250810190610fbc9190616a38565b156114f657600160009054906101000a900473ffffffffffffffffffffffffffffffffffffffff1673ffffffffffffffffffffffffffffffffffffffff166108fc61101261100b846002616304565b606461631a565b9081150290604051600060405180830381858888f1935050505015801561103d573d6000803e3d6000fd5b506007600087815260200190815260200160002060030160009054906101000a900473ffffffffffffffffffffffffffffffffffffffff1673ffffffffffffffffffffffffffffffffffffffff166108fc6110b86110b184600760008c815260200190815260200160002060060154616304565b606461631a565b9081150290604051600060405180830381858888f193505050501580156110e3573d6000803e3d6000fd5b506007600087815260200190815260200160002060020160009054906101000a900473ffffffffffffffffffffffffffffffffffffffff1673ffffffffffffffffffffffffffffffffffffffff166108fc6111686111618461115c6064600760008e815260200190815260200160002060060154616330565b616304565b606461631a565b9081150290604051600060405180830381858888f19350505050158015611193573d6000803e3d6000fd5b506007600087815260200190815260200160002060050160009054906101000a900460ff1615611231578373ffffffffffffffffffffffffffffffffffffffff166323b872dd3084896040518463ffffffff1660e01b81526004016111fa9392919061760e565b600060405180830381600087803b15801561121457600080fd5b505af1158015611228573d6000803e3d6000fd5b505050506112d7565b8373ffffffffffffffffffffffffffffffffffffffff166323b872dd6007600089815260200190815260200160002060020160009054906101000a900473ffffffffffffffffffffffffffffffffffffffff1684896040518463ffffffff1660e01b81526004016112a4939291906175d7565b600060405180830381600087803b1580156112be57600080fd5b505af11580156112d2573d6000803e3d6000fd5b505050505b6112f8600760008881526020019081526020016000206007015460016162ee565b6007600088815260200190815260200160002060070181905550600560009054906101000a900473ffffffffffffffffffffffffffffffffffffffff1673ffffffffffffffffffffffffffffffffffffffff166304833d9887600760008a815260200190815260200160002060070154600760008b815260200190815260200160002060020160009054906101000a900473ffffffffffffffffffffffffffffffffffffffff1686864260086040518863ffffffff1660e01b81526004016113c697969594939291906179da565b600060405180830381600087803b1580156113e057600080fd5b505af11580156113f4573d6000803e3d6000fd5b50505050816007600088815260200190815260200160002060020160006101000a81548173ffffffffffffffffffffffffffffffffffffffff021916908373ffffffffffffffffffffffffffffffffffffffff160217905550600660009054906101000a900473ffffffffffffffffffffffffffffffffffffffff1673ffffffffffffffffffffffffffffffffffffffff166319b7829160076000898152602001908152602001600020600a01836040518363ffffffff1660e01b81526004016114bf929190617862565b600060405180830381600087803b1580156114d957600080fd5b505af11580156114ed573d6000803e3d6000fd5b505050506115e1565b600460009054906101000a900473ffffffffffffffffffffffffffffffffffffffff1673ffffffffffffffffffffffffffffffffffffffff16636c97899187856040518363ffffffff1660e01b81526004016115539291906179b1565b600060405180830381600087803b15801561156d57600080fd5b505af1158015611581573d6000803e3d6000fd5b505050508173ffffffffffffffffffffffffffffffffffffffff166108fc6115b46115ad846066616304565b606461631a565b9081150290604051600060405180830381858888f193505050501580156115df573d6000803e3d6000fd5b505b50505b80806115ef9061832b565b915050610cdf565b50600060076000858152602001908152602001600020600801819055506001600081905550505050565b606060008060035467ffffffffffffffff811115611668577f4e487b7100000000000000000000000000000000000000000000000000000000600052604160045260246000fd5b6040519080825280602002602001820160405280156116a157816020015b61168e6163a5565b8152602001906001900390816116865790505b50905060005b600354811015611992576000600760006001846116c49190617fee565b8152602001908152602001600020600001541461197f57600760006001836116ec9190617fee565b81526020019081526020016000206040518061016001604052908160008201548152602001600182015481526020016002820160009054906101000a900473ffffffffffffffffffffffffffffffffffffffff1673ffffffffffffffffffffffffffffffffffffffff1673ffffffffffffffffffffffffffffffffffffffff1681526020016003820160009054906101000a900473ffffffffffffffffffffffffffffffffffffffff1673ffffffffffffffffffffffffffffffffffffffff1673ffffffffffffffffffffffffffffffffffffffff168152602001600482015481526020016005820160009054906101000a900460ff16151515158152602001600682015481526020016007820154815260200160088201548152602001600982018054611819906182c8565b80601f0160208091040260200160405190810160405280929190818152602001828054611845906182c8565b80156118925780601f1061186757610100808354040283529160200191611892565b820191906000526020600020905b81548152906001019060200180831161187557829003601f168201915b50505050508152602001600a820180546118ab906182c8565b80601f01602080910402602001604051908101604052809291908181526020018280546118d7906182c8565b80156119245780601f106118f957610100808354040283529160200191611924565b820191906000526020600020905b81548152906001019060200180831161190757829003601f168201915b505050505081525050828481518110611966577f4e487b7100000000000000000000000000000000000000000000000000000000600052603260045260246000fd5b602002602001018190525061197c8360016162ee565b92505b808061198a9061832b565b9150506116a7565b50809250505090565b606060008060005b600354811015611a42578473ffffffffffffffffffffffffffffffffffffffff16600760006119d38460016162ee565b815260200190815260200160002060020160009054906101000a900473ffffffffffffffffffffffffffffffffffffffff1673ffffffffffffffffffffffffffffffffffffffff161415611a2f57611a2c8360016162ee565b92505b8080611a3a9061832b565b9150506119a3565b5060008267ffffffffffffffff811115611a85577f4e487b7100000000000000000000000000000000000000000000000000000000600052604160045260246000fd5b604051908082528060200260200182016040528015611abe57816020015b611aab6163a5565b815260200190600190039081611aa35790505b50905060005b600354811015611df9578573ffffffffffffffffffffffffffffffffffffffff1660076000611af48460016162ee565b815260200190815260200160002060020160009054906101000a900473ffffffffffffffffffffffffffffffffffffffff1673ffffffffffffffffffffffffffffffffffffffff161415611de65760076000600183611b539190617fee565b81526020019081526020016000206040518061016001604052908160008201548152602001600182015481526020016002820160009054906101000a900473ffffffffffffffffffffffffffffffffffffffff1673ffffffffffffffffffffffffffffffffffffffff1673ffffffffffffffffffffffffffffffffffffffff1681526020016003820160009054906101000a900473ffffffffffffffffffffffffffffffffffffffff1673ffffffffffffffffffffffffffffffffffffffff1673ffffffffffffffffffffffffffffffffffffffff168152602001600482015481526020016005820160009054906101000a900460ff16151515158152602001600682015481526020016007820154815260200160088201548152602001600982018054611c80906182c8565b80601f0160208091040260200160405190810160405280929190818152602001828054611cac906182c8565b8015611cf95780601f10611cce57610100808354040283529160200191611cf9565b820191906000526020600020905b815481529060010190602001808311611cdc57829003601f168201915b50505050508152602001600a82018054611d12906182c8565b80601f0160208091040260200160405190810160405280929190818152602001828054611d3e906182c8565b8015611d8b5780601f10611d6057610100808354040283529160200191611d8b565b820191906000526020600020905b815481529060010190602001808311611d6e57829003601f168201915b505050505081525050828481518110611dcd577f4e487b7100000000000000000000000000000000000000000000000000000000600052603260045260246000fd5b6020026020010181905250611de38360016162ee565b92505b8080611df19061832b565b915050611ac4565b50809350505050919050565b600160009054906101000a900473ffffffffffffffffffffffffffffffffffffffff1673ffffffffffffffffffffffffffffffffffffffff163373ffffffffffffffffffffffffffffffffffffffff1614611e5f57600080fd5b600160009054906101000a900473ffffffffffffffffffffffffffffffffffffffff1673ffffffffffffffffffffffffffffffffffffffff166108fc829081150290604051600060405180830381858888f19350505050158015611ec7573d6000803e3d6000fd5b5050565b600063150b7a0260e01b9050949350505050565b6060600080600760008581526020019081526020016000206007015467ffffffffffffffff811115611f3a577f4e487b7100000000000000000000000000000000000000000000000000000000600052604160045260246000fd5b604051908082528060200260200182016040528015611f7357816020015b611f6061642d565b815260200190600190039081611f585790505b50905060005b60076000868152602001908152602001600020600701548110156120b457600560009054906101000a900473ffffffffffffffffffffffffffffffffffffffff1673ffffffffffffffffffffffffffffffffffffffff166323daaaa186600184611fe39190617fee565b6040518363ffffffff1660e01b81526004016120009291906179b1565b60a06040518083038186803b15801561201857600080fd5b505afa15801561202c573d6000803e3d6000fd5b505050506040513d601f19601f820116820180604052508101906120509190616b37565b828481518110612089577f4e487b7100000000000000000000000000000000000000000000000000000000600052603260045260246000fd5b602002602001018190525061209f8360016162ee565b925080806120ac9061832b565b915050611f79565b508092505050919050565b6120c76163a5565b60076000600660009054906101000a900473ffffffffffffffffffffffffffffffffffffffff1673ffffffffffffffffffffffffffffffffffffffff16635b33397f8560016040518363ffffffff1660e01b8152600401612129929190617786565b60206040518083038186803b15801561214157600080fd5b505afa158015612155573d6000803e3d6000fd5b505050506040513d601f19601f820116820180604052508101906121799190616bb2565b81526020019081526020016000206040518061016001604052908160008201548152602001600182015481526020016002820160009054906101000a900473ffffffffffffffffffffffffffffffffffffffff1673ffffffffffffffffffffffffffffffffffffffff1673ffffffffffffffffffffffffffffffffffffffff1681526020016003820160009054906101000a900473ffffffffffffffffffffffffffffffffffffffff1673ffffffffffffffffffffffffffffffffffffffff1673ffffffffffffffffffffffffffffffffffffffff168152602001600482015481526020016005820160009054906101000a900460ff161515151581526020016006820154815260200160078201548152602001600882015481526020016009820180546122a6906182c8565b80601f01602080910402602001604051908101604052809291908181526020018280546122d2906182c8565b801561231f5780601f106122f45761010080835404028352916020019161231f565b820191906000526020600020905b81548152906001019060200180831161230257829003601f168201915b50505050508152602001600a82018054612338906182c8565b80601f0160208091040260200160405190810160405280929190818152602001828054612364906182c8565b80156123b15780601f10612386576101008083540402835291602001916123b1565b820191906000526020600020905b81548152906001019060200180831161239457829003601f168201915b5050505050815250509050919050565b60026000541415612407576040517f08c379a00000000000000000000000000000000000000000000000000000000081526004016123fe90617892565b60405180910390fd5b600260008190555080600760008481526020019081526020016000206004018190555061244b600760008481526020019081526020016000206007015460016162ee565b6007600084815260200190815260200160002060070181905550600560009054906101000a900473ffffffffffffffffffffffffffffffffffffffff1673ffffffffffffffffffffffffffffffffffffffff166304833d988360076000868152602001908152602001600020600701543330864260056040518863ffffffff1660e01b81526004016124e39796959493929190617d9c565b600060405180830381600087803b1580156124fd57600080fd5b505af1158015612511573d6000803e3d6000fd5b5050505060016000819055505050565b60008273ffffffffffffffffffffffffffffffffffffffff16636352211e836040518263ffffffff1660e01b815260040161255c91906178d4565b60206040518083038186803b15801561257457600080fd5b505afa158015612588573d6000803e3d6000fd5b505050506040513d601f19601f820116820180604052508101906125ac9190616891565b905092915050565b6060600080600660009054906101000a900473ffffffffffffffffffffffffffffffffffffffff1673ffffffffffffffffffffffffffffffffffffffff1663b771362a856040518263ffffffff1660e01b81526004016126149190617726565b60206040518083038186803b15801561262c57600080fd5b505afa158015612640573d6000803e3d6000fd5b505050506040513d601f19601f820116820180604052508101906126649190616bb2565b67ffffffffffffffff8111156126a3577f4e487b7100000000000000000000000000000000000000000000000000000000600052604160045260246000fd5b6040519080825280602002602001820160405280156126dc57816020015b6126c96163a5565b8152602001906001900390816126c15790505b50905060005b600660009054906101000a900473ffffffffffffffffffffffffffffffffffffffff1673ffffffffffffffffffffffffffffffffffffffff1663b771362a866040518263ffffffff1660e01b815260040161273d9190617726565b60206040518083038186803b15801561275557600080fd5b505afa158015612769573d6000803e3d6000fd5b505050506040513d601f19601f8201168201806040525081019061278d9190616bb2565b811015612af65760076000600660009054906101000a900473ffffffffffffffffffffffffffffffffffffffff1673ffffffffffffffffffffffffffffffffffffffff16635b33397f886001866127e49190617fee565b6040518363ffffffff1660e01b81526004016128019291906177f4565b60206040518083038186803b15801561281957600080fd5b505afa15801561282d573d6000803e3d6000fd5b505050506040513d601f19601f820116820180604052508101906128519190616bb2565b81526020019081526020016000206040518061016001604052908160008201548152602001600182015481526020016002820160009054906101000a900473ffffffffffffffffffffffffffffffffffffffff1673ffffffffffffffffffffffffffffffffffffffff1673ffffffffffffffffffffffffffffffffffffffff1681526020016003820160009054906101000a900473ffffffffffffffffffffffffffffffffffffffff1673ffffffffffffffffffffffffffffffffffffffff1673ffffffffffffffffffffffffffffffffffffffff168152602001600482015481526020016005820160009054906101000a900460ff1615151515815260200160068201548152602001600782015481526020016008820154815260200160098201805461297e906182c8565b80601f01602080910402602001604051908101604052809291908181526020018280546129aa906182c8565b80156129f75780601f106129cc576101008083540402835291602001916129f7565b820191906000526020600020905b8154815290600101906020018083116129da57829003601f168201915b50505050508152602001600a82018054612a10906182c8565b80601f0160208091040260200160405190810160405280929190818152602001828054612a3c906182c8565b8015612a895780601f10612a5e57610100808354040283529160200191612a89565b820191906000526020600020905b815481529060010190602001808311612a6c57829003601f168201915b505050505081525050828481518110612acb577f4e487b7100000000000000000000000000000000000000000000000000000000600052603260045260246000fd5b6020026020010181905250612ae18360016162ee565b92508080612aee9061832b565b9150506126e2565b508092505050919050565b6060600080600760008581526020019081526020016000206008015467ffffffffffffffff811115612b5c577f4e487b7100000000000000000000000000000000000000000000000000000000600052604160045260246000fd5b604051908082528060200260200182016040528015612b9557816020015b612b82616346565b815260200190600190039081612b7a5790505b50905060005b6007600086815260200190815260200160002060080154811015612cd657600460009054906101000a900473ffffffffffffffffffffffffffffffffffffffff1673ffffffffffffffffffffffffffffffffffffffff1663c45cc19086600184612c059190617fee565b6040518363ffffffff1660e01b8152600401612c229291906179b1565b60a06040518083038186803b158015612c3a57600080fd5b505afa158015612c4e573d6000803e3d6000fd5b505050506040513d601f19601f82011682018060405250810190612c729190616b60565b828481518110612cab577f4e487b7100000000000000000000000000000000000000000000000000000000600052603260045260246000fd5b6020026020010181905250612cc18360016162ee565b92508080612cce9061832b565b915050612b9b565b508092505050919050565b60026000541415612d27576040517f08c379a0000000000000000000000000000000000000000000000000000000008152600401612d1e90617892565b60405180910390fd5b60026000819055508273ffffffffffffffffffffffffffffffffffffffff166323b872dd3330856040518463ffffffff1660e01b8152600401612d6c93929190617645565b600060405180830381600087803b158015612d8657600080fd5b505af1158015612d9a573d6000803e3d6000fd5b5050505080600760008481526020019081526020016000206004018190555060016007600084815260200190815260200160002060050160006101000a81548160ff021916908315150217905550612e09600760008481526020019081526020016000206007015460016162ee565b6007600084815260200190815260200160002060070181905550600560009054906101000a900473ffffffffffffffffffffffffffffffffffffffff1673ffffffffffffffffffffffffffffffffffffffff166304833d988360076000868152602001908152602001600020600701543330864260016040518863ffffffff1660e01b8152600401612ea19796959493929190617d2d565b600060405180830381600087803b158015612ebb57600080fd5b505af1158015612ecf573d6000803e3d6000fd5b505050506001600081905550505050565b60026000541415612f26576040517f08c379a0000000000000000000000000000000000000000000000000000000008152600401612f1d90617892565b60405180910390fd5b6002600081905550600160009054906101000a900473ffffffffffffffffffffffffffffffffffffffff1673ffffffffffffffffffffffffffffffffffffffff163373ffffffffffffffffffffffffffffffffffffffff1614612f8857600080fd5b6040518061016001604052808c81526020018b81526020018a73ffffffffffffffffffffffffffffffffffffffff1681526020018973ffffffffffffffffffffffffffffffffffffffff168152602001888152602001871515815260200186815260200185815260200184815260200183815260200182815250600760008d8152602001908152602001600020600082015181600001556020820151816001015560408201518160020160006101000a81548173ffffffffffffffffffffffffffffffffffffffff021916908373ffffffffffffffffffffffffffffffffffffffff16021790555060608201518160030160006101000a81548173ffffffffffffffffffffffffffffffffffffffff021916908373ffffffffffffffffffffffffffffffffffffffff1602179055506080820151816004015560a08201518160050160006101000a81548160ff02191690831515021790555060c0820151816006015560e08201518160070155610100820151816008015561012082015181600901908051906020019061311d9291906164c0565b5061014082015181600a01908051906020019061313b9291906164c0565b5090505060016000819055505050505050505050505050565b600160009054906101000a900473ffffffffffffffffffffffffffffffffffffffff1681565b60035481565b6000811161318d57600080fd5b600160076000848152602001908152602001600020600801546131b09190617fee565b6007600084815260200190815260200160002060080181905550600460009054906101000a900473ffffffffffffffffffffffffffffffffffffffff1673ffffffffffffffffffffffffffffffffffffffff16637c4a9ba182336007600087815260200190815260200160002060020160009054906101000a900473ffffffffffffffffffffffffffffffffffffffff168660076000898152602001908152602001600020600801546040518663ffffffff1660e01b81526004016132799594939291906178ef565b600060405180830381600087803b15801561329357600080fd5b505af11580156132a7573d6000803e3d6000fd5b505050506132cc600760008481526020019081526020016000206007015460016162ee565b6007600084815260200190815260200160002060070181905550600560009054906101000a900473ffffffffffffffffffffffffffffffffffffffff1673ffffffffffffffffffffffffffffffffffffffff166304833d98836007600086815260200190815260200160002060070154336007600088815260200190815260200160002060020160009054906101000a900473ffffffffffffffffffffffffffffffffffffffff16864260066040518863ffffffff1660e01b815260040161339a9796959493929190617b71565b600060405180830381600087803b1580156133b457600080fd5b505af11580156133c8573d6000803e3d6000fd5b505050505050565b60026000541415613416576040517f08c379a000000000000000000000000000000000000000000000000000000000815260040161340d90617892565b60405180910390fd5b6002600081905550600760008281526020019081526020016000206004015434101561344157600080fd5b600160009054906101000a900473ffffffffffffffffffffffffffffffffffffffff1673ffffffffffffffffffffffffffffffffffffffff166108fc6134a86134a16007600086815260200190815260200160002060040154606461631a565b6002616304565b9081150290604051600060405180830381858888f193505050501580156134d3573d6000803e3d6000fd5b506007600082815260200190815260200160002060030160009054906101000a900473ffffffffffffffffffffffffffffffffffffffff1673ffffffffffffffffffffffffffffffffffffffff166108fc6135646135486007600086815260200190815260200160002060040154606461631a565b6007600086815260200190815260200160002060060154616304565b9081150290604051600060405180830381858888f1935050505015801561358f573d6000803e3d6000fd5b506007600082815260200190815260200160002060020160009054906101000a900473ffffffffffffffffffffffffffffffffffffffff1673ffffffffffffffffffffffffffffffffffffffff166108fc61362a6136046007600086815260200190815260200160002060040154606461631a565b61362560646007600088815260200190815260200160002060060154616330565b616304565b9081150290604051600060405180830381858888f19350505050158015613655573d6000803e3d6000fd5b508173ffffffffffffffffffffffffffffffffffffffff166323b872dd3033846040518463ffffffff1660e01b815260040161369393929190617645565b600060405180830381600087803b1580156136ad57600080fd5b505af11580156136c1573d6000803e3d6000fd5b5050505060006007600083815260200190815260200160002060050160006101000a81548160ff021916908315150217905550613715600760008381526020019081526020016000206007015460016162ee565b6007600083815260200190815260200160002060070181905550600560009054906101000a900473ffffffffffffffffffffffffffffffffffffffff1673ffffffffffffffffffffffffffffffffffffffff166304833d988260076000858152602001908152602001600020600701546007600086815260200190815260200160002060020160009054906101000a900473ffffffffffffffffffffffffffffffffffffffff163360076000888152602001908152602001600020600401544260036040518863ffffffff1660e01b81526004016137f99796959493929190617b02565b600060405180830381600087803b15801561381357600080fd5b505af1158015613827573d6000803e3d6000fd5b50505050336007600083815260200190815260200160002060020160006101000a81548173ffffffffffffffffffffffffffffffffffffffff021916908373ffffffffffffffffffffffffffffffffffffffff160217905550600660009054906101000a900473ffffffffffffffffffffffffffffffffffffffff1673ffffffffffffffffffffffffffffffffffffffff166319b7829160076000848152602001908152602001600020600a0160076000858152602001908152602001600020600401546040518363ffffffff1660e01b8152600401613908929190617862565b600060405180830381600087803b15801561392257600080fd5b505af1158015613936573d6000803e3d6000fd5b505050506000600190505b60076000838152602001908152602001600020600801548111613c7157600460009054906101000a900473ffffffffffffffffffffffffffffffffffffffff1673ffffffffffffffffffffffffffffffffffffffff16637c93564c83836040518363ffffffff1660e01b81526004016139bb9291906179b1565b60206040518083038186803b1580156139d357600080fd5b505afa1580156139e7573d6000803e3d6000fd5b505050506040513d601f19601f82011682018060405250810190613a0b9190616a38565b613c5e576000600460009054906101000a900473ffffffffffffffffffffffffffffffffffffffff1673ffffffffffffffffffffffffffffffffffffffff16639b125c4884846040518363ffffffff1660e01b8152600401613a6e9291906179b1565b60206040518083038186803b158015613a8657600080fd5b505afa158015613a9a573d6000803e3d6000fd5b505050506040513d601f19601f82011682018060405250810190613abe91906168ba565b90506000600460009054906101000a900473ffffffffffffffffffffffffffffffffffffffff1673ffffffffffffffffffffffffffffffffffffffff1663c4e2823785856040518363ffffffff1660e01b8152600401613b1f9291906179b1565b60206040518083038186803b158015613b3757600080fd5b505afa158015613b4b573d6000803e3d6000fd5b505050506040513d601f19601f82011682018060405250810190613b6f9190616bb2565b9050600460009054906101000a900473ffffffffffffffffffffffffffffffffffffffff1673ffffffffffffffffffffffffffffffffffffffff16636c97899185856040518363ffffffff1660e01b8152600401613bce9291906179b1565b600060405180830381600087803b158015613be857600080fd5b505af1158015613bfc573d6000803e3d6000fd5b505050508173ffffffffffffffffffffffffffffffffffffffff166108fc613c2f613c28846066616304565b606461631a565b9081150290604051600060405180830381858888f19350505050158015613c5a573d6000803e3d6000fd5b5050505b8080613c699061832b565b915050613941565b506000600760008381526020019081526020016000206008018190555060016000819055505050565b60026000541415613ce0576040517f08c379a0000000000000000000000000000000000000000000000000000000008152600401613cd790617892565b60405180910390fd5b6002600081905550600460009054906101000a900473ffffffffffffffffffffffffffffffffffffffff1673ffffffffffffffffffffffffffffffffffffffff16636c97899183836040518363ffffffff1660e01b8152600401613d459291906179b1565b600060405180830381600087803b158015613d5f57600080fd5b505af1158015613d73573d6000803e3d6000fd5b50505050613d98600760008481526020019081526020016000206007015460016162ee565b6007600084815260200190815260200160002060070181905550600560009054906101000a900473ffffffffffffffffffffffffffffffffffffffff1673ffffffffffffffffffffffffffffffffffffffff166304833d98836007600086815260200190815260200160002060070154336007600088815260200190815260200160002060020160009054906101000a900473ffffffffffffffffffffffffffffffffffffffff16600460009054906101000a900473ffffffffffffffffffffffffffffffffffffffff1673ffffffffffffffffffffffffffffffffffffffff1663c4e2823789896040518363ffffffff1660e01b8152600401613e9d9291906179b1565b60206040518083038186803b158015613eb557600080fd5b505afa158015613ec9573d6000803e3d6000fd5b505050506040513d601f19601f82011682018060405250810190613eed9190616bb2565b4260076040518863ffffffff1660e01b8152600401613f129796959493929190617be0565b600060405180830381600087803b158015613f2c57600080fd5b505af1158015613f40573d6000803e3d6000fd5b50505050600460009054906101000a900473ffffffffffffffffffffffffffffffffffffffff1673ffffffffffffffffffffffffffffffffffffffff16639b125c4883836040518363ffffffff1660e01b8152600401613fa19291906179b1565b60206040518083038186803b158015613fb957600080fd5b505afa158015613fcd573d6000803e3d6000fd5b505050506040513d601f19601f82011682018060405250810190613ff191906168ba565b73ffffffffffffffffffffffffffffffffffffffff166108fc6140cb6140c4600460009054906101000a900473ffffffffffffffffffffffffffffffffffffffff1673ffffffffffffffffffffffffffffffffffffffff1663c4e2823787876040518363ffffffff1660e01b815260040161406d9291906179b1565b60206040518083038186803b15801561408557600080fd5b505afa158015614099573d6000803e3d6000fd5b505050506040513d601f19601f820116820180604052508101906140bd9190616bb2565b6066616304565b606461631a565b9081150290604051600060405180830381858888f193505050501580156140f6573d6000803e3d6000fd5b5060016000819055505050565b606060008060005b6003548110156141aa578473ffffffffffffffffffffffffffffffffffffffff166007600061413b8460016162ee565b815260200190815260200160002060030160009054906101000a900473ffffffffffffffffffffffffffffffffffffffff1673ffffffffffffffffffffffffffffffffffffffff161415614197576141948360016162ee565b92505b80806141a29061832b565b91505061410b565b5060008267ffffffffffffffff8111156141ed577f4e487b7100000000000000000000000000000000000000000000000000000000600052604160045260246000fd5b60405190808252806020026020018201604052801561422657816020015b6142136163a5565b81526020019060019003908161420b5790505b50905060005b600354811015614561578573ffffffffffffffffffffffffffffffffffffffff166007600061425c8460016162ee565b815260200190815260200160002060030160009054906101000a900473ffffffffffffffffffffffffffffffffffffffff1673ffffffffffffffffffffffffffffffffffffffff16141561454e57600760006001836142bb9190617fee565b81526020019081526020016000206040518061016001604052908160008201548152602001600182015481526020016002820160009054906101000a900473ffffffffffffffffffffffffffffffffffffffff1673ffffffffffffffffffffffffffffffffffffffff1673ffffffffffffffffffffffffffffffffffffffff1681526020016003820160009054906101000a900473ffffffffffffffffffffffffffffffffffffffff1673ffffffffffffffffffffffffffffffffffffffff1673ffffffffffffffffffffffffffffffffffffffff168152602001600482015481526020016005820160009054906101000a900460ff161515151581526020016006820154815260200160078201548152602001600882015481526020016009820180546143e8906182c8565b80601f0160208091040260200160405190810160405280929190818152602001828054614414906182c8565b80156144615780601f1061443657610100808354040283529160200191614461565b820191906000526020600020905b81548152906001019060200180831161444457829003601f168201915b50505050508152602001600a8201805461447a906182c8565b80601f01602080910402602001604051908101604052809291908181526020018280546144a6906182c8565b80156144f35780601f106144c8576101008083540402835291602001916144f3565b820191906000526020600020905b8154815290600101906020018083116144d657829003601f168201915b505050505081525050828481518110614535577f4e487b7100000000000000000000000000000000000000000000000000000000600052603260045260246000fd5b602002602001018190525061454b8360016162ee565b92505b80806145599061832b565b91505061422c565b50809350505050919050565b600160009054906101000a900473ffffffffffffffffffffffffffffffffffffffff1673ffffffffffffffffffffffffffffffffffffffff163373ffffffffffffffffffffffffffffffffffffffff16146145c757600080fd5b600560009054906101000a900473ffffffffffffffffffffffffffffffffffffffff1673ffffffffffffffffffffffffffffffffffffffff166304833d988888878787878c6040518863ffffffff1660e01b815260040161462e9796959493929190617e0b565b600060405180830381600087803b15801561464857600080fd5b505af115801561465c573d6000803e3d6000fd5b5050505050505050505050565b6060600080600460009054906101000a900473ffffffffffffffffffffffffffffffffffffffff1673ffffffffffffffffffffffffffffffffffffffff16639456c2ac856040518263ffffffff1660e01b81526004016146c991906175a1565b60206040518083038186803b1580156146e157600080fd5b505afa1580156146f5573d6000803e3d6000fd5b505050506040513d601f19601f820116820180604052508101906147199190616bb2565b67ffffffffffffffff811115614758577f4e487b7100000000000000000000000000000000000000000000000000000000600052604160045260246000fd5b60405190808252806020026020018201604052801561479157816020015b61477e616346565b8152602001906001900390816147765790505b50905060005b600460009054906101000a900473ffffffffffffffffffffffffffffffffffffffff1673ffffffffffffffffffffffffffffffffffffffff16639456c2ac866040518263ffffffff1660e01b81526004016147f291906175a1565b60206040518083038186803b15801561480a57600080fd5b505afa15801561481e573d6000803e3d6000fd5b505050506040513d601f19601f820116820180604052508101906148429190616bb2565b81101561496857600460009054906101000a900473ffffffffffffffffffffffffffffffffffffffff1673ffffffffffffffffffffffffffffffffffffffff1663e69c6249866001846148959190617fee565b6040518363ffffffff1660e01b81526004016148b292919061767c565b60a06040518083038186803b1580156148ca57600080fd5b505afa1580156148de573d6000803e3d6000fd5b505050506040513d601f19601f820116820180604052508101906149029190616b60565b82848151811061493b577f4e487b7100000000000000000000000000000000000000000000000000000000600052603260045260246000fd5b60200260200101819052506001836149539190617fee565b925080806149609061832b565b915050614797565b508092505050919050565b606060008060025467ffffffffffffffff8111156149ba577f4e487b7100000000000000000000000000000000000000000000000000000000600052604160045260246000fd5b6040519080825280602002602001820160405280156149f357816020015b6149e06163a5565b8152602001906001900390816149d85790505b5090506000600190505b6002548111614e0c5760076000600660009054906101000a900473ffffffffffffffffffffffffffffffffffffffff1673ffffffffffffffffffffffffffffffffffffffff16635b33397f600660009054906101000a900473ffffffffffffffffffffffffffffffffffffffff1673ffffffffffffffffffffffffffffffffffffffff166340d82e6c866040518263ffffffff1660e01b8152600401614aa391906178d4565b60006040518083038186803b158015614abb57600080fd5b505afa158015614acf573d6000803e3d6000fd5b505050506040513d6000823e3d601f19601f82011682018060405250810190614af89190616aa2565b60016040518363ffffffff1660e01b8152600401614b17929190617786565b60206040518083038186803b158015614b2f57600080fd5b505afa158015614b43573d6000803e3d6000fd5b505050506040513d601f19601f82011682018060405250810190614b679190616bb2565b81526020019081526020016000206040518061016001604052908160008201548152602001600182015481526020016002820160009054906101000a900473ffffffffffffffffffffffffffffffffffffffff1673ffffffffffffffffffffffffffffffffffffffff1673ffffffffffffffffffffffffffffffffffffffff1681526020016003820160009054906101000a900473ffffffffffffffffffffffffffffffffffffffff1673ffffffffffffffffffffffffffffffffffffffff1673ffffffffffffffffffffffffffffffffffffffff168152602001600482015481526020016005820160009054906101000a900460ff16151515158152602001600682015481526020016007820154815260200160088201548152602001600982018054614c94906182c8565b80601f0160208091040260200160405190810160405280929190818152602001828054614cc0906182c8565b8015614d0d5780601f10614ce257610100808354040283529160200191614d0d565b820191906000526020600020905b815481529060010190602001808311614cf057829003601f168201915b50505050508152602001600a82018054614d26906182c8565b80601f0160208091040260200160405190810160405280929190818152602001828054614d52906182c8565b8015614d9f5780601f10614d7457610100808354040283529160200191614d9f565b820191906000526020600020905b815481529060010190602001808311614d8257829003601f168201915b505050505081525050828481518110614de1577f4e487b7100000000000000000000000000000000000000000000000000000000600052603260045260246000fd5b6020026020010181905250614df78360016162ee565b92508080614e049061832b565b9150506149fd565b50809250505090565b60026000541415614e5b576040517f08c379a0000000000000000000000000000000000000000000000000000000008152600401614e5290617892565b60405180910390fd5b60026000819055508273ffffffffffffffffffffffffffffffffffffffff166323b872dd3383856040518463ffffffff1660e01b8152600401614ea093929190617645565b600060405180830381600087803b158015614eba57600080fd5b505af1158015614ece573d6000803e3d6000fd5b50505050806007600084815260200190815260200160002060020160006101000a81548173ffffffffffffffffffffffffffffffffffffffff021916908373ffffffffffffffffffffffffffffffffffffffff160217905550614f48600760008481526020019081526020016000206007015460016162ee565b6007600084815260200190815260200160002060070181905550600560009054906101000a900473ffffffffffffffffffffffffffffffffffffffff1673ffffffffffffffffffffffffffffffffffffffff166304833d98836007600086815260200190815260200160002060070154338560004260046040518863ffffffff1660e01b8152600401614fe19796959493929190617cbe565b600060405180830381600087803b158015614ffb57600080fd5b505af115801561500f573d6000803e3d6000fd5b505050506000600190505b6007600084815260200190815260200160002060080154811161534a57600460009054906101000a900473ffffffffffffffffffffffffffffffffffffffff1673ffffffffffffffffffffffffffffffffffffffff16637c93564c84836040518363ffffffff1660e01b81526004016150949291906179b1565b60206040518083038186803b1580156150ac57600080fd5b505afa1580156150c0573d6000803e3d6000fd5b505050506040513d601f19601f820116820180604052508101906150e49190616a38565b615337576000600460009054906101000a900473ffffffffffffffffffffffffffffffffffffffff1673ffffffffffffffffffffffffffffffffffffffff16639b125c4885846040518363ffffffff1660e01b81526004016151479291906179b1565b60206040518083038186803b15801561515f57600080fd5b505afa158015615173573d6000803e3d6000fd5b505050506040513d601f19601f8201168201806040525081019061519791906168ba565b90506000600460009054906101000a900473ffffffffffffffffffffffffffffffffffffffff1673ffffffffffffffffffffffffffffffffffffffff1663c4e2823786856040518363ffffffff1660e01b81526004016151f89291906179b1565b60206040518083038186803b15801561521057600080fd5b505afa158015615224573d6000803e3d6000fd5b505050506040513d601f19601f820116820180604052508101906152489190616bb2565b9050600460009054906101000a900473ffffffffffffffffffffffffffffffffffffffff1673ffffffffffffffffffffffffffffffffffffffff16636c97899186856040518363ffffffff1660e01b81526004016152a79291906179b1565b600060405180830381600087803b1580156152c157600080fd5b505af11580156152d5573d6000803e3d6000fd5b505050508173ffffffffffffffffffffffffffffffffffffffff166108fc615308615301846066616304565b606461631a565b9081150290604051600060405180830381858888f19350505050158015615333573d6000803e3d6000fd5b5050505b80806153429061832b565b91505061501a565b50600060076000848152602001908152602001600020600801819055506001600081905550505050565b60025481565b600260005414156153c0576040517f08c379a00000000000000000000000000000000000000000000000000000000081526004016153b790617892565b60405180910390fd5b6002600081905550600086116153d557600080fd5b600160009054906101000a900473ffffffffffffffffffffffffffffffffffffffff1673ffffffffffffffffffffffffffffffffffffffff163373ffffffffffffffffffffffffffffffffffffffff161461542f57600080fd5b6040518061016001604052808b81526020018a81526020018973ffffffffffffffffffffffffffffffffffffffff1681526020018873ffffffffffffffffffffffffffffffffffffffff16815260200187815260200186151581526020018581526020018481526020016000815260200183815260200182815250600760008c8152602001908152602001600020600082015181600001556020820151816001015560408201518160020160006101000a81548173ffffffffffffffffffffffffffffffffffffffff021916908373ffffffffffffffffffffffffffffffffffffffff16021790555060608201518160030160006101000a81548173ffffffffffffffffffffffffffffffffffffffff021916908373ffffffffffffffffffffffffffffffffffffffff1602179055506080820151816004015560a08201518160050160006101000a81548160ff02191690831515021790555060c0820151816006015560e0820151816007015561010082015181600801556101208201518160090190805190602001906155c59291906164c0565b5061014082015181600a0190805190602001906155e39291906164c0565b5090505089600381905550600073ffffffffffffffffffffffffffffffffffffffff16600660009054906101000a900473ffffffffffffffffffffffffffffffffffffffff1673ffffffffffffffffffffffffffffffffffffffff1663128683ac836040518263ffffffff1660e01b81526004016156619190617726565b60206040518083038186803b15801561567957600080fd5b505afa15801561568d573d6000803e3d6000fd5b505050506040513d601f19601f820116820180604052508101906156b19190616891565b73ffffffffffffffffffffffffffffffffffffffff161415615811576001600260008282546156e09190617fee565b92505081905550600660009054906101000a900473ffffffffffffffffffffffffffffffffffffffff1673ffffffffffffffffffffffffffffffffffffffff16632e92f4a582336002546040518463ffffffff1660e01b815260040161574893929190617748565b600060405180830381600087803b15801561576257600080fd5b505af1158015615776573d6000803e3d6000fd5b50505050600660009054906101000a900473ffffffffffffffffffffffffffffffffffffffff1673ffffffffffffffffffffffffffffffffffffffff1663a7d5307a8260018d6040518463ffffffff1660e01b81526004016157da939291906177b6565b600060405180830381600087803b1580156157f457600080fd5b505af1158015615808573d6000803e3d6000fd5b505050506159da565b600660009054906101000a900473ffffffffffffffffffffffffffffffffffffffff1673ffffffffffffffffffffffffffffffffffffffff16636cf5efc2826040518263ffffffff1660e01b815260040161586c9190617726565b600060405180830381600087803b15801561588657600080fd5b505af115801561589a573d6000803e3d6000fd5b50505050600660009054906101000a900473ffffffffffffffffffffffffffffffffffffffff1673ffffffffffffffffffffffffffffffffffffffff1663a7d5307a82600660009054906101000a900473ffffffffffffffffffffffffffffffffffffffff1673ffffffffffffffffffffffffffffffffffffffff1663b771362a856040518263ffffffff1660e01b81526004016159389190617726565b60206040518083038186803b15801561595057600080fd5b505afa158015615964573d6000803e3d6000fd5b505050506040513d601f19601f820116820180604052508101906159889190616bb2565b8d6040518463ffffffff1660e01b81526004016159a793929190617824565b600060405180830381600087803b1580156159c157600080fd5b505af11580156159d5573d6000803e3d6000fd5b505050505b600160008190555050505050505050505050565b60076020528060005260406000206000915090508060000154908060010154908060020160009054906101000a900473ffffffffffffffffffffffffffffffffffffffff16908060030160009054906101000a900473ffffffffffffffffffffffffffffffffffffffff16908060040154908060050160009054906101000a900460ff1690806006015490806007015490806008015490806009018054615a94906182c8565b80601f0160208091040260200160405190810160405280929190818152602001828054615ac0906182c8565b8015615b0d5780601f10615ae257610100808354040283529160200191615b0d565b820191906000526020600020905b815481529060010190602001808311615af057829003601f168201915b50505050509080600a018054615b22906182c8565b80601f0160208091040260200160405190810160405280929190818152602001828054615b4e906182c8565b8015615b9b5780601f10615b7057610100808354040283529160200191615b9b565b820191906000526020600020905b815481529060010190602001808311615b7e57829003601f168201915b505050505090508b565b600660009054906101000a900473ffffffffffffffffffffffffffffffffffffffff1673ffffffffffffffffffffffffffffffffffffffff16631e54294a83836040518363ffffffff1660e01b8152600401615c029291906177f4565b600060405180830381600087803b158015615c1c57600080fd5b505af1158015615c30573d6000803e3d6000fd5b505050505050565b60026000541415615c7e576040517f08c379a0000000000000000000000000000000000000000000000000000000008152600401615c7590617892565b60405180910390fd5b600260008190555060008611615c9357600080fd5b600560009054906101000a900473ffffffffffffffffffffffffffffffffffffffff1673ffffffffffffffffffffffffffffffffffffffff166304833d988b6001336000804260006040518863ffffffff1660e01b8152600401615cfd9796959493929190617942565b600060405180830381600087803b158015615d1757600080fd5b505af1158015615d2b573d6000803e3d6000fd5b505050506040518061016001604052808b81526020018a81526020018973ffffffffffffffffffffffffffffffffffffffff1681526020018873ffffffffffffffffffffffffffffffffffffffff16815260200187815260200186151581526020018581526020018481526020016000815260200183815260200182815250600760008c8152602001908152602001600020600082015181600001556020820151816001015560408201518160020160006101000a81548173ffffffffffffffffffffffffffffffffffffffff021916908373ffffffffffffffffffffffffffffffffffffffff16021790555060608201518160030160006101000a81548173ffffffffffffffffffffffffffffffffffffffff021916908373ffffffffffffffffffffffffffffffffffffffff1602179055506080820151816004015560a08201518160050160006101000a81548160ff02191690831515021790555060c0820151816006015560e082015181600701556101008201518160080155610120820151816009019080519060200190615ec59291906164c0565b5061014082015181600a019080519060200190615ee39291906164c0565b5090505089600381905550600073ffffffffffffffffffffffffffffffffffffffff16600660009054906101000a900473ffffffffffffffffffffffffffffffffffffffff1673ffffffffffffffffffffffffffffffffffffffff1663128683ac836040518263ffffffff1660e01b8152600401615f619190617726565b60206040518083038186803b158015615f7957600080fd5b505afa158015615f8d573d6000803e3d6000fd5b505050506040513d601f19601f82011682018060405250810190615fb19190616891565b73ffffffffffffffffffffffffffffffffffffffff16141561611157600160026000828254615fe09190617fee565b92505081905550600660009054906101000a900473ffffffffffffffffffffffffffffffffffffffff1673ffffffffffffffffffffffffffffffffffffffff16632e92f4a582336002546040518463ffffffff1660e01b815260040161604893929190617748565b600060405180830381600087803b15801561606257600080fd5b505af1158015616076573d6000803e3d6000fd5b50505050600660009054906101000a900473ffffffffffffffffffffffffffffffffffffffff1673ffffffffffffffffffffffffffffffffffffffff1663a7d5307a8260018d6040518463ffffffff1660e01b81526004016160da939291906177b6565b600060405180830381600087803b1580156160f457600080fd5b505af1158015616108573d6000803e3d6000fd5b505050506162da565b600660009054906101000a900473ffffffffffffffffffffffffffffffffffffffff1673ffffffffffffffffffffffffffffffffffffffff16636cf5efc2826040518263ffffffff1660e01b815260040161616c9190617726565b600060405180830381600087803b15801561618657600080fd5b505af115801561619a573d6000803e3d6000fd5b50505050600660009054906101000a900473ffffffffffffffffffffffffffffffffffffffff1673ffffffffffffffffffffffffffffffffffffffff1663a7d5307a82600660009054906101000a900473ffffffffffffffffffffffffffffffffffffffff1673ffffffffffffffffffffffffffffffffffffffff1663b771362a856040518263ffffffff1660e01b81526004016162389190617726565b60206040518083038186803b15801561625057600080fd5b505afa158015616264573d6000803e3d6000fd5b505050506040513d601f19601f820116820180604052508101906162889190616bb2565b8d6040518463ffffffff1660e01b81526004016162a793929190617824565b600060405180830381600087803b1580156162c157600080fd5b505af11580156162d5573d6000803e3d6000fd5b505050505b600160008190555050505050505050505050565b600081836162fc9190617fee565b905092915050565b600081836163129190618075565b905092915050565b600081836163289190618044565b905092915050565b6000818361633e91906180cf565b905092915050565b6040518060a0016040528060008152602001600073ffffffffffffffffffffffffffffffffffffffff168152602001600073ffffffffffffffffffffffffffffffffffffffff1681526020016000151581526020016000151581525090565b6040518061016001604052806000815260200160008152602001600073ffffffffffffffffffffffffffffffffffffffff168152602001600073ffffffffffffffffffffffffffffffffffffffff1681526020016000815260200160001515815260200160008152602001600081526020016000815260200160608152602001606081525090565b6040518060a0016040528060006008811115616472577f4e487b7100000000000000000000000000000000000000000000000000000000600052602160045260246000fd5b8152602001600073ffffffffffffffffffffffffffffffffffffffff168152602001600073ffffffffffffffffffffffffffffffffffffffff16815260200160008152602001600081525090565b8280546164cc906182c8565b90600052602060002090601f0160209004810192826164ee5760008555616535565b82601f1061650757805160ff1916838001178555616535565b82800160010185558215616535579182015b82811115616534578251825591602001919060010190616519565b5b5090506165429190616546565b5090565b5b8082111561655f576000816000905550600101616547565b5090565b600061657661657184617e9f565b617e7a565b90508281526020810184848401111561658e57600080fd5b616599848285618286565b509392505050565b60006165b46165af84617ed0565b617e7a565b9050828152602081018484840111156165cc57600080fd5b6165d7848285618286565b509392505050565b60006165f26165ed84617ed0565b617e7a565b90508281526020810184848401111561660a57600080fd5b616615848285618295565b509392505050565b60008135905061662c816184ad565b92915050565b600081519050616641816184ad565b92915050565b600081359050616656816184c4565b92915050565b60008151905061666b816184c4565b92915050565b600081359050616680816184db565b92915050565b600081519050616695816184db565b92915050565b600082601f8301126166ac57600080fd5b81356166bc848260208601616563565b91505092915050565b6000815190506166d4816184f2565b92915050565b600082601f8301126166eb57600080fd5b81356166fb8482602086016165a1565b91505092915050565b600082601f83011261671557600080fd5b81516167258482602086016165df565b91505092915050565b600060a0828403121561674057600080fd5b61674a60a0617e7a565b9050600061675a848285016166c5565b600083015250602061676e84828501616632565b602083015250604061678284828501616632565b604083015250606061679684828501616853565b60608301525060806167aa84828501616853565b60808301525092915050565b600060a082840312156167c857600080fd5b6167d260a0617e7a565b905060006167e284828501616853565b60008301525060206167f68482850161665c565b602083015250604061680a8482850161665c565b604083015250606061681e84828501616686565b606083015250608061683284828501616686565b60808301525092915050565b60008135905061684d81618502565b92915050565b60008151905061686281618502565b92915050565b60006020828403121561687a57600080fd5b60006168888482850161661d565b91505092915050565b6000602082840312156168a357600080fd5b60006168b184828501616632565b91505092915050565b6000602082840312156168cc57600080fd5b60006168da8482850161665c565b91505092915050565b600080600080608085870312156168f957600080fd5b60006169078782880161661d565b94505060206169188782880161661d565b93505060406169298782880161683e565b925050606085013567ffffffffffffffff81111561694657600080fd5b6169528782880161669b565b91505092959194509250565b6000806040838503121561697157600080fd5b600061697f8582860161661d565b92505060206169908582860161683e565b9150509250929050565b6000806000606084860312156169af57600080fd5b60006169bd8682870161661d565b93505060206169ce8682870161683e565b92505060406169df8682870161661d565b9150509250925092565b6000806000606084860312156169fe57600080fd5b6000616a0c8682870161661d565b9350506020616a1d8682870161683e565b9250506040616a2e8682870161683e565b9150509250925092565b600060208284031215616a4a57600080fd5b6000616a5884828501616686565b91505092915050565b600060208284031215616a7357600080fd5b600082013567ffffffffffffffff811115616a8d57600080fd5b616a99848285016166da565b91505092915050565b600060208284031215616ab457600080fd5b600082015167ffffffffffffffff811115616ace57600080fd5b616ada84828501616704565b91505092915050565b60008060408385031215616af657600080fd5b600083013567ffffffffffffffff811115616b1057600080fd5b616b1c858286016166da565b9250506020616b2d8582860161683e565b9150509250929050565b600060a08284031215616b4957600080fd5b6000616b578482850161672e565b91505092915050565b600060a08284031215616b7257600080fd5b6000616b80848285016167b6565b91505092915050565b600060208284031215616b9b57600080fd5b6000616ba98482850161683e565b91505092915050565b600060208284031215616bc457600080fd5b6000616bd284828501616853565b91505092915050565b60008060408385031215616bee57600080fd5b6000616bfc8582860161683e565b9250506020616c0d8582860161683e565b9150509250929050565b600080600060608486031215616c2c57600080fd5b6000616c3a8682870161683e565b9350506020616c4b8682870161683e565b9250506040616c5c8682870161661d565b9150509250925092565b6000806000806000806000806000806101408b8d031215616c8657600080fd5b6000616c948d828e0161683e565b9a50506020616ca58d828e0161683e565b9950506040616cb68d828e01616647565b9850506060616cc78d828e0161661d565b9750506080616cd88d828e0161683e565b96505060a0616ce98d828e01616671565b95505060c0616cfa8d828e0161683e565b94505060e0616d0b8d828e0161683e565b9350506101008b013567ffffffffffffffff811115616d2957600080fd5b616d358d828e016166da565b9250506101208b013567ffffffffffffffff811115616d5357600080fd5b616d5f8d828e016166da565b9150509295989b9194979a5092959850565b60008060008060008060008060008060006101608c8e031215616d9357600080fd5b6000616da18e828f0161683e565b9b50506020616db28e828f0161683e565b9a50506040616dc38e828f01616647565b9950506060616dd48e828f0161661d565b9850506080616de58e828f0161683e565b97505060a0616df68e828f01616671565b96505060c0616e078e828f0161683e565b95505060e0616e188e828f0161683e565b945050610100616e2a8e828f0161683e565b9350506101208c013567ffffffffffffffff811115616e4857600080fd5b616e548e828f016166da565b9250506101408c013567ffffffffffffffff811115616e7257600080fd5b616e7e8e828f016166da565b9150509295989b509295989b9093969950565b600080600080600080600060e0888a031215616eac57600080fd5b6000616eba8a828b0161683e565b9750506020616ecb8a828b0161683e565b9650506040616edc8a828b0161683e565b9550506060616eed8a828b0161661d565b9450506080616efe8a828b0161661d565b93505060a0616f0f8a828b0161683e565b92505060c0616f208a828b0161683e565b91505092959891949750929550565b6000616f3b83836172c7565b60a08301905092915050565b6000616f53838361732f565b905092915050565b6000616f67838361751b565b60a08301905092915050565b616f7c8161819c565b82525050565b616f8b81618115565b82525050565b616f9a81618115565b82525050565b616fa981618103565b82525050565b616fb881618103565b82525050565b6000616fc982617f46565b616fd38185617f99565b9350616fde83617f01565b8060005b8381101561700f578151616ff68882616f2f565b975061700183617f72565b925050600181019050616fe2565b5085935050505092915050565b600061702782617f51565b6170318185617faa565b93508360208202850161704385617f11565b8060005b8581101561707f57848403895281516170608582616f47565b945061706b83617f7f565b925060208a01995050600181019050617047565b50829750879550505050505092915050565b600061709c82617f5c565b6170a68185617fbb565b93506170b183617f21565b8060005b838110156170e25781516170c98882616f5b565b97506170d483617f8c565b9250506001810190506170b5565b5085935050505092915050565b6170f881618127565b82525050565b61710781618127565b82525050565b61711681618133565b82525050565b617125816181ae565b82525050565b617134816181c0565b82525050565b617143816181d2565b82525050565b617152816181e4565b82525050565b617161816181f6565b82525050565b61717081618208565b82525050565b61717f8161821a565b82525050565b61718e8161822c565b82525050565b61719d8161823e565b82525050565b6171ac81618250565b82525050565b60006171bd82617f67565b6171c78185617fcc565b93506171d7818560208601618295565b6171e08161845f565b840191505092915050565b60006171f682617f67565b6172008185617fdd565b9350617210818560208601618295565b6172198161845f565b840191505092915050565b60008154617231816182c8565b61723b8186617fdd565b9450600182166000811461725657600181146172685761729b565b60ff198316865260208601935061729b565b61727185617f31565b60005b8381101561729357815481890152600182019150602081019050617274565b808801955050505b50505092915050565b60006172b1601f83617fdd565b91506172bc82618470565b602082019050919050565b60a0820160008201516172dd600085018261711c565b5060208201516172f06020850182616fa0565b5060408201516173036040850182616fa0565b5060608201516173166060850182617583565b5060808201516173296080850182617583565b50505050565b6000610160830160008301516173486000860182617583565b50602083015161735b6020860182617583565b50604083015161736e6040860182616f82565b5060608301516173816060860182616fa0565b5060808301516173946080860182617583565b5060a08301516173a760a08601826170ef565b5060c08301516173ba60c0860182617583565b5060e08301516173cd60e0860182617583565b506101008301516173e2610100860182617583565b506101208301518482036101208601526173fc82826171b2565b91505061014083015184820361014086015261741882826171b2565b9150508091505092915050565b60006101608301600083015161743e6000860182617583565b5060208301516174516020860182617583565b5060408301516174646040860182616f82565b5060608301516174776060860182616fa0565b50608083015161748a6080860182617583565b5060a083015161749d60a08601826170ef565b5060c08301516174b060c0860182617583565b5060e08301516174c360e0860182617583565b506101008301516174d8610100860182617583565b506101208301518482036101208601526174f282826171b2565b91505061014083015184820361014086015261750e82826171b2565b9150508091505092915050565b60a0820160008201516175316000850182617583565b5060208201516175446020850182616f82565b5060408201516175576040850182616f82565b50606082015161756a60608501826170ef565b50608082015161757d60808501826170ef565b50505050565b61758c81618192565b82525050565b61759b81618192565b82525050565b60006020820190506175b66000830184616faf565b92915050565b60006020820190506175d16000830184616f91565b92915050565b60006060820190506175ec6000830186616f73565b6175f96020830185616f73565b6176066040830184617592565b949350505050565b60006060820190506176236000830186616faf565b6176306020830185616f73565b61763d6040830184617592565b949350505050565b600060608201905061765a6000830186616faf565b6176676020830185616faf565b6176746040830184617592565b949350505050565b60006040820190506176916000830185616faf565b61769e6020830184617592565b9392505050565b600060208201905081810360008301526176bf8184616fbe565b905092915050565b600060208201905081810360008301526176e1818461701c565b905092915050565b600060208201905081810360008301526177038184617091565b905092915050565b6000602082019050617720600083018461710d565b92915050565b6000602082019050818103600083015261774081846171eb565b905092915050565b6000606082019050818103600083015261776281866171eb565b90506177716020830185616faf565b61777e6040830184617592565b949350505050565b600060408201905081810360008301526177a081856171eb565b90506177af602083018461713a565b9392505050565b600060608201905081810360008301526177d081866171eb565b90506177df602083018561713a565b6177ec6040830184617592565b949350505050565b6000604082019050818103600083015261780e81856171eb565b905061781d6020830184617592565b9392505050565b6000606082019050818103600083015261783e81866171eb565b905061784d6020830185617592565b61785a6040830184617592565b949350505050565b6000604082019050818103600083015261787c8185617224565b905061788b6020830184617592565b9392505050565b600060208201905081810360008301526178ab816172a4565b9050919050565b600060208201905081810360008301526178cc8184617425565b905092915050565b60006020820190506178e96000830184617592565b92915050565b600060a0820190506179046000830188617592565b6179116020830187616f91565b61791e6040830186616f91565b61792b6060830185617592565b6179386080830184617592565b9695505050505050565b600060e082019050617957600083018a617592565b617964602083018961713a565b6179716040830188616faf565b61797e6060830187616faf565b61798b608083018661712b565b61799860a0830185617592565b6179a560c083018461712b565b98975050505050505050565b60006040820190506179c66000830185617592565b6179d36020830184617592565b9392505050565b600060e0820190506179ef600083018a617592565b6179fc6020830189617592565b617a096040830188616f73565b617a166060830187616f73565b617a236080830186617592565b617a3060a0830185617592565b617a3d60c08301846171a3565b98975050505050505050565b600061016082019050617a5f600083018e617592565b617a6c602083018d617592565b617a79604083018c616f91565b617a86606083018b616faf565b617a93608083018a617592565b617aa060a08301896170fe565b617aad60c0830188617592565b617aba60e0830187617592565b617ac8610100830186617592565b818103610120830152617adb81856171eb565b9050818103610140830152617af081846171eb565b90509c9b505050505050505050505050565b600060e082019050617b17600083018a617592565b617b246020830189617592565b617b316040830188616f73565b617b3e6060830187616faf565b617b4b6080830186617592565b617b5860a0830185617592565b617b6560c0830184617158565b98975050505050505050565b600060e082019050617b86600083018a617592565b617b936020830189617592565b617ba06040830188616faf565b617bad6060830187616f73565b617bba6080830186617592565b617bc760a0830185617592565b617bd460c0830184617185565b98975050505050505050565b600060e082019050617bf5600083018a617592565b617c026020830189617592565b617c0f6040830188616faf565b617c1c6060830187616f73565b617c296080830186617592565b617c3660a0830185617592565b617c4360c0830184617194565b98975050505050505050565b600060e082019050617c64600083018a617592565b617c716020830189617592565b617c7e6040830188616faf565b617c8b6060830187616faf565b617c98608083018661712b565b617ca560a0830185617592565b617cb260c0830184617149565b98975050505050505050565b600060e082019050617cd3600083018a617592565b617ce06020830189617592565b617ced6040830188616faf565b617cfa6060830187616faf565b617d07608083018661712b565b617d1460a0830185617592565b617d2160c0830184617167565b98975050505050505050565b600060e082019050617d42600083018a617592565b617d4f6020830189617592565b617d5c6040830188616faf565b617d696060830187616faf565b617d766080830186617592565b617d8360a0830185617592565b617d9060c083018461713a565b98975050505050505050565b600060e082019050617db1600083018a617592565b617dbe6020830189617592565b617dcb6040830188616faf565b617dd86060830187616faf565b617de56080830186617592565b617df260a0830185617592565b617dff60c0830184617176565b98975050505050505050565b600060e082019050617e20600083018a617592565b617e2d6020830189617592565b617e3a6040830188616faf565b617e476060830187616faf565b617e546080830186617592565b617e6160a0830185617592565b617e6e60c0830184617592565b98975050505050505050565b6000617e84617e95565b9050617e9082826182fa565b919050565b6000604051905090565b600067ffffffffffffffff821115617eba57617eb9618430565b5b617ec38261845f565b9050602081019050919050565b600067ffffffffffffffff821115617eeb57617eea618430565b5b617ef48261845f565b9050602081019050919050565b6000819050602082019050919050565b6000819050602082019050919050565b6000819050602082019050919050565b60008190508160005260206000209050919050565b600081519050919050565b600081519050919050565b600081519050919050565b600081519050919050565b6000602082019050919050565b6000602082019050919050565b6000602082019050919050565b600082825260208201905092915050565b600082825260208201905092915050565b600082825260208201905092915050565b600082825260208201905092915050565b600082825260208201905092915050565b6000617ff982618192565b915061800483618192565b9250827fffffffffffffffffffffffffffffffffffffffffffffffffffffffffffffffff0382111561803957618038618374565b5b828201905092915050565b600061804f82618192565b915061805a83618192565b92508261806a576180696183a3565b5b828204905092915050565b600061808082618192565b915061808b83618192565b9250817fffffffffffffffffffffffffffffffffffffffffffffffffffffffffffffffff04831182151516156180c4576180c3618374565b5b828202905092915050565b60006180da82618192565b91506180e583618192565b9250828210156180f8576180f7618374565b5b828203905092915050565b600061810e82618172565b9050919050565b600061812082618172565b9050919050565b60008115159050919050565b60007fffffffff0000000000000000000000000000000000000000000000000000000082169050919050565b600081905061816d82618499565b919050565b600073ffffffffffffffffffffffffffffffffffffffff82169050919050565b6000819050919050565b60006181a782618262565b9050919050565b60006181b98261815f565b9050919050565b60006181cb82618192565b9050919050565b60006181dd82618192565b9050919050565b60006181ef82618192565b9050919050565b600061820182618192565b9050919050565b600061821382618192565b9050919050565b600061822582618192565b9050919050565b600061823782618192565b9050919050565b600061824982618192565b9050919050565b600061825b82618192565b9050919050565b600061826d82618274565b9050919050565b600061827f82618172565b9050919050565b82818337600083830152505050565b60005b838110156182b3578082015181840152602081019050618298565b838111156182c2576000848401525b50505050565b600060028204905060018216806182e057607f821691505b602082108114156182f4576182f3618401565b5b50919050565b6183038261845f565b810181811067ffffffffffffffff8211171561832257618321618430565b5b80604052505050565b600061833682618192565b91507fffffffffffffffffffffffffffffffffffffffffffffffffffffffffffffffff82141561836957618368618374565b5b600182019050919050565b7f4e487b7100000000000000000000000000000000000000000000000000000000600052601160045260246000fd5b7f4e487b7100000000000000000000000000000000000000000000000000000000600052601260045260246000fd5b7f4e487b7100000000000000000000000000000000000000000000000000000000600052602160045260246000fd5b7f4e487b7100000000000000000000000000000000000000000000000000000000600052602260045260246000fd5b7f4e487b7100000000000000000000000000000000000000000000000000000000600052604160045260246000fd5b6000601f19601f8301169050919050565b7f5265656e7472616e637947756172643a207265656e7472616e742063616c6c00600082015250565b600981106184aa576184a96183d2565b5b50565b6184b681618103565b81146184c157600080fd5b50565b6184cd81618115565b81146184d857600080fd5b50565b6184e481618127565b81146184ef57600080fd5b50565b600981106184ff57600080fd5b50565b61850b81618192565b811461851657600080fd5b5056fea2646970667358221220392c18880d4958a5a6800163273fafcdb10ad321c60fbce59d1eaf8913e7ffa964736f6c63430008030033608060405234801561001057600080fd5b5061158a806100206000396000f3fe608060405234801561001057600080fd5b50600436106100cf5760003560e01c80639b125c481161008c578063afc5edcb11610066578063afc5edcb1461025c578063c45cc19014610278578063c4e28237146102a8578063e69c6249146102d8576100cf565b80639b125c48146101cc578063a61178bc146101fc578063a95087e31461022c576100cf565b80636c978991146100d45780637c4a9ba1146100f05780637c93564c1461010c5780637e32c4421461013c57806393a26cce1461016c5780639456c2ac1461019c575b600080fd5b6100ee60048036038101906100e99190611191565b610308565b005b61010a6004803603810190610105919061111a565b6103c6565b005b61012660048036038101906101219190611191565b6109a0565b60405161013391906112f0565b60405180910390f35b61015660048036038101906101519190611191565b6109de565b60405161016391906112d5565b60405180910390f35b610186600480360381019061018191906110b5565b610a2f565b6040516101939190611366565b60405180910390f35b6101b660048036038101906101b191906110b5565b610a78565b6040516101c39190611366565b60405180910390f35b6101e660048036038101906101e19190611191565b610ac1565b6040516101f391906112d5565b60405180910390f35b61021660048036038101906102119190611191565b610b12565b60405161022391906112f0565b60405180910390f35b610246600480360381019061024191906110de565b610b50565b604051610253919061134b565b60405180910390f35b61027660048036038101906102719190611191565b610ca7565b005b610292600480360381019061028d9190611191565b610d65565b60405161029f919061134b565b60405180910390f35b6102c260048036038101906102bd9190611191565b610e8f565b6040516102cf9190611366565b60405180910390f35b6102f260048036038101906102ed91906110de565b610ec0565b6040516102ff919061134b565b60405180910390f35b60011515600080848152602001908152602001600020600083815260200190815260200160002060020160159054906101000a900460ff1615151415610383576040517f08c379a000000000000000000000000000000000000000000000000000000000815260040161037a9061132b565b60405180910390fd5b6001600080848152602001908152602001600020600083815260200190815260200160002060020160146101000a81548160ff0219169083151502179055505050565b6040518060a001604052808681526020018573ffffffffffffffffffffffffffffffffffffffff1681526020018473ffffffffffffffffffffffffffffffffffffffff1681526020016000151581526020016000151581525060008084815260200190815260200160002060008381526020019081526020016000206000820151816000015560208201518160010160006101000a81548173ffffffffffffffffffffffffffffffffffffffff021916908373ffffffffffffffffffffffffffffffffffffffff16021790555060408201518160020160006101000a81548173ffffffffffffffffffffffffffffffffffffffff021916908373ffffffffffffffffffffffffffffffffffffffff16021790555060608201518160020160146101000a81548160ff02191690831515021790555060808201518160020160156101000a81548160ff0219169083151502179055509050506001600260008673ffffffffffffffffffffffffffffffffffffffff1673ffffffffffffffffffffffffffffffffffffffff168152602001908152602001600020600082825461056d9190611392565b925050819055506000808381526020019081526020016000206000828152602001908152602001600020600160008673ffffffffffffffffffffffffffffffffffffffff1673ffffffffffffffffffffffffffffffffffffffff1681526020019081526020016000206000600260008873ffffffffffffffffffffffffffffffffffffffff1673ffffffffffffffffffffffffffffffffffffffff168152602001908152602001600020548152602001908152602001600020600082015481600001556001820160009054906101000a900473ffffffffffffffffffffffffffffffffffffffff168160010160006101000a81548173ffffffffffffffffffffffffffffffffffffffff021916908373ffffffffffffffffffffffffffffffffffffffff1602179055506002820160009054906101000a900473ffffffffffffffffffffffffffffffffffffffff168160020160006101000a81548173ffffffffffffffffffffffffffffffffffffffff021916908373ffffffffffffffffffffffffffffffffffffffff1602179055506002820160149054906101000a900460ff168160020160146101000a81548160ff0219169083151502179055506002820160159054906101000a900460ff168160020160156101000a81548160ff0219169083151502179055509050506001600460008573ffffffffffffffffffffffffffffffffffffffff1673ffffffffffffffffffffffffffffffffffffffff16815260200190815260200160002060008282546107ab9190611392565b925050819055506000808381526020019081526020016000206000828152602001908152602001600020600360008573ffffffffffffffffffffffffffffffffffffffff1673ffffffffffffffffffffffffffffffffffffffff1681526020019081526020016000206000600460008773ffffffffffffffffffffffffffffffffffffffff1673ffffffffffffffffffffffffffffffffffffffff168152602001908152602001600020548152602001908152602001600020600082015481600001556001820160009054906101000a900473ffffffffffffffffffffffffffffffffffffffff168160010160006101000a81548173ffffffffffffffffffffffffffffffffffffffff021916908373ffffffffffffffffffffffffffffffffffffffff1602179055506002820160009054906101000a900473ffffffffffffffffffffffffffffffffffffffff168160020160006101000a81548173ffffffffffffffffffffffffffffffffffffffff021916908373ffffffffffffffffffffffffffffffffffffffff1602179055506002820160149054906101000a900460ff168160020160146101000a81548160ff0219169083151502179055506002820160159054906101000a900460ff168160020160156101000a81548160ff0219169083151502179055509050505050505050565b6000806000848152602001908152602001600020600083815260200190815260200160002060020160149054906101000a900460ff16905092915050565b6000806000848152602001908152602001600020600083815260200190815260200160002060020160009054906101000a900473ffffffffffffffffffffffffffffffffffffffff16905092915050565b6000600460008373ffffffffffffffffffffffffffffffffffffffff1673ffffffffffffffffffffffffffffffffffffffff168152602001908152602001600020549050919050565b6000600260008373ffffffffffffffffffffffffffffffffffffffff1673ffffffffffffffffffffffffffffffffffffffff168152602001908152602001600020549050919050565b6000806000848152602001908152602001600020600083815260200190815260200160002060010160009054906101000a900473ffffffffffffffffffffffffffffffffffffffff16905092915050565b6000806000848152602001908152602001600020600083815260200190815260200160002060020160159054906101000a900460ff16905092915050565b610b58611017565b600360008473ffffffffffffffffffffffffffffffffffffffff1673ffffffffffffffffffffffffffffffffffffffff16815260200190815260200160002060008381526020019081526020016000206040518060a0016040529081600082015481526020016001820160009054906101000a900473ffffffffffffffffffffffffffffffffffffffff1673ffffffffffffffffffffffffffffffffffffffff1673ffffffffffffffffffffffffffffffffffffffff1681526020016002820160009054906101000a900473ffffffffffffffffffffffffffffffffffffffff1673ffffffffffffffffffffffffffffffffffffffff1673ffffffffffffffffffffffffffffffffffffffff1681526020016002820160149054906101000a900460ff161515151581526020016002820160159054906101000a900460ff161515151581525050905092915050565b60011515600080848152602001908152602001600020600083815260200190815260200160002060020160149054906101000a900460ff1615151415610d22576040517f08c379a0000000000000000000000000000000000000000000000000000000008152600401610d199061130b565b60405180910390fd5b6001600080848152602001908152602001600020600083815260200190815260200160002060020160156101000a81548160ff0219169083151502179055505050565b610d6d611017565b60008084815260200190815260200160002060008381526020019081526020016000206040518060a0016040529081600082015481526020016001820160009054906101000a900473ffffffffffffffffffffffffffffffffffffffff1673ffffffffffffffffffffffffffffffffffffffff1673ffffffffffffffffffffffffffffffffffffffff1681526020016002820160009054906101000a900473ffffffffffffffffffffffffffffffffffffffff1673ffffffffffffffffffffffffffffffffffffffff1673ffffffffffffffffffffffffffffffffffffffff1681526020016002820160149054906101000a900460ff161515151581526020016002820160159054906101000a900460ff161515151581525050905092915050565b6000806000848152602001908152602001600020600083815260200190815260200160002060000154905092915050565b610ec8611017565b600160008473ffffffffffffffffffffffffffffffffffffffff1673ffffffffffffffffffffffffffffffffffffffff16815260200190815260200160002060008381526020019081526020016000206040518060a0016040529081600082015481526020016001820160009054906101000a900473ffffffffffffffffffffffffffffffffffffffff1673ffffffffffffffffffffffffffffffffffffffff1673ffffffffffffffffffffffffffffffffffffffff1681526020016002820160009054906101000a900473ffffffffffffffffffffffffffffffffffffffff1673ffffffffffffffffffffffffffffffffffffffff1673ffffffffffffffffffffffffffffffffffffffff1681526020016002820160149054906101000a900460ff161515151581526020016002820160159054906101000a900460ff161515151581525050905092915050565b6040518060a0016040528060008152602001600073ffffffffffffffffffffffffffffffffffffffff168152602001600073ffffffffffffffffffffffffffffffffffffffff1681526020016000151581526020016000151581525090565b6000813590506110858161150f565b92915050565b60008135905061109a81611526565b92915050565b6000813590506110af8161153d565b92915050565b6000602082840312156110c757600080fd5b60006110d584828501611076565b91505092915050565b600080604083850312156110f157600080fd5b60006110ff85828601611076565b9250506020611110858286016110a0565b9150509250929050565b600080600080600060a0868803121561113257600080fd5b6000611140888289016110a0565b95505060206111518882890161108b565b94505060406111628882890161108b565b9350506060611173888289016110a0565b9250506080611184888289016110a0565b9150509295509295909350565b600080604083850312156111a457600080fd5b60006111b2858286016110a0565b92505060206111c3858286016110a0565b9150509250929050565b6111d6816113fa565b82525050565b6111e5816113fa565b82525050565b6111f48161140c565b82525050565b6112038161140c565b82525050565b6000611216602583611381565b915061122182611471565b604082019050919050565b6000611239602483611381565b9150611244826114c0565b604082019050919050565b60a08201600082015161126560008501826112b7565b50602082015161127860208501826111cd565b50604082015161128b60408501826111cd565b50606082015161129e60608501826111eb565b5060808201516112b160808501826111eb565b50505050565b6112c081611438565b82525050565b6112cf81611438565b82525050565b60006020820190506112ea60008301846111dc565b92915050565b600060208201905061130560008301846111fa565b92915050565b6000602082019050818103600083015261132481611209565b9050919050565b600060208201905081810360008301526113448161122c565b9050919050565b600060a082019050611360600083018461124f565b92915050565b600060208201905061137b60008301846112c6565b92915050565b600082825260208201905092915050565b600061139d82611438565b91506113a883611438565b9250827fffffffffffffffffffffffffffffffffffffffffffffffffffffffffffffffff038211156113dd576113dc611442565b5b828201905092915050565b60006113f382611418565b9050919050565b600061140582611418565b9050919050565b60008115159050919050565b600073ffffffffffffffffffffffffffffffffffffffff82169050919050565b6000819050919050565b7f4e487b7100000000000000000000000000000000000000000000000000000000600052601160045260246000fd5b7f546865204f666665722068617320616c7265616479206265656e20776974686460008201527f7261776e2e000000000000000000000000000000000000000000000000000000602082015250565b7f546865204f666665722068617320616c7265616479206265656e20616363657060008201527f7465642e00000000000000000000000000000000000000000000000000000000602082015250565b611518816113e8565b811461152357600080fd5b50565b61152f816113fa565b811461153a57600080fd5b50565b61154681611438565b811461155157600080fd5b5056fea2646970667358221220210b479ac9832d4f79c06b305e025315f371082989fc144d612cdee30c7ffcac64736f6c63430008030033608060405234801561001057600080fd5b50611596806100206000396000f3fe608060405234801561001057600080fd5b50600436106100365760003560e01c806304833d981461003b57806323daaaa114610057575b600080fd5b61005560048036038101906100509190611340565b610087565b005b610071600480360381019061006c9190611304565b610181565b60405161007e9190611473565b60405180910390f35b60008114156100a05761009b878684610306565b610178565b60018114156100bc576100b78787878787876104b8565b610177565b60028114156100d7576100d2878787878661066a565b610176565b60038114156100f3576100ee87878787878761081c565b610175565b600481141561010e5761010987878787866109ce565b610174565b600581141561012a57610125878787878787610b80565b610173565b600681141561014657610141878787878787610d32565b610172565b60078114156101625761015d878787878787610ee4565b610171565b610170878787878787611096565b5b5b5b5b5b5b5b5b50505050505050565b610189611247565b60008084815260200190815260200160002060008381526020019081526020016000206040518060a00160405290816000820160009054906101000a900460ff166008811115610202577f4e487b7100000000000000000000000000000000000000000000000000000000600052602160045260246000fd5b600881111561023a577f4e487b7100000000000000000000000000000000000000000000000000000000600052602160045260246000fd5b81526020016000820160019054906101000a900473ffffffffffffffffffffffffffffffffffffffff1673ffffffffffffffffffffffffffffffffffffffff1673ffffffffffffffffffffffffffffffffffffffff1681526020016001820160009054906101000a900473ffffffffffffffffffffffffffffffffffffffff1673ffffffffffffffffffffffffffffffffffffffff1673ffffffffffffffffffffffffffffffffffffffff16815260200160028201548152602001600382015481525050905092915050565b6040518060a001604052806000600881111561034b577f4e487b7100000000000000000000000000000000000000000000000000000000600052602160045260246000fd5b8152602001600073ffffffffffffffffffffffffffffffffffffffff1681526020018373ffffffffffffffffffffffffffffffffffffffff168152602001600081526020018281525060008085815260200190815260200160002060006001815260200190815260200160002060008201518160000160006101000a81548160ff02191690836008811115610409577f4e487b7100000000000000000000000000000000000000000000000000000000600052602160045260246000fd5b021790555060208201518160000160016101000a81548173ffffffffffffffffffffffffffffffffffffffff021916908373ffffffffffffffffffffffffffffffffffffffff16021790555060408201518160010160006101000a81548173ffffffffffffffffffffffffffffffffffffffff021916908373ffffffffffffffffffffffffffffffffffffffff1602179055506060820151816002015560808201518160030155905050505050565b6040518060a00160405280600160088111156104fd577f4e487b7100000000000000000000000000000000000000000000000000000000600052602160045260246000fd5b81526020018573ffffffffffffffffffffffffffffffffffffffff1681526020018473ffffffffffffffffffffffffffffffffffffffff16815260200183815260200182815250600080888152602001908152602001600020600087815260200190815260200160002060008201518160000160006101000a81548160ff021916908360088111156105b8577f4e487b7100000000000000000000000000000000000000000000000000000000600052602160045260246000fd5b021790555060208201518160000160016101000a81548173ffffffffffffffffffffffffffffffffffffffff021916908373ffffffffffffffffffffffffffffffffffffffff16021790555060408201518160010160006101000a81548173ffffffffffffffffffffffffffffffffffffffff021916908373ffffffffffffffffffffffffffffffffffffffff1602179055506060820151816002015560808201518160030155905050505050505050565b6040518060a00160405280600260088111156106af577f4e487b7100000000000000000000000000000000000000000000000000000000600052602160045260246000fd5b81526020018473ffffffffffffffffffffffffffffffffffffffff1681526020018373ffffffffffffffffffffffffffffffffffffffff1681526020016000815260200182815250600080878152602001908152602001600020600086815260200190815260200160002060008201518160000160006101000a81548160ff0219169083600881111561076b577f4e487b7100000000000000000000000000000000000000000000000000000000600052602160045260246000fd5b021790555060208201518160000160016101000a81548173ffffffffffffffffffffffffffffffffffffffff021916908373ffffffffffffffffffffffffffffffffffffffff16021790555060408201518160010160006101000a81548173ffffffffffffffffffffffffffffffffffffffff021916908373ffffffffffffffffffffffffffffffffffffffff16021790555060608201518160020155608082015181600301559050505050505050565b6040518060a0016040528060036008811115610861577f4e487b7100000000000000000000000000000000000000000000000000000000600052602160045260246000fd5b81526020018573ffffffffffffffffffffffffffffffffffffffff1681526020018473ffffffffffffffffffffffffffffffffffffffff16815260200183815260200182815250600080888152602001908152602001600020600087815260200190815260200160002060008201518160000160006101000a81548160ff0219169083600881111561091c577f4e487b7100000000000000000000000000000000000000000000000000000000600052602160045260246000fd5b021790555060208201518160000160016101000a81548173ffffffffffffffffffffffffffffffffffffffff021916908373ffffffffffffffffffffffffffffffffffffffff16021790555060408201518160010160006101000a81548173ffffffffffffffffffffffffffffffffffffffff021916908373ffffffffffffffffffffffffffffffffffffffff1602179055506060820151816002015560808201518160030155905050505050505050565b6040518060a0016040528060046008811115610a13577f4e487b7100000000000000000000000000000000000000000000000000000000600052602160045260246000fd5b81526020018473ffffffffffffffffffffffffffffffffffffffff1681526020018373ffffffffffffffffffffffffffffffffffffffff1681526020016000815260200182815250600080878152602001908152602001600020600086815260200190815260200160002060008201518160000160006101000a81548160ff02191690836008811115610acf577f4e487b7100000000000000000000000000000000000000000000000000000000600052602160045260246000fd5b021790555060208201518160000160016101000a81548173ffffffffffffffffffffffffffffffffffffffff021916908373ffffffffffffffffffffffffffffffffffffffff16021790555060408201518160010160006101000a81548173ffffffffffffffffffffffffffffffffffffffff021916908373ffffffffffffffffffffffffffffffffffffffff16021790555060608201518160020155608082015181600301559050505050505050565b6040518060a0016040528060056008811115610bc5577f4e487b7100000000000000000000000000000000000000000000000000000000600052602160045260246000fd5b81526020018573ffffffffffffffffffffffffffffffffffffffff1681526020018473ffffffffffffffffffffffffffffffffffffffff16815260200183815260200182815250600080888152602001908152602001600020600087815260200190815260200160002060008201518160000160006101000a81548160ff02191690836008811115610c80577f4e487b7100000000000000000000000000000000000000000000000000000000600052602160045260246000fd5b021790555060208201518160000160016101000a81548173ffffffffffffffffffffffffffffffffffffffff021916908373ffffffffffffffffffffffffffffffffffffffff16021790555060408201518160010160006101000a81548173ffffffffffffffffffffffffffffffffffffffff021916908373ffffffffffffffffffffffffffffffffffffffff1602179055506060820151816002015560808201518160030155905050505050505050565b6040518060a0016040528060066008811115610d77577f4e487b7100000000000000000000000000000000000000000000000000000000600052602160045260246000fd5b81526020018573ffffffffffffffffffffffffffffffffffffffff1681526020018473ffffffffffffffffffffffffffffffffffffffff16815260200183815260200182815250600080888152602001908152602001600020600087815260200190815260200160002060008201518160000160006101000a81548160ff02191690836008811115610e32577f4e487b7100000000000000000000000000000000000000000000000000000000600052602160045260246000fd5b021790555060208201518160000160016101000a81548173ffffffffffffffffffffffffffffffffffffffff021916908373ffffffffffffffffffffffffffffffffffffffff16021790555060408201518160010160006101000a81548173ffffffffffffffffffffffffffffffffffffffff021916908373ffffffffffffffffffffffffffffffffffffffff1602179055506060820151816002015560808201518160030155905050505050505050565b6040518060a0016040528060076008811115610f29577f4e487b7100000000000000000000000000000000000000000000000000000000600052602160045260246000fd5b81526020018573ffffffffffffffffffffffffffffffffffffffff1681526020018473ffffffffffffffffffffffffffffffffffffffff16815260200183815260200182815250600080888152602001908152602001600020600087815260200190815260200160002060008201518160000160006101000a81548160ff02191690836008811115610fe4577f4e487b7100000000000000000000000000000000000000000000000000000000600052602160045260246000fd5b021790555060208201518160000160016101000a81548173ffffffffffffffffffffffffffffffffffffffff021916908373ffffffffffffffffffffffffffffffffffffffff16021790555060408201518160010160006101000a81548173ffffffffffffffffffffffffffffffffffffffff021916908373ffffffffffffffffffffffffffffffffffffffff1602179055506060820151816002015560808201518160030155905050505050505050565b6040518060a001604052806008808111156110da577f4e487b7100000000000000000000000000000000000000000000000000000000600052602160045260246000fd5b81526020018573ffffffffffffffffffffffffffffffffffffffff1681526020018473ffffffffffffffffffffffffffffffffffffffff16815260200183815260200182815250600080888152602001908152602001600020600087815260200190815260200160002060008201518160000160006101000a81548160ff02191690836008811115611195577f4e487b7100000000000000000000000000000000000000000000000000000000600052602160045260246000fd5b021790555060208201518160000160016101000a81548173ffffffffffffffffffffffffffffffffffffffff021916908373ffffffffffffffffffffffffffffffffffffffff16021790555060408201518160010160006101000a81548173ffffffffffffffffffffffffffffffffffffffff021916908373ffffffffffffffffffffffffffffffffffffffff1602179055506060820151816002015560808201518160030155905050505050505050565b6040518060a001604052806000600881111561128c577f4e487b7100000000000000000000000000000000000000000000000000000000600052602160045260246000fd5b8152602001600073ffffffffffffffffffffffffffffffffffffffff168152602001600073ffffffffffffffffffffffffffffffffffffffff16815260200160008152602001600081525090565b6000813590506112e981611532565b92915050565b6000813590506112fe81611549565b92915050565b6000806040838503121561131757600080fd5b6000611325858286016112ef565b9250506020611336858286016112ef565b9150509250929050565b600080600080600080600060e0888a03121561135b57600080fd5b60006113698a828b016112ef565b975050602061137a8a828b016112ef565b965050604061138b8a828b016112da565b955050606061139c8a828b016112da565b94505060806113ad8a828b016112ef565b93505060a06113be8a828b016112ef565b92505060c06113cf8a828b016112ef565b91505092959891949750929550565b6113e78161148e565b82525050565b6113f6816114dd565b82525050565b60a08201600082015161141260008501826113ed565b50602082015161142560208501826113de565b50604082015161143860408501826113de565b50606082015161144b6060850182611464565b50608082015161145e6080850182611464565b50505050565b61146d816114d3565b82525050565b600060a08201905061148860008301846113fc565b92915050565b6000611499826114b3565b9050919050565b60008190506114ae8261151e565b919050565b600073ffffffffffffffffffffffffffffffffffffffff82169050919050565b6000819050919050565b60006114e8826114a0565b9050919050565b7f4e487b7100000000000000000000000000000000000000000000000000000000600052602160045260246000fd5b6009811061152f5761152e6114ef565b5b50565b61153b8161148e565b811461154657600080fd5b50565b611552816114d3565b811461155d57600080fd5b5056fea26469706673582212203dbf27fb5a06865e468f20f5f6aeb6ef64c413377fefb167c27c4820f0da52c764736f6c63430008030033608060405234801561001057600080fd5b50610b5c806100206000396000f3fe608060405234801561001057600080fd5b50600436106100935760003560e01c806340d82e6c1161006657806340d82e6c1461011c5780635b33397f1461014c5780636cf5efc21461017c578063a7d5307a14610198578063b771362a146101b457610093565b8063128683ac1461009857806319b78291146100c85780631e54294a146100e45780632e92f4a514610100575b600080fd5b6100b260048036038101906100ad9190610623565b6101e4565b6040516100bf919061084e565b60405180910390f35b6100e260048036038101906100dd91906106cb565b61022e565b005b6100fe60048036038101906100f991906106cb565b61026a565b005b61011a60048036038101906101159190610664565b610294565b005b61013660048036038101906101319190610786565b610370565b6040516101439190610869565b60405180910390f35b610166600480360381019061016191906106cb565b610415565b604051610173919061088b565b60405180910390f35b61019660048036038101906101919190610623565b61044f565b005b6101b260048036038101906101ad919061071f565b61048b565b005b6101ce60048036038101906101c99190610623565b6104c4565b6040516101db919061088b565b60405180910390f35b600080826040516101f59190610837565b908152602001604051809103902060000160009054906101000a900473ffffffffffffffffffffffffffffffffffffffff169050919050565b8060008360405161023f9190610837565b9081526020016040518091039020600101600082825461025f9190610923565b925050819055505050565b8060008360405161027b9190610837565b9081526020016040518091039020600101819055505050565b60405180606001604052808373ffffffffffffffffffffffffffffffffffffffff1681526020016000815260200160018152506000846040516102d79190610837565b908152602001604051809103902060008201518160000160006101000a81548173ffffffffffffffffffffffffffffffffffffffff021916908373ffffffffffffffffffffffffffffffffffffffff16021790555060208201518160010155604082015181600201559050508260026000838152602001908152602001600020908051906020019061036a9291906104ee565b50505050565b6060600260008381526020019081526020016000208054610390906109f7565b80601f01602080910402602001604051908101604052809291908181526020018280546103bc906109f7565b80156104095780601f106103de57610100808354040283529160200191610409565b820191906000526020600020905b8154815290600101906020018083116103ec57829003601f168201915b50505050509050919050565b60006001836040516104279190610837565b9081526020016040518091039020600083815260200190815260200160002054905092915050565b60016000826040516104619190610837565b908152602001604051809103902060020160008282546104819190610923565b9250508190555050565b8060018460405161049c9190610837565b9081526020016040518091039020600084815260200190815260200160002081905550505050565b600080826040516104d59190610837565b9081526020016040518091039020600201549050919050565b8280546104fa906109f7565b90600052602060002090601f01602090048101928261051c5760008555610563565b82601f1061053557805160ff1916838001178555610563565b82800160010185558215610563579182015b82811115610562578251825591602001919060010190610547565b5b5090506105709190610574565b5090565b5b8082111561058d576000816000905550600101610575565b5090565b60006105a461059f846108cb565b6108a6565b9050828152602081018484840111156105bc57600080fd5b6105c78482856109b5565b509392505050565b6000813590506105de81610af8565b92915050565b600082601f8301126105f557600080fd5b8135610605848260208601610591565b91505092915050565b60008135905061061d81610b0f565b92915050565b60006020828403121561063557600080fd5b600082013567ffffffffffffffff81111561064f57600080fd5b61065b848285016105e4565b91505092915050565b60008060006060848603121561067957600080fd5b600084013567ffffffffffffffff81111561069357600080fd5b61069f868287016105e4565b93505060206106b0868287016105cf565b92505060406106c18682870161060e565b9150509250925092565b600080604083850312156106de57600080fd5b600083013567ffffffffffffffff8111156106f857600080fd5b610704858286016105e4565b92505060206107158582860161060e565b9150509250929050565b60008060006060848603121561073457600080fd5b600084013567ffffffffffffffff81111561074e57600080fd5b61075a868287016105e4565b935050602061076b8682870161060e565b925050604061077c8682870161060e565b9150509250925092565b60006020828403121561079857600080fd5b60006107a68482850161060e565b91505092915050565b6107b881610979565b82525050565b60006107c9826108fc565b6107d38185610907565b93506107e38185602086016109c4565b6107ec81610ae7565b840191505092915050565b6000610802826108fc565b61080c8185610918565b935061081c8185602086016109c4565b80840191505092915050565b610831816109ab565b82525050565b600061084382846107f7565b915081905092915050565b600060208201905061086360008301846107af565b92915050565b6000602082019050818103600083015261088381846107be565b905092915050565b60006020820190506108a06000830184610828565b92915050565b60006108b06108c1565b90506108bc8282610a29565b919050565b6000604051905090565b600067ffffffffffffffff8211156108e6576108e5610ab8565b5b6108ef82610ae7565b9050602081019050919050565b600081519050919050565b600082825260208201905092915050565b600081905092915050565b600061092e826109ab565b9150610939836109ab565b9250827fffffffffffffffffffffffffffffffffffffffffffffffffffffffffffffffff0382111561096e5761096d610a5a565b5b828201905092915050565b60006109848261098b565b9050919050565b600073ffffffffffffffffffffffffffffffffffffffff82169050919050565b6000819050919050565b82818337600083830152505050565b60005b838110156109e25780820151818401526020810190506109c7565b838111156109f1576000848401525b50505050565b60006002820490506001821680610a0f57607f821691505b60208210811415610a2357610a22610a89565b5b50919050565b610a3282610ae7565b810181811067ffffffffffffffff82111715610a5157610a50610ab8565b5b80604052505050565b7f4e487b7100000000000000000000000000000000000000000000000000000000600052601160045260246000fd5b7f4e487b7100000000000000000000000000000000000000000000000000000000600052602260045260246000fd5b7f4e487b7100000000000000000000000000000000000000000000000000000000600052604160045260246000fd5b6000601f19601f8301169050919050565b610b0181610979565b8114610b0c57600080fd5b50565b610b18816109ab565b8114610b2357600080fd5b5056fea2646970667358221220e29564dad6ac51ba041a036f52e22f83cfe82e480d32f8401bda51f02b21099964736f6c63430008030033",
  "immutableReferences": {},
  "source": "// SPDX-License-Identifier: MIT OR Apache-2.0\r\npragma solidity ^0.8.3;\r\n\r\nimport \"@openzeppelin/contracts/utils/Counters.sol\";\r\nimport \"@openzeppelin/contracts/security/ReentrancyGuard.sol\";\r\nimport \"@openzeppelin/contracts/token/ERC721/ERC721.sol\";\r\nimport \"@openzeppelin/contracts/token/ERC721/IERC721Receiver.sol\";\r\nimport \"@openzeppelin/contracts/utils/math/SafeMath.sol\";\r\n\r\nimport \"./NFT.sol\";\r\nimport \"./NFTMarketOffers.sol\";\r\nimport \"./NFTMarketEvents.sol\";\r\nimport \"./NFTMarketCollections.sol\";\r\n\r\nimport { Event } from \"./NFTMarketEvents.sol\";\r\nimport { Offer } from \"./NFTMarketOffers.sol\";\r\n\r\ncontract NFTMarketLayer1 is ReentrancyGuard, IERC721Receiver {\r\n  address payable public owner;\r\n\r\n  uint256 public collectionCount;\r\n\r\n  uint256 public tokenCount;\r\n\r\n  NFTMarketOffers internal offerList = new NFTMarketOffers();\r\n\r\n  NFTMarketEvents internal eventHistory = new NFTMarketEvents();\r\n\r\n  NFTMarketCollections internal collectionList = new NFTMarketCollections();\r\n\r\n  constructor() {\r\n    owner = payable(msg.sender);\r\n  }\r\n\r\n  struct MarketItem {\r\n    uint256 tokenId;\r\n    uint256 itemId;\r\n    address payable owner;\r\n    address creator;\r\n    uint256 price;\r\n    bool isListed;\r\n    uint256 royalty;\r\n    uint256 eventCount;\r\n    uint256 offerCount;\r\n    string name;\r\n    string collectionName;\r\n  }\r\n\r\n  mapping(uint256 => MarketItem) public idToMarketItem;\r\n\r\n  function getCollectionNFTs(string memory collectionName) external view returns(MarketItem[] memory){\r\n    uint256 currentIndex = 0;\r\n\r\n    MarketItem[] memory nfts = new MarketItem[](collectionList._getCollectionCount(collectionName));\r\n    for (uint256 i = 0; i < collectionList._getCollectionCount(collectionName); i++) {\r\n        nfts[currentIndex] = idToMarketItem[collectionList._getCollectionNFT(collectionName, i + 1)];\r\n        currentIndex = SafeMath.add(currentIndex, 1);\r\n    }\r\n    return nfts;\r\n  }\r\n\r\n  function getTokenEventHistory(uint256 tokenId) external view returns(Event[] memory) {\r\n    uint256 currentIndex = 0;\r\n\r\n    Event[] memory events = new Event[](idToMarketItem[tokenId].eventCount);\r\n    for (uint256 i = 0; i < idToMarketItem[tokenId].eventCount; i++) {\r\n        events[currentIndex] = eventHistory._getEvent(tokenId, i + 1);\r\n        currentIndex = SafeMath.add(currentIndex, 1);\r\n    }\r\n    return events;\r\n  }\r\n\r\n  function getTokenOfferList(uint256 tokenId) external view returns(Offer[] memory) {\r\n    uint256 currentIndex = 0;\r\n\r\n    Offer[] memory offers = new Offer[](idToMarketItem[tokenId].offerCount);\r\n    for (uint256 i = 0; i < idToMarketItem[tokenId].offerCount; i++) {\r\n        offers[currentIndex] = offerList._getOffer(tokenId, i + 1);\r\n        currentIndex = SafeMath.add(currentIndex, 1);\r\n    }\r\n    return offers;\r\n  }\r\n\r\n  function getUserFromOfferList(address user) external view returns(Offer[] memory) {\r\n    uint256 currentIndex = 0;\r\n\r\n    Offer[] memory offers = new Offer[](offerList._getOfferFromCount(user));\r\n    for(uint256 i = 0; i < offerList._getOfferFromCount(user); i++) {\r\n      offers[currentIndex] = offerList._getFromOffer(user, i + 1);\r\n      currentIndex += 1;\r\n    }\r\n    return offers;\r\n  }\r\n\r\n  function getUserToOfferList(address user) external view returns(Offer[] memory) {\r\n    uint256 currentIndex = 0;\r\n\r\n    Offer[] memory offers = new Offer[](offerList._getOfferToCount(user));\r\n    for(uint256 i = 0; i < offerList._getOfferToCount(user); i++) {\r\n      offers[currentIndex] = offerList._getToOffer(user, i + 1);\r\n      currentIndex += 1;\r\n    }\r\n    return offers;\r\n  }\r\n\r\n  function createMarketItem(\r\n    uint256 tokenId,\r\n    uint256 itemId,\r\n    address payable nftowner,\r\n    address creator,\r\n    uint256 price,\r\n    bool isListed,\r\n    uint256 royalty,\r\n    uint256 eventCount,\r\n    string memory nftName,\r\n    string memory collectionName  \r\n  ) external payable nonReentrant {\r\n    require(price > 0);\r\n\r\n    eventHistory._addEvent(tokenId, 1, msg.sender, address(0), 0, block.timestamp, 0);\r\n\r\n    idToMarketItem[tokenId] = MarketItem(\r\n      tokenId,\r\n      itemId,\r\n      nftowner,\r\n      creator,\r\n      price,\r\n      isListed,\r\n      royalty,\r\n      eventCount,\r\n      0,\r\n      nftName,\r\n      collectionName\r\n    );\r\n\r\n    tokenCount = tokenId;\r\n\r\n    if(collectionList._getCollectionCreator(collectionName) == address(0x0)){\r\n      collectionCount += 1;\r\n      collectionList._addCollection(collectionName, msg.sender, collectionCount);\r\n      collectionList._addNFTToCollection(collectionName, 1, tokenId);\r\n    }\r\n    else {\r\n      collectionList._incrementCollectionCount(collectionName);\r\n      collectionList._addNFTToCollection(collectionName, collectionList._getCollectionCount(collectionName), tokenId);\r\n    }\r\n  }\r\n\r\n  function addMarketItem(\r\n    uint256 tokenId,\r\n    uint256 itemId,\r\n    address payable nftowner,\r\n    address creator,\r\n    uint256 price,\r\n    bool isListed,\r\n    uint256 royalty,\r\n    uint256 eventCount,\r\n    string memory nftName,\r\n    string memory collectionName  \r\n  ) external payable nonReentrant {\r\n    require(price > 0);\r\n\r\n    require(msg.sender == owner);\r\n\r\n    idToMarketItem[tokenId] = MarketItem(\r\n      tokenId,\r\n      itemId,\r\n      nftowner,\r\n      creator,\r\n      price,\r\n      isListed,\r\n      royalty,\r\n      eventCount,\r\n      0,\r\n      nftName,\r\n      collectionName\r\n    );\r\n\r\n    tokenCount = tokenId;\r\n\r\n    if(collectionList._getCollectionCreator(collectionName) == address(0x0)){\r\n      collectionCount += 1;\r\n      collectionList._addCollection(collectionName, msg.sender, collectionCount);\r\n      collectionList._addNFTToCollection(collectionName, 1, tokenId);\r\n    }\r\n    else {\r\n      collectionList._incrementCollectionCount(collectionName);\r\n      collectionList._addNFTToCollection(collectionName, collectionList._getCollectionCount(collectionName), tokenId);\r\n    }\r\n  }\r\n\r\n  function editMarketItem(\r\n    uint256 tokenId,\r\n    uint256 itemId,\r\n    address payable nftowner,\r\n    address creator,\r\n    uint256 price,\r\n    bool isListed,\r\n    uint256 royalty,\r\n    uint256 eventCount,\r\n    uint256 offerCount,\r\n    string memory nftName,\r\n    string memory collectionName\r\n  ) external payable nonReentrant {\r\n    require(msg.sender == owner);\r\n    idToMarketItem[tokenId] = MarketItem(\r\n      tokenId,\r\n      itemId,\r\n      nftowner,\r\n      creator,\r\n      price,\r\n      isListed,\r\n      royalty,\r\n      eventCount,\r\n      offerCount,\r\n      nftName,\r\n      collectionName\r\n    );\r\n  }\r\n\r\n  function getOwnerOfToken(address nftContract, uint256 tokenId) external view returns (address) {\r\n    return IERC721(nftContract).ownerOf(tokenId);\r\n  }\r\n\r\n  function listItem(\r\n    address nftContract,\r\n    uint256 tokenId,\r\n    uint256 price\r\n  ) external payable nonReentrant {\r\n    IERC721(nftContract).transferFrom(msg.sender, address(this), tokenId);\r\n    idToMarketItem[tokenId].price = price;\r\n    idToMarketItem[tokenId].isListed = true;\r\n    idToMarketItem[tokenId].eventCount = SafeMath.add(idToMarketItem[tokenId].eventCount, 1);\r\n    eventHistory._addEvent(tokenId, idToMarketItem[tokenId].eventCount, msg.sender, address(this), price, block.timestamp, 1);\r\n  }\r\n\r\n  function withdrawListing(\r\n    address nftContract,\r\n    uint256 tokenId\r\n    ) external payable nonReentrant {\r\n    IERC721(nftContract).transferFrom(address(this), msg.sender, tokenId);\r\n    idToMarketItem[tokenId].isListed = false;\r\n    idToMarketItem[tokenId].eventCount = SafeMath.add(idToMarketItem[tokenId].eventCount, 1);\r\n    eventHistory._addEvent(tokenId, idToMarketItem[tokenId].eventCount, address(this), msg.sender, 0, block.timestamp, 2);\r\n  }\r\n\r\n  function editListing(\r\n    uint256 tokenId,\r\n    uint256 price\r\n  ) external payable nonReentrant {\r\n    idToMarketItem[tokenId].price = price;\r\n    idToMarketItem[tokenId].eventCount = SafeMath.add(idToMarketItem[tokenId].eventCount, 1);\r\n    eventHistory._addEvent(tokenId, idToMarketItem[tokenId].eventCount, msg.sender, address(this), price, block.timestamp, 5);\r\n  }\r\n\r\n  function transferNFT(address nftContract, uint256 tokenId, address receiver) external payable nonReentrant {\r\n    IERC721(nftContract).transferFrom(msg.sender, receiver, tokenId);\r\n    idToMarketItem[tokenId].owner = payable(receiver);\r\n    idToMarketItem[tokenId].eventCount = SafeMath.add(idToMarketItem[tokenId].eventCount, 1);\r\n    eventHistory._addEvent(tokenId, idToMarketItem[tokenId].eventCount, msg.sender, receiver, 0, block.timestamp, 4);\r\n    for(uint i = 1; i <= idToMarketItem[tokenId].offerCount; i++) {\r\n      if(!offerList._isWithdrawn(tokenId, i)) {\r\n        address payable from = offerList._getOfferFrom(tokenId, i);\r\n        uint256 price = offerList._getOfferPrice(tokenId, i);\r\n        offerList._withdrawOffer(tokenId, i);\r\n        (from).transfer(SafeMath.div(SafeMath.mul(price, 102), 100));\r\n      }\r\n    }\r\n    idToMarketItem[tokenId].offerCount = 0;\r\n  }\r\n\r\n  function createMarketSale(\r\n    address nftContract,\r\n    uint256 tokenId\r\n    ) external payable nonReentrant {\r\n    require(msg.value >= idToMarketItem[tokenId].price);\r\n    payable(owner).transfer(SafeMath.mul(SafeMath.div(idToMarketItem[tokenId].price, 100), 2));\r\n    payable(idToMarketItem[tokenId].creator).transfer(SafeMath.mul(SafeMath.div(idToMarketItem[tokenId].price, 100), idToMarketItem[tokenId].royalty));\r\n    idToMarketItem[tokenId].owner.transfer(SafeMath.mul(SafeMath.div(idToMarketItem[tokenId].price, 100), (SafeMath.sub(100, idToMarketItem[tokenId].royalty))));\r\n    IERC721(nftContract).transferFrom(address(this), msg.sender, tokenId);\r\n    idToMarketItem[tokenId].isListed = false;\r\n    idToMarketItem[tokenId].eventCount = SafeMath.add(idToMarketItem[tokenId].eventCount, 1);\r\n    eventHistory._addEvent(tokenId, idToMarketItem[tokenId].eventCount, idToMarketItem[tokenId].owner, msg.sender, idToMarketItem[tokenId].price, block.timestamp, 3);\r\n    idToMarketItem[tokenId].owner = payable(msg.sender);\r\n    collectionList._incrementCollectionVolumeTraded(idToMarketItem[tokenId].collectionName, idToMarketItem[tokenId].price);\r\n    for(uint i = 1; i <= idToMarketItem[tokenId].offerCount; i++) {\r\n      if(!offerList._isWithdrawn(tokenId, i)) {\r\n        address payable from = offerList._getOfferFrom(tokenId, i);\r\n        uint256 price = offerList._getOfferPrice(tokenId, i);\r\n        offerList._withdrawOffer(tokenId, i);\r\n        (from).transfer(SafeMath.div(SafeMath.mul(price, 102), 100));\r\n      }\r\n    }\r\n    idToMarketItem[tokenId].offerCount = 0;\r\n  }\r\n\r\n  function placeOffer(uint256 tokenId, uint256 price) external payable {\r\n    require(price > 0);\r\n    idToMarketItem[tokenId].offerCount = idToMarketItem[tokenId].offerCount + 1;\r\n    offerList._placeOffer(\r\n      price, \r\n      payable(msg.sender), \r\n      idToMarketItem[tokenId].owner, \r\n      tokenId, \r\n      idToMarketItem[tokenId].offerCount\r\n    );\r\n    idToMarketItem[tokenId].eventCount = SafeMath.add(idToMarketItem[tokenId].eventCount, 1);\r\n    eventHistory._addEvent(tokenId, idToMarketItem[tokenId].eventCount, msg.sender, idToMarketItem[tokenId].owner, price, block.timestamp, 6);\r\n  }\r\n\r\n  function withdrawOffer(uint256 tokenId, uint256 offerId) external nonReentrant{\r\n    offerList._withdrawOffer(tokenId, offerId);\r\n    idToMarketItem[tokenId].eventCount = SafeMath.add(idToMarketItem[tokenId].eventCount, 1);\r\n    eventHistory._addEvent(tokenId, idToMarketItem[tokenId].eventCount, msg.sender, idToMarketItem[tokenId].owner, offerList._getOfferPrice(tokenId, offerId), block.timestamp, 7);\r\n    offerList._getOfferFrom(tokenId, offerId).transfer(SafeMath.div(SafeMath.mul(offerList._getOfferPrice(tokenId, offerId), 102), 100));\r\n  }\r\n\r\n  function acceptOffer(uint256 tokenId, uint256 offerId, address nftContract) external payable nonReentrant {\r\n    offerList._acceptOffer(tokenId, offerId);\r\n    for(uint i = 1; i <= idToMarketItem[tokenId].offerCount; i++) {\r\n      if(!offerList._isWithdrawn(tokenId, i)) {\r\n        address payable from = offerList._getOfferFrom(tokenId, i);\r\n        uint256 price = offerList._getOfferPrice(tokenId, i);\r\n        if(offerList._isAccepted(tokenId, i)) {\r\n            payable(owner).transfer(SafeMath.div(SafeMath.mul(price, 2), 100));\r\n            payable(idToMarketItem[tokenId].creator).transfer(SafeMath.div(SafeMath.mul(price, idToMarketItem[tokenId].royalty), 100));\r\n            payable(idToMarketItem[tokenId].owner).transfer(SafeMath.div(SafeMath.mul(price, SafeMath.sub(100, idToMarketItem[tokenId].royalty)), 100));\r\n            if(idToMarketItem[tokenId].isListed){\r\n              IERC721(nftContract).transferFrom(address(this), from, tokenId);  \r\n            }\r\n            else{\r\n              IERC721(nftContract).transferFrom(idToMarketItem[tokenId].owner, from, tokenId);\r\n            }\r\n            idToMarketItem[tokenId].eventCount = SafeMath.add(idToMarketItem[tokenId].eventCount, 1);\r\n            eventHistory._addEvent(tokenId, idToMarketItem[tokenId].eventCount, idToMarketItem[tokenId].owner, from, price, block.timestamp, 8);\r\n            idToMarketItem[tokenId].owner = from;\r\n            collectionList._incrementCollectionVolumeTraded(idToMarketItem[tokenId].collectionName, price);\r\n        }\r\n        else{\r\n            offerList._withdrawOffer(tokenId, i);\r\n            (from).transfer(SafeMath.div(SafeMath.mul(price, 102), 100));\r\n        }\r\n      }\r\n    }\r\n    idToMarketItem[tokenId].offerCount = 0;\r\n  }\r\n\r\n  function transferFunds(uint256 price) external {\r\n    require(msg.sender == owner);\r\n    payable(owner).transfer(price);\r\n  }\r\n\r\n  function fetchCollections() external view returns (MarketItem[] memory) {\r\n    uint256 currentIndex = 0;\r\n\r\n    MarketItem[] memory collectionItems = new MarketItem[](collectionCount);\r\n    for(uint i = 1; i <= collectionCount; i++) {\r\n      collectionItems[currentIndex] = idToMarketItem[collectionList._getCollectionNFT(collectionList._getCollectionName(i), 1)];\r\n      currentIndex = SafeMath.add(currentIndex, 1);\r\n    }\r\n    return collectionItems;\r\n  }\r\n\r\n  function fetchCollection(string memory collectionName) external view returns (MarketItem memory) {\r\n    return idToMarketItem[collectionList._getCollectionNFT(collectionName, 1)];\r\n  }\r\n\r\n  function fetchMarketItems() external view returns (MarketItem[] memory) {\r\n    uint currentIndex = 0;\r\n\r\n    MarketItem[] memory items = new MarketItem[](tokenCount);\r\n    for (uint i = 0; i < tokenCount; i++) {\r\n      if (idToMarketItem[i + 1].tokenId != 0) {\r\n        items[currentIndex] = idToMarketItem[i + 1];\r\n        currentIndex = SafeMath.add(currentIndex, 1);\r\n      }\r\n    }\r\n    return items;\r\n  }\r\n\r\n  function fetchMyNFTs(address user) external view returns (MarketItem[] memory) {\r\n    uint itemCount = 0;\r\n    uint currentIndex = 0;\r\n\r\n    for (uint i = 0; i < tokenCount; i++) {\r\n      if (idToMarketItem[SafeMath.add(i, 1)].owner == user) {\r\n        itemCount = SafeMath.add(itemCount, 1);\r\n      }\r\n    }\r\n\r\n    MarketItem[] memory items = new MarketItem[](itemCount);\r\n    for (uint i = 0; i < tokenCount; i++) {\r\n      if (idToMarketItem[SafeMath.add(i, 1)].owner == user) {\r\n        items[currentIndex] = idToMarketItem[i + 1];\r\n        currentIndex = SafeMath.add(currentIndex, 1);\r\n      }\r\n    }\r\n    return items;\r\n  }\r\n\r\n  function fetchItemsCreated(address user) external view returns (MarketItem[] memory) {\r\n    uint itemCount = 0;\r\n    uint currentIndex = 0;\r\n\r\n    for (uint i = 0; i < tokenCount; i++) {\r\n      if (idToMarketItem[SafeMath.add(i, 1)].creator == user) {\r\n        itemCount = SafeMath.add(itemCount, 1);\r\n      }\r\n    }\r\n\r\n    MarketItem[] memory items = new MarketItem[](itemCount);\r\n    for (uint i = 0; i < tokenCount; i++) {\r\n      if (idToMarketItem[SafeMath.add(i, 1)].creator == user) {\r\n        items[currentIndex] = idToMarketItem[i + 1];\r\n        currentIndex = SafeMath.add(currentIndex, 1);\r\n      }\r\n    }\r\n    return items;\r\n  }\r\n\r\n  function setTradeVolume(string memory collectionName, uint256 volumeTraded) external {\r\n    collectionList._setVolumeTraded(collectionName, volumeTraded);\r\n  }\r\n\r\n  function addEventsToItem(\r\n    uint256 tokenId,\r\n    uint256 eventId,\r\n    uint256 eventType,\r\n    address from,\r\n    address to,\r\n    uint256 price,\r\n    uint256 timestamp\r\n  ) external {\r\n    require(msg.sender == owner);\r\n    eventHistory._addEvent(tokenId, eventId, from, to, price, timestamp, eventType);\r\n  }\r\n \r\n  function onERC721Received(address, address, uint256, bytes memory) public virtual override returns (bytes4) {\r\n    return this.onERC721Received.selector;\r\n  }\r\n}",
  "sourcePath": "C:\\Users\\priya\\xdsea-Live\\contracts\\NFTMarketLayer1.sol",
  "compiler": {
    "name": "solc",
    "version": "0.8.3+commit.8d00100c.Emscripten.clang"
  },
  "schemaVersion": "3.4.4",
  "updatedAt": "2022-03-31T12:31:30.399Z",
  "devdoc": {
    "kind": "dev",
    "methods": {},
    "version": 1
  },
  "userdoc": {
    "kind": "user",
    "methods": {},
    "version": 1
  }
}