{
  "contractName": "NFTMarketLayer1",
  "abi": [
    {
      "inputs": [],
      "stateMutability": "nonpayable",
      "type": "constructor"
    },
    {
      "inputs": [],
      "name": "collectionCount",
      "outputs": [
        {
          "internalType": "uint256",
          "name": "",
          "type": "uint256"
        }
      ],
      "stateMutability": "view",
      "type": "function"
    },
    {
      "inputs": [
        {
          "internalType": "uint256",
          "name": "",
          "type": "uint256"
        }
      ],
      "name": "idToMarketItem",
      "outputs": [
        {
          "internalType": "address",
          "name": "nftContract",
          "type": "address"
        },
        {
          "internalType": "uint256",
          "name": "tokenId",
          "type": "uint256"
        },
        {
          "internalType": "address payable",
          "name": "owner",
          "type": "address"
        },
        {
          "internalType": "address",
          "name": "creator",
          "type": "address"
        },
        {
          "internalType": "uint256",
          "name": "price",
          "type": "uint256"
        },
        {
          "internalType": "bool",
          "name": "isListed",
          "type": "bool"
        },
        {
          "internalType": "uint256",
          "name": "royalty",
          "type": "uint256"
        },
        {
          "internalType": "uint256",
          "name": "eventCount",
          "type": "uint256"
        },
        {
          "internalType": "uint256",
          "name": "offerCount",
          "type": "uint256"
        },
        {
          "internalType": "string",
          "name": "name",
          "type": "string"
        },
        {
          "internalType": "string",
          "name": "collectionName",
          "type": "string"
        }
      ],
      "stateMutability": "view",
      "type": "function"
    },
    {
      "inputs": [],
      "name": "owner",
      "outputs": [
        {
          "internalType": "address payable",
          "name": "",
          "type": "address"
        }
      ],
      "stateMutability": "view",
      "type": "function"
    },
    {
      "inputs": [],
      "name": "tokenCount",
      "outputs": [
        {
          "internalType": "uint256",
          "name": "",
          "type": "uint256"
        }
      ],
      "stateMutability": "view",
      "type": "function"
    },
    {
      "inputs": [
        {
          "internalType": "string",
          "name": "collectionName",
          "type": "string"
        }
      ],
      "name": "getCollectionNFTs",
      "outputs": [
        {
          "components": [
            {
              "internalType": "address",
              "name": "nftContract",
              "type": "address"
            },
            {
              "internalType": "uint256",
              "name": "tokenId",
              "type": "uint256"
            },
            {
              "internalType": "address payable",
              "name": "owner",
              "type": "address"
            },
            {
              "internalType": "address",
              "name": "creator",
              "type": "address"
            },
            {
              "internalType": "uint256",
              "name": "price",
              "type": "uint256"
            },
            {
              "internalType": "bool",
              "name": "isListed",
              "type": "bool"
            },
            {
              "internalType": "uint256",
              "name": "royalty",
              "type": "uint256"
            },
            {
              "internalType": "uint256",
              "name": "eventCount",
              "type": "uint256"
            },
            {
              "internalType": "uint256",
              "name": "offerCount",
              "type": "uint256"
            },
            {
              "internalType": "string",
              "name": "name",
              "type": "string"
            },
            {
              "internalType": "string",
              "name": "collectionName",
              "type": "string"
            }
          ],
          "internalType": "struct NFTMarketLayer1.MarketItem[]",
          "name": "",
          "type": "tuple[]"
        }
      ],
      "stateMutability": "view",
      "type": "function"
    },
    {
      "inputs": [
        {
          "internalType": "uint256",
          "name": "tokenId",
          "type": "uint256"
        }
      ],
      "name": "getTokenEventHistory",
      "outputs": [
        {
          "components": [
            {
              "internalType": "enum EventType",
              "name": "eventType",
              "type": "uint8"
            },
            {
              "internalType": "address",
              "name": "from",
              "type": "address"
            },
            {
              "internalType": "address",
              "name": "to",
              "type": "address"
            },
            {
              "internalType": "uint256",
              "name": "price",
              "type": "uint256"
            },
            {
              "internalType": "uint256",
              "name": "timestamp",
              "type": "uint256"
            }
          ],
          "internalType": "struct Event[]",
          "name": "",
          "type": "tuple[]"
        }
      ],
      "stateMutability": "view",
      "type": "function"
    },
    {
      "inputs": [
        {
          "internalType": "uint256",
          "name": "tokenId",
          "type": "uint256"
        }
      ],
      "name": "getTokenOfferList",
      "outputs": [
        {
          "components": [
            {
              "internalType": "uint256",
              "name": "price",
              "type": "uint256"
            },
            {
              "internalType": "address payable",
              "name": "from",
              "type": "address"
            },
            {
              "internalType": "address payable",
              "name": "to",
              "type": "address"
            },
            {
              "internalType": "bool",
              "name": "isWithdrawn",
              "type": "bool"
            },
            {
              "internalType": "bool",
              "name": "isAccepted",
              "type": "bool"
            }
          ],
          "internalType": "struct Offer[]",
          "name": "",
          "type": "tuple[]"
        }
      ],
      "stateMutability": "view",
      "type": "function"
    },
    {
      "inputs": [
        {
          "internalType": "address",
          "name": "nftContract",
          "type": "address"
        },
        {
          "internalType": "uint256",
          "name": "tokenId",
          "type": "uint256"
        },
        {
          "internalType": "address payable",
          "name": "nftowner",
          "type": "address"
        },
        {
          "internalType": "address",
          "name": "creator",
          "type": "address"
        },
        {
          "internalType": "uint256",
          "name": "price",
          "type": "uint256"
        },
        {
          "internalType": "bool",
          "name": "isListed",
          "type": "bool"
        },
        {
          "internalType": "uint256",
          "name": "royalty",
          "type": "uint256"
        },
        {
          "internalType": "uint256",
          "name": "eventCount",
          "type": "uint256"
        },
        {
          "internalType": "string",
          "name": "nftName",
          "type": "string"
        },
        {
          "internalType": "string",
          "name": "collectionName",
          "type": "string"
        },
        {
          "internalType": "bool",
          "name": "add",
          "type": "bool"
        }
      ],
      "name": "createMarketItem",
      "outputs": [],
      "stateMutability": "payable",
      "type": "function"
    },
    {
      "inputs": [
        {
          "internalType": "address",
          "name": "nftContract",
          "type": "address"
        },
        {
          "internalType": "uint256",
          "name": "tokenId",
          "type": "uint256"
        },
        {
          "internalType": "address payable",
          "name": "nftowner",
          "type": "address"
        },
        {
          "internalType": "address",
          "name": "creator",
          "type": "address"
        },
        {
          "internalType": "uint256",
          "name": "price",
          "type": "uint256"
        },
        {
          "internalType": "bool",
          "name": "isListed",
          "type": "bool"
        },
        {
          "internalType": "uint256",
          "name": "royalty",
          "type": "uint256"
        },
        {
          "internalType": "uint256",
          "name": "eventCount",
          "type": "uint256"
        },
        {
          "internalType": "uint256",
          "name": "offerCount",
          "type": "uint256"
        },
        {
          "internalType": "string",
          "name": "nftName",
          "type": "string"
        },
        {
          "internalType": "string",
          "name": "collectionName",
          "type": "string"
        }
      ],
      "name": "editMarketItem",
      "outputs": [],
      "stateMutability": "payable",
      "type": "function"
    },
    {
      "inputs": [
        {
          "internalType": "address",
          "name": "nftContract",
          "type": "address"
        },
        {
          "internalType": "uint256",
          "name": "tokenId",
          "type": "uint256"
        }
      ],
      "name": "getOwnerOfToken",
      "outputs": [
        {
          "internalType": "address",
          "name": "",
          "type": "address"
        }
      ],
      "stateMutability": "view",
      "type": "function"
    },
    {
      "inputs": [
        {
          "internalType": "address",
          "name": "nftContract",
          "type": "address"
        },
        {
          "internalType": "uint256",
          "name": "tokenId",
          "type": "uint256"
        },
        {
          "internalType": "uint256",
          "name": "price",
          "type": "uint256"
        }
      ],
      "name": "listItem",
      "outputs": [],
      "stateMutability": "payable",
      "type": "function"
    },
    {
      "inputs": [
        {
          "internalType": "address",
          "name": "nftContract",
          "type": "address"
        },
        {
          "internalType": "uint256",
          "name": "tokenId",
          "type": "uint256"
        }
      ],
      "name": "withdrawListing",
      "outputs": [],
      "stateMutability": "payable",
      "type": "function"
    },
    {
      "inputs": [
        {
          "internalType": "uint256",
          "name": "tokenId",
          "type": "uint256"
        },
        {
          "internalType": "uint256",
          "name": "price",
          "type": "uint256"
        }
      ],
      "name": "editListing",
      "outputs": [],
      "stateMutability": "payable",
      "type": "function"
    },
    {
      "inputs": [
        {
          "internalType": "address",
          "name": "nftContract",
          "type": "address"
        },
        {
          "internalType": "uint256",
          "name": "tokenId",
          "type": "uint256"
        },
        {
          "internalType": "address",
          "name": "receiver",
          "type": "address"
        }
      ],
      "name": "transferNFT",
      "outputs": [],
      "stateMutability": "payable",
      "type": "function"
    },
    {
      "inputs": [
        {
          "internalType": "address",
          "name": "nftContract",
          "type": "address"
        },
        {
          "internalType": "uint256",
          "name": "tokenId",
          "type": "uint256"
        }
      ],
      "name": "createMarketSale",
      "outputs": [],
      "stateMutability": "payable",
      "type": "function"
    },
    {
      "inputs": [
        {
          "internalType": "uint256",
          "name": "tokenId",
          "type": "uint256"
        },
        {
          "internalType": "uint256",
          "name": "price",
          "type": "uint256"
        }
      ],
      "name": "placeOffer",
      "outputs": [],
      "stateMutability": "payable",
      "type": "function"
    },
    {
      "inputs": [
        {
          "internalType": "uint256",
          "name": "tokenId",
          "type": "uint256"
        },
        {
          "internalType": "uint256",
          "name": "offerId",
          "type": "uint256"
        }
      ],
      "name": "withdrawOffer",
      "outputs": [],
      "stateMutability": "nonpayable",
      "type": "function"
    },
    {
      "inputs": [
        {
          "internalType": "uint256",
          "name": "tokenId",
          "type": "uint256"
        },
        {
          "internalType": "uint256",
          "name": "offerId",
          "type": "uint256"
        }
      ],
      "name": "acceptOffer",
      "outputs": [],
      "stateMutability": "payable",
      "type": "function"
    },
    {
      "inputs": [
        {
          "internalType": "uint256",
          "name": "price",
          "type": "uint256"
        }
      ],
      "name": "transferFunds",
      "outputs": [],
      "stateMutability": "nonpayable",
      "type": "function"
    },
    {
      "inputs": [],
      "name": "fetchCollections",
      "outputs": [
        {
          "components": [
            {
              "internalType": "address",
              "name": "nftContract",
              "type": "address"
            },
            {
              "internalType": "uint256",
              "name": "tokenId",
              "type": "uint256"
            },
            {
              "internalType": "address payable",
              "name": "owner",
              "type": "address"
            },
            {
              "internalType": "address",
              "name": "creator",
              "type": "address"
            },
            {
              "internalType": "uint256",
              "name": "price",
              "type": "uint256"
            },
            {
              "internalType": "bool",
              "name": "isListed",
              "type": "bool"
            },
            {
              "internalType": "uint256",
              "name": "royalty",
              "type": "uint256"
            },
            {
              "internalType": "uint256",
              "name": "eventCount",
              "type": "uint256"
            },
            {
              "internalType": "uint256",
              "name": "offerCount",
              "type": "uint256"
            },
            {
              "internalType": "string",
              "name": "name",
              "type": "string"
            },
            {
              "internalType": "string",
              "name": "collectionName",
              "type": "string"
            }
          ],
          "internalType": "struct NFTMarketLayer1.MarketItem[]",
          "name": "",
          "type": "tuple[]"
        }
      ],
      "stateMutability": "view",
      "type": "function"
    },
    {
      "inputs": [
        {
          "internalType": "string",
          "name": "collectionName",
          "type": "string"
        }
      ],
      "name": "fetchCollection",
      "outputs": [
        {
          "components": [
            {
              "internalType": "address",
              "name": "nftContract",
              "type": "address"
            },
            {
              "internalType": "uint256",
              "name": "tokenId",
              "type": "uint256"
            },
            {
              "internalType": "address payable",
              "name": "owner",
              "type": "address"
            },
            {
              "internalType": "address",
              "name": "creator",
              "type": "address"
            },
            {
              "internalType": "uint256",
              "name": "price",
              "type": "uint256"
            },
            {
              "internalType": "bool",
              "name": "isListed",
              "type": "bool"
            },
            {
              "internalType": "uint256",
              "name": "royalty",
              "type": "uint256"
            },
            {
              "internalType": "uint256",
              "name": "eventCount",
              "type": "uint256"
            },
            {
              "internalType": "uint256",
              "name": "offerCount",
              "type": "uint256"
            },
            {
              "internalType": "string",
              "name": "name",
              "type": "string"
            },
            {
              "internalType": "string",
              "name": "collectionName",
              "type": "string"
            }
          ],
          "internalType": "struct NFTMarketLayer1.MarketItem",
          "name": "",
          "type": "tuple"
        }
      ],
      "stateMutability": "view",
      "type": "function"
    },
    {
      "inputs": [],
      "name": "fetchMarketItems",
      "outputs": [
        {
          "components": [
            {
              "internalType": "address",
              "name": "nftContract",
              "type": "address"
            },
            {
              "internalType": "uint256",
              "name": "tokenId",
              "type": "uint256"
            },
            {
              "internalType": "address payable",
              "name": "owner",
              "type": "address"
            },
            {
              "internalType": "address",
              "name": "creator",
              "type": "address"
            },
            {
              "internalType": "uint256",
              "name": "price",
              "type": "uint256"
            },
            {
              "internalType": "bool",
              "name": "isListed",
              "type": "bool"
            },
            {
              "internalType": "uint256",
              "name": "royalty",
              "type": "uint256"
            },
            {
              "internalType": "uint256",
              "name": "eventCount",
              "type": "uint256"
            },
            {
              "internalType": "uint256",
              "name": "offerCount",
              "type": "uint256"
            },
            {
              "internalType": "string",
              "name": "name",
              "type": "string"
            },
            {
              "internalType": "string",
              "name": "collectionName",
              "type": "string"
            }
          ],
          "internalType": "struct NFTMarketLayer1.MarketItem[]",
          "name": "",
          "type": "tuple[]"
        }
      ],
      "stateMutability": "view",
      "type": "function"
    },
    {
      "inputs": [
        {
          "internalType": "address",
          "name": "user",
          "type": "address"
        }
      ],
      "name": "fetchMyNFTs",
      "outputs": [
        {
          "components": [
            {
              "internalType": "address",
              "name": "nftContract",
              "type": "address"
            },
            {
              "internalType": "uint256",
              "name": "tokenId",
              "type": "uint256"
            },
            {
              "internalType": "address payable",
              "name": "owner",
              "type": "address"
            },
            {
              "internalType": "address",
              "name": "creator",
              "type": "address"
            },
            {
              "internalType": "uint256",
              "name": "price",
              "type": "uint256"
            },
            {
              "internalType": "bool",
              "name": "isListed",
              "type": "bool"
            },
            {
              "internalType": "uint256",
              "name": "royalty",
              "type": "uint256"
            },
            {
              "internalType": "uint256",
              "name": "eventCount",
              "type": "uint256"
            },
            {
              "internalType": "uint256",
              "name": "offerCount",
              "type": "uint256"
            },
            {
              "internalType": "string",
              "name": "name",
              "type": "string"
            },
            {
              "internalType": "string",
              "name": "collectionName",
              "type": "string"
            }
          ],
          "internalType": "struct NFTMarketLayer1.MarketItem[]",
          "name": "",
          "type": "tuple[]"
        }
      ],
      "stateMutability": "view",
      "type": "function"
    },
    {
      "inputs": [
        {
          "internalType": "address",
          "name": "user",
          "type": "address"
        }
      ],
      "name": "fetchItemsCreated",
      "outputs": [
        {
          "components": [
            {
              "internalType": "address",
              "name": "nftContract",
              "type": "address"
            },
            {
              "internalType": "uint256",
              "name": "tokenId",
              "type": "uint256"
            },
            {
              "internalType": "address payable",
              "name": "owner",
              "type": "address"
            },
            {
              "internalType": "address",
              "name": "creator",
              "type": "address"
            },
            {
              "internalType": "uint256",
              "name": "price",
              "type": "uint256"
            },
            {
              "internalType": "bool",
              "name": "isListed",
              "type": "bool"
            },
            {
              "internalType": "uint256",
              "name": "royalty",
              "type": "uint256"
            },
            {
              "internalType": "uint256",
              "name": "eventCount",
              "type": "uint256"
            },
            {
              "internalType": "uint256",
              "name": "offerCount",
              "type": "uint256"
            },
            {
              "internalType": "string",
              "name": "name",
              "type": "string"
            },
            {
              "internalType": "string",
              "name": "collectionName",
              "type": "string"
            }
          ],
          "internalType": "struct NFTMarketLayer1.MarketItem[]",
          "name": "",
          "type": "tuple[]"
        }
      ],
      "stateMutability": "view",
      "type": "function"
    },
    {
      "inputs": [
        {
          "internalType": "string",
          "name": "collectionName",
          "type": "string"
        },
        {
          "internalType": "uint256",
          "name": "volumeTraded",
          "type": "uint256"
        }
      ],
      "name": "setTradeVolume",
      "outputs": [],
      "stateMutability": "nonpayable",
      "type": "function"
    },
    {
      "inputs": [
        {
          "internalType": "uint256",
          "name": "tokenId",
          "type": "uint256"
        },
        {
          "internalType": "uint256",
          "name": "eventId",
          "type": "uint256"
        },
        {
          "internalType": "uint256",
          "name": "eventType",
          "type": "uint256"
        },
        {
          "internalType": "address",
          "name": "from",
          "type": "address"
        },
        {
          "internalType": "address",
          "name": "to",
          "type": "address"
        },
        {
          "internalType": "uint256",
          "name": "price",
          "type": "uint256"
        },
        {
          "internalType": "uint256",
          "name": "timestamp",
          "type": "uint256"
        }
      ],
      "name": "addEventsToItem",
      "outputs": [],
      "stateMutability": "nonpayable",
      "type": "function"
    },
    {
      "inputs": [
        {
          "internalType": "address",
          "name": "",
          "type": "address"
        },
        {
          "internalType": "address",
          "name": "",
          "type": "address"
        },
        {
          "internalType": "uint256",
          "name": "",
          "type": "uint256"
        },
        {
          "internalType": "bytes",
          "name": "",
          "type": "bytes"
        }
      ],
      "name": "onERC721Received",
      "outputs": [
        {
          "internalType": "bytes4",
          "name": "",
          "type": "bytes4"
        }
      ],
      "stateMutability": "nonpayable",
      "type": "function"
    }
  ],
  "bytecode": "0x60806040526040516200001290620001a5565b604051809103906000f0801580156200002f573d6000803e3d6000fd5b50600460006101000a81548173ffffffffffffffffffffffffffffffffffffffff021916908373ffffffffffffffffffffffffffffffffffffffff1602179055506040516200007e90620001b3565b604051809103906000f0801580156200009b573d6000803e3d6000fd5b50600560006101000a81548173ffffffffffffffffffffffffffffffffffffffff021916908373ffffffffffffffffffffffffffffffffffffffff160217905550604051620000ea90620001c1565b604051809103906000f08015801562000107573d6000803e3d6000fd5b50600660006101000a81548173ffffffffffffffffffffffffffffffffffffffff021916908373ffffffffffffffffffffffffffffffffffffffff1602179055503480156200015557600080fd5b50600160008190555033600160006101000a81548173ffffffffffffffffffffffffffffffffffffffff021916908373ffffffffffffffffffffffffffffffffffffffff160217905550620001cf565b610bca8062007cf283390190565b6115b680620088bc83390190565b610b7c8062009e7283390190565b617b1380620001df6000396000f3fe60806040526004361061019b5760003560e01c806389bfd38f116100ec578063cf6219cc1161008a578063d307817111610064578063d30781711461058f578063d57f966b146105ab578063e61a70c0146105d6578063fcb05c0a1461061d5761019b565b8063cf6219cc1461051f578063d2ead4cb14610548578063d2f0922a146105735761019b565b8063a95902b2116100c6578063a95902b214610481578063c23b139e1461049d578063c5a8d4bb146104b9578063c8338456146104e25761019b565b806389bfd38f1461040f5780638da5cb5b1461042b5780639f181b5e146104565761019b565b806323e40658116101595780636f6dd780116101335780636f6dd7801461035d578063777eb13e1461039a57806381257bd5146103b657806385d20cdb146103d25761019b565b806323e40658146102c757806344fc390d146103045780634a141b29146103205761019b565b8062a67292146101a05780630f08efe0146101bc57806310afee1e146101e7578063133ae30b14610224578063150b7a021461024d5780631c1661951461028a575b600080fd5b6101ba60048036038101906101b59190615f85565b610646565b005b3480156101c857600080fd5b506101d161082a565b6040516101de9190616d44565b60405180910390f35b3480156101f357600080fd5b5061020e60048036038101906102099190615e8f565b610bf0565b60405161021b9190616d44565b60405180910390f35b34801561023057600080fd5b5061024b600480360381019061024691906163f0565b6110a6565b005b34801561025957600080fd5b50610274600480360381019061026f9190615f0a565b61116c565b6040516102819190616d88565b60405180910390f35b34801561029657600080fd5b506102b160048036038101906102ac91906163f0565b611180565b6040516102be9190616d22565b60405180910390f35b3480156102d357600080fd5b506102ee60048036038101906102e991906162c8565b611360565b6040516102fb9190616f2f565b60405180910390f35b61031e60048036038101906103199190616442565b6116ae565b005b34801561032c57600080fd5b5061034760048036038101906103429190615f85565b61180e565b6040516103549190616b8e565b60405180910390f35b34801561036957600080fd5b50610384600480360381019061037f91906162c8565b6118a1565b6040516103919190616d44565b60405180910390f35b6103b460048036038101906103af9190616010565b611e3a565b005b6103d060048036038101906103cb9190616442565b6125aa565b005b3480156103de57600080fd5b506103f960048036038101906103f491906163f0565b61303b565b6040516104069190616d66565b60405180910390f35b61042960048036038101906104249190616250565b61321b565b005b34801561043757600080fd5b5061044061341a565b60405161044d9190616ba9565b60405180910390f35b34801561046257600080fd5b5061046b613440565b6040516104789190616f51565b60405180910390f35b61049b60048036038101906104969190616442565b613446565b005b6104b760048036038101906104b29190615f85565b613696565b005b3480156104c557600080fd5b506104e060048036038101906104db9190616442565b613f60565b005b3480156104ee57600080fd5b5061050960048036038101906105049190615e8f565b6143c9565b6040516105169190616d44565b60405180910390f35b34801561052b57600080fd5b506105466004803603810190610541919061647e565b61487f565b005b34801561055457600080fd5b5061055d61497b565b60405161056a9190616d44565b60405180910390f35b61058d60048036038101906105889190615fc1565b614e69565b005b6105a960048036038101906105a49190616130565b6153c8565b005b3480156105b757600080fd5b506105c061568f565b6040516105cd9190616f51565b60405180910390f35b3480156105e257600080fd5b506105fd60048036038101906105f891906163f0565b615695565b6040516106149b9a99989796959493929190616c69565b60405180910390f35b34801561062957600080fd5b50610644600480360381019061063f919061634a565b61586c565b005b6002600054141561068c576040517f08c379a000000000000000000000000000000000000000000000000000000000815260040161068390616f0f565b60405180910390fd5b60026000819055508173ffffffffffffffffffffffffffffffffffffffff166323b872dd3033846040518463ffffffff1660e01b81526004016106d193929190616c32565b600060405180830381600087803b1580156106eb57600080fd5b505af11580156106ff573d6000803e3d6000fd5b5050505060006007600083815260200190815260200160002060050160006101000a81548160ff021916908315150217905550610753600760008381526020019081526020016000206007015460016158ff565b6007600083815260200190815260200160002060070181905550600560009054906101000a900473ffffffffffffffffffffffffffffffffffffffff1673ffffffffffffffffffffffffffffffffffffffff166304833d98826007600085815260200190815260200160002060070154303360004260026040518863ffffffff1660e01b81526004016107ec9796959493929190617213565b600060405180830381600087803b15801561080657600080fd5b505af115801561081a573d6000803e3d6000fd5b5050505060016000819055505050565b606060008060035467ffffffffffffffff811115610871577f4e487b7100000000000000000000000000000000000000000000000000000000600052604160045260246000fd5b6040519080825280602002602001820160405280156108aa57816020015b610897615957565b81526020019060019003908161088f5790505b50905060005b600354811015610be7576000600760006001846108cd91906175b2565b81526020019081526020016000206001015414610bd457600760006001836108f591906175b2565b8152602001908152602001600020604051806101600160405290816000820160009054906101000a900473ffffffffffffffffffffffffffffffffffffffff1673ffffffffffffffffffffffffffffffffffffffff1673ffffffffffffffffffffffffffffffffffffffff168152602001600182015481526020016002820160009054906101000a900473ffffffffffffffffffffffffffffffffffffffff1673ffffffffffffffffffffffffffffffffffffffff1673ffffffffffffffffffffffffffffffffffffffff1681526020016003820160009054906101000a900473ffffffffffffffffffffffffffffffffffffffff1673ffffffffffffffffffffffffffffffffffffffff1673ffffffffffffffffffffffffffffffffffffffff168152602001600482015481526020016005820160009054906101000a900460ff16151515158152602001600682015481526020016007820154815260200160088201548152602001600982018054610a6e9061788c565b80601f0160208091040260200160405190810160405280929190818152602001828054610a9a9061788c565b8015610ae75780601f10610abc57610100808354040283529160200191610ae7565b820191906000526020600020905b815481529060010190602001808311610aca57829003601f168201915b50505050508152602001600a82018054610b009061788c565b80601f0160208091040260200160405190810160405280929190818152602001828054610b2c9061788c565b8015610b795780601f10610b4e57610100808354040283529160200191610b79565b820191906000526020600020905b815481529060010190602001808311610b5c57829003601f168201915b505050505081525050828481518110610bbb577f4e487b7100000000000000000000000000000000000000000000000000000000600052603260045260246000fd5b6020026020010181905250610bd18360016158ff565b92505b8080610bdf906178ef565b9150506108b0565b50809250505090565b606060008060005b600354811015610c97578473ffffffffffffffffffffffffffffffffffffffff1660076000610c288460016158ff565b815260200190815260200160002060020160009054906101000a900473ffffffffffffffffffffffffffffffffffffffff1673ffffffffffffffffffffffffffffffffffffffff161415610c8457610c818360016158ff565b92505b8080610c8f906178ef565b915050610bf8565b5060008267ffffffffffffffff811115610cda577f4e487b7100000000000000000000000000000000000000000000000000000000600052604160045260246000fd5b604051908082528060200260200182016040528015610d1357816020015b610d00615957565b815260200190600190039081610cf85790505b50905060005b60035481101561109a578573ffffffffffffffffffffffffffffffffffffffff1660076000610d498460016158ff565b815260200190815260200160002060020160009054906101000a900473ffffffffffffffffffffffffffffffffffffffff1673ffffffffffffffffffffffffffffffffffffffff1614156110875760076000600183610da891906175b2565b8152602001908152602001600020604051806101600160405290816000820160009054906101000a900473ffffffffffffffffffffffffffffffffffffffff1673ffffffffffffffffffffffffffffffffffffffff1673ffffffffffffffffffffffffffffffffffffffff168152602001600182015481526020016002820160009054906101000a900473ffffffffffffffffffffffffffffffffffffffff1673ffffffffffffffffffffffffffffffffffffffff1673ffffffffffffffffffffffffffffffffffffffff1681526020016003820160009054906101000a900473ffffffffffffffffffffffffffffffffffffffff1673ffffffffffffffffffffffffffffffffffffffff1673ffffffffffffffffffffffffffffffffffffffff168152602001600482015481526020016005820160009054906101000a900460ff16151515158152602001600682015481526020016007820154815260200160088201548152602001600982018054610f219061788c565b80601f0160208091040260200160405190810160405280929190818152602001828054610f4d9061788c565b8015610f9a5780601f10610f6f57610100808354040283529160200191610f9a565b820191906000526020600020905b815481529060010190602001808311610f7d57829003601f168201915b50505050508152602001600a82018054610fb39061788c565b80601f0160208091040260200160405190810160405280929190818152602001828054610fdf9061788c565b801561102c5780601f106110015761010080835404028352916020019161102c565b820191906000526020600020905b81548152906001019060200180831161100f57829003601f168201915b50505050508152505082848151811061106e577f4e487b7100000000000000000000000000000000000000000000000000000000600052603260045260246000fd5b60200260200101819052506110848360016158ff565b92505b8080611092906178ef565b915050610d19565b50809350505050919050565b600160009054906101000a900473ffffffffffffffffffffffffffffffffffffffff1673ffffffffffffffffffffffffffffffffffffffff163373ffffffffffffffffffffffffffffffffffffffff161461110057600080fd5b600160009054906101000a900473ffffffffffffffffffffffffffffffffffffffff1673ffffffffffffffffffffffffffffffffffffffff166108fc829081150290604051600060405180830381858888f19350505050158015611168573d6000803e3d6000fd5b5050565b600063150b7a0260e01b9050949350505050565b6060600080600760008581526020019081526020016000206007015467ffffffffffffffff8111156111db577f4e487b7100000000000000000000000000000000000000000000000000000000600052604160045260246000fd5b60405190808252806020026020018201604052801561121457816020015b6112016159f5565b8152602001906001900390816111f95790505b50905060005b600760008681526020019081526020016000206007015481101561135557600560009054906101000a900473ffffffffffffffffffffffffffffffffffffffff1673ffffffffffffffffffffffffffffffffffffffff166323daaaa18660018461128491906175b2565b6040518363ffffffff1660e01b81526004016112a192919061702e565b60a06040518083038186803b1580156112b957600080fd5b505afa1580156112cd573d6000803e3d6000fd5b505050506040513d601f19601f820116820180604052508101906112f1919061639e565b82848151811061132a577f4e487b7100000000000000000000000000000000000000000000000000000000600052603260045260246000fd5b60200260200101819052506113408360016158ff565b9250808061134d906178ef565b91505061121a565b508092505050919050565b611368615957565b60076000600660009054906101000a900473ffffffffffffffffffffffffffffffffffffffff1673ffffffffffffffffffffffffffffffffffffffff16635b33397f8560016040518363ffffffff1660e01b81526004016113ca929190616e03565b60206040518083038186803b1580156113e257600080fd5b505afa1580156113f6573d6000803e3d6000fd5b505050506040513d601f19601f8201168201806040525081019061141a9190616419565b8152602001908152602001600020604051806101600160405290816000820160009054906101000a900473ffffffffffffffffffffffffffffffffffffffff1673ffffffffffffffffffffffffffffffffffffffff1673ffffffffffffffffffffffffffffffffffffffff168152602001600182015481526020016002820160009054906101000a900473ffffffffffffffffffffffffffffffffffffffff1673ffffffffffffffffffffffffffffffffffffffff1673ffffffffffffffffffffffffffffffffffffffff1681526020016003820160009054906101000a900473ffffffffffffffffffffffffffffffffffffffff1673ffffffffffffffffffffffffffffffffffffffff1673ffffffffffffffffffffffffffffffffffffffff168152602001600482015481526020016005820160009054906101000a900460ff161515151581526020016006820154815260200160078201548152602001600882015481526020016009820180546115939061788c565b80601f01602080910402602001604051908101604052809291908181526020018280546115bf9061788c565b801561160c5780601f106115e15761010080835404028352916020019161160c565b820191906000526020600020905b8154815290600101906020018083116115ef57829003601f168201915b50505050508152602001600a820180546116259061788c565b80601f01602080910402602001604051908101604052809291908181526020018280546116519061788c565b801561169e5780601f106116735761010080835404028352916020019161169e565b820191906000526020600020905b81548152906001019060200180831161168157829003601f168201915b5050505050815250509050919050565b600260005414156116f4576040517f08c379a00000000000000000000000000000000000000000000000000000000081526004016116eb90616f0f565b60405180910390fd5b6002600081905550806007600084815260200190815260200160002060040181905550611738600760008481526020019081526020016000206007015460016158ff565b6007600084815260200190815260200160002060070181905550600560009054906101000a900473ffffffffffffffffffffffffffffffffffffffff1673ffffffffffffffffffffffffffffffffffffffff166304833d988360076000868152602001908152602001600020600701543330864260056040518863ffffffff1660e01b81526004016117d09796959493929190617360565b600060405180830381600087803b1580156117ea57600080fd5b505af11580156117fe573d6000803e3d6000fd5b5050505060016000819055505050565b60008273ffffffffffffffffffffffffffffffffffffffff16636352211e836040518263ffffffff1660e01b81526004016118499190616f51565b60206040518083038186803b15801561186157600080fd5b505afa158015611875573d6000803e3d6000fd5b505050506040513d601f19601f820116820180604052508101906118999190615eb8565b905092915050565b6060600080600660009054906101000a900473ffffffffffffffffffffffffffffffffffffffff1673ffffffffffffffffffffffffffffffffffffffff1663b771362a856040518263ffffffff1660e01b81526004016119019190616da3565b60206040518083038186803b15801561191957600080fd5b505afa15801561192d573d6000803e3d6000fd5b505050506040513d601f19601f820116820180604052508101906119519190616419565b67ffffffffffffffff811115611990577f4e487b7100000000000000000000000000000000000000000000000000000000600052604160045260246000fd5b6040519080825280602002602001820160405280156119c957816020015b6119b6615957565b8152602001906001900390816119ae5790505b50905060005b600660009054906101000a900473ffffffffffffffffffffffffffffffffffffffff1673ffffffffffffffffffffffffffffffffffffffff1663b771362a866040518263ffffffff1660e01b8152600401611a2a9190616da3565b60206040518083038186803b158015611a4257600080fd5b505afa158015611a56573d6000803e3d6000fd5b505050506040513d601f19601f82011682018060405250810190611a7a9190616419565b811015611e2f5760076000600660009054906101000a900473ffffffffffffffffffffffffffffffffffffffff1673ffffffffffffffffffffffffffffffffffffffff16635b33397f88600186611ad191906175b2565b6040518363ffffffff1660e01b8152600401611aee929190616e71565b60206040518083038186803b158015611b0657600080fd5b505afa158015611b1a573d6000803e3d6000fd5b505050506040513d601f19601f82011682018060405250810190611b3e9190616419565b8152602001908152602001600020604051806101600160405290816000820160009054906101000a900473ffffffffffffffffffffffffffffffffffffffff1673ffffffffffffffffffffffffffffffffffffffff1673ffffffffffffffffffffffffffffffffffffffff168152602001600182015481526020016002820160009054906101000a900473ffffffffffffffffffffffffffffffffffffffff1673ffffffffffffffffffffffffffffffffffffffff1673ffffffffffffffffffffffffffffffffffffffff1681526020016003820160009054906101000a900473ffffffffffffffffffffffffffffffffffffffff1673ffffffffffffffffffffffffffffffffffffffff1673ffffffffffffffffffffffffffffffffffffffff168152602001600482015481526020016005820160009054906101000a900460ff16151515158152602001600682015481526020016007820154815260200160088201548152602001600982018054611cb79061788c565b80601f0160208091040260200160405190810160405280929190818152602001828054611ce39061788c565b8015611d305780601f10611d0557610100808354040283529160200191611d30565b820191906000526020600020905b815481529060010190602001808311611d1357829003601f168201915b50505050508152602001600a82018054611d499061788c565b80601f0160208091040260200160405190810160405280929190818152602001828054611d759061788c565b8015611dc25780601f10611d9757610100808354040283529160200191611dc2565b820191906000526020600020905b815481529060010190602001808311611da557829003601f168201915b505050505081525050828481518110611e04577f4e487b7100000000000000000000000000000000000000000000000000000000600052603260045260246000fd5b6020026020010181905250611e1a8360016158ff565b92508080611e27906178ef565b9150506119cf565b508092505050919050565b60026000541415611e80576040517f08c379a0000000000000000000000000000000000000000000000000000000008152600401611e7790616f0f565b60405180910390fd5b600260008190555060008711611e9557600080fd5b8015611efa57600160009054906101000a900473ffffffffffffffffffffffffffffffffffffffff1673ffffffffffffffffffffffffffffffffffffffff163373ffffffffffffffffffffffffffffffffffffffff1614611ef557600080fd5b611f97565b600560009054906101000a900473ffffffffffffffffffffffffffffffffffffffff1673ffffffffffffffffffffffffffffffffffffffff166304833d988b6001336000804260006040518863ffffffff1660e01b8152600401611f649796959493929190616fbf565b600060405180830381600087803b158015611f7e57600080fd5b505af1158015611f92573d6000803e3d6000fd5b505050505b6040518061016001604052808c73ffffffffffffffffffffffffffffffffffffffff1681526020018b81526020018a73ffffffffffffffffffffffffffffffffffffffff1681526020018973ffffffffffffffffffffffffffffffffffffffff16815260200188815260200187151581526020018681526020018581526020016000815260200184815260200183815250600760008c815260200190815260200160002060008201518160000160006101000a81548173ffffffffffffffffffffffffffffffffffffffff021916908373ffffffffffffffffffffffffffffffffffffffff1602179055506020820151816001015560408201518160020160006101000a81548173ffffffffffffffffffffffffffffffffffffffff021916908373ffffffffffffffffffffffffffffffffffffffff16021790555060608201518160030160006101000a81548173ffffffffffffffffffffffffffffffffffffffff021916908373ffffffffffffffffffffffffffffffffffffffff1602179055506080820151816004015560a08201518160050160006101000a81548160ff02191690831515021790555060c0820151816006015560e082015181600701556101008201518160080155610120820151816009019080519060200190612180929190615a88565b5061014082015181600a01908051906020019061219e929190615a88565b5090505089600381905550600073ffffffffffffffffffffffffffffffffffffffff16600660009054906101000a900473ffffffffffffffffffffffffffffffffffffffff1673ffffffffffffffffffffffffffffffffffffffff1663128683ac846040518263ffffffff1660e01b815260040161221c9190616da3565b60206040518083038186803b15801561223457600080fd5b505afa158015612248573d6000803e3d6000fd5b505050506040513d601f19601f8201168201806040525081019061226c9190615eb8565b73ffffffffffffffffffffffffffffffffffffffff1614156123cc5760016002600082825461229b91906175b2565b92505081905550600660009054906101000a900473ffffffffffffffffffffffffffffffffffffffff1673ffffffffffffffffffffffffffffffffffffffff16632e92f4a583336002546040518463ffffffff1660e01b815260040161230393929190616dc5565b600060405180830381600087803b15801561231d57600080fd5b505af1158015612331573d6000803e3d6000fd5b50505050600660009054906101000a900473ffffffffffffffffffffffffffffffffffffffff1673ffffffffffffffffffffffffffffffffffffffff1663a7d5307a8360018d6040518463ffffffff1660e01b815260040161239593929190616e33565b600060405180830381600087803b1580156123af57600080fd5b505af11580156123c3573d6000803e3d6000fd5b50505050612595565b600660009054906101000a900473ffffffffffffffffffffffffffffffffffffffff1673ffffffffffffffffffffffffffffffffffffffff16636cf5efc2836040518263ffffffff1660e01b81526004016124279190616da3565b600060405180830381600087803b15801561244157600080fd5b505af1158015612455573d6000803e3d6000fd5b50505050600660009054906101000a900473ffffffffffffffffffffffffffffffffffffffff1673ffffffffffffffffffffffffffffffffffffffff1663a7d5307a83600660009054906101000a900473ffffffffffffffffffffffffffffffffffffffff1673ffffffffffffffffffffffffffffffffffffffff1663b771362a866040518263ffffffff1660e01b81526004016124f39190616da3565b60206040518083038186803b15801561250b57600080fd5b505afa15801561251f573d6000803e3d6000fd5b505050506040513d601f19601f820116820180604052508101906125439190616419565b8d6040518463ffffffff1660e01b815260040161256293929190616ea1565b600060405180830381600087803b15801561257c57600080fd5b505af1158015612590573d6000803e3d6000fd5b505050505b60016000819055505050505050505050505050565b600260005414156125f0576040517f08c379a00000000000000000000000000000000000000000000000000000000081526004016125e790616f0f565b60405180910390fd5b6002600081905550600460009054906101000a900473ffffffffffffffffffffffffffffffffffffffff1673ffffffffffffffffffffffffffffffffffffffff1663afc5edcb83836040518363ffffffff1660e01b815260040161265592919061702e565b600060405180830381600087803b15801561266f57600080fd5b505af1158015612683573d6000803e3d6000fd5b505050506000600190505b6007600084815260200190815260200160002060080154811161301257600460009054906101000a900473ffffffffffffffffffffffffffffffffffffffff1673ffffffffffffffffffffffffffffffffffffffff16637c93564c84836040518363ffffffff1660e01b815260040161270892919061702e565b60206040518083038186803b15801561272057600080fd5b505afa158015612734573d6000803e3d6000fd5b505050506040513d601f19601f82011682018060405250810190612758919061629f565b612fff576000600460009054906101000a900473ffffffffffffffffffffffffffffffffffffffff1673ffffffffffffffffffffffffffffffffffffffff16639b125c4885846040518363ffffffff1660e01b81526004016127bb92919061702e565b60206040518083038186803b1580156127d357600080fd5b505afa1580156127e7573d6000803e3d6000fd5b505050506040513d601f19601f8201168201806040525081019061280b9190615ee1565b90506000600460009054906101000a900473ffffffffffffffffffffffffffffffffffffffff1673ffffffffffffffffffffffffffffffffffffffff1663c4e2823786856040518363ffffffff1660e01b815260040161286c92919061702e565b60206040518083038186803b15801561288457600080fd5b505afa158015612898573d6000803e3d6000fd5b505050506040513d601f19601f820116820180604052508101906128bc9190616419565b9050600460009054906101000a900473ffffffffffffffffffffffffffffffffffffffff1673ffffffffffffffffffffffffffffffffffffffff1663a61178bc86856040518363ffffffff1660e01b815260040161291b92919061702e565b60206040518083038186803b15801561293357600080fd5b505afa158015612947573d6000803e3d6000fd5b505050506040513d601f19601f8201168201806040525081019061296b919061629f565b15612f1157600160009054906101000a900473ffffffffffffffffffffffffffffffffffffffff1673ffffffffffffffffffffffffffffffffffffffff166108fc6129c16129ba846002615915565b606461592b565b9081150290604051600060405180830381858888f193505050501580156129ec573d6000803e3d6000fd5b506007600086815260200190815260200160002060030160009054906101000a900473ffffffffffffffffffffffffffffffffffffffff1673ffffffffffffffffffffffffffffffffffffffff166108fc612a67612a6084600760008b815260200190815260200160002060060154615915565b606461592b565b9081150290604051600060405180830381858888f19350505050158015612a92573d6000803e3d6000fd5b506007600086815260200190815260200160002060020160009054906101000a900473ffffffffffffffffffffffffffffffffffffffff1673ffffffffffffffffffffffffffffffffffffffff166108fc612b17612b1084612b0b6064600760008d815260200190815260200160002060060154615941565b615915565b606461592b565b9081150290604051600060405180830381858888f19350505050158015612b42573d6000803e3d6000fd5b506007600086815260200190815260200160002060050160009054906101000a900460ff1615612c16576007600086815260200190815260200160002060000160009054906101000a900473ffffffffffffffffffffffffffffffffffffffff1673ffffffffffffffffffffffffffffffffffffffff166323b872dd3084886040518463ffffffff1660e01b8152600401612bdf93929190616bfb565b600060405180830381600087803b158015612bf957600080fd5b505af1158015612c0d573d6000803e3d6000fd5b50505050612cf2565b6007600086815260200190815260200160002060000160009054906101000a900473ffffffffffffffffffffffffffffffffffffffff1673ffffffffffffffffffffffffffffffffffffffff166323b872dd6007600088815260200190815260200160002060020160009054906101000a900473ffffffffffffffffffffffffffffffffffffffff1684886040518463ffffffff1660e01b8152600401612cbf93929190616bc4565b600060405180830381600087803b158015612cd957600080fd5b505af1158015612ced573d6000803e3d6000fd5b505050505b612d13600760008781526020019081526020016000206007015460016158ff565b6007600087815260200190815260200160002060070181905550600560009054906101000a900473ffffffffffffffffffffffffffffffffffffffff1673ffffffffffffffffffffffffffffffffffffffff166304833d98866007600089815260200190815260200160002060070154600760008a815260200190815260200160002060020160009054906101000a900473ffffffffffffffffffffffffffffffffffffffff1686864260086040518863ffffffff1660e01b8152600401612de19796959493929190617057565b600060405180830381600087803b158015612dfb57600080fd5b505af1158015612e0f573d6000803e3d6000fd5b50505050816007600087815260200190815260200160002060020160006101000a81548173ffffffffffffffffffffffffffffffffffffffff021916908373ffffffffffffffffffffffffffffffffffffffff160217905550600660009054906101000a900473ffffffffffffffffffffffffffffffffffffffff1673ffffffffffffffffffffffffffffffffffffffff166319b7829160076000888152602001908152602001600020600a01836040518363ffffffff1660e01b8152600401612eda929190616edf565b600060405180830381600087803b158015612ef457600080fd5b505af1158015612f08573d6000803e3d6000fd5b50505050612ffc565b600460009054906101000a900473ffffffffffffffffffffffffffffffffffffffff1673ffffffffffffffffffffffffffffffffffffffff16636c97899186856040518363ffffffff1660e01b8152600401612f6e92919061702e565b600060405180830381600087803b158015612f8857600080fd5b505af1158015612f9c573d6000803e3d6000fd5b505050508173ffffffffffffffffffffffffffffffffffffffff166108fc612fcf612fc8846066615915565b606461592b565b9081150290604051600060405180830381858888f19350505050158015612ffa573d6000803e3d6000fd5b505b50505b808061300a906178ef565b91505061268e565b506000600760008481526020019081526020016000206008018190555060016000819055505050565b6060600080600760008581526020019081526020016000206008015467ffffffffffffffff811115613096577f4e487b7100000000000000000000000000000000000000000000000000000000600052604160045260246000fd5b6040519080825280602002602001820160405280156130cf57816020015b6130bc615b0e565b8152602001906001900390816130b45790505b50905060005b600760008681526020019081526020016000206008015481101561321057600460009054906101000a900473ffffffffffffffffffffffffffffffffffffffff1673ffffffffffffffffffffffffffffffffffffffff1663c45cc1908660018461313f91906175b2565b6040518363ffffffff1660e01b815260040161315c92919061702e565b60a06040518083038186803b15801561317457600080fd5b505afa158015613188573d6000803e3d6000fd5b505050506040513d601f19601f820116820180604052508101906131ac91906163c7565b8284815181106131e5577f4e487b7100000000000000000000000000000000000000000000000000000000600052603260045260246000fd5b60200260200101819052506131fb8360016158ff565b92508080613208906178ef565b9150506130d5565b508092505050919050565b60026000541415613261576040517f08c379a000000000000000000000000000000000000000000000000000000000815260040161325890616f0f565b60405180910390fd5b60026000819055508273ffffffffffffffffffffffffffffffffffffffff166323b872dd3330856040518463ffffffff1660e01b81526004016132a693929190616c32565b600060405180830381600087803b1580156132c057600080fd5b505af11580156132d4573d6000803e3d6000fd5b5050505080600760008481526020019081526020016000206004018190555060016007600084815260200190815260200160002060050160006101000a81548160ff021916908315150217905550613343600760008481526020019081526020016000206007015460016158ff565b6007600084815260200190815260200160002060070181905550600560009054906101000a900473ffffffffffffffffffffffffffffffffffffffff1673ffffffffffffffffffffffffffffffffffffffff166304833d988360076000868152602001908152602001600020600701543330864260016040518863ffffffff1660e01b81526004016133db97969594939291906172f1565b600060405180830381600087803b1580156133f557600080fd5b505af1158015613409573d6000803e3d6000fd5b505050506001600081905550505050565b600160009054906101000a900473ffffffffffffffffffffffffffffffffffffffff1681565b60035481565b6000811161345357600080fd5b6001600760008481526020019081526020016000206008015461347691906175b2565b6007600084815260200190815260200160002060080181905550600460009054906101000a900473ffffffffffffffffffffffffffffffffffffffff1673ffffffffffffffffffffffffffffffffffffffff16637c4a9ba182336007600087815260200190815260200160002060020160009054906101000a900473ffffffffffffffffffffffffffffffffffffffff168660076000898152602001908152602001600020600801546040518663ffffffff1660e01b815260040161353f959493929190616f6c565b600060405180830381600087803b15801561355957600080fd5b505af115801561356d573d6000803e3d6000fd5b50505050613592600760008481526020019081526020016000206007015460016158ff565b6007600084815260200190815260200160002060070181905550600560009054906101000a900473ffffffffffffffffffffffffffffffffffffffff1673ffffffffffffffffffffffffffffffffffffffff166304833d98836007600086815260200190815260200160002060070154336007600088815260200190815260200160002060020160009054906101000a900473ffffffffffffffffffffffffffffffffffffffff16864260066040518863ffffffff1660e01b81526004016136609796959493929190617135565b600060405180830381600087803b15801561367a57600080fd5b505af115801561368e573d6000803e3d6000fd5b505050505050565b600260005414156136dc576040517f08c379a00000000000000000000000000000000000000000000000000000000081526004016136d390616f0f565b60405180910390fd5b6002600081905550600760008281526020019081526020016000206004015434101561370757600080fd5b600160009054906101000a900473ffffffffffffffffffffffffffffffffffffffff1673ffffffffffffffffffffffffffffffffffffffff166108fc61376e6137676007600086815260200190815260200160002060040154606461592b565b6002615915565b9081150290604051600060405180830381858888f19350505050158015613799573d6000803e3d6000fd5b506007600082815260200190815260200160002060030160009054906101000a900473ffffffffffffffffffffffffffffffffffffffff1673ffffffffffffffffffffffffffffffffffffffff166108fc61382a61380e6007600086815260200190815260200160002060040154606461592b565b6007600086815260200190815260200160002060060154615915565b9081150290604051600060405180830381858888f19350505050158015613855573d6000803e3d6000fd5b506007600082815260200190815260200160002060020160009054906101000a900473ffffffffffffffffffffffffffffffffffffffff1673ffffffffffffffffffffffffffffffffffffffff166108fc6138f06138ca6007600086815260200190815260200160002060040154606461592b565b6138eb60646007600088815260200190815260200160002060060154615941565b615915565b9081150290604051600060405180830381858888f1935050505015801561391b573d6000803e3d6000fd5b508173ffffffffffffffffffffffffffffffffffffffff166323b872dd3033846040518463ffffffff1660e01b815260040161395993929190616c32565b600060405180830381600087803b15801561397357600080fd5b505af1158015613987573d6000803e3d6000fd5b5050505060006007600083815260200190815260200160002060050160006101000a81548160ff0219169083151502179055506139db600760008381526020019081526020016000206007015460016158ff565b6007600083815260200190815260200160002060070181905550600560009054906101000a900473ffffffffffffffffffffffffffffffffffffffff1673ffffffffffffffffffffffffffffffffffffffff166304833d988260076000858152602001908152602001600020600701546007600086815260200190815260200160002060020160009054906101000a900473ffffffffffffffffffffffffffffffffffffffff163360076000888152602001908152602001600020600401544260036040518863ffffffff1660e01b8152600401613abf97969594939291906170c6565b600060405180830381600087803b158015613ad957600080fd5b505af1158015613aed573d6000803e3d6000fd5b50505050336007600083815260200190815260200160002060020160006101000a81548173ffffffffffffffffffffffffffffffffffffffff021916908373ffffffffffffffffffffffffffffffffffffffff160217905550600660009054906101000a900473ffffffffffffffffffffffffffffffffffffffff1673ffffffffffffffffffffffffffffffffffffffff166319b7829160076000848152602001908152602001600020600a0160076000858152602001908152602001600020600401546040518363ffffffff1660e01b8152600401613bce929190616edf565b600060405180830381600087803b158015613be857600080fd5b505af1158015613bfc573d6000803e3d6000fd5b505050506000600190505b60076000838152602001908152602001600020600801548111613f3757600460009054906101000a900473ffffffffffffffffffffffffffffffffffffffff1673ffffffffffffffffffffffffffffffffffffffff16637c93564c83836040518363ffffffff1660e01b8152600401613c8192919061702e565b60206040518083038186803b158015613c9957600080fd5b505afa158015613cad573d6000803e3d6000fd5b505050506040513d601f19601f82011682018060405250810190613cd1919061629f565b613f24576000600460009054906101000a900473ffffffffffffffffffffffffffffffffffffffff1673ffffffffffffffffffffffffffffffffffffffff16639b125c4884846040518363ffffffff1660e01b8152600401613d3492919061702e565b60206040518083038186803b158015613d4c57600080fd5b505afa158015613d60573d6000803e3d6000fd5b505050506040513d601f19601f82011682018060405250810190613d849190615ee1565b90506000600460009054906101000a900473ffffffffffffffffffffffffffffffffffffffff1673ffffffffffffffffffffffffffffffffffffffff1663c4e2823785856040518363ffffffff1660e01b8152600401613de592919061702e565b60206040518083038186803b158015613dfd57600080fd5b505afa158015613e11573d6000803e3d6000fd5b505050506040513d601f19601f82011682018060405250810190613e359190616419565b9050600460009054906101000a900473ffffffffffffffffffffffffffffffffffffffff1673ffffffffffffffffffffffffffffffffffffffff16636c97899185856040518363ffffffff1660e01b8152600401613e9492919061702e565b600060405180830381600087803b158015613eae57600080fd5b505af1158015613ec2573d6000803e3d6000fd5b505050508173ffffffffffffffffffffffffffffffffffffffff166108fc613ef5613eee846066615915565b606461592b565b9081150290604051600060405180830381858888f19350505050158015613f20573d6000803e3d6000fd5b5050505b8080613f2f906178ef565b915050613c07565b506000600760008381526020019081526020016000206008018190555060016000819055505050565b60026000541415613fa6576040517f08c379a0000000000000000000000000000000000000000000000000000000008152600401613f9d90616f0f565b60405180910390fd5b6002600081905550600460009054906101000a900473ffffffffffffffffffffffffffffffffffffffff1673ffffffffffffffffffffffffffffffffffffffff16636c97899183836040518363ffffffff1660e01b815260040161400b92919061702e565b600060405180830381600087803b15801561402557600080fd5b505af1158015614039573d6000803e3d6000fd5b5050505061405e600760008481526020019081526020016000206007015460016158ff565b6007600084815260200190815260200160002060070181905550600560009054906101000a900473ffffffffffffffffffffffffffffffffffffffff1673ffffffffffffffffffffffffffffffffffffffff166304833d98836007600086815260200190815260200160002060070154336007600088815260200190815260200160002060020160009054906101000a900473ffffffffffffffffffffffffffffffffffffffff16600460009054906101000a900473ffffffffffffffffffffffffffffffffffffffff1673ffffffffffffffffffffffffffffffffffffffff1663c4e2823789896040518363ffffffff1660e01b815260040161416392919061702e565b60206040518083038186803b15801561417b57600080fd5b505afa15801561418f573d6000803e3d6000fd5b505050506040513d601f19601f820116820180604052508101906141b39190616419565b4260076040518863ffffffff1660e01b81526004016141d897969594939291906171a4565b600060405180830381600087803b1580156141f257600080fd5b505af1158015614206573d6000803e3d6000fd5b50505050600460009054906101000a900473ffffffffffffffffffffffffffffffffffffffff1673ffffffffffffffffffffffffffffffffffffffff16639b125c4883836040518363ffffffff1660e01b815260040161426792919061702e565b60206040518083038186803b15801561427f57600080fd5b505afa158015614293573d6000803e3d6000fd5b505050506040513d601f19601f820116820180604052508101906142b79190615ee1565b73ffffffffffffffffffffffffffffffffffffffff166108fc61439161438a600460009054906101000a900473ffffffffffffffffffffffffffffffffffffffff1673ffffffffffffffffffffffffffffffffffffffff1663c4e2823787876040518363ffffffff1660e01b815260040161433392919061702e565b60206040518083038186803b15801561434b57600080fd5b505afa15801561435f573d6000803e3d6000fd5b505050506040513d601f19601f820116820180604052508101906143839190616419565b6066615915565b606461592b565b9081150290604051600060405180830381858888f193505050501580156143bc573d6000803e3d6000fd5b5060016000819055505050565b606060008060005b600354811015614470578473ffffffffffffffffffffffffffffffffffffffff16600760006144018460016158ff565b815260200190815260200160002060030160009054906101000a900473ffffffffffffffffffffffffffffffffffffffff1673ffffffffffffffffffffffffffffffffffffffff16141561445d5761445a8360016158ff565b92505b8080614468906178ef565b9150506143d1565b5060008267ffffffffffffffff8111156144b3577f4e487b7100000000000000000000000000000000000000000000000000000000600052604160045260246000fd5b6040519080825280602002602001820160405280156144ec57816020015b6144d9615957565b8152602001906001900390816144d15790505b50905060005b600354811015614873578573ffffffffffffffffffffffffffffffffffffffff16600760006145228460016158ff565b815260200190815260200160002060030160009054906101000a900473ffffffffffffffffffffffffffffffffffffffff1673ffffffffffffffffffffffffffffffffffffffff161415614860576007600060018361458191906175b2565b8152602001908152602001600020604051806101600160405290816000820160009054906101000a900473ffffffffffffffffffffffffffffffffffffffff1673ffffffffffffffffffffffffffffffffffffffff1673ffffffffffffffffffffffffffffffffffffffff168152602001600182015481526020016002820160009054906101000a900473ffffffffffffffffffffffffffffffffffffffff1673ffffffffffffffffffffffffffffffffffffffff1673ffffffffffffffffffffffffffffffffffffffff1681526020016003820160009054906101000a900473ffffffffffffffffffffffffffffffffffffffff1673ffffffffffffffffffffffffffffffffffffffff1673ffffffffffffffffffffffffffffffffffffffff168152602001600482015481526020016005820160009054906101000a900460ff161515151581526020016006820154815260200160078201548152602001600882015481526020016009820180546146fa9061788c565b80601f01602080910402602001604051908101604052809291908181526020018280546147269061788c565b80156147735780601f1061474857610100808354040283529160200191614773565b820191906000526020600020905b81548152906001019060200180831161475657829003601f168201915b50505050508152602001600a8201805461478c9061788c565b80601f01602080910402602001604051908101604052809291908181526020018280546147b89061788c565b80156148055780601f106147da57610100808354040283529160200191614805565b820191906000526020600020905b8154815290600101906020018083116147e857829003601f168201915b505050505081525050828481518110614847577f4e487b7100000000000000000000000000000000000000000000000000000000600052603260045260246000fd5b602002602001018190525061485d8360016158ff565b92505b808061486b906178ef565b9150506144f2565b50809350505050919050565b600160009054906101000a900473ffffffffffffffffffffffffffffffffffffffff1673ffffffffffffffffffffffffffffffffffffffff163373ffffffffffffffffffffffffffffffffffffffff16146148d957600080fd5b600560009054906101000a900473ffffffffffffffffffffffffffffffffffffffff1673ffffffffffffffffffffffffffffffffffffffff166304833d988888878787878c6040518863ffffffff1660e01b815260040161494097969594939291906173cf565b600060405180830381600087803b15801561495a57600080fd5b505af115801561496e573d6000803e3d6000fd5b5050505050505050505050565b606060008060025467ffffffffffffffff8111156149c2577f4e487b7100000000000000000000000000000000000000000000000000000000600052604160045260246000fd5b6040519080825280602002602001820160405280156149fb57816020015b6149e8615957565b8152602001906001900390816149e05790505b5090506000600190505b6002548111614e605760076000600660009054906101000a900473ffffffffffffffffffffffffffffffffffffffff1673ffffffffffffffffffffffffffffffffffffffff16635b33397f600660009054906101000a900473ffffffffffffffffffffffffffffffffffffffff1673ffffffffffffffffffffffffffffffffffffffff166340d82e6c866040518263ffffffff1660e01b8152600401614aab9190616f51565b60006040518083038186803b158015614ac357600080fd5b505afa158015614ad7573d6000803e3d6000fd5b505050506040513d6000823e3d601f19601f82011682018060405250810190614b009190616309565b60016040518363ffffffff1660e01b8152600401614b1f929190616e03565b60206040518083038186803b158015614b3757600080fd5b505afa158015614b4b573d6000803e3d6000fd5b505050506040513d601f19601f82011682018060405250810190614b6f9190616419565b8152602001908152602001600020604051806101600160405290816000820160009054906101000a900473ffffffffffffffffffffffffffffffffffffffff1673ffffffffffffffffffffffffffffffffffffffff1673ffffffffffffffffffffffffffffffffffffffff168152602001600182015481526020016002820160009054906101000a900473ffffffffffffffffffffffffffffffffffffffff1673ffffffffffffffffffffffffffffffffffffffff1673ffffffffffffffffffffffffffffffffffffffff1681526020016003820160009054906101000a900473ffffffffffffffffffffffffffffffffffffffff1673ffffffffffffffffffffffffffffffffffffffff1673ffffffffffffffffffffffffffffffffffffffff168152602001600482015481526020016005820160009054906101000a900460ff16151515158152602001600682015481526020016007820154815260200160088201548152602001600982018054614ce89061788c565b80601f0160208091040260200160405190810160405280929190818152602001828054614d149061788c565b8015614d615780601f10614d3657610100808354040283529160200191614d61565b820191906000526020600020905b815481529060010190602001808311614d4457829003601f168201915b50505050508152602001600a82018054614d7a9061788c565b80601f0160208091040260200160405190810160405280929190818152602001828054614da69061788c565b8015614df35780601f10614dc857610100808354040283529160200191614df3565b820191906000526020600020905b815481529060010190602001808311614dd657829003601f168201915b505050505081525050828481518110614e35577f4e487b7100000000000000000000000000000000000000000000000000000000600052603260045260246000fd5b6020026020010181905250614e4b8360016158ff565b92508080614e58906178ef565b915050614a05565b50809250505090565b60026000541415614eaf576040517f08c379a0000000000000000000000000000000000000000000000000000000008152600401614ea690616f0f565b60405180910390fd5b60026000819055508273ffffffffffffffffffffffffffffffffffffffff166323b872dd3383856040518463ffffffff1660e01b8152600401614ef493929190616c32565b600060405180830381600087803b158015614f0e57600080fd5b505af1158015614f22573d6000803e3d6000fd5b50505050806007600084815260200190815260200160002060020160006101000a81548173ffffffffffffffffffffffffffffffffffffffff021916908373ffffffffffffffffffffffffffffffffffffffff160217905550614f9c600760008481526020019081526020016000206007015460016158ff565b6007600084815260200190815260200160002060070181905550600560009054906101000a900473ffffffffffffffffffffffffffffffffffffffff1673ffffffffffffffffffffffffffffffffffffffff166304833d98836007600086815260200190815260200160002060070154338560004260046040518863ffffffff1660e01b81526004016150359796959493929190617282565b600060405180830381600087803b15801561504f57600080fd5b505af1158015615063573d6000803e3d6000fd5b505050506000600190505b6007600084815260200190815260200160002060080154811161539e57600460009054906101000a900473ffffffffffffffffffffffffffffffffffffffff1673ffffffffffffffffffffffffffffffffffffffff16637c93564c84836040518363ffffffff1660e01b81526004016150e892919061702e565b60206040518083038186803b15801561510057600080fd5b505afa158015615114573d6000803e3d6000fd5b505050506040513d601f19601f82011682018060405250810190615138919061629f565b61538b576000600460009054906101000a900473ffffffffffffffffffffffffffffffffffffffff1673ffffffffffffffffffffffffffffffffffffffff16639b125c4885846040518363ffffffff1660e01b815260040161519b92919061702e565b60206040518083038186803b1580156151b357600080fd5b505afa1580156151c7573d6000803e3d6000fd5b505050506040513d601f19601f820116820180604052508101906151eb9190615ee1565b90506000600460009054906101000a900473ffffffffffffffffffffffffffffffffffffffff1673ffffffffffffffffffffffffffffffffffffffff1663c4e2823786856040518363ffffffff1660e01b815260040161524c92919061702e565b60206040518083038186803b15801561526457600080fd5b505afa158015615278573d6000803e3d6000fd5b505050506040513d601f19601f8201168201806040525081019061529c9190616419565b9050600460009054906101000a900473ffffffffffffffffffffffffffffffffffffffff1673ffffffffffffffffffffffffffffffffffffffff16636c97899186856040518363ffffffff1660e01b81526004016152fb92919061702e565b600060405180830381600087803b15801561531557600080fd5b505af1158015615329573d6000803e3d6000fd5b505050508173ffffffffffffffffffffffffffffffffffffffff166108fc61535c615355846066615915565b606461592b565b9081150290604051600060405180830381858888f19350505050158015615387573d6000803e3d6000fd5b5050505b8080615396906178ef565b91505061506e565b50600060076000848152602001908152602001600020600801819055506001600081905550505050565b6002600054141561540e576040517f08c379a000000000000000000000000000000000000000000000000000000000815260040161540590616f0f565b60405180910390fd5b6002600081905550600160009054906101000a900473ffffffffffffffffffffffffffffffffffffffff1673ffffffffffffffffffffffffffffffffffffffff163373ffffffffffffffffffffffffffffffffffffffff161461547057600080fd5b6040518061016001604052808c73ffffffffffffffffffffffffffffffffffffffff1681526020018b81526020018a73ffffffffffffffffffffffffffffffffffffffff1681526020018973ffffffffffffffffffffffffffffffffffffffff168152602001888152602001871515815260200186815260200185815260200184815260200183815260200182815250600760008c815260200190815260200160002060008201518160000160006101000a81548173ffffffffffffffffffffffffffffffffffffffff021916908373ffffffffffffffffffffffffffffffffffffffff1602179055506020820151816001015560408201518160020160006101000a81548173ffffffffffffffffffffffffffffffffffffffff021916908373ffffffffffffffffffffffffffffffffffffffff16021790555060608201518160030160006101000a81548173ffffffffffffffffffffffffffffffffffffffff021916908373ffffffffffffffffffffffffffffffffffffffff1602179055506080820151816004015560a08201518160050160006101000a81548160ff02191690831515021790555060c0820151816006015560e082015181600701556101008201518160080155610120820151816009019080519060200190615658929190615a88565b5061014082015181600a019080519060200190615676929190615a88565b5090505060016000819055505050505050505050505050565b60025481565b60076020528060005260406000206000915090508060000160009054906101000a900473ffffffffffffffffffffffffffffffffffffffff16908060010154908060020160009054906101000a900473ffffffffffffffffffffffffffffffffffffffff16908060030160009054906101000a900473ffffffffffffffffffffffffffffffffffffffff16908060040154908060050160009054906101000a900460ff169080600601549080600701549080600801549080600901805461575b9061788c565b80601f01602080910402602001604051908101604052809291908181526020018280546157879061788c565b80156157d45780601f106157a9576101008083540402835291602001916157d4565b820191906000526020600020905b8154815290600101906020018083116157b757829003601f168201915b50505050509080600a0180546157e99061788c565b80601f01602080910402602001604051908101604052809291908181526020018280546158159061788c565b80156158625780601f1061583757610100808354040283529160200191615862565b820191906000526020600020905b81548152906001019060200180831161584557829003601f168201915b505050505090508b565b600660009054906101000a900473ffffffffffffffffffffffffffffffffffffffff1673ffffffffffffffffffffffffffffffffffffffff16631e54294a83836040518363ffffffff1660e01b81526004016158c9929190616e71565b600060405180830381600087803b1580156158e357600080fd5b505af11580156158f7573d6000803e3d6000fd5b505050505050565b6000818361590d91906175b2565b905092915050565b600081836159239190617639565b905092915050565b600081836159399190617608565b905092915050565b6000818361594f9190617693565b905092915050565b604051806101600160405280600073ffffffffffffffffffffffffffffffffffffffff16815260200160008152602001600073ffffffffffffffffffffffffffffffffffffffff168152602001600073ffffffffffffffffffffffffffffffffffffffff1681526020016000815260200160001515815260200160008152602001600081526020016000815260200160608152602001606081525090565b6040518060a0016040528060006008811115615a3a577f4e487b7100000000000000000000000000000000000000000000000000000000600052602160045260246000fd5b8152602001600073ffffffffffffffffffffffffffffffffffffffff168152602001600073ffffffffffffffffffffffffffffffffffffffff16815260200160008152602001600081525090565b828054615a949061788c565b90600052602060002090601f016020900481019282615ab65760008555615afd565b82601f10615acf57805160ff1916838001178555615afd565b82800160010185558215615afd579182015b82811115615afc578251825591602001919060010190615ae1565b5b509050615b0a9190615b6d565b5090565b6040518060a0016040528060008152602001600073ffffffffffffffffffffffffffffffffffffffff168152602001600073ffffffffffffffffffffffffffffffffffffffff1681526020016000151581526020016000151581525090565b5b80821115615b86576000816000905550600101615b6e565b5090565b6000615b9d615b9884617463565b61743e565b905082815260208101848484011115615bb557600080fd5b615bc084828561784a565b509392505050565b6000615bdb615bd684617494565b61743e565b905082815260208101848484011115615bf357600080fd5b615bfe84828561784a565b509392505050565b6000615c19615c1484617494565b61743e565b905082815260208101848484011115615c3157600080fd5b615c3c848285617859565b509392505050565b600081359050615c5381617a71565b92915050565b600081519050615c6881617a71565b92915050565b600081359050615c7d81617a88565b92915050565b600081519050615c9281617a88565b92915050565b600081359050615ca781617a9f565b92915050565b600081519050615cbc81617a9f565b92915050565b600082601f830112615cd357600080fd5b8135615ce3848260208601615b8a565b91505092915050565b600081519050615cfb81617ab6565b92915050565b600082601f830112615d1257600080fd5b8135615d22848260208601615bc8565b91505092915050565b600082601f830112615d3c57600080fd5b8151615d4c848260208601615c06565b91505092915050565b600060a08284031215615d6757600080fd5b615d7160a061743e565b90506000615d8184828501615cec565b6000830152506020615d9584828501615c59565b6020830152506040615da984828501615c59565b6040830152506060615dbd84828501615e7a565b6060830152506080615dd184828501615e7a565b60808301525092915050565b600060a08284031215615def57600080fd5b615df960a061743e565b90506000615e0984828501615e7a565b6000830152506020615e1d84828501615c83565b6020830152506040615e3184828501615c83565b6040830152506060615e4584828501615cad565b6060830152506080615e5984828501615cad565b60808301525092915050565b600081359050615e7481617ac6565b92915050565b600081519050615e8981617ac6565b92915050565b600060208284031215615ea157600080fd5b6000615eaf84828501615c44565b91505092915050565b600060208284031215615eca57600080fd5b6000615ed884828501615c59565b91505092915050565b600060208284031215615ef357600080fd5b6000615f0184828501615c83565b91505092915050565b60008060008060808587031215615f2057600080fd5b6000615f2e87828801615c44565b9450506020615f3f87828801615c44565b9350506040615f5087828801615e65565b925050606085013567ffffffffffffffff811115615f6d57600080fd5b615f7987828801615cc2565b91505092959194509250565b60008060408385031215615f9857600080fd5b6000615fa685828601615c44565b9250506020615fb785828601615e65565b9150509250929050565b600080600060608486031215615fd657600080fd5b6000615fe486828701615c44565b9350506020615ff586828701615e65565b925050604061600686828701615c44565b9150509250925092565b60008060008060008060008060008060006101608c8e03121561603257600080fd5b60006160408e828f01615c44565b9b505060206160518e828f01615e65565b9a505060406160628e828f01615c6e565b99505060606160738e828f01615c44565b98505060806160848e828f01615e65565b97505060a06160958e828f01615c98565b96505060c06160a68e828f01615e65565b95505060e06160b78e828f01615e65565b9450506101008c013567ffffffffffffffff8111156160d557600080fd5b6160e18e828f01615d01565b9350506101208c013567ffffffffffffffff8111156160ff57600080fd5b61610b8e828f01615d01565b92505061014061611d8e828f01615c98565b9150509295989b509295989b9093969950565b60008060008060008060008060008060006101608c8e03121561615257600080fd5b60006161608e828f01615c44565b9b505060206161718e828f01615e65565b9a505060406161828e828f01615c6e565b99505060606161938e828f01615c44565b98505060806161a48e828f01615e65565b97505060a06161b58e828f01615c98565b96505060c06161c68e828f01615e65565b95505060e06161d78e828f01615e65565b9450506101006161e98e828f01615e65565b9350506101208c013567ffffffffffffffff81111561620757600080fd5b6162138e828f01615d01565b9250506101408c013567ffffffffffffffff81111561623157600080fd5b61623d8e828f01615d01565b9150509295989b509295989b9093969950565b60008060006060848603121561626557600080fd5b600061627386828701615c44565b935050602061628486828701615e65565b925050604061629586828701615e65565b9150509250925092565b6000602082840312156162b157600080fd5b60006162bf84828501615cad565b91505092915050565b6000602082840312156162da57600080fd5b600082013567ffffffffffffffff8111156162f457600080fd5b61630084828501615d01565b91505092915050565b60006020828403121561631b57600080fd5b600082015167ffffffffffffffff81111561633557600080fd5b61634184828501615d2b565b91505092915050565b6000806040838503121561635d57600080fd5b600083013567ffffffffffffffff81111561637757600080fd5b61638385828601615d01565b925050602061639485828601615e65565b9150509250929050565b600060a082840312156163b057600080fd5b60006163be84828501615d55565b91505092915050565b600060a082840312156163d957600080fd5b60006163e784828501615ddd565b91505092915050565b60006020828403121561640257600080fd5b600061641084828501615e65565b91505092915050565b60006020828403121561642b57600080fd5b600061643984828501615e7a565b91505092915050565b6000806040838503121561645557600080fd5b600061646385828601615e65565b925050602061647485828601615e65565b9150509250929050565b600080600080600080600060e0888a03121561649957600080fd5b60006164a78a828b01615e65565b97505060206164b88a828b01615e65565b96505060406164c98a828b01615e65565b95505060606164da8a828b01615c44565b94505060806164eb8a828b01615c44565b93505060a06164fc8a828b01615e65565b92505060c061650d8a828b01615e65565b91505092959891949750929550565b600061652883836168b4565b60a08301905092915050565b6000616540838361691c565b905092915050565b60006165548383616b08565b60a08301905092915050565b61656981617760565b82525050565b616578816176d9565b82525050565b616587816176d9565b82525050565b616596816176c7565b82525050565b6165a5816176c7565b82525050565b60006165b68261750a565b6165c0818561755d565b93506165cb836174c5565b8060005b838110156165fc5781516165e3888261651c565b97506165ee83617536565b9250506001810190506165cf565b5085935050505092915050565b600061661482617515565b61661e818561756e565b935083602082028501616630856174d5565b8060005b8581101561666c578484038952815161664d8582616534565b945061665883617543565b925060208a01995050600181019050616634565b50829750879550505050505092915050565b600061668982617520565b616693818561757f565b935061669e836174e5565b8060005b838110156166cf5781516166b68882616548565b97506166c183617550565b9250506001810190506166a2565b5085935050505092915050565b6166e5816176eb565b82525050565b6166f4816176eb565b82525050565b616703816176f7565b82525050565b61671281617772565b82525050565b61672181617784565b82525050565b61673081617796565b82525050565b61673f816177a8565b82525050565b61674e816177ba565b82525050565b61675d816177cc565b82525050565b61676c816177de565b82525050565b61677b816177f0565b82525050565b61678a81617802565b82525050565b61679981617814565b82525050565b60006167aa8261752b565b6167b48185617590565b93506167c4818560208601617859565b6167cd81617a23565b840191505092915050565b60006167e38261752b565b6167ed81856175a1565b93506167fd818560208601617859565b61680681617a23565b840191505092915050565b6000815461681e8161788c565b61682881866175a1565b94506001821660008114616843576001811461685557616888565b60ff1983168652602086019350616888565b61685e856174f5565b60005b8381101561688057815481890152600182019150602081019050616861565b808801955050505b50505092915050565b600061689e601f836175a1565b91506168a982617a34565b602082019050919050565b60a0820160008201516168ca6000850182616709565b5060208201516168dd602085018261658d565b5060408201516168f0604085018261658d565b5060608201516169036060850182616b70565b5060808201516169166080850182616b70565b50505050565b600061016083016000830151616935600086018261658d565b5060208301516169486020860182616b70565b50604083015161695b604086018261656f565b50606083015161696e606086018261658d565b5060808301516169816080860182616b70565b5060a083015161699460a08601826166dc565b5060c08301516169a760c0860182616b70565b5060e08301516169ba60e0860182616b70565b506101008301516169cf610100860182616b70565b506101208301518482036101208601526169e9828261679f565b915050610140830151848203610140860152616a05828261679f565b9150508091505092915050565b600061016083016000830151616a2b600086018261658d565b506020830151616a3e6020860182616b70565b506040830151616a51604086018261656f565b506060830151616a64606086018261658d565b506080830151616a776080860182616b70565b5060a0830151616a8a60a08601826166dc565b5060c0830151616a9d60c0860182616b70565b5060e0830151616ab060e0860182616b70565b50610100830151616ac5610100860182616b70565b50610120830151848203610120860152616adf828261679f565b915050610140830151848203610140860152616afb828261679f565b9150508091505092915050565b60a082016000820151616b1e6000850182616b70565b506020820151616b31602085018261656f565b506040820151616b44604085018261656f565b506060820151616b5760608501826166dc565b506080820151616b6a60808501826166dc565b50505050565b616b7981617756565b82525050565b616b8881617756565b82525050565b6000602082019050616ba3600083018461659c565b92915050565b6000602082019050616bbe600083018461657e565b92915050565b6000606082019050616bd96000830186616560565b616be66020830185616560565b616bf36040830184616b7f565b949350505050565b6000606082019050616c10600083018661659c565b616c1d6020830185616560565b616c2a6040830184616b7f565b949350505050565b6000606082019050616c47600083018661659c565b616c54602083018561659c565b616c616040830184616b7f565b949350505050565b600061016082019050616c7f600083018e61659c565b616c8c602083018d616b7f565b616c99604083018c61657e565b616ca6606083018b61659c565b616cb3608083018a616b7f565b616cc060a08301896166eb565b616ccd60c0830188616b7f565b616cda60e0830187616b7f565b616ce8610100830186616b7f565b818103610120830152616cfb81856167d8565b9050818103610140830152616d1081846167d8565b90509c9b505050505050505050505050565b60006020820190508181036000830152616d3c81846165ab565b905092915050565b60006020820190508181036000830152616d5e8184616609565b905092915050565b60006020820190508181036000830152616d80818461667e565b905092915050565b6000602082019050616d9d60008301846166fa565b92915050565b60006020820190508181036000830152616dbd81846167d8565b905092915050565b60006060820190508181036000830152616ddf81866167d8565b9050616dee602083018561659c565b616dfb6040830184616b7f565b949350505050565b60006040820190508181036000830152616e1d81856167d8565b9050616e2c6020830184616727565b9392505050565b60006060820190508181036000830152616e4d81866167d8565b9050616e5c6020830185616727565b616e696040830184616b7f565b949350505050565b60006040820190508181036000830152616e8b81856167d8565b9050616e9a6020830184616b7f565b9392505050565b60006060820190508181036000830152616ebb81866167d8565b9050616eca6020830185616b7f565b616ed76040830184616b7f565b949350505050565b60006040820190508181036000830152616ef98185616811565b9050616f086020830184616b7f565b9392505050565b60006020820190508181036000830152616f2881616891565b9050919050565b60006020820190508181036000830152616f498184616a12565b905092915050565b6000602082019050616f666000830184616b7f565b92915050565b600060a082019050616f816000830188616b7f565b616f8e602083018761657e565b616f9b604083018661657e565b616fa86060830185616b7f565b616fb56080830184616b7f565b9695505050505050565b600060e082019050616fd4600083018a616b7f565b616fe16020830189616727565b616fee604083018861659c565b616ffb606083018761659c565b6170086080830186616718565b61701560a0830185616b7f565b61702260c0830184616718565b98975050505050505050565b60006040820190506170436000830185616b7f565b6170506020830184616b7f565b9392505050565b600060e08201905061706c600083018a616b7f565b6170796020830189616b7f565b6170866040830188616560565b6170936060830187616560565b6170a06080830186616b7f565b6170ad60a0830185616b7f565b6170ba60c0830184616790565b98975050505050505050565b600060e0820190506170db600083018a616b7f565b6170e86020830189616b7f565b6170f56040830188616560565b617102606083018761659c565b61710f6080830186616b7f565b61711c60a0830185616b7f565b61712960c0830184616745565b98975050505050505050565b600060e08201905061714a600083018a616b7f565b6171576020830189616b7f565b617164604083018861659c565b6171716060830187616560565b61717e6080830186616b7f565b61718b60a0830185616b7f565b61719860c0830184616772565b98975050505050505050565b600060e0820190506171b9600083018a616b7f565b6171c66020830189616b7f565b6171d3604083018861659c565b6171e06060830187616560565b6171ed6080830186616b7f565b6171fa60a0830185616b7f565b61720760c0830184616781565b98975050505050505050565b600060e082019050617228600083018a616b7f565b6172356020830189616b7f565b617242604083018861659c565b61724f606083018761659c565b61725c6080830186616718565b61726960a0830185616b7f565b61727660c0830184616736565b98975050505050505050565b600060e082019050617297600083018a616b7f565b6172a46020830189616b7f565b6172b1604083018861659c565b6172be606083018761659c565b6172cb6080830186616718565b6172d860a0830185616b7f565b6172e560c0830184616754565b98975050505050505050565b600060e082019050617306600083018a616b7f565b6173136020830189616b7f565b617320604083018861659c565b61732d606083018761659c565b61733a6080830186616b7f565b61734760a0830185616b7f565b61735460c0830184616727565b98975050505050505050565b600060e082019050617375600083018a616b7f565b6173826020830189616b7f565b61738f604083018861659c565b61739c606083018761659c565b6173a96080830186616b7f565b6173b660a0830185616b7f565b6173c360c0830184616763565b98975050505050505050565b600060e0820190506173e4600083018a616b7f565b6173f16020830189616b7f565b6173fe604083018861659c565b61740b606083018761659c565b6174186080830186616b7f565b61742560a0830185616b7f565b61743260c0830184616b7f565b98975050505050505050565b6000617448617459565b905061745482826178be565b919050565b6000604051905090565b600067ffffffffffffffff82111561747e5761747d6179f4565b5b61748782617a23565b9050602081019050919050565b600067ffffffffffffffff8211156174af576174ae6179f4565b5b6174b882617a23565b9050602081019050919050565b6000819050602082019050919050565b6000819050602082019050919050565b6000819050602082019050919050565b60008190508160005260206000209050919050565b600081519050919050565b600081519050919050565b600081519050919050565b600081519050919050565b6000602082019050919050565b6000602082019050919050565b6000602082019050919050565b600082825260208201905092915050565b600082825260208201905092915050565b600082825260208201905092915050565b600082825260208201905092915050565b600082825260208201905092915050565b60006175bd82617756565b91506175c883617756565b9250827fffffffffffffffffffffffffffffffffffffffffffffffffffffffffffffffff038211156175fd576175fc617938565b5b828201905092915050565b600061761382617756565b915061761e83617756565b92508261762e5761762d617967565b5b828204905092915050565b600061764482617756565b915061764f83617756565b9250817fffffffffffffffffffffffffffffffffffffffffffffffffffffffffffffffff048311821515161561768857617687617938565b5b828202905092915050565b600061769e82617756565b91506176a983617756565b9250828210156176bc576176bb617938565b5b828203905092915050565b60006176d282617736565b9050919050565b60006176e482617736565b9050919050565b60008115159050919050565b60007fffffffff0000000000000000000000000000000000000000000000000000000082169050919050565b600081905061773182617a5d565b919050565b600073ffffffffffffffffffffffffffffffffffffffff82169050919050565b6000819050919050565b600061776b82617826565b9050919050565b600061777d82617723565b9050919050565b600061778f82617756565b9050919050565b60006177a182617756565b9050919050565b60006177b382617756565b9050919050565b60006177c582617756565b9050919050565b60006177d782617756565b9050919050565b60006177e982617756565b9050919050565b60006177fb82617756565b9050919050565b600061780d82617756565b9050919050565b600061781f82617756565b9050919050565b600061783182617838565b9050919050565b600061784382617736565b9050919050565b82818337600083830152505050565b60005b8381101561787757808201518184015260208101905061785c565b83811115617886576000848401525b50505050565b600060028204905060018216806178a457607f821691505b602082108114156178b8576178b76179c5565b5b50919050565b6178c782617a23565b810181811067ffffffffffffffff821117156178e6576178e56179f4565b5b80604052505050565b60006178fa82617756565b91507fffffffffffffffffffffffffffffffffffffffffffffffffffffffffffffffff82141561792d5761792c617938565b5b600182019050919050565b7f4e487b7100000000000000000000000000000000000000000000000000000000600052601160045260246000fd5b7f4e487b7100000000000000000000000000000000000000000000000000000000600052601260045260246000fd5b7f4e487b7100000000000000000000000000000000000000000000000000000000600052602160045260246000fd5b7f4e487b7100000000000000000000000000000000000000000000000000000000600052602260045260246000fd5b7f4e487b7100000000000000000000000000000000000000000000000000000000600052604160045260246000fd5b6000601f19601f8301169050919050565b7f5265656e7472616e637947756172643a207265656e7472616e742063616c6c00600082015250565b60098110617a6e57617a6d617996565b5b50565b617a7a816176c7565b8114617a8557600080fd5b50565b617a91816176d9565b8114617a9c57600080fd5b50565b617aa8816176eb565b8114617ab357600080fd5b50565b60098110617ac357600080fd5b50565b617acf81617756565b8114617ada57600080fd5b5056fea26469706673582212203b3a7ab3cccc6f9c653f421798484fdbf3dbdea57e61256ca17a9bb29c03417164736f6c63430008030033608060405234801561001057600080fd5b50610baa806100206000396000f3fe608060405234801561001057600080fd5b50600436106100935760003560e01c80639b125c48116100665780639b125c4814610130578063a61178bc14610160578063afc5edcb14610190578063c45cc190146101ac578063c4e28237146101dc57610093565b80636c978991146100985780637c4a9ba1146100b45780637c93564c146100d05780637e32c44214610100575b600080fd5b6100b260048036038101906100ad919061085f565b61020c565b005b6100ce60048036038101906100c991906107e8565b6102ca565b005b6100ea60048036038101906100e5919061085f565b610428565b6040516100f791906109be565b60405180910390f35b61011a6004803603810190610115919061085f565b610466565b60405161012791906109a3565b60405180910390f35b61014a6004803603810190610145919061085f565b6104b7565b60405161015791906109a3565b60405180910390f35b61017a6004803603810190610175919061085f565b610508565b60405161018791906109be565b60405180910390f35b6101aa60048036038101906101a5919061085f565b610546565b005b6101c660048036038101906101c1919061085f565b610604565b6040516101d39190610a19565b60405180910390f35b6101f660048036038101906101f1919061085f565b61072e565b6040516102039190610a34565b60405180910390f35b60011515600080848152602001908152602001600020600083815260200190815260200160002060020160159054906101000a900460ff1615151415610287576040517f08c379a000000000000000000000000000000000000000000000000000000000815260040161027e906109f9565b60405180910390fd5b6001600080848152602001908152602001600020600083815260200190815260200160002060020160146101000a81548160ff0219169083151502179055505050565b6040518060a001604052808681526020018573ffffffffffffffffffffffffffffffffffffffff1681526020018473ffffffffffffffffffffffffffffffffffffffff1681526020016000151581526020016000151581525060008084815260200190815260200160002060008381526020019081526020016000206000820151816000015560208201518160010160006101000a81548173ffffffffffffffffffffffffffffffffffffffff021916908373ffffffffffffffffffffffffffffffffffffffff16021790555060408201518160020160006101000a81548173ffffffffffffffffffffffffffffffffffffffff021916908373ffffffffffffffffffffffffffffffffffffffff16021790555060608201518160020160146101000a81548160ff02191690831515021790555060808201518160020160156101000a81548160ff0219169083151502179055509050505050505050565b6000806000848152602001908152602001600020600083815260200190815260200160002060020160149054906101000a900460ff16905092915050565b6000806000848152602001908152602001600020600083815260200190815260200160002060020160009054906101000a900473ffffffffffffffffffffffffffffffffffffffff16905092915050565b6000806000848152602001908152602001600020600083815260200190815260200160002060010160009054906101000a900473ffffffffffffffffffffffffffffffffffffffff16905092915050565b6000806000848152602001908152602001600020600083815260200190815260200160002060020160159054906101000a900460ff16905092915050565b60011515600080848152602001908152602001600020600083815260200190815260200160002060020160149054906101000a900460ff16151514156105c1576040517f08c379a00000000000000000000000000000000000000000000000000000000081526004016105b8906109d9565b60405180910390fd5b6001600080848152602001908152602001600020600083815260200190815260200160002060020160156101000a81548160ff0219169083151502179055505050565b61060c61075f565b60008084815260200190815260200160002060008381526020019081526020016000206040518060a0016040529081600082015481526020016001820160009054906101000a900473ffffffffffffffffffffffffffffffffffffffff1673ffffffffffffffffffffffffffffffffffffffff1673ffffffffffffffffffffffffffffffffffffffff1681526020016002820160009054906101000a900473ffffffffffffffffffffffffffffffffffffffff1673ffffffffffffffffffffffffffffffffffffffff1673ffffffffffffffffffffffffffffffffffffffff1681526020016002820160149054906101000a900460ff161515151581526020016002820160159054906101000a900460ff161515151581525050905092915050565b6000806000848152602001908152602001600020600083815260200190815260200160002060000154905092915050565b6040518060a0016040528060008152602001600073ffffffffffffffffffffffffffffffffffffffff168152602001600073ffffffffffffffffffffffffffffffffffffffff1681526020016000151581526020016000151581525090565b6000813590506107cd81610b46565b92915050565b6000813590506107e281610b5d565b92915050565b600080600080600060a0868803121561080057600080fd5b600061080e888289016107d3565b955050602061081f888289016107be565b9450506040610830888289016107be565b9350506060610841888289016107d3565b9250506080610852888289016107d3565b9150509295509295909350565b6000806040838503121561087257600080fd5b6000610880858286016107d3565b9250506020610891858286016107d3565b9150509250929050565b6108a481610a60565b82525050565b6108b381610a60565b82525050565b6108c281610a72565b82525050565b6108d181610a72565b82525050565b60006108e4602583610a4f565b91506108ef82610aa8565b604082019050919050565b6000610907602483610a4f565b915061091282610af7565b604082019050919050565b60a0820160008201516109336000850182610985565b506020820151610946602085018261089b565b506040820151610959604085018261089b565b50606082015161096c60608501826108b9565b50608082015161097f60808501826108b9565b50505050565b61098e81610a9e565b82525050565b61099d81610a9e565b82525050565b60006020820190506109b860008301846108aa565b92915050565b60006020820190506109d360008301846108c8565b92915050565b600060208201905081810360008301526109f2816108d7565b9050919050565b60006020820190508181036000830152610a12816108fa565b9050919050565b600060a082019050610a2e600083018461091d565b92915050565b6000602082019050610a496000830184610994565b92915050565b600082825260208201905092915050565b6000610a6b82610a7e565b9050919050565b60008115159050919050565b600073ffffffffffffffffffffffffffffffffffffffff82169050919050565b6000819050919050565b7f546865204f666665722068617320616c7265616479206265656e20776974686460008201527f7261776e2e000000000000000000000000000000000000000000000000000000602082015250565b7f546865204f666665722068617320616c7265616479206265656e20616363657060008201527f7465642e00000000000000000000000000000000000000000000000000000000602082015250565b610b4f81610a60565b8114610b5a57600080fd5b50565b610b6681610a9e565b8114610b7157600080fd5b5056fea2646970667358221220593a56d5d5282fe815cf4600652ca6c6b33ced57740133298c746a332147569a64736f6c63430008030033608060405234801561001057600080fd5b50611596806100206000396000f3fe608060405234801561001057600080fd5b50600436106100365760003560e01c806304833d981461003b57806323daaaa114610057575b600080fd5b61005560048036038101906100509190611340565b610087565b005b610071600480360381019061006c9190611304565b610181565b60405161007e9190611473565b60405180910390f35b60008114156100a05761009b878684610306565b610178565b60018114156100bc576100b78787878787876104b8565b610177565b60028114156100d7576100d2878787878661066a565b610176565b60038114156100f3576100ee87878787878761081c565b610175565b600481141561010e5761010987878787866109ce565b610174565b600581141561012a57610125878787878787610b80565b610173565b600681141561014657610141878787878787610d32565b610172565b60078114156101625761015d878787878787610ee4565b610171565b610170878787878787611096565b5b5b5b5b5b5b5b5b50505050505050565b610189611247565b60008084815260200190815260200160002060008381526020019081526020016000206040518060a00160405290816000820160009054906101000a900460ff166008811115610202577f4e487b7100000000000000000000000000000000000000000000000000000000600052602160045260246000fd5b600881111561023a577f4e487b7100000000000000000000000000000000000000000000000000000000600052602160045260246000fd5b81526020016000820160019054906101000a900473ffffffffffffffffffffffffffffffffffffffff1673ffffffffffffffffffffffffffffffffffffffff1673ffffffffffffffffffffffffffffffffffffffff1681526020016001820160009054906101000a900473ffffffffffffffffffffffffffffffffffffffff1673ffffffffffffffffffffffffffffffffffffffff1673ffffffffffffffffffffffffffffffffffffffff16815260200160028201548152602001600382015481525050905092915050565b6040518060a001604052806000600881111561034b577f4e487b7100000000000000000000000000000000000000000000000000000000600052602160045260246000fd5b8152602001600073ffffffffffffffffffffffffffffffffffffffff1681526020018373ffffffffffffffffffffffffffffffffffffffff168152602001600081526020018281525060008085815260200190815260200160002060006001815260200190815260200160002060008201518160000160006101000a81548160ff02191690836008811115610409577f4e487b7100000000000000000000000000000000000000000000000000000000600052602160045260246000fd5b021790555060208201518160000160016101000a81548173ffffffffffffffffffffffffffffffffffffffff021916908373ffffffffffffffffffffffffffffffffffffffff16021790555060408201518160010160006101000a81548173ffffffffffffffffffffffffffffffffffffffff021916908373ffffffffffffffffffffffffffffffffffffffff1602179055506060820151816002015560808201518160030155905050505050565b6040518060a00160405280600160088111156104fd577f4e487b7100000000000000000000000000000000000000000000000000000000600052602160045260246000fd5b81526020018573ffffffffffffffffffffffffffffffffffffffff1681526020018473ffffffffffffffffffffffffffffffffffffffff16815260200183815260200182815250600080888152602001908152602001600020600087815260200190815260200160002060008201518160000160006101000a81548160ff021916908360088111156105b8577f4e487b7100000000000000000000000000000000000000000000000000000000600052602160045260246000fd5b021790555060208201518160000160016101000a81548173ffffffffffffffffffffffffffffffffffffffff021916908373ffffffffffffffffffffffffffffffffffffffff16021790555060408201518160010160006101000a81548173ffffffffffffffffffffffffffffffffffffffff021916908373ffffffffffffffffffffffffffffffffffffffff1602179055506060820151816002015560808201518160030155905050505050505050565b6040518060a00160405280600260088111156106af577f4e487b7100000000000000000000000000000000000000000000000000000000600052602160045260246000fd5b81526020018473ffffffffffffffffffffffffffffffffffffffff1681526020018373ffffffffffffffffffffffffffffffffffffffff1681526020016000815260200182815250600080878152602001908152602001600020600086815260200190815260200160002060008201518160000160006101000a81548160ff0219169083600881111561076b577f4e487b7100000000000000000000000000000000000000000000000000000000600052602160045260246000fd5b021790555060208201518160000160016101000a81548173ffffffffffffffffffffffffffffffffffffffff021916908373ffffffffffffffffffffffffffffffffffffffff16021790555060408201518160010160006101000a81548173ffffffffffffffffffffffffffffffffffffffff021916908373ffffffffffffffffffffffffffffffffffffffff16021790555060608201518160020155608082015181600301559050505050505050565b6040518060a0016040528060036008811115610861577f4e487b7100000000000000000000000000000000000000000000000000000000600052602160045260246000fd5b81526020018573ffffffffffffffffffffffffffffffffffffffff1681526020018473ffffffffffffffffffffffffffffffffffffffff16815260200183815260200182815250600080888152602001908152602001600020600087815260200190815260200160002060008201518160000160006101000a81548160ff0219169083600881111561091c577f4e487b7100000000000000000000000000000000000000000000000000000000600052602160045260246000fd5b021790555060208201518160000160016101000a81548173ffffffffffffffffffffffffffffffffffffffff021916908373ffffffffffffffffffffffffffffffffffffffff16021790555060408201518160010160006101000a81548173ffffffffffffffffffffffffffffffffffffffff021916908373ffffffffffffffffffffffffffffffffffffffff1602179055506060820151816002015560808201518160030155905050505050505050565b6040518060a0016040528060046008811115610a13577f4e487b7100000000000000000000000000000000000000000000000000000000600052602160045260246000fd5b81526020018473ffffffffffffffffffffffffffffffffffffffff1681526020018373ffffffffffffffffffffffffffffffffffffffff1681526020016000815260200182815250600080878152602001908152602001600020600086815260200190815260200160002060008201518160000160006101000a81548160ff02191690836008811115610acf577f4e487b7100000000000000000000000000000000000000000000000000000000600052602160045260246000fd5b021790555060208201518160000160016101000a81548173ffffffffffffffffffffffffffffffffffffffff021916908373ffffffffffffffffffffffffffffffffffffffff16021790555060408201518160010160006101000a81548173ffffffffffffffffffffffffffffffffffffffff021916908373ffffffffffffffffffffffffffffffffffffffff16021790555060608201518160020155608082015181600301559050505050505050565b6040518060a0016040528060056008811115610bc5577f4e487b7100000000000000000000000000000000000000000000000000000000600052602160045260246000fd5b81526020018573ffffffffffffffffffffffffffffffffffffffff1681526020018473ffffffffffffffffffffffffffffffffffffffff16815260200183815260200182815250600080888152602001908152602001600020600087815260200190815260200160002060008201518160000160006101000a81548160ff02191690836008811115610c80577f4e487b7100000000000000000000000000000000000000000000000000000000600052602160045260246000fd5b021790555060208201518160000160016101000a81548173ffffffffffffffffffffffffffffffffffffffff021916908373ffffffffffffffffffffffffffffffffffffffff16021790555060408201518160010160006101000a81548173ffffffffffffffffffffffffffffffffffffffff021916908373ffffffffffffffffffffffffffffffffffffffff1602179055506060820151816002015560808201518160030155905050505050505050565b6040518060a0016040528060066008811115610d77577f4e487b7100000000000000000000000000000000000000000000000000000000600052602160045260246000fd5b81526020018573ffffffffffffffffffffffffffffffffffffffff1681526020018473ffffffffffffffffffffffffffffffffffffffff16815260200183815260200182815250600080888152602001908152602001600020600087815260200190815260200160002060008201518160000160006101000a81548160ff02191690836008811115610e32577f4e487b7100000000000000000000000000000000000000000000000000000000600052602160045260246000fd5b021790555060208201518160000160016101000a81548173ffffffffffffffffffffffffffffffffffffffff021916908373ffffffffffffffffffffffffffffffffffffffff16021790555060408201518160010160006101000a81548173ffffffffffffffffffffffffffffffffffffffff021916908373ffffffffffffffffffffffffffffffffffffffff1602179055506060820151816002015560808201518160030155905050505050505050565b6040518060a0016040528060076008811115610f29577f4e487b7100000000000000000000000000000000000000000000000000000000600052602160045260246000fd5b81526020018573ffffffffffffffffffffffffffffffffffffffff1681526020018473ffffffffffffffffffffffffffffffffffffffff16815260200183815260200182815250600080888152602001908152602001600020600087815260200190815260200160002060008201518160000160006101000a81548160ff02191690836008811115610fe4577f4e487b7100000000000000000000000000000000000000000000000000000000600052602160045260246000fd5b021790555060208201518160000160016101000a81548173ffffffffffffffffffffffffffffffffffffffff021916908373ffffffffffffffffffffffffffffffffffffffff16021790555060408201518160010160006101000a81548173ffffffffffffffffffffffffffffffffffffffff021916908373ffffffffffffffffffffffffffffffffffffffff1602179055506060820151816002015560808201518160030155905050505050505050565b6040518060a001604052806008808111156110da577f4e487b7100000000000000000000000000000000000000000000000000000000600052602160045260246000fd5b81526020018573ffffffffffffffffffffffffffffffffffffffff1681526020018473ffffffffffffffffffffffffffffffffffffffff16815260200183815260200182815250600080888152602001908152602001600020600087815260200190815260200160002060008201518160000160006101000a81548160ff02191690836008811115611195577f4e487b7100000000000000000000000000000000000000000000000000000000600052602160045260246000fd5b021790555060208201518160000160016101000a81548173ffffffffffffffffffffffffffffffffffffffff021916908373ffffffffffffffffffffffffffffffffffffffff16021790555060408201518160010160006101000a81548173ffffffffffffffffffffffffffffffffffffffff021916908373ffffffffffffffffffffffffffffffffffffffff1602179055506060820151816002015560808201518160030155905050505050505050565b6040518060a001604052806000600881111561128c577f4e487b7100000000000000000000000000000000000000000000000000000000600052602160045260246000fd5b8152602001600073ffffffffffffffffffffffffffffffffffffffff168152602001600073ffffffffffffffffffffffffffffffffffffffff16815260200160008152602001600081525090565b6000813590506112e981611532565b92915050565b6000813590506112fe81611549565b92915050565b6000806040838503121561131757600080fd5b6000611325858286016112ef565b9250506020611336858286016112ef565b9150509250929050565b600080600080600080600060e0888a03121561135b57600080fd5b60006113698a828b016112ef565b975050602061137a8a828b016112ef565b965050604061138b8a828b016112da565b955050606061139c8a828b016112da565b94505060806113ad8a828b016112ef565b93505060a06113be8a828b016112ef565b92505060c06113cf8a828b016112ef565b91505092959891949750929550565b6113e78161148e565b82525050565b6113f6816114dd565b82525050565b60a08201600082015161141260008501826113ed565b50602082015161142560208501826113de565b50604082015161143860408501826113de565b50606082015161144b6060850182611464565b50608082015161145e6080850182611464565b50505050565b61146d816114d3565b82525050565b600060a08201905061148860008301846113fc565b92915050565b6000611499826114b3565b9050919050565b60008190506114ae8261151e565b919050565b600073ffffffffffffffffffffffffffffffffffffffff82169050919050565b6000819050919050565b60006114e8826114a0565b9050919050565b7f4e487b7100000000000000000000000000000000000000000000000000000000600052602160045260246000fd5b6009811061152f5761152e6114ef565b5b50565b61153b8161148e565b811461154657600080fd5b50565b611552816114d3565b811461155d57600080fd5b5056fea26469706673582212203dbf27fb5a06865e468f20f5f6aeb6ef64c413377fefb167c27c4820f0da52c764736f6c63430008030033608060405234801561001057600080fd5b50610b5c806100206000396000f3fe608060405234801561001057600080fd5b50600436106100935760003560e01c806340d82e6c1161006657806340d82e6c1461011c5780635b33397f1461014c5780636cf5efc21461017c578063a7d5307a14610198578063b771362a146101b457610093565b8063128683ac1461009857806319b78291146100c85780631e54294a146100e45780632e92f4a514610100575b600080fd5b6100b260048036038101906100ad9190610623565b6101e4565b6040516100bf919061084e565b60405180910390f35b6100e260048036038101906100dd91906106cb565b61022e565b005b6100fe60048036038101906100f991906106cb565b61026a565b005b61011a60048036038101906101159190610664565b610294565b005b61013660048036038101906101319190610786565b610370565b6040516101439190610869565b60405180910390f35b610166600480360381019061016191906106cb565b610415565b604051610173919061088b565b60405180910390f35b61019660048036038101906101919190610623565b61044f565b005b6101b260048036038101906101ad919061071f565b61048b565b005b6101ce60048036038101906101c99190610623565b6104c4565b6040516101db919061088b565b60405180910390f35b600080826040516101f59190610837565b908152602001604051809103902060000160009054906101000a900473ffffffffffffffffffffffffffffffffffffffff169050919050565b8060008360405161023f9190610837565b9081526020016040518091039020600101600082825461025f9190610923565b925050819055505050565b8060008360405161027b9190610837565b9081526020016040518091039020600101819055505050565b60405180606001604052808373ffffffffffffffffffffffffffffffffffffffff1681526020016000815260200160018152506000846040516102d79190610837565b908152602001604051809103902060008201518160000160006101000a81548173ffffffffffffffffffffffffffffffffffffffff021916908373ffffffffffffffffffffffffffffffffffffffff16021790555060208201518160010155604082015181600201559050508260026000838152602001908152602001600020908051906020019061036a9291906104ee565b50505050565b6060600260008381526020019081526020016000208054610390906109f7565b80601f01602080910402602001604051908101604052809291908181526020018280546103bc906109f7565b80156104095780601f106103de57610100808354040283529160200191610409565b820191906000526020600020905b8154815290600101906020018083116103ec57829003601f168201915b50505050509050919050565b60006001836040516104279190610837565b9081526020016040518091039020600083815260200190815260200160002054905092915050565b60016000826040516104619190610837565b908152602001604051809103902060020160008282546104819190610923565b9250508190555050565b8060018460405161049c9190610837565b9081526020016040518091039020600084815260200190815260200160002081905550505050565b600080826040516104d59190610837565b9081526020016040518091039020600201549050919050565b8280546104fa906109f7565b90600052602060002090601f01602090048101928261051c5760008555610563565b82601f1061053557805160ff1916838001178555610563565b82800160010185558215610563579182015b82811115610562578251825591602001919060010190610547565b5b5090506105709190610574565b5090565b5b8082111561058d576000816000905550600101610575565b5090565b60006105a461059f846108cb565b6108a6565b9050828152602081018484840111156105bc57600080fd5b6105c78482856109b5565b509392505050565b6000813590506105de81610af8565b92915050565b600082601f8301126105f557600080fd5b8135610605848260208601610591565b91505092915050565b60008135905061061d81610b0f565b92915050565b60006020828403121561063557600080fd5b600082013567ffffffffffffffff81111561064f57600080fd5b61065b848285016105e4565b91505092915050565b60008060006060848603121561067957600080fd5b600084013567ffffffffffffffff81111561069357600080fd5b61069f868287016105e4565b93505060206106b0868287016105cf565b92505060406106c18682870161060e565b9150509250925092565b600080604083850312156106de57600080fd5b600083013567ffffffffffffffff8111156106f857600080fd5b610704858286016105e4565b92505060206107158582860161060e565b9150509250929050565b60008060006060848603121561073457600080fd5b600084013567ffffffffffffffff81111561074e57600080fd5b61075a868287016105e4565b935050602061076b8682870161060e565b925050604061077c8682870161060e565b9150509250925092565b60006020828403121561079857600080fd5b60006107a68482850161060e565b91505092915050565b6107b881610979565b82525050565b60006107c9826108fc565b6107d38185610907565b93506107e38185602086016109c4565b6107ec81610ae7565b840191505092915050565b6000610802826108fc565b61080c8185610918565b935061081c8185602086016109c4565b80840191505092915050565b610831816109ab565b82525050565b600061084382846107f7565b915081905092915050565b600060208201905061086360008301846107af565b92915050565b6000602082019050818103600083015261088381846107be565b905092915050565b60006020820190506108a06000830184610828565b92915050565b60006108b06108c1565b90506108bc8282610a29565b919050565b6000604051905090565b600067ffffffffffffffff8211156108e6576108e5610ab8565b5b6108ef82610ae7565b9050602081019050919050565b600081519050919050565b600082825260208201905092915050565b600081905092915050565b600061092e826109ab565b9150610939836109ab565b9250827fffffffffffffffffffffffffffffffffffffffffffffffffffffffffffffffff0382111561096e5761096d610a5a565b5b828201905092915050565b60006109848261098b565b9050919050565b600073ffffffffffffffffffffffffffffffffffffffff82169050919050565b6000819050919050565b82818337600083830152505050565b60005b838110156109e25780820151818401526020810190506109c7565b838111156109f1576000848401525b50505050565b60006002820490506001821680610a0f57607f821691505b60208210811415610a2357610a22610a89565b5b50919050565b610a3282610ae7565b810181811067ffffffffffffffff82111715610a5157610a50610ab8565b5b80604052505050565b7f4e487b7100000000000000000000000000000000000000000000000000000000600052601160045260246000fd5b7f4e487b7100000000000000000000000000000000000000000000000000000000600052602260045260246000fd5b7f4e487b7100000000000000000000000000000000000000000000000000000000600052604160045260246000fd5b6000601f19601f8301169050919050565b610b0181610979565b8114610b0c57600080fd5b50565b610b18816109ab565b8114610b2357600080fd5b5056fea2646970667358221220e29564dad6ac51ba041a036f52e22f83cfe82e480d32f8401bda51f02b21099964736f6c63430008030033",
  "immutableReferences": {},
  "source": "// SPDX-License-Identifier: MIT OR Apache-2.0\r\npragma solidity ^0.8.3;\r\n\r\nimport \"@openzeppelin/contracts/utils/Counters.sol\";\r\nimport \"@openzeppelin/contracts/security/ReentrancyGuard.sol\";\r\nimport \"@openzeppelin/contracts/token/ERC721/ERC721.sol\";\r\nimport \"@openzeppelin/contracts/token/ERC721/IERC721Receiver.sol\";\r\nimport \"@openzeppelin/contracts/utils/math/SafeMath.sol\";\r\n\r\nimport \"./NFT.sol\";\r\nimport \"./NFTMarketOffers.sol\";\r\nimport \"./NFTMarketEvents.sol\";\r\nimport \"./NFTMarketCollections.sol\";\r\n\r\nimport { Event } from \"./NFTMarketEvents.sol\";\r\nimport { Offer } from \"./NFTMarketOffers.sol\";\r\n\r\ncontract NFTMarketLayer1 is ReentrancyGuard, IERC721Receiver {\r\n  address payable public owner;\r\n\r\n  uint256 public collectionCount;\r\n\r\n  uint256 public tokenCount;\r\n\r\n  NFTMarketOffers internal offerList = new NFTMarketOffers();\r\n\r\n  NFTMarketEvents internal eventHistory = new NFTMarketEvents();\r\n\r\n  NFTMarketCollections internal collectionList = new NFTMarketCollections();\r\n\r\n  constructor() {\r\n    owner = payable(msg.sender);\r\n  }\r\n\r\n  struct MarketItem {\r\n    address nftContract;\r\n    uint256 tokenId;\r\n    address payable owner;\r\n    address creator;\r\n    uint256 price;\r\n    bool isListed;\r\n    uint256 royalty;\r\n    uint256 eventCount;\r\n    uint256 offerCount;\r\n    string name;\r\n    string collectionName;\r\n  }\r\n\r\n  mapping(uint256 => MarketItem) public idToMarketItem;\r\n\r\n  function getCollectionNFTs(string memory collectionName) external view returns(MarketItem[] memory){\r\n    uint256 currentIndex = 0;\r\n\r\n    MarketItem[] memory nfts = new MarketItem[](collectionList._getCollectionCount(collectionName));\r\n    for (uint256 i = 0; i < collectionList._getCollectionCount(collectionName); i++) {\r\n        nfts[currentIndex] = idToMarketItem[collectionList._getCollectionNFT(collectionName, i + 1)];\r\n        currentIndex = SafeMath.add(currentIndex, 1);\r\n    }\r\n    return nfts;\r\n  }\r\n\r\n  function getTokenEventHistory(uint256 tokenId) external view returns(Event[] memory) {\r\n    uint256 currentIndex = 0;\r\n\r\n    Event[] memory events = new Event[](idToMarketItem[tokenId].eventCount);\r\n    for (uint256 i = 0; i < idToMarketItem[tokenId].eventCount; i++) {\r\n        events[currentIndex] = eventHistory._getEvent(tokenId, i + 1);\r\n        currentIndex = SafeMath.add(currentIndex, 1);\r\n    }\r\n    return events;\r\n  }\r\n\r\n  function getTokenOfferList(uint256 tokenId) external view returns(Offer[] memory) {\r\n    uint256 currentIndex = 0;\r\n\r\n    Offer[] memory offers = new Offer[](idToMarketItem[tokenId].offerCount);\r\n    for (uint256 i = 0; i < idToMarketItem[tokenId].offerCount; i++) {\r\n        offers[currentIndex] = offerList._getOffer(tokenId, i + 1);\r\n        currentIndex = SafeMath.add(currentIndex, 1);\r\n    }\r\n    return offers;\r\n  }\r\n\r\n  function createMarketItem(\r\n    address nftContract,\r\n    uint256 tokenId,\r\n    address payable nftowner,\r\n    address creator,\r\n    uint256 price,\r\n    bool isListed,\r\n    uint256 royalty,\r\n    uint256 eventCount,\r\n    string memory nftName,\r\n    string memory collectionName,\r\n    bool add\r\n  ) external payable nonReentrant {\r\n    require(price > 0);\r\n\r\n    if(add) {\r\n      require(msg.sender == owner);\r\n    }\r\n    else{\r\n      eventHistory._addEvent(tokenId, 1, msg.sender, address(0), 0, block.timestamp, 0);\r\n    }\r\n\r\n    idToMarketItem[tokenId] = MarketItem(\r\n      nftContract,\r\n      tokenId,\r\n      nftowner,\r\n      creator,\r\n      price,\r\n      isListed,\r\n      royalty,\r\n      eventCount,\r\n      0,\r\n      nftName,\r\n      collectionName\r\n    );\r\n\r\n    tokenCount = tokenId;\r\n\r\n    if(collectionList._getCollectionCreator(collectionName) == address(0x0)){\r\n      collectionCount += 1;\r\n      collectionList._addCollection(collectionName, msg.sender, collectionCount);\r\n      collectionList._addNFTToCollection(collectionName, 1, tokenId);\r\n    }\r\n    else {\r\n      collectionList._incrementCollectionCount(collectionName);\r\n      collectionList._addNFTToCollection(collectionName, collectionList._getCollectionCount(collectionName), tokenId);\r\n    }\r\n  }\r\n\r\n  function editMarketItem(\r\n    address nftContract,\r\n    uint256 tokenId,\r\n    address payable nftowner,\r\n    address creator,\r\n    uint256 price,\r\n    bool isListed,\r\n    uint256 royalty,\r\n    uint256 eventCount,\r\n    uint256 offerCount,\r\n    string memory nftName,\r\n    string memory collectionName\r\n  ) external payable nonReentrant {\r\n    require(msg.sender == owner);\r\n    idToMarketItem[tokenId] = MarketItem(\r\n      nftContract,\r\n      tokenId,\r\n      nftowner,\r\n      creator,\r\n      price,\r\n      isListed,\r\n      royalty,\r\n      eventCount,\r\n      offerCount,\r\n      nftName,\r\n      collectionName\r\n    );\r\n  }\r\n\r\n  function getOwnerOfToken(address nftContract, uint256 tokenId) external view returns (address) {\r\n    return IERC721(nftContract).ownerOf(tokenId);\r\n  }\r\n\r\n  function listItem(\r\n    address nftContract,\r\n    uint256 tokenId,\r\n    uint256 price\r\n  ) external payable nonReentrant {\r\n    IERC721(nftContract).transferFrom(msg.sender, address(this), tokenId);\r\n    idToMarketItem[tokenId].price = price;\r\n    idToMarketItem[tokenId].isListed = true;\r\n    idToMarketItem[tokenId].eventCount = SafeMath.add(idToMarketItem[tokenId].eventCount, 1);\r\n    eventHistory._addEvent(tokenId, idToMarketItem[tokenId].eventCount, msg.sender, address(this), price, block.timestamp, 1);\r\n  }\r\n\r\n  function withdrawListing(\r\n    address nftContract,\r\n    uint256 tokenId\r\n    ) external payable nonReentrant {\r\n    IERC721(nftContract).transferFrom(address(this), msg.sender, tokenId);\r\n    idToMarketItem[tokenId].isListed = false;\r\n    idToMarketItem[tokenId].eventCount = SafeMath.add(idToMarketItem[tokenId].eventCount, 1);\r\n    eventHistory._addEvent(tokenId, idToMarketItem[tokenId].eventCount, address(this), msg.sender, 0, block.timestamp, 2);\r\n  }\r\n\r\n  function editListing(\r\n    uint256 tokenId,\r\n    uint256 price\r\n  ) external payable nonReentrant {\r\n    idToMarketItem[tokenId].price = price;\r\n    idToMarketItem[tokenId].eventCount = SafeMath.add(idToMarketItem[tokenId].eventCount, 1);\r\n    eventHistory._addEvent(tokenId, idToMarketItem[tokenId].eventCount, msg.sender, address(this), price, block.timestamp, 5);\r\n  }\r\n\r\n  function transferNFT(address nftContract, uint256 tokenId, address receiver) external payable nonReentrant {\r\n    IERC721(nftContract).transferFrom(msg.sender, receiver, tokenId);\r\n    idToMarketItem[tokenId].owner = payable(receiver);\r\n    idToMarketItem[tokenId].eventCount = SafeMath.add(idToMarketItem[tokenId].eventCount, 1);\r\n    eventHistory._addEvent(tokenId, idToMarketItem[tokenId].eventCount, msg.sender, receiver, 0, block.timestamp, 4);\r\n    for(uint i = 1; i <= idToMarketItem[tokenId].offerCount; i++) {\r\n      if(!offerList._isWithdrawn(tokenId, i)) {\r\n        address payable from = offerList._getOfferFrom(tokenId, i);\r\n        uint256 price = offerList._getOfferPrice(tokenId, i);\r\n        offerList._withdrawOffer(tokenId, i);\r\n        (from).transfer(SafeMath.div(SafeMath.mul(price, 102), 100));\r\n      }\r\n    }\r\n    idToMarketItem[tokenId].offerCount = 0;\r\n  }\r\n\r\n  function createMarketSale(\r\n    address nftContract,\r\n    uint256 tokenId\r\n    ) external payable nonReentrant {\r\n    require(msg.value >= idToMarketItem[tokenId].price);\r\n    payable(owner).transfer(SafeMath.mul(SafeMath.div(idToMarketItem[tokenId].price, 100), 2));\r\n    payable(idToMarketItem[tokenId].creator).transfer(SafeMath.mul(SafeMath.div(idToMarketItem[tokenId].price, 100), idToMarketItem[tokenId].royalty));\r\n    idToMarketItem[tokenId].owner.transfer(SafeMath.mul(SafeMath.div(idToMarketItem[tokenId].price, 100), (SafeMath.sub(100, idToMarketItem[tokenId].royalty))));\r\n    IERC721(nftContract).transferFrom(address(this), msg.sender, tokenId);\r\n    idToMarketItem[tokenId].isListed = false;\r\n    idToMarketItem[tokenId].eventCount = SafeMath.add(idToMarketItem[tokenId].eventCount, 1);\r\n    eventHistory._addEvent(tokenId, idToMarketItem[tokenId].eventCount, idToMarketItem[tokenId].owner, msg.sender, idToMarketItem[tokenId].price, block.timestamp, 3);\r\n    idToMarketItem[tokenId].owner = payable(msg.sender);\r\n    collectionList._incrementCollectionVolumeTraded(idToMarketItem[tokenId].collectionName, idToMarketItem[tokenId].price);\r\n    for(uint i = 1; i <= idToMarketItem[tokenId].offerCount; i++) {\r\n      if(!offerList._isWithdrawn(tokenId, i)) {\r\n        address payable from = offerList._getOfferFrom(tokenId, i);\r\n        uint256 price = offerList._getOfferPrice(tokenId, i);\r\n        offerList._withdrawOffer(tokenId, i);\r\n        (from).transfer(SafeMath.div(SafeMath.mul(price, 102), 100));\r\n      }\r\n    }\r\n    idToMarketItem[tokenId].offerCount = 0;\r\n  }\r\n\r\n  function placeOffer(uint256 tokenId, uint256 price) external payable {\r\n    require(price > 0);\r\n    idToMarketItem[tokenId].offerCount = idToMarketItem[tokenId].offerCount + 1;\r\n    offerList._placeOffer(\r\n      price, \r\n      payable(msg.sender), \r\n      idToMarketItem[tokenId].owner, \r\n      tokenId, \r\n      idToMarketItem[tokenId].offerCount\r\n    );\r\n    idToMarketItem[tokenId].eventCount = SafeMath.add(idToMarketItem[tokenId].eventCount, 1);\r\n    eventHistory._addEvent(tokenId, idToMarketItem[tokenId].eventCount, msg.sender, idToMarketItem[tokenId].owner, price, block.timestamp, 6);\r\n  }\r\n\r\n  function withdrawOffer(uint256 tokenId, uint256 offerId) external nonReentrant{\r\n    offerList._withdrawOffer(tokenId, offerId);\r\n    idToMarketItem[tokenId].eventCount = SafeMath.add(idToMarketItem[tokenId].eventCount, 1);\r\n    eventHistory._addEvent(tokenId, idToMarketItem[tokenId].eventCount, msg.sender, idToMarketItem[tokenId].owner, offerList._getOfferPrice(tokenId, offerId), block.timestamp, 7);\r\n    offerList._getOfferFrom(tokenId, offerId).transfer(SafeMath.div(SafeMath.mul(offerList._getOfferPrice(tokenId, offerId), 102), 100));\r\n  }\r\n\r\n  function acceptOffer(uint256 tokenId, uint256 offerId) external payable nonReentrant {\r\n    offerList._acceptOffer(tokenId, offerId);\r\n    for(uint i = 1; i <= idToMarketItem[tokenId].offerCount; i++) {\r\n      if(!offerList._isWithdrawn(tokenId, i)) {\r\n        address payable from = offerList._getOfferFrom(tokenId, i);\r\n        uint256 price = offerList._getOfferPrice(tokenId, i);\r\n        if(offerList._isAccepted(tokenId, i)) {\r\n            payable(owner).transfer(SafeMath.div(SafeMath.mul(price, 2), 100));\r\n            payable(idToMarketItem[tokenId].creator).transfer(SafeMath.div(SafeMath.mul(price, idToMarketItem[tokenId].royalty), 100));\r\n            payable(idToMarketItem[tokenId].owner).transfer(SafeMath.div(SafeMath.mul(price, SafeMath.sub(100, idToMarketItem[tokenId].royalty)), 100));\r\n            if(idToMarketItem[tokenId].isListed){\r\n              IERC721(idToMarketItem[tokenId].nftContract).transferFrom(address(this), from, tokenId);  \r\n            }\r\n            else{\r\n              IERC721(idToMarketItem[tokenId].nftContract).transferFrom(idToMarketItem[tokenId].owner, from, tokenId);\r\n            }\r\n            idToMarketItem[tokenId].eventCount = SafeMath.add(idToMarketItem[tokenId].eventCount, 1);\r\n            eventHistory._addEvent(tokenId, idToMarketItem[tokenId].eventCount, idToMarketItem[tokenId].owner, from, price, block.timestamp, 8);\r\n            idToMarketItem[tokenId].owner = from;\r\n            collectionList._incrementCollectionVolumeTraded(idToMarketItem[tokenId].collectionName, price);\r\n        }\r\n        else{\r\n            offerList._withdrawOffer(tokenId, i);\r\n            (from).transfer(SafeMath.div(SafeMath.mul(price, 102), 100));\r\n        }\r\n      }\r\n    }\r\n    idToMarketItem[tokenId].offerCount = 0;\r\n  }\r\n\r\n  function transferFunds(uint256 price) external {\r\n    require(msg.sender == owner);\r\n    payable(owner).transfer(price);\r\n  }\r\n\r\n  function fetchCollections() external view returns (MarketItem[] memory) {\r\n    uint256 currentIndex = 0;\r\n\r\n    MarketItem[] memory collectionItems = new MarketItem[](collectionCount);\r\n    for(uint i = 1; i <= collectionCount; i++) {\r\n      collectionItems[currentIndex] = idToMarketItem[collectionList._getCollectionNFT(collectionList._getCollectionName(i), 1)];\r\n      currentIndex = SafeMath.add(currentIndex, 1);\r\n    }\r\n    return collectionItems;\r\n  }\r\n\r\n  function fetchCollection(string memory collectionName) external view returns (MarketItem memory) {\r\n    return idToMarketItem[collectionList._getCollectionNFT(collectionName, 1)];\r\n  }\r\n\r\n  function fetchMarketItems() external view returns (MarketItem[] memory) {\r\n    uint currentIndex = 0;\r\n\r\n    MarketItem[] memory items = new MarketItem[](tokenCount);\r\n    for (uint i = 0; i < tokenCount; i++) {\r\n      if (idToMarketItem[i + 1].tokenId != 0) {\r\n        items[currentIndex] = idToMarketItem[i + 1];\r\n        currentIndex = SafeMath.add(currentIndex, 1);\r\n      }\r\n    }\r\n    return items;\r\n  }\r\n\r\n  function fetchMyNFTs(address user) external view returns (MarketItem[] memory) {\r\n    uint itemCount = 0;\r\n    uint currentIndex = 0;\r\n\r\n    for (uint i = 0; i < tokenCount; i++) {\r\n      if (idToMarketItem[SafeMath.add(i, 1)].owner == user) {\r\n        itemCount = SafeMath.add(itemCount, 1);\r\n      }\r\n    }\r\n\r\n    MarketItem[] memory items = new MarketItem[](itemCount);\r\n    for (uint i = 0; i < tokenCount; i++) {\r\n      if (idToMarketItem[SafeMath.add(i, 1)].owner == user) {\r\n        items[currentIndex] = idToMarketItem[i + 1];\r\n        currentIndex = SafeMath.add(currentIndex, 1);\r\n      }\r\n    }\r\n    return items;\r\n  }\r\n\r\n  function fetchItemsCreated(address user) external view returns (MarketItem[] memory) {\r\n    uint itemCount = 0;\r\n    uint currentIndex = 0;\r\n\r\n    for (uint i = 0; i < tokenCount; i++) {\r\n      if (idToMarketItem[SafeMath.add(i, 1)].creator == user) {\r\n        itemCount = SafeMath.add(itemCount, 1);\r\n      }\r\n    }\r\n\r\n    MarketItem[] memory items = new MarketItem[](itemCount);\r\n    for (uint i = 0; i < tokenCount; i++) {\r\n      if (idToMarketItem[SafeMath.add(i, 1)].creator == user) {\r\n        items[currentIndex] = idToMarketItem[i + 1];\r\n        currentIndex = SafeMath.add(currentIndex, 1);\r\n      }\r\n    }\r\n    return items;\r\n  }\r\n\r\n  function setTradeVolume(string memory collectionName, uint256 volumeTraded) external {\r\n    collectionList._setVolumeTraded(collectionName, volumeTraded);\r\n  }\r\n\r\n  function addEventsToItem(\r\n    uint256 tokenId,\r\n    uint256 eventId,\r\n    uint256 eventType,\r\n    address from,\r\n    address to,\r\n    uint256 price,\r\n    uint256 timestamp\r\n  ) external {\r\n    require(msg.sender == owner);\r\n    eventHistory._addEvent(tokenId, eventId, from, to, price, timestamp, eventType);\r\n  }\r\n \r\n  function onERC721Received(address, address, uint256, bytes memory) public virtual override returns (bytes4) {\r\n    return this.onERC721Received.selector;\r\n  }\r\n}",
  "sourcePath": "C:\\Users\\priya\\xdsea-Live\\contracts\\NFTMarketLayer1.sol",
  "compiler": {
    "name": "solc",
    "version": "0.8.3+commit.8d00100c.Emscripten.clang"
  },
  "schemaVersion": "3.4.4",
  "updatedAt": "2022-03-26T14:07:42.244Z",
  "devdoc": {
    "kind": "dev",
    "methods": {},
    "version": 1
  },
  "userdoc": {
    "kind": "user",
    "methods": {},
    "version": 1
  }
}