{
  "contractName": "NFTMarketItems",
  "abi": [
    {
      "inputs": [
        {
          "internalType": "uint256",
          "name": "",
          "type": "uint256"
        }
      ],
      "name": "idToMarketItem",
      "outputs": [
        {
          "internalType": "address",
          "name": "nftContract",
          "type": "address"
        },
        {
          "internalType": "uint256",
          "name": "tokenId",
          "type": "uint256"
        },
        {
          "internalType": "address payable",
          "name": "owner",
          "type": "address"
        },
        {
          "internalType": "address payable",
          "name": "creator",
          "type": "address"
        },
        {
          "internalType": "uint256",
          "name": "price",
          "type": "uint256"
        },
        {
          "internalType": "bool",
          "name": "isListed",
          "type": "bool"
        },
        {
          "internalType": "uint256",
          "name": "royalty",
          "type": "uint256"
        },
        {
          "internalType": "uint256",
          "name": "eventCount",
          "type": "uint256"
        },
        {
          "internalType": "uint256",
          "name": "offerCount",
          "type": "uint256"
        },
        {
          "internalType": "string",
          "name": "name",
          "type": "string"
        },
        {
          "internalType": "string",
          "name": "collectionName",
          "type": "string"
        }
      ],
      "stateMutability": "view",
      "type": "function"
    },
    {
      "inputs": [
        {
          "internalType": "uint256",
          "name": "tokenId",
          "type": "uint256"
        }
      ],
      "name": "_getMarketItem",
      "outputs": [
        {
          "components": [
            {
              "internalType": "address",
              "name": "nftContract",
              "type": "address"
            },
            {
              "internalType": "uint256",
              "name": "tokenId",
              "type": "uint256"
            },
            {
              "internalType": "address payable",
              "name": "owner",
              "type": "address"
            },
            {
              "internalType": "address payable",
              "name": "creator",
              "type": "address"
            },
            {
              "internalType": "uint256",
              "name": "price",
              "type": "uint256"
            },
            {
              "internalType": "bool",
              "name": "isListed",
              "type": "bool"
            },
            {
              "internalType": "uint256",
              "name": "royalty",
              "type": "uint256"
            },
            {
              "internalType": "uint256",
              "name": "eventCount",
              "type": "uint256"
            },
            {
              "internalType": "uint256",
              "name": "offerCount",
              "type": "uint256"
            },
            {
              "internalType": "string",
              "name": "name",
              "type": "string"
            },
            {
              "internalType": "string",
              "name": "collectionName",
              "type": "string"
            }
          ],
          "internalType": "struct MarketItem",
          "name": "",
          "type": "tuple"
        }
      ],
      "stateMutability": "view",
      "type": "function"
    },
    {
      "inputs": [
        {
          "internalType": "uint256",
          "name": "tokenId",
          "type": "uint256"
        }
      ],
      "name": "_getItemEventCount",
      "outputs": [
        {
          "internalType": "uint256",
          "name": "",
          "type": "uint256"
        }
      ],
      "stateMutability": "view",
      "type": "function"
    },
    {
      "inputs": [
        {
          "internalType": "uint256",
          "name": "tokenId",
          "type": "uint256"
        }
      ],
      "name": "_getItemIsListed",
      "outputs": [
        {
          "internalType": "bool",
          "name": "",
          "type": "bool"
        }
      ],
      "stateMutability": "view",
      "type": "function"
    },
    {
      "inputs": [
        {
          "internalType": "uint256",
          "name": "tokenId",
          "type": "uint256"
        }
      ],
      "name": "_getItemPrice",
      "outputs": [
        {
          "internalType": "uint256",
          "name": "",
          "type": "uint256"
        }
      ],
      "stateMutability": "view",
      "type": "function"
    },
    {
      "inputs": [
        {
          "internalType": "uint256",
          "name": "tokenId",
          "type": "uint256"
        }
      ],
      "name": "_getItemRoyalty",
      "outputs": [
        {
          "internalType": "uint256",
          "name": "",
          "type": "uint256"
        }
      ],
      "stateMutability": "view",
      "type": "function"
    },
    {
      "inputs": [
        {
          "internalType": "uint256",
          "name": "tokenId",
          "type": "uint256"
        }
      ],
      "name": "_getItemOwner",
      "outputs": [
        {
          "internalType": "address payable",
          "name": "",
          "type": "address"
        }
      ],
      "stateMutability": "view",
      "type": "function"
    },
    {
      "inputs": [
        {
          "internalType": "uint256",
          "name": "tokenId",
          "type": "uint256"
        }
      ],
      "name": "_getItemCreator",
      "outputs": [
        {
          "internalType": "address payable",
          "name": "",
          "type": "address"
        }
      ],
      "stateMutability": "view",
      "type": "function"
    },
    {
      "inputs": [
        {
          "internalType": "uint256",
          "name": "tokenId",
          "type": "uint256"
        }
      ],
      "name": "_getItemCollectionName",
      "outputs": [
        {
          "internalType": "string",
          "name": "",
          "type": "string"
        }
      ],
      "stateMutability": "view",
      "type": "function"
    },
    {
      "inputs": [
        {
          "internalType": "uint256",
          "name": "tokenId",
          "type": "uint256"
        }
      ],
      "name": "_getItemOfferCount",
      "outputs": [
        {
          "internalType": "uint256",
          "name": "",
          "type": "uint256"
        }
      ],
      "stateMutability": "view",
      "type": "function"
    },
    {
      "inputs": [
        {
          "internalType": "uint256",
          "name": "tokenId",
          "type": "uint256"
        }
      ],
      "name": "_getItemContract",
      "outputs": [
        {
          "internalType": "address",
          "name": "",
          "type": "address"
        }
      ],
      "stateMutability": "view",
      "type": "function"
    },
    {
      "inputs": [
        {
          "internalType": "address",
          "name": "nftContract",
          "type": "address"
        },
        {
          "internalType": "uint256",
          "name": "tokenId",
          "type": "uint256"
        },
        {
          "internalType": "address payable",
          "name": "owner",
          "type": "address"
        },
        {
          "internalType": "address payable",
          "name": "creator",
          "type": "address"
        },
        {
          "internalType": "uint256",
          "name": "price",
          "type": "uint256"
        },
        {
          "internalType": "bool",
          "name": "isListed",
          "type": "bool"
        },
        {
          "internalType": "uint256",
          "name": "royalty",
          "type": "uint256"
        },
        {
          "internalType": "uint256",
          "name": "eventCount",
          "type": "uint256"
        },
        {
          "internalType": "string",
          "name": "name",
          "type": "string"
        },
        {
          "internalType": "string",
          "name": "collectionName",
          "type": "string"
        }
      ],
      "name": "_addMarketItem",
      "outputs": [],
      "stateMutability": "nonpayable",
      "type": "function"
    },
    {
      "inputs": [
        {
          "internalType": "uint256",
          "name": "tokenId",
          "type": "uint256"
        },
        {
          "internalType": "bool",
          "name": "status",
          "type": "bool"
        }
      ],
      "name": "_setItemIsListed",
      "outputs": [],
      "stateMutability": "nonpayable",
      "type": "function"
    },
    {
      "inputs": [
        {
          "internalType": "uint256",
          "name": "tokenId",
          "type": "uint256"
        }
      ],
      "name": "_incrementEventCount",
      "outputs": [],
      "stateMutability": "nonpayable",
      "type": "function"
    },
    {
      "inputs": [
        {
          "internalType": "uint256",
          "name": "tokenId",
          "type": "uint256"
        },
        {
          "internalType": "uint256",
          "name": "price",
          "type": "uint256"
        }
      ],
      "name": "_setItemPrice",
      "outputs": [],
      "stateMutability": "nonpayable",
      "type": "function"
    },
    {
      "inputs": [
        {
          "internalType": "uint256",
          "name": "tokenId",
          "type": "uint256"
        },
        {
          "internalType": "address payable",
          "name": "owner",
          "type": "address"
        }
      ],
      "name": "_setItemOwner",
      "outputs": [],
      "stateMutability": "nonpayable",
      "type": "function"
    },
    {
      "inputs": [
        {
          "internalType": "uint256",
          "name": "tokenId",
          "type": "uint256"
        },
        {
          "internalType": "uint256",
          "name": "offerCount",
          "type": "uint256"
        }
      ],
      "name": "_setItemOfferCount",
      "outputs": [],
      "stateMutability": "nonpayable",
      "type": "function"
    },
    {
      "inputs": [
        {
          "internalType": "uint256",
          "name": "tokenId",
          "type": "uint256"
        }
      ],
      "name": "_incrementOfferCount",
      "outputs": [],
      "stateMutability": "nonpayable",
      "type": "function"
    }
  ],
  "bytecode": "0x608060405234801561001057600080fd5b506117ed806100206000396000f3fe608060405234801561001057600080fd5b50600436106101165760003560e01c806372b33164116100a25780639f6d484b116100715780639f6d484b14610313578063b0a95ca014610343578063e61a70c01461035f578063e7c16d4b14610399578063f775faee146103c957610116565b806372b331641461028f5780638751bbe8146102bf5780638fbc4d20146102db578063916970d7146102f757610116565b80631f594ae2116100e95780631f594ae2146101c7578063260f9aac146101f75780633d639d84146102135780633e06fa7d146102435780636c691b2b1461025f57610116565b80630569bb4c1461011b5780630890d6fb1461014b5780630e6b15d71461017b5780631ea826ad14610197575b600080fd5b610135600480360381019061013091906110bf565b6103f9565b6040516101429190611486565b60405180910390f35b610165600480360381019061016091906110bf565b6104a0565b60405161017291906114ca565b60405180910390f35b610195600480360381019061019091906110bf565b6104bf565b005b6101b160048036038101906101ac91906110bf565b6104ef565b6040516101be91906114a8565b60405180910390f35b6101e160048036038101906101dc91906110bf565b61078f565b6040516101ee919061137c565b60405180910390f35b610211600480360381019061020c9190611160565b6107ce565b005b61022d600480360381019061022891906110bf565b6107ec565b60405161023a91906114ca565b60405180910390f35b61025d600480360381019061025891906110bf565b61080b565b005b610279600480360381019061027491906110bf565b61083b565b60405161028691906114ca565b60405180910390f35b6102a960048036038101906102a491906110bf565b61085a565b6040516102b69190611397565b60405180910390f35b6102d960048036038101906102d49190610fb4565b610899565b005b6102f560048036038101906102f09190611124565b610aaf565b005b610311600480360381019061030c91906110e8565b610ae0565b005b61032d600480360381019061032891906110bf565b610b38565b60405161033a9190611397565b60405180910390f35b61035d60048036038101906103589190611160565b610b77565b005b610379600480360381019061037491906110bf565b610b95565b6040516103909b9a999897969594939291906113b2565b60405180910390f35b6103b360048036038101906103ae91906110bf565b610d6c565b6040516103c091906114ca565b60405180910390f35b6103e360048036038101906103de91906110bf565b610d8b565b6040516103f0919061146b565b60405180910390f35b6060600080838152602001908152602001600020600a01805461041b9061165a565b80601f01602080910402602001604051908101604052809291908181526020018280546104479061165a565b80156104945780601f1061046957610100808354040283529160200191610494565b820191906000526020600020905b81548152906001019060200180831161047757829003601f168201915b50505050509050919050565b6000806000838152602001908152602001600020600601549050919050565b600160008083815260200190815260200160002060080160008282546104e59190611568565b9250508190555050565b6104f7610db7565b600080838152602001908152602001600020604051806101600160405290816000820160009054906101000a900473ffffffffffffffffffffffffffffffffffffffff1673ffffffffffffffffffffffffffffffffffffffff1673ffffffffffffffffffffffffffffffffffffffff168152602001600182015481526020016002820160009054906101000a900473ffffffffffffffffffffffffffffffffffffffff1673ffffffffffffffffffffffffffffffffffffffff1673ffffffffffffffffffffffffffffffffffffffff1681526020016003820160009054906101000a900473ffffffffffffffffffffffffffffffffffffffff1673ffffffffffffffffffffffffffffffffffffffff1673ffffffffffffffffffffffffffffffffffffffff168152602001600482015481526020016005820160009054906101000a900460ff161515151581526020016006820154815260200160078201548152602001600882015481526020016009820180546106749061165a565b80601f01602080910402602001604051908101604052809291908181526020018280546106a09061165a565b80156106ed5780601f106106c2576101008083540402835291602001916106ed565b820191906000526020600020905b8154815290600101906020018083116106d057829003601f168201915b50505050508152602001600a820180546107069061165a565b80601f01602080910402602001604051908101604052809291908181526020018280546107329061165a565b801561077f5780601f106107545761010080835404028352916020019161077f565b820191906000526020600020905b81548152906001019060200180831161076257829003601f168201915b5050505050815250509050919050565b600080600083815260200190815260200160002060000160009054906101000a900473ffffffffffffffffffffffffffffffffffffffff169050919050565b80600080848152602001908152602001600020600401819055505050565b6000806000838152602001908152602001600020600401549050919050565b600160008083815260200190815260200160002060070160008282546108319190611568565b9250508190555050565b6000806000838152602001908152602001600020600801549050919050565b600080600083815260200190815260200160002060030160009054906101000a900473ffffffffffffffffffffffffffffffffffffffff169050919050565b6040518061016001604052808b73ffffffffffffffffffffffffffffffffffffffff1681526020018a81526020018973ffffffffffffffffffffffffffffffffffffffff1681526020018873ffffffffffffffffffffffffffffffffffffffff168152602001878152602001861515815260200185815260200184815260200160008152602001838152602001828152506000808b815260200190815260200160002060008201518160000160006101000a81548173ffffffffffffffffffffffffffffffffffffffff021916908373ffffffffffffffffffffffffffffffffffffffff1602179055506020820151816001015560408201518160020160006101000a81548173ffffffffffffffffffffffffffffffffffffffff021916908373ffffffffffffffffffffffffffffffffffffffff16021790555060608201518160030160006101000a81548173ffffffffffffffffffffffffffffffffffffffff021916908373ffffffffffffffffffffffffffffffffffffffff1602179055506080820151816004015560a08201518160050160006101000a81548160ff02191690831515021790555060c0820151816006015560e082015181600701556101008201518160080155610120820151816009019080519060200190610a81929190610e55565b5061014082015181600a019080519060200190610a9f929190610e55565b5090505050505050505050505050565b8060008084815260200190815260200160002060050160006101000a81548160ff0219169083151502179055505050565b8060008084815260200190815260200160002060020160006101000a81548173ffffffffffffffffffffffffffffffffffffffff021916908373ffffffffffffffffffffffffffffffffffffffff1602179055505050565b600080600083815260200190815260200160002060020160009054906101000a900473ffffffffffffffffffffffffffffffffffffffff169050919050565b80600080848152602001908152602001600020600801819055505050565b60006020528060005260406000206000915090508060000160009054906101000a900473ffffffffffffffffffffffffffffffffffffffff16908060010154908060020160009054906101000a900473ffffffffffffffffffffffffffffffffffffffff16908060030160009054906101000a900473ffffffffffffffffffffffffffffffffffffffff16908060040154908060050160009054906101000a900460ff1690806006015490806007015490806008015490806009018054610c5b9061165a565b80601f0160208091040260200160405190810160405280929190818152602001828054610c879061165a565b8015610cd45780601f10610ca957610100808354040283529160200191610cd4565b820191906000526020600020905b815481529060010190602001808311610cb757829003601f168201915b50505050509080600a018054610ce99061165a565b80601f0160208091040260200160405190810160405280929190818152602001828054610d159061165a565b8015610d625780601f10610d3757610100808354040283529160200191610d62565b820191906000526020600020905b815481529060010190602001808311610d4557829003601f168201915b505050505090508b565b6000806000838152602001908152602001600020600701549050919050565b600080600083815260200190815260200160002060050160009054906101000a900460ff169050919050565b604051806101600160405280600073ffffffffffffffffffffffffffffffffffffffff16815260200160008152602001600073ffffffffffffffffffffffffffffffffffffffff168152602001600073ffffffffffffffffffffffffffffffffffffffff1681526020016000815260200160001515815260200160008152602001600081526020016000815260200160608152602001606081525090565b828054610e619061165a565b90600052602060002090601f016020900481019282610e835760008555610eca565b82601f10610e9c57805160ff1916838001178555610eca565b82800160010185558215610eca579182015b82811115610ec9578251825591602001919060010190610eae565b5b509050610ed79190610edb565b5090565b5b80821115610ef4576000816000905550600101610edc565b5090565b6000610f0b610f068461150a565b6114e5565b905082815260208101848484011115610f2357600080fd5b610f2e848285611618565b509392505050565b600081359050610f458161175b565b92915050565b600081359050610f5a81611772565b92915050565b600081359050610f6f81611789565b92915050565b600082601f830112610f8657600080fd5b8135610f96848260208601610ef8565b91505092915050565b600081359050610fae816117a0565b92915050565b6000806000806000806000806000806101408b8d031215610fd457600080fd5b6000610fe28d828e01610f36565b9a50506020610ff38d828e01610f9f565b99505060406110048d828e01610f4b565b98505060606110158d828e01610f4b565b97505060806110268d828e01610f9f565b96505060a06110378d828e01610f60565b95505060c06110488d828e01610f9f565b94505060e06110598d828e01610f9f565b9350506101008b013567ffffffffffffffff81111561107757600080fd5b6110838d828e01610f75565b9250506101208b013567ffffffffffffffff8111156110a157600080fd5b6110ad8d828e01610f75565b9150509295989b9194979a5092959850565b6000602082840312156110d157600080fd5b60006110df84828501610f9f565b91505092915050565b600080604083850312156110fb57600080fd5b600061110985828601610f9f565b925050602061111a85828601610f4b565b9150509250929050565b6000806040838503121561113757600080fd5b600061114585828601610f9f565b925050602061115685828601610f60565b9150509250929050565b6000806040838503121561117357600080fd5b600061118185828601610f9f565b925050602061119285828601610f9f565b9150509250929050565b6111a5816115d0565b82525050565b6111b4816115d0565b82525050565b6111c3816115be565b82525050565b6111d2816115be565b82525050565b6111e1816115e2565b82525050565b6111f0816115e2565b82525050565b60006112018261153b565b61120b8185611546565b935061121b818560208601611627565b6112248161174a565b840191505092915050565b600061123a8261153b565b6112448185611557565b9350611254818560208601611627565b61125d8161174a565b840191505092915050565b60006101608301600083015161128160008601826111ba565b506020830151611294602086018261135e565b5060408301516112a7604086018261119c565b5060608301516112ba606086018261119c565b5060808301516112cd608086018261135e565b5060a08301516112e060a08601826111d8565b5060c08301516112f360c086018261135e565b5060e083015161130660e086018261135e565b5061010083015161131b61010086018261135e565b5061012083015184820361012086015261133582826111f6565b91505061014083015184820361014086015261135182826111f6565b9150508091505092915050565b6113678161160e565b82525050565b6113768161160e565b82525050565b600060208201905061139160008301846111c9565b92915050565b60006020820190506113ac60008301846111ab565b92915050565b6000610160820190506113c8600083018e6111c9565b6113d5602083018d61136d565b6113e2604083018c6111ab565b6113ef606083018b6111ab565b6113fc608083018a61136d565b61140960a08301896111e7565b61141660c083018861136d565b61142360e083018761136d565b61143161010083018661136d565b818103610120830152611444818561122f565b9050818103610140830152611459818461122f565b90509c9b505050505050505050505050565b600060208201905061148060008301846111e7565b92915050565b600060208201905081810360008301526114a0818461122f565b905092915050565b600060208201905081810360008301526114c28184611268565b905092915050565b60006020820190506114df600083018461136d565b92915050565b60006114ef611500565b90506114fb828261168c565b919050565b6000604051905090565b600067ffffffffffffffff8211156115255761152461171b565b5b61152e8261174a565b9050602081019050919050565b600081519050919050565b600082825260208201905092915050565b600082825260208201905092915050565b60006115738261160e565b915061157e8361160e565b9250827fffffffffffffffffffffffffffffffffffffffffffffffffffffffffffffffff038211156115b3576115b26116bd565b5b828201905092915050565b60006115c9826115ee565b9050919050565b60006115db826115ee565b9050919050565b60008115159050919050565b600073ffffffffffffffffffffffffffffffffffffffff82169050919050565b6000819050919050565b82818337600083830152505050565b60005b8381101561164557808201518184015260208101905061162a565b83811115611654576000848401525b50505050565b6000600282049050600182168061167257607f821691505b60208210811415611686576116856116ec565b5b50919050565b6116958261174a565b810181811067ffffffffffffffff821117156116b4576116b361171b565b5b80604052505050565b7f4e487b7100000000000000000000000000000000000000000000000000000000600052601160045260246000fd5b7f4e487b7100000000000000000000000000000000000000000000000000000000600052602260045260246000fd5b7f4e487b7100000000000000000000000000000000000000000000000000000000600052604160045260246000fd5b6000601f19601f8301169050919050565b611764816115be565b811461176f57600080fd5b50565b61177b816115d0565b811461178657600080fd5b50565b611792816115e2565b811461179d57600080fd5b50565b6117a98161160e565b81146117b457600080fd5b5056fea26469706673582212206e654809f688529fbdd437f92d5babdd4e3e66de58f0b069ccd9a51b94a5003d64736f6c63430008030033",
  "immutableReferences": {},
  "source": "// SPDX-License-Identifier: MIT OR Apache-2.0\r\npragma solidity ^0.8.3;\r\n\r\nstruct MarketItem {\r\n    address nftContract;\r\n    uint256 tokenId;\r\n    address payable owner;\r\n    address payable creator;\r\n    uint256 price;\r\n    bool isListed;\r\n    uint256 royalty;\r\n    uint256 eventCount;\r\n    uint256 offerCount;\r\n    string name;\r\n    string collectionName;\r\n}\r\n\r\ncontract NFTMarketItems {\r\n\r\n    mapping(uint256 => MarketItem) public idToMarketItem;\r\n\r\n    function _getMarketItem(uint256 tokenId) external view returns (MarketItem memory) {\r\n        return idToMarketItem[tokenId];\r\n    }\r\n\r\n    function _getItemEventCount(uint256 tokenId) external view returns (uint256) {\r\n        return idToMarketItem[tokenId].eventCount;\r\n    }\r\n\r\n    function _getItemIsListed(uint256 tokenId) external view returns (bool) {\r\n        return idToMarketItem[tokenId].isListed;\r\n    }\r\n\r\n    function _getItemPrice(uint256 tokenId) external view returns (uint256) {\r\n        return idToMarketItem[tokenId].price;\r\n    }\r\n\r\n    function _getItemRoyalty(uint256 tokenId) external view returns (uint256) {\r\n        return idToMarketItem[tokenId].royalty;\r\n    }\r\n\r\n    function _getItemOwner(uint256 tokenId) external view returns (address payable) {\r\n        return idToMarketItem[tokenId].owner;\r\n    }\r\n\r\n    function _getItemCreator(uint256 tokenId) external view returns (address payable) {\r\n        return idToMarketItem[tokenId].creator;\r\n    }\r\n\r\n    function _getItemCollectionName(uint256 tokenId) external view returns (string memory) {\r\n        return idToMarketItem[tokenId].collectionName;\r\n    }\r\n\r\n    function _getItemOfferCount(uint256 tokenId) external view returns (uint256) {\r\n        return idToMarketItem[tokenId].offerCount;\r\n    }\r\n\r\n    function _getItemContract(uint256 tokenId) external view returns (address) {\r\n        return idToMarketItem[tokenId].nftContract;\r\n    }\r\n\r\n    function _addMarketItem(address nftContract, uint256 tokenId, address payable owner, address payable creator, uint256 price, bool isListed, uint256 royalty, uint256 eventCount, string memory name, string memory collectionName) external {\r\n        idToMarketItem[tokenId] = MarketItem(nftContract, tokenId, owner, creator, price, isListed, royalty, eventCount, 0, name, collectionName);\r\n    }\r\n\r\n    function _setItemIsListed(uint256 tokenId, bool status) external {\r\n        idToMarketItem[tokenId].isListed = status;\r\n    }\r\n\r\n    function _incrementEventCount(uint256 tokenId) external {\r\n        idToMarketItem[tokenId].eventCount += 1;\r\n    }\r\n\r\n    function _setItemPrice(uint256 tokenId, uint256 price) external {\r\n        idToMarketItem[tokenId].price = price;\r\n    }\r\n\r\n    function _setItemOwner(uint256 tokenId, address payable owner) external {\r\n        idToMarketItem[tokenId].owner = owner;\r\n    }\r\n\r\n    function _setItemOfferCount(uint256 tokenId, uint256 offerCount) external {\r\n        idToMarketItem[tokenId].offerCount = offerCount;\r\n    }\r\n\r\n    function _incrementOfferCount(uint256 tokenId) external {\r\n        idToMarketItem[tokenId].offerCount += 1;\r\n    }\r\n}",
  "sourcePath": "C:\\Users\\priya\\xdsea-Live\\contracts\\NFTMarketItems.sol",
  "compiler": {
    "name": "solc",
    "version": "0.8.3+commit.8d00100c.Emscripten.clang"
  },
  "schemaVersion": "3.4.4",
  "updatedAt": "2022-03-10T03:06:40.660Z",
  "devdoc": {
    "kind": "dev",
    "methods": {},
    "version": 1
  },
  "userdoc": {
    "kind": "user",
    "methods": {},
    "version": 1
  }
}