{
  "contractName": "NFTMarketOffers",
  "abi": [
    {
      "inputs": [
        {
          "internalType": "uint256",
          "name": "tokenId",
          "type": "uint256"
        },
        {
          "internalType": "uint256",
          "name": "offerId",
          "type": "uint256"
        }
      ],
      "name": "_getOfferPrice",
      "outputs": [
        {
          "internalType": "uint256",
          "name": "",
          "type": "uint256"
        }
      ],
      "stateMutability": "view",
      "type": "function"
    },
    {
      "inputs": [
        {
          "internalType": "uint256",
          "name": "tokenId",
          "type": "uint256"
        },
        {
          "internalType": "uint256",
          "name": "offerId",
          "type": "uint256"
        }
      ],
      "name": "_getOfferFrom",
      "outputs": [
        {
          "internalType": "address payable",
          "name": "",
          "type": "address"
        }
      ],
      "stateMutability": "view",
      "type": "function"
    },
    {
      "inputs": [
        {
          "internalType": "uint256",
          "name": "tokenId",
          "type": "uint256"
        },
        {
          "internalType": "uint256",
          "name": "offerId",
          "type": "uint256"
        }
      ],
      "name": "_getOfferTo",
      "outputs": [
        {
          "internalType": "address payable",
          "name": "",
          "type": "address"
        }
      ],
      "stateMutability": "view",
      "type": "function"
    },
    {
      "inputs": [
        {
          "internalType": "uint256",
          "name": "tokenId",
          "type": "uint256"
        },
        {
          "internalType": "uint256",
          "name": "offerId",
          "type": "uint256"
        }
      ],
      "name": "_getOffer",
      "outputs": [
        {
          "components": [
            {
              "internalType": "uint256",
              "name": "price",
              "type": "uint256"
            },
            {
              "internalType": "address payable",
              "name": "from",
              "type": "address"
            },
            {
              "internalType": "address payable",
              "name": "to",
              "type": "address"
            },
            {
              "internalType": "bool",
              "name": "isWithdrawn",
              "type": "bool"
            },
            {
              "internalType": "bool",
              "name": "isAccepted",
              "type": "bool"
            }
          ],
          "internalType": "struct Offer",
          "name": "",
          "type": "tuple"
        }
      ],
      "stateMutability": "view",
      "type": "function"
    },
    {
      "inputs": [
        {
          "internalType": "uint256",
          "name": "tokenId",
          "type": "uint256"
        },
        {
          "internalType": "uint256",
          "name": "offerId",
          "type": "uint256"
        }
      ],
      "name": "_isAccepted",
      "outputs": [
        {
          "internalType": "bool",
          "name": "",
          "type": "bool"
        }
      ],
      "stateMutability": "view",
      "type": "function"
    },
    {
      "inputs": [
        {
          "internalType": "uint256",
          "name": "tokenId",
          "type": "uint256"
        },
        {
          "internalType": "uint256",
          "name": "offerId",
          "type": "uint256"
        }
      ],
      "name": "_isWithdrawn",
      "outputs": [
        {
          "internalType": "bool",
          "name": "",
          "type": "bool"
        }
      ],
      "stateMutability": "view",
      "type": "function"
    },
    {
      "inputs": [
        {
          "internalType": "uint256",
          "name": "price",
          "type": "uint256"
        },
        {
          "internalType": "address payable",
          "name": "from",
          "type": "address"
        },
        {
          "internalType": "address payable",
          "name": "to",
          "type": "address"
        },
        {
          "internalType": "uint256",
          "name": "tokenId",
          "type": "uint256"
        },
        {
          "internalType": "uint256",
          "name": "offerId",
          "type": "uint256"
        }
      ],
      "name": "_placeOffer",
      "outputs": [],
      "stateMutability": "nonpayable",
      "type": "function"
    },
    {
      "inputs": [
        {
          "internalType": "uint256",
          "name": "tokenId",
          "type": "uint256"
        },
        {
          "internalType": "uint256",
          "name": "offerId",
          "type": "uint256"
        }
      ],
      "name": "_withdrawOffer",
      "outputs": [],
      "stateMutability": "nonpayable",
      "type": "function"
    },
    {
      "inputs": [
        {
          "internalType": "uint256",
          "name": "tokenId",
          "type": "uint256"
        },
        {
          "internalType": "uint256",
          "name": "offerId",
          "type": "uint256"
        }
      ],
      "name": "_acceptOffer",
      "outputs": [],
      "stateMutability": "nonpayable",
      "type": "function"
    }
  ],
  "bytecode": "0x608060405234801561001057600080fd5b50610baa806100206000396000f3fe608060405234801561001057600080fd5b50600436106100935760003560e01c80639b125c48116100665780639b125c4814610130578063a61178bc14610160578063afc5edcb14610190578063c45cc190146101ac578063c4e28237146101dc57610093565b80636c978991146100985780637c4a9ba1146100b45780637c93564c146100d05780637e32c44214610100575b600080fd5b6100b260048036038101906100ad919061085f565b61020c565b005b6100ce60048036038101906100c991906107e8565b6102ca565b005b6100ea60048036038101906100e5919061085f565b610428565b6040516100f791906109be565b60405180910390f35b61011a6004803603810190610115919061085f565b610466565b60405161012791906109a3565b60405180910390f35b61014a6004803603810190610145919061085f565b6104b7565b60405161015791906109a3565b60405180910390f35b61017a6004803603810190610175919061085f565b610508565b60405161018791906109be565b60405180910390f35b6101aa60048036038101906101a5919061085f565b610546565b005b6101c660048036038101906101c1919061085f565b610604565b6040516101d39190610a19565b60405180910390f35b6101f660048036038101906101f1919061085f565b61072e565b6040516102039190610a34565b60405180910390f35b60011515600080848152602001908152602001600020600083815260200190815260200160002060020160159054906101000a900460ff1615151415610287576040517f08c379a000000000000000000000000000000000000000000000000000000000815260040161027e906109f9565b60405180910390fd5b6001600080848152602001908152602001600020600083815260200190815260200160002060020160146101000a81548160ff0219169083151502179055505050565b6040518060a001604052808681526020018573ffffffffffffffffffffffffffffffffffffffff1681526020018473ffffffffffffffffffffffffffffffffffffffff1681526020016000151581526020016000151581525060008084815260200190815260200160002060008381526020019081526020016000206000820151816000015560208201518160010160006101000a81548173ffffffffffffffffffffffffffffffffffffffff021916908373ffffffffffffffffffffffffffffffffffffffff16021790555060408201518160020160006101000a81548173ffffffffffffffffffffffffffffffffffffffff021916908373ffffffffffffffffffffffffffffffffffffffff16021790555060608201518160020160146101000a81548160ff02191690831515021790555060808201518160020160156101000a81548160ff0219169083151502179055509050505050505050565b6000806000848152602001908152602001600020600083815260200190815260200160002060020160149054906101000a900460ff16905092915050565b6000806000848152602001908152602001600020600083815260200190815260200160002060020160009054906101000a900473ffffffffffffffffffffffffffffffffffffffff16905092915050565b6000806000848152602001908152602001600020600083815260200190815260200160002060010160009054906101000a900473ffffffffffffffffffffffffffffffffffffffff16905092915050565b6000806000848152602001908152602001600020600083815260200190815260200160002060020160159054906101000a900460ff16905092915050565b60011515600080848152602001908152602001600020600083815260200190815260200160002060020160149054906101000a900460ff16151514156105c1576040517f08c379a00000000000000000000000000000000000000000000000000000000081526004016105b8906109d9565b60405180910390fd5b6001600080848152602001908152602001600020600083815260200190815260200160002060020160156101000a81548160ff0219169083151502179055505050565b61060c61075f565b60008084815260200190815260200160002060008381526020019081526020016000206040518060a0016040529081600082015481526020016001820160009054906101000a900473ffffffffffffffffffffffffffffffffffffffff1673ffffffffffffffffffffffffffffffffffffffff1673ffffffffffffffffffffffffffffffffffffffff1681526020016002820160009054906101000a900473ffffffffffffffffffffffffffffffffffffffff1673ffffffffffffffffffffffffffffffffffffffff1673ffffffffffffffffffffffffffffffffffffffff1681526020016002820160149054906101000a900460ff161515151581526020016002820160159054906101000a900460ff161515151581525050905092915050565b6000806000848152602001908152602001600020600083815260200190815260200160002060000154905092915050565b6040518060a0016040528060008152602001600073ffffffffffffffffffffffffffffffffffffffff168152602001600073ffffffffffffffffffffffffffffffffffffffff1681526020016000151581526020016000151581525090565b6000813590506107cd81610b46565b92915050565b6000813590506107e281610b5d565b92915050565b600080600080600060a0868803121561080057600080fd5b600061080e888289016107d3565b955050602061081f888289016107be565b9450506040610830888289016107be565b9350506060610841888289016107d3565b9250506080610852888289016107d3565b9150509295509295909350565b6000806040838503121561087257600080fd5b6000610880858286016107d3565b9250506020610891858286016107d3565b9150509250929050565b6108a481610a60565b82525050565b6108b381610a60565b82525050565b6108c281610a72565b82525050565b6108d181610a72565b82525050565b60006108e4602583610a4f565b91506108ef82610aa8565b604082019050919050565b6000610907602483610a4f565b915061091282610af7565b604082019050919050565b60a0820160008201516109336000850182610985565b506020820151610946602085018261089b565b506040820151610959604085018261089b565b50606082015161096c60608501826108b9565b50608082015161097f60808501826108b9565b50505050565b61098e81610a9e565b82525050565b61099d81610a9e565b82525050565b60006020820190506109b860008301846108aa565b92915050565b60006020820190506109d360008301846108c8565b92915050565b600060208201905081810360008301526109f2816108d7565b9050919050565b60006020820190508181036000830152610a12816108fa565b9050919050565b600060a082019050610a2e600083018461091d565b92915050565b6000602082019050610a496000830184610994565b92915050565b600082825260208201905092915050565b6000610a6b82610a7e565b9050919050565b60008115159050919050565b600073ffffffffffffffffffffffffffffffffffffffff82169050919050565b6000819050919050565b7f546865204f666665722068617320616c7265616479206265656e20776974686460008201527f7261776e2e000000000000000000000000000000000000000000000000000000602082015250565b7f546865204f666665722068617320616c7265616479206265656e20616363657060008201527f7465642e00000000000000000000000000000000000000000000000000000000602082015250565b610b4f81610a60565b8114610b5a57600080fd5b50565b610b6681610a9e565b8114610b7157600080fd5b5056fea2646970667358221220593a56d5d5282fe815cf4600652ca6c6b33ced57740133298c746a332147569a64736f6c63430008030033",
  "immutableReferences": {},
  "source": "// SPDX-License-Identifier: MIT OR Apache-2.0\r\npragma solidity ^0.8.3;\r\n\r\nstruct Offer {\r\n    uint256 price;\r\n    address payable from;\r\n    address payable to;\r\n    bool isWithdrawn;\r\n    bool isAccepted;\r\n}\r\n\r\ncontract NFTMarketOffers {\r\n    \r\n    mapping(uint256 => mapping(uint256 => Offer)) internal offerList;\r\n\r\n    function _getOfferPrice(uint256 tokenId, uint256 offerId) external view returns (uint256) {\r\n        return offerList[tokenId][offerId].price;\r\n    }\r\n\r\n    function _getOfferFrom(uint256 tokenId, uint256 offerId) external view returns (address payable) {\r\n        return offerList[tokenId][offerId].from;\r\n    }\r\n\r\n    function _getOfferTo(uint256 tokenId, uint256 offerId) external view returns (address payable) {\r\n        return offerList[tokenId][offerId].to;\r\n    }\r\n\r\n    function _getOffer(uint256 tokenId, uint256 offerId) external view returns (Offer memory) {\r\n        return offerList[tokenId][offerId];\r\n    }\r\n    \r\n    function _isAccepted(uint256 tokenId, uint256 offerId) external view returns (bool) {\r\n        return offerList[tokenId][offerId].isAccepted;\r\n    }\r\n\r\n    function _isWithdrawn(uint256 tokenId, uint256 offerId) external view returns (bool) {\r\n        return offerList[tokenId][offerId].isWithdrawn;\r\n    }\r\n\r\n    function _placeOffer(uint256 price, address payable from, address payable to, uint256 tokenId, uint256 offerId) external {\r\n        offerList[tokenId][offerId] = Offer(\r\n            price,\r\n            from,\r\n            to,\r\n            false,\r\n            false\r\n        );\r\n    }\r\n\r\n    function _withdrawOffer(uint256 tokenId, uint256 offerId) external {\r\n        require(offerList[tokenId][offerId].isAccepted != true, \"The Offer has already been accepted.\");\r\n        offerList[tokenId][offerId].isWithdrawn = true;\r\n    }\r\n\r\n    function _acceptOffer(uint256 tokenId, uint256 offerId) external {\r\n        require(offerList[tokenId][offerId].isWithdrawn != true, \"The Offer has already been withdrawn.\");\r\n        offerList[tokenId][offerId].isAccepted = true;\r\n    }\r\n}",
  "sourcePath": "C:\\Users\\priya\\xdsea-Live\\contracts\\NFTMarketOffers.sol",
  "compiler": {
    "name": "solc",
    "version": "0.8.3+commit.8d00100c.Emscripten.clang"
  },
  "schemaVersion": "3.4.4",
  "updatedAt": "2022-03-26T14:07:42.290Z",
  "devdoc": {
    "kind": "dev",
    "methods": {},
    "version": 1
  },
  "userdoc": {
    "kind": "user",
    "methods": {},
    "version": 1
  }
}