{
  "contractName": "NFTMarketOffers",
  "abi": [
    {
      "inputs": [
        {
          "internalType": "uint256",
          "name": "tokenId",
          "type": "uint256"
        },
        {
          "internalType": "uint256",
          "name": "offerId",
          "type": "uint256"
        }
      ],
      "name": "_getOfferPrice",
      "outputs": [
        {
          "internalType": "uint256",
          "name": "",
          "type": "uint256"
        }
      ],
      "stateMutability": "view",
      "type": "function"
    },
    {
      "inputs": [
        {
          "internalType": "uint256",
          "name": "tokenId",
          "type": "uint256"
        },
        {
          "internalType": "uint256",
          "name": "offerId",
          "type": "uint256"
        }
      ],
      "name": "_getOfferFrom",
      "outputs": [
        {
          "internalType": "address payable",
          "name": "",
          "type": "address"
        }
      ],
      "stateMutability": "view",
      "type": "function"
    },
    {
      "inputs": [
        {
          "internalType": "uint256",
          "name": "tokenId",
          "type": "uint256"
        },
        {
          "internalType": "uint256",
          "name": "offerId",
          "type": "uint256"
        }
      ],
      "name": "_getOfferTo",
      "outputs": [
        {
          "internalType": "address payable",
          "name": "",
          "type": "address"
        }
      ],
      "stateMutability": "view",
      "type": "function"
    },
    {
      "inputs": [
        {
          "internalType": "uint256",
          "name": "tokenId",
          "type": "uint256"
        },
        {
          "internalType": "uint256",
          "name": "offerId",
          "type": "uint256"
        }
      ],
      "name": "_getOffer",
      "outputs": [
        {
          "components": [
            {
              "internalType": "uint256",
              "name": "price",
              "type": "uint256"
            },
            {
              "internalType": "address payable",
              "name": "from",
              "type": "address"
            },
            {
              "internalType": "address payable",
              "name": "to",
              "type": "address"
            },
            {
              "internalType": "bool",
              "name": "isWithdrawn",
              "type": "bool"
            },
            {
              "internalType": "bool",
              "name": "isAccepted",
              "type": "bool"
            }
          ],
          "internalType": "struct Offer",
          "name": "",
          "type": "tuple"
        }
      ],
      "stateMutability": "view",
      "type": "function"
    },
    {
      "inputs": [
        {
          "internalType": "uint256",
          "name": "tokenId",
          "type": "uint256"
        },
        {
          "internalType": "uint256",
          "name": "offerId",
          "type": "uint256"
        }
      ],
      "name": "_isAccepted",
      "outputs": [
        {
          "internalType": "bool",
          "name": "",
          "type": "bool"
        }
      ],
      "stateMutability": "view",
      "type": "function"
    },
    {
      "inputs": [
        {
          "internalType": "uint256",
          "name": "tokenId",
          "type": "uint256"
        },
        {
          "internalType": "uint256",
          "name": "offerId",
          "type": "uint256"
        }
      ],
      "name": "_isWithdrawn",
      "outputs": [
        {
          "internalType": "bool",
          "name": "",
          "type": "bool"
        }
      ],
      "stateMutability": "view",
      "type": "function"
    },
    {
      "inputs": [
        {
          "internalType": "address",
          "name": "user",
          "type": "address"
        }
      ],
      "name": "_getOfferFromCount",
      "outputs": [
        {
          "internalType": "uint256",
          "name": "",
          "type": "uint256"
        }
      ],
      "stateMutability": "view",
      "type": "function"
    },
    {
      "inputs": [
        {
          "internalType": "address",
          "name": "user",
          "type": "address"
        },
        {
          "internalType": "uint256",
          "name": "offerId",
          "type": "uint256"
        }
      ],
      "name": "_getFromOffer",
      "outputs": [
        {
          "components": [
            {
              "internalType": "uint256",
              "name": "price",
              "type": "uint256"
            },
            {
              "internalType": "address payable",
              "name": "from",
              "type": "address"
            },
            {
              "internalType": "address payable",
              "name": "to",
              "type": "address"
            },
            {
              "internalType": "bool",
              "name": "isWithdrawn",
              "type": "bool"
            },
            {
              "internalType": "bool",
              "name": "isAccepted",
              "type": "bool"
            }
          ],
          "internalType": "struct Offer",
          "name": "",
          "type": "tuple"
        }
      ],
      "stateMutability": "view",
      "type": "function"
    },
    {
      "inputs": [
        {
          "internalType": "address",
          "name": "user",
          "type": "address"
        }
      ],
      "name": "_getOfferToCount",
      "outputs": [
        {
          "internalType": "uint256",
          "name": "",
          "type": "uint256"
        }
      ],
      "stateMutability": "view",
      "type": "function"
    },
    {
      "inputs": [
        {
          "internalType": "address",
          "name": "user",
          "type": "address"
        },
        {
          "internalType": "uint256",
          "name": "offerId",
          "type": "uint256"
        }
      ],
      "name": "_getToOffer",
      "outputs": [
        {
          "components": [
            {
              "internalType": "uint256",
              "name": "price",
              "type": "uint256"
            },
            {
              "internalType": "address payable",
              "name": "from",
              "type": "address"
            },
            {
              "internalType": "address payable",
              "name": "to",
              "type": "address"
            },
            {
              "internalType": "bool",
              "name": "isWithdrawn",
              "type": "bool"
            },
            {
              "internalType": "bool",
              "name": "isAccepted",
              "type": "bool"
            }
          ],
          "internalType": "struct Offer",
          "name": "",
          "type": "tuple"
        }
      ],
      "stateMutability": "view",
      "type": "function"
    },
    {
      "inputs": [
        {
          "internalType": "uint256",
          "name": "price",
          "type": "uint256"
        },
        {
          "internalType": "address payable",
          "name": "from",
          "type": "address"
        },
        {
          "internalType": "address payable",
          "name": "to",
          "type": "address"
        },
        {
          "internalType": "uint256",
          "name": "tokenId",
          "type": "uint256"
        },
        {
          "internalType": "uint256",
          "name": "offerId",
          "type": "uint256"
        }
      ],
      "name": "_placeOffer",
      "outputs": [],
      "stateMutability": "nonpayable",
      "type": "function"
    },
    {
      "inputs": [
        {
          "internalType": "uint256",
          "name": "tokenId",
          "type": "uint256"
        },
        {
          "internalType": "uint256",
          "name": "offerId",
          "type": "uint256"
        }
      ],
      "name": "_withdrawOffer",
      "outputs": [],
      "stateMutability": "nonpayable",
      "type": "function"
    },
    {
      "inputs": [
        {
          "internalType": "uint256",
          "name": "tokenId",
          "type": "uint256"
        },
        {
          "internalType": "uint256",
          "name": "offerId",
          "type": "uint256"
        }
      ],
      "name": "_acceptOffer",
      "outputs": [],
      "stateMutability": "nonpayable",
      "type": "function"
    }
  ],
  "bytecode": "0x608060405234801561001057600080fd5b5061158a806100206000396000f3fe608060405234801561001057600080fd5b50600436106100cf5760003560e01c80639b125c481161008c578063afc5edcb11610066578063afc5edcb1461025c578063c45cc19014610278578063c4e28237146102a8578063e69c6249146102d8576100cf565b80639b125c48146101cc578063a61178bc146101fc578063a95087e31461022c576100cf565b80636c978991146100d45780637c4a9ba1146100f05780637c93564c1461010c5780637e32c4421461013c57806393a26cce1461016c5780639456c2ac1461019c575b600080fd5b6100ee60048036038101906100e99190611191565b610308565b005b61010a6004803603810190610105919061111a565b6103c6565b005b61012660048036038101906101219190611191565b6109a0565b60405161013391906112f0565b60405180910390f35b61015660048036038101906101519190611191565b6109de565b60405161016391906112d5565b60405180910390f35b610186600480360381019061018191906110b5565b610a2f565b6040516101939190611366565b60405180910390f35b6101b660048036038101906101b191906110b5565b610a78565b6040516101c39190611366565b60405180910390f35b6101e660048036038101906101e19190611191565b610ac1565b6040516101f391906112d5565b60405180910390f35b61021660048036038101906102119190611191565b610b12565b60405161022391906112f0565b60405180910390f35b610246600480360381019061024191906110de565b610b50565b604051610253919061134b565b60405180910390f35b61027660048036038101906102719190611191565b610ca7565b005b610292600480360381019061028d9190611191565b610d65565b60405161029f919061134b565b60405180910390f35b6102c260048036038101906102bd9190611191565b610e8f565b6040516102cf9190611366565b60405180910390f35b6102f260048036038101906102ed91906110de565b610ec0565b6040516102ff919061134b565b60405180910390f35b60011515600080848152602001908152602001600020600083815260200190815260200160002060020160159054906101000a900460ff1615151415610383576040517f08c379a000000000000000000000000000000000000000000000000000000000815260040161037a9061132b565b60405180910390fd5b6001600080848152602001908152602001600020600083815260200190815260200160002060020160146101000a81548160ff0219169083151502179055505050565b6040518060a001604052808681526020018573ffffffffffffffffffffffffffffffffffffffff1681526020018473ffffffffffffffffffffffffffffffffffffffff1681526020016000151581526020016000151581525060008084815260200190815260200160002060008381526020019081526020016000206000820151816000015560208201518160010160006101000a81548173ffffffffffffffffffffffffffffffffffffffff021916908373ffffffffffffffffffffffffffffffffffffffff16021790555060408201518160020160006101000a81548173ffffffffffffffffffffffffffffffffffffffff021916908373ffffffffffffffffffffffffffffffffffffffff16021790555060608201518160020160146101000a81548160ff02191690831515021790555060808201518160020160156101000a81548160ff0219169083151502179055509050506001600260008673ffffffffffffffffffffffffffffffffffffffff1673ffffffffffffffffffffffffffffffffffffffff168152602001908152602001600020600082825461056d9190611392565b925050819055506000808381526020019081526020016000206000828152602001908152602001600020600160008673ffffffffffffffffffffffffffffffffffffffff1673ffffffffffffffffffffffffffffffffffffffff1681526020019081526020016000206000600260008873ffffffffffffffffffffffffffffffffffffffff1673ffffffffffffffffffffffffffffffffffffffff168152602001908152602001600020548152602001908152602001600020600082015481600001556001820160009054906101000a900473ffffffffffffffffffffffffffffffffffffffff168160010160006101000a81548173ffffffffffffffffffffffffffffffffffffffff021916908373ffffffffffffffffffffffffffffffffffffffff1602179055506002820160009054906101000a900473ffffffffffffffffffffffffffffffffffffffff168160020160006101000a81548173ffffffffffffffffffffffffffffffffffffffff021916908373ffffffffffffffffffffffffffffffffffffffff1602179055506002820160149054906101000a900460ff168160020160146101000a81548160ff0219169083151502179055506002820160159054906101000a900460ff168160020160156101000a81548160ff0219169083151502179055509050506001600460008573ffffffffffffffffffffffffffffffffffffffff1673ffffffffffffffffffffffffffffffffffffffff16815260200190815260200160002060008282546107ab9190611392565b925050819055506000808381526020019081526020016000206000828152602001908152602001600020600360008573ffffffffffffffffffffffffffffffffffffffff1673ffffffffffffffffffffffffffffffffffffffff1681526020019081526020016000206000600460008773ffffffffffffffffffffffffffffffffffffffff1673ffffffffffffffffffffffffffffffffffffffff168152602001908152602001600020548152602001908152602001600020600082015481600001556001820160009054906101000a900473ffffffffffffffffffffffffffffffffffffffff168160010160006101000a81548173ffffffffffffffffffffffffffffffffffffffff021916908373ffffffffffffffffffffffffffffffffffffffff1602179055506002820160009054906101000a900473ffffffffffffffffffffffffffffffffffffffff168160020160006101000a81548173ffffffffffffffffffffffffffffffffffffffff021916908373ffffffffffffffffffffffffffffffffffffffff1602179055506002820160149054906101000a900460ff168160020160146101000a81548160ff0219169083151502179055506002820160159054906101000a900460ff168160020160156101000a81548160ff0219169083151502179055509050505050505050565b6000806000848152602001908152602001600020600083815260200190815260200160002060020160149054906101000a900460ff16905092915050565b6000806000848152602001908152602001600020600083815260200190815260200160002060020160009054906101000a900473ffffffffffffffffffffffffffffffffffffffff16905092915050565b6000600460008373ffffffffffffffffffffffffffffffffffffffff1673ffffffffffffffffffffffffffffffffffffffff168152602001908152602001600020549050919050565b6000600260008373ffffffffffffffffffffffffffffffffffffffff1673ffffffffffffffffffffffffffffffffffffffff168152602001908152602001600020549050919050565b6000806000848152602001908152602001600020600083815260200190815260200160002060010160009054906101000a900473ffffffffffffffffffffffffffffffffffffffff16905092915050565b6000806000848152602001908152602001600020600083815260200190815260200160002060020160159054906101000a900460ff16905092915050565b610b58611017565b600360008473ffffffffffffffffffffffffffffffffffffffff1673ffffffffffffffffffffffffffffffffffffffff16815260200190815260200160002060008381526020019081526020016000206040518060a0016040529081600082015481526020016001820160009054906101000a900473ffffffffffffffffffffffffffffffffffffffff1673ffffffffffffffffffffffffffffffffffffffff1673ffffffffffffffffffffffffffffffffffffffff1681526020016002820160009054906101000a900473ffffffffffffffffffffffffffffffffffffffff1673ffffffffffffffffffffffffffffffffffffffff1673ffffffffffffffffffffffffffffffffffffffff1681526020016002820160149054906101000a900460ff161515151581526020016002820160159054906101000a900460ff161515151581525050905092915050565b60011515600080848152602001908152602001600020600083815260200190815260200160002060020160149054906101000a900460ff1615151415610d22576040517f08c379a0000000000000000000000000000000000000000000000000000000008152600401610d199061130b565b60405180910390fd5b6001600080848152602001908152602001600020600083815260200190815260200160002060020160156101000a81548160ff0219169083151502179055505050565b610d6d611017565b60008084815260200190815260200160002060008381526020019081526020016000206040518060a0016040529081600082015481526020016001820160009054906101000a900473ffffffffffffffffffffffffffffffffffffffff1673ffffffffffffffffffffffffffffffffffffffff1673ffffffffffffffffffffffffffffffffffffffff1681526020016002820160009054906101000a900473ffffffffffffffffffffffffffffffffffffffff1673ffffffffffffffffffffffffffffffffffffffff1673ffffffffffffffffffffffffffffffffffffffff1681526020016002820160149054906101000a900460ff161515151581526020016002820160159054906101000a900460ff161515151581525050905092915050565b6000806000848152602001908152602001600020600083815260200190815260200160002060000154905092915050565b610ec8611017565b600160008473ffffffffffffffffffffffffffffffffffffffff1673ffffffffffffffffffffffffffffffffffffffff16815260200190815260200160002060008381526020019081526020016000206040518060a0016040529081600082015481526020016001820160009054906101000a900473ffffffffffffffffffffffffffffffffffffffff1673ffffffffffffffffffffffffffffffffffffffff1673ffffffffffffffffffffffffffffffffffffffff1681526020016002820160009054906101000a900473ffffffffffffffffffffffffffffffffffffffff1673ffffffffffffffffffffffffffffffffffffffff1673ffffffffffffffffffffffffffffffffffffffff1681526020016002820160149054906101000a900460ff161515151581526020016002820160159054906101000a900460ff161515151581525050905092915050565b6040518060a0016040528060008152602001600073ffffffffffffffffffffffffffffffffffffffff168152602001600073ffffffffffffffffffffffffffffffffffffffff1681526020016000151581526020016000151581525090565b6000813590506110858161150f565b92915050565b60008135905061109a81611526565b92915050565b6000813590506110af8161153d565b92915050565b6000602082840312156110c757600080fd5b60006110d584828501611076565b91505092915050565b600080604083850312156110f157600080fd5b60006110ff85828601611076565b9250506020611110858286016110a0565b9150509250929050565b600080600080600060a0868803121561113257600080fd5b6000611140888289016110a0565b95505060206111518882890161108b565b94505060406111628882890161108b565b9350506060611173888289016110a0565b9250506080611184888289016110a0565b9150509295509295909350565b600080604083850312156111a457600080fd5b60006111b2858286016110a0565b92505060206111c3858286016110a0565b9150509250929050565b6111d6816113fa565b82525050565b6111e5816113fa565b82525050565b6111f48161140c565b82525050565b6112038161140c565b82525050565b6000611216602583611381565b915061122182611471565b604082019050919050565b6000611239602483611381565b9150611244826114c0565b604082019050919050565b60a08201600082015161126560008501826112b7565b50602082015161127860208501826111cd565b50604082015161128b60408501826111cd565b50606082015161129e60608501826111eb565b5060808201516112b160808501826111eb565b50505050565b6112c081611438565b82525050565b6112cf81611438565b82525050565b60006020820190506112ea60008301846111dc565b92915050565b600060208201905061130560008301846111fa565b92915050565b6000602082019050818103600083015261132481611209565b9050919050565b600060208201905081810360008301526113448161122c565b9050919050565b600060a082019050611360600083018461124f565b92915050565b600060208201905061137b60008301846112c6565b92915050565b600082825260208201905092915050565b600061139d82611438565b91506113a883611438565b9250827fffffffffffffffffffffffffffffffffffffffffffffffffffffffffffffffff038211156113dd576113dc611442565b5b828201905092915050565b60006113f382611418565b9050919050565b600061140582611418565b9050919050565b60008115159050919050565b600073ffffffffffffffffffffffffffffffffffffffff82169050919050565b6000819050919050565b7f4e487b7100000000000000000000000000000000000000000000000000000000600052601160045260246000fd5b7f546865204f666665722068617320616c7265616479206265656e20776974686460008201527f7261776e2e000000000000000000000000000000000000000000000000000000602082015250565b7f546865204f666665722068617320616c7265616479206265656e20616363657060008201527f7465642e00000000000000000000000000000000000000000000000000000000602082015250565b611518816113e8565b811461152357600080fd5b50565b61152f816113fa565b811461153a57600080fd5b50565b61154681611438565b811461155157600080fd5b5056fea2646970667358221220210b479ac9832d4f79c06b305e025315f371082989fc144d612cdee30c7ffcac64736f6c63430008030033",
  "immutableReferences": {},
  "source": "// SPDX-License-Identifier: MIT OR Apache-2.0\r\npragma solidity ^0.8.3;\r\n\r\nstruct Offer {\r\n    uint256 price;\r\n    address payable from;\r\n    address payable to;\r\n    bool isWithdrawn;\r\n    bool isAccepted;\r\n}\r\n\r\ncontract NFTMarketOffers {\r\n    \r\n    mapping(uint256 => mapping(uint256 => Offer)) internal offerList;\r\n\r\n    mapping(address => mapping(uint256 => Offer)) internal userFromOfferList;\r\n\r\n    mapping(address => uint256) internal userFromOfferCount;\r\n\r\n    mapping(address => mapping(uint256 => Offer)) internal userToOfferList;\r\n\r\n    mapping(address => uint256) internal userToOfferCount;\r\n\r\n    function _getOfferPrice(uint256 tokenId, uint256 offerId) external view returns (uint256) {\r\n        return offerList[tokenId][offerId].price;\r\n    }\r\n\r\n    function _getOfferFrom(uint256 tokenId, uint256 offerId) external view returns (address payable) {\r\n        return offerList[tokenId][offerId].from;\r\n    }\r\n\r\n    function _getOfferTo(uint256 tokenId, uint256 offerId) external view returns (address payable) {\r\n        return offerList[tokenId][offerId].to;\r\n    }\r\n\r\n    function _getOffer(uint256 tokenId, uint256 offerId) external view returns (Offer memory) {\r\n        return offerList[tokenId][offerId];\r\n    }\r\n    \r\n    function _isAccepted(uint256 tokenId, uint256 offerId) external view returns (bool) {\r\n        return offerList[tokenId][offerId].isAccepted;\r\n    }\r\n\r\n    function _isWithdrawn(uint256 tokenId, uint256 offerId) external view returns (bool) {\r\n        return offerList[tokenId][offerId].isWithdrawn;\r\n    }\r\n\r\n    function _getOfferFromCount(address user) external view returns (uint256) {\r\n        return userFromOfferCount[user];\r\n    }\r\n\r\n    function _getFromOffer(address user, uint256 offerId) external view returns (Offer memory) {\r\n        return userFromOfferList[user][offerId];\r\n    }\r\n\r\n    function _getOfferToCount(address user) external view returns (uint256) {\r\n        return userToOfferCount[user];\r\n    }\r\n\r\n    function _getToOffer(address user, uint256 offerId) external view returns (Offer memory) {\r\n        return userToOfferList[user][offerId];\r\n    }\r\n\r\n    function _placeOffer(uint256 price, address payable from, address payable to, uint256 tokenId, uint256 offerId) external {\r\n        offerList[tokenId][offerId] = Offer(\r\n            price,\r\n            from,\r\n            to,\r\n            false,\r\n            false\r\n        );\r\n        userFromOfferCount[from] += 1;\r\n        userFromOfferList[from][userFromOfferCount[from]] = offerList[tokenId][offerId];\r\n        userToOfferCount[to] += 1;\r\n        userToOfferList[to][userToOfferCount[to]] = offerList[tokenId][offerId];\r\n    }\r\n\r\n    function _withdrawOffer(uint256 tokenId, uint256 offerId) external {\r\n        require(offerList[tokenId][offerId].isAccepted != true, \"The Offer has already been accepted.\");\r\n        offerList[tokenId][offerId].isWithdrawn = true;\r\n    }\r\n\r\n    function _acceptOffer(uint256 tokenId, uint256 offerId) external {\r\n        require(offerList[tokenId][offerId].isWithdrawn != true, \"The Offer has already been withdrawn.\");\r\n        offerList[tokenId][offerId].isAccepted = true;\r\n    }\r\n}",
  "sourcePath": "C:\\Users\\priya\\xdsea-Live\\contracts\\NFTMarketOffers.sol",
  "compiler": {
    "name": "solc",
    "version": "0.8.3+commit.8d00100c.Emscripten.clang"
  },
  "schemaVersion": "3.4.4",
  "updatedAt": "2022-03-31T12:31:30.444Z",
  "devdoc": {
    "kind": "dev",
    "methods": {},
    "version": 1
  },
  "userdoc": {
    "kind": "user",
    "methods": {},
    "version": 1
  }
}