{
  "_format": "hh-sol-artifact-1",
  "contractName": "XDSea721Staking",
  "sourceName": "newContracts/XDSea721Staking.sol",
  "abi": [
    {
      "inputs": [
        {
          "internalType": "address",
          "name": "_nftCollection",
          "type": "address"
        },
        {
          "internalType": "uint256[]",
          "name": "_tokenIds",
          "type": "uint256[]"
        },
        {
          "internalType": "uint256[]",
          "name": "_backedValues",
          "type": "uint256[]"
        },
        {
          "internalType": "uint256",
          "name": "_lockInPeriod",
          "type": "uint256"
        },
        {
          "internalType": "uint256",
          "name": "_timeOfPoolInitialization",
          "type": "uint256"
        }
      ],
      "stateMutability": "nonpayable",
      "type": "constructor"
    },
    {
      "inputs": [],
      "name": "BackedValueAlreadySet",
      "type": "error"
    },
    {
      "inputs": [],
      "name": "BackedValueNotSet",
      "type": "error"
    },
    {
      "inputs": [
        {
          "internalType": "uint256",
          "name": "tokenIdLength",
          "type": "uint256"
        },
        {
          "internalType": "uint256",
          "name": "backedValueLength",
          "type": "uint256"
        }
      ],
      "name": "LengthMismatch",
      "type": "error"
    },
    {
      "inputs": [
        {
          "internalType": "uint256",
          "name": "_tokenId",
          "type": "uint256"
        }
      ],
      "name": "NFTNotStaked",
      "type": "error"
    },
    {
      "inputs": [
        {
          "internalType": "uint256",
          "name": "tokenId",
          "type": "uint256"
        }
      ],
      "name": "NotEligibleForStaking",
      "type": "error"
    },
    {
      "inputs": [
        {
          "internalType": "uint256",
          "name": "balance",
          "type": "uint256"
        },
        {
          "internalType": "uint256",
          "name": "reward",
          "type": "uint256"
        }
      ],
      "name": "NotEnoughBalance",
      "type": "error"
    },
    {
      "inputs": [
        {
          "internalType": "address",
          "name": "owner",
          "type": "address"
        },
        {
          "internalType": "address",
          "name": "sender",
          "type": "address"
        }
      ],
      "name": "NotOwner",
      "type": "error"
    },
    {
      "inputs": [
        {
          "internalType": "address",
          "name": "owner",
          "type": "address"
        },
        {
          "internalType": "address",
          "name": "sender",
          "type": "address"
        }
      ],
      "name": "NotPoolOwner",
      "type": "error"
    },
    {
      "inputs": [
        {
          "internalType": "address",
          "name": "given",
          "type": "address"
        }
      ],
      "name": "NotTheCorrectContractAddress",
      "type": "error"
    },
    {
      "inputs": [
        {
          "internalType": "uint256",
          "name": "lockInEnd",
          "type": "uint256"
        },
        {
          "internalType": "uint256",
          "name": "currentTime",
          "type": "uint256"
        }
      ],
      "name": "StillLockedIn",
      "type": "error"
    },
    {
      "anonymous": false,
      "inputs": [
        {
          "indexed": true,
          "internalType": "address",
          "name": "from",
          "type": "address"
        },
        {
          "indexed": true,
          "internalType": "address",
          "name": "contractAddress",
          "type": "address"
        },
        {
          "indexed": false,
          "internalType": "uint256",
          "name": "value",
          "type": "uint256"
        }
      ],
      "name": "FundsReceived",
      "type": "event"
    },
    {
      "anonymous": false,
      "inputs": [
        {
          "indexed": true,
          "internalType": "address",
          "name": "operator",
          "type": "address"
        },
        {
          "indexed": true,
          "internalType": "address",
          "name": "from",
          "type": "address"
        },
        {
          "indexed": false,
          "internalType": "uint256[]",
          "name": "ids",
          "type": "uint256[]"
        },
        {
          "indexed": false,
          "internalType": "uint256[]",
          "name": "values",
          "type": "uint256[]"
        }
      ],
      "name": "XRC1155BatchReceived",
      "type": "event"
    },
    {
      "anonymous": false,
      "inputs": [
        {
          "indexed": true,
          "internalType": "address",
          "name": "operator",
          "type": "address"
        },
        {
          "indexed": true,
          "internalType": "address",
          "name": "from",
          "type": "address"
        },
        {
          "indexed": true,
          "internalType": "uint256",
          "name": "id",
          "type": "uint256"
        },
        {
          "indexed": false,
          "internalType": "uint256",
          "name": "value",
          "type": "uint256"
        }
      ],
      "name": "XRC1155Received",
      "type": "event"
    },
    {
      "anonymous": false,
      "inputs": [
        {
          "indexed": true,
          "internalType": "address",
          "name": "operator",
          "type": "address"
        },
        {
          "indexed": true,
          "internalType": "address",
          "name": "from",
          "type": "address"
        },
        {
          "indexed": true,
          "internalType": "uint256",
          "name": "tokenId",
          "type": "uint256"
        }
      ],
      "name": "XRC721Received",
      "type": "event"
    },
    {
      "inputs": [
        {
          "internalType": "uint256[]",
          "name": "_tokenIds",
          "type": "uint256[]"
        },
        {
          "internalType": "uint256[]",
          "name": "_backedValues",
          "type": "uint256[]"
        }
      ],
      "name": "addBackedValues",
      "outputs": [],
      "stateMutability": "nonpayable",
      "type": "function"
    },
    {
      "inputs": [],
      "name": "balanceOf",
      "outputs": [
        {
          "internalType": "uint256",
          "name": "",
          "type": "uint256"
        }
      ],
      "stateMutability": "view",
      "type": "function"
    },
    {
      "inputs": [
        {
          "internalType": "uint256",
          "name": "_tokenId",
          "type": "uint256"
        }
      ],
      "name": "calculateRewards",
      "outputs": [
        {
          "internalType": "uint256[]",
          "name": "",
          "type": "uint256[]"
        }
      ],
      "stateMutability": "view",
      "type": "function"
    },
    {
      "inputs": [
        {
          "internalType": "uint256",
          "name": "_tokenId",
          "type": "uint256"
        }
      ],
      "name": "checkBackedValue",
      "outputs": [
        {
          "internalType": "uint256",
          "name": "",
          "type": "uint256"
        }
      ],
      "stateMutability": "view",
      "type": "function"
    },
    {
      "inputs": [
        {
          "internalType": "uint256",
          "name": "_tokenId",
          "type": "uint256"
        }
      ],
      "name": "checkEligibility",
      "outputs": [
        {
          "internalType": "bool",
          "name": "",
          "type": "bool"
        }
      ],
      "stateMutability": "view",
      "type": "function"
    },
    {
      "inputs": [],
      "name": "checkRewards",
      "outputs": [
        {
          "components": [
            {
              "internalType": "address",
              "name": "tokenContract",
              "type": "address"
            },
            {
              "internalType": "uint256",
              "name": "rewardRate",
              "type": "uint256"
            },
            {
              "internalType": "uint256",
              "name": "rewardFrequency",
              "type": "uint256"
            },
            {
              "internalType": "enum XDSea721Staking.RewardType",
              "name": "rewardType",
              "type": "uint8"
            }
          ],
          "internalType": "struct XDSea721Staking.Reward[]",
          "name": "",
          "type": "tuple[]"
        }
      ],
      "stateMutability": "view",
      "type": "function"
    },
    {
      "inputs": [
        {
          "internalType": "uint256",
          "name": "_tokenId",
          "type": "uint256"
        }
      ],
      "name": "checkStakerAddress",
      "outputs": [
        {
          "internalType": "address",
          "name": "",
          "type": "address"
        }
      ],
      "stateMutability": "view",
      "type": "function"
    },
    {
      "inputs": [
        {
          "internalType": "uint256",
          "name": "_tokenId",
          "type": "uint256"
        }
      ],
      "name": "checkTimeOfStake",
      "outputs": [
        {
          "internalType": "uint256",
          "name": "",
          "type": "uint256"
        }
      ],
      "stateMutability": "view",
      "type": "function"
    },
    {
      "inputs": [
        {
          "internalType": "uint256",
          "name": "_tokenId",
          "type": "uint256"
        }
      ],
      "name": "claimRewards",
      "outputs": [],
      "stateMutability": "nonpayable",
      "type": "function"
    },
    {
      "inputs": [
        {
          "internalType": "uint256",
          "name": "amount",
          "type": "uint256"
        },
        {
          "internalType": "address",
          "name": "erc20address",
          "type": "address"
        }
      ],
      "name": "depositFunds",
      "outputs": [],
      "stateMutability": "payable",
      "type": "function"
    },
    {
      "inputs": [],
      "name": "isBackedValue",
      "outputs": [
        {
          "internalType": "bool",
          "name": "",
          "type": "bool"
        }
      ],
      "stateMutability": "view",
      "type": "function"
    },
    {
      "inputs": [],
      "name": "lockInPeriod",
      "outputs": [
        {
          "internalType": "uint256",
          "name": "",
          "type": "uint256"
        }
      ],
      "stateMutability": "view",
      "type": "function"
    },
    {
      "inputs": [],
      "name": "marketplaceAddress",
      "outputs": [
        {
          "internalType": "address",
          "name": "",
          "type": "address"
        }
      ],
      "stateMutability": "view",
      "type": "function"
    },
    {
      "inputs": [],
      "name": "nftCollection",
      "outputs": [
        {
          "internalType": "address",
          "name": "",
          "type": "address"
        }
      ],
      "stateMutability": "view",
      "type": "function"
    },
    {
      "inputs": [
        {
          "internalType": "address",
          "name": "operator",
          "type": "address"
        },
        {
          "internalType": "address",
          "name": "from",
          "type": "address"
        },
        {
          "internalType": "uint256[]",
          "name": "tokenIds",
          "type": "uint256[]"
        },
        {
          "internalType": "uint256[]",
          "name": "values",
          "type": "uint256[]"
        },
        {
          "internalType": "bytes",
          "name": "",
          "type": "bytes"
        }
      ],
      "name": "onERC1155BatchReceived",
      "outputs": [
        {
          "internalType": "bytes4",
          "name": "",
          "type": "bytes4"
        }
      ],
      "stateMutability": "nonpayable",
      "type": "function"
    },
    {
      "inputs": [
        {
          "internalType": "address",
          "name": "operator",
          "type": "address"
        },
        {
          "internalType": "address",
          "name": "from",
          "type": "address"
        },
        {
          "internalType": "uint256",
          "name": "tokenId",
          "type": "uint256"
        },
        {
          "internalType": "uint256",
          "name": "value",
          "type": "uint256"
        },
        {
          "internalType": "bytes",
          "name": "",
          "type": "bytes"
        }
      ],
      "name": "onERC1155Received",
      "outputs": [
        {
          "internalType": "bytes4",
          "name": "",
          "type": "bytes4"
        }
      ],
      "stateMutability": "nonpayable",
      "type": "function"
    },
    {
      "inputs": [
        {
          "internalType": "address",
          "name": "operator",
          "type": "address"
        },
        {
          "internalType": "address",
          "name": "from",
          "type": "address"
        },
        {
          "internalType": "uint256",
          "name": "tokenId",
          "type": "uint256"
        },
        {
          "internalType": "bytes",
          "name": "",
          "type": "bytes"
        }
      ],
      "name": "onERC721Received",
      "outputs": [
        {
          "internalType": "bytes4",
          "name": "",
          "type": "bytes4"
        }
      ],
      "stateMutability": "nonpayable",
      "type": "function"
    },
    {
      "inputs": [],
      "name": "poolOwner",
      "outputs": [
        {
          "internalType": "address",
          "name": "",
          "type": "address"
        }
      ],
      "stateMutability": "view",
      "type": "function"
    },
    {
      "inputs": [
        {
          "internalType": "uint256[]",
          "name": "_tokenIds",
          "type": "uint256[]"
        }
      ],
      "name": "removeBackedValues",
      "outputs": [],
      "stateMutability": "nonpayable",
      "type": "function"
    },
    {
      "inputs": [
        {
          "internalType": "uint256",
          "name": "",
          "type": "uint256"
        }
      ],
      "name": "rewards",
      "outputs": [
        {
          "internalType": "address",
          "name": "tokenContract",
          "type": "address"
        },
        {
          "internalType": "uint256",
          "name": "rewardRate",
          "type": "uint256"
        },
        {
          "internalType": "uint256",
          "name": "rewardFrequency",
          "type": "uint256"
        },
        {
          "internalType": "enum XDSea721Staking.RewardType",
          "name": "rewardType",
          "type": "uint8"
        }
      ],
      "stateMutability": "view",
      "type": "function"
    },
    {
      "inputs": [
        {
          "internalType": "address[]",
          "name": "_tokenAddresses",
          "type": "address[]"
        },
        {
          "internalType": "uint256[]",
          "name": "_rewardRates",
          "type": "uint256[]"
        },
        {
          "internalType": "uint256[]",
          "name": "_rewardFrequencies",
          "type": "uint256[]"
        },
        {
          "internalType": "uint256[]",
          "name": "_rewardTypes",
          "type": "uint256[]"
        }
      ],
      "name": "setRewards",
      "outputs": [],
      "stateMutability": "nonpayable",
      "type": "function"
    },
    {
      "inputs": [
        {
          "internalType": "uint256",
          "name": "_tokenId",
          "type": "uint256"
        }
      ],
      "name": "stake",
      "outputs": [],
      "stateMutability": "nonpayable",
      "type": "function"
    },
    {
      "inputs": [
        {
          "internalType": "uint256",
          "name": "",
          "type": "uint256"
        }
      ],
      "name": "stakedNFTs",
      "outputs": [
        {
          "internalType": "bool",
          "name": "isEligible",
          "type": "bool"
        },
        {
          "internalType": "uint256",
          "name": "backedValue",
          "type": "uint256"
        },
        {
          "internalType": "address",
          "name": "stakerAddress",
          "type": "address"
        },
        {
          "internalType": "uint256",
          "name": "timeOfStake",
          "type": "uint256"
        },
        {
          "internalType": "uint256",
          "name": "timeOfLastClaim",
          "type": "uint256"
        }
      ],
      "stateMutability": "view",
      "type": "function"
    },
    {
      "inputs": [
        {
          "internalType": "bytes4",
          "name": "interfaceID",
          "type": "bytes4"
        }
      ],
      "name": "supportsInterface",
      "outputs": [
        {
          "internalType": "bool",
          "name": "",
          "type": "bool"
        }
      ],
      "stateMutability": "pure",
      "type": "function"
    },
    {
      "inputs": [],
      "name": "timeOfPoolInitialization",
      "outputs": [
        {
          "internalType": "uint256",
          "name": "",
          "type": "uint256"
        }
      ],
      "stateMutability": "view",
      "type": "function"
    },
    {
      "inputs": [
        {
          "internalType": "uint256[]",
          "name": "_tokenIds",
          "type": "uint256[]"
        },
        {
          "internalType": "uint256[]",
          "name": "_backedValues",
          "type": "uint256[]"
        }
      ],
      "name": "updateBackedValues",
      "outputs": [],
      "stateMutability": "nonpayable",
      "type": "function"
    },
    {
      "inputs": [
        {
          "internalType": "uint256[]",
          "name": "_tokenIds",
          "type": "uint256[]"
        },
        {
          "internalType": "bool[]",
          "name": "_eligibility",
          "type": "bool[]"
        }
      ],
      "name": "updateEligibility",
      "outputs": [],
      "stateMutability": "nonpayable",
      "type": "function"
    },
    {
      "inputs": [
        {
          "internalType": "uint256",
          "name": "_lockInPeriod",
          "type": "uint256"
        }
      ],
      "name": "updateLockInPeriod",
      "outputs": [],
      "stateMutability": "nonpayable",
      "type": "function"
    },
    {
      "inputs": [
        {
          "internalType": "address",
          "name": "_poolOwner",
          "type": "address"
        }
      ],
      "name": "updatePoolOwner",
      "outputs": [],
      "stateMutability": "nonpayable",
      "type": "function"
    },
    {
      "inputs": [
        {
          "internalType": "uint256",
          "name": "_timeOfPoolInitialization",
          "type": "uint256"
        }
      ],
      "name": "updateTimeOfPoolInitialization",
      "outputs": [],
      "stateMutability": "nonpayable",
      "type": "function"
    },
    {
      "inputs": [
        {
          "internalType": "uint256",
          "name": "_tokenId",
          "type": "uint256"
        }
      ],
      "name": "withdraw",
      "outputs": [],
      "stateMutability": "nonpayable",
      "type": "function"
    },
    {
      "stateMutability": "payable",
      "type": "receive"
    }
  ],
  "bytecode": "0x60a06040527343174a2cf9b214d9036ed73efb7e36395fb86344600160006101000a81548173ffffffffffffffffffffffffffffffffffffffff021916908373ffffffffffffffffffffffffffffffffffffffff1602179055503480156200006657600080fd5b50604051620052503803806200525083398181016040528101906200008c9190620004d1565b600160008190555033600260006101000a81548173ffffffffffffffffffffffffffffffffffffffff021916908373ffffffffffffffffffffffffffffffffffffffff1602179055508473ffffffffffffffffffffffffffffffffffffffff1660808173ffffffffffffffffffffffffffffffffffffffff16815250506200011a84620001b860201b60201c565b60008351146200019f5782518451146200017157835183516040517fab8b67c600000000000000000000000000000000000000000000000000000000815260040162000168929190620005a8565b60405180910390fd5b6200018384846200022b60201b60201c565b6001600460006101000a81548160ff0219169083151502179055505b8160038190555080600781905550505050505062000680565b60005b81518110156200022757600160056000848481518110620001e157620001e0620005d5565b5b6020026020010151815260200190815260200160002060000160006101000a81548160ff02191690831515021790555080806200021e9062000633565b915050620001bb565b5050565b60005b8251811015620002a3578181815181106200024e576200024d620005d5565b5b60200260200101516005600085848151811062000270576200026f620005d5565b5b602002602001015181526020019081526020016000206001018190555080806200029a9062000633565b9150506200022e565b505050565b6000604051905090565b600080fd5b600080fd5b600073ffffffffffffffffffffffffffffffffffffffff82169050919050565b6000620002e982620002bc565b9050919050565b620002fb81620002dc565b81146200030757600080fd5b50565b6000815190506200031b81620002f0565b92915050565b600080fd5b6000601f19601f8301169050919050565b7f4e487b7100000000000000000000000000000000000000000000000000000000600052604160045260246000fd5b620003718262000326565b810181811067ffffffffffffffff8211171562000393576200039262000337565b5b80604052505050565b6000620003a8620002a8565b9050620003b6828262000366565b919050565b600067ffffffffffffffff821115620003d957620003d862000337565b5b602082029050602081019050919050565b600080fd5b6000819050919050565b6200040481620003ef565b81146200041057600080fd5b50565b6000815190506200042481620003f9565b92915050565b6000620004416200043b84620003bb565b6200039c565b90508083825260208201905060208402830185811115620004675762000466620003ea565b5b835b818110156200049457806200047f888262000413565b84526020840193505060208101905062000469565b5050509392505050565b600082601f830112620004b657620004b562000321565b5b8151620004c88482602086016200042a565b91505092915050565b600080600080600060a08688031215620004f057620004ef620002b2565b5b600062000500888289016200030a565b955050602086015167ffffffffffffffff811115620005245762000523620002b7565b5b62000532888289016200049e565b945050604086015167ffffffffffffffff811115620005565762000555620002b7565b5b62000564888289016200049e565b9350506060620005778882890162000413565b92505060806200058a8882890162000413565b9150509295509295909350565b620005a281620003ef565b82525050565b6000604082019050620005bf600083018562000597565b620005ce602083018462000597565b9392505050565b7f4e487b7100000000000000000000000000000000000000000000000000000000600052603260045260246000fd5b7f4e487b7100000000000000000000000000000000000000000000000000000000600052601160045260246000fd5b60006200064082620003ef565b91507fffffffffffffffffffffffffffffffffffffffffffffffffffffffffffffffff820362000675576200067462000604565b5b600182019050919050565b608051614b98620006b8600039600081816119a8015281816122380152818161250d015281816125c201526126ff0152614b986000f3fe6080604052600436106101dc5760003560e01c8063963e58e911610102578063d3f3315a11610095578063f23a6e6111610064578063f23a6e611461081f578063f301af421461085c578063f785de231461089c578063fbfd7fac146108b8576102ff565b8063d3f3315a14610763578063daa17f491461078c578063e8dcecc8146107b7578063f02a5613146107e2576102ff565b8063bc197c81116100d1578063bc197c8114610695578063cf0b2270146106d2578063cfe8ad4c146106fd578063d3ea435014610726576102ff565b8063963e58e9146105b1578063a694fc3a146105ee578063a69c253714610617578063b865749d14610654576102ff565b80632eaed0cc1161017a57806366a7f11b1161014957806366a7f11b146104f5578063722713f7146105205780637b39fed61461054b5780637f38d1d214610588576102ff565b80632eaed0cc1461044f578063310312d31461047857806336af1204146104a15780636588103b146104ca576102ff565b8063150b7a02116101b6578063150b7a021461039557806329a5e748146103d25780632aeaa291146103fb5780632e1a7d4d14610426576102ff565b806301ffc9a71461030457806305377188146103415780630962ef791461036c576102ff565b366102ff57600260009054906101000a900473ffffffffffffffffffffffffffffffffffffffff1673ffffffffffffffffffffffffffffffffffffffff163373ffffffffffffffffffffffffffffffffffffffff161461029757600260009054906101000a900473ffffffffffffffffffffffffffffffffffffffff16336040517f15a39f3500000000000000000000000000000000000000000000000000000000815260040161028e92919061379f565b60405180910390fd5b600073ffffffffffffffffffffffffffffffffffffffff163373ffffffffffffffffffffffffffffffffffffffff167f7be377fc58fe5de9bdbdbb0bc41cba05cf72996fbddb2a421c0c52e405105d8c346040516102f591906137e1565b60405180910390a3005b600080fd5b34801561031057600080fd5b5061032b60048036038101906103269190613868565b6108e1565b60405161033891906138b0565b60405180910390f35b34801561034d57600080fd5b50610356610973565b60405161036391906137e1565b60405180910390f35b34801561037857600080fd5b50610393600480360381019061038e91906138f7565b610979565b005b3480156103a157600080fd5b506103bc60048036038101906103b79190613a96565b6115bb565b6040516103c99190613b28565b60405180910390f35b3480156103de57600080fd5b506103f960048036038101906103f491906138f7565b61162a565b005b34801561040757600080fd5b506104106116ea565b60405161041d9190613cdc565b60405180910390f35b34801561043257600080fd5b5061044d600480360381019061044891906138f7565b6117ee565b005b34801561045b57600080fd5b5061047660048036038101906104719190613dc6565b611ab2565b005b34801561048457600080fd5b5061049f600480360381019061049a91906138f7565b611c22565b005b3480156104ad57600080fd5b506104c860048036038101906104c39190613ed2565b611ce2565b005b3480156104d657600080fd5b506104df612236565b6040516104ec9190613fa9565b60405180910390f35b34801561050157600080fd5b5061050a61225a565b60405161051791906137e1565b60405180910390f35b34801561052c57600080fd5b50610535612260565b60405161054291906137e1565b60405180910390f35b34801561055757600080fd5b50610572600480360381019061056d91906138f7565b61231e565b60405161057f91906138b0565b60405180910390f35b34801561059457600080fd5b506105af60048036038101906105aa91906140b3565b61234b565b005b3480156105bd57600080fd5b506105d860048036038101906105d391906138f7565b612487565b6040516105e591906137e1565b60405180910390f35b3480156105fa57600080fd5b50610615600480360381019061061091906138f7565b6124a7565b005b34801561062357600080fd5b5061063e600480360381019061063991906138f7565b612843565b60405161064b9190613fa9565b60405180910390f35b34801561066057600080fd5b5061067b600480360381019061067691906138f7565b612883565b60405161068c95949392919061412b565b60405180910390f35b3480156106a157600080fd5b506106bc60048036038101906106b7919061417e565b6128e6565b6040516106c99190613b28565b60405180910390f35b3480156106de57600080fd5b506106e7612962565b6040516106f49190613fa9565b60405180910390f35b34801561070957600080fd5b50610724600480360381019061071f919061424d565b612988565b005b34801561073257600080fd5b5061074d600480360381019061074891906138f7565b612a82565b60405161075a9190614329565b60405180910390f35b34801561076f57600080fd5b5061078a6004803603810190610785919061434b565b612cc0565b005b34801561079857600080fd5b506107a1612e79565b6040516107ae9190613fa9565b60405180910390f35b3480156107c357600080fd5b506107cc612e9f565b6040516107d991906138b0565b60405180910390f35b3480156107ee57600080fd5b50610809600480360381019061080491906138f7565b612eb2565b60405161081691906137e1565b60405180910390f35b34801561082b57600080fd5b50610846600480360381019061084191906143c3565b612ed2565b6040516108539190613b28565b60405180910390f35b34801561086857600080fd5b50610883600480360381019061087e91906138f7565b612f4d565b6040516108939493929190614469565b60405180910390f35b6108b660048036038101906108b191906144ae565b612fba565b005b3480156108c457600080fd5b506108df60048036038101906108da919061434b565b6131ec565b005b60006301ffc9a760e01b827bffffffffffffffffffffffffffffffffffffffffffffffffffffffff1916148061093c575063150b7a0260e01b827bffffffffffffffffffffffffffffffffffffffffffffffffffffffff1916145b8061096c5750634e2312e060e01b827bffffffffffffffffffffffffffffffffffffffffffffffffffffffff1916145b9050919050565b60035481565b6002600054036109be576040517f08c379a00000000000000000000000000000000000000000000000000000000081526004016109b59061454b565b60405180910390fd5b60026000819055506000600560008381526020019081526020016000206004015403610a2157806040517f735b1d42000000000000000000000000000000000000000000000000000000008152600401610a1891906137e1565b60405180910390fd5b6005600082815260200190815260200160002060020160009054906101000a900473ffffffffffffffffffffffffffffffffffffffff1673ffffffffffffffffffffffffffffffffffffffff163373ffffffffffffffffffffffffffffffffffffffff1614610aff576005600082815260200190815260200160002060020160009054906101000a900473ffffffffffffffffffffffffffffffffffffffff16336040517f23295f0e000000000000000000000000000000000000000000000000000000008152600401610af692919061379f565b60405180910390fd5b6000600560008381526020019081526020016000206004015442610b23919061459a565b905060005b60068054905081101561159357600060068281548110610b4b57610b4a6145ce565b5b90600052602060002090600402016002015483610b68919061462c565b9050600460009054906101000a900460ff161561109b576000610bf1670de0b6b3a76400006005600088815260200190815260200160002060010154610bae919061462c565b60068581548110610bc257610bc16145ce565b5b906000526020600020906004020160010154610bde919061465d565b83610be9919061465d565b6127106133a6565b905060006001811115610c0757610c06613b8d565b5b60068481548110610c1b57610c1a6145ce565b5b906000526020600020906004020160030160009054906101000a900460ff166001811115610c4c57610c4b613b8d565b5b03610d8e57610c68610c60826127746133bc565b6127106133a6565b471015610cc45747610c87610c7f836127746133bc565b6127106133a6565b6040517f8f0f4206000000000000000000000000000000000000000000000000000000008152600401610cbb9291906146b7565b60405180910390fd5b600160009054906101000a900473ffffffffffffffffffffffffffffffffffffffff1673ffffffffffffffffffffffffffffffffffffffff166108fc610d16610d0e8460646133bc565b6127106133a6565b9081150290604051600060405180830381858888f19350505050158015610d41573d6000803e3d6000fd5b503373ffffffffffffffffffffffffffffffffffffffff166108fc829081150290604051600060405180830381858888f19350505050158015610d88573d6000803e3d6000fd5b50611095565b610da5610d9d826127746133bc565b6127106133a6565b60068481548110610db957610db86145ce565b5b906000526020600020906004020160000160009054906101000a900473ffffffffffffffffffffffffffffffffffffffff1673ffffffffffffffffffffffffffffffffffffffff166370a08231306040518263ffffffff1660e01b8152600401610e239190613fa9565b602060405180830381865afa158015610e40573d6000803e3d6000fd5b505050506040513d601f19601f82011682018060405250810190610e6491906146f5565b1015610f7d5760068381548110610e7e57610e7d6145ce565b5b906000526020600020906004020160000160009054906101000a900473ffffffffffffffffffffffffffffffffffffffff1673ffffffffffffffffffffffffffffffffffffffff166370a08231306040518263ffffffff1660e01b8152600401610ee89190613fa9565b602060405180830381865afa158015610f05573d6000803e3d6000fd5b505050506040513d601f19601f82011682018060405250810190610f2991906146f5565b610f40610f38836127746133bc565b6127106133a6565b6040517f8f0f4206000000000000000000000000000000000000000000000000000000008152600401610f749291906146b7565b60405180910390fd5b611024600160009054906101000a900473ffffffffffffffffffffffffffffffffffffffff16610fb9610fb18460646133bc565b6127106133a6565b60068681548110610fcd57610fcc6145ce565b5b906000526020600020906004020160000160009054906101000a900473ffffffffffffffffffffffffffffffffffffffff1673ffffffffffffffffffffffffffffffffffffffff166133d29092919063ffffffff16565b61109433826006868154811061103d5761103c6145ce565b5b906000526020600020906004020160000160009054906101000a900473ffffffffffffffffffffffffffffffffffffffff1673ffffffffffffffffffffffffffffffffffffffff166133d29092919063ffffffff16565b5b5061157f565b60006110d9600684815481106110b4576110b36145ce565b5b906000526020600020906004020160010154836110d1919061465d565b6127106133a6565b9050600060018111156110ef576110ee613b8d565b5b60068481548110611103576111026145ce565b5b906000526020600020906004020160030160009054906101000a900460ff16600181111561113457611133613b8d565b5b0361127657611150611148826127746133bc565b6127106133a6565b4710156111ac574761116f611167836127746133bc565b6127106133a6565b6040517f8f0f42060000000000000000000000000000000000000000000000000000000081526004016111a39291906146b7565b60405180910390fd5b600160009054906101000a900473ffffffffffffffffffffffffffffffffffffffff1673ffffffffffffffffffffffffffffffffffffffff166108fc6111fe6111f68460646133bc565b6127106133a6565b9081150290604051600060405180830381858888f19350505050158015611229573d6000803e3d6000fd5b503373ffffffffffffffffffffffffffffffffffffffff166108fc829081150290604051600060405180830381858888f19350505050158015611270573d6000803e3d6000fd5b5061157d565b61128d611285826127746133bc565b6127106133a6565b600684815481106112a1576112a06145ce565b5b906000526020600020906004020160000160009054906101000a900473ffffffffffffffffffffffffffffffffffffffff1673ffffffffffffffffffffffffffffffffffffffff166370a08231306040518263ffffffff1660e01b815260040161130b9190613fa9565b602060405180830381865afa158015611328573d6000803e3d6000fd5b505050506040513d601f19601f8201168201806040525081019061134c91906146f5565b10156114655760068381548110611366576113656145ce565b5b906000526020600020906004020160000160009054906101000a900473ffffffffffffffffffffffffffffffffffffffff1673ffffffffffffffffffffffffffffffffffffffff166370a08231306040518263ffffffff1660e01b81526004016113d09190613fa9565b602060405180830381865afa1580156113ed573d6000803e3d6000fd5b505050506040513d601f19601f8201168201806040525081019061141191906146f5565b611428611420836127746133bc565b6127106133a6565b6040517f8f0f420600000000000000000000000000000000000000000000000000000000815260040161145c9291906146b7565b60405180910390fd5b61150c600160009054906101000a900473ffffffffffffffffffffffffffffffffffffffff166114a16114998460646133bc565b6127106133a6565b600686815481106114b5576114b46145ce565b5b906000526020600020906004020160000160009054906101000a900473ffffffffffffffffffffffffffffffffffffffff1673ffffffffffffffffffffffffffffffffffffffff166133d29092919063ffffffff16565b61157c338260068681548110611525576115246145ce565b5b906000526020600020906004020160000160009054906101000a900473ffffffffffffffffffffffffffffffffffffffff1673ffffffffffffffffffffffffffffffffffffffff166133d29092919063ffffffff16565b5b505b50808061158b90614722565b915050610b28565b5042600560008481526020019081526020016000206004018190555050600160008190555050565b6000828473ffffffffffffffffffffffffffffffffffffffff168673ffffffffffffffffffffffffffffffffffffffff167f73d4ce89f05f99f34390b94c04963af5d50e8948e93a3756fbc1769377a975ce60405160405180910390a463150b7a0260e01b9050949350505050565b600260009054906101000a900473ffffffffffffffffffffffffffffffffffffffff1673ffffffffffffffffffffffffffffffffffffffff163373ffffffffffffffffffffffffffffffffffffffff16146116e057600260009054906101000a900473ffffffffffffffffffffffffffffffffffffffff16336040517f15a39f350000000000000000000000000000000000000000000000000000000081526004016116d792919061379f565b60405180910390fd5b8060078190555050565b60606006805480602002602001604051908101604052809291908181526020016000905b828210156117e557838290600052602060002090600402016040518060800160405290816000820160009054906101000a900473ffffffffffffffffffffffffffffffffffffffff1673ffffffffffffffffffffffffffffffffffffffff1673ffffffffffffffffffffffffffffffffffffffff16815260200160018201548152602001600282015481526020016003820160009054906101000a900460ff1660018111156117c0576117bf613b8d565b5b60018111156117d2576117d1613b8d565b5b815250508152602001906001019061170e565b50505050905090565b600260005403611833576040517f08c379a000000000000000000000000000000000000000000000000000000000815260040161182a9061454b565b60405180910390fd5b60026000819055503373ffffffffffffffffffffffffffffffffffffffff166005600083815260200190815260200160002060020160009054906101000a900473ffffffffffffffffffffffffffffffffffffffff1673ffffffffffffffffffffffffffffffffffffffff1614611919576005600082815260200190815260200160002060020160009054906101000a900473ffffffffffffffffffffffffffffffffffffffff16336040517f23295f0e00000000000000000000000000000000000000000000000000000000815260040161191092919061379f565b60405180910390fd5b42600354600560008481526020019081526020016000206003015461193e919061476a565b11156119a6576003546005600083815260200190815260200160002060030154611968919061476a565b426040517f3237378600000000000000000000000000000000000000000000000000000000815260040161199d9291906146b7565b60405180910390fd5b7f000000000000000000000000000000000000000000000000000000000000000073ffffffffffffffffffffffffffffffffffffffff166342842e0e3033846040518463ffffffff1660e01b8152600401611a03939291906147c0565b600060405180830381600087803b158015611a1d57600080fd5b505af1158015611a31573d6000803e3d6000fd5b5050505060006005600083815260200190815260200160002060020160006101000a81548173ffffffffffffffffffffffffffffffffffffffff021916908373ffffffffffffffffffffffffffffffffffffffff16021790555060006005600083815260200190815260200160002060030181905550600160008190555050565b600260009054906101000a900473ffffffffffffffffffffffffffffffffffffffff1673ffffffffffffffffffffffffffffffffffffffff163373ffffffffffffffffffffffffffffffffffffffff1614611b6857600260009054906101000a900473ffffffffffffffffffffffffffffffffffffffff16336040517f15a39f35000000000000000000000000000000000000000000000000000000008152600401611b5f92919061379f565b60405180910390fd5b600460009054906101000a900460ff16611bae576040517f4c9488d900000000000000000000000000000000000000000000000000000000815260040160405180910390fd5b6000600460006101000a81548160ff02191690831515021790555060005b8151811015611c1e57600060056000848481518110611bee57611bed6145ce565b5b60200260200101518152602001908152602001600020600101819055508080611c1690614722565b915050611bcc565b5050565b600260009054906101000a900473ffffffffffffffffffffffffffffffffffffffff1673ffffffffffffffffffffffffffffffffffffffff163373ffffffffffffffffffffffffffffffffffffffff1614611cd857600260009054906101000a900473ffffffffffffffffffffffffffffffffffffffff16336040517f15a39f35000000000000000000000000000000000000000000000000000000008152600401611ccf92919061379f565b60405180910390fd5b8060038190555050565b600260009054906101000a900473ffffffffffffffffffffffffffffffffffffffff1673ffffffffffffffffffffffffffffffffffffffff163373ffffffffffffffffffffffffffffffffffffffff1614611d9857600260009054906101000a900473ffffffffffffffffffffffffffffffffffffffff16336040517f15a39f35000000000000000000000000000000000000000000000000000000008152600401611d8f92919061379f565b60405180910390fd5b8251845114611de257835183516040517fab8b67c6000000000000000000000000000000000000000000000000000000008152600401611dd99291906146b7565b60405180910390fd5b8151845114611e2c57835182516040517fab8b67c6000000000000000000000000000000000000000000000000000000008152600401611e239291906146b7565b60405180910390fd5b8151835114611e7657825182516040517fab8b67c6000000000000000000000000000000000000000000000000000000008152600401611e6d9291906146b7565b60405180910390fd5b8051845114611ec057835181516040517fab8b67c6000000000000000000000000000000000000000000000000000000008152600401611eb79291906146b7565b60405180910390fd5b8051835114611f0a57825181516040517fab8b67c6000000000000000000000000000000000000000000000000000000008152600401611f019291906146b7565b60405180910390fd5b8051825114611f5457815181516040517fab8b67c6000000000000000000000000000000000000000000000000000000008152600401611f4b9291906146b7565b60405180910390fd5b60005b845181101561222f57600080838381518110611f7657611f756145ce565b5b60200260200101510361203157600073ffffffffffffffffffffffffffffffffffffffff16868381518110611fae57611fad6145ce565b5b602002602001015173ffffffffffffffffffffffffffffffffffffffff161461202857858281518110611fe457611fe36145ce565b5b60200260200101516040517fdaf08c1c00000000000000000000000000000000000000000000000000000000815260040161201f9190613fa9565b60405180910390fd5b600090506120c6565b6000868381518110612046576120456145ce565b5b602002602001015190508073ffffffffffffffffffffffffffffffffffffffff166318160ddd6040518163ffffffff1660e01b8152600401602060405180830381865afa15801561209b573d6000803e3d6000fd5b505050506040513d601f19601f820116820180604052508101906120bf91906146f5565b5060019150505b600060405180608001604052808885815181106120e6576120e56145ce565b5b602002602001015173ffffffffffffffffffffffffffffffffffffffff16815260200187858151811061211c5761211b6145ce565b5b6020026020010151815260200186858151811061213c5761213b6145ce565b5b6020026020010151815260200183600181111561215c5761215b613b8d565b5b8152509050600681908060018154018082558091505060019003906000526020600020906004020160009091909190915060008201518160000160006101000a81548173ffffffffffffffffffffffffffffffffffffffff021916908373ffffffffffffffffffffffffffffffffffffffff160217905550602082015181600101556040820151816002015560608201518160030160006101000a81548160ff0219169083600181111561221357612212613b8d565b5b021790555050505050808061222790614722565b915050611f57565b5050505050565b7f000000000000000000000000000000000000000000000000000000000000000081565b60075481565b6000600260009054906101000a900473ffffffffffffffffffffffffffffffffffffffff1673ffffffffffffffffffffffffffffffffffffffff163373ffffffffffffffffffffffffffffffffffffffff161461231857600260009054906101000a900473ffffffffffffffffffffffffffffffffffffffff16336040517f15a39f3500000000000000000000000000000000000000000000000000000000815260040161230f92919061379f565b60405180910390fd5b47905090565b60006005600083815260200190815260200160002060000160009054906101000a900460ff169050919050565b600260009054906101000a900473ffffffffffffffffffffffffffffffffffffffff1673ffffffffffffffffffffffffffffffffffffffff163373ffffffffffffffffffffffffffffffffffffffff161461240157600260009054906101000a900473ffffffffffffffffffffffffffffffffffffffff16336040517f15a39f350000000000000000000000000000000000000000000000000000000081526004016123f892919061379f565b60405180910390fd5b60005b8251811015612482578181815181106124205761241f6145ce565b5b60200260200101516005600085848151811061243f5761243e6145ce565b5b6020026020010151815260200190815260200160002060000160006101000a81548160ff021916908315150217905550808061247a90614722565b915050612404565b505050565b600060056000838152602001908152602001600020600101549050919050565b6002600054036124ec576040517f08c379a00000000000000000000000000000000000000000000000000000000081526004016124e39061454b565b60405180910390fd5b60026000819055503373ffffffffffffffffffffffffffffffffffffffff167f000000000000000000000000000000000000000000000000000000000000000073ffffffffffffffffffffffffffffffffffffffff16636352211e836040518263ffffffff1660e01b815260040161256491906137e1565b602060405180830381865afa158015612581573d6000803e3d6000fd5b505050506040513d601f19601f820116820180604052508101906125a5919061480c565b73ffffffffffffffffffffffffffffffffffffffff1614612698577f000000000000000000000000000000000000000000000000000000000000000073ffffffffffffffffffffffffffffffffffffffff16636352211e826040518263ffffffff1660e01b815260040161261991906137e1565b602060405180830381865afa158015612636573d6000803e3d6000fd5b505050506040513d601f19601f8201168201806040525081019061265a919061480c565b336040517f23295f0e00000000000000000000000000000000000000000000000000000000815260040161268f92919061379f565b60405180910390fd5b6005600082815260200190815260200160002060000160009054906101000a900460ff166126fd57806040517fcfa6511b0000000000000000000000000000000000000000000000000000000081526004016126f491906137e1565b60405180910390fd5b7f000000000000000000000000000000000000000000000000000000000000000073ffffffffffffffffffffffffffffffffffffffff166342842e0e3330846040518463ffffffff1660e01b815260040161275a939291906147c0565b600060405180830381600087803b15801561277457600080fd5b505af1158015612788573d6000803e3d6000fd5b50505050336005600083815260200190815260200160002060020160006101000a81548173ffffffffffffffffffffffffffffffffffffffff021916908373ffffffffffffffffffffffffffffffffffffffff16021790555042600560008381526020019081526020016000206003018190555060006005600083815260200190815260200160002060040154036128385760075460056000838152602001908152602001600020600401819055505b600160008190555050565b60006005600083815260200190815260200160002060020160009054906101000a900473ffffffffffffffffffffffffffffffffffffffff169050919050565b60056020528060005260406000206000915090508060000160009054906101000a900460ff16908060010154908060020160009054906101000a900473ffffffffffffffffffffffffffffffffffffffff16908060030154908060040154905085565b60008473ffffffffffffffffffffffffffffffffffffffff168673ffffffffffffffffffffffffffffffffffffffff167f9b09a98d4f66ca67c7bcc8db7b2f69356715ecbfe955feb24e615d70143b15e78686604051612947929190614839565b60405180910390a363bc197c8160e01b905095945050505050565b600260009054906101000a900473ffffffffffffffffffffffffffffffffffffffff1681565b600260009054906101000a900473ffffffffffffffffffffffffffffffffffffffff1673ffffffffffffffffffffffffffffffffffffffff163373ffffffffffffffffffffffffffffffffffffffff1614612a3e57600260009054906101000a900473ffffffffffffffffffffffffffffffffffffffff16336040517f15a39f35000000000000000000000000000000000000000000000000000000008152600401612a3592919061379f565b60405180910390fd5b80600260006101000a81548173ffffffffffffffffffffffffffffffffffffffff021916908373ffffffffffffffffffffffffffffffffffffffff16021790555050565b60606000600560008481526020019081526020016000206004015403612adf57816040517f735b1d42000000000000000000000000000000000000000000000000000000008152600401612ad691906137e1565b60405180910390fd5b6000600560008481526020019081526020016000206004015442612b03919061459a565b9050600060068054905067ffffffffffffffff811115612b2657612b2561396b565b5b604051908082528060200260200182016040528015612b545781602001602082028036833780820191505090505b50905060005b600680549050811015612cb557600060068281548110612b7d57612b7c6145ce565b5b90600052602060002090600402016002015484612b9a919061462c565b9050600460009054906101000a900460ff1615612c4557612c21670de0b6b3a76400006005600089815260200190815260200160002060010154612bde919061462c565b60068481548110612bf257612bf16145ce565b5b906000526020600020906004020160010154612c0e919061465d565b82612c19919061465d565b6127106133a6565b838381518110612c3457612c336145ce565b5b602002602001018181525050612ca1565b612c8160068381548110612c5c57612c5b6145ce565b5b90600052602060002090600402016001015482612c79919061465d565b6127106133a6565b838381518110612c9457612c936145ce565b5b6020026020010181815250505b508080612cad90614722565b915050612b5a565b508092505050919050565b600260009054906101000a900473ffffffffffffffffffffffffffffffffffffffff1673ffffffffffffffffffffffffffffffffffffffff163373ffffffffffffffffffffffffffffffffffffffff1614612d7657600260009054906101000a900473ffffffffffffffffffffffffffffffffffffffff16336040517f15a39f35000000000000000000000000000000000000000000000000000000008152600401612d6d92919061379f565b60405180910390fd5b600460009054906101000a900460ff16612dbc576040517f4c9488d900000000000000000000000000000000000000000000000000000000815260040160405180910390fd5b8051825114612e0657815181516040517fab8b67c6000000000000000000000000000000000000000000000000000000008152600401612dfd9291906146b7565b60405180910390fd5b60005b8251811015612e7457818181518110612e2557612e246145ce565b5b602002602001015160056000858481518110612e4457612e436145ce565b5b60200260200101518152602001908152602001600020600101819055508080612e6c90614722565b915050612e09565b505050565b600160009054906101000a900473ffffffffffffffffffffffffffffffffffffffff1681565b600460009054906101000a900460ff1681565b600060056000838152602001908152602001600020600301549050919050565b6000838573ffffffffffffffffffffffffffffffffffffffff168773ffffffffffffffffffffffffffffffffffffffff167f6069b25ab451e7002a7a7c352e9cdda52578e7a6d54071402810ff8aee99e78e86604051612f3291906137e1565b60405180910390a463f23a6e6160e01b905095945050505050565b60068181548110612f5d57600080fd5b90600052602060002090600402016000915090508060000160009054906101000a900473ffffffffffffffffffffffffffffffffffffffff16908060010154908060020154908060030160009054906101000a900460ff16905084565b600260009054906101000a900473ffffffffffffffffffffffffffffffffffffffff1673ffffffffffffffffffffffffffffffffffffffff163373ffffffffffffffffffffffffffffffffffffffff161461307057600260009054906101000a900473ffffffffffffffffffffffffffffffffffffffff16336040517f15a39f3500000000000000000000000000000000000000000000000000000000815260040161306792919061379f565b60405180910390fd5b600073ffffffffffffffffffffffffffffffffffffffff168173ffffffffffffffffffffffffffffffffffffffff1603613155578134146130ea5734826040517f8f0f42060000000000000000000000000000000000000000000000000000000081526004016130e19291906146b7565b60405180910390fd5b600073ffffffffffffffffffffffffffffffffffffffff163373ffffffffffffffffffffffffffffffffffffffff167f7be377fc58fe5de9bdbdbb0bc41cba05cf72996fbddb2a421c0c52e405105d8c3460405161314891906137e1565b60405180910390a36131e8565b6131823330848473ffffffffffffffffffffffffffffffffffffffff16613458909392919063ffffffff16565b8073ffffffffffffffffffffffffffffffffffffffff163373ffffffffffffffffffffffffffffffffffffffff167f7be377fc58fe5de9bdbdbb0bc41cba05cf72996fbddb2a421c0c52e405105d8c846040516131df91906137e1565b60405180910390a35b5050565b600260009054906101000a900473ffffffffffffffffffffffffffffffffffffffff1673ffffffffffffffffffffffffffffffffffffffff163373ffffffffffffffffffffffffffffffffffffffff16146132a257600260009054906101000a900473ffffffffffffffffffffffffffffffffffffffff16336040517f15a39f3500000000000000000000000000000000000000000000000000000000815260040161329992919061379f565b60405180910390fd5b600460009054906101000a900460ff16156132e9576040517fa4eebd4700000000000000000000000000000000000000000000000000000000815260040160405180910390fd5b805182511461333357815181516040517fab8b67c600000000000000000000000000000000000000000000000000000000815260040161332a9291906146b7565b60405180910390fd5b60005b82518110156133a157818181518110613352576133516145ce565b5b602002602001015160056000858481518110613371576133706145ce565b5b6020026020010151815260200190815260200160002060010181905550808061339990614722565b915050613336565b505050565b600081836133b4919061462c565b905092915050565b600081836133ca919061465d565b905092915050565b6134538363a9059cbb60e01b84846040516024016133f1929190614870565b604051602081830303815290604052907bffffffffffffffffffffffffffffffffffffffffffffffffffffffff19166020820180517bffffffffffffffffffffffffffffffffffffffffffffffffffffffff83818316178352505050506134e1565b505050565b6134db846323b872dd60e01b858585604051602401613479939291906147c0565b604051602081830303815290604052907bffffffffffffffffffffffffffffffffffffffffffffffffffffffff19166020820180517bffffffffffffffffffffffffffffffffffffffffffffffffffffffff83818316178352505050506134e1565b50505050565b6000613543826040518060400160405280602081526020017f5361666545524332303a206c6f772d6c6576656c2063616c6c206661696c65648152508573ffffffffffffffffffffffffffffffffffffffff166135a89092919063ffffffff16565b90506000815111156135a3578080602001905181019061356391906148ae565b6135a2576040517f08c379a00000000000000000000000000000000000000000000000000000000081526004016135999061494d565b60405180910390fd5b5b505050565b60606135b784846000856135c0565b90509392505050565b606082471015613605576040517f08c379a00000000000000000000000000000000000000000000000000000000081526004016135fc906149df565b60405180910390fd5b61360e856136d4565b61364d576040517f08c379a000000000000000000000000000000000000000000000000000000000815260040161364490614a4b565b60405180910390fd5b6000808673ffffffffffffffffffffffffffffffffffffffff1685876040516136769190614ae5565b60006040518083038185875af1925050503d80600081146136b3576040519150601f19603f3d011682016040523d82523d6000602084013e6136b8565b606091505b50915091506136c88282866136f7565b92505050949350505050565b6000808273ffffffffffffffffffffffffffffffffffffffff163b119050919050565b6060831561370757829050613757565b60008351111561371a5782518084602001fd5b816040517f08c379a000000000000000000000000000000000000000000000000000000000815260040161374e9190614b40565b60405180910390fd5b9392505050565b600073ffffffffffffffffffffffffffffffffffffffff82169050919050565b60006137898261375e565b9050919050565b6137998161377e565b82525050565b60006040820190506137b46000830185613790565b6137c16020830184613790565b9392505050565b6000819050919050565b6137db816137c8565b82525050565b60006020820190506137f660008301846137d2565b92915050565b6000604051905090565b600080fd5b600080fd5b60007fffffffff0000000000000000000000000000000000000000000000000000000082169050919050565b61384581613810565b811461385057600080fd5b50565b6000813590506138628161383c565b92915050565b60006020828403121561387e5761387d613806565b5b600061388c84828501613853565b91505092915050565b60008115159050919050565b6138aa81613895565b82525050565b60006020820190506138c560008301846138a1565b92915050565b6138d4816137c8565b81146138df57600080fd5b50565b6000813590506138f1816138cb565b92915050565b60006020828403121561390d5761390c613806565b5b600061391b848285016138e2565b91505092915050565b61392d8161377e565b811461393857600080fd5b50565b60008135905061394a81613924565b92915050565b600080fd5b600080fd5b6000601f19601f8301169050919050565b7f4e487b7100000000000000000000000000000000000000000000000000000000600052604160045260246000fd5b6139a38261395a565b810181811067ffffffffffffffff821117156139c2576139c161396b565b5b80604052505050565b60006139d56137fc565b90506139e1828261399a565b919050565b600067ffffffffffffffff821115613a0157613a0061396b565b5b613a0a8261395a565b9050602081019050919050565b82818337600083830152505050565b6000613a39613a34846139e6565b6139cb565b905082815260208101848484011115613a5557613a54613955565b5b613a60848285613a17565b509392505050565b600082601f830112613a7d57613a7c613950565b5b8135613a8d848260208601613a26565b91505092915050565b60008060008060808587031215613ab057613aaf613806565b5b6000613abe8782880161393b565b9450506020613acf8782880161393b565b9350506040613ae0878288016138e2565b925050606085013567ffffffffffffffff811115613b0157613b0061380b565b5b613b0d87828801613a68565b91505092959194509250565b613b2281613810565b82525050565b6000602082019050613b3d6000830184613b19565b92915050565b600081519050919050565b600082825260208201905092915050565b6000819050602082019050919050565b613b788161377e565b82525050565b613b87816137c8565b82525050565b7f4e487b7100000000000000000000000000000000000000000000000000000000600052602160045260246000fd5b60028110613bcd57613bcc613b8d565b5b50565b6000819050613bde82613bbc565b919050565b6000613bee82613bd0565b9050919050565b613bfe81613be3565b82525050565b608082016000820151613c1a6000850182613b6f565b506020820151613c2d6020850182613b7e565b506040820151613c406040850182613b7e565b506060820151613c536060850182613bf5565b50505050565b6000613c658383613c04565b60808301905092915050565b6000602082019050919050565b6000613c8982613b43565b613c938185613b4e565b9350613c9e83613b5f565b8060005b83811015613ccf578151613cb68882613c59565b9750613cc183613c71565b925050600181019050613ca2565b5085935050505092915050565b60006020820190508181036000830152613cf68184613c7e565b905092915050565b600067ffffffffffffffff821115613d1957613d1861396b565b5b602082029050602081019050919050565b600080fd5b6000613d42613d3d84613cfe565b6139cb565b90508083825260208201905060208402830185811115613d6557613d64613d2a565b5b835b81811015613d8e5780613d7a88826138e2565b845260208401935050602081019050613d67565b5050509392505050565b600082601f830112613dad57613dac613950565b5b8135613dbd848260208601613d2f565b91505092915050565b600060208284031215613ddc57613ddb613806565b5b600082013567ffffffffffffffff811115613dfa57613df961380b565b5b613e0684828501613d98565b91505092915050565b600067ffffffffffffffff821115613e2a57613e2961396b565b5b602082029050602081019050919050565b6000613e4e613e4984613e0f565b6139cb565b90508083825260208201905060208402830185811115613e7157613e70613d2a565b5b835b81811015613e9a5780613e86888261393b565b845260208401935050602081019050613e73565b5050509392505050565b600082601f830112613eb957613eb8613950565b5b8135613ec9848260208601613e3b565b91505092915050565b60008060008060808587031215613eec57613eeb613806565b5b600085013567ffffffffffffffff811115613f0a57613f0961380b565b5b613f1687828801613ea4565b945050602085013567ffffffffffffffff811115613f3757613f3661380b565b5b613f4387828801613d98565b935050604085013567ffffffffffffffff811115613f6457613f6361380b565b5b613f7087828801613d98565b925050606085013567ffffffffffffffff811115613f9157613f9061380b565b5b613f9d87828801613d98565b91505092959194509250565b6000602082019050613fbe6000830184613790565b92915050565b600067ffffffffffffffff821115613fdf57613fde61396b565b5b602082029050602081019050919050565b613ff981613895565b811461400457600080fd5b50565b60008135905061401681613ff0565b92915050565b600061402f61402a84613fc4565b6139cb565b9050808382526020820190506020840283018581111561405257614051613d2a565b5b835b8181101561407b57806140678882614007565b845260208401935050602081019050614054565b5050509392505050565b600082601f83011261409a57614099613950565b5b81356140aa84826020860161401c565b91505092915050565b600080604083850312156140ca576140c9613806565b5b600083013567ffffffffffffffff8111156140e8576140e761380b565b5b6140f485828601613d98565b925050602083013567ffffffffffffffff8111156141155761411461380b565b5b61412185828601614085565b9150509250929050565b600060a08201905061414060008301886138a1565b61414d60208301876137d2565b61415a6040830186613790565b61416760608301856137d2565b61417460808301846137d2565b9695505050505050565b600080600080600060a0868803121561419a57614199613806565b5b60006141a88882890161393b565b95505060206141b98882890161393b565b945050604086013567ffffffffffffffff8111156141da576141d961380b565b5b6141e688828901613d98565b935050606086013567ffffffffffffffff8111156142075761420661380b565b5b61421388828901613d98565b925050608086013567ffffffffffffffff8111156142345761423361380b565b5b61424088828901613a68565b9150509295509295909350565b60006020828403121561426357614262613806565b5b60006142718482850161393b565b91505092915050565b600081519050919050565b600082825260208201905092915050565b6000819050602082019050919050565b60006142b28383613b7e565b60208301905092915050565b6000602082019050919050565b60006142d68261427a565b6142e08185614285565b93506142eb83614296565b8060005b8381101561431c57815161430388826142a6565b975061430e836142be565b9250506001810190506142ef565b5085935050505092915050565b6000602082019050818103600083015261434381846142cb565b905092915050565b6000806040838503121561436257614361613806565b5b600083013567ffffffffffffffff8111156143805761437f61380b565b5b61438c85828601613d98565b925050602083013567ffffffffffffffff8111156143ad576143ac61380b565b5b6143b985828601613d98565b9150509250929050565b600080600080600060a086880312156143df576143de613806565b5b60006143ed8882890161393b565b95505060206143fe8882890161393b565b945050604061440f888289016138e2565b9350506060614420888289016138e2565b925050608086013567ffffffffffffffff8111156144415761444061380b565b5b61444d88828901613a68565b9150509295509295909350565b61446381613be3565b82525050565b600060808201905061447e6000830187613790565b61448b60208301866137d2565b61449860408301856137d2565b6144a5606083018461445a565b95945050505050565b600080604083850312156144c5576144c4613806565b5b60006144d3858286016138e2565b92505060206144e48582860161393b565b9150509250929050565b600082825260208201905092915050565b7f5265656e7472616e637947756172643a207265656e7472616e742063616c6c00600082015250565b6000614535601f836144ee565b9150614540826144ff565b602082019050919050565b6000602082019050818103600083015261456481614528565b9050919050565b7f4e487b7100000000000000000000000000000000000000000000000000000000600052601160045260246000fd5b60006145a5826137c8565b91506145b0836137c8565b9250828210156145c3576145c261456b565b5b828203905092915050565b7f4e487b7100000000000000000000000000000000000000000000000000000000600052603260045260246000fd5b7f4e487b7100000000000000000000000000000000000000000000000000000000600052601260045260246000fd5b6000614637826137c8565b9150614642836137c8565b925082614652576146516145fd565b5b828204905092915050565b6000614668826137c8565b9150614673836137c8565b9250817fffffffffffffffffffffffffffffffffffffffffffffffffffffffffffffffff04831182151516156146ac576146ab61456b565b5b828202905092915050565b60006040820190506146cc60008301856137d2565b6146d960208301846137d2565b9392505050565b6000815190506146ef816138cb565b92915050565b60006020828403121561470b5761470a613806565b5b6000614719848285016146e0565b91505092915050565b600061472d826137c8565b91507fffffffffffffffffffffffffffffffffffffffffffffffffffffffffffffffff820361475f5761475e61456b565b5b600182019050919050565b6000614775826137c8565b9150614780836137c8565b9250827fffffffffffffffffffffffffffffffffffffffffffffffffffffffffffffffff038211156147b5576147b461456b565b5b828201905092915050565b60006060820190506147d56000830186613790565b6147e26020830185613790565b6147ef60408301846137d2565b949350505050565b60008151905061480681613924565b92915050565b60006020828403121561482257614821613806565b5b6000614830848285016147f7565b91505092915050565b6000604082019050818103600083015261485381856142cb565b9050818103602083015261486781846142cb565b90509392505050565b60006040820190506148856000830185613790565b61489260208301846137d2565b9392505050565b6000815190506148a881613ff0565b92915050565b6000602082840312156148c4576148c3613806565b5b60006148d284828501614899565b91505092915050565b7f5361666545524332303a204552433230206f7065726174696f6e20646964206e60008201527f6f74207375636365656400000000000000000000000000000000000000000000602082015250565b6000614937602a836144ee565b9150614942826148db565b604082019050919050565b600060208201905081810360008301526149668161492a565b9050919050565b7f416464726573733a20696e73756666696369656e742062616c616e636520666f60008201527f722063616c6c0000000000000000000000000000000000000000000000000000602082015250565b60006149c96026836144ee565b91506149d48261496d565b604082019050919050565b600060208201905081810360008301526149f8816149bc565b9050919050565b7f416464726573733a2063616c6c20746f206e6f6e2d636f6e7472616374000000600082015250565b6000614a35601d836144ee565b9150614a40826149ff565b602082019050919050565b60006020820190508181036000830152614a6481614a28565b9050919050565b600081519050919050565b600081905092915050565b60005b83811015614a9f578082015181840152602081019050614a84565b83811115614aae576000848401525b50505050565b6000614abf82614a6b565b614ac98185614a76565b9350614ad9818560208601614a81565b80840191505092915050565b6000614af18284614ab4565b915081905092915050565b600081519050919050565b6000614b1282614afc565b614b1c81856144ee565b9350614b2c818560208601614a81565b614b358161395a565b840191505092915050565b60006020820190508181036000830152614b5a8184614b07565b90509291505056fea2646970667358221220aef95a58e69fd2d25644abbb9a42849605a6868c53e4b4df26dfdd8ae1bb3c3a64736f6c634300080f0033",
  "linkReferences": {},
  "deployedLinkReferences": {}
}