{
  "_format": "hh-sol-artifact-1",
  "contractName": "XDSea721Staking",
  "sourceName": "newContracts/XDSea721Staking.sol",
  "abi": [
    {
      "inputs": [
        {
          "internalType": "address",
          "name": "_nftCollection",
          "type": "address"
        },
        {
          "internalType": "uint256[]",
          "name": "_tokenIds",
          "type": "uint256[]"
        },
        {
          "internalType": "uint256[]",
          "name": "_backedValues",
          "type": "uint256[]"
        },
        {
          "internalType": "uint256",
          "name": "_lockInPeriod",
          "type": "uint256"
        },
        {
          "internalType": "uint256",
          "name": "_timeOfPoolInitialization",
          "type": "uint256"
        }
      ],
      "stateMutability": "nonpayable",
      "type": "constructor"
    },
    {
      "inputs": [
        {
          "internalType": "uint256",
          "name": "tokenIdLength",
          "type": "uint256"
        },
        {
          "internalType": "uint256",
          "name": "backedValueLength",
          "type": "uint256"
        }
      ],
      "name": "LengthMismatch",
      "type": "error"
    },
    {
      "inputs": [
        {
          "internalType": "uint256",
          "name": "_tokenId",
          "type": "uint256"
        }
      ],
      "name": "NFTNotStaked",
      "type": "error"
    },
    {
      "inputs": [
        {
          "internalType": "uint256",
          "name": "tokenId",
          "type": "uint256"
        }
      ],
      "name": "NotEligibleForStaking",
      "type": "error"
    },
    {
      "inputs": [
        {
          "internalType": "uint256",
          "name": "balance",
          "type": "uint256"
        },
        {
          "internalType": "uint256",
          "name": "reward",
          "type": "uint256"
        }
      ],
      "name": "NotEnoughBalance",
      "type": "error"
    },
    {
      "inputs": [
        {
          "internalType": "address",
          "name": "owner",
          "type": "address"
        },
        {
          "internalType": "address",
          "name": "sender",
          "type": "address"
        }
      ],
      "name": "NotOwner",
      "type": "error"
    },
    {
      "inputs": [
        {
          "internalType": "address",
          "name": "owner",
          "type": "address"
        },
        {
          "internalType": "address",
          "name": "sender",
          "type": "address"
        }
      ],
      "name": "NotPoolOwner",
      "type": "error"
    },
    {
      "inputs": [
        {
          "internalType": "address",
          "name": "given",
          "type": "address"
        }
      ],
      "name": "NotTheCorrectContractAddress",
      "type": "error"
    },
    {
      "inputs": [
        {
          "internalType": "uint256",
          "name": "lockInEnd",
          "type": "uint256"
        },
        {
          "internalType": "uint256",
          "name": "currentTime",
          "type": "uint256"
        }
      ],
      "name": "StillLockedIn",
      "type": "error"
    },
    {
      "anonymous": false,
      "inputs": [
        {
          "indexed": true,
          "internalType": "address",
          "name": "from",
          "type": "address"
        },
        {
          "indexed": true,
          "internalType": "address",
          "name": "contractAddress",
          "type": "address"
        },
        {
          "indexed": false,
          "internalType": "uint256",
          "name": "value",
          "type": "uint256"
        }
      ],
      "name": "FundsReceived",
      "type": "event"
    },
    {
      "anonymous": false,
      "inputs": [
        {
          "indexed": true,
          "internalType": "address",
          "name": "operator",
          "type": "address"
        },
        {
          "indexed": true,
          "internalType": "address",
          "name": "from",
          "type": "address"
        },
        {
          "indexed": false,
          "internalType": "uint256[]",
          "name": "ids",
          "type": "uint256[]"
        },
        {
          "indexed": false,
          "internalType": "uint256[]",
          "name": "values",
          "type": "uint256[]"
        }
      ],
      "name": "XRC1155BatchReceived",
      "type": "event"
    },
    {
      "anonymous": false,
      "inputs": [
        {
          "indexed": true,
          "internalType": "address",
          "name": "operator",
          "type": "address"
        },
        {
          "indexed": true,
          "internalType": "address",
          "name": "from",
          "type": "address"
        },
        {
          "indexed": true,
          "internalType": "uint256",
          "name": "id",
          "type": "uint256"
        },
        {
          "indexed": false,
          "internalType": "uint256",
          "name": "value",
          "type": "uint256"
        }
      ],
      "name": "XRC1155Received",
      "type": "event"
    },
    {
      "anonymous": false,
      "inputs": [
        {
          "indexed": true,
          "internalType": "address",
          "name": "operator",
          "type": "address"
        },
        {
          "indexed": true,
          "internalType": "address",
          "name": "from",
          "type": "address"
        },
        {
          "indexed": true,
          "internalType": "uint256",
          "name": "tokenId",
          "type": "uint256"
        }
      ],
      "name": "XRC721Received",
      "type": "event"
    },
    {
      "inputs": [],
      "name": "balanceOf",
      "outputs": [
        {
          "internalType": "uint256",
          "name": "",
          "type": "uint256"
        }
      ],
      "stateMutability": "view",
      "type": "function"
    },
    {
      "inputs": [
        {
          "internalType": "uint256",
          "name": "_tokenId",
          "type": "uint256"
        },
        {
          "internalType": "address[]",
          "name": "_rewards",
          "type": "address[]"
        }
      ],
      "name": "calculateRewards",
      "outputs": [
        {
          "internalType": "uint256[]",
          "name": "",
          "type": "uint256[]"
        }
      ],
      "stateMutability": "view",
      "type": "function"
    },
    {
      "inputs": [
        {
          "internalType": "uint256",
          "name": "_tokenId",
          "type": "uint256"
        },
        {
          "internalType": "address",
          "name": "_tokenContract",
          "type": "address"
        }
      ],
      "name": "claimRewards",
      "outputs": [],
      "stateMutability": "nonpayable",
      "type": "function"
    },
    {
      "inputs": [
        {
          "internalType": "uint256",
          "name": "amount",
          "type": "uint256"
        },
        {
          "internalType": "address",
          "name": "erc20address",
          "type": "address"
        }
      ],
      "name": "depositFunds",
      "outputs": [],
      "stateMutability": "payable",
      "type": "function"
    },
    {
      "inputs": [
        {
          "internalType": "uint256",
          "name": "",
          "type": "uint256"
        }
      ],
      "name": "eligibleNFTs",
      "outputs": [
        {
          "internalType": "uint256",
          "name": "",
          "type": "uint256"
        }
      ],
      "stateMutability": "view",
      "type": "function"
    },
    {
      "inputs": [],
      "name": "isBackedValue",
      "outputs": [
        {
          "internalType": "bool",
          "name": "",
          "type": "bool"
        }
      ],
      "stateMutability": "view",
      "type": "function"
    },
    {
      "inputs": [],
      "name": "lockInPeriod",
      "outputs": [
        {
          "internalType": "uint256",
          "name": "",
          "type": "uint256"
        }
      ],
      "stateMutability": "view",
      "type": "function"
    },
    {
      "inputs": [],
      "name": "marketplaceAddress",
      "outputs": [
        {
          "internalType": "address",
          "name": "",
          "type": "address"
        }
      ],
      "stateMutability": "view",
      "type": "function"
    },
    {
      "inputs": [],
      "name": "nftCollection",
      "outputs": [
        {
          "internalType": "address",
          "name": "",
          "type": "address"
        }
      ],
      "stateMutability": "view",
      "type": "function"
    },
    {
      "inputs": [
        {
          "internalType": "address",
          "name": "operator",
          "type": "address"
        },
        {
          "internalType": "address",
          "name": "from",
          "type": "address"
        },
        {
          "internalType": "uint256[]",
          "name": "tokenIds",
          "type": "uint256[]"
        },
        {
          "internalType": "uint256[]",
          "name": "values",
          "type": "uint256[]"
        },
        {
          "internalType": "bytes",
          "name": "",
          "type": "bytes"
        }
      ],
      "name": "onERC1155BatchReceived",
      "outputs": [
        {
          "internalType": "bytes4",
          "name": "",
          "type": "bytes4"
        }
      ],
      "stateMutability": "nonpayable",
      "type": "function"
    },
    {
      "inputs": [
        {
          "internalType": "address",
          "name": "operator",
          "type": "address"
        },
        {
          "internalType": "address",
          "name": "from",
          "type": "address"
        },
        {
          "internalType": "uint256",
          "name": "tokenId",
          "type": "uint256"
        },
        {
          "internalType": "uint256",
          "name": "value",
          "type": "uint256"
        },
        {
          "internalType": "bytes",
          "name": "",
          "type": "bytes"
        }
      ],
      "name": "onERC1155Received",
      "outputs": [
        {
          "internalType": "bytes4",
          "name": "",
          "type": "bytes4"
        }
      ],
      "stateMutability": "nonpayable",
      "type": "function"
    },
    {
      "inputs": [
        {
          "internalType": "address",
          "name": "operator",
          "type": "address"
        },
        {
          "internalType": "address",
          "name": "from",
          "type": "address"
        },
        {
          "internalType": "uint256",
          "name": "tokenId",
          "type": "uint256"
        },
        {
          "internalType": "bytes",
          "name": "",
          "type": "bytes"
        }
      ],
      "name": "onERC721Received",
      "outputs": [
        {
          "internalType": "bytes4",
          "name": "",
          "type": "bytes4"
        }
      ],
      "stateMutability": "nonpayable",
      "type": "function"
    },
    {
      "inputs": [
        {
          "internalType": "uint256",
          "name": "",
          "type": "uint256"
        },
        {
          "internalType": "address",
          "name": "",
          "type": "address"
        }
      ],
      "name": "pendingRewards",
      "outputs": [
        {
          "internalType": "uint256",
          "name": "",
          "type": "uint256"
        }
      ],
      "stateMutability": "view",
      "type": "function"
    },
    {
      "inputs": [],
      "name": "poolOwner",
      "outputs": [
        {
          "internalType": "address",
          "name": "",
          "type": "address"
        }
      ],
      "stateMutability": "view",
      "type": "function"
    },
    {
      "inputs": [],
      "name": "removeBackedValues",
      "outputs": [],
      "stateMutability": "nonpayable",
      "type": "function"
    },
    {
      "inputs": [
        {
          "internalType": "address",
          "name": "",
          "type": "address"
        }
      ],
      "name": "rewards",
      "outputs": [
        {
          "internalType": "address",
          "name": "tokenContract",
          "type": "address"
        },
        {
          "internalType": "uint256",
          "name": "rewardRate",
          "type": "uint256"
        },
        {
          "internalType": "uint256",
          "name": "rewardFrequency",
          "type": "uint256"
        },
        {
          "internalType": "enum XDSea721Staking.RewardType",
          "name": "rewardType",
          "type": "uint8"
        },
        {
          "internalType": "uint256",
          "name": "startTime",
          "type": "uint256"
        }
      ],
      "stateMutability": "view",
      "type": "function"
    },
    {
      "inputs": [
        {
          "internalType": "uint256",
          "name": "_startTime",
          "type": "uint256"
        },
        {
          "internalType": "address",
          "name": "_tokenContract",
          "type": "address"
        }
      ],
      "name": "saveAllRewards",
      "outputs": [],
      "stateMutability": "nonpayable",
      "type": "function"
    },
    {
      "inputs": [
        {
          "internalType": "uint256",
          "name": "_startTime",
          "type": "uint256"
        },
        {
          "internalType": "address",
          "name": "_tokenContract",
          "type": "address"
        },
        {
          "internalType": "uint256",
          "name": "_tokenId",
          "type": "uint256"
        }
      ],
      "name": "saveRewardsForTokenID",
      "outputs": [],
      "stateMutability": "nonpayable",
      "type": "function"
    },
    {
      "inputs": [
        {
          "internalType": "address[]",
          "name": "_tokenAddresses",
          "type": "address[]"
        },
        {
          "internalType": "uint256[]",
          "name": "_rewardRates",
          "type": "uint256[]"
        },
        {
          "internalType": "uint256[]",
          "name": "_rewardFrequencies",
          "type": "uint256[]"
        },
        {
          "internalType": "uint256[]",
          "name": "_rewardTypes",
          "type": "uint256[]"
        },
        {
          "internalType": "uint256[]",
          "name": "_startTimes",
          "type": "uint256[]"
        }
      ],
      "name": "setRewards",
      "outputs": [],
      "stateMutability": "nonpayable",
      "type": "function"
    },
    {
      "inputs": [
        {
          "internalType": "uint256",
          "name": "_tokenId",
          "type": "uint256"
        }
      ],
      "name": "stake",
      "outputs": [],
      "stateMutability": "nonpayable",
      "type": "function"
    },
    {
      "inputs": [
        {
          "internalType": "uint256",
          "name": "",
          "type": "uint256"
        }
      ],
      "name": "stakedNFTs",
      "outputs": [
        {
          "internalType": "bool",
          "name": "isEligible",
          "type": "bool"
        },
        {
          "internalType": "uint256",
          "name": "backedValue",
          "type": "uint256"
        },
        {
          "internalType": "address",
          "name": "stakerAddress",
          "type": "address"
        },
        {
          "internalType": "uint256",
          "name": "timeOfStake",
          "type": "uint256"
        }
      ],
      "stateMutability": "view",
      "type": "function"
    },
    {
      "inputs": [
        {
          "internalType": "bytes4",
          "name": "interfaceID",
          "type": "bytes4"
        }
      ],
      "name": "supportsInterface",
      "outputs": [
        {
          "internalType": "bool",
          "name": "",
          "type": "bool"
        }
      ],
      "stateMutability": "pure",
      "type": "function"
    },
    {
      "inputs": [
        {
          "internalType": "uint256",
          "name": "",
          "type": "uint256"
        },
        {
          "internalType": "address",
          "name": "",
          "type": "address"
        }
      ],
      "name": "timeOfLastClaims",
      "outputs": [
        {
          "internalType": "uint256",
          "name": "",
          "type": "uint256"
        }
      ],
      "stateMutability": "view",
      "type": "function"
    },
    {
      "inputs": [],
      "name": "timeOfPoolInitialization",
      "outputs": [
        {
          "internalType": "uint256",
          "name": "",
          "type": "uint256"
        }
      ],
      "stateMutability": "view",
      "type": "function"
    },
    {
      "inputs": [
        {
          "internalType": "uint256[]",
          "name": "_tokenIds",
          "type": "uint256[]"
        },
        {
          "internalType": "uint256[]",
          "name": "_backedValues",
          "type": "uint256[]"
        }
      ],
      "name": "updateBackedValues",
      "outputs": [],
      "stateMutability": "nonpayable",
      "type": "function"
    },
    {
      "inputs": [
        {
          "internalType": "uint256[]",
          "name": "_tokenIds",
          "type": "uint256[]"
        },
        {
          "internalType": "bool[]",
          "name": "_eligibility",
          "type": "bool[]"
        }
      ],
      "name": "updateEligibility",
      "outputs": [],
      "stateMutability": "nonpayable",
      "type": "function"
    },
    {
      "inputs": [
        {
          "internalType": "uint256",
          "name": "_lockInPeriod",
          "type": "uint256"
        }
      ],
      "name": "updateLockInPeriod",
      "outputs": [],
      "stateMutability": "nonpayable",
      "type": "function"
    },
    {
      "inputs": [
        {
          "internalType": "address",
          "name": "_poolOwner",
          "type": "address"
        }
      ],
      "name": "updatePoolOwner",
      "outputs": [],
      "stateMutability": "nonpayable",
      "type": "function"
    },
    {
      "inputs": [
        {
          "internalType": "uint256",
          "name": "_tokenId",
          "type": "uint256"
        },
        {
          "internalType": "address",
          "name": "_tokenContract",
          "type": "address"
        },
        {
          "internalType": "uint256",
          "name": "_newTime",
          "type": "uint256"
        }
      ],
      "name": "updateTimeOfLastClaim",
      "outputs": [],
      "stateMutability": "nonpayable",
      "type": "function"
    },
    {
      "inputs": [
        {
          "internalType": "uint256",
          "name": "_tokenId",
          "type": "uint256"
        }
      ],
      "name": "withdraw",
      "outputs": [],
      "stateMutability": "nonpayable",
      "type": "function"
    },
    {
      "inputs": [
        {
          "internalType": "uint256",
          "name": "amount",
          "type": "uint256"
        },
        {
          "internalType": "address",
          "name": "erc20address",
          "type": "address"
        }
      ],
      "name": "withdrawFunds",
      "outputs": [],
      "stateMutability": "payable",
      "type": "function"
    },
    {
      "stateMutability": "payable",
      "type": "receive"
    }
  ],
  "bytecode": "0x60a06040527343174a2cf9b214d9036ed73efb7e36395fb86344600160006101000a81548173ffffffffffffffffffffffffffffffffffffffff021916908373ffffffffffffffffffffffffffffffffffffffff1602179055503480156200006657600080fd5b50604051620059f2380380620059f283398181016040528101906200008c919062000517565b600160008190555033600260006101000a81548173ffffffffffffffffffffffffffffffffffffffff021916908373ffffffffffffffffffffffffffffffffffffffff1602179055508473ffffffffffffffffffffffffffffffffffffffff1660808173ffffffffffffffffffffffffffffffffffffffff16815250506200011a84620001b860201b60201c565b60008351146200019f5782518451146200017157835183516040517fab8b67c600000000000000000000000000000000000000000000000000000000815260040162000168929190620005ee565b60405180910390fd5b6200018384846200027160201b60201c565b6001600460006101000a81548160ff0219169083151502179055505b8160038190555080600a819055505050505050620006c6565b60005b81518110156200026d57600160056000848481518110620001e157620001e06200061b565b5b6020026020010151815260200190815260200160002060000160006101000a81548160ff02191690831515021790555060068282815181106200022957620002286200061b565b5b602002602001015190806001815401808255809150506001900390600052602060002001600090919091909150558080620002649062000679565b915050620001bb565b5050565b60005b8251811015620002e9578181815181106200029457620002936200061b565b5b602002602001015160056000858481518110620002b657620002b56200061b565b5b60200260200101518152602001908152602001600020600101819055508080620002e09062000679565b91505062000274565b505050565b6000604051905090565b600080fd5b600080fd5b600073ffffffffffffffffffffffffffffffffffffffff82169050919050565b60006200032f8262000302565b9050919050565b620003418162000322565b81146200034d57600080fd5b50565b600081519050620003618162000336565b92915050565b600080fd5b6000601f19601f8301169050919050565b7f4e487b7100000000000000000000000000000000000000000000000000000000600052604160045260246000fd5b620003b7826200036c565b810181811067ffffffffffffffff82111715620003d957620003d86200037d565b5b80604052505050565b6000620003ee620002ee565b9050620003fc8282620003ac565b919050565b600067ffffffffffffffff8211156200041f576200041e6200037d565b5b602082029050602081019050919050565b600080fd5b6000819050919050565b6200044a8162000435565b81146200045657600080fd5b50565b6000815190506200046a816200043f565b92915050565b600062000487620004818462000401565b620003e2565b90508083825260208201905060208402830185811115620004ad57620004ac62000430565b5b835b81811015620004da5780620004c5888262000459565b845260208401935050602081019050620004af565b5050509392505050565b600082601f830112620004fc57620004fb62000367565b5b81516200050e84826020860162000470565b91505092915050565b600080600080600060a08688031215620005365762000535620002f8565b5b6000620005468882890162000350565b955050602086015167ffffffffffffffff8111156200056a5762000569620002fd565b5b6200057888828901620004e4565b945050604086015167ffffffffffffffff8111156200059c576200059b620002fd565b5b620005aa88828901620004e4565b9350506060620005bd8882890162000459565b9250506080620005d08882890162000459565b9150509295509295909350565b620005e88162000435565b82525050565b6000604082019050620006056000830185620005dd565b620006146020830184620005dd565b9392505050565b7f4e487b7100000000000000000000000000000000000000000000000000000000600052603260045260246000fd5b7f4e487b7100000000000000000000000000000000000000000000000000000000600052601160045260246000fd5b6000620006868262000435565b91507fffffffffffffffffffffffffffffffffffffffffffffffffffffffffffffffff8203620006bb57620006ba6200064a565b5b600182019050919050565b6080516152f4620006fe60003960008181610bd0015281816112be015281816128880152818161293d0152612aea01526152f46000f3fe6080604052600436106101dc5760003560e01c8063a694fc3a11610102578063d18df53c11610095578063f23a6e6111610064578063f23a6e61146107ed578063f5944da91461082a578063f5d9887414610867578063f785de2314610890576102ff565b8063d18df53c14610731578063d3f3315a1461076e578063daa17f4914610797578063e8dcecc8146107c2576102ff565b8063b865749d116100d1578063b865749d14610660578063bc197c81146106a0578063cf0b2270146106dd578063cfe8ad4c14610708576102ff565b8063a694fc3a146105ba578063b0596762146105e3578063b4bdbf1f146105fa578063b709639a14610623576102ff565b80635942aabb1161017a578063722713f711610149578063722713f71461050d578063744bfe61146105385780637b56ceef146105545780637f38d1d214610591576102ff565b80635942aabb146104655780636588103b1461048e57806366a7f11b146104b95780636c7b69cb146104e4576102ff565b8063150b7a02116101b6578063150b7a02146103ad5780632e1a7d4d146103ea578063310312d3146104135780633fb9bfa01461043c576102ff565b806301ffc9a71461030457806305377188146103415780630700037d1461036c576102ff565b366102ff57600260009054906101000a900473ffffffffffffffffffffffffffffffffffffffff1673ffffffffffffffffffffffffffffffffffffffff163373ffffffffffffffffffffffffffffffffffffffff161461029757600260009054906101000a900473ffffffffffffffffffffffffffffffffffffffff16336040517f15a39f3500000000000000000000000000000000000000000000000000000000815260040161028e929190613f7a565b60405180910390fd5b600073ffffffffffffffffffffffffffffffffffffffff163373ffffffffffffffffffffffffffffffffffffffff167f7be377fc58fe5de9bdbdbb0bc41cba05cf72996fbddb2a421c0c52e405105d8c346040516102f59190613fbc565b60405180910390a3005b600080fd5b34801561031057600080fd5b5061032b60048036038101906103269190614043565b6108ac565b604051610338919061408b565b60405180910390f35b34801561034d57600080fd5b5061035661093e565b6040516103639190613fbc565b60405180910390f35b34801561037857600080fd5b50610393600480360381019061038e91906140d2565b610944565b6040516103a4959493929190614176565b60405180910390f35b3480156103b957600080fd5b506103d460048036038101906103cf919061433b565b6109a7565b6040516103e191906143cd565b60405180910390f35b3480156103f657600080fd5b50610411600480360381019061040c91906143e8565b610a16565b005b34801561041f57600080fd5b5061043a600480360381019061043591906143e8565b610cda565b005b34801561044857600080fd5b50610463600480360381019061045e91906145a0565b610d9a565b005b34801561047157600080fd5b5061048c600480360381019061048791906146a7565b6111ac565b005b34801561049a57600080fd5b506104a36112bc565b6040516104b091906146fa565b60405180910390f35b3480156104c557600080fd5b506104ce6112e0565b6040516104db9190613fbc565b60405180910390f35b3480156104f057600080fd5b5061050b60048036038101906105069190614715565b6112e6565b005b34801561051957600080fd5b5061052261206e565b60405161052f9190613fbc565b60405180910390f35b610552600480360381019061054d9190614715565b61212c565b005b34801561056057600080fd5b5061057b60048036038101906105769190614755565b6122d6565b604051610588919061486f565b60405180910390f35b34801561059d57600080fd5b506105b860048036038101906105b39190614980565b61265b565b005b3480156105c657600080fd5b506105e160048036038101906105dc91906143e8565b612822565b005b3480156105ef57600080fd5b506105f8612b82565b005b34801561060657600080fd5b50610621600480360381019061061c9190614715565b612c0b565b005b34801561062f57600080fd5b5061064a600480360381019061064591906143e8565b61306e565b6040516106579190613fbc565b60405180910390f35b34801561066c57600080fd5b50610687600480360381019061068291906143e8565b613092565b60405161069794939291906149f8565b60405180910390f35b3480156106ac57600080fd5b506106c760048036038101906106c29190614a3d565b6130ef565b6040516106d491906143cd565b60405180910390f35b3480156106e957600080fd5b506106f261316b565b6040516106ff91906146fa565b60405180910390f35b34801561071457600080fd5b5061072f600480360381019061072a91906140d2565b613191565b005b34801561073d57600080fd5b5061075860048036038101906107539190614715565b61328b565b6040516107659190613fbc565b60405180910390f35b34801561077a57600080fd5b5061079560048036038101906107909190614b0c565b6132b0565b005b3480156107a357600080fd5b506107ac613423565b6040516107b991906146fa565b60405180910390f35b3480156107ce57600080fd5b506107d7613449565b6040516107e4919061408b565b60405180910390f35b3480156107f957600080fd5b50610814600480360381019061080f9190614b84565b61345c565b60405161082191906143cd565b60405180910390f35b34801561083657600080fd5b50610851600480360381019061084c9190614715565b6134d7565b60405161085e9190613fbc565b60405180910390f35b34801561087357600080fd5b5061088e600480360381019061088991906146a7565b6134fc565b005b6108aa60048036038101906108a59190614715565b613888565b005b60006301ffc9a760e01b827bffffffffffffffffffffffffffffffffffffffffffffffffffffffff19161480610907575063150b7a0260e01b827bffffffffffffffffffffffffffffffffffffffffffffffffffffffff1916145b806109375750634e2312e060e01b827bffffffffffffffffffffffffffffffffffffffffffffffffffffffff1916145b9050919050565b60035481565b60096020528060005260406000206000915090508060000160009054906101000a900473ffffffffffffffffffffffffffffffffffffffff16908060010154908060020154908060030160009054906101000a900460ff16908060040154905085565b6000828473ffffffffffffffffffffffffffffffffffffffff168673ffffffffffffffffffffffffffffffffffffffff167f73d4ce89f05f99f34390b94c04963af5d50e8948e93a3756fbc1769377a975ce60405160405180910390a463150b7a0260e01b9050949350505050565b600260005403610a5b576040517f08c379a0000000000000000000000000000000000000000000000000000000008152600401610a5290614c78565b60405180910390fd5b60026000819055503373ffffffffffffffffffffffffffffffffffffffff166005600083815260200190815260200160002060020160009054906101000a900473ffffffffffffffffffffffffffffffffffffffff1673ffffffffffffffffffffffffffffffffffffffff1614610b41576005600082815260200190815260200160002060020160009054906101000a900473ffffffffffffffffffffffffffffffffffffffff16336040517f23295f0e000000000000000000000000000000000000000000000000000000008152600401610b38929190613f7a565b60405180910390fd5b426003546005600084815260200190815260200160002060030154610b669190614cc7565b1115610bce576003546005600083815260200190815260200160002060030154610b909190614cc7565b426040517f32373786000000000000000000000000000000000000000000000000000000008152600401610bc5929190614d1d565b60405180910390fd5b7f000000000000000000000000000000000000000000000000000000000000000073ffffffffffffffffffffffffffffffffffffffff166342842e0e3033846040518463ffffffff1660e01b8152600401610c2b93929190614d46565b600060405180830381600087803b158015610c4557600080fd5b505af1158015610c59573d6000803e3d6000fd5b5050505060006005600083815260200190815260200160002060020160006101000a81548173ffffffffffffffffffffffffffffffffffffffff021916908373ffffffffffffffffffffffffffffffffffffffff16021790555060006005600083815260200190815260200160002060030181905550600160008190555050565b600260009054906101000a900473ffffffffffffffffffffffffffffffffffffffff1673ffffffffffffffffffffffffffffffffffffffff163373ffffffffffffffffffffffffffffffffffffffff1614610d9057600260009054906101000a900473ffffffffffffffffffffffffffffffffffffffff16336040517f15a39f35000000000000000000000000000000000000000000000000000000008152600401610d87929190613f7a565b60405180910390fd5b8060038190555050565b600260009054906101000a900473ffffffffffffffffffffffffffffffffffffffff1673ffffffffffffffffffffffffffffffffffffffff163373ffffffffffffffffffffffffffffffffffffffff16036111a55783518551148015610e01575082518551145b8015610e0e575082518451145b8015610e1b575081518551145b8015610e28575081518451145b8015610e35575081518351145b8015610e42575080518551145b8015610e4f575080518451145b8015610e5c575080518351145b8015610e69575080518251145b156111a45760005b85518110156111a257600080848381518110610e9057610e8f614d7d565b5b602002602001015103610f4b57600073ffffffffffffffffffffffffffffffffffffffff16878381518110610ec857610ec7614d7d565b5b602002602001015173ffffffffffffffffffffffffffffffffffffffff1614610f4257868281518110610efe57610efd614d7d565b5b60200260200101516040517fdaf08c1c000000000000000000000000000000000000000000000000000000008152600401610f3991906146fa565b60405180910390fd5b60009050610fe0565b6000878381518110610f6057610f5f614d7d565b5b602002602001015190508073ffffffffffffffffffffffffffffffffffffffff166318160ddd6040518163ffffffff1660e01b8152600401602060405180830381865afa158015610fb5573d6000803e3d6000fd5b505050506040513d601f19601f82011682018060405250810190610fd99190614dc1565b5060019150505b60006040518060a0016040528089858151811061100057610fff614d7d565b5b602002602001015173ffffffffffffffffffffffffffffffffffffffff16815260200188858151811061103657611035614d7d565b5b6020026020010151815260200187858151811061105657611055614d7d565b5b60200260200101518152602001836001811115611076576110756140ff565b5b815260200185858151811061108e5761108d614d7d565b5b6020026020010151815250905080600960008a86815181106110b3576110b2614d7d565b5b602002602001015173ffffffffffffffffffffffffffffffffffffffff1673ffffffffffffffffffffffffffffffffffffffff16815260200190815260200160002060008201518160000160006101000a81548173ffffffffffffffffffffffffffffffffffffffff021916908373ffffffffffffffffffffffffffffffffffffffff160217905550602082015181600101556040820151816002015560608201518160030160006101000a81548160ff0219169083600181111561117b5761117a6140ff565b5b0217905550608082015181600401559050505050808061119a90614dee565b915050610e71565b505b5b5050505050565b600260009054906101000a900473ffffffffffffffffffffffffffffffffffffffff1673ffffffffffffffffffffffffffffffffffffffff163373ffffffffffffffffffffffffffffffffffffffff161461126257600260009054906101000a900473ffffffffffffffffffffffffffffffffffffffff16336040517f15a39f35000000000000000000000000000000000000000000000000000000008152600401611259929190613f7a565b60405180910390fd5b806007600085815260200190815260200160002060008473ffffffffffffffffffffffffffffffffffffffff1673ffffffffffffffffffffffffffffffffffffffff16815260200190815260200160002081905550505050565b7f000000000000000000000000000000000000000000000000000000000000000081565b600a5481565b60026000540361132b576040517f08c379a000000000000000000000000000000000000000000000000000000000815260040161132290614c78565b60405180910390fd5b6002600081905550600060056000848152602001908152602001600020600301540361138e57816040517f735b1d420000000000000000000000000000000000000000000000000000000081526004016113859190613fbc565b60405180910390fd5b6005600083815260200190815260200160002060020160009054906101000a900473ffffffffffffffffffffffffffffffffffffffff1673ffffffffffffffffffffffffffffffffffffffff163373ffffffffffffffffffffffffffffffffffffffff161461146c576005600083815260200190815260200160002060020160009054906101000a900473ffffffffffffffffffffffffffffffffffffffff16336040517f23295f0e000000000000000000000000000000000000000000000000000000008152600401611463929190613f7a565b60405180910390fd5b60006007600084815260200190815260200160002060008373ffffffffffffffffffffffffffffffffffffffff1673ffffffffffffffffffffffffffffffffffffffff16815260200190815260200160002054426114ca9190614e36565b90506000600960008473ffffffffffffffffffffffffffffffffffffffff1673ffffffffffffffffffffffffffffffffffffffff168152602001908152602001600020600201548261151c9190614e99565b9050600460009054906101000a900460ff1615611a585760006115af6005600087815260200190815260200160002060010154600960008773ffffffffffffffffffffffffffffffffffffffff1673ffffffffffffffffffffffffffffffffffffffff1681526020019081526020016000206001015461159c9190614eca565b836115a79190614eca565b612710613aba565b90506005600086815260200190815260200160002060000160009054906101000a900460ff161561163d576008600086815260200190815260200160002060008573ffffffffffffffffffffffffffffffffffffffff1673ffffffffffffffffffffffffffffffffffffffff16815260200190815260200160002054816116369190614cc7565b9050611691565b6008600086815260200190815260200160002060008573ffffffffffffffffffffffffffffffffffffffff1673ffffffffffffffffffffffffffffffffffffffff1681526020019081526020016000205490505b600060018111156116a5576116a46140ff565b5b600960008673ffffffffffffffffffffffffffffffffffffffff1673ffffffffffffffffffffffffffffffffffffffff16815260200190815260200160002060030160009054906101000a900460ff166001811115611707576117066140ff565b5b0361185f57670de0b6b3a7640000816117209190614eca565b905061173961173182612774613ad0565b612710613aba565b471015611795574761175861175083612774613ad0565b612710613aba565b6040517f8f0f420600000000000000000000000000000000000000000000000000000000815260040161178c929190614d1d565b60405180910390fd5b600160009054906101000a900473ffffffffffffffffffffffffffffffffffffffff1673ffffffffffffffffffffffffffffffffffffffff166108fc6117e76117df846064613ad0565b612710613aba565b9081150290604051600060405180830381858888f19350505050158015611812573d6000803e3d6000fd5b503373ffffffffffffffffffffffffffffffffffffffff166108fc829081150290604051600060405180830381858888f19350505050158015611859573d6000803e3d6000fd5b50611a52565b61187661186e82612774613ad0565b612710613aba565b8473ffffffffffffffffffffffffffffffffffffffff166370a08231306040518263ffffffff1660e01b81526004016118af91906146fa565b602060405180830381865afa1580156118cc573d6000803e3d6000fd5b505050506040513d601f19601f820116820180604052508101906118f09190614dc1565b10156119c4578373ffffffffffffffffffffffffffffffffffffffff166370a08231306040518263ffffffff1660e01b815260040161192f91906146fa565b602060405180830381865afa15801561194c573d6000803e3d6000fd5b505050506040513d601f19601f820116820180604052508101906119709190614dc1565b61198761197f83612774613ad0565b612710613aba565b6040517f8f0f42060000000000000000000000000000000000000000000000000000000081526004016119bb929190614d1d565b60405180910390fd5b611a26600160009054906101000a900473ffffffffffffffffffffffffffffffffffffffff16611a006119f8846064613ad0565b612710613aba565b8673ffffffffffffffffffffffffffffffffffffffff16613ae69092919063ffffffff16565b611a5133828673ffffffffffffffffffffffffffffffffffffffff16613ae69092919063ffffffff16565b5b50611f58565b6000611ab3600960008673ffffffffffffffffffffffffffffffffffffffff1673ffffffffffffffffffffffffffffffffffffffff1681526020019081526020016000206001015483611aab9190614eca565b612710613aba565b90506005600086815260200190815260200160002060000160009054906101000a900460ff1615611b41576008600086815260200190815260200160002060008573ffffffffffffffffffffffffffffffffffffffff1673ffffffffffffffffffffffffffffffffffffffff1681526020019081526020016000205481611b3a9190614cc7565b9050611b95565b6008600086815260200190815260200160002060008573ffffffffffffffffffffffffffffffffffffffff1673ffffffffffffffffffffffffffffffffffffffff1681526020019081526020016000205490505b60006001811115611ba957611ba86140ff565b5b600960008673ffffffffffffffffffffffffffffffffffffffff1673ffffffffffffffffffffffffffffffffffffffff16815260200190815260200160002060030160009054906101000a900460ff166001811115611c0b57611c0a6140ff565b5b03611d6357670de0b6b3a764000081611c249190614eca565b9050611c3d611c3582612774613ad0565b612710613aba565b471015611c995747611c5c611c5483612774613ad0565b612710613aba565b6040517f8f0f4206000000000000000000000000000000000000000000000000000000008152600401611c90929190614d1d565b60405180910390fd5b600160009054906101000a900473ffffffffffffffffffffffffffffffffffffffff1673ffffffffffffffffffffffffffffffffffffffff166108fc611ceb611ce3846064613ad0565b612710613aba565b9081150290604051600060405180830381858888f19350505050158015611d16573d6000803e3d6000fd5b503373ffffffffffffffffffffffffffffffffffffffff166108fc829081150290604051600060405180830381858888f19350505050158015611d5d573d6000803e3d6000fd5b50611f56565b611d7a611d7282612774613ad0565b612710613aba565b8473ffffffffffffffffffffffffffffffffffffffff166370a08231306040518263ffffffff1660e01b8152600401611db391906146fa565b602060405180830381865afa158015611dd0573d6000803e3d6000fd5b505050506040513d601f19601f82011682018060405250810190611df49190614dc1565b1015611ec8578373ffffffffffffffffffffffffffffffffffffffff166370a08231306040518263ffffffff1660e01b8152600401611e3391906146fa565b602060405180830381865afa158015611e50573d6000803e3d6000fd5b505050506040513d601f19601f82011682018060405250810190611e749190614dc1565b611e8b611e8383612774613ad0565b612710613aba565b6040517f8f0f4206000000000000000000000000000000000000000000000000000000008152600401611ebf929190614d1d565b60405180910390fd5b611f2a600160009054906101000a900473ffffffffffffffffffffffffffffffffffffffff16611f04611efc846064613ad0565b612710613aba565b8673ffffffffffffffffffffffffffffffffffffffff16613ae69092919063ffffffff16565b611f5533828673ffffffffffffffffffffffffffffffffffffffff16613ae69092919063ffffffff16565b5b505b611fa481600960008673ffffffffffffffffffffffffffffffffffffffff1673ffffffffffffffffffffffffffffffffffffffff16815260200190815260200160002060020154613ad0565b6007600086815260200190815260200160002060008573ffffffffffffffffffffffffffffffffffffffff1673ffffffffffffffffffffffffffffffffffffffff16815260200190815260200160002060008282546120039190614cc7565b9250508190555060006008600086815260200190815260200160002060008573ffffffffffffffffffffffffffffffffffffffff1673ffffffffffffffffffffffffffffffffffffffff16815260200190815260200160002081905550505060016000819055505050565b6000600260009054906101000a900473ffffffffffffffffffffffffffffffffffffffff1673ffffffffffffffffffffffffffffffffffffffff163373ffffffffffffffffffffffffffffffffffffffff161461212657600260009054906101000a900473ffffffffffffffffffffffffffffffffffffffff16336040517f15a39f3500000000000000000000000000000000000000000000000000000000815260040161211d929190613f7a565b60405180910390fd5b47905090565b600260009054906101000a900473ffffffffffffffffffffffffffffffffffffffff1673ffffffffffffffffffffffffffffffffffffffff163373ffffffffffffffffffffffffffffffffffffffff16146121e257600260009054906101000a900473ffffffffffffffffffffffffffffffffffffffff16336040517f15a39f350000000000000000000000000000000000000000000000000000000081526004016121d9929190613f7a565b60405180910390fd5b600073ffffffffffffffffffffffffffffffffffffffff168173ffffffffffffffffffffffffffffffffffffffff160361228457600260009054906101000a900473ffffffffffffffffffffffffffffffffffffffff1673ffffffffffffffffffffffffffffffffffffffff166108fc839081150290604051600060405180830381858888f1935050505015801561227e573d6000803e3d6000fd5b506122d2565b6122d1600260009054906101000a900473ffffffffffffffffffffffffffffffffffffffff16838373ffffffffffffffffffffffffffffffffffffffff16613ae69092919063ffffffff16565b5b5050565b60606000825167ffffffffffffffff8111156122f5576122f4614210565b5b6040519080825280602002602001820160405280156123235781602001602082028036833780820191505090505b50905060005b8351811015612650576005600086815260200190815260200160002060000160009054906101000a900460ff16156125a457600060076000878152602001908152602001600020600086848151811061238557612384614d7d565b5b602002602001015173ffffffffffffffffffffffffffffffffffffffff1673ffffffffffffffffffffffffffffffffffffffff16815260200190815260200160002054426123d39190614e36565b90506000600960008785815181106123ee576123ed614d7d565b5b602002602001015173ffffffffffffffffffffffffffffffffffffffff1673ffffffffffffffffffffffffffffffffffffffff168152602001908152602001600020600201548261243f9190614e99565b9050600460009054906101000a900460ff161561250e576124ea60056000898152602001908152602001600020600101546009600089878151811061248757612486614d7d565b5b602002602001015173ffffffffffffffffffffffffffffffffffffffff1673ffffffffffffffffffffffffffffffffffffffff168152602001908152602001600020600101546124d79190614eca565b826124e29190614eca565b612710613aba565b8484815181106124fd576124fc614d7d565b5b6020026020010181815250506125a1565b6125816009600088868151811061252857612527614d7d565b5b602002602001015173ffffffffffffffffffffffffffffffffffffffff1673ffffffffffffffffffffffffffffffffffffffff16815260200190815260200160002060010154826125799190614eca565b612710613aba565b84848151811061259457612593614d7d565b5b6020026020010181815250505b50505b6008600086815260200190815260200160002060008583815181106125cc576125cb614d7d565b5b602002602001015173ffffffffffffffffffffffffffffffffffffffff1673ffffffffffffffffffffffffffffffffffffffff1681526020019081526020016000205482828151811061262257612621614d7d565b5b602002602001018181516126369190614cc7565b91508181525050808061264890614dee565b915050612329565b508091505092915050565b600260009054906101000a900473ffffffffffffffffffffffffffffffffffffffff1673ffffffffffffffffffffffffffffffffffffffff163373ffffffffffffffffffffffffffffffffffffffff161461271157600260009054906101000a900473ffffffffffffffffffffffffffffffffffffffff16336040517f15a39f35000000000000000000000000000000000000000000000000000000008152600401612708929190613f7a565b60405180910390fd5b60005b825181101561281d578181815181106127305761272f614d7d565b5b60200260200101516127645761275f83828151811061275257612751614d7d565b5b6020026020010151613b6c565b6127a8565b600683828151811061277957612778614d7d565b5b602002602001015190806001815401808255809150506001900390600052602060002001600090919091909150555b8181815181106127bb576127ba614d7d565b5b6020026020010151600560008584815181106127da576127d9614d7d565b5b6020026020010151815260200190815260200160002060000160006101000a81548160ff021916908315150217905550808061281590614dee565b915050612714565b505050565b600260005403612867576040517f08c379a000000000000000000000000000000000000000000000000000000000815260040161285e90614c78565b60405180910390fd5b60026000819055503373ffffffffffffffffffffffffffffffffffffffff167f000000000000000000000000000000000000000000000000000000000000000073ffffffffffffffffffffffffffffffffffffffff16636352211e836040518263ffffffff1660e01b81526004016128df9190613fbc565b602060405180830381865afa1580156128fc573d6000803e3d6000fd5b505050506040513d601f19601f820116820180604052508101906129209190614f39565b73ffffffffffffffffffffffffffffffffffffffff1614612a13577f000000000000000000000000000000000000000000000000000000000000000073ffffffffffffffffffffffffffffffffffffffff16636352211e826040518263ffffffff1660e01b81526004016129949190613fbc565b602060405180830381865afa1580156129b1573d6000803e3d6000fd5b505050506040513d601f19601f820116820180604052508101906129d59190614f39565b336040517f23295f0e000000000000000000000000000000000000000000000000000000008152600401612a0a929190613f7a565b60405180910390fd5b6005600082815260200190815260200160002060000160009054906101000a900460ff16612a7857806040517fcfa6511b000000000000000000000000000000000000000000000000000000008152600401612a6f9190613fbc565b60405180910390fd5b336005600083815260200190815260200160002060020160006101000a81548173ffffffffffffffffffffffffffffffffffffffff021916908373ffffffffffffffffffffffffffffffffffffffff1602179055504260056000838152602001908152602001600020600301819055507f000000000000000000000000000000000000000000000000000000000000000073ffffffffffffffffffffffffffffffffffffffff166342842e0e3330846040518463ffffffff1660e01b8152600401612b4593929190614d46565b600060405180830381600087803b158015612b5f57600080fd5b505af1158015612b73573d6000803e3d6000fd5b50505050600160008190555050565b600260009054906101000a900473ffffffffffffffffffffffffffffffffffffffff1673ffffffffffffffffffffffffffffffffffffffff163373ffffffffffffffffffffffffffffffffffffffff1603612c0957600460009054906101000a900460ff1615612c08576000600460006101000a81548160ff0219169083151502179055505b5b565b60005b6006805490508110156130695760006007600060068481548110612c3557612c34614d7d565b5b9060005260206000200154815260200190815260200160002060008473ffffffffffffffffffffffffffffffffffffffff1673ffffffffffffffffffffffffffffffffffffffff16815260200190815260200160002054905060008103612d0d57836007600060068581548110612caf57612cae614d7d565b5b9060005260206000200154815260200190815260200160002060008573ffffffffffffffffffffffffffffffffffffffff1673ffffffffffffffffffffffffffffffffffffffff168152602001908152602001600020819055508390505b60008142612d1b9190614e36565b90506000600960008673ffffffffffffffffffffffffffffffffffffffff1673ffffffffffffffffffffffffffffffffffffffff1681526020019081526020016000206002015482612d6d9190614e99565b9050600460009054906101000a900460ff1615612ea557612e1c6005600060068781548110612d9f57612d9e614d7d565b5b9060005260206000200154815260200190815260200160002060010154600960008873ffffffffffffffffffffffffffffffffffffffff1673ffffffffffffffffffffffffffffffffffffffff16815260200190815260200160002060010154612e099190614eca565b82612e149190614eca565b612710613aba565b6008600060068781548110612e3457612e33614d7d565b5b9060005260206000200154815260200190815260200160002060008773ffffffffffffffffffffffffffffffffffffffff1673ffffffffffffffffffffffffffffffffffffffff1681526020019081526020016000206000828254612e999190614cc7565b92505081905550612f83565b612efe600960008773ffffffffffffffffffffffffffffffffffffffff1673ffffffffffffffffffffffffffffffffffffffff1681526020019081526020016000206001015482612ef69190614eca565b612710613aba565b6008600060068781548110612f1657612f15614d7d565b5b9060005260206000200154815260200190815260200160002060008773ffffffffffffffffffffffffffffffffffffffff1673ffffffffffffffffffffffffffffffffffffffff1681526020019081526020016000206000828254612f7b9190614cc7565b925050819055505b612fcf81600960008873ffffffffffffffffffffffffffffffffffffffff1673ffffffffffffffffffffffffffffffffffffffff16815260200190815260200160002060020154613ad0565b6007600060068781548110612fe757612fe6614d7d565b5b9060005260206000200154815260200190815260200160002060008773ffffffffffffffffffffffffffffffffffffffff1673ffffffffffffffffffffffffffffffffffffffff168152602001908152602001600020600082825461304c9190614cc7565b92505081905550505050808061306190614dee565b915050612c0e565b505050565b6006818154811061307e57600080fd5b906000526020600020016000915090505481565b60056020528060005260406000206000915090508060000160009054906101000a900460ff16908060010154908060020160009054906101000a900473ffffffffffffffffffffffffffffffffffffffff16908060030154905084565b60008473ffffffffffffffffffffffffffffffffffffffff168673ffffffffffffffffffffffffffffffffffffffff167f9b09a98d4f66ca67c7bcc8db7b2f69356715ecbfe955feb24e615d70143b15e78686604051613150929190614f66565b60405180910390a363bc197c8160e01b905095945050505050565b600260009054906101000a900473ffffffffffffffffffffffffffffffffffffffff1681565b600260009054906101000a900473ffffffffffffffffffffffffffffffffffffffff1673ffffffffffffffffffffffffffffffffffffffff163373ffffffffffffffffffffffffffffffffffffffff161461324757600260009054906101000a900473ffffffffffffffffffffffffffffffffffffffff16336040517f15a39f3500000000000000000000000000000000000000000000000000000000815260040161323e929190613f7a565b60405180910390fd5b80600260006101000a81548173ffffffffffffffffffffffffffffffffffffffff021916908373ffffffffffffffffffffffffffffffffffffffff16021790555050565b6008602052816000526040600020602052806000526040600020600091509150505481565b600260009054906101000a900473ffffffffffffffffffffffffffffffffffffffff1673ffffffffffffffffffffffffffffffffffffffff163373ffffffffffffffffffffffffffffffffffffffff161461336657600260009054906101000a900473ffffffffffffffffffffffffffffffffffffffff16336040517f15a39f3500000000000000000000000000000000000000000000000000000000815260040161335d929190613f7a565b60405180910390fd5b80518251146133b057815181516040517fab8b67c60000000000000000000000000000000000000000000000000000000081526004016133a7929190614d1d565b60405180910390fd5b60005b825181101561341e578181815181106133cf576133ce614d7d565b5b6020026020010151600560008584815181106133ee576133ed614d7d565b5b6020026020010151815260200190815260200160002060010181905550808061341690614dee565b9150506133b3565b505050565b600160009054906101000a900473ffffffffffffffffffffffffffffffffffffffff1681565b600460009054906101000a900460ff1681565b6000838573ffffffffffffffffffffffffffffffffffffffff168773ffffffffffffffffffffffffffffffffffffffff167f6069b25ab451e7002a7a7c352e9cdda52578e7a6d54071402810ff8aee99e78e866040516134bc9190613fbc565b60405180910390a463f23a6e6160e01b905095945050505050565b6007602052816000526040600020602052806000526040600020600091509150505481565b60006007600083815260200190815260200160002060008473ffffffffffffffffffffffffffffffffffffffff1673ffffffffffffffffffffffffffffffffffffffff168152602001908152602001600020549050600081036135b257836007600084815260200190815260200160002060008573ffffffffffffffffffffffffffffffffffffffff1673ffffffffffffffffffffffffffffffffffffffff168152602001908152602001600020819055508390505b600081426135c09190614e36565b90506000600960008673ffffffffffffffffffffffffffffffffffffffff1673ffffffffffffffffffffffffffffffffffffffff16815260200190815260200160002060020154826136129190614e99565b9050600460009054906101000a900460ff161561370e576136a36005600086815260200190815260200160002060010154600960008873ffffffffffffffffffffffffffffffffffffffff1673ffffffffffffffffffffffffffffffffffffffff168152602001908152602001600020600101546136909190614eca565b8261369b9190614eca565b612710613aba565b6008600086815260200190815260200160002060008773ffffffffffffffffffffffffffffffffffffffff1673ffffffffffffffffffffffffffffffffffffffff16815260200190815260200160002060008282546137029190614cc7565b925050819055506137ce565b613767600960008773ffffffffffffffffffffffffffffffffffffffff1673ffffffffffffffffffffffffffffffffffffffff168152602001908152602001600020600101548261375f9190614eca565b612710613aba565b6008600086815260200190815260200160002060008773ffffffffffffffffffffffffffffffffffffffff1673ffffffffffffffffffffffffffffffffffffffff16815260200190815260200160002060008282546137c69190614cc7565b925050819055505b61381a81600960008873ffffffffffffffffffffffffffffffffffffffff1673ffffffffffffffffffffffffffffffffffffffff16815260200190815260200160002060020154613ad0565b6007600086815260200190815260200160002060008773ffffffffffffffffffffffffffffffffffffffff1673ffffffffffffffffffffffffffffffffffffffff16815260200190815260200160002060008282546138799190614cc7565b92505081905550505050505050565b600260009054906101000a900473ffffffffffffffffffffffffffffffffffffffff1673ffffffffffffffffffffffffffffffffffffffff163373ffffffffffffffffffffffffffffffffffffffff161461393e57600260009054906101000a900473ffffffffffffffffffffffffffffffffffffffff16336040517f15a39f35000000000000000000000000000000000000000000000000000000008152600401613935929190613f7a565b60405180910390fd5b600073ffffffffffffffffffffffffffffffffffffffff168173ffffffffffffffffffffffffffffffffffffffff1603613a23578134146139b85734826040517f8f0f42060000000000000000000000000000000000000000000000000000000081526004016139af929190614d1d565b60405180910390fd5b600073ffffffffffffffffffffffffffffffffffffffff163373ffffffffffffffffffffffffffffffffffffffff167f7be377fc58fe5de9bdbdbb0bc41cba05cf72996fbddb2a421c0c52e405105d8c34604051613a169190613fbc565b60405180910390a3613ab6565b613a503330848473ffffffffffffffffffffffffffffffffffffffff16613c33909392919063ffffffff16565b8073ffffffffffffffffffffffffffffffffffffffff163373ffffffffffffffffffffffffffffffffffffffff167f7be377fc58fe5de9bdbdbb0bc41cba05cf72996fbddb2a421c0c52e405105d8c84604051613aad9190613fbc565b60405180910390a35b5050565b60008183613ac89190614e99565b905092915050565b60008183613ade9190614eca565b905092915050565b613b678363a9059cbb60e01b8484604051602401613b05929190614f9d565b604051602081830303815290604052907bffffffffffffffffffffffffffffffffffffffffffffffffffffffff19166020820180517bffffffffffffffffffffffffffffffffffffffffffffffffffffffff8381831617835250505050613cbc565b505050565b60005b600680549050811015613c2f578160068281548110613b9157613b90614d7d565b5b906000526020600020015403613c1c5760066001600680549050613bb59190614e36565b81548110613bc657613bc5614d7d565b5b906000526020600020015460068281548110613be557613be4614d7d565b5b90600052602060002001819055506006805480613c0557613c04614fc6565b5b600190038181906000526020600020016000905590555b8080613c2790614dee565b915050613b6f565b5050565b613cb6846323b872dd60e01b858585604051602401613c5493929190614d46565b604051602081830303815290604052907bffffffffffffffffffffffffffffffffffffffffffffffffffffffff19166020820180517bffffffffffffffffffffffffffffffffffffffffffffffffffffffff8381831617835250505050613cbc565b50505050565b6000613d1e826040518060400160405280602081526020017f5361666545524332303a206c6f772d6c6576656c2063616c6c206661696c65648152508573ffffffffffffffffffffffffffffffffffffffff16613d839092919063ffffffff16565b9050600081511115613d7e5780806020019051810190613d3e919061500a565b613d7d576040517f08c379a0000000000000000000000000000000000000000000000000000000008152600401613d74906150a9565b60405180910390fd5b5b505050565b6060613d928484600085613d9b565b90509392505050565b606082471015613de0576040517f08c379a0000000000000000000000000000000000000000000000000000000008152600401613dd79061513b565b60405180910390fd5b613de985613eaf565b613e28576040517f08c379a0000000000000000000000000000000000000000000000000000000008152600401613e1f906151a7565b60405180910390fd5b6000808673ffffffffffffffffffffffffffffffffffffffff168587604051613e519190615241565b60006040518083038185875af1925050503d8060008114613e8e576040519150601f19603f3d011682016040523d82523d6000602084013e613e93565b606091505b5091509150613ea3828286613ed2565b92505050949350505050565b6000808273ffffffffffffffffffffffffffffffffffffffff163b119050919050565b60608315613ee257829050613f32565b600083511115613ef55782518084602001fd5b816040517f08c379a0000000000000000000000000000000000000000000000000000000008152600401613f29919061529c565b60405180910390fd5b9392505050565b600073ffffffffffffffffffffffffffffffffffffffff82169050919050565b6000613f6482613f39565b9050919050565b613f7481613f59565b82525050565b6000604082019050613f8f6000830185613f6b565b613f9c6020830184613f6b565b9392505050565b6000819050919050565b613fb681613fa3565b82525050565b6000602082019050613fd16000830184613fad565b92915050565b6000604051905090565b600080fd5b600080fd5b60007fffffffff0000000000000000000000000000000000000000000000000000000082169050919050565b61402081613feb565b811461402b57600080fd5b50565b60008135905061403d81614017565b92915050565b60006020828403121561405957614058613fe1565b5b60006140678482850161402e565b91505092915050565b60008115159050919050565b61408581614070565b82525050565b60006020820190506140a0600083018461407c565b92915050565b6140af81613f59565b81146140ba57600080fd5b50565b6000813590506140cc816140a6565b92915050565b6000602082840312156140e8576140e7613fe1565b5b60006140f6848285016140bd565b91505092915050565b7f4e487b7100000000000000000000000000000000000000000000000000000000600052602160045260246000fd5b6002811061413f5761413e6140ff565b5b50565b60008190506141508261412e565b919050565b600061416082614142565b9050919050565b61417081614155565b82525050565b600060a08201905061418b6000830188613f6b565b6141986020830187613fad565b6141a56040830186613fad565b6141b26060830185614167565b6141bf6080830184613fad565b9695505050505050565b6141d281613fa3565b81146141dd57600080fd5b50565b6000813590506141ef816141c9565b92915050565b600080fd5b600080fd5b6000601f19601f8301169050919050565b7f4e487b7100000000000000000000000000000000000000000000000000000000600052604160045260246000fd5b614248826141ff565b810181811067ffffffffffffffff8211171561426757614266614210565b5b80604052505050565b600061427a613fd7565b9050614286828261423f565b919050565b600067ffffffffffffffff8211156142a6576142a5614210565b5b6142af826141ff565b9050602081019050919050565b82818337600083830152505050565b60006142de6142d98461428b565b614270565b9050828152602081018484840111156142fa576142f96141fa565b5b6143058482856142bc565b509392505050565b600082601f830112614322576143216141f5565b5b81356143328482602086016142cb565b91505092915050565b6000806000806080858703121561435557614354613fe1565b5b6000614363878288016140bd565b9450506020614374878288016140bd565b9350506040614385878288016141e0565b925050606085013567ffffffffffffffff8111156143a6576143a5613fe6565b5b6143b28782880161430d565b91505092959194509250565b6143c781613feb565b82525050565b60006020820190506143e260008301846143be565b92915050565b6000602082840312156143fe576143fd613fe1565b5b600061440c848285016141e0565b91505092915050565b600067ffffffffffffffff8211156144305761442f614210565b5b602082029050602081019050919050565b600080fd5b600061445961445484614415565b614270565b9050808382526020820190506020840283018581111561447c5761447b614441565b5b835b818110156144a5578061449188826140bd565b84526020840193505060208101905061447e565b5050509392505050565b600082601f8301126144c4576144c36141f5565b5b81356144d4848260208601614446565b91505092915050565b600067ffffffffffffffff8211156144f8576144f7614210565b5b602082029050602081019050919050565b600061451c614517846144dd565b614270565b9050808382526020820190506020840283018581111561453f5761453e614441565b5b835b81811015614568578061455488826141e0565b845260208401935050602081019050614541565b5050509392505050565b600082601f830112614587576145866141f5565b5b8135614597848260208601614509565b91505092915050565b600080600080600060a086880312156145bc576145bb613fe1565b5b600086013567ffffffffffffffff8111156145da576145d9613fe6565b5b6145e6888289016144af565b955050602086013567ffffffffffffffff81111561460757614606613fe6565b5b61461388828901614572565b945050604086013567ffffffffffffffff81111561463457614633613fe6565b5b61464088828901614572565b935050606086013567ffffffffffffffff81111561466157614660613fe6565b5b61466d88828901614572565b925050608086013567ffffffffffffffff81111561468e5761468d613fe6565b5b61469a88828901614572565b9150509295509295909350565b6000806000606084860312156146c0576146bf613fe1565b5b60006146ce868287016141e0565b93505060206146df868287016140bd565b92505060406146f0868287016141e0565b9150509250925092565b600060208201905061470f6000830184613f6b565b92915050565b6000806040838503121561472c5761472b613fe1565b5b600061473a858286016141e0565b925050602061474b858286016140bd565b9150509250929050565b6000806040838503121561476c5761476b613fe1565b5b600061477a858286016141e0565b925050602083013567ffffffffffffffff81111561479b5761479a613fe6565b5b6147a7858286016144af565b9150509250929050565b600081519050919050565b600082825260208201905092915050565b6000819050602082019050919050565b6147e681613fa3565b82525050565b60006147f883836147dd565b60208301905092915050565b6000602082019050919050565b600061481c826147b1565b61482681856147bc565b9350614831836147cd565b8060005b8381101561486257815161484988826147ec565b975061485483614804565b925050600181019050614835565b5085935050505092915050565b600060208201905081810360008301526148898184614811565b905092915050565b600067ffffffffffffffff8211156148ac576148ab614210565b5b602082029050602081019050919050565b6148c681614070565b81146148d157600080fd5b50565b6000813590506148e3816148bd565b92915050565b60006148fc6148f784614891565b614270565b9050808382526020820190506020840283018581111561491f5761491e614441565b5b835b81811015614948578061493488826148d4565b845260208401935050602081019050614921565b5050509392505050565b600082601f830112614967576149666141f5565b5b81356149778482602086016148e9565b91505092915050565b6000806040838503121561499757614996613fe1565b5b600083013567ffffffffffffffff8111156149b5576149b4613fe6565b5b6149c185828601614572565b925050602083013567ffffffffffffffff8111156149e2576149e1613fe6565b5b6149ee85828601614952565b9150509250929050565b6000608082019050614a0d600083018761407c565b614a1a6020830186613fad565b614a276040830185613f6b565b614a346060830184613fad565b95945050505050565b600080600080600060a08688031215614a5957614a58613fe1565b5b6000614a67888289016140bd565b9550506020614a78888289016140bd565b945050604086013567ffffffffffffffff811115614a9957614a98613fe6565b5b614aa588828901614572565b935050606086013567ffffffffffffffff811115614ac657614ac5613fe6565b5b614ad288828901614572565b925050608086013567ffffffffffffffff811115614af357614af2613fe6565b5b614aff8882890161430d565b9150509295509295909350565b60008060408385031215614b2357614b22613fe1565b5b600083013567ffffffffffffffff811115614b4157614b40613fe6565b5b614b4d85828601614572565b925050602083013567ffffffffffffffff811115614b6e57614b6d613fe6565b5b614b7a85828601614572565b9150509250929050565b600080600080600060a08688031215614ba057614b9f613fe1565b5b6000614bae888289016140bd565b9550506020614bbf888289016140bd565b9450506040614bd0888289016141e0565b9350506060614be1888289016141e0565b925050608086013567ffffffffffffffff811115614c0257614c01613fe6565b5b614c0e8882890161430d565b9150509295509295909350565b600082825260208201905092915050565b7f5265656e7472616e637947756172643a207265656e7472616e742063616c6c00600082015250565b6000614c62601f83614c1b565b9150614c6d82614c2c565b602082019050919050565b60006020820190508181036000830152614c9181614c55565b9050919050565b7f4e487b7100000000000000000000000000000000000000000000000000000000600052601160045260246000fd5b6000614cd282613fa3565b9150614cdd83613fa3565b9250827fffffffffffffffffffffffffffffffffffffffffffffffffffffffffffffffff03821115614d1257614d11614c98565b5b828201905092915050565b6000604082019050614d326000830185613fad565b614d3f6020830184613fad565b9392505050565b6000606082019050614d5b6000830186613f6b565b614d686020830185613f6b565b614d756040830184613fad565b949350505050565b7f4e487b7100000000000000000000000000000000000000000000000000000000600052603260045260246000fd5b600081519050614dbb816141c9565b92915050565b600060208284031215614dd757614dd6613fe1565b5b6000614de584828501614dac565b91505092915050565b6000614df982613fa3565b91507fffffffffffffffffffffffffffffffffffffffffffffffffffffffffffffffff8203614e2b57614e2a614c98565b5b600182019050919050565b6000614e4182613fa3565b9150614e4c83613fa3565b925082821015614e5f57614e5e614c98565b5b828203905092915050565b7f4e487b7100000000000000000000000000000000000000000000000000000000600052601260045260246000fd5b6000614ea482613fa3565b9150614eaf83613fa3565b925082614ebf57614ebe614e6a565b5b828204905092915050565b6000614ed582613fa3565b9150614ee083613fa3565b9250817fffffffffffffffffffffffffffffffffffffffffffffffffffffffffffffffff0483118215151615614f1957614f18614c98565b5b828202905092915050565b600081519050614f33816140a6565b92915050565b600060208284031215614f4f57614f4e613fe1565b5b6000614f5d84828501614f24565b91505092915050565b60006040820190508181036000830152614f808185614811565b90508181036020830152614f948184614811565b90509392505050565b6000604082019050614fb26000830185613f6b565b614fbf6020830184613fad565b9392505050565b7f4e487b7100000000000000000000000000000000000000000000000000000000600052603160045260246000fd5b600081519050615004816148bd565b92915050565b6000602082840312156150205761501f613fe1565b5b600061502e84828501614ff5565b91505092915050565b7f5361666545524332303a204552433230206f7065726174696f6e20646964206e60008201527f6f74207375636365656400000000000000000000000000000000000000000000602082015250565b6000615093602a83614c1b565b915061509e82615037565b604082019050919050565b600060208201905081810360008301526150c281615086565b9050919050565b7f416464726573733a20696e73756666696369656e742062616c616e636520666f60008201527f722063616c6c0000000000000000000000000000000000000000000000000000602082015250565b6000615125602683614c1b565b9150615130826150c9565b604082019050919050565b6000602082019050818103600083015261515481615118565b9050919050565b7f416464726573733a2063616c6c20746f206e6f6e2d636f6e7472616374000000600082015250565b6000615191601d83614c1b565b915061519c8261515b565b602082019050919050565b600060208201905081810360008301526151c081615184565b9050919050565b600081519050919050565b600081905092915050565b60005b838110156151fb5780820151818401526020810190506151e0565b8381111561520a576000848401525b50505050565b600061521b826151c7565b61522581856151d2565b93506152358185602086016151dd565b80840191505092915050565b600061524d8284615210565b915081905092915050565b600081519050919050565b600061526e82615258565b6152788185614c1b565b93506152888185602086016151dd565b615291816141ff565b840191505092915050565b600060208201905081810360008301526152b68184615263565b90509291505056fea264697066735822122020a51eb2c03ae941fa9820fa4e8c72ba0adb118eead2d1dfb8b9b0e31cde2e1d64736f6c634300080f0033",
  "linkReferences": {},
  "deployedLinkReferences": {}
}