{
  "_format": "hh-sol-artifact-1",
  "contractName": "XDSeaMarketOffers",
  "sourceName": "newContracts/XDSeaMarketOffers.sol",
  "abi": [
    {
      "inputs": [],
      "stateMutability": "nonpayable",
      "type": "constructor"
    },
    {
      "inputs": [
        {
          "internalType": "uint256",
          "name": "amount",
          "type": "uint256"
        },
        {
          "internalType": "uint256",
          "name": "balance",
          "type": "uint256"
        }
      ],
      "name": "NotEnoughBalance",
      "type": "error"
    },
    {
      "inputs": [
        {
          "internalType": "address",
          "name": "sender",
          "type": "address"
        },
        {
          "internalType": "address",
          "name": "owner",
          "type": "address"
        }
      ],
      "name": "NotOwner",
      "type": "error"
    },
    {
      "anonymous": false,
      "inputs": [
        {
          "indexed": true,
          "internalType": "address",
          "name": "sender",
          "type": "address"
        },
        {
          "indexed": false,
          "internalType": "uint256",
          "name": "amount",
          "type": "uint256"
        }
      ],
      "name": "FundsReceived",
      "type": "event"
    },
    {
      "anonymous": false,
      "inputs": [
        {
          "indexed": true,
          "internalType": "address",
          "name": "receiver",
          "type": "address"
        },
        {
          "indexed": false,
          "internalType": "uint256",
          "name": "amount",
          "type": "uint256"
        },
        {
          "indexed": true,
          "internalType": "address",
          "name": "erc20Address",
          "type": "address"
        }
      ],
      "name": "FundsSent",
      "type": "event"
    },
    {
      "inputs": [],
      "name": "balanceOf",
      "outputs": [
        {
          "internalType": "uint256",
          "name": "",
          "type": "uint256"
        }
      ],
      "stateMutability": "view",
      "type": "function"
    },
    {
      "inputs": [],
      "name": "marketOwner",
      "outputs": [
        {
          "internalType": "address payable",
          "name": "",
          "type": "address"
        }
      ],
      "stateMutability": "view",
      "type": "function"
    },
    {
      "inputs": [
        {
          "internalType": "address",
          "name": "receiver",
          "type": "address"
        },
        {
          "internalType": "uint256",
          "name": "amount",
          "type": "uint256"
        },
        {
          "internalType": "address",
          "name": "erc20Address",
          "type": "address"
        }
      ],
      "name": "withdrawToAddress",
      "outputs": [],
      "stateMutability": "payable",
      "type": "function"
    },
    {
      "stateMutability": "payable",
      "type": "receive"
    }
  ],
  "bytecode": "0x608060405234801561001057600080fd5b50600160008190555033600160006101000a81548173ffffffffffffffffffffffffffffffffffffffff021916908373ffffffffffffffffffffffffffffffffffffffff160217905550610ed4806100696000396000f3fe6080604052600436106100385760003560e01c806347d90b5c14610148578063722713f714610173578063dbcff8721461019e57610143565b3661014357600160009054906101000a900473ffffffffffffffffffffffffffffffffffffffff1673ffffffffffffffffffffffffffffffffffffffff163373ffffffffffffffffffffffffffffffffffffffff16146100f35733600160009054906101000a900473ffffffffffffffffffffffffffffffffffffffff166040517f23295f0e0000000000000000000000000000000000000000000000000000000081526004016100ea92919061092c565b60405180910390fd5b3373ffffffffffffffffffffffffffffffffffffffff167f8e47b87b0ef542cdfa1659c551d88bad38aa7f452d2bbb349ab7530dfec8be8f34604051610139919061096e565b60405180910390a2005b600080fd5b34801561015457600080fd5b5061015d6101ba565b60405161016a91906109aa565b60405180910390f35b34801561017f57600080fd5b506101886101e0565b604051610195919061096e565b60405180910390f35b6101b860048036038101906101b39190610a22565b6101e8565b005b600160009054906101000a900473ffffffffffffffffffffffffffffffffffffffff1681565b600047905090565b600160009054906101000a900473ffffffffffffffffffffffffffffffffffffffff1673ffffffffffffffffffffffffffffffffffffffff163373ffffffffffffffffffffffffffffffffffffffff161461029e5733600160009054906101000a900473ffffffffffffffffffffffffffffffffffffffff166040517f23295f0e00000000000000000000000000000000000000000000000000000000815260040161029592919061092c565b60405180910390fd5b6002600054036102e3576040517f08c379a00000000000000000000000000000000000000000000000000000000081526004016102da90610ad2565b60405180910390fd5b6002600081905550600073ffffffffffffffffffffffffffffffffffffffff168173ffffffffffffffffffffffffffffffffffffffff161461048857818173ffffffffffffffffffffffffffffffffffffffff166370a08231306040518263ffffffff1660e01b81526004016103599190610af2565b602060405180830381865afa158015610376573d6000803e3d6000fd5b505050506040513d601f19601f8201168201806040525081019061039a9190610b22565b101561045857818173ffffffffffffffffffffffffffffffffffffffff166370a08231306040518263ffffffff1660e01b81526004016103da9190610af2565b602060405180830381865afa1580156103f7573d6000803e3d6000fd5b505050506040513d601f19601f8201168201806040525081019061041b9190610b22565b6040517f8f0f420600000000000000000000000000000000000000000000000000000000815260040161044f929190610b4f565b60405180910390fd5b61048383838373ffffffffffffffffffffffffffffffffffffffff166105899092919063ffffffff16565b610517565b814710156104cf5781476040517f8f0f42060000000000000000000000000000000000000000000000000000000081526004016104c6929190610b4f565b60405180910390fd5b8273ffffffffffffffffffffffffffffffffffffffff166108fc839081150290604051600060405180830381858888f19350505050158015610515573d6000803e3d6000fd5b505b8073ffffffffffffffffffffffffffffffffffffffff168373ffffffffffffffffffffffffffffffffffffffff167f9a7dc25111e65af46c97c02f8030fd3f6cff06aee1bff10aa9aa8d53d960d09184604051610574919061096e565b60405180910390a36001600081905550505050565b61060a8363a9059cbb60e01b84846040516024016105a8929190610b78565b604051602081830303815290604052907bffffffffffffffffffffffffffffffffffffffffffffffffffffffff19166020820180517bffffffffffffffffffffffffffffffffffffffffffffffffffffffff838183161783525050505061060f565b505050565b6000610671826040518060400160405280602081526020017f5361666545524332303a206c6f772d6c6576656c2063616c6c206661696c65648152508573ffffffffffffffffffffffffffffffffffffffff166106d69092919063ffffffff16565b90506000815111156106d157808060200190518101906106919190610bd9565b6106d0576040517f08c379a00000000000000000000000000000000000000000000000000000000081526004016106c790610c78565b60405180910390fd5b5b505050565b60606106e584846000856106ee565b90509392505050565b606082471015610733576040517f08c379a000000000000000000000000000000000000000000000000000000000815260040161072a90610d0a565b60405180910390fd5b61073c85610802565b61077b576040517f08c379a000000000000000000000000000000000000000000000000000000000815260040161077290610d76565b60405180910390fd5b6000808673ffffffffffffffffffffffffffffffffffffffff1685876040516107a49190610e10565b60006040518083038185875af1925050503d80600081146107e1576040519150601f19603f3d011682016040523d82523d6000602084013e6107e6565b606091505b50915091506107f6828286610825565b92505050949350505050565b6000808273ffffffffffffffffffffffffffffffffffffffff163b119050919050565b6060831561083557829050610885565b6000835111156108485782518084602001fd5b816040517f08c379a000000000000000000000000000000000000000000000000000000000815260040161087c9190610e7c565b60405180910390fd5b9392505050565b600073ffffffffffffffffffffffffffffffffffffffff82169050919050565b60006108b78261088c565b9050919050565b6108c7816108ac565b82525050565b6000819050919050565b60006108f26108ed6108e88461088c565b6108cd565b61088c565b9050919050565b6000610904826108d7565b9050919050565b6000610916826108f9565b9050919050565b6109268161090b565b82525050565b600060408201905061094160008301856108be565b61094e602083018461091d565b9392505050565b6000819050919050565b61096881610955565b82525050565b6000602082019050610983600083018461095f565b92915050565b60006109948261088c565b9050919050565b6109a481610989565b82525050565b60006020820190506109bf600083018461099b565b92915050565b600080fd5b6109d3816108ac565b81146109de57600080fd5b50565b6000813590506109f0816109ca565b92915050565b6109ff81610955565b8114610a0a57600080fd5b50565b600081359050610a1c816109f6565b92915050565b600080600060608486031215610a3b57610a3a6109c5565b5b6000610a49868287016109e1565b9350506020610a5a86828701610a0d565b9250506040610a6b868287016109e1565b9150509250925092565b600082825260208201905092915050565b7f5265656e7472616e637947756172643a207265656e7472616e742063616c6c00600082015250565b6000610abc601f83610a75565b9150610ac782610a86565b602082019050919050565b60006020820190508181036000830152610aeb81610aaf565b9050919050565b6000602082019050610b0760008301846108be565b92915050565b600081519050610b1c816109f6565b92915050565b600060208284031215610b3857610b376109c5565b5b6000610b4684828501610b0d565b91505092915050565b6000604082019050610b64600083018561095f565b610b71602083018461095f565b9392505050565b6000604082019050610b8d60008301856108be565b610b9a602083018461095f565b9392505050565b60008115159050919050565b610bb681610ba1565b8114610bc157600080fd5b50565b600081519050610bd381610bad565b92915050565b600060208284031215610bef57610bee6109c5565b5b6000610bfd84828501610bc4565b91505092915050565b7f5361666545524332303a204552433230206f7065726174696f6e20646964206e60008201527f6f74207375636365656400000000000000000000000000000000000000000000602082015250565b6000610c62602a83610a75565b9150610c6d82610c06565b604082019050919050565b60006020820190508181036000830152610c9181610c55565b9050919050565b7f416464726573733a20696e73756666696369656e742062616c616e636520666f60008201527f722063616c6c0000000000000000000000000000000000000000000000000000602082015250565b6000610cf4602683610a75565b9150610cff82610c98565b604082019050919050565b60006020820190508181036000830152610d2381610ce7565b9050919050565b7f416464726573733a2063616c6c20746f206e6f6e2d636f6e7472616374000000600082015250565b6000610d60601d83610a75565b9150610d6b82610d2a565b602082019050919050565b60006020820190508181036000830152610d8f81610d53565b9050919050565b600081519050919050565b600081905092915050565b60005b83811015610dca578082015181840152602081019050610daf565b83811115610dd9576000848401525b50505050565b6000610dea82610d96565b610df48185610da1565b9350610e04818560208601610dac565b80840191505092915050565b6000610e1c8284610ddf565b915081905092915050565b600081519050919050565b6000601f19601f8301169050919050565b6000610e4e82610e27565b610e588185610a75565b9350610e68818560208601610dac565b610e7181610e32565b840191505092915050565b60006020820190508181036000830152610e968184610e43565b90509291505056fea2646970667358221220835bf1cc6b0407ebeeb8f4c5daaf71028122d9ef5031d2ff127124e05ecfae4664736f6c634300080f0033",
  "linkReferences": {},
  "deployedLinkReferences": {}
}