{
  "_format": "hh-sol-artifact-1",
  "contractName": "NFT1155",
  "sourceName": "newContracts/NFT1155.sol",
  "abi": [
    {
      "inputs": [],
      "stateMutability": "nonpayable",
      "type": "constructor"
    },
    {
      "anonymous": false,
      "inputs": [
        {
          "indexed": true,
          "internalType": "address",
          "name": "account",
          "type": "address"
        },
        {
          "indexed": true,
          "internalType": "address",
          "name": "operator",
          "type": "address"
        },
        {
          "indexed": false,
          "internalType": "bool",
          "name": "approved",
          "type": "bool"
        }
      ],
      "name": "ApprovalForAll",
      "type": "event"
    },
    {
      "anonymous": false,
      "inputs": [
        {
          "indexed": true,
          "internalType": "address",
          "name": "operator",
          "type": "address"
        },
        {
          "indexed": true,
          "internalType": "address",
          "name": "from",
          "type": "address"
        },
        {
          "indexed": true,
          "internalType": "address",
          "name": "to",
          "type": "address"
        },
        {
          "indexed": false,
          "internalType": "uint256[]",
          "name": "ids",
          "type": "uint256[]"
        },
        {
          "indexed": false,
          "internalType": "uint256[]",
          "name": "values",
          "type": "uint256[]"
        }
      ],
      "name": "TransferBatch",
      "type": "event"
    },
    {
      "anonymous": false,
      "inputs": [
        {
          "indexed": true,
          "internalType": "address",
          "name": "operator",
          "type": "address"
        },
        {
          "indexed": true,
          "internalType": "address",
          "name": "from",
          "type": "address"
        },
        {
          "indexed": true,
          "internalType": "address",
          "name": "to",
          "type": "address"
        },
        {
          "indexed": false,
          "internalType": "uint256",
          "name": "id",
          "type": "uint256"
        },
        {
          "indexed": false,
          "internalType": "uint256",
          "name": "value",
          "type": "uint256"
        }
      ],
      "name": "TransferSingle",
      "type": "event"
    },
    {
      "anonymous": false,
      "inputs": [
        {
          "indexed": false,
          "internalType": "string",
          "name": "value",
          "type": "string"
        },
        {
          "indexed": true,
          "internalType": "uint256",
          "name": "id",
          "type": "uint256"
        }
      ],
      "name": "URI",
      "type": "event"
    },
    {
      "inputs": [],
      "name": "Paper",
      "outputs": [
        {
          "internalType": "uint256",
          "name": "",
          "type": "uint256"
        }
      ],
      "stateMutability": "view",
      "type": "function"
    },
    {
      "inputs": [],
      "name": "Rock",
      "outputs": [
        {
          "internalType": "uint256",
          "name": "",
          "type": "uint256"
        }
      ],
      "stateMutability": "view",
      "type": "function"
    },
    {
      "inputs": [],
      "name": "Scissors",
      "outputs": [
        {
          "internalType": "uint256",
          "name": "",
          "type": "uint256"
        }
      ],
      "stateMutability": "view",
      "type": "function"
    },
    {
      "inputs": [
        {
          "internalType": "address",
          "name": "account",
          "type": "address"
        },
        {
          "internalType": "uint256",
          "name": "id",
          "type": "uint256"
        }
      ],
      "name": "balanceOf",
      "outputs": [
        {
          "internalType": "uint256",
          "name": "",
          "type": "uint256"
        }
      ],
      "stateMutability": "view",
      "type": "function"
    },
    {
      "inputs": [
        {
          "internalType": "address[]",
          "name": "accounts",
          "type": "address[]"
        },
        {
          "internalType": "uint256[]",
          "name": "ids",
          "type": "uint256[]"
        }
      ],
      "name": "balanceOfBatch",
      "outputs": [
        {
          "internalType": "uint256[]",
          "name": "",
          "type": "uint256[]"
        }
      ],
      "stateMutability": "view",
      "type": "function"
    },
    {
      "inputs": [
        {
          "internalType": "address",
          "name": "account",
          "type": "address"
        },
        {
          "internalType": "address",
          "name": "operator",
          "type": "address"
        }
      ],
      "name": "isApprovedForAll",
      "outputs": [
        {
          "internalType": "bool",
          "name": "",
          "type": "bool"
        }
      ],
      "stateMutability": "view",
      "type": "function"
    },
    {
      "inputs": [
        {
          "internalType": "address",
          "name": "from",
          "type": "address"
        },
        {
          "internalType": "address",
          "name": "to",
          "type": "address"
        },
        {
          "internalType": "uint256[]",
          "name": "ids",
          "type": "uint256[]"
        },
        {
          "internalType": "uint256[]",
          "name": "amounts",
          "type": "uint256[]"
        },
        {
          "internalType": "bytes",
          "name": "data",
          "type": "bytes"
        }
      ],
      "name": "safeBatchTransferFrom",
      "outputs": [],
      "stateMutability": "nonpayable",
      "type": "function"
    },
    {
      "inputs": [
        {
          "internalType": "address",
          "name": "from",
          "type": "address"
        },
        {
          "internalType": "address",
          "name": "to",
          "type": "address"
        },
        {
          "internalType": "uint256",
          "name": "id",
          "type": "uint256"
        },
        {
          "internalType": "uint256",
          "name": "amount",
          "type": "uint256"
        },
        {
          "internalType": "bytes",
          "name": "data",
          "type": "bytes"
        }
      ],
      "name": "safeTransferFrom",
      "outputs": [],
      "stateMutability": "nonpayable",
      "type": "function"
    },
    {
      "inputs": [
        {
          "internalType": "address",
          "name": "operator",
          "type": "address"
        },
        {
          "internalType": "bool",
          "name": "approved",
          "type": "bool"
        }
      ],
      "name": "setApprovalForAll",
      "outputs": [],
      "stateMutability": "nonpayable",
      "type": "function"
    },
    {
      "inputs": [
        {
          "internalType": "bytes4",
          "name": "interfaceId",
          "type": "bytes4"
        }
      ],
      "name": "supportsInterface",
      "outputs": [
        {
          "internalType": "bool",
          "name": "",
          "type": "bool"
        }
      ],
      "stateMutability": "view",
      "type": "function"
    },
    {
      "inputs": [
        {
          "internalType": "uint256",
          "name": "",
          "type": "uint256"
        }
      ],
      "name": "uri",
      "outputs": [
        {
          "internalType": "string",
          "name": "",
          "type": "string"
        }
      ],
      "stateMutability": "view",
      "type": "function"
    }
  ],
  "bytecode": "0x60806040523480156200001157600080fd5b506040518060800160405280605a8152602001620034a5605a91396200003d81620000b260201b60201c565b50620000623360018060405180602001604052806000815250620000c760201b60201c565b62000087336002600160405180602001604052806000815250620000c760201b60201c565b620000ac336003600160405180602001604052806000815250620000c760201b60201c565b62000ee9565b8060029081620000c39190620007dd565b5050565b600073ffffffffffffffffffffffffffffffffffffffff168473ffffffffffffffffffffffffffffffffffffffff160362000139576040517f08c379a000000000000000000000000000000000000000000000000000000000815260040162000130906200094b565b60405180910390fd5b60006200014b620002ae60201b60201c565b905060006200016085620002b660201b60201c565b905060006200017585620002b660201b60201c565b90506200018e836000898585896200033760201b60201c565b8460008088815260200190815260200160002060008973ffffffffffffffffffffffffffffffffffffffff1673ffffffffffffffffffffffffffffffffffffffff1681526020019081526020016000206000828254620001ef91906200099c565b925050819055508673ffffffffffffffffffffffffffffffffffffffff16600073ffffffffffffffffffffffffffffffffffffffff168473ffffffffffffffffffffffffffffffffffffffff167fc3d58168c5ae7397731d063d5bbf3d657854427343f4c083240f7aacaa2d0f6289896040516200026f92919062000a0a565b60405180910390a46200028e836000898585896200033f60201b60201c565b620002a5836000898989896200034760201b60201c565b50505050505050565b600033905090565b60606000600167ffffffffffffffff811115620002d857620002d76200056e565b5b604051908082528060200260200182016040528015620003075781602001602082028036833780820191505090505b509050828160008151811062000322576200032162000a37565b5b60200260200101818152505080915050919050565b505050505050565b505050505050565b620003738473ffffffffffffffffffffffffffffffffffffffff166200054060201b6200079d1760201c565b1562000538578373ffffffffffffffffffffffffffffffffffffffff1663f23a6e6187878686866040518663ffffffff1660e01b8152600401620003bc95949392919062000b4f565b6020604051808303816000875af1925050508015620003fb57506040513d601f19601f82011682018060405250810190620003f8919062000c1f565b60015b620004ac576200040a62000c5e565b806308c379a0036200046d57506200042162000cb9565b806200042e57506200046f565b806040517f08c379a000000000000000000000000000000000000000000000000000000000815260040162000464919062000d95565b60405180910390fd5b505b6040517f08c379a0000000000000000000000000000000000000000000000000000000008152600401620004a39062000e2f565b60405180910390fd5b63f23a6e6160e01b7bffffffffffffffffffffffffffffffffffffffffffffffffffffffff1916817bffffffffffffffffffffffffffffffffffffffffffffffffffffffff19161462000536576040517f08c379a00000000000000000000000000000000000000000000000000000000081526004016200052d9062000ec7565b60405180910390fd5b505b505050505050565b6000808273ffffffffffffffffffffffffffffffffffffffff163b119050919050565b600081519050919050565b7f4e487b7100000000000000000000000000000000000000000000000000000000600052604160045260246000fd5b7f4e487b7100000000000000000000000000000000000000000000000000000000600052602260045260246000fd5b60006002820490506001821680620005e557607f821691505b602082108103620005fb57620005fa6200059d565b5b50919050565b60008190508160005260206000209050919050565b60006020601f8301049050919050565b600082821b905092915050565b600060088302620006657fffffffffffffffffffffffffffffffffffffffffffffffffffffffffffffffff8262000626565b62000671868362000626565b95508019841693508086168417925050509392505050565b6000819050919050565b6000819050919050565b6000620006be620006b8620006b28462000689565b62000693565b62000689565b9050919050565b6000819050919050565b620006da836200069d565b620006f2620006e982620006c5565b84845462000633565b825550505050565b600090565b62000709620006fa565b62000716818484620006cf565b505050565b5b818110156200073e5762000732600082620006ff565b6001810190506200071c565b5050565b601f8211156200078d57620007578162000601565b620007628462000616565b8101602085101562000772578190505b6200078a620007818562000616565b8301826200071b565b50505b505050565b600082821c905092915050565b6000620007b26000198460080262000792565b1980831691505092915050565b6000620007cd83836200079f565b9150826002028217905092915050565b620007e88262000563565b67ffffffffffffffff8111156200080457620008036200056e565b5b620008108254620005cc565b6200081d82828562000742565b600060209050601f83116001811462000855576000841562000840578287015190505b6200084c8582620007bf565b865550620008bc565b601f198416620008658662000601565b60005b828110156200088f5784890151825560018201915060208501945060208101905062000868565b86831015620008af5784890151620008ab601f8916826200079f565b8355505b6001600288020188555050505b505050505050565b600082825260208201905092915050565b7f455243313135353a206d696e7420746f20746865207a65726f2061646472657360008201527f7300000000000000000000000000000000000000000000000000000000000000602082015250565b600062000933602183620008c4565b91506200094082620008d5565b604082019050919050565b60006020820190508181036000830152620009668162000924565b9050919050565b7f4e487b7100000000000000000000000000000000000000000000000000000000600052601160045260246000fd5b6000620009a98262000689565b9150620009b68362000689565b9250827fffffffffffffffffffffffffffffffffffffffffffffffffffffffffffffffff03821115620009ee57620009ed6200096d565b5b828201905092915050565b62000a048162000689565b82525050565b600060408201905062000a216000830185620009f9565b62000a306020830184620009f9565b9392505050565b7f4e487b7100000000000000000000000000000000000000000000000000000000600052603260045260246000fd5b600073ffffffffffffffffffffffffffffffffffffffff82169050919050565b600062000a938262000a66565b9050919050565b62000aa58162000a86565b82525050565b600081519050919050565b600082825260208201905092915050565b60005b8381101562000ae757808201518184015260208101905062000aca565b8381111562000af7576000848401525b50505050565b6000601f19601f8301169050919050565b600062000b1b8262000aab565b62000b27818562000ab6565b935062000b3981856020860162000ac7565b62000b448162000afd565b840191505092915050565b600060a08201905062000b66600083018862000a9a565b62000b75602083018762000a9a565b62000b846040830186620009f9565b62000b936060830185620009f9565b818103608083015262000ba7818462000b0e565b90509695505050505050565b6000604051905090565b600080fd5b60007fffffffff0000000000000000000000000000000000000000000000000000000082169050919050565b62000bf98162000bc2565b811462000c0557600080fd5b50565b60008151905062000c198162000bee565b92915050565b60006020828403121562000c385762000c3762000bbd565b5b600062000c488482850162000c08565b91505092915050565b60008160e01c9050919050565b600060033d111562000c805760046000803e62000c7d60005162000c51565b90505b90565b62000c8e8262000afd565b810181811067ffffffffffffffff8211171562000cb05762000caf6200056e565b5b80604052505050565b600060443d1062000d515762000cce62000bb3565b60043d036004823e80513d602482011167ffffffffffffffff8211171562000cf857505062000d51565b808201805167ffffffffffffffff81111562000d18575050505062000d51565b80602083010160043d03850181111562000d3757505050505062000d51565b62000d488260200185018662000c83565b82955050505050505b90565b600062000d618262000563565b62000d6d8185620008c4565b935062000d7f81856020860162000ac7565b62000d8a8162000afd565b840191505092915050565b6000602082019050818103600083015262000db1818462000d54565b905092915050565b7f455243313135353a207472616e7366657220746f206e6f6e204552433131353560008201527f526563656976657220696d706c656d656e746572000000000000000000000000602082015250565b600062000e17603483620008c4565b915062000e248262000db9565b604082019050919050565b6000602082019050818103600083015262000e4a8162000e08565b9050919050565b7f455243313135353a204552433131353552656365697665722072656a6563746560008201527f6420746f6b656e73000000000000000000000000000000000000000000000000602082015250565b600062000eaf602883620008c4565b915062000ebc8262000e51565b604082019050919050565b6000602082019050818103600083015262000ee28162000ea0565b9050919050565b6125ac8062000ef96000396000f3fe608060405234801561001057600080fd5b50600436106100a85760003560e01c80634e1273f4116100715780634e1273f41461017757806360689557146101a7578063a22cb465146101c5578063af769eff146101e1578063e985e9c5146101ff578063f242432a1461022f576100a8565b8062fdd58e146100ad57806301ffc9a7146100dd5780630e89341c1461010d57806325ea269e1461013d5780632eb2c2d61461015b575b600080fd5b6100c760048036038101906100c2919061143a565b61024b565b6040516100d49190611489565b60405180910390f35b6100f760048036038101906100f291906114fc565b610313565b6040516101049190611544565b60405180910390f35b6101276004803603810190610122919061155f565b6103f5565b6040516101349190611625565b60405180910390f35b610145610489565b6040516101529190611489565b60405180910390f35b61017560048036038101906101709190611844565b61048e565b005b610191600480360381019061018c91906119d6565b61052f565b60405161019e9190611b0c565b60405180910390f35b6101af610648565b6040516101bc9190611489565b60405180910390f35b6101df60048036038101906101da9190611b5a565b61064d565b005b6101e9610663565b6040516101f69190611489565b60405180910390f35b61021960048036038101906102149190611b9a565b610668565b6040516102269190611544565b60405180910390f35b61024960048036038101906102449190611bda565b6106fc565b005b60008073ffffffffffffffffffffffffffffffffffffffff168373ffffffffffffffffffffffffffffffffffffffff16036102bb576040517f08c379a00000000000000000000000000000000000000000000000000000000081526004016102b290611ce3565b60405180910390fd5b60008083815260200190815260200160002060008473ffffffffffffffffffffffffffffffffffffffff1673ffffffffffffffffffffffffffffffffffffffff16815260200190815260200160002054905092915050565b60007fd9b67a26000000000000000000000000000000000000000000000000000000007bffffffffffffffffffffffffffffffffffffffffffffffffffffffff1916827bffffffffffffffffffffffffffffffffffffffffffffffffffffffff191614806103de57507f0e89341c000000000000000000000000000000000000000000000000000000007bffffffffffffffffffffffffffffffffffffffffffffffffffffffff1916827bffffffffffffffffffffffffffffffffffffffffffffffffffffffff1916145b806103ee57506103ed826107c0565b5b9050919050565b60606002805461040490611d32565b80601f016020809104026020016040519081016040528092919081815260200182805461043090611d32565b801561047d5780601f106104525761010080835404028352916020019161047d565b820191906000526020600020905b81548152906001019060200180831161046057829003601f168201915b50505050509050919050565b600381565b61049661082a565b73ffffffffffffffffffffffffffffffffffffffff168573ffffffffffffffffffffffffffffffffffffffff1614806104dc57506104db856104d661082a565b610668565b5b61051b576040517f08c379a000000000000000000000000000000000000000000000000000000000815260040161051290611dd5565b60405180910390fd5b6105288585858585610832565b5050505050565b60608151835114610575576040517f08c379a000000000000000000000000000000000000000000000000000000000815260040161056c90611e67565b60405180910390fd5b6000835167ffffffffffffffff8111156105925761059161164c565b5b6040519080825280602002602001820160405280156105c05781602001602082028036833780820191505090505b50905060005b845181101561063d5761060d8582815181106105e5576105e4611e87565b5b6020026020010151858381518110610600576105ff611e87565b5b602002602001015161024b565b8282815181106106205761061f611e87565b5b6020026020010181815250508061063690611ee5565b90506105c6565b508091505092915050565b600181565b61065f61065861082a565b8383610b53565b5050565b600281565b6000600160008473ffffffffffffffffffffffffffffffffffffffff1673ffffffffffffffffffffffffffffffffffffffff16815260200190815260200160002060008373ffffffffffffffffffffffffffffffffffffffff1673ffffffffffffffffffffffffffffffffffffffff16815260200190815260200160002060009054906101000a900460ff16905092915050565b61070461082a565b73ffffffffffffffffffffffffffffffffffffffff168573ffffffffffffffffffffffffffffffffffffffff16148061074a57506107498561074461082a565b610668565b5b610789576040517f08c379a000000000000000000000000000000000000000000000000000000000815260040161078090611dd5565b60405180910390fd5b6107968585858585610cbf565b5050505050565b6000808273ffffffffffffffffffffffffffffffffffffffff163b119050919050565b60007f01ffc9a7000000000000000000000000000000000000000000000000000000007bffffffffffffffffffffffffffffffffffffffffffffffffffffffff1916827bffffffffffffffffffffffffffffffffffffffffffffffffffffffff1916149050919050565b600033905090565b8151835114610876576040517f08c379a000000000000000000000000000000000000000000000000000000000815260040161086d90611f9f565b60405180910390fd5b600073ffffffffffffffffffffffffffffffffffffffff168473ffffffffffffffffffffffffffffffffffffffff16036108e5576040517f08c379a00000000000000000000000000000000000000000000000000000000081526004016108dc90612031565b60405180910390fd5b60006108ef61082a565b90506108ff818787878787610f5a565b60005b8451811015610ab05760008582815181106109205761091f611e87565b5b60200260200101519050600085838151811061093f5761093e611e87565b5b60200260200101519050600080600084815260200190815260200160002060008b73ffffffffffffffffffffffffffffffffffffffff1673ffffffffffffffffffffffffffffffffffffffff168152602001908152602001600020549050818110156109e0576040517f08c379a00000000000000000000000000000000000000000000000000000000081526004016109d7906120c3565b60405180910390fd5b81810360008085815260200190815260200160002060008c73ffffffffffffffffffffffffffffffffffffffff1673ffffffffffffffffffffffffffffffffffffffff168152602001908152602001600020819055508160008085815260200190815260200160002060008b73ffffffffffffffffffffffffffffffffffffffff1673ffffffffffffffffffffffffffffffffffffffff1681526020019081526020016000206000828254610a9591906120e3565b9250508190555050505080610aa990611ee5565b9050610902565b508473ffffffffffffffffffffffffffffffffffffffff168673ffffffffffffffffffffffffffffffffffffffff168273ffffffffffffffffffffffffffffffffffffffff167f4a39dc06d4c0dbc64b70af90fd698a233a518aa5d07e595d983b8c0526c8f7fb8787604051610b27929190612139565b60405180910390a4610b3d818787878787610f62565b610b4b818787878787610f6a565b505050505050565b8173ffffffffffffffffffffffffffffffffffffffff168373ffffffffffffffffffffffffffffffffffffffff1603610bc1576040517f08c379a0000000000000000000000000000000000000000000000000000000008152600401610bb8906121e2565b60405180910390fd5b80600160008573ffffffffffffffffffffffffffffffffffffffff1673ffffffffffffffffffffffffffffffffffffffff16815260200190815260200160002060008473ffffffffffffffffffffffffffffffffffffffff1673ffffffffffffffffffffffffffffffffffffffff16815260200190815260200160002060006101000a81548160ff0219169083151502179055508173ffffffffffffffffffffffffffffffffffffffff168373ffffffffffffffffffffffffffffffffffffffff167f17307eab39ab6107e8899845ad3d59bd9653f200f220920489ca2b5937696c3183604051610cb29190611544565b60405180910390a3505050565b600073ffffffffffffffffffffffffffffffffffffffff168473ffffffffffffffffffffffffffffffffffffffff1603610d2e576040517f08c379a0000000000000000000000000000000000000000000000000000000008152600401610d2590612031565b60405180910390fd5b6000610d3861082a565b90506000610d4585611141565b90506000610d5285611141565b9050610d62838989858589610f5a565b600080600088815260200190815260200160002060008a73ffffffffffffffffffffffffffffffffffffffff1673ffffffffffffffffffffffffffffffffffffffff16815260200190815260200160002054905085811015610df9576040517f08c379a0000000000000000000000000000000000000000000000000000000008152600401610df0906120c3565b60405180910390fd5b85810360008089815260200190815260200160002060008b73ffffffffffffffffffffffffffffffffffffffff1673ffffffffffffffffffffffffffffffffffffffff168152602001908152602001600020819055508560008089815260200190815260200160002060008a73ffffffffffffffffffffffffffffffffffffffff1673ffffffffffffffffffffffffffffffffffffffff1681526020019081526020016000206000828254610eae91906120e3565b925050819055508773ffffffffffffffffffffffffffffffffffffffff168973ffffffffffffffffffffffffffffffffffffffff168573ffffffffffffffffffffffffffffffffffffffff167fc3d58168c5ae7397731d063d5bbf3d657854427343f4c083240f7aacaa2d0f628a8a604051610f2b929190612202565b60405180910390a4610f41848a8a86868a610f62565b610f4f848a8a8a8a8a6111bb565b505050505050505050565b505050505050565b505050505050565b610f898473ffffffffffffffffffffffffffffffffffffffff1661079d565b15611139578373ffffffffffffffffffffffffffffffffffffffff1663bc197c8187878686866040518663ffffffff1660e01b8152600401610fcf95949392919061228f565b6020604051808303816000875af192505050801561100b57506040513d601f19601f82011682018060405250810190611008919061230c565b60015b6110b057611017612346565b806308c379a003611073575061102b612368565b806110365750611075565b806040517f08c379a000000000000000000000000000000000000000000000000000000000815260040161106a9190611625565b60405180910390fd5b505b6040517f08c379a00000000000000000000000000000000000000000000000000000000081526004016110a79061246a565b60405180910390fd5b63bc197c8160e01b7bffffffffffffffffffffffffffffffffffffffffffffffffffffffff1916817bffffffffffffffffffffffffffffffffffffffffffffffffffffffff191614611137576040517f08c379a000000000000000000000000000000000000000000000000000000000815260040161112e906124fc565b60405180910390fd5b505b505050505050565b60606000600167ffffffffffffffff8111156111605761115f61164c565b5b60405190808252806020026020018201604052801561118e5781602001602082028036833780820191505090505b50905082816000815181106111a6576111a5611e87565b5b60200260200101818152505080915050919050565b6111da8473ffffffffffffffffffffffffffffffffffffffff1661079d565b1561138a578373ffffffffffffffffffffffffffffffffffffffff1663f23a6e6187878686866040518663ffffffff1660e01b815260040161122095949392919061251c565b6020604051808303816000875af192505050801561125c57506040513d601f19601f82011682018060405250810190611259919061230c565b60015b61130157611268612346565b806308c379a0036112c4575061127c612368565b8061128757506112c6565b806040517f08c379a00000000000000000000000000000000000000000000000000000000081526004016112bb9190611625565b60405180910390fd5b505b6040517f08c379a00000000000000000000000000000000000000000000000000000000081526004016112f89061246a565b60405180910390fd5b63f23a6e6160e01b7bffffffffffffffffffffffffffffffffffffffffffffffffffffffff1916817bffffffffffffffffffffffffffffffffffffffffffffffffffffffff191614611388576040517f08c379a000000000000000000000000000000000000000000000000000000000815260040161137f906124fc565b60405180910390fd5b505b505050505050565b6000604051905090565b600080fd5b600080fd5b600073ffffffffffffffffffffffffffffffffffffffff82169050919050565b60006113d1826113a6565b9050919050565b6113e1816113c6565b81146113ec57600080fd5b50565b6000813590506113fe816113d8565b92915050565b6000819050919050565b61141781611404565b811461142257600080fd5b50565b6000813590506114348161140e565b92915050565b600080604083850312156114515761145061139c565b5b600061145f858286016113ef565b925050602061147085828601611425565b9150509250929050565b61148381611404565b82525050565b600060208201905061149e600083018461147a565b92915050565b60007fffffffff0000000000000000000000000000000000000000000000000000000082169050919050565b6114d9816114a4565b81146114e457600080fd5b50565b6000813590506114f6816114d0565b92915050565b6000602082840312156115125761151161139c565b5b6000611520848285016114e7565b91505092915050565b60008115159050919050565b61153e81611529565b82525050565b60006020820190506115596000830184611535565b92915050565b6000602082840312156115755761157461139c565b5b600061158384828501611425565b91505092915050565b600081519050919050565b600082825260208201905092915050565b60005b838110156115c65780820151818401526020810190506115ab565b838111156115d5576000848401525b50505050565b6000601f19601f8301169050919050565b60006115f78261158c565b6116018185611597565b93506116118185602086016115a8565b61161a816115db565b840191505092915050565b6000602082019050818103600083015261163f81846115ec565b905092915050565b600080fd5b7f4e487b7100000000000000000000000000000000000000000000000000000000600052604160045260246000fd5b611684826115db565b810181811067ffffffffffffffff821117156116a3576116a261164c565b5b80604052505050565b60006116b6611392565b90506116c2828261167b565b919050565b600067ffffffffffffffff8211156116e2576116e161164c565b5b602082029050602081019050919050565b600080fd5b600061170b611706846116c7565b6116ac565b9050808382526020820190506020840283018581111561172e5761172d6116f3565b5b835b8181101561175757806117438882611425565b845260208401935050602081019050611730565b5050509392505050565b600082601f83011261177657611775611647565b5b81356117868482602086016116f8565b91505092915050565b600080fd5b600067ffffffffffffffff8211156117af576117ae61164c565b5b6117b8826115db565b9050602081019050919050565b82818337600083830152505050565b60006117e76117e284611794565b6116ac565b9050828152602081018484840111156118035761180261178f565b5b61180e8482856117c5565b509392505050565b600082601f83011261182b5761182a611647565b5b813561183b8482602086016117d4565b91505092915050565b600080600080600060a086880312156118605761185f61139c565b5b600061186e888289016113ef565b955050602061187f888289016113ef565b945050604086013567ffffffffffffffff8111156118a05761189f6113a1565b5b6118ac88828901611761565b935050606086013567ffffffffffffffff8111156118cd576118cc6113a1565b5b6118d988828901611761565b925050608086013567ffffffffffffffff8111156118fa576118f96113a1565b5b61190688828901611816565b9150509295509295909350565b600067ffffffffffffffff82111561192e5761192d61164c565b5b602082029050602081019050919050565b600061195261194d84611913565b6116ac565b90508083825260208201905060208402830185811115611975576119746116f3565b5b835b8181101561199e578061198a88826113ef565b845260208401935050602081019050611977565b5050509392505050565b600082601f8301126119bd576119bc611647565b5b81356119cd84826020860161193f565b91505092915050565b600080604083850312156119ed576119ec61139c565b5b600083013567ffffffffffffffff811115611a0b57611a0a6113a1565b5b611a17858286016119a8565b925050602083013567ffffffffffffffff811115611a3857611a376113a1565b5b611a4485828601611761565b9150509250929050565b600081519050919050565b600082825260208201905092915050565b6000819050602082019050919050565b611a8381611404565b82525050565b6000611a958383611a7a565b60208301905092915050565b6000602082019050919050565b6000611ab982611a4e565b611ac38185611a59565b9350611ace83611a6a565b8060005b83811015611aff578151611ae68882611a89565b9750611af183611aa1565b925050600181019050611ad2565b5085935050505092915050565b60006020820190508181036000830152611b268184611aae565b905092915050565b611b3781611529565b8114611b4257600080fd5b50565b600081359050611b5481611b2e565b92915050565b60008060408385031215611b7157611b7061139c565b5b6000611b7f858286016113ef565b9250506020611b9085828601611b45565b9150509250929050565b60008060408385031215611bb157611bb061139c565b5b6000611bbf858286016113ef565b9250506020611bd0858286016113ef565b9150509250929050565b600080600080600060a08688031215611bf657611bf561139c565b5b6000611c04888289016113ef565b9550506020611c15888289016113ef565b9450506040611c2688828901611425565b9350506060611c3788828901611425565b925050608086013567ffffffffffffffff811115611c5857611c576113a1565b5b611c6488828901611816565b9150509295509295909350565b7f455243313135353a2061646472657373207a65726f206973206e6f742061207660008201527f616c6964206f776e657200000000000000000000000000000000000000000000602082015250565b6000611ccd602a83611597565b9150611cd882611c71565b604082019050919050565b60006020820190508181036000830152611cfc81611cc0565b9050919050565b7f4e487b7100000000000000000000000000000000000000000000000000000000600052602260045260246000fd5b60006002820490506001821680611d4a57607f821691505b602082108103611d5d57611d5c611d03565b5b50919050565b7f455243313135353a2063616c6c6572206973206e6f7420746f6b656e206f776e60008201527f6572206e6f7220617070726f7665640000000000000000000000000000000000602082015250565b6000611dbf602f83611597565b9150611dca82611d63565b604082019050919050565b60006020820190508181036000830152611dee81611db2565b9050919050565b7f455243313135353a206163636f756e747320616e6420696473206c656e67746860008201527f206d69736d617463680000000000000000000000000000000000000000000000602082015250565b6000611e51602983611597565b9150611e5c82611df5565b604082019050919050565b60006020820190508181036000830152611e8081611e44565b9050919050565b7f4e487b7100000000000000000000000000000000000000000000000000000000600052603260045260246000fd5b7f4e487b7100000000000000000000000000000000000000000000000000000000600052601160045260246000fd5b6000611ef082611404565b91507fffffffffffffffffffffffffffffffffffffffffffffffffffffffffffffffff8203611f2257611f21611eb6565b5b600182019050919050565b7f455243313135353a2069647320616e6420616d6f756e7473206c656e6774682060008201527f6d69736d61746368000000000000000000000000000000000000000000000000602082015250565b6000611f89602883611597565b9150611f9482611f2d565b604082019050919050565b60006020820190508181036000830152611fb881611f7c565b9050919050565b7f455243313135353a207472616e7366657220746f20746865207a65726f20616460008201527f6472657373000000000000000000000000000000000000000000000000000000602082015250565b600061201b602583611597565b915061202682611fbf565b604082019050919050565b6000602082019050818103600083015261204a8161200e565b9050919050565b7f455243313135353a20696e73756666696369656e742062616c616e636520666f60008201527f72207472616e7366657200000000000000000000000000000000000000000000602082015250565b60006120ad602a83611597565b91506120b882612051565b604082019050919050565b600060208201905081810360008301526120dc816120a0565b9050919050565b60006120ee82611404565b91506120f983611404565b9250827fffffffffffffffffffffffffffffffffffffffffffffffffffffffffffffffff0382111561212e5761212d611eb6565b5b828201905092915050565b600060408201905081810360008301526121538185611aae565b905081810360208301526121678184611aae565b90509392505050565b7f455243313135353a2073657474696e6720617070726f76616c2073746174757360008201527f20666f722073656c660000000000000000000000000000000000000000000000602082015250565b60006121cc602983611597565b91506121d782612170565b604082019050919050565b600060208201905081810360008301526121fb816121bf565b9050919050565b6000604082019050612217600083018561147a565b612224602083018461147a565b9392505050565b612234816113c6565b82525050565b600081519050919050565b600082825260208201905092915050565b60006122618261223a565b61226b8185612245565b935061227b8185602086016115a8565b612284816115db565b840191505092915050565b600060a0820190506122a4600083018861222b565b6122b1602083018761222b565b81810360408301526122c38186611aae565b905081810360608301526122d78185611aae565b905081810360808301526122eb8184612256565b90509695505050505050565b600081519050612306816114d0565b92915050565b6000602082840312156123225761232161139c565b5b6000612330848285016122f7565b91505092915050565b60008160e01c9050919050565b600060033d11156123655760046000803e612362600051612339565b90505b90565b600060443d106123f55761237a611392565b60043d036004823e80513d602482011167ffffffffffffffff821117156123a25750506123f5565b808201805167ffffffffffffffff8111156123c057505050506123f5565b80602083010160043d0385018111156123dd5750505050506123f5565b6123ec8260200185018661167b565b82955050505050505b90565b7f455243313135353a207472616e7366657220746f206e6f6e204552433131353560008201527f526563656976657220696d706c656d656e746572000000000000000000000000602082015250565b6000612454603483611597565b915061245f826123f8565b604082019050919050565b6000602082019050818103600083015261248381612447565b9050919050565b7f455243313135353a204552433131353552656365697665722072656a6563746560008201527f6420746f6b656e73000000000000000000000000000000000000000000000000602082015250565b60006124e6602883611597565b91506124f18261248a565b604082019050919050565b60006020820190508181036000830152612515816124d9565b9050919050565b600060a082019050612531600083018861222b565b61253e602083018761222b565b61254b604083018661147a565b612558606083018561147a565b818103608083015261256a8184612256565b9050969550505050505056fea2646970667358221220de0d205e2d569996764e4a6980807075a227102d78e40978d55371533d59f30864736f6c634300080f003368747470733a2f2f697066732e696f2f697066732f62616679626569686a6a6b77647278786a6e757765766c7174716d683369656763616463333273696f34776d6f37627632676266333471733334612f7b69647d2e6a736f6e",
  "linkReferences": {},
  "deployedLinkReferences": {}
}