{
  "_format": "hh-sol-artifact-1",
  "contractName": "NFT1155",
  "sourceName": "newContracts/NFT1155.sol",
  "abi": [
    {
      "inputs": [],
      "stateMutability": "nonpayable",
      "type": "constructor"
    },
    {
      "anonymous": false,
      "inputs": [
        {
          "indexed": true,
          "internalType": "address",
          "name": "account",
          "type": "address"
        },
        {
          "indexed": true,
          "internalType": "address",
          "name": "operator",
          "type": "address"
        },
        {
          "indexed": false,
          "internalType": "bool",
          "name": "approved",
          "type": "bool"
        }
      ],
      "name": "ApprovalForAll",
      "type": "event"
    },
    {
      "anonymous": false,
      "inputs": [
        {
          "indexed": true,
          "internalType": "address",
          "name": "operator",
          "type": "address"
        },
        {
          "indexed": true,
          "internalType": "address",
          "name": "from",
          "type": "address"
        },
        {
          "indexed": true,
          "internalType": "address",
          "name": "to",
          "type": "address"
        },
        {
          "indexed": false,
          "internalType": "uint256[]",
          "name": "ids",
          "type": "uint256[]"
        },
        {
          "indexed": false,
          "internalType": "uint256[]",
          "name": "values",
          "type": "uint256[]"
        }
      ],
      "name": "TransferBatch",
      "type": "event"
    },
    {
      "anonymous": false,
      "inputs": [
        {
          "indexed": true,
          "internalType": "address",
          "name": "operator",
          "type": "address"
        },
        {
          "indexed": true,
          "internalType": "address",
          "name": "from",
          "type": "address"
        },
        {
          "indexed": true,
          "internalType": "address",
          "name": "to",
          "type": "address"
        },
        {
          "indexed": false,
          "internalType": "uint256",
          "name": "id",
          "type": "uint256"
        },
        {
          "indexed": false,
          "internalType": "uint256",
          "name": "value",
          "type": "uint256"
        }
      ],
      "name": "TransferSingle",
      "type": "event"
    },
    {
      "anonymous": false,
      "inputs": [
        {
          "indexed": false,
          "internalType": "string",
          "name": "value",
          "type": "string"
        },
        {
          "indexed": true,
          "internalType": "uint256",
          "name": "id",
          "type": "uint256"
        }
      ],
      "name": "URI",
      "type": "event"
    },
    {
      "inputs": [],
      "name": "Paper",
      "outputs": [
        {
          "internalType": "uint256",
          "name": "",
          "type": "uint256"
        }
      ],
      "stateMutability": "view",
      "type": "function"
    },
    {
      "inputs": [],
      "name": "Rock",
      "outputs": [
        {
          "internalType": "uint256",
          "name": "",
          "type": "uint256"
        }
      ],
      "stateMutability": "view",
      "type": "function"
    },
    {
      "inputs": [],
      "name": "Scissors",
      "outputs": [
        {
          "internalType": "uint256",
          "name": "",
          "type": "uint256"
        }
      ],
      "stateMutability": "view",
      "type": "function"
    },
    {
      "inputs": [
        {
          "internalType": "address",
          "name": "account",
          "type": "address"
        },
        {
          "internalType": "uint256",
          "name": "id",
          "type": "uint256"
        }
      ],
      "name": "balanceOf",
      "outputs": [
        {
          "internalType": "uint256",
          "name": "",
          "type": "uint256"
        }
      ],
      "stateMutability": "view",
      "type": "function"
    },
    {
      "inputs": [
        {
          "internalType": "address[]",
          "name": "accounts",
          "type": "address[]"
        },
        {
          "internalType": "uint256[]",
          "name": "ids",
          "type": "uint256[]"
        }
      ],
      "name": "balanceOfBatch",
      "outputs": [
        {
          "internalType": "uint256[]",
          "name": "",
          "type": "uint256[]"
        }
      ],
      "stateMutability": "view",
      "type": "function"
    },
    {
      "inputs": [
        {
          "internalType": "address",
          "name": "account",
          "type": "address"
        },
        {
          "internalType": "address",
          "name": "operator",
          "type": "address"
        }
      ],
      "name": "isApprovedForAll",
      "outputs": [
        {
          "internalType": "bool",
          "name": "",
          "type": "bool"
        }
      ],
      "stateMutability": "view",
      "type": "function"
    },
    {
      "inputs": [
        {
          "internalType": "address",
          "name": "from",
          "type": "address"
        },
        {
          "internalType": "address",
          "name": "to",
          "type": "address"
        },
        {
          "internalType": "uint256[]",
          "name": "ids",
          "type": "uint256[]"
        },
        {
          "internalType": "uint256[]",
          "name": "amounts",
          "type": "uint256[]"
        },
        {
          "internalType": "bytes",
          "name": "data",
          "type": "bytes"
        }
      ],
      "name": "safeBatchTransferFrom",
      "outputs": [],
      "stateMutability": "nonpayable",
      "type": "function"
    },
    {
      "inputs": [
        {
          "internalType": "address",
          "name": "from",
          "type": "address"
        },
        {
          "internalType": "address",
          "name": "to",
          "type": "address"
        },
        {
          "internalType": "uint256",
          "name": "id",
          "type": "uint256"
        },
        {
          "internalType": "uint256",
          "name": "amount",
          "type": "uint256"
        },
        {
          "internalType": "bytes",
          "name": "data",
          "type": "bytes"
        }
      ],
      "name": "safeTransferFrom",
      "outputs": [],
      "stateMutability": "nonpayable",
      "type": "function"
    },
    {
      "inputs": [
        {
          "internalType": "address",
          "name": "operator",
          "type": "address"
        },
        {
          "internalType": "bool",
          "name": "approved",
          "type": "bool"
        }
      ],
      "name": "setApprovalForAll",
      "outputs": [],
      "stateMutability": "nonpayable",
      "type": "function"
    },
    {
      "inputs": [
        {
          "internalType": "bytes4",
          "name": "interfaceId",
          "type": "bytes4"
        }
      ],
      "name": "supportsInterface",
      "outputs": [
        {
          "internalType": "bool",
          "name": "",
          "type": "bool"
        }
      ],
      "stateMutability": "view",
      "type": "function"
    },
    {
      "inputs": [
        {
          "internalType": "uint256",
          "name": "",
          "type": "uint256"
        }
      ],
      "name": "uri",
      "outputs": [
        {
          "internalType": "string",
          "name": "",
          "type": "string"
        }
      ],
      "stateMutability": "view",
      "type": "function"
    }
  ],
  "bytecode": "0x60806040523480156200001157600080fd5b506040518060800160405280605a8152602001620034dc605a91396200003d81620000b260201b60201c565b50620000623360018060405180602001604052806000815250620000c760201b60201c565b62000087336002600160405180602001604052806000815250620000c760201b60201c565b620000ac336003600160405180602001604052806000815250620000c760201b60201c565b62000ebe565b8060029081620000c39190620007b2565b5050565b600073ffffffffffffffffffffffffffffffffffffffff168473ffffffffffffffffffffffffffffffffffffffff160362000139576040517f08c379a0000000000000000000000000000000000000000000000000000000008152600401620001309062000920565b60405180910390fd5b60006200014b6200028b60201b60201c565b9050620001848160008762000166886200029360201b60201c565b62000177886200029360201b60201c565b876200031460201b60201c565b8260008086815260200190815260200160002060008773ffffffffffffffffffffffffffffffffffffffff1673ffffffffffffffffffffffffffffffffffffffff1681526020019081526020016000206000828254620001e5919062000971565b925050819055508473ffffffffffffffffffffffffffffffffffffffff16600073ffffffffffffffffffffffffffffffffffffffff168273ffffffffffffffffffffffffffffffffffffffff167fc3d58168c5ae7397731d063d5bbf3d657854427343f4c083240f7aacaa2d0f62878760405162000265929190620009df565b60405180910390a462000284816000878787876200031c60201b60201c565b5050505050565b600033905090565b60606000600167ffffffffffffffff811115620002b557620002b462000543565b5b604051908082528060200260200182016040528015620002e45781602001602082028036833780820191505090505b5090508281600081518110620002ff57620002fe62000a0c565b5b60200260200101818152505080915050919050565b505050505050565b620003488473ffffffffffffffffffffffffffffffffffffffff166200051560201b6200079d1760201c565b156200050d578373ffffffffffffffffffffffffffffffffffffffff1663f23a6e6187878686866040518663ffffffff1660e01b81526004016200039195949392919062000b24565b6020604051808303816000875af1925050508015620003d057506040513d601f19601f82011682018060405250810190620003cd919062000bf4565b60015b6200048157620003df62000c33565b806308c379a003620004425750620003f662000c8e565b8062000403575062000444565b806040517f08c379a000000000000000000000000000000000000000000000000000000000815260040162000439919062000d6a565b60405180910390fd5b505b6040517f08c379a0000000000000000000000000000000000000000000000000000000008152600401620004789062000e04565b60405180910390fd5b63f23a6e6160e01b7bffffffffffffffffffffffffffffffffffffffffffffffffffffffff1916817bffffffffffffffffffffffffffffffffffffffffffffffffffffffff1916146200050b576040517f08c379a0000000000000000000000000000000000000000000000000000000008152600401620005029062000e9c565b60405180910390fd5b505b505050505050565b6000808273ffffffffffffffffffffffffffffffffffffffff163b119050919050565b600081519050919050565b7f4e487b7100000000000000000000000000000000000000000000000000000000600052604160045260246000fd5b7f4e487b7100000000000000000000000000000000000000000000000000000000600052602260045260246000fd5b60006002820490506001821680620005ba57607f821691505b602082108103620005d057620005cf62000572565b5b50919050565b60008190508160005260206000209050919050565b60006020601f8301049050919050565b600082821b905092915050565b6000600883026200063a7fffffffffffffffffffffffffffffffffffffffffffffffffffffffffffffffff82620005fb565b620006468683620005fb565b95508019841693508086168417925050509392505050565b6000819050919050565b6000819050919050565b6000620006936200068d62000687846200065e565b62000668565b6200065e565b9050919050565b6000819050919050565b620006af8362000672565b620006c7620006be826200069a565b84845462000608565b825550505050565b600090565b620006de620006cf565b620006eb818484620006a4565b505050565b5b81811015620007135762000707600082620006d4565b600181019050620006f1565b5050565b601f82111562000762576200072c81620005d6565b6200073784620005eb565b8101602085101562000747578190505b6200075f6200075685620005eb565b830182620006f0565b50505b505050565b600082821c905092915050565b6000620007876000198460080262000767565b1980831691505092915050565b6000620007a2838362000774565b9150826002028217905092915050565b620007bd8262000538565b67ffffffffffffffff811115620007d957620007d862000543565b5b620007e58254620005a1565b620007f282828562000717565b600060209050601f8311600181146200082a576000841562000815578287015190505b62000821858262000794565b86555062000891565b601f1984166200083a86620005d6565b60005b8281101562000864578489015182556001820191506020850194506020810190506200083d565b8683101562000884578489015162000880601f89168262000774565b8355505b6001600288020188555050505b505050505050565b600082825260208201905092915050565b7f455243313135353a206d696e7420746f20746865207a65726f2061646472657360008201527f7300000000000000000000000000000000000000000000000000000000000000602082015250565b60006200090860218362000899565b91506200091582620008aa565b604082019050919050565b600060208201905081810360008301526200093b81620008f9565b9050919050565b7f4e487b7100000000000000000000000000000000000000000000000000000000600052601160045260246000fd5b60006200097e826200065e565b91506200098b836200065e565b9250827fffffffffffffffffffffffffffffffffffffffffffffffffffffffffffffffff03821115620009c357620009c262000942565b5b828201905092915050565b620009d9816200065e565b82525050565b6000604082019050620009f66000830185620009ce565b62000a056020830184620009ce565b9392505050565b7f4e487b7100000000000000000000000000000000000000000000000000000000600052603260045260246000fd5b600073ffffffffffffffffffffffffffffffffffffffff82169050919050565b600062000a688262000a3b565b9050919050565b62000a7a8162000a5b565b82525050565b600081519050919050565b600082825260208201905092915050565b60005b8381101562000abc57808201518184015260208101905062000a9f565b8381111562000acc576000848401525b50505050565b6000601f19601f8301169050919050565b600062000af08262000a80565b62000afc818562000a8b565b935062000b0e81856020860162000a9c565b62000b198162000ad2565b840191505092915050565b600060a08201905062000b3b600083018862000a6f565b62000b4a602083018762000a6f565b62000b596040830186620009ce565b62000b686060830185620009ce565b818103608083015262000b7c818462000ae3565b90509695505050505050565b6000604051905090565b600080fd5b60007fffffffff0000000000000000000000000000000000000000000000000000000082169050919050565b62000bce8162000b97565b811462000bda57600080fd5b50565b60008151905062000bee8162000bc3565b92915050565b60006020828403121562000c0d5762000c0c62000b92565b5b600062000c1d8482850162000bdd565b91505092915050565b60008160e01c9050919050565b600060033d111562000c555760046000803e62000c5260005162000c26565b90505b90565b62000c638262000ad2565b810181811067ffffffffffffffff8211171562000c855762000c8462000543565b5b80604052505050565b600060443d1062000d265762000ca362000b88565b60043d036004823e80513d602482011167ffffffffffffffff8211171562000ccd57505062000d26565b808201805167ffffffffffffffff81111562000ced575050505062000d26565b80602083010160043d03850181111562000d0c57505050505062000d26565b62000d1d8260200185018662000c58565b82955050505050505b90565b600062000d368262000538565b62000d42818562000899565b935062000d5481856020860162000a9c565b62000d5f8162000ad2565b840191505092915050565b6000602082019050818103600083015262000d86818462000d29565b905092915050565b7f455243313135353a207472616e7366657220746f206e6f6e204552433131353560008201527f526563656976657220696d706c656d656e746572000000000000000000000000602082015250565b600062000dec60348362000899565b915062000df98262000d8e565b604082019050919050565b6000602082019050818103600083015262000e1f8162000ddd565b9050919050565b7f455243313135353a204552433131353552656365697665722072656a6563746560008201527f6420746f6b656e73000000000000000000000000000000000000000000000000602082015250565b600062000e8460288362000899565b915062000e918262000e26565b604082019050919050565b6000602082019050818103600083015262000eb78162000e75565b9050919050565b61260e8062000ece6000396000f3fe608060405234801561001057600080fd5b50600436106100a85760003560e01c80634e1273f4116100715780634e1273f41461017757806360689557146101a7578063a22cb465146101c5578063af769eff146101e1578063e985e9c5146101ff578063f242432a1461022f576100a8565b8062fdd58e146100ad57806301ffc9a7146100dd5780630e89341c1461010d57806325ea269e1461013d5780632eb2c2d61461015b575b600080fd5b6100c760048036038101906100c2919061140a565b61024b565b6040516100d49190611459565b60405180910390f35b6100f760048036038101906100f291906114cc565b610313565b6040516101049190611514565b60405180910390f35b6101276004803603810190610122919061152f565b6103f5565b60405161013491906115f5565b60405180910390f35b610145610489565b6040516101529190611459565b60405180910390f35b61017560048036038101906101709190611814565b61048e565b005b610191600480360381019061018c91906119a6565b61052f565b60405161019e9190611adc565b60405180910390f35b6101af610648565b6040516101bc9190611459565b60405180910390f35b6101df60048036038101906101da9190611b2a565b61064d565b005b6101e9610663565b6040516101f69190611459565b60405180910390f35b61021960048036038101906102149190611b6a565b610668565b6040516102269190611514565b60405180910390f35b61024960048036038101906102449190611baa565b6106fc565b005b60008073ffffffffffffffffffffffffffffffffffffffff168373ffffffffffffffffffffffffffffffffffffffff16036102bb576040517f08c379a00000000000000000000000000000000000000000000000000000000081526004016102b290611cb3565b60405180910390fd5b60008083815260200190815260200160002060008473ffffffffffffffffffffffffffffffffffffffff1673ffffffffffffffffffffffffffffffffffffffff16815260200190815260200160002054905092915050565b60007fd9b67a26000000000000000000000000000000000000000000000000000000007bffffffffffffffffffffffffffffffffffffffffffffffffffffffff1916827bffffffffffffffffffffffffffffffffffffffffffffffffffffffff191614806103de57507f0e89341c000000000000000000000000000000000000000000000000000000007bffffffffffffffffffffffffffffffffffffffffffffffffffffffff1916827bffffffffffffffffffffffffffffffffffffffffffffffffffffffff1916145b806103ee57506103ed826107c0565b5b9050919050565b60606002805461040490611d02565b80601f016020809104026020016040519081016040528092919081815260200182805461043090611d02565b801561047d5780601f106104525761010080835404028352916020019161047d565b820191906000526020600020905b81548152906001019060200180831161046057829003601f168201915b50505050509050919050565b600381565b61049661082a565b73ffffffffffffffffffffffffffffffffffffffff168573ffffffffffffffffffffffffffffffffffffffff1614806104dc57506104db856104d661082a565b610668565b5b61051b576040517f08c379a000000000000000000000000000000000000000000000000000000000815260040161051290611da5565b60405180910390fd5b6105288585858585610832565b5050505050565b60608151835114610575576040517f08c379a000000000000000000000000000000000000000000000000000000000815260040161056c90611e37565b60405180910390fd5b6000835167ffffffffffffffff8111156105925761059161161c565b5b6040519080825280602002602001820160405280156105c05781602001602082028036833780820191505090505b50905060005b845181101561063d5761060d8582815181106105e5576105e4611e57565b5b6020026020010151858381518110610600576105ff611e57565b5b602002602001015161024b565b8282815181106106205761061f611e57565b5b6020026020010181815250508061063690611eb5565b90506105c6565b508091505092915050565b600181565b61065f61065861082a565b8383610b45565b5050565b600281565b6000600160008473ffffffffffffffffffffffffffffffffffffffff1673ffffffffffffffffffffffffffffffffffffffff16815260200190815260200160002060008373ffffffffffffffffffffffffffffffffffffffff1673ffffffffffffffffffffffffffffffffffffffff16815260200190815260200160002060009054906101000a900460ff16905092915050565b61070461082a565b73ffffffffffffffffffffffffffffffffffffffff168573ffffffffffffffffffffffffffffffffffffffff16148061074a57506107498561074461082a565b610668565b5b610789576040517f08c379a000000000000000000000000000000000000000000000000000000000815260040161078090611f6f565b60405180910390fd5b6107968585858585610cb1565b5050505050565b6000808273ffffffffffffffffffffffffffffffffffffffff163b119050919050565b60007f01ffc9a7000000000000000000000000000000000000000000000000000000007bffffffffffffffffffffffffffffffffffffffffffffffffffffffff1916827bffffffffffffffffffffffffffffffffffffffffffffffffffffffff1916149050919050565b600033905090565b8151835114610876576040517f08c379a000000000000000000000000000000000000000000000000000000000815260040161086d90612001565b60405180910390fd5b600073ffffffffffffffffffffffffffffffffffffffff168473ffffffffffffffffffffffffffffffffffffffff16036108e5576040517f08c379a00000000000000000000000000000000000000000000000000000000081526004016108dc90612093565b60405180910390fd5b60006108ef61082a565b90506108ff818787878787610f32565b60005b8451811015610ab05760008582815181106109205761091f611e57565b5b60200260200101519050600085838151811061093f5761093e611e57565b5b60200260200101519050600080600084815260200190815260200160002060008b73ffffffffffffffffffffffffffffffffffffffff1673ffffffffffffffffffffffffffffffffffffffff168152602001908152602001600020549050818110156109e0576040517f08c379a00000000000000000000000000000000000000000000000000000000081526004016109d790612125565b60405180910390fd5b81810360008085815260200190815260200160002060008c73ffffffffffffffffffffffffffffffffffffffff1673ffffffffffffffffffffffffffffffffffffffff168152602001908152602001600020819055508160008085815260200190815260200160002060008b73ffffffffffffffffffffffffffffffffffffffff1673ffffffffffffffffffffffffffffffffffffffff1681526020019081526020016000206000828254610a959190612145565b9250508190555050505080610aa990611eb5565b9050610902565b508473ffffffffffffffffffffffffffffffffffffffff168673ffffffffffffffffffffffffffffffffffffffff168273ffffffffffffffffffffffffffffffffffffffff167f4a39dc06d4c0dbc64b70af90fd698a233a518aa5d07e595d983b8c0526c8f7fb8787604051610b2792919061219b565b60405180910390a4610b3d818787878787610f3a565b505050505050565b8173ffffffffffffffffffffffffffffffffffffffff168373ffffffffffffffffffffffffffffffffffffffff1603610bb3576040517f08c379a0000000000000000000000000000000000000000000000000000000008152600401610baa90612244565b60405180910390fd5b80600160008573ffffffffffffffffffffffffffffffffffffffff1673ffffffffffffffffffffffffffffffffffffffff16815260200190815260200160002060008473ffffffffffffffffffffffffffffffffffffffff1673ffffffffffffffffffffffffffffffffffffffff16815260200190815260200160002060006101000a81548160ff0219169083151502179055508173ffffffffffffffffffffffffffffffffffffffff168373ffffffffffffffffffffffffffffffffffffffff167f17307eab39ab6107e8899845ad3d59bd9653f200f220920489ca2b5937696c3183604051610ca49190611514565b60405180910390a3505050565b600073ffffffffffffffffffffffffffffffffffffffff168473ffffffffffffffffffffffffffffffffffffffff1603610d20576040517f08c379a0000000000000000000000000000000000000000000000000000000008152600401610d1790612093565b60405180910390fd5b6000610d2a61082a565b9050610d4a818787610d3b88611111565b610d4488611111565b87610f32565b600080600086815260200190815260200160002060008873ffffffffffffffffffffffffffffffffffffffff1673ffffffffffffffffffffffffffffffffffffffff16815260200190815260200160002054905083811015610de1576040517f08c379a0000000000000000000000000000000000000000000000000000000008152600401610dd890612125565b60405180910390fd5b83810360008087815260200190815260200160002060008973ffffffffffffffffffffffffffffffffffffffff1673ffffffffffffffffffffffffffffffffffffffff168152602001908152602001600020819055508360008087815260200190815260200160002060008873ffffffffffffffffffffffffffffffffffffffff1673ffffffffffffffffffffffffffffffffffffffff1681526020019081526020016000206000828254610e969190612145565b925050819055508573ffffffffffffffffffffffffffffffffffffffff168773ffffffffffffffffffffffffffffffffffffffff168373ffffffffffffffffffffffffffffffffffffffff167fc3d58168c5ae7397731d063d5bbf3d657854427343f4c083240f7aacaa2d0f628888604051610f13929190612264565b60405180910390a4610f2982888888888861118b565b50505050505050565b505050505050565b610f598473ffffffffffffffffffffffffffffffffffffffff1661079d565b15611109578373ffffffffffffffffffffffffffffffffffffffff1663bc197c8187878686866040518663ffffffff1660e01b8152600401610f9f9594939291906122f1565b6020604051808303816000875af1925050508015610fdb57506040513d601f19601f82011682018060405250810190610fd8919061236e565b60015b61108057610fe76123a8565b806308c379a0036110435750610ffb6123ca565b806110065750611045565b806040517f08c379a000000000000000000000000000000000000000000000000000000000815260040161103a91906115f5565b60405180910390fd5b505b6040517f08c379a0000000000000000000000000000000000000000000000000000000008152600401611077906124cc565b60405180910390fd5b63bc197c8160e01b7bffffffffffffffffffffffffffffffffffffffffffffffffffffffff1916817bffffffffffffffffffffffffffffffffffffffffffffffffffffffff191614611107576040517f08c379a00000000000000000000000000000000000000000000000000000000081526004016110fe9061255e565b60405180910390fd5b505b505050505050565b60606000600167ffffffffffffffff8111156111305761112f61161c565b5b60405190808252806020026020018201604052801561115e5781602001602082028036833780820191505090505b509050828160008151811061117657611175611e57565b5b60200260200101818152505080915050919050565b6111aa8473ffffffffffffffffffffffffffffffffffffffff1661079d565b1561135a578373ffffffffffffffffffffffffffffffffffffffff1663f23a6e6187878686866040518663ffffffff1660e01b81526004016111f095949392919061257e565b6020604051808303816000875af192505050801561122c57506040513d601f19601f82011682018060405250810190611229919061236e565b60015b6112d1576112386123a8565b806308c379a003611294575061124c6123ca565b806112575750611296565b806040517f08c379a000000000000000000000000000000000000000000000000000000000815260040161128b91906115f5565b60405180910390fd5b505b6040517f08c379a00000000000000000000000000000000000000000000000000000000081526004016112c8906124cc565b60405180910390fd5b63f23a6e6160e01b7bffffffffffffffffffffffffffffffffffffffffffffffffffffffff1916817bffffffffffffffffffffffffffffffffffffffffffffffffffffffff191614611358576040517f08c379a000000000000000000000000000000000000000000000000000000000815260040161134f9061255e565b60405180910390fd5b505b505050505050565b6000604051905090565b600080fd5b600080fd5b600073ffffffffffffffffffffffffffffffffffffffff82169050919050565b60006113a182611376565b9050919050565b6113b181611396565b81146113bc57600080fd5b50565b6000813590506113ce816113a8565b92915050565b6000819050919050565b6113e7816113d4565b81146113f257600080fd5b50565b600081359050611404816113de565b92915050565b600080604083850312156114215761142061136c565b5b600061142f858286016113bf565b9250506020611440858286016113f5565b9150509250929050565b611453816113d4565b82525050565b600060208201905061146e600083018461144a565b92915050565b60007fffffffff0000000000000000000000000000000000000000000000000000000082169050919050565b6114a981611474565b81146114b457600080fd5b50565b6000813590506114c6816114a0565b92915050565b6000602082840312156114e2576114e161136c565b5b60006114f0848285016114b7565b91505092915050565b60008115159050919050565b61150e816114f9565b82525050565b60006020820190506115296000830184611505565b92915050565b6000602082840312156115455761154461136c565b5b6000611553848285016113f5565b91505092915050565b600081519050919050565b600082825260208201905092915050565b60005b8381101561159657808201518184015260208101905061157b565b838111156115a5576000848401525b50505050565b6000601f19601f8301169050919050565b60006115c78261155c565b6115d18185611567565b93506115e1818560208601611578565b6115ea816115ab565b840191505092915050565b6000602082019050818103600083015261160f81846115bc565b905092915050565b600080fd5b7f4e487b7100000000000000000000000000000000000000000000000000000000600052604160045260246000fd5b611654826115ab565b810181811067ffffffffffffffff821117156116735761167261161c565b5b80604052505050565b6000611686611362565b9050611692828261164b565b919050565b600067ffffffffffffffff8211156116b2576116b161161c565b5b602082029050602081019050919050565b600080fd5b60006116db6116d684611697565b61167c565b905080838252602082019050602084028301858111156116fe576116fd6116c3565b5b835b81811015611727578061171388826113f5565b845260208401935050602081019050611700565b5050509392505050565b600082601f83011261174657611745611617565b5b81356117568482602086016116c8565b91505092915050565b600080fd5b600067ffffffffffffffff82111561177f5761177e61161c565b5b611788826115ab565b9050602081019050919050565b82818337600083830152505050565b60006117b76117b284611764565b61167c565b9050828152602081018484840111156117d3576117d261175f565b5b6117de848285611795565b509392505050565b600082601f8301126117fb576117fa611617565b5b813561180b8482602086016117a4565b91505092915050565b600080600080600060a086880312156118305761182f61136c565b5b600061183e888289016113bf565b955050602061184f888289016113bf565b945050604086013567ffffffffffffffff8111156118705761186f611371565b5b61187c88828901611731565b935050606086013567ffffffffffffffff81111561189d5761189c611371565b5b6118a988828901611731565b925050608086013567ffffffffffffffff8111156118ca576118c9611371565b5b6118d6888289016117e6565b9150509295509295909350565b600067ffffffffffffffff8211156118fe576118fd61161c565b5b602082029050602081019050919050565b600061192261191d846118e3565b61167c565b90508083825260208201905060208402830185811115611945576119446116c3565b5b835b8181101561196e578061195a88826113bf565b845260208401935050602081019050611947565b5050509392505050565b600082601f83011261198d5761198c611617565b5b813561199d84826020860161190f565b91505092915050565b600080604083850312156119bd576119bc61136c565b5b600083013567ffffffffffffffff8111156119db576119da611371565b5b6119e785828601611978565b925050602083013567ffffffffffffffff811115611a0857611a07611371565b5b611a1485828601611731565b9150509250929050565b600081519050919050565b600082825260208201905092915050565b6000819050602082019050919050565b611a53816113d4565b82525050565b6000611a658383611a4a565b60208301905092915050565b6000602082019050919050565b6000611a8982611a1e565b611a938185611a29565b9350611a9e83611a3a565b8060005b83811015611acf578151611ab68882611a59565b9750611ac183611a71565b925050600181019050611aa2565b5085935050505092915050565b60006020820190508181036000830152611af68184611a7e565b905092915050565b611b07816114f9565b8114611b1257600080fd5b50565b600081359050611b2481611afe565b92915050565b60008060408385031215611b4157611b4061136c565b5b6000611b4f858286016113bf565b9250506020611b6085828601611b15565b9150509250929050565b60008060408385031215611b8157611b8061136c565b5b6000611b8f858286016113bf565b9250506020611ba0858286016113bf565b9150509250929050565b600080600080600060a08688031215611bc657611bc561136c565b5b6000611bd4888289016113bf565b9550506020611be5888289016113bf565b9450506040611bf6888289016113f5565b9350506060611c07888289016113f5565b925050608086013567ffffffffffffffff811115611c2857611c27611371565b5b611c34888289016117e6565b9150509295509295909350565b7f455243313135353a2062616c616e636520717565727920666f7220746865207a60008201527f65726f2061646472657373000000000000000000000000000000000000000000602082015250565b6000611c9d602b83611567565b9150611ca882611c41565b604082019050919050565b60006020820190508181036000830152611ccc81611c90565b9050919050565b7f4e487b7100000000000000000000000000000000000000000000000000000000600052602260045260246000fd5b60006002820490506001821680611d1a57607f821691505b602082108103611d2d57611d2c611cd3565b5b50919050565b7f455243313135353a207472616e736665722063616c6c6572206973206e6f742060008201527f6f776e6572206e6f7220617070726f7665640000000000000000000000000000602082015250565b6000611d8f603283611567565b9150611d9a82611d33565b604082019050919050565b60006020820190508181036000830152611dbe81611d82565b9050919050565b7f455243313135353a206163636f756e747320616e6420696473206c656e67746860008201527f206d69736d617463680000000000000000000000000000000000000000000000602082015250565b6000611e21602983611567565b9150611e2c82611dc5565b604082019050919050565b60006020820190508181036000830152611e5081611e14565b9050919050565b7f4e487b7100000000000000000000000000000000000000000000000000000000600052603260045260246000fd5b7f4e487b7100000000000000000000000000000000000000000000000000000000600052601160045260246000fd5b6000611ec0826113d4565b91507fffffffffffffffffffffffffffffffffffffffffffffffffffffffffffffffff8203611ef257611ef1611e86565b5b600182019050919050565b7f455243313135353a2063616c6c6572206973206e6f74206f776e6572206e6f7260008201527f20617070726f7665640000000000000000000000000000000000000000000000602082015250565b6000611f59602983611567565b9150611f6482611efd565b604082019050919050565b60006020820190508181036000830152611f8881611f4c565b9050919050565b7f455243313135353a2069647320616e6420616d6f756e7473206c656e6774682060008201527f6d69736d61746368000000000000000000000000000000000000000000000000602082015250565b6000611feb602883611567565b9150611ff682611f8f565b604082019050919050565b6000602082019050818103600083015261201a81611fde565b9050919050565b7f455243313135353a207472616e7366657220746f20746865207a65726f20616460008201527f6472657373000000000000000000000000000000000000000000000000000000602082015250565b600061207d602583611567565b915061208882612021565b604082019050919050565b600060208201905081810360008301526120ac81612070565b9050919050565b7f455243313135353a20696e73756666696369656e742062616c616e636520666f60008201527f72207472616e7366657200000000000000000000000000000000000000000000602082015250565b600061210f602a83611567565b915061211a826120b3565b604082019050919050565b6000602082019050818103600083015261213e81612102565b9050919050565b6000612150826113d4565b915061215b836113d4565b9250827fffffffffffffffffffffffffffffffffffffffffffffffffffffffffffffffff038211156121905761218f611e86565b5b828201905092915050565b600060408201905081810360008301526121b58185611a7e565b905081810360208301526121c98184611a7e565b90509392505050565b7f455243313135353a2073657474696e6720617070726f76616c2073746174757360008201527f20666f722073656c660000000000000000000000000000000000000000000000602082015250565b600061222e602983611567565b9150612239826121d2565b604082019050919050565b6000602082019050818103600083015261225d81612221565b9050919050565b6000604082019050612279600083018561144a565b612286602083018461144a565b9392505050565b61229681611396565b82525050565b600081519050919050565b600082825260208201905092915050565b60006122c38261229c565b6122cd81856122a7565b93506122dd818560208601611578565b6122e6816115ab565b840191505092915050565b600060a082019050612306600083018861228d565b612313602083018761228d565b81810360408301526123258186611a7e565b905081810360608301526123398185611a7e565b9050818103608083015261234d81846122b8565b90509695505050505050565b600081519050612368816114a0565b92915050565b6000602082840312156123845761238361136c565b5b600061239284828501612359565b91505092915050565b60008160e01c9050919050565b600060033d11156123c75760046000803e6123c460005161239b565b90505b90565b600060443d10612457576123dc611362565b60043d036004823e80513d602482011167ffffffffffffffff82111715612404575050612457565b808201805167ffffffffffffffff8111156124225750505050612457565b80602083010160043d03850181111561243f575050505050612457565b61244e8260200185018661164b565b82955050505050505b90565b7f455243313135353a207472616e7366657220746f206e6f6e204552433131353560008201527f526563656976657220696d706c656d656e746572000000000000000000000000602082015250565b60006124b6603483611567565b91506124c18261245a565b604082019050919050565b600060208201905081810360008301526124e5816124a9565b9050919050565b7f455243313135353a204552433131353552656365697665722072656a6563746560008201527f6420746f6b656e73000000000000000000000000000000000000000000000000602082015250565b6000612548602883611567565b9150612553826124ec565b604082019050919050565b600060208201905081810360008301526125778161253b565b9050919050565b600060a082019050612593600083018861228d565b6125a0602083018761228d565b6125ad604083018661144a565b6125ba606083018561144a565b81810360808301526125cc81846122b8565b9050969550505050505056fea2646970667358221220af55ed559fcff637728b0a4b545758c672317b83c425637ba44788d37c0991b064736f6c634300080f003368747470733a2f2f697066732e696f2f697066732f62616679626569686a6a6b77647278786a6e757765766c7174716d683369656763616463333273696f34776d6f37627632676266333471733334612f7b69647d2e6a736f6e",
  "linkReferences": {},
  "deployedLinkReferences": {}
}