{
  "_format": "hh-sol-artifact-1",
  "contractName": "XDSea721Staking",
  "sourceName": "newContracts/XDSea721Staking.sol",
  "abi": [
    {
      "inputs": [
        {
          "internalType": "address",
          "name": "_nftCollection",
          "type": "address"
        },
        {
          "internalType": "uint256[]",
          "name": "_tokenIds",
          "type": "uint256[]"
        },
        {
          "internalType": "uint256[]",
          "name": "_backedValues",
          "type": "uint256[]"
        },
        {
          "internalType": "uint256",
          "name": "_lockInPeriod",
          "type": "uint256"
        },
        {
          "internalType": "uint256",
          "name": "_timeOfPoolInitialization",
          "type": "uint256"
        }
      ],
      "stateMutability": "nonpayable",
      "type": "constructor"
    },
    {
      "inputs": [],
      "name": "BackedValueAlreadySet",
      "type": "error"
    },
    {
      "inputs": [],
      "name": "BackedValueNotSet",
      "type": "error"
    },
    {
      "inputs": [
        {
          "internalType": "uint256",
          "name": "tokenIdLength",
          "type": "uint256"
        },
        {
          "internalType": "uint256",
          "name": "backedValueLength",
          "type": "uint256"
        }
      ],
      "name": "LengthMismatch",
      "type": "error"
    },
    {
      "inputs": [
        {
          "internalType": "uint256",
          "name": "_tokenId",
          "type": "uint256"
        }
      ],
      "name": "NFTNotStaked",
      "type": "error"
    },
    {
      "inputs": [
        {
          "internalType": "uint256",
          "name": "tokenId",
          "type": "uint256"
        }
      ],
      "name": "NotEligibleForStaking",
      "type": "error"
    },
    {
      "inputs": [
        {
          "internalType": "uint256",
          "name": "balance",
          "type": "uint256"
        },
        {
          "internalType": "uint256",
          "name": "reward",
          "type": "uint256"
        }
      ],
      "name": "NotEnoughBalance",
      "type": "error"
    },
    {
      "inputs": [
        {
          "internalType": "address",
          "name": "owner",
          "type": "address"
        },
        {
          "internalType": "address",
          "name": "sender",
          "type": "address"
        }
      ],
      "name": "NotOwner",
      "type": "error"
    },
    {
      "inputs": [
        {
          "internalType": "address",
          "name": "owner",
          "type": "address"
        },
        {
          "internalType": "address",
          "name": "sender",
          "type": "address"
        }
      ],
      "name": "NotPoolOwner",
      "type": "error"
    },
    {
      "inputs": [
        {
          "internalType": "address",
          "name": "given",
          "type": "address"
        }
      ],
      "name": "NotTheCorrectContractAddress",
      "type": "error"
    },
    {
      "inputs": [
        {
          "internalType": "uint256",
          "name": "lockInEnd",
          "type": "uint256"
        },
        {
          "internalType": "uint256",
          "name": "currentTime",
          "type": "uint256"
        }
      ],
      "name": "StillLockedIn",
      "type": "error"
    },
    {
      "anonymous": false,
      "inputs": [
        {
          "indexed": true,
          "internalType": "address",
          "name": "from",
          "type": "address"
        },
        {
          "indexed": true,
          "internalType": "address",
          "name": "contractAddress",
          "type": "address"
        },
        {
          "indexed": false,
          "internalType": "uint256",
          "name": "value",
          "type": "uint256"
        }
      ],
      "name": "FundsReceived",
      "type": "event"
    },
    {
      "anonymous": false,
      "inputs": [
        {
          "indexed": true,
          "internalType": "address",
          "name": "operator",
          "type": "address"
        },
        {
          "indexed": true,
          "internalType": "address",
          "name": "from",
          "type": "address"
        },
        {
          "indexed": false,
          "internalType": "uint256[]",
          "name": "ids",
          "type": "uint256[]"
        },
        {
          "indexed": false,
          "internalType": "uint256[]",
          "name": "values",
          "type": "uint256[]"
        }
      ],
      "name": "XRC1155BatchReceived",
      "type": "event"
    },
    {
      "anonymous": false,
      "inputs": [
        {
          "indexed": true,
          "internalType": "address",
          "name": "operator",
          "type": "address"
        },
        {
          "indexed": true,
          "internalType": "address",
          "name": "from",
          "type": "address"
        },
        {
          "indexed": true,
          "internalType": "uint256",
          "name": "id",
          "type": "uint256"
        },
        {
          "indexed": false,
          "internalType": "uint256",
          "name": "value",
          "type": "uint256"
        }
      ],
      "name": "XRC1155Received",
      "type": "event"
    },
    {
      "anonymous": false,
      "inputs": [
        {
          "indexed": true,
          "internalType": "address",
          "name": "operator",
          "type": "address"
        },
        {
          "indexed": true,
          "internalType": "address",
          "name": "from",
          "type": "address"
        },
        {
          "indexed": true,
          "internalType": "uint256",
          "name": "tokenId",
          "type": "uint256"
        }
      ],
      "name": "XRC721Received",
      "type": "event"
    },
    {
      "inputs": [
        {
          "internalType": "uint256[]",
          "name": "_tokenIds",
          "type": "uint256[]"
        },
        {
          "internalType": "uint256[]",
          "name": "_backedValues",
          "type": "uint256[]"
        }
      ],
      "name": "addBackedValues",
      "outputs": [],
      "stateMutability": "nonpayable",
      "type": "function"
    },
    {
      "inputs": [],
      "name": "balanceOf",
      "outputs": [
        {
          "internalType": "uint256",
          "name": "",
          "type": "uint256"
        }
      ],
      "stateMutability": "view",
      "type": "function"
    },
    {
      "inputs": [
        {
          "internalType": "uint256",
          "name": "_tokenId",
          "type": "uint256"
        }
      ],
      "name": "calculateRewards",
      "outputs": [
        {
          "internalType": "uint256[]",
          "name": "",
          "type": "uint256[]"
        }
      ],
      "stateMutability": "view",
      "type": "function"
    },
    {
      "inputs": [
        {
          "internalType": "uint256",
          "name": "_tokenId",
          "type": "uint256"
        }
      ],
      "name": "checkBackedValue",
      "outputs": [
        {
          "internalType": "uint256",
          "name": "",
          "type": "uint256"
        }
      ],
      "stateMutability": "view",
      "type": "function"
    },
    {
      "inputs": [
        {
          "internalType": "uint256",
          "name": "_tokenId",
          "type": "uint256"
        }
      ],
      "name": "checkEligibility",
      "outputs": [
        {
          "internalType": "bool",
          "name": "",
          "type": "bool"
        }
      ],
      "stateMutability": "view",
      "type": "function"
    },
    {
      "inputs": [],
      "name": "checkRewards",
      "outputs": [
        {
          "components": [
            {
              "internalType": "address",
              "name": "tokenContract",
              "type": "address"
            },
            {
              "internalType": "uint256",
              "name": "rewardRate",
              "type": "uint256"
            },
            {
              "internalType": "uint256",
              "name": "rewardFrequency",
              "type": "uint256"
            },
            {
              "internalType": "enum XDSea721Staking.RewardType",
              "name": "rewardType",
              "type": "uint8"
            }
          ],
          "internalType": "struct XDSea721Staking.Reward[]",
          "name": "",
          "type": "tuple[]"
        }
      ],
      "stateMutability": "view",
      "type": "function"
    },
    {
      "inputs": [
        {
          "internalType": "uint256",
          "name": "_tokenId",
          "type": "uint256"
        }
      ],
      "name": "checkStakerAddress",
      "outputs": [
        {
          "internalType": "address",
          "name": "",
          "type": "address"
        }
      ],
      "stateMutability": "view",
      "type": "function"
    },
    {
      "inputs": [
        {
          "internalType": "uint256",
          "name": "_tokenId",
          "type": "uint256"
        }
      ],
      "name": "checkTimeOfStake",
      "outputs": [
        {
          "internalType": "uint256",
          "name": "",
          "type": "uint256"
        }
      ],
      "stateMutability": "view",
      "type": "function"
    },
    {
      "inputs": [
        {
          "internalType": "uint256",
          "name": "_tokenId",
          "type": "uint256"
        }
      ],
      "name": "claimRewards",
      "outputs": [],
      "stateMutability": "nonpayable",
      "type": "function"
    },
    {
      "inputs": [
        {
          "internalType": "uint256",
          "name": "amount",
          "type": "uint256"
        },
        {
          "internalType": "address",
          "name": "erc20address",
          "type": "address"
        }
      ],
      "name": "depositFunds",
      "outputs": [],
      "stateMutability": "payable",
      "type": "function"
    },
    {
      "inputs": [],
      "name": "isBackedValue",
      "outputs": [
        {
          "internalType": "bool",
          "name": "",
          "type": "bool"
        }
      ],
      "stateMutability": "view",
      "type": "function"
    },
    {
      "inputs": [],
      "name": "lockInPeriod",
      "outputs": [
        {
          "internalType": "uint256",
          "name": "",
          "type": "uint256"
        }
      ],
      "stateMutability": "view",
      "type": "function"
    },
    {
      "inputs": [],
      "name": "nftCollection",
      "outputs": [
        {
          "internalType": "address",
          "name": "",
          "type": "address"
        }
      ],
      "stateMutability": "view",
      "type": "function"
    },
    {
      "inputs": [
        {
          "internalType": "address",
          "name": "operator",
          "type": "address"
        },
        {
          "internalType": "address",
          "name": "from",
          "type": "address"
        },
        {
          "internalType": "uint256[]",
          "name": "tokenIds",
          "type": "uint256[]"
        },
        {
          "internalType": "uint256[]",
          "name": "values",
          "type": "uint256[]"
        },
        {
          "internalType": "bytes",
          "name": "",
          "type": "bytes"
        }
      ],
      "name": "onERC1155BatchReceived",
      "outputs": [
        {
          "internalType": "bytes4",
          "name": "",
          "type": "bytes4"
        }
      ],
      "stateMutability": "nonpayable",
      "type": "function"
    },
    {
      "inputs": [
        {
          "internalType": "address",
          "name": "operator",
          "type": "address"
        },
        {
          "internalType": "address",
          "name": "from",
          "type": "address"
        },
        {
          "internalType": "uint256",
          "name": "tokenId",
          "type": "uint256"
        },
        {
          "internalType": "uint256",
          "name": "value",
          "type": "uint256"
        },
        {
          "internalType": "bytes",
          "name": "",
          "type": "bytes"
        }
      ],
      "name": "onERC1155Received",
      "outputs": [
        {
          "internalType": "bytes4",
          "name": "",
          "type": "bytes4"
        }
      ],
      "stateMutability": "nonpayable",
      "type": "function"
    },
    {
      "inputs": [
        {
          "internalType": "address",
          "name": "operator",
          "type": "address"
        },
        {
          "internalType": "address",
          "name": "from",
          "type": "address"
        },
        {
          "internalType": "uint256",
          "name": "tokenId",
          "type": "uint256"
        },
        {
          "internalType": "bytes",
          "name": "",
          "type": "bytes"
        }
      ],
      "name": "onERC721Received",
      "outputs": [
        {
          "internalType": "bytes4",
          "name": "",
          "type": "bytes4"
        }
      ],
      "stateMutability": "nonpayable",
      "type": "function"
    },
    {
      "inputs": [],
      "name": "poolOwner",
      "outputs": [
        {
          "internalType": "address",
          "name": "",
          "type": "address"
        }
      ],
      "stateMutability": "view",
      "type": "function"
    },
    {
      "inputs": [
        {
          "internalType": "uint256[]",
          "name": "_tokenIds",
          "type": "uint256[]"
        }
      ],
      "name": "removeBackedValues",
      "outputs": [],
      "stateMutability": "nonpayable",
      "type": "function"
    },
    {
      "inputs": [],
      "name": "rewardFrequency",
      "outputs": [
        {
          "internalType": "uint256",
          "name": "",
          "type": "uint256"
        }
      ],
      "stateMutability": "view",
      "type": "function"
    },
    {
      "inputs": [],
      "name": "rewardRate",
      "outputs": [
        {
          "internalType": "uint256",
          "name": "",
          "type": "uint256"
        }
      ],
      "stateMutability": "view",
      "type": "function"
    },
    {
      "inputs": [
        {
          "internalType": "uint256",
          "name": "",
          "type": "uint256"
        }
      ],
      "name": "rewards",
      "outputs": [
        {
          "internalType": "address",
          "name": "tokenContract",
          "type": "address"
        },
        {
          "internalType": "uint256",
          "name": "rewardRate",
          "type": "uint256"
        },
        {
          "internalType": "uint256",
          "name": "rewardFrequency",
          "type": "uint256"
        },
        {
          "internalType": "enum XDSea721Staking.RewardType",
          "name": "rewardType",
          "type": "uint8"
        }
      ],
      "stateMutability": "view",
      "type": "function"
    },
    {
      "inputs": [
        {
          "internalType": "address[]",
          "name": "_tokenAddresses",
          "type": "address[]"
        },
        {
          "internalType": "uint256[]",
          "name": "_rewardRates",
          "type": "uint256[]"
        },
        {
          "internalType": "uint256[]",
          "name": "_rewardFrequencies",
          "type": "uint256[]"
        },
        {
          "internalType": "uint256[]",
          "name": "_rewardTypes",
          "type": "uint256[]"
        }
      ],
      "name": "setRewards",
      "outputs": [],
      "stateMutability": "nonpayable",
      "type": "function"
    },
    {
      "inputs": [
        {
          "internalType": "uint256",
          "name": "_tokenId",
          "type": "uint256"
        }
      ],
      "name": "stake",
      "outputs": [],
      "stateMutability": "nonpayable",
      "type": "function"
    },
    {
      "inputs": [
        {
          "internalType": "uint256",
          "name": "",
          "type": "uint256"
        }
      ],
      "name": "stakedNFTs",
      "outputs": [
        {
          "internalType": "bool",
          "name": "isEligible",
          "type": "bool"
        },
        {
          "internalType": "uint256",
          "name": "backedValue",
          "type": "uint256"
        },
        {
          "internalType": "address",
          "name": "stakerAddress",
          "type": "address"
        },
        {
          "internalType": "uint256",
          "name": "timeOfStake",
          "type": "uint256"
        },
        {
          "internalType": "uint256",
          "name": "timeOfLastClaim",
          "type": "uint256"
        }
      ],
      "stateMutability": "view",
      "type": "function"
    },
    {
      "inputs": [
        {
          "internalType": "bytes4",
          "name": "interfaceID",
          "type": "bytes4"
        }
      ],
      "name": "supportsInterface",
      "outputs": [
        {
          "internalType": "bool",
          "name": "",
          "type": "bool"
        }
      ],
      "stateMutability": "pure",
      "type": "function"
    },
    {
      "inputs": [],
      "name": "timeOfPoolInitialization",
      "outputs": [
        {
          "internalType": "uint256",
          "name": "",
          "type": "uint256"
        }
      ],
      "stateMutability": "view",
      "type": "function"
    },
    {
      "inputs": [
        {
          "internalType": "uint256[]",
          "name": "_tokenIds",
          "type": "uint256[]"
        },
        {
          "internalType": "uint256[]",
          "name": "_backedValues",
          "type": "uint256[]"
        }
      ],
      "name": "updateBackedValues",
      "outputs": [],
      "stateMutability": "nonpayable",
      "type": "function"
    },
    {
      "inputs": [
        {
          "internalType": "uint256[]",
          "name": "_tokenIds",
          "type": "uint256[]"
        },
        {
          "internalType": "bool[]",
          "name": "_eligibility",
          "type": "bool[]"
        }
      ],
      "name": "updateEligibility",
      "outputs": [],
      "stateMutability": "nonpayable",
      "type": "function"
    },
    {
      "inputs": [
        {
          "internalType": "uint256",
          "name": "_lockInPeriod",
          "type": "uint256"
        }
      ],
      "name": "updateLockInPeriod",
      "outputs": [],
      "stateMutability": "nonpayable",
      "type": "function"
    },
    {
      "inputs": [
        {
          "internalType": "address",
          "name": "_poolOwner",
          "type": "address"
        }
      ],
      "name": "updatePoolOwner",
      "outputs": [],
      "stateMutability": "nonpayable",
      "type": "function"
    },
    {
      "inputs": [
        {
          "internalType": "uint256",
          "name": "_timeOfPoolInitialization",
          "type": "uint256"
        }
      ],
      "name": "updateTimeOfPoolInitialization",
      "outputs": [],
      "stateMutability": "nonpayable",
      "type": "function"
    },
    {
      "inputs": [
        {
          "internalType": "uint256",
          "name": "_tokenId",
          "type": "uint256"
        }
      ],
      "name": "withdraw",
      "outputs": [],
      "stateMutability": "nonpayable",
      "type": "function"
    },
    {
      "stateMutability": "payable",
      "type": "receive"
    }
  ],
  "bytecode": "0x60a06040523480156200001157600080fd5b5060405162004ec538038062004ec583398181016040528101906200003791906200047c565b600160008190555033600160006101000a81548173ffffffffffffffffffffffffffffffffffffffff021916908373ffffffffffffffffffffffffffffffffffffffff1602179055508473ffffffffffffffffffffffffffffffffffffffff1660808173ffffffffffffffffffffffffffffffffffffffff1681525050620000c5846200016360201b60201c565b60008351146200014a5782518451146200011c57835183516040517fab8b67c60000000000000000000000000000000000000000000000000000000081526004016200011392919062000553565b60405180910390fd5b6200012e8484620001d660201b60201c565b6001600560006101000a81548160ff0219169083151502179055505b816002819055508060088190555050505050506200062b565b60005b8151811015620001d2576001600660008484815181106200018c576200018b62000580565b5b6020026020010151815260200190815260200160002060000160006101000a81548160ff0219169083151502179055508080620001c990620005de565b91505062000166565b5050565b60005b82518110156200024e57818181518110620001f957620001f862000580565b5b6020026020010151600660008584815181106200021b576200021a62000580565b5b602002602001015181526020019081526020016000206001018190555080806200024590620005de565b915050620001d9565b505050565b6000604051905090565b600080fd5b600080fd5b600073ffffffffffffffffffffffffffffffffffffffff82169050919050565b6000620002948262000267565b9050919050565b620002a68162000287565b8114620002b257600080fd5b50565b600081519050620002c6816200029b565b92915050565b600080fd5b6000601f19601f8301169050919050565b7f4e487b7100000000000000000000000000000000000000000000000000000000600052604160045260246000fd5b6200031c82620002d1565b810181811067ffffffffffffffff821117156200033e576200033d620002e2565b5b80604052505050565b60006200035362000253565b905062000361828262000311565b919050565b600067ffffffffffffffff821115620003845762000383620002e2565b5b602082029050602081019050919050565b600080fd5b6000819050919050565b620003af816200039a565b8114620003bb57600080fd5b50565b600081519050620003cf81620003a4565b92915050565b6000620003ec620003e68462000366565b62000347565b9050808382526020820190506020840283018581111562000412576200041162000395565b5b835b818110156200043f57806200042a8882620003be565b84526020840193505060208101905062000414565b5050509392505050565b600082601f830112620004615762000460620002cc565b5b815162000473848260208601620003d5565b91505092915050565b600080600080600060a086880312156200049b576200049a6200025d565b5b6000620004ab88828901620002b5565b955050602086015167ffffffffffffffff811115620004cf57620004ce62000262565b5b620004dd8882890162000449565b945050604086015167ffffffffffffffff81111562000501576200050062000262565b5b6200050f8882890162000449565b93505060606200052288828901620003be565b92505060806200053588828901620003be565b9150509295509295909350565b6200054d816200039a565b82525050565b60006040820190506200056a600083018562000542565b62000579602083018462000542565b9392505050565b7f4e487b7100000000000000000000000000000000000000000000000000000000600052603260045260246000fd5b7f4e487b7100000000000000000000000000000000000000000000000000000000600052601160045260246000fd5b6000620005eb826200039a565b91507fffffffffffffffffffffffffffffffffffffffffffffffffffffffffffffffff820362000620576200061f620005af565b5b600182019050919050565b60805161486262000663600039600081816116d401528181611f640152818161223f015281816122f4015261243101526148626000f3fe6080604052600436106101e75760003560e01c80637f38d1d211610102578063d3ea435011610095578063f23a6e6111610064578063f23a6e6114610855578063f301af4214610892578063f785de23146108d2578063fbfd7fac146108ee5761030a565b8063d3ea435014610787578063d3f3315a146107c4578063e8dcecc8146107ed578063f02a5613146108185761030a565b8063b865749d116100d1578063b865749d146106b5578063bc197c81146106f6578063cf0b227014610733578063cfe8ad4c1461075e5761030a565b80637f38d1d2146105e9578063963e58e914610612578063a694fc3a1461064f578063a69c2537146106785761030a565b80632eaed0cc1161017a57806366a7f11b1161014957806366a7f11b1461052b578063722713f7146105565780637b0a47ee146105815780637b39fed6146105ac5761030a565b80632eaed0cc14610485578063310312d3146104ae57806336af1204146104d75780636588103b146105005761030a565b80631d58e1dd116101b65780631d58e1dd146103dd57806329a5e748146104085780632aeaa291146104315780632e1a7d4d1461045c5761030a565b806301ffc9a71461030f578063053771881461034c5780630962ef7914610377578063150b7a02146103a05761030a565b3661030a57600160009054906101000a900473ffffffffffffffffffffffffffffffffffffffff1673ffffffffffffffffffffffffffffffffffffffff163373ffffffffffffffffffffffffffffffffffffffff16146102a257600160009054906101000a900473ffffffffffffffffffffffffffffffffffffffff16336040517f15a39f35000000000000000000000000000000000000000000000000000000008152600401610299929190613469565b60405180910390fd5b600073ffffffffffffffffffffffffffffffffffffffff163373ffffffffffffffffffffffffffffffffffffffff167f7be377fc58fe5de9bdbdbb0bc41cba05cf72996fbddb2a421c0c52e405105d8c3460405161030091906134ab565b60405180910390a3005b600080fd5b34801561031b57600080fd5b5061033660048036038101906103319190613532565b610917565b604051610343919061357a565b60405180910390f35b34801561035857600080fd5b506103616109a9565b60405161036e91906134ab565b60405180910390f35b34801561038357600080fd5b5061039e600480360381019061039991906135c1565b6109af565b005b3480156103ac57600080fd5b506103c760048036038101906103c29190613760565b6112e1565b6040516103d491906137f2565b60405180910390f35b3480156103e957600080fd5b506103f2611350565b6040516103ff91906134ab565b60405180910390f35b34801561041457600080fd5b5061042f600480360381019061042a91906135c1565b611356565b005b34801561043d57600080fd5b50610446611416565b60405161045391906139a6565b60405180910390f35b34801561046857600080fd5b50610483600480360381019061047e91906135c1565b61151a565b005b34801561049157600080fd5b506104ac60048036038101906104a79190613a90565b6117de565b005b3480156104ba57600080fd5b506104d560048036038101906104d091906135c1565b61194e565b005b3480156104e357600080fd5b506104fe60048036038101906104f99190613b9c565b611a0e565b005b34801561050c57600080fd5b50610515611f62565b6040516105229190613c73565b60405180910390f35b34801561053757600080fd5b50610540611f86565b60405161054d91906134ab565b60405180910390f35b34801561056257600080fd5b5061056b611f8c565b60405161057891906134ab565b60405180910390f35b34801561058d57600080fd5b5061059661204a565b6040516105a391906134ab565b60405180910390f35b3480156105b857600080fd5b506105d360048036038101906105ce91906135c1565b612050565b6040516105e0919061357a565b60405180910390f35b3480156105f557600080fd5b50610610600480360381019061060b9190613d7d565b61207d565b005b34801561061e57600080fd5b50610639600480360381019061063491906135c1565b6121b9565b60405161064691906134ab565b60405180910390f35b34801561065b57600080fd5b50610676600480360381019061067191906135c1565b6121d9565b005b34801561068457600080fd5b5061069f600480360381019061069a91906135c1565b612575565b6040516106ac9190613c73565b60405180910390f35b3480156106c157600080fd5b506106dc60048036038101906106d791906135c1565b6125b5565b6040516106ed959493929190613df5565b60405180910390f35b34801561070257600080fd5b5061071d60048036038101906107189190613e48565b612618565b60405161072a91906137f2565b60405180910390f35b34801561073f57600080fd5b50610748612694565b6040516107559190613c73565b60405180910390f35b34801561076a57600080fd5b5061078560048036038101906107809190613f17565b6126ba565b005b34801561079357600080fd5b506107ae60048036038101906107a991906135c1565b6127b4565b6040516107bb9190613ff3565b60405180910390f35b3480156107d057600080fd5b506107eb60048036038101906107e69190614015565b6129dc565b005b3480156107f957600080fd5b50610802612b95565b60405161080f919061357a565b60405180910390f35b34801561082457600080fd5b5061083f600480360381019061083a91906135c1565b612ba8565b60405161084c91906134ab565b60405180910390f35b34801561086157600080fd5b5061087c6004803603810190610877919061408d565b612bc8565b60405161088991906137f2565b60405180910390f35b34801561089e57600080fd5b506108b960048036038101906108b491906135c1565b612c43565b6040516108c99493929190614133565b60405180910390f35b6108ec60048036038101906108e79190614178565b612cb0565b005b3480156108fa57600080fd5b5061091560048036038101906109109190614015565b612ee2565b005b60006301ffc9a760e01b827bffffffffffffffffffffffffffffffffffffffffffffffffffffffff19161480610972575063150b7a0260e01b827bffffffffffffffffffffffffffffffffffffffffffffffffffffffff1916145b806109a25750634e2312e060e01b827bffffffffffffffffffffffffffffffffffffffffffffffffffffffff1916145b9050919050565b60025481565b6002600054036109f4576040517f08c379a00000000000000000000000000000000000000000000000000000000081526004016109eb90614215565b60405180910390fd5b60026000819055506000600660008381526020019081526020016000206004015403610a5757806040517f735b1d42000000000000000000000000000000000000000000000000000000008152600401610a4e91906134ab565b60405180910390fd5b6006600082815260200190815260200160002060020160009054906101000a900473ffffffffffffffffffffffffffffffffffffffff1673ffffffffffffffffffffffffffffffffffffffff163373ffffffffffffffffffffffffffffffffffffffff1614610b35576006600082815260200190815260200160002060020160009054906101000a900473ffffffffffffffffffffffffffffffffffffffff16336040517f23295f0e000000000000000000000000000000000000000000000000000000008152600401610b2c929190613469565b60405180910390fd5b6000600660008381526020019081526020016000206004015442610b599190614264565b905060005b6007805490508110156112b957600060078281548110610b8157610b80614298565b5b90600052602060002090600402016002015483610b9e91906142f6565b9050600560009054906101000a900460ff1615610f49576000670de0b6b3a76400006006600087815260200190815260200160002060010154610be191906142f6565b60078481548110610bf557610bf4614298565b5b906000526020600020906004020160010154610c119190614327565b82610c1c9190614327565b905060006001811115610c3257610c31613857565b5b60078481548110610c4657610c45614298565b5b906000526020600020906004020160030160009054906101000a900460ff166001811115610c7757610c76613857565b5b03610d0f5780471015610cc35747816040517f8f0f4206000000000000000000000000000000000000000000000000000000008152600401610cba929190614381565b60405180910390fd5b3373ffffffffffffffffffffffffffffffffffffffff166108fc829081150290604051600060405180830381858888f19350505050158015610d09573d6000803e3d6000fd5b50610f43565b8060078481548110610d2457610d23614298565b5b906000526020600020906004020160000160009054906101000a900473ffffffffffffffffffffffffffffffffffffffff1673ffffffffffffffffffffffffffffffffffffffff166370a08231306040518263ffffffff1660e01b8152600401610d8e9190613c73565b602060405180830381865afa158015610dab573d6000803e3d6000fd5b505050506040513d601f19601f82011682018060405250810190610dcf91906143bf565b1015610ed25760078381548110610de957610de8614298565b5b906000526020600020906004020160000160009054906101000a900473ffffffffffffffffffffffffffffffffffffffff1673ffffffffffffffffffffffffffffffffffffffff166370a08231306040518263ffffffff1660e01b8152600401610e539190613c73565b602060405180830381865afa158015610e70573d6000803e3d6000fd5b505050506040513d601f19601f82011682018060405250810190610e9491906143bf565b816040517f8f0f4206000000000000000000000000000000000000000000000000000000008152600401610ec9929190614381565b60405180910390fd5b610f42338260078681548110610eeb57610eea614298565b5b906000526020600020906004020160000160009054906101000a900473ffffffffffffffffffffffffffffffffffffffff1673ffffffffffffffffffffffffffffffffffffffff1661309c9092919063ffffffff16565b5b506112a5565b600060078381548110610f5f57610f5e614298565b5b90600052602060002090600402016001015482610f7c9190614327565b905060006001811115610f9257610f91613857565b5b60078481548110610fa657610fa5614298565b5b906000526020600020906004020160030160009054906101000a900460ff166001811115610fd757610fd6613857565b5b0361106f57804710156110235747816040517f8f0f420600000000000000000000000000000000000000000000000000000000815260040161101a929190614381565b60405180910390fd5b3373ffffffffffffffffffffffffffffffffffffffff166108fc829081150290604051600060405180830381858888f19350505050158015611069573d6000803e3d6000fd5b506112a3565b806007848154811061108457611083614298565b5b906000526020600020906004020160000160009054906101000a900473ffffffffffffffffffffffffffffffffffffffff1673ffffffffffffffffffffffffffffffffffffffff166370a08231306040518263ffffffff1660e01b81526004016110ee9190613c73565b602060405180830381865afa15801561110b573d6000803e3d6000fd5b505050506040513d601f19601f8201168201806040525081019061112f91906143bf565b1015611232576007838154811061114957611148614298565b5b906000526020600020906004020160000160009054906101000a900473ffffffffffffffffffffffffffffffffffffffff1673ffffffffffffffffffffffffffffffffffffffff166370a08231306040518263ffffffff1660e01b81526004016111b39190613c73565b602060405180830381865afa1580156111d0573d6000803e3d6000fd5b505050506040513d601f19601f820116820180604052508101906111f491906143bf565b816040517f8f0f4206000000000000000000000000000000000000000000000000000000008152600401611229929190614381565b60405180910390fd5b6112a233826007868154811061124b5761124a614298565b5b906000526020600020906004020160000160009054906101000a900473ffffffffffffffffffffffffffffffffffffffff1673ffffffffffffffffffffffffffffffffffffffff1661309c9092919063ffffffff16565b5b505b5080806112b1906143ec565b915050610b5e565b5042600660008481526020019081526020016000206004018190555050600160008190555050565b6000828473ffffffffffffffffffffffffffffffffffffffff168673ffffffffffffffffffffffffffffffffffffffff167f73d4ce89f05f99f34390b94c04963af5d50e8948e93a3756fbc1769377a975ce60405160405180910390a463150b7a0260e01b9050949350505050565b60045481565b600160009054906101000a900473ffffffffffffffffffffffffffffffffffffffff1673ffffffffffffffffffffffffffffffffffffffff163373ffffffffffffffffffffffffffffffffffffffff161461140c57600160009054906101000a900473ffffffffffffffffffffffffffffffffffffffff16336040517f15a39f35000000000000000000000000000000000000000000000000000000008152600401611403929190613469565b60405180910390fd5b8060088190555050565b60606007805480602002602001604051908101604052809291908181526020016000905b8282101561151157838290600052602060002090600402016040518060800160405290816000820160009054906101000a900473ffffffffffffffffffffffffffffffffffffffff1673ffffffffffffffffffffffffffffffffffffffff1673ffffffffffffffffffffffffffffffffffffffff16815260200160018201548152602001600282015481526020016003820160009054906101000a900460ff1660018111156114ec576114eb613857565b5b60018111156114fe576114fd613857565b5b815250508152602001906001019061143a565b50505050905090565b60026000540361155f576040517f08c379a000000000000000000000000000000000000000000000000000000000815260040161155690614215565b60405180910390fd5b60026000819055503373ffffffffffffffffffffffffffffffffffffffff166006600083815260200190815260200160002060020160009054906101000a900473ffffffffffffffffffffffffffffffffffffffff1673ffffffffffffffffffffffffffffffffffffffff1614611645576006600082815260200190815260200160002060020160009054906101000a900473ffffffffffffffffffffffffffffffffffffffff16336040517f23295f0e00000000000000000000000000000000000000000000000000000000815260040161163c929190613469565b60405180910390fd5b42600254600660008481526020019081526020016000206003015461166a9190614434565b11156116d25760025460066000838152602001908152602001600020600301546116949190614434565b426040517f323737860000000000000000000000000000000000000000000000000000000081526004016116c9929190614381565b60405180910390fd5b7f000000000000000000000000000000000000000000000000000000000000000073ffffffffffffffffffffffffffffffffffffffff166342842e0e3033846040518463ffffffff1660e01b815260040161172f9392919061448a565b600060405180830381600087803b15801561174957600080fd5b505af115801561175d573d6000803e3d6000fd5b5050505060006006600083815260200190815260200160002060020160006101000a81548173ffffffffffffffffffffffffffffffffffffffff021916908373ffffffffffffffffffffffffffffffffffffffff16021790555060006006600083815260200190815260200160002060030181905550600160008190555050565b600160009054906101000a900473ffffffffffffffffffffffffffffffffffffffff1673ffffffffffffffffffffffffffffffffffffffff163373ffffffffffffffffffffffffffffffffffffffff161461189457600160009054906101000a900473ffffffffffffffffffffffffffffffffffffffff16336040517f15a39f3500000000000000000000000000000000000000000000000000000000815260040161188b929190613469565b60405180910390fd5b600560009054906101000a900460ff166118da576040517f4c9488d900000000000000000000000000000000000000000000000000000000815260040160405180910390fd5b6000600560006101000a81548160ff02191690831515021790555060005b815181101561194a5760006006600084848151811061191a57611919614298565b5b60200260200101518152602001908152602001600020600101819055508080611942906143ec565b9150506118f8565b5050565b600160009054906101000a900473ffffffffffffffffffffffffffffffffffffffff1673ffffffffffffffffffffffffffffffffffffffff163373ffffffffffffffffffffffffffffffffffffffff1614611a0457600160009054906101000a900473ffffffffffffffffffffffffffffffffffffffff16336040517f15a39f350000000000000000000000000000000000000000000000000000000081526004016119fb929190613469565b60405180910390fd5b8060028190555050565b600160009054906101000a900473ffffffffffffffffffffffffffffffffffffffff1673ffffffffffffffffffffffffffffffffffffffff163373ffffffffffffffffffffffffffffffffffffffff1614611ac457600160009054906101000a900473ffffffffffffffffffffffffffffffffffffffff16336040517f15a39f35000000000000000000000000000000000000000000000000000000008152600401611abb929190613469565b60405180910390fd5b8251845114611b0e57835183516040517fab8b67c6000000000000000000000000000000000000000000000000000000008152600401611b05929190614381565b60405180910390fd5b8151845114611b5857835182516040517fab8b67c6000000000000000000000000000000000000000000000000000000008152600401611b4f929190614381565b60405180910390fd5b8151835114611ba257825182516040517fab8b67c6000000000000000000000000000000000000000000000000000000008152600401611b99929190614381565b60405180910390fd5b8051845114611bec57835181516040517fab8b67c6000000000000000000000000000000000000000000000000000000008152600401611be3929190614381565b60405180910390fd5b8051835114611c3657825181516040517fab8b67c6000000000000000000000000000000000000000000000000000000008152600401611c2d929190614381565b60405180910390fd5b8051825114611c8057815181516040517fab8b67c6000000000000000000000000000000000000000000000000000000008152600401611c77929190614381565b60405180910390fd5b60005b8451811015611f5b57600080838381518110611ca257611ca1614298565b5b602002602001015103611d5d57600073ffffffffffffffffffffffffffffffffffffffff16868381518110611cda57611cd9614298565b5b602002602001015173ffffffffffffffffffffffffffffffffffffffff1614611d5457858281518110611d1057611d0f614298565b5b60200260200101516040517fdaf08c1c000000000000000000000000000000000000000000000000000000008152600401611d4b9190613c73565b60405180910390fd5b60009050611df2565b6000868381518110611d7257611d71614298565b5b602002602001015190508073ffffffffffffffffffffffffffffffffffffffff166318160ddd6040518163ffffffff1660e01b8152600401602060405180830381865afa158015611dc7573d6000803e3d6000fd5b505050506040513d601f19601f82011682018060405250810190611deb91906143bf565b5060019150505b60006040518060800160405280888581518110611e1257611e11614298565b5b602002602001015173ffffffffffffffffffffffffffffffffffffffff168152602001878581518110611e4857611e47614298565b5b60200260200101518152602001868581518110611e6857611e67614298565b5b60200260200101518152602001836001811115611e8857611e87613857565b5b8152509050600781908060018154018082558091505060019003906000526020600020906004020160009091909190915060008201518160000160006101000a81548173ffffffffffffffffffffffffffffffffffffffff021916908373ffffffffffffffffffffffffffffffffffffffff160217905550602082015181600101556040820151816002015560608201518160030160006101000a81548160ff02191690836001811115611f3f57611f3e613857565b5b0217905550505050508080611f53906143ec565b915050611c83565b5050505050565b7f000000000000000000000000000000000000000000000000000000000000000081565b60085481565b6000600160009054906101000a900473ffffffffffffffffffffffffffffffffffffffff1673ffffffffffffffffffffffffffffffffffffffff163373ffffffffffffffffffffffffffffffffffffffff161461204457600160009054906101000a900473ffffffffffffffffffffffffffffffffffffffff16336040517f15a39f3500000000000000000000000000000000000000000000000000000000815260040161203b929190613469565b60405180910390fd5b47905090565b60035481565b60006006600083815260200190815260200160002060000160009054906101000a900460ff169050919050565b600160009054906101000a900473ffffffffffffffffffffffffffffffffffffffff1673ffffffffffffffffffffffffffffffffffffffff163373ffffffffffffffffffffffffffffffffffffffff161461213357600160009054906101000a900473ffffffffffffffffffffffffffffffffffffffff16336040517f15a39f3500000000000000000000000000000000000000000000000000000000815260040161212a929190613469565b60405180910390fd5b60005b82518110156121b45781818151811061215257612151614298565b5b60200260200101516006600085848151811061217157612170614298565b5b6020026020010151815260200190815260200160002060000160006101000a81548160ff02191690831515021790555080806121ac906143ec565b915050612136565b505050565b600060066000838152602001908152602001600020600101549050919050565b60026000540361221e576040517f08c379a000000000000000000000000000000000000000000000000000000000815260040161221590614215565b60405180910390fd5b60026000819055503373ffffffffffffffffffffffffffffffffffffffff167f000000000000000000000000000000000000000000000000000000000000000073ffffffffffffffffffffffffffffffffffffffff16636352211e836040518263ffffffff1660e01b815260040161229691906134ab565b602060405180830381865afa1580156122b3573d6000803e3d6000fd5b505050506040513d601f19601f820116820180604052508101906122d791906144d6565b73ffffffffffffffffffffffffffffffffffffffff16146123ca577f000000000000000000000000000000000000000000000000000000000000000073ffffffffffffffffffffffffffffffffffffffff16636352211e826040518263ffffffff1660e01b815260040161234b91906134ab565b602060405180830381865afa158015612368573d6000803e3d6000fd5b505050506040513d601f19601f8201168201806040525081019061238c91906144d6565b336040517f23295f0e0000000000000000000000000000000000000000000000000000000081526004016123c1929190613469565b60405180910390fd5b6006600082815260200190815260200160002060000160009054906101000a900460ff1661242f57806040517fcfa6511b00000000000000000000000000000000000000000000000000000000815260040161242691906134ab565b60405180910390fd5b7f000000000000000000000000000000000000000000000000000000000000000073ffffffffffffffffffffffffffffffffffffffff166342842e0e3330846040518463ffffffff1660e01b815260040161248c9392919061448a565b600060405180830381600087803b1580156124a657600080fd5b505af11580156124ba573d6000803e3d6000fd5b50505050336006600083815260200190815260200160002060020160006101000a81548173ffffffffffffffffffffffffffffffffffffffff021916908373ffffffffffffffffffffffffffffffffffffffff160217905550426006600083815260200190815260200160002060030181905550600060066000838152602001908152602001600020600401540361256a5760085460066000838152602001908152602001600020600401819055505b600160008190555050565b60006006600083815260200190815260200160002060020160009054906101000a900473ffffffffffffffffffffffffffffffffffffffff169050919050565b60066020528060005260406000206000915090508060000160009054906101000a900460ff16908060010154908060020160009054906101000a900473ffffffffffffffffffffffffffffffffffffffff16908060030154908060040154905085565b60008473ffffffffffffffffffffffffffffffffffffffff168673ffffffffffffffffffffffffffffffffffffffff167f9b09a98d4f66ca67c7bcc8db7b2f69356715ecbfe955feb24e615d70143b15e78686604051612679929190614503565b60405180910390a363bc197c8160e01b905095945050505050565b600160009054906101000a900473ffffffffffffffffffffffffffffffffffffffff1681565b600160009054906101000a900473ffffffffffffffffffffffffffffffffffffffff1673ffffffffffffffffffffffffffffffffffffffff163373ffffffffffffffffffffffffffffffffffffffff161461277057600160009054906101000a900473ffffffffffffffffffffffffffffffffffffffff16336040517f15a39f35000000000000000000000000000000000000000000000000000000008152600401612767929190613469565b60405180910390fd5b80600160006101000a81548173ffffffffffffffffffffffffffffffffffffffff021916908373ffffffffffffffffffffffffffffffffffffffff16021790555050565b6060600060066000848152602001908152602001600020600401540361281157816040517f735b1d4200000000000000000000000000000000000000000000000000000000815260040161280891906134ab565b60405180910390fd5b60006006600084815260200190815260200160002060040154426128359190614264565b9050600060078054905067ffffffffffffffff81111561285857612857613635565b5b6040519080825280602002602001820160405280156128865781602001602082028036833780820191505090505b50905060005b6007805490508110156129d1576000600782815481106128af576128ae614298565b5b906000526020600020906004020160020154846128cc91906142f6565b9050600560009054906101000a900460ff161561296c57670de0b6b3a7640000600660008881526020019081526020016000206001015461290d91906142f6565b6007838154811061292157612920614298565b5b90600052602060002090600402016001015461293d9190614327565b816129489190614327565b83838151811061295b5761295a614298565b5b6020026020010181815250506129bd565b600782815481106129805761297f614298565b5b9060005260206000209060040201600101548161299d9190614327565b8383815181106129b0576129af614298565b5b6020026020010181815250505b5080806129c9906143ec565b91505061288c565b508092505050919050565b600160009054906101000a900473ffffffffffffffffffffffffffffffffffffffff1673ffffffffffffffffffffffffffffffffffffffff163373ffffffffffffffffffffffffffffffffffffffff1614612a9257600160009054906101000a900473ffffffffffffffffffffffffffffffffffffffff16336040517f15a39f35000000000000000000000000000000000000000000000000000000008152600401612a89929190613469565b60405180910390fd5b600560009054906101000a900460ff16612ad8576040517f4c9488d900000000000000000000000000000000000000000000000000000000815260040160405180910390fd5b8051825114612b2257815181516040517fab8b67c6000000000000000000000000000000000000000000000000000000008152600401612b19929190614381565b60405180910390fd5b60005b8251811015612b9057818181518110612b4157612b40614298565b5b602002602001015160066000858481518110612b6057612b5f614298565b5b60200260200101518152602001908152602001600020600101819055508080612b88906143ec565b915050612b25565b505050565b600560009054906101000a900460ff1681565b600060066000838152602001908152602001600020600301549050919050565b6000838573ffffffffffffffffffffffffffffffffffffffff168773ffffffffffffffffffffffffffffffffffffffff167f6069b25ab451e7002a7a7c352e9cdda52578e7a6d54071402810ff8aee99e78e86604051612c2891906134ab565b60405180910390a463f23a6e6160e01b905095945050505050565b60078181548110612c5357600080fd5b90600052602060002090600402016000915090508060000160009054906101000a900473ffffffffffffffffffffffffffffffffffffffff16908060010154908060020154908060030160009054906101000a900460ff16905084565b600160009054906101000a900473ffffffffffffffffffffffffffffffffffffffff1673ffffffffffffffffffffffffffffffffffffffff163373ffffffffffffffffffffffffffffffffffffffff1614612d6657600160009054906101000a900473ffffffffffffffffffffffffffffffffffffffff16336040517f15a39f35000000000000000000000000000000000000000000000000000000008152600401612d5d929190613469565b60405180910390fd5b600073ffffffffffffffffffffffffffffffffffffffff168173ffffffffffffffffffffffffffffffffffffffff1603612e4b57813414612de05734826040517f8f0f4206000000000000000000000000000000000000000000000000000000008152600401612dd7929190614381565b60405180910390fd5b600073ffffffffffffffffffffffffffffffffffffffff163373ffffffffffffffffffffffffffffffffffffffff167f7be377fc58fe5de9bdbdbb0bc41cba05cf72996fbddb2a421c0c52e405105d8c34604051612e3e91906134ab565b60405180910390a3612ede565b612e783330848473ffffffffffffffffffffffffffffffffffffffff16613122909392919063ffffffff16565b8073ffffffffffffffffffffffffffffffffffffffff163373ffffffffffffffffffffffffffffffffffffffff167f7be377fc58fe5de9bdbdbb0bc41cba05cf72996fbddb2a421c0c52e405105d8c84604051612ed591906134ab565b60405180910390a35b5050565b600160009054906101000a900473ffffffffffffffffffffffffffffffffffffffff1673ffffffffffffffffffffffffffffffffffffffff163373ffffffffffffffffffffffffffffffffffffffff1614612f9857600160009054906101000a900473ffffffffffffffffffffffffffffffffffffffff16336040517f15a39f35000000000000000000000000000000000000000000000000000000008152600401612f8f929190613469565b60405180910390fd5b600560009054906101000a900460ff1615612fdf576040517fa4eebd4700000000000000000000000000000000000000000000000000000000815260040160405180910390fd5b805182511461302957815181516040517fab8b67c6000000000000000000000000000000000000000000000000000000008152600401613020929190614381565b60405180910390fd5b60005b82518110156130975781818151811061304857613047614298565b5b60200260200101516006600085848151811061306757613066614298565b5b6020026020010151815260200190815260200160002060010181905550808061308f906143ec565b91505061302c565b505050565b61311d8363a9059cbb60e01b84846040516024016130bb92919061453a565b604051602081830303815290604052907bffffffffffffffffffffffffffffffffffffffffffffffffffffffff19166020820180517bffffffffffffffffffffffffffffffffffffffffffffffffffffffff83818316178352505050506131ab565b505050565b6131a5846323b872dd60e01b8585856040516024016131439392919061448a565b604051602081830303815290604052907bffffffffffffffffffffffffffffffffffffffffffffffffffffffff19166020820180517bffffffffffffffffffffffffffffffffffffffffffffffffffffffff83818316178352505050506131ab565b50505050565b600061320d826040518060400160405280602081526020017f5361666545524332303a206c6f772d6c6576656c2063616c6c206661696c65648152508573ffffffffffffffffffffffffffffffffffffffff166132729092919063ffffffff16565b905060008151111561326d578080602001905181019061322d9190614578565b61326c576040517f08c379a000000000000000000000000000000000000000000000000000000000815260040161326390614617565b60405180910390fd5b5b505050565b6060613281848460008561328a565b90509392505050565b6060824710156132cf576040517f08c379a00000000000000000000000000000000000000000000000000000000081526004016132c6906146a9565b60405180910390fd5b6132d88561339e565b613317576040517f08c379a000000000000000000000000000000000000000000000000000000000815260040161330e90614715565b60405180910390fd5b6000808673ffffffffffffffffffffffffffffffffffffffff16858760405161334091906147af565b60006040518083038185875af1925050503d806000811461337d576040519150601f19603f3d011682016040523d82523d6000602084013e613382565b606091505b50915091506133928282866133c1565b92505050949350505050565b6000808273ffffffffffffffffffffffffffffffffffffffff163b119050919050565b606083156133d157829050613421565b6000835111156133e45782518084602001fd5b816040517f08c379a0000000000000000000000000000000000000000000000000000000008152600401613418919061480a565b60405180910390fd5b9392505050565b600073ffffffffffffffffffffffffffffffffffffffff82169050919050565b600061345382613428565b9050919050565b61346381613448565b82525050565b600060408201905061347e600083018561345a565b61348b602083018461345a565b9392505050565b6000819050919050565b6134a581613492565b82525050565b60006020820190506134c0600083018461349c565b92915050565b6000604051905090565b600080fd5b600080fd5b60007fffffffff0000000000000000000000000000000000000000000000000000000082169050919050565b61350f816134da565b811461351a57600080fd5b50565b60008135905061352c81613506565b92915050565b600060208284031215613548576135476134d0565b5b60006135568482850161351d565b91505092915050565b60008115159050919050565b6135748161355f565b82525050565b600060208201905061358f600083018461356b565b92915050565b61359e81613492565b81146135a957600080fd5b50565b6000813590506135bb81613595565b92915050565b6000602082840312156135d7576135d66134d0565b5b60006135e5848285016135ac565b91505092915050565b6135f781613448565b811461360257600080fd5b50565b600081359050613614816135ee565b92915050565b600080fd5b600080fd5b6000601f19601f8301169050919050565b7f4e487b7100000000000000000000000000000000000000000000000000000000600052604160045260246000fd5b61366d82613624565b810181811067ffffffffffffffff8211171561368c5761368b613635565b5b80604052505050565b600061369f6134c6565b90506136ab8282613664565b919050565b600067ffffffffffffffff8211156136cb576136ca613635565b5b6136d482613624565b9050602081019050919050565b82818337600083830152505050565b60006137036136fe846136b0565b613695565b90508281526020810184848401111561371f5761371e61361f565b5b61372a8482856136e1565b509392505050565b600082601f8301126137475761374661361a565b5b81356137578482602086016136f0565b91505092915050565b6000806000806080858703121561377a576137796134d0565b5b600061378887828801613605565b945050602061379987828801613605565b93505060406137aa878288016135ac565b925050606085013567ffffffffffffffff8111156137cb576137ca6134d5565b5b6137d787828801613732565b91505092959194509250565b6137ec816134da565b82525050565b600060208201905061380760008301846137e3565b92915050565b600081519050919050565b600082825260208201905092915050565b6000819050602082019050919050565b61384281613448565b82525050565b61385181613492565b82525050565b7f4e487b7100000000000000000000000000000000000000000000000000000000600052602160045260246000fd5b6002811061389757613896613857565b5b50565b60008190506138a882613886565b919050565b60006138b88261389a565b9050919050565b6138c8816138ad565b82525050565b6080820160008201516138e46000850182613839565b5060208201516138f76020850182613848565b50604082015161390a6040850182613848565b50606082015161391d60608501826138bf565b50505050565b600061392f83836138ce565b60808301905092915050565b6000602082019050919050565b60006139538261380d565b61395d8185613818565b935061396883613829565b8060005b838110156139995781516139808882613923565b975061398b8361393b565b92505060018101905061396c565b5085935050505092915050565b600060208201905081810360008301526139c08184613948565b905092915050565b600067ffffffffffffffff8211156139e3576139e2613635565b5b602082029050602081019050919050565b600080fd5b6000613a0c613a07846139c8565b613695565b90508083825260208201905060208402830185811115613a2f57613a2e6139f4565b5b835b81811015613a585780613a4488826135ac565b845260208401935050602081019050613a31565b5050509392505050565b600082601f830112613a7757613a7661361a565b5b8135613a878482602086016139f9565b91505092915050565b600060208284031215613aa657613aa56134d0565b5b600082013567ffffffffffffffff811115613ac457613ac36134d5565b5b613ad084828501613a62565b91505092915050565b600067ffffffffffffffff821115613af457613af3613635565b5b602082029050602081019050919050565b6000613b18613b1384613ad9565b613695565b90508083825260208201905060208402830185811115613b3b57613b3a6139f4565b5b835b81811015613b645780613b508882613605565b845260208401935050602081019050613b3d565b5050509392505050565b600082601f830112613b8357613b8261361a565b5b8135613b93848260208601613b05565b91505092915050565b60008060008060808587031215613bb657613bb56134d0565b5b600085013567ffffffffffffffff811115613bd457613bd36134d5565b5b613be087828801613b6e565b945050602085013567ffffffffffffffff811115613c0157613c006134d5565b5b613c0d87828801613a62565b935050604085013567ffffffffffffffff811115613c2e57613c2d6134d5565b5b613c3a87828801613a62565b925050606085013567ffffffffffffffff811115613c5b57613c5a6134d5565b5b613c6787828801613a62565b91505092959194509250565b6000602082019050613c88600083018461345a565b92915050565b600067ffffffffffffffff821115613ca957613ca8613635565b5b602082029050602081019050919050565b613cc38161355f565b8114613cce57600080fd5b50565b600081359050613ce081613cba565b92915050565b6000613cf9613cf484613c8e565b613695565b90508083825260208201905060208402830185811115613d1c57613d1b6139f4565b5b835b81811015613d455780613d318882613cd1565b845260208401935050602081019050613d1e565b5050509392505050565b600082601f830112613d6457613d6361361a565b5b8135613d74848260208601613ce6565b91505092915050565b60008060408385031215613d9457613d936134d0565b5b600083013567ffffffffffffffff811115613db257613db16134d5565b5b613dbe85828601613a62565b925050602083013567ffffffffffffffff811115613ddf57613dde6134d5565b5b613deb85828601613d4f565b9150509250929050565b600060a082019050613e0a600083018861356b565b613e17602083018761349c565b613e24604083018661345a565b613e31606083018561349c565b613e3e608083018461349c565b9695505050505050565b600080600080600060a08688031215613e6457613e636134d0565b5b6000613e7288828901613605565b9550506020613e8388828901613605565b945050604086013567ffffffffffffffff811115613ea457613ea36134d5565b5b613eb088828901613a62565b935050606086013567ffffffffffffffff811115613ed157613ed06134d5565b5b613edd88828901613a62565b925050608086013567ffffffffffffffff811115613efe57613efd6134d5565b5b613f0a88828901613732565b9150509295509295909350565b600060208284031215613f2d57613f2c6134d0565b5b6000613f3b84828501613605565b91505092915050565b600081519050919050565b600082825260208201905092915050565b6000819050602082019050919050565b6000613f7c8383613848565b60208301905092915050565b6000602082019050919050565b6000613fa082613f44565b613faa8185613f4f565b9350613fb583613f60565b8060005b83811015613fe6578151613fcd8882613f70565b9750613fd883613f88565b925050600181019050613fb9565b5085935050505092915050565b6000602082019050818103600083015261400d8184613f95565b905092915050565b6000806040838503121561402c5761402b6134d0565b5b600083013567ffffffffffffffff81111561404a576140496134d5565b5b61405685828601613a62565b925050602083013567ffffffffffffffff811115614077576140766134d5565b5b61408385828601613a62565b9150509250929050565b600080600080600060a086880312156140a9576140a86134d0565b5b60006140b788828901613605565b95505060206140c888828901613605565b94505060406140d9888289016135ac565b93505060606140ea888289016135ac565b925050608086013567ffffffffffffffff81111561410b5761410a6134d5565b5b61411788828901613732565b9150509295509295909350565b61412d816138ad565b82525050565b6000608082019050614148600083018761345a565b614155602083018661349c565b614162604083018561349c565b61416f6060830184614124565b95945050505050565b6000806040838503121561418f5761418e6134d0565b5b600061419d858286016135ac565b92505060206141ae85828601613605565b9150509250929050565b600082825260208201905092915050565b7f5265656e7472616e637947756172643a207265656e7472616e742063616c6c00600082015250565b60006141ff601f836141b8565b915061420a826141c9565b602082019050919050565b6000602082019050818103600083015261422e816141f2565b9050919050565b7f4e487b7100000000000000000000000000000000000000000000000000000000600052601160045260246000fd5b600061426f82613492565b915061427a83613492565b92508282101561428d5761428c614235565b5b828203905092915050565b7f4e487b7100000000000000000000000000000000000000000000000000000000600052603260045260246000fd5b7f4e487b7100000000000000000000000000000000000000000000000000000000600052601260045260246000fd5b600061430182613492565b915061430c83613492565b92508261431c5761431b6142c7565b5b828204905092915050565b600061433282613492565b915061433d83613492565b9250817fffffffffffffffffffffffffffffffffffffffffffffffffffffffffffffffff048311821515161561437657614375614235565b5b828202905092915050565b6000604082019050614396600083018561349c565b6143a3602083018461349c565b9392505050565b6000815190506143b981613595565b92915050565b6000602082840312156143d5576143d46134d0565b5b60006143e3848285016143aa565b91505092915050565b60006143f782613492565b91507fffffffffffffffffffffffffffffffffffffffffffffffffffffffffffffffff820361442957614428614235565b5b600182019050919050565b600061443f82613492565b915061444a83613492565b9250827fffffffffffffffffffffffffffffffffffffffffffffffffffffffffffffffff0382111561447f5761447e614235565b5b828201905092915050565b600060608201905061449f600083018661345a565b6144ac602083018561345a565b6144b9604083018461349c565b949350505050565b6000815190506144d0816135ee565b92915050565b6000602082840312156144ec576144eb6134d0565b5b60006144fa848285016144c1565b91505092915050565b6000604082019050818103600083015261451d8185613f95565b905081810360208301526145318184613f95565b90509392505050565b600060408201905061454f600083018561345a565b61455c602083018461349c565b9392505050565b60008151905061457281613cba565b92915050565b60006020828403121561458e5761458d6134d0565b5b600061459c84828501614563565b91505092915050565b7f5361666545524332303a204552433230206f7065726174696f6e20646964206e60008201527f6f74207375636365656400000000000000000000000000000000000000000000602082015250565b6000614601602a836141b8565b915061460c826145a5565b604082019050919050565b60006020820190508181036000830152614630816145f4565b9050919050565b7f416464726573733a20696e73756666696369656e742062616c616e636520666f60008201527f722063616c6c0000000000000000000000000000000000000000000000000000602082015250565b60006146936026836141b8565b915061469e82614637565b604082019050919050565b600060208201905081810360008301526146c281614686565b9050919050565b7f416464726573733a2063616c6c20746f206e6f6e2d636f6e7472616374000000600082015250565b60006146ff601d836141b8565b915061470a826146c9565b602082019050919050565b6000602082019050818103600083015261472e816146f2565b9050919050565b600081519050919050565b600081905092915050565b60005b8381101561476957808201518184015260208101905061474e565b83811115614778576000848401525b50505050565b600061478982614735565b6147938185614740565b93506147a381856020860161474b565b80840191505092915050565b60006147bb828461477e565b915081905092915050565b600081519050919050565b60006147dc826147c6565b6147e681856141b8565b93506147f681856020860161474b565b6147ff81613624565b840191505092915050565b6000602082019050818103600083015261482481846147d1565b90509291505056fea2646970667358221220830fc48e483916a2fc3d843d1779d555a454a37b83626c058c89f76f16bacabe64736f6c634300080f0033",
  "linkReferences": {},
  "deployedLinkReferences": {}
}