{
  "_format": "hh-sol-artifact-1",
  "contractName": "XDSea721Staking",
  "sourceName": "newContracts/XDSea721Staking.sol",
  "abi": [
    {
      "inputs": [
        {
          "internalType": "address",
          "name": "_nftCollection",
          "type": "address"
        },
        {
          "internalType": "uint256[]",
          "name": "_tokenIds",
          "type": "uint256[]"
        },
        {
          "internalType": "uint256[]",
          "name": "_backedValues",
          "type": "uint256[]"
        },
        {
          "internalType": "uint256",
          "name": "_lockInPeriod",
          "type": "uint256"
        }
      ],
      "stateMutability": "nonpayable",
      "type": "constructor"
    },
    {
      "inputs": [
        {
          "internalType": "uint256",
          "name": "tokenId",
          "type": "uint256"
        }
      ],
      "name": "NotEligibleForStaking",
      "type": "error"
    },
    {
      "inputs": [
        {
          "internalType": "address",
          "name": "owner",
          "type": "address"
        },
        {
          "internalType": "address",
          "name": "sender",
          "type": "address"
        }
      ],
      "name": "NotOwner",
      "type": "error"
    },
    {
      "inputs": [
        {
          "internalType": "address",
          "name": "owner",
          "type": "address"
        },
        {
          "internalType": "address",
          "name": "sender",
          "type": "address"
        }
      ],
      "name": "NotPoolOwner",
      "type": "error"
    },
    {
      "inputs": [
        {
          "internalType": "uint256",
          "name": "lockInEnd",
          "type": "uint256"
        },
        {
          "internalType": "uint256",
          "name": "currentTime",
          "type": "uint256"
        }
      ],
      "name": "StillLockedIn",
      "type": "error"
    },
    {
      "anonymous": false,
      "inputs": [
        {
          "indexed": true,
          "internalType": "address",
          "name": "from",
          "type": "address"
        },
        {
          "indexed": false,
          "internalType": "uint256",
          "name": "value",
          "type": "uint256"
        }
      ],
      "name": "FundsReceived",
      "type": "event"
    },
    {
      "anonymous": false,
      "inputs": [
        {
          "indexed": true,
          "internalType": "address",
          "name": "operator",
          "type": "address"
        },
        {
          "indexed": true,
          "internalType": "address",
          "name": "from",
          "type": "address"
        },
        {
          "indexed": true,
          "internalType": "uint256",
          "name": "tokenId",
          "type": "uint256"
        }
      ],
      "name": "XRC721Received",
      "type": "event"
    },
    {
      "inputs": [],
      "name": "balanceOf",
      "outputs": [
        {
          "internalType": "uint256",
          "name": "",
          "type": "uint256"
        }
      ],
      "stateMutability": "view",
      "type": "function"
    },
    {
      "inputs": [
        {
          "internalType": "uint256",
          "name": "_tokenId",
          "type": "uint256"
        }
      ],
      "name": "checkBackedValue",
      "outputs": [
        {
          "internalType": "uint256",
          "name": "",
          "type": "uint256"
        }
      ],
      "stateMutability": "view",
      "type": "function"
    },
    {
      "inputs": [
        {
          "internalType": "uint256",
          "name": "_tokenId",
          "type": "uint256"
        }
      ],
      "name": "checkEligibility",
      "outputs": [
        {
          "internalType": "bool",
          "name": "",
          "type": "bool"
        }
      ],
      "stateMutability": "view",
      "type": "function"
    },
    {
      "inputs": [
        {
          "internalType": "uint256",
          "name": "_tokenId",
          "type": "uint256"
        }
      ],
      "name": "checkStakerAddress",
      "outputs": [
        {
          "internalType": "address",
          "name": "",
          "type": "address"
        }
      ],
      "stateMutability": "view",
      "type": "function"
    },
    {
      "inputs": [
        {
          "internalType": "uint256",
          "name": "_tokenId",
          "type": "uint256"
        }
      ],
      "name": "checkTimeOfStake",
      "outputs": [
        {
          "internalType": "uint256",
          "name": "",
          "type": "uint256"
        }
      ],
      "stateMutability": "view",
      "type": "function"
    },
    {
      "inputs": [],
      "name": "lockInPeriod",
      "outputs": [
        {
          "internalType": "uint256",
          "name": "",
          "type": "uint256"
        }
      ],
      "stateMutability": "view",
      "type": "function"
    },
    {
      "inputs": [],
      "name": "nftCollection",
      "outputs": [
        {
          "internalType": "address",
          "name": "",
          "type": "address"
        }
      ],
      "stateMutability": "view",
      "type": "function"
    },
    {
      "inputs": [
        {
          "internalType": "address",
          "name": "operator",
          "type": "address"
        },
        {
          "internalType": "address",
          "name": "from",
          "type": "address"
        },
        {
          "internalType": "uint256",
          "name": "tokenId",
          "type": "uint256"
        },
        {
          "internalType": "bytes",
          "name": "",
          "type": "bytes"
        }
      ],
      "name": "onERC721Received",
      "outputs": [
        {
          "internalType": "bytes4",
          "name": "",
          "type": "bytes4"
        }
      ],
      "stateMutability": "nonpayable",
      "type": "function"
    },
    {
      "inputs": [],
      "name": "poolOwner",
      "outputs": [
        {
          "internalType": "address",
          "name": "",
          "type": "address"
        }
      ],
      "stateMutability": "view",
      "type": "function"
    },
    {
      "inputs": [
        {
          "internalType": "uint256",
          "name": "_tokenId",
          "type": "uint256"
        }
      ],
      "name": "stake",
      "outputs": [],
      "stateMutability": "nonpayable",
      "type": "function"
    },
    {
      "inputs": [
        {
          "internalType": "uint256",
          "name": "",
          "type": "uint256"
        }
      ],
      "name": "stakedNFTs",
      "outputs": [
        {
          "internalType": "bool",
          "name": "isEligible",
          "type": "bool"
        },
        {
          "internalType": "uint256",
          "name": "backedValue",
          "type": "uint256"
        },
        {
          "internalType": "address",
          "name": "stakerAddress",
          "type": "address"
        },
        {
          "internalType": "uint256",
          "name": "timeOfStake",
          "type": "uint256"
        }
      ],
      "stateMutability": "view",
      "type": "function"
    },
    {
      "inputs": [
        {
          "internalType": "uint256[]",
          "name": "_tokenIds",
          "type": "uint256[]"
        },
        {
          "internalType": "bool[]",
          "name": "_eligibility",
          "type": "bool[]"
        }
      ],
      "name": "updateEligibility",
      "outputs": [],
      "stateMutability": "nonpayable",
      "type": "function"
    },
    {
      "inputs": [
        {
          "internalType": "uint256",
          "name": "_lockInPeriod",
          "type": "uint256"
        }
      ],
      "name": "updateLockInPeriod",
      "outputs": [],
      "stateMutability": "nonpayable",
      "type": "function"
    },
    {
      "inputs": [
        {
          "internalType": "address",
          "name": "_poolOwner",
          "type": "address"
        }
      ],
      "name": "updatePoolOwner",
      "outputs": [],
      "stateMutability": "nonpayable",
      "type": "function"
    },
    {
      "inputs": [
        {
          "internalType": "uint256",
          "name": "_tokenId",
          "type": "uint256"
        }
      ],
      "name": "withdraw",
      "outputs": [],
      "stateMutability": "nonpayable",
      "type": "function"
    },
    {
      "stateMutability": "payable",
      "type": "receive"
    }
  ],
  "bytecode": "0x60a06040523480156200001157600080fd5b5060405162001ebf38038062001ebf83398181016040528101906200003791906200040c565b600160008190555033600160006101000a81548173ffffffffffffffffffffffffffffffffffffffff021916908373ffffffffffffffffffffffffffffffffffffffff1602179055508373ffffffffffffffffffffffffffffffffffffffff1660808173ffffffffffffffffffffffffffffffffffffffff1681525050620000c583620000f360201b60201c565b6000825114620000e257620000e183836200016660201b60201c565b5b806002819055505050505062000567565b60005b815181101562000162576001600360008484815181106200011c576200011b620004bc565b5b6020026020010151815260200190815260200160002060000160006101000a81548160ff021916908315150217905550808062000159906200051a565b915050620000f6565b5050565b60005b8251811015620001de57818181518110620001895762000188620004bc565b5b602002602001015160036000858481518110620001ab57620001aa620004bc565b5b60200260200101518152602001908152602001600020600101819055508080620001d5906200051a565b91505062000169565b505050565b6000604051905090565b600080fd5b600080fd5b600073ffffffffffffffffffffffffffffffffffffffff82169050919050565b60006200022482620001f7565b9050919050565b620002368162000217565b81146200024257600080fd5b50565b60008151905062000256816200022b565b92915050565b600080fd5b6000601f19601f8301169050919050565b7f4e487b7100000000000000000000000000000000000000000000000000000000600052604160045260246000fd5b620002ac8262000261565b810181811067ffffffffffffffff82111715620002ce57620002cd62000272565b5b80604052505050565b6000620002e3620001e3565b9050620002f18282620002a1565b919050565b600067ffffffffffffffff82111562000314576200031362000272565b5b602082029050602081019050919050565b600080fd5b6000819050919050565b6200033f816200032a565b81146200034b57600080fd5b50565b6000815190506200035f8162000334565b92915050565b60006200037c6200037684620002f6565b620002d7565b90508083825260208201905060208402830185811115620003a257620003a162000325565b5b835b81811015620003cf5780620003ba88826200034e565b845260208401935050602081019050620003a4565b5050509392505050565b600082601f830112620003f157620003f06200025c565b5b81516200040384826020860162000365565b91505092915050565b60008060008060808587031215620004295762000428620001ed565b5b6000620004398782880162000245565b945050602085015167ffffffffffffffff8111156200045d576200045c620001f2565b5b6200046b87828801620003d9565b935050604085015167ffffffffffffffff8111156200048f576200048e620001f2565b5b6200049d87828801620003d9565b9250506060620004b0878288016200034e565b91505092959194509250565b7f4e487b7100000000000000000000000000000000000000000000000000000000600052603260045260246000fd5b7f4e487b7100000000000000000000000000000000000000000000000000000000600052601160045260246000fd5b600062000527826200032a565b91507fffffffffffffffffffffffffffffffffffffffffffffffffffffffffffffffff82036200055c576200055b620004eb565b5b600182019050919050565b6080516119206200059f60003960008181610715015281816108e101528181610bb001528181610c650152610da201526119206000f3fe6080604052600436106100ec5760003560e01c80637f38d1d21161008a578063b865749d11610059578063b865749d14610415578063cf0b227014610455578063cfe8ad4c14610480578063f02a5613146104a9576101f7565b80637f38d1d214610349578063963e58e914610372578063a694fc3a146103af578063a69c2537146103d8576101f7565b8063310312d3116100c6578063310312d31461028d5780636588103b146102b6578063722713f7146102e15780637b39fed61461030c576101f7565b806305377188146101fc578063150b7a02146102275780632e1a7d4d14610264576101f7565b366101f757600160009054906101000a900473ffffffffffffffffffffffffffffffffffffffff1673ffffffffffffffffffffffffffffffffffffffff163373ffffffffffffffffffffffffffffffffffffffff16146101a757600160009054906101000a900473ffffffffffffffffffffffffffffffffffffffff16336040517f15a39f3500000000000000000000000000000000000000000000000000000000815260040161019e9291906110c8565b60405180910390fd5b3373ffffffffffffffffffffffffffffffffffffffff167f8e47b87b0ef542cdfa1659c551d88bad38aa7f452d2bbb349ab7530dfec8be8f346040516101ed919061110a565b60405180910390a2005b600080fd5b34801561020857600080fd5b506102116104e6565b60405161021e919061110a565b60405180910390f35b34801561023357600080fd5b5061024e600480360381019061024991906112d7565b6104ec565b60405161025b9190611395565b60405180910390f35b34801561027057600080fd5b5061028b600480360381019061028691906113b0565b61055b565b005b34801561029957600080fd5b506102b460048036038101906102af91906113b0565b61081f565b005b3480156102c257600080fd5b506102cb6108df565b6040516102d891906113dd565b60405180910390f35b3480156102ed57600080fd5b506102f6610903565b604051610303919061110a565b60405180910390f35b34801561031857600080fd5b50610333600480360381019061032e91906113b0565b6109c1565b6040516103409190611413565b60405180910390f35b34801561035557600080fd5b50610370600480360381019061036b91906115e5565b6109ee565b005b34801561037e57600080fd5b50610399600480360381019061039491906113b0565b610b2a565b6040516103a6919061110a565b60405180910390f35b3480156103bb57600080fd5b506103d660048036038101906103d191906113b0565b610b4a565b005b3480156103e457600080fd5b506103ff60048036038101906103fa91906113b0565b610eaa565b60405161040c91906113dd565b60405180910390f35b34801561042157600080fd5b5061043c600480360381019061043791906113b0565b610eea565b60405161044c949392919061165d565b60405180910390f35b34801561046157600080fd5b5061046a610f47565b60405161047791906113dd565b60405180910390f35b34801561048c57600080fd5b506104a760048036038101906104a291906116a2565b610f6d565b005b3480156104b557600080fd5b506104d060048036038101906104cb91906113b0565b611067565b6040516104dd919061110a565b60405180910390f35b60025481565b6000828473ffffffffffffffffffffffffffffffffffffffff168673ffffffffffffffffffffffffffffffffffffffff167f73d4ce89f05f99f34390b94c04963af5d50e8948e93a3756fbc1769377a975ce60405160405180910390a463150b7a0260e01b9050949350505050565b6002600054036105a0576040517f08c379a00000000000000000000000000000000000000000000000000000000081526004016105979061172c565b60405180910390fd5b60026000819055503373ffffffffffffffffffffffffffffffffffffffff166003600083815260200190815260200160002060020160009054906101000a900473ffffffffffffffffffffffffffffffffffffffff1673ffffffffffffffffffffffffffffffffffffffff1614610686576003600082815260200190815260200160002060020160009054906101000a900473ffffffffffffffffffffffffffffffffffffffff16336040517f23295f0e00000000000000000000000000000000000000000000000000000000815260040161067d9291906110c8565b60405180910390fd5b4260025460036000848152602001908152602001600020600301546106ab919061177b565b11156107135760025460036000838152602001908152602001600020600301546106d5919061177b565b426040517f3237378600000000000000000000000000000000000000000000000000000000815260040161070a9291906117d1565b60405180910390fd5b7f000000000000000000000000000000000000000000000000000000000000000073ffffffffffffffffffffffffffffffffffffffff166342842e0e3033846040518463ffffffff1660e01b8152600401610770939291906117fa565b600060405180830381600087803b15801561078a57600080fd5b505af115801561079e573d6000803e3d6000fd5b5050505060006003600083815260200190815260200160002060020160006101000a81548173ffffffffffffffffffffffffffffffffffffffff021916908373ffffffffffffffffffffffffffffffffffffffff16021790555060006003600083815260200190815260200160002060030181905550600160008190555050565b600160009054906101000a900473ffffffffffffffffffffffffffffffffffffffff1673ffffffffffffffffffffffffffffffffffffffff163373ffffffffffffffffffffffffffffffffffffffff16146108d557600160009054906101000a900473ffffffffffffffffffffffffffffffffffffffff16336040517f15a39f350000000000000000000000000000000000000000000000000000000081526004016108cc9291906110c8565b60405180910390fd5b8060028190555050565b7f000000000000000000000000000000000000000000000000000000000000000081565b6000600160009054906101000a900473ffffffffffffffffffffffffffffffffffffffff1673ffffffffffffffffffffffffffffffffffffffff163373ffffffffffffffffffffffffffffffffffffffff16146109bb57600160009054906101000a900473ffffffffffffffffffffffffffffffffffffffff16336040517f15a39f350000000000000000000000000000000000000000000000000000000081526004016109b29291906110c8565b60405180910390fd5b47905090565b60006003600083815260200190815260200160002060000160009054906101000a900460ff169050919050565b600160009054906101000a900473ffffffffffffffffffffffffffffffffffffffff1673ffffffffffffffffffffffffffffffffffffffff163373ffffffffffffffffffffffffffffffffffffffff1614610aa457600160009054906101000a900473ffffffffffffffffffffffffffffffffffffffff16336040517f15a39f35000000000000000000000000000000000000000000000000000000008152600401610a9b9291906110c8565b60405180910390fd5b60005b8251811015610b2557818181518110610ac357610ac2611831565b5b602002602001015160036000858481518110610ae257610ae1611831565b5b6020026020010151815260200190815260200160002060000160006101000a81548160ff0219169083151502179055508080610b1d90611860565b915050610aa7565b505050565b600060036000838152602001908152602001600020600101549050919050565b600260005403610b8f576040517f08c379a0000000000000000000000000000000000000000000000000000000008152600401610b869061172c565b60405180910390fd5b60026000819055503373ffffffffffffffffffffffffffffffffffffffff167f000000000000000000000000000000000000000000000000000000000000000073ffffffffffffffffffffffffffffffffffffffff16636352211e836040518263ffffffff1660e01b8152600401610c07919061110a565b602060405180830381865afa158015610c24573d6000803e3d6000fd5b505050506040513d601f19601f82011682018060405250810190610c4891906118bd565b73ffffffffffffffffffffffffffffffffffffffff1614610d3b577f000000000000000000000000000000000000000000000000000000000000000073ffffffffffffffffffffffffffffffffffffffff16636352211e826040518263ffffffff1660e01b8152600401610cbc919061110a565b602060405180830381865afa158015610cd9573d6000803e3d6000fd5b505050506040513d601f19601f82011682018060405250810190610cfd91906118bd565b336040517f23295f0e000000000000000000000000000000000000000000000000000000008152600401610d329291906110c8565b60405180910390fd5b6003600082815260200190815260200160002060000160009054906101000a900460ff16610da057806040517fcfa6511b000000000000000000000000000000000000000000000000000000008152600401610d97919061110a565b60405180910390fd5b7f000000000000000000000000000000000000000000000000000000000000000073ffffffffffffffffffffffffffffffffffffffff166342842e0e3330846040518463ffffffff1660e01b8152600401610dfd939291906117fa565b600060405180830381600087803b158015610e1757600080fd5b505af1158015610e2b573d6000803e3d6000fd5b50505050336003600083815260200190815260200160002060020160006101000a81548173ffffffffffffffffffffffffffffffffffffffff021916908373ffffffffffffffffffffffffffffffffffffffff160217905550426003600083815260200190815260200160002060030181905550600160008190555050565b60006003600083815260200190815260200160002060020160009054906101000a900473ffffffffffffffffffffffffffffffffffffffff169050919050565b60036020528060005260406000206000915090508060000160009054906101000a900460ff16908060010154908060020160009054906101000a900473ffffffffffffffffffffffffffffffffffffffff16908060030154905084565b600160009054906101000a900473ffffffffffffffffffffffffffffffffffffffff1681565b600160009054906101000a900473ffffffffffffffffffffffffffffffffffffffff1673ffffffffffffffffffffffffffffffffffffffff163373ffffffffffffffffffffffffffffffffffffffff161461102357600160009054906101000a900473ffffffffffffffffffffffffffffffffffffffff16336040517f15a39f3500000000000000000000000000000000000000000000000000000000815260040161101a9291906110c8565b60405180910390fd5b80600160006101000a81548173ffffffffffffffffffffffffffffffffffffffff021916908373ffffffffffffffffffffffffffffffffffffffff16021790555050565b600060036000838152602001908152602001600020600301549050919050565b600073ffffffffffffffffffffffffffffffffffffffff82169050919050565b60006110b282611087565b9050919050565b6110c2816110a7565b82525050565b60006040820190506110dd60008301856110b9565b6110ea60208301846110b9565b9392505050565b6000819050919050565b611104816110f1565b82525050565b600060208201905061111f60008301846110fb565b92915050565b6000604051905090565b600080fd5b600080fd5b611142816110a7565b811461114d57600080fd5b50565b60008135905061115f81611139565b92915050565b61116e816110f1565b811461117957600080fd5b50565b60008135905061118b81611165565b92915050565b600080fd5b600080fd5b6000601f19601f8301169050919050565b7f4e487b7100000000000000000000000000000000000000000000000000000000600052604160045260246000fd5b6111e48261119b565b810181811067ffffffffffffffff82111715611203576112026111ac565b5b80604052505050565b6000611216611125565b905061122282826111db565b919050565b600067ffffffffffffffff821115611242576112416111ac565b5b61124b8261119b565b9050602081019050919050565b82818337600083830152505050565b600061127a61127584611227565b61120c565b90508281526020810184848401111561129657611295611196565b5b6112a1848285611258565b509392505050565b600082601f8301126112be576112bd611191565b5b81356112ce848260208601611267565b91505092915050565b600080600080608085870312156112f1576112f061112f565b5b60006112ff87828801611150565b945050602061131087828801611150565b93505060406113218782880161117c565b925050606085013567ffffffffffffffff81111561134257611341611134565b5b61134e878288016112a9565b91505092959194509250565b60007fffffffff0000000000000000000000000000000000000000000000000000000082169050919050565b61138f8161135a565b82525050565b60006020820190506113aa6000830184611386565b92915050565b6000602082840312156113c6576113c561112f565b5b60006113d48482850161117c565b91505092915050565b60006020820190506113f260008301846110b9565b92915050565b60008115159050919050565b61140d816113f8565b82525050565b60006020820190506114286000830184611404565b92915050565b600067ffffffffffffffff821115611449576114486111ac565b5b602082029050602081019050919050565b600080fd5b600061147261146d8461142e565b61120c565b905080838252602082019050602084028301858111156114955761149461145a565b5b835b818110156114be57806114aa888261117c565b845260208401935050602081019050611497565b5050509392505050565b600082601f8301126114dd576114dc611191565b5b81356114ed84826020860161145f565b91505092915050565b600067ffffffffffffffff821115611511576115106111ac565b5b602082029050602081019050919050565b61152b816113f8565b811461153657600080fd5b50565b60008135905061154881611522565b92915050565b600061156161155c846114f6565b61120c565b905080838252602082019050602084028301858111156115845761158361145a565b5b835b818110156115ad57806115998882611539565b845260208401935050602081019050611586565b5050509392505050565b600082601f8301126115cc576115cb611191565b5b81356115dc84826020860161154e565b91505092915050565b600080604083850312156115fc576115fb61112f565b5b600083013567ffffffffffffffff81111561161a57611619611134565b5b611626858286016114c8565b925050602083013567ffffffffffffffff81111561164757611646611134565b5b611653858286016115b7565b9150509250929050565b60006080820190506116726000830187611404565b61167f60208301866110fb565b61168c60408301856110b9565b61169960608301846110fb565b95945050505050565b6000602082840312156116b8576116b761112f565b5b60006116c684828501611150565b91505092915050565b600082825260208201905092915050565b7f5265656e7472616e637947756172643a207265656e7472616e742063616c6c00600082015250565b6000611716601f836116cf565b9150611721826116e0565b602082019050919050565b6000602082019050818103600083015261174581611709565b9050919050565b7f4e487b7100000000000000000000000000000000000000000000000000000000600052601160045260246000fd5b6000611786826110f1565b9150611791836110f1565b9250827fffffffffffffffffffffffffffffffffffffffffffffffffffffffffffffffff038211156117c6576117c561174c565b5b828201905092915050565b60006040820190506117e660008301856110fb565b6117f360208301846110fb565b9392505050565b600060608201905061180f60008301866110b9565b61181c60208301856110b9565b61182960408301846110fb565b949350505050565b7f4e487b7100000000000000000000000000000000000000000000000000000000600052603260045260246000fd5b600061186b826110f1565b91507fffffffffffffffffffffffffffffffffffffffffffffffffffffffffffffffff820361189d5761189c61174c565b5b600182019050919050565b6000815190506118b781611139565b92915050565b6000602082840312156118d3576118d261112f565b5b60006118e1848285016118a8565b9150509291505056fea2646970667358221220c4bd6ad5c1bee2a94b7f24d4f98542f3582757ded803f81b69781c5d3b84bd8264736f6c634300080f0033",
  "linkReferences": {},
  "deployedLinkReferences": {}
}