{
  "_format": "hh-sol-artifact-1",
  "contractName": "XDSea721Staking",
  "sourceName": "newContracts/XDSea721Staking.sol",
  "abi": [
    {
      "inputs": [
        {
          "internalType": "address",
          "name": "_nftCollection",
          "type": "address"
        },
        {
          "internalType": "uint256[]",
          "name": "_tokenIds",
          "type": "uint256[]"
        },
        {
          "internalType": "uint256[]",
          "name": "_backedValues",
          "type": "uint256[]"
        },
        {
          "internalType": "uint256",
          "name": "_lockInPeriod",
          "type": "uint256"
        },
        {
          "internalType": "uint256",
          "name": "_timeOfPoolInitialization",
          "type": "uint256"
        }
      ],
      "stateMutability": "nonpayable",
      "type": "constructor"
    },
    {
      "inputs": [],
      "name": "BackedValueAlreadySet",
      "type": "error"
    },
    {
      "inputs": [],
      "name": "BackedValueNotSet",
      "type": "error"
    },
    {
      "inputs": [
        {
          "internalType": "uint256",
          "name": "tokenIdLength",
          "type": "uint256"
        },
        {
          "internalType": "uint256",
          "name": "backedValueLength",
          "type": "uint256"
        }
      ],
      "name": "LengthMismatch",
      "type": "error"
    },
    {
      "inputs": [
        {
          "internalType": "uint256",
          "name": "_tokenId",
          "type": "uint256"
        }
      ],
      "name": "NFTNotStaked",
      "type": "error"
    },
    {
      "inputs": [
        {
          "internalType": "uint256",
          "name": "tokenId",
          "type": "uint256"
        }
      ],
      "name": "NotEligibleForStaking",
      "type": "error"
    },
    {
      "inputs": [
        {
          "internalType": "uint256",
          "name": "balance",
          "type": "uint256"
        },
        {
          "internalType": "uint256",
          "name": "reward",
          "type": "uint256"
        }
      ],
      "name": "NotEnoughBalance",
      "type": "error"
    },
    {
      "inputs": [
        {
          "internalType": "address",
          "name": "owner",
          "type": "address"
        },
        {
          "internalType": "address",
          "name": "sender",
          "type": "address"
        }
      ],
      "name": "NotOwner",
      "type": "error"
    },
    {
      "inputs": [
        {
          "internalType": "address",
          "name": "owner",
          "type": "address"
        },
        {
          "internalType": "address",
          "name": "sender",
          "type": "address"
        }
      ],
      "name": "NotPoolOwner",
      "type": "error"
    },
    {
      "inputs": [
        {
          "internalType": "address",
          "name": "given",
          "type": "address"
        }
      ],
      "name": "NotTheCorrectContractAddress",
      "type": "error"
    },
    {
      "inputs": [
        {
          "internalType": "uint256",
          "name": "lockInEnd",
          "type": "uint256"
        },
        {
          "internalType": "uint256",
          "name": "currentTime",
          "type": "uint256"
        }
      ],
      "name": "StillLockedIn",
      "type": "error"
    },
    {
      "anonymous": false,
      "inputs": [
        {
          "indexed": true,
          "internalType": "address",
          "name": "from",
          "type": "address"
        },
        {
          "indexed": true,
          "internalType": "address",
          "name": "contractAddress",
          "type": "address"
        },
        {
          "indexed": false,
          "internalType": "uint256",
          "name": "value",
          "type": "uint256"
        }
      ],
      "name": "FundsReceived",
      "type": "event"
    },
    {
      "anonymous": false,
      "inputs": [
        {
          "indexed": true,
          "internalType": "address",
          "name": "operator",
          "type": "address"
        },
        {
          "indexed": true,
          "internalType": "address",
          "name": "from",
          "type": "address"
        },
        {
          "indexed": false,
          "internalType": "uint256[]",
          "name": "ids",
          "type": "uint256[]"
        },
        {
          "indexed": false,
          "internalType": "uint256[]",
          "name": "values",
          "type": "uint256[]"
        }
      ],
      "name": "XRC1155BatchReceived",
      "type": "event"
    },
    {
      "anonymous": false,
      "inputs": [
        {
          "indexed": true,
          "internalType": "address",
          "name": "operator",
          "type": "address"
        },
        {
          "indexed": true,
          "internalType": "address",
          "name": "from",
          "type": "address"
        },
        {
          "indexed": true,
          "internalType": "uint256",
          "name": "id",
          "type": "uint256"
        },
        {
          "indexed": false,
          "internalType": "uint256",
          "name": "value",
          "type": "uint256"
        }
      ],
      "name": "XRC1155Received",
      "type": "event"
    },
    {
      "anonymous": false,
      "inputs": [
        {
          "indexed": true,
          "internalType": "address",
          "name": "operator",
          "type": "address"
        },
        {
          "indexed": true,
          "internalType": "address",
          "name": "from",
          "type": "address"
        },
        {
          "indexed": true,
          "internalType": "uint256",
          "name": "tokenId",
          "type": "uint256"
        }
      ],
      "name": "XRC721Received",
      "type": "event"
    },
    {
      "inputs": [
        {
          "internalType": "uint256[]",
          "name": "_tokenIds",
          "type": "uint256[]"
        },
        {
          "internalType": "uint256[]",
          "name": "_backedValues",
          "type": "uint256[]"
        }
      ],
      "name": "addBackedValues",
      "outputs": [],
      "stateMutability": "nonpayable",
      "type": "function"
    },
    {
      "inputs": [],
      "name": "balanceOf",
      "outputs": [
        {
          "internalType": "uint256",
          "name": "",
          "type": "uint256"
        }
      ],
      "stateMutability": "view",
      "type": "function"
    },
    {
      "inputs": [
        {
          "internalType": "uint256",
          "name": "_tokenId",
          "type": "uint256"
        }
      ],
      "name": "calculateRewards",
      "outputs": [
        {
          "internalType": "uint256[]",
          "name": "",
          "type": "uint256[]"
        }
      ],
      "stateMutability": "view",
      "type": "function"
    },
    {
      "inputs": [
        {
          "internalType": "uint256",
          "name": "_tokenId",
          "type": "uint256"
        }
      ],
      "name": "checkBackedValue",
      "outputs": [
        {
          "internalType": "uint256",
          "name": "",
          "type": "uint256"
        }
      ],
      "stateMutability": "view",
      "type": "function"
    },
    {
      "inputs": [
        {
          "internalType": "uint256",
          "name": "_tokenId",
          "type": "uint256"
        }
      ],
      "name": "checkEligibility",
      "outputs": [
        {
          "internalType": "bool",
          "name": "",
          "type": "bool"
        }
      ],
      "stateMutability": "view",
      "type": "function"
    },
    {
      "inputs": [],
      "name": "checkRewards",
      "outputs": [
        {
          "components": [
            {
              "internalType": "address",
              "name": "tokenContract",
              "type": "address"
            },
            {
              "internalType": "uint256",
              "name": "rewardRate",
              "type": "uint256"
            },
            {
              "internalType": "uint256",
              "name": "rewardFrequency",
              "type": "uint256"
            },
            {
              "internalType": "enum XDSea721Staking.RewardType",
              "name": "rewardType",
              "type": "uint8"
            }
          ],
          "internalType": "struct XDSea721Staking.Reward[]",
          "name": "",
          "type": "tuple[]"
        }
      ],
      "stateMutability": "view",
      "type": "function"
    },
    {
      "inputs": [
        {
          "internalType": "uint256",
          "name": "_tokenId",
          "type": "uint256"
        }
      ],
      "name": "checkStakerAddress",
      "outputs": [
        {
          "internalType": "address",
          "name": "",
          "type": "address"
        }
      ],
      "stateMutability": "view",
      "type": "function"
    },
    {
      "inputs": [
        {
          "internalType": "uint256",
          "name": "_tokenId",
          "type": "uint256"
        }
      ],
      "name": "checkTimeOfStake",
      "outputs": [
        {
          "internalType": "uint256",
          "name": "",
          "type": "uint256"
        }
      ],
      "stateMutability": "view",
      "type": "function"
    },
    {
      "inputs": [
        {
          "internalType": "uint256",
          "name": "_tokenId",
          "type": "uint256"
        }
      ],
      "name": "claimRewards",
      "outputs": [],
      "stateMutability": "nonpayable",
      "type": "function"
    },
    {
      "inputs": [
        {
          "internalType": "uint256",
          "name": "amount",
          "type": "uint256"
        },
        {
          "internalType": "address",
          "name": "erc20address",
          "type": "address"
        }
      ],
      "name": "depositFunds",
      "outputs": [],
      "stateMutability": "payable",
      "type": "function"
    },
    {
      "inputs": [],
      "name": "isBackedValue",
      "outputs": [
        {
          "internalType": "bool",
          "name": "",
          "type": "bool"
        }
      ],
      "stateMutability": "view",
      "type": "function"
    },
    {
      "inputs": [],
      "name": "lockInPeriod",
      "outputs": [
        {
          "internalType": "uint256",
          "name": "",
          "type": "uint256"
        }
      ],
      "stateMutability": "view",
      "type": "function"
    },
    {
      "inputs": [],
      "name": "marketplaceAddress",
      "outputs": [
        {
          "internalType": "address",
          "name": "",
          "type": "address"
        }
      ],
      "stateMutability": "view",
      "type": "function"
    },
    {
      "inputs": [],
      "name": "nftCollection",
      "outputs": [
        {
          "internalType": "address",
          "name": "",
          "type": "address"
        }
      ],
      "stateMutability": "view",
      "type": "function"
    },
    {
      "inputs": [
        {
          "internalType": "address",
          "name": "operator",
          "type": "address"
        },
        {
          "internalType": "address",
          "name": "from",
          "type": "address"
        },
        {
          "internalType": "uint256[]",
          "name": "tokenIds",
          "type": "uint256[]"
        },
        {
          "internalType": "uint256[]",
          "name": "values",
          "type": "uint256[]"
        },
        {
          "internalType": "bytes",
          "name": "",
          "type": "bytes"
        }
      ],
      "name": "onERC1155BatchReceived",
      "outputs": [
        {
          "internalType": "bytes4",
          "name": "",
          "type": "bytes4"
        }
      ],
      "stateMutability": "nonpayable",
      "type": "function"
    },
    {
      "inputs": [
        {
          "internalType": "address",
          "name": "operator",
          "type": "address"
        },
        {
          "internalType": "address",
          "name": "from",
          "type": "address"
        },
        {
          "internalType": "uint256",
          "name": "tokenId",
          "type": "uint256"
        },
        {
          "internalType": "uint256",
          "name": "value",
          "type": "uint256"
        },
        {
          "internalType": "bytes",
          "name": "",
          "type": "bytes"
        }
      ],
      "name": "onERC1155Received",
      "outputs": [
        {
          "internalType": "bytes4",
          "name": "",
          "type": "bytes4"
        }
      ],
      "stateMutability": "nonpayable",
      "type": "function"
    },
    {
      "inputs": [
        {
          "internalType": "address",
          "name": "operator",
          "type": "address"
        },
        {
          "internalType": "address",
          "name": "from",
          "type": "address"
        },
        {
          "internalType": "uint256",
          "name": "tokenId",
          "type": "uint256"
        },
        {
          "internalType": "bytes",
          "name": "",
          "type": "bytes"
        }
      ],
      "name": "onERC721Received",
      "outputs": [
        {
          "internalType": "bytes4",
          "name": "",
          "type": "bytes4"
        }
      ],
      "stateMutability": "nonpayable",
      "type": "function"
    },
    {
      "inputs": [],
      "name": "poolOwner",
      "outputs": [
        {
          "internalType": "address",
          "name": "",
          "type": "address"
        }
      ],
      "stateMutability": "view",
      "type": "function"
    },
    {
      "inputs": [
        {
          "internalType": "uint256[]",
          "name": "_tokenIds",
          "type": "uint256[]"
        }
      ],
      "name": "removeBackedValues",
      "outputs": [],
      "stateMutability": "nonpayable",
      "type": "function"
    },
    {
      "inputs": [
        {
          "internalType": "uint256",
          "name": "",
          "type": "uint256"
        }
      ],
      "name": "rewards",
      "outputs": [
        {
          "internalType": "address",
          "name": "tokenContract",
          "type": "address"
        },
        {
          "internalType": "uint256",
          "name": "rewardRate",
          "type": "uint256"
        },
        {
          "internalType": "uint256",
          "name": "rewardFrequency",
          "type": "uint256"
        },
        {
          "internalType": "enum XDSea721Staking.RewardType",
          "name": "rewardType",
          "type": "uint8"
        }
      ],
      "stateMutability": "view",
      "type": "function"
    },
    {
      "inputs": [
        {
          "internalType": "address[]",
          "name": "_tokenAddresses",
          "type": "address[]"
        },
        {
          "internalType": "uint256[]",
          "name": "_rewardRates",
          "type": "uint256[]"
        },
        {
          "internalType": "uint256[]",
          "name": "_rewardFrequencies",
          "type": "uint256[]"
        },
        {
          "internalType": "uint256[]",
          "name": "_rewardTypes",
          "type": "uint256[]"
        }
      ],
      "name": "setRewards",
      "outputs": [],
      "stateMutability": "nonpayable",
      "type": "function"
    },
    {
      "inputs": [
        {
          "internalType": "uint256",
          "name": "_tokenId",
          "type": "uint256"
        }
      ],
      "name": "stake",
      "outputs": [],
      "stateMutability": "nonpayable",
      "type": "function"
    },
    {
      "inputs": [
        {
          "internalType": "uint256",
          "name": "",
          "type": "uint256"
        }
      ],
      "name": "stakedNFTs",
      "outputs": [
        {
          "internalType": "bool",
          "name": "isEligible",
          "type": "bool"
        },
        {
          "internalType": "uint256",
          "name": "backedValue",
          "type": "uint256"
        },
        {
          "internalType": "address",
          "name": "stakerAddress",
          "type": "address"
        },
        {
          "internalType": "uint256",
          "name": "timeOfStake",
          "type": "uint256"
        },
        {
          "internalType": "uint256",
          "name": "timeOfLastClaim",
          "type": "uint256"
        }
      ],
      "stateMutability": "view",
      "type": "function"
    },
    {
      "inputs": [
        {
          "internalType": "bytes4",
          "name": "interfaceID",
          "type": "bytes4"
        }
      ],
      "name": "supportsInterface",
      "outputs": [
        {
          "internalType": "bool",
          "name": "",
          "type": "bool"
        }
      ],
      "stateMutability": "pure",
      "type": "function"
    },
    {
      "inputs": [],
      "name": "timeOfPoolInitialization",
      "outputs": [
        {
          "internalType": "uint256",
          "name": "",
          "type": "uint256"
        }
      ],
      "stateMutability": "view",
      "type": "function"
    },
    {
      "inputs": [
        {
          "internalType": "uint256[]",
          "name": "_tokenIds",
          "type": "uint256[]"
        },
        {
          "internalType": "uint256[]",
          "name": "_backedValues",
          "type": "uint256[]"
        }
      ],
      "name": "updateBackedValues",
      "outputs": [],
      "stateMutability": "nonpayable",
      "type": "function"
    },
    {
      "inputs": [
        {
          "internalType": "uint256[]",
          "name": "_tokenIds",
          "type": "uint256[]"
        },
        {
          "internalType": "bool[]",
          "name": "_eligibility",
          "type": "bool[]"
        }
      ],
      "name": "updateEligibility",
      "outputs": [],
      "stateMutability": "nonpayable",
      "type": "function"
    },
    {
      "inputs": [
        {
          "internalType": "uint256",
          "name": "_lockInPeriod",
          "type": "uint256"
        }
      ],
      "name": "updateLockInPeriod",
      "outputs": [],
      "stateMutability": "nonpayable",
      "type": "function"
    },
    {
      "inputs": [
        {
          "internalType": "address",
          "name": "_poolOwner",
          "type": "address"
        }
      ],
      "name": "updatePoolOwner",
      "outputs": [],
      "stateMutability": "nonpayable",
      "type": "function"
    },
    {
      "inputs": [
        {
          "internalType": "uint256",
          "name": "_timeOfPoolInitialization",
          "type": "uint256"
        }
      ],
      "name": "updateTimeOfPoolInitialization",
      "outputs": [],
      "stateMutability": "nonpayable",
      "type": "function"
    },
    {
      "inputs": [
        {
          "internalType": "uint256",
          "name": "_tokenId",
          "type": "uint256"
        }
      ],
      "name": "withdraw",
      "outputs": [],
      "stateMutability": "nonpayable",
      "type": "function"
    },
    {
      "stateMutability": "payable",
      "type": "receive"
    }
  ],
  "bytecode": "0x60a06040527343174a2cf9b214d9036ed73efb7e36395fb86344600160006101000a81548173ffffffffffffffffffffffffffffffffffffffff021916908373ffffffffffffffffffffffffffffffffffffffff1602179055503480156200006657600080fd5b5060405162005da338038062005da383398181016040528101906200008c9190620004d1565b600160008190555033600260006101000a81548173ffffffffffffffffffffffffffffffffffffffff021916908373ffffffffffffffffffffffffffffffffffffffff1602179055508473ffffffffffffffffffffffffffffffffffffffff1660808173ffffffffffffffffffffffffffffffffffffffff16815250506200011a84620001b860201b60201c565b60008351146200019f5782518451146200017157835183516040517fab8b67c600000000000000000000000000000000000000000000000000000000815260040162000168929190620005a8565b60405180910390fd5b6200018384846200022b60201b60201c565b6001600460006101000a81548160ff0219169083151502179055505b8160038190555080600781905550505050505062000680565b60005b81518110156200022757600160056000848481518110620001e157620001e0620005d5565b5b6020026020010151815260200190815260200160002060000160006101000a81548160ff02191690831515021790555080806200021e9062000633565b915050620001bb565b5050565b60005b8251811015620002a3578181815181106200024e576200024d620005d5565b5b60200260200101516005600085848151811062000270576200026f620005d5565b5b602002602001015181526020019081526020016000206001018190555080806200029a9062000633565b9150506200022e565b505050565b6000604051905090565b600080fd5b600080fd5b600073ffffffffffffffffffffffffffffffffffffffff82169050919050565b6000620002e982620002bc565b9050919050565b620002fb81620002dc565b81146200030757600080fd5b50565b6000815190506200031b81620002f0565b92915050565b600080fd5b6000601f19601f8301169050919050565b7f4e487b7100000000000000000000000000000000000000000000000000000000600052604160045260246000fd5b620003718262000326565b810181811067ffffffffffffffff8211171562000393576200039262000337565b5b80604052505050565b6000620003a8620002a8565b9050620003b6828262000366565b919050565b600067ffffffffffffffff821115620003d957620003d862000337565b5b602082029050602081019050919050565b600080fd5b6000819050919050565b6200040481620003ef565b81146200041057600080fd5b50565b6000815190506200042481620003f9565b92915050565b6000620004416200043b84620003bb565b6200039c565b90508083825260208201905060208402830185811115620004675762000466620003ea565b5b835b818110156200049457806200047f888262000413565b84526020840193505060208101905062000469565b5050509392505050565b600082601f830112620004b657620004b562000321565b5b8151620004c88482602086016200042a565b91505092915050565b600080600080600060a08688031215620004f057620004ef620002b2565b5b600062000500888289016200030a565b955050602086015167ffffffffffffffff811115620005245762000523620002b7565b5b62000532888289016200049e565b945050604086015167ffffffffffffffff811115620005565762000555620002b7565b5b62000564888289016200049e565b9350506060620005778882890162000413565b92505060806200058a8882890162000413565b9150509295509295909350565b620005a281620003ef565b82525050565b6000604082019050620005bf600083018562000597565b620005ce602083018462000597565b9392505050565b7f4e487b7100000000000000000000000000000000000000000000000000000000600052603260045260246000fd5b7f4e487b7100000000000000000000000000000000000000000000000000000000600052601160045260246000fd5b60006200064082620003ef565b91507fffffffffffffffffffffffffffffffffffffffffffffffffffffffffffffffff820362000675576200067462000604565b5b600182019050919050565b6080516156eb620006b8600039600081816124f901528181612d8b0152818161306001528181613115015261325201526156eb6000f3fe6080604052600436106101dc5760003560e01c8063963e58e911610102578063d3f3315a11610095578063f23a6e6111610064578063f23a6e611461081f578063f301af421461085c578063f785de231461089c578063fbfd7fac146108b8576102ff565b8063d3f3315a14610763578063daa17f491461078c578063e8dcecc8146107b7578063f02a5613146107e2576102ff565b8063bc197c81116100d1578063bc197c8114610695578063cf0b2270146106d2578063cfe8ad4c146106fd578063d3ea435014610726576102ff565b8063963e58e9146105b1578063a694fc3a146105ee578063a69c253714610617578063b865749d14610654576102ff565b80632eaed0cc1161017a57806366a7f11b1161014957806366a7f11b146104f5578063722713f7146105205780637b39fed61461054b5780637f38d1d214610588576102ff565b80632eaed0cc1461044f578063310312d31461047857806336af1204146104a15780636588103b146104ca576102ff565b8063150b7a02116101b6578063150b7a021461039557806329a5e748146103d25780632aeaa291146103fb5780632e1a7d4d14610426576102ff565b806301ffc9a71461030457806305377188146103415780630962ef791461036c576102ff565b366102ff57600260009054906101000a900473ffffffffffffffffffffffffffffffffffffffff1673ffffffffffffffffffffffffffffffffffffffff163373ffffffffffffffffffffffffffffffffffffffff161461029757600260009054906101000a900473ffffffffffffffffffffffffffffffffffffffff16336040517f15a39f3500000000000000000000000000000000000000000000000000000000815260040161028e9291906142f2565b60405180910390fd5b600073ffffffffffffffffffffffffffffffffffffffff163373ffffffffffffffffffffffffffffffffffffffff167f7be377fc58fe5de9bdbdbb0bc41cba05cf72996fbddb2a421c0c52e405105d8c346040516102f59190614334565b60405180910390a3005b600080fd5b34801561031057600080fd5b5061032b600480360381019061032691906143bb565b6108e1565b6040516103389190614403565b60405180910390f35b34801561034d57600080fd5b50610356610973565b6040516103639190614334565b60405180910390f35b34801561037857600080fd5b50610393600480360381019061038e919061444a565b610979565b005b3480156103a157600080fd5b506103bc60048036038101906103b791906145e9565b61160c565b6040516103c9919061467b565b60405180910390f35b3480156103de57600080fd5b506103f960048036038101906103f4919061444a565b61167b565b005b34801561040757600080fd5b5061041061173b565b60405161041d919061482f565b60405180910390f35b34801561043257600080fd5b5061044d6004803603810190610448919061444a565b61183f565b005b34801561045b57600080fd5b5061047660048036038101906104719190614919565b612605565b005b34801561048457600080fd5b5061049f600480360381019061049a919061444a565b612775565b005b3480156104ad57600080fd5b506104c860048036038101906104c39190614a25565b612835565b005b3480156104d657600080fd5b506104df612d89565b6040516104ec9190614afc565b60405180910390f35b34801561050157600080fd5b5061050a612dad565b6040516105179190614334565b60405180910390f35b34801561052c57600080fd5b50610535612db3565b6040516105429190614334565b60405180910390f35b34801561055757600080fd5b50610572600480360381019061056d919061444a565b612e71565b60405161057f9190614403565b60405180910390f35b34801561059457600080fd5b506105af60048036038101906105aa9190614c06565b612e9e565b005b3480156105bd57600080fd5b506105d860048036038101906105d3919061444a565b612fda565b6040516105e59190614334565b60405180910390f35b3480156105fa57600080fd5b506106156004803603810190610610919061444a565b612ffa565b005b34801561062357600080fd5b5061063e6004803603810190610639919061444a565b613396565b60405161064b9190614afc565b60405180910390f35b34801561066057600080fd5b5061067b6004803603810190610676919061444a565b6133d6565b60405161068c959493929190614c7e565b60405180910390f35b3480156106a157600080fd5b506106bc60048036038101906106b79190614cd1565b613439565b6040516106c9919061467b565b60405180910390f35b3480156106de57600080fd5b506106e76134b5565b6040516106f49190614afc565b60405180910390f35b34801561070957600080fd5b50610724600480360381019061071f9190614da0565b6134db565b005b34801561073257600080fd5b5061074d6004803603810190610748919061444a565b6135d5565b60405161075a9190614e7c565b60405180910390f35b34801561076f57600080fd5b5061078a60048036038101906107859190614e9e565b613813565b005b34801561079857600080fd5b506107a16139cc565b6040516107ae9190614afc565b60405180910390f35b3480156107c357600080fd5b506107cc6139f2565b6040516107d99190614403565b60405180910390f35b3480156107ee57600080fd5b506108096004803603810190610804919061444a565b613a05565b6040516108169190614334565b60405180910390f35b34801561082b57600080fd5b5061084660048036038101906108419190614f16565b613a25565b604051610853919061467b565b60405180910390f35b34801561086857600080fd5b50610883600480360381019061087e919061444a565b613aa0565b6040516108939493929190614fbc565b60405180910390f35b6108b660048036038101906108b19190615001565b613b0d565b005b3480156108c457600080fd5b506108df60048036038101906108da9190614e9e565b613d3f565b005b60006301ffc9a760e01b827bffffffffffffffffffffffffffffffffffffffffffffffffffffffff1916148061093c575063150b7a0260e01b827bffffffffffffffffffffffffffffffffffffffffffffffffffffffff1916145b8061096c5750634e2312e060e01b827bffffffffffffffffffffffffffffffffffffffffffffffffffffffff1916145b9050919050565b60035481565b6002600054036109be576040517f08c379a00000000000000000000000000000000000000000000000000000000081526004016109b59061509e565b60405180910390fd5b60026000819055506000600560008381526020019081526020016000206004015403610a2157806040517f735b1d42000000000000000000000000000000000000000000000000000000008152600401610a189190614334565b60405180910390fd5b6005600082815260200190815260200160002060020160009054906101000a900473ffffffffffffffffffffffffffffffffffffffff1673ffffffffffffffffffffffffffffffffffffffff163373ffffffffffffffffffffffffffffffffffffffff1614610aff576005600082815260200190815260200160002060020160009054906101000a900473ffffffffffffffffffffffffffffffffffffffff16336040517f23295f0e000000000000000000000000000000000000000000000000000000008152600401610af69291906142f2565b60405180910390fd5b6000600560008381526020019081526020016000206004015442610b2391906150ed565b905060006006600081548110610b3c57610b3b615121565b5b90600052602060002090600402016002015482610b59919061517f565b905060005b60068054905081101561159357600460009054906101000a900460ff161561109c576000610bf2670de0b6b3a76400006005600088815260200190815260200160002060010154610baf919061517f565b60068481548110610bc357610bc2615121565b5b906000526020600020906004020160010154610bdf91906151b0565b84610bea91906151b0565b612710613ef9565b905060006001811115610c0857610c076146e0565b5b60068381548110610c1c57610c1b615121565b5b906000526020600020906004020160030160009054906101000a900460ff166001811115610c4d57610c4c6146e0565b5b03610d8f57610c69610c6182612774613f0f565b612710613ef9565b471015610cc55747610c88610c8083612774613f0f565b612710613ef9565b6040517f8f0f4206000000000000000000000000000000000000000000000000000000008152600401610cbc92919061520a565b60405180910390fd5b600160009054906101000a900473ffffffffffffffffffffffffffffffffffffffff1673ffffffffffffffffffffffffffffffffffffffff166108fc610d17610d0f846064613f0f565b612710613ef9565b9081150290604051600060405180830381858888f19350505050158015610d42573d6000803e3d6000fd5b503373ffffffffffffffffffffffffffffffffffffffff166108fc829081150290604051600060405180830381858888f19350505050158015610d89573d6000803e3d6000fd5b50611096565b610da6610d9e82612774613f0f565b612710613ef9565b60068381548110610dba57610db9615121565b5b906000526020600020906004020160000160009054906101000a900473ffffffffffffffffffffffffffffffffffffffff1673ffffffffffffffffffffffffffffffffffffffff166370a08231306040518263ffffffff1660e01b8152600401610e249190614afc565b602060405180830381865afa158015610e41573d6000803e3d6000fd5b505050506040513d601f19601f82011682018060405250810190610e659190615248565b1015610f7e5760068281548110610e7f57610e7e615121565b5b906000526020600020906004020160000160009054906101000a900473ffffffffffffffffffffffffffffffffffffffff1673ffffffffffffffffffffffffffffffffffffffff166370a08231306040518263ffffffff1660e01b8152600401610ee99190614afc565b602060405180830381865afa158015610f06573d6000803e3d6000fd5b505050506040513d601f19601f82011682018060405250810190610f2a9190615248565b610f41610f3983612774613f0f565b612710613ef9565b6040517f8f0f4206000000000000000000000000000000000000000000000000000000008152600401610f7592919061520a565b60405180910390fd5b611025600160009054906101000a900473ffffffffffffffffffffffffffffffffffffffff16610fba610fb2846064613f0f565b612710613ef9565b60068581548110610fce57610fcd615121565b5b906000526020600020906004020160000160009054906101000a900473ffffffffffffffffffffffffffffffffffffffff1673ffffffffffffffffffffffffffffffffffffffff16613f259092919063ffffffff16565b61109533826006858154811061103e5761103d615121565b5b906000526020600020906004020160000160009054906101000a900473ffffffffffffffffffffffffffffffffffffffff1673ffffffffffffffffffffffffffffffffffffffff16613f259092919063ffffffff16565b5b50611580565b60006110da600683815481106110b5576110b4615121565b5b906000526020600020906004020160010154846110d291906151b0565b612710613ef9565b9050600060018111156110f0576110ef6146e0565b5b6006838154811061110457611103615121565b5b906000526020600020906004020160030160009054906101000a900460ff166001811115611135576111346146e0565b5b036112775761115161114982612774613f0f565b612710613ef9565b4710156111ad574761117061116883612774613f0f565b612710613ef9565b6040517f8f0f42060000000000000000000000000000000000000000000000000000000081526004016111a492919061520a565b60405180910390fd5b600160009054906101000a900473ffffffffffffffffffffffffffffffffffffffff1673ffffffffffffffffffffffffffffffffffffffff166108fc6111ff6111f7846064613f0f565b612710613ef9565b9081150290604051600060405180830381858888f1935050505015801561122a573d6000803e3d6000fd5b503373ffffffffffffffffffffffffffffffffffffffff166108fc829081150290604051600060405180830381858888f19350505050158015611271573d6000803e3d6000fd5b5061157e565b61128e61128682612774613f0f565b612710613ef9565b600683815481106112a2576112a1615121565b5b906000526020600020906004020160000160009054906101000a900473ffffffffffffffffffffffffffffffffffffffff1673ffffffffffffffffffffffffffffffffffffffff166370a08231306040518263ffffffff1660e01b815260040161130c9190614afc565b602060405180830381865afa158015611329573d6000803e3d6000fd5b505050506040513d601f19601f8201168201806040525081019061134d9190615248565b1015611466576006828154811061136757611366615121565b5b906000526020600020906004020160000160009054906101000a900473ffffffffffffffffffffffffffffffffffffffff1673ffffffffffffffffffffffffffffffffffffffff166370a08231306040518263ffffffff1660e01b81526004016113d19190614afc565b602060405180830381865afa1580156113ee573d6000803e3d6000fd5b505050506040513d601f19601f820116820180604052508101906114129190615248565b61142961142183612774613f0f565b612710613ef9565b6040517f8f0f420600000000000000000000000000000000000000000000000000000000815260040161145d92919061520a565b60405180910390fd5b61150d600160009054906101000a900473ffffffffffffffffffffffffffffffffffffffff166114a261149a846064613f0f565b612710613ef9565b600685815481106114b6576114b5615121565b5b906000526020600020906004020160000160009054906101000a900473ffffffffffffffffffffffffffffffffffffffff1673ffffffffffffffffffffffffffffffffffffffff16613f259092919063ffffffff16565b61157d33826006858154811061152657611525615121565b5b906000526020600020906004020160000160009054906101000a900473ffffffffffffffffffffffffffffffffffffffff1673ffffffffffffffffffffffffffffffffffffffff16613f259092919063ffffffff16565b5b505b808061158b90615275565b915050610b5e565b506115c48160066000815481106115ad576115ac615121565b5b906000526020600020906004020160020154613f0f565b60056000858152602001908152602001600020600401546115e591906152bd565b60056000858152602001908152602001600020600401819055505050600160008190555050565b6000828473ffffffffffffffffffffffffffffffffffffffff168673ffffffffffffffffffffffffffffffffffffffff167f73d4ce89f05f99f34390b94c04963af5d50e8948e93a3756fbc1769377a975ce60405160405180910390a463150b7a0260e01b9050949350505050565b600260009054906101000a900473ffffffffffffffffffffffffffffffffffffffff1673ffffffffffffffffffffffffffffffffffffffff163373ffffffffffffffffffffffffffffffffffffffff161461173157600260009054906101000a900473ffffffffffffffffffffffffffffffffffffffff16336040517f15a39f350000000000000000000000000000000000000000000000000000000081526004016117289291906142f2565b60405180910390fd5b8060078190555050565b60606006805480602002602001604051908101604052809291908181526020016000905b8282101561183657838290600052602060002090600402016040518060800160405290816000820160009054906101000a900473ffffffffffffffffffffffffffffffffffffffff1673ffffffffffffffffffffffffffffffffffffffff1673ffffffffffffffffffffffffffffffffffffffff16815260200160018201548152602001600282015481526020016003820160009054906101000a900460ff166001811115611811576118106146e0565b5b6001811115611823576118226146e0565b5b815250508152602001906001019061175f565b50505050905090565b600260005403611884576040517f08c379a000000000000000000000000000000000000000000000000000000000815260040161187b9061509e565b60405180910390fd5b60026000819055503373ffffffffffffffffffffffffffffffffffffffff166005600083815260200190815260200160002060020160009054906101000a900473ffffffffffffffffffffffffffffffffffffffff1673ffffffffffffffffffffffffffffffffffffffff161461196a576005600082815260200190815260200160002060020160009054906101000a900473ffffffffffffffffffffffffffffffffffffffff16336040517f23295f0e0000000000000000000000000000000000000000000000000000000081526004016119619291906142f2565b60405180910390fd5b42600354600560008481526020019081526020016000206003015461198f91906152bd565b11156119f75760035460056000838152602001908152602001600020600301546119b991906152bd565b426040517f323737860000000000000000000000000000000000000000000000000000000081526004016119ee92919061520a565b60405180910390fd5b6000600560008381526020019081526020016000206004015442611a1b91906150ed565b905060006006600081548110611a3457611a33615121565b5b90600052602060002090600402016002015482611a51919061517f565b905060005b60068054905081101561248b57600460009054906101000a900460ff1615611f94576000611aea670de0b6b3a76400006005600088815260200190815260200160002060010154611aa7919061517f565b60068481548110611abb57611aba615121565b5b906000526020600020906004020160010154611ad791906151b0565b84611ae291906151b0565b612710613ef9565b905060006001811115611b0057611aff6146e0565b5b60068381548110611b1457611b13615121565b5b906000526020600020906004020160030160009054906101000a900460ff166001811115611b4557611b446146e0565b5b03611c8757611b61611b5982612774613f0f565b612710613ef9565b471015611bbd5747611b80611b7883612774613f0f565b612710613ef9565b6040517f8f0f4206000000000000000000000000000000000000000000000000000000008152600401611bb492919061520a565b60405180910390fd5b600160009054906101000a900473ffffffffffffffffffffffffffffffffffffffff1673ffffffffffffffffffffffffffffffffffffffff166108fc611c0f611c07846064613f0f565b612710613ef9565b9081150290604051600060405180830381858888f19350505050158015611c3a573d6000803e3d6000fd5b503373ffffffffffffffffffffffffffffffffffffffff166108fc829081150290604051600060405180830381858888f19350505050158015611c81573d6000803e3d6000fd5b50611f8e565b611c9e611c9682612774613f0f565b612710613ef9565b60068381548110611cb257611cb1615121565b5b906000526020600020906004020160000160009054906101000a900473ffffffffffffffffffffffffffffffffffffffff1673ffffffffffffffffffffffffffffffffffffffff166370a08231306040518263ffffffff1660e01b8152600401611d1c9190614afc565b602060405180830381865afa158015611d39573d6000803e3d6000fd5b505050506040513d601f19601f82011682018060405250810190611d5d9190615248565b1015611e765760068281548110611d7757611d76615121565b5b906000526020600020906004020160000160009054906101000a900473ffffffffffffffffffffffffffffffffffffffff1673ffffffffffffffffffffffffffffffffffffffff166370a08231306040518263ffffffff1660e01b8152600401611de19190614afc565b602060405180830381865afa158015611dfe573d6000803e3d6000fd5b505050506040513d601f19601f82011682018060405250810190611e229190615248565b611e39611e3183612774613f0f565b612710613ef9565b6040517f8f0f4206000000000000000000000000000000000000000000000000000000008152600401611e6d92919061520a565b60405180910390fd5b611f1d600160009054906101000a900473ffffffffffffffffffffffffffffffffffffffff16611eb2611eaa846064613f0f565b612710613ef9565b60068581548110611ec657611ec5615121565b5b906000526020600020906004020160000160009054906101000a900473ffffffffffffffffffffffffffffffffffffffff1673ffffffffffffffffffffffffffffffffffffffff16613f259092919063ffffffff16565b611f8d338260068581548110611f3657611f35615121565b5b906000526020600020906004020160000160009054906101000a900473ffffffffffffffffffffffffffffffffffffffff1673ffffffffffffffffffffffffffffffffffffffff16613f259092919063ffffffff16565b5b50612478565b6000611fd260068381548110611fad57611fac615121565b5b90600052602060002090600402016001015484611fca91906151b0565b612710613ef9565b905060006001811115611fe857611fe76146e0565b5b60068381548110611ffc57611ffb615121565b5b906000526020600020906004020160030160009054906101000a900460ff16600181111561202d5761202c6146e0565b5b0361216f5761204961204182612774613f0f565b612710613ef9565b4710156120a5574761206861206083612774613f0f565b612710613ef9565b6040517f8f0f420600000000000000000000000000000000000000000000000000000000815260040161209c92919061520a565b60405180910390fd5b600160009054906101000a900473ffffffffffffffffffffffffffffffffffffffff1673ffffffffffffffffffffffffffffffffffffffff166108fc6120f76120ef846064613f0f565b612710613ef9565b9081150290604051600060405180830381858888f19350505050158015612122573d6000803e3d6000fd5b503373ffffffffffffffffffffffffffffffffffffffff166108fc829081150290604051600060405180830381858888f19350505050158015612169573d6000803e3d6000fd5b50612476565b61218661217e82612774613f0f565b612710613ef9565b6006838154811061219a57612199615121565b5b906000526020600020906004020160000160009054906101000a900473ffffffffffffffffffffffffffffffffffffffff1673ffffffffffffffffffffffffffffffffffffffff166370a08231306040518263ffffffff1660e01b81526004016122049190614afc565b602060405180830381865afa158015612221573d6000803e3d6000fd5b505050506040513d601f19601f820116820180604052508101906122459190615248565b101561235e576006828154811061225f5761225e615121565b5b906000526020600020906004020160000160009054906101000a900473ffffffffffffffffffffffffffffffffffffffff1673ffffffffffffffffffffffffffffffffffffffff166370a08231306040518263ffffffff1660e01b81526004016122c99190614afc565b602060405180830381865afa1580156122e6573d6000803e3d6000fd5b505050506040513d601f19601f8201168201806040525081019061230a9190615248565b61232161231983612774613f0f565b612710613ef9565b6040517f8f0f420600000000000000000000000000000000000000000000000000000000815260040161235592919061520a565b60405180910390fd5b612405600160009054906101000a900473ffffffffffffffffffffffffffffffffffffffff1661239a612392846064613f0f565b612710613ef9565b600685815481106123ae576123ad615121565b5b906000526020600020906004020160000160009054906101000a900473ffffffffffffffffffffffffffffffffffffffff1673ffffffffffffffffffffffffffffffffffffffff16613f259092919063ffffffff16565b61247533826006858154811061241e5761241d615121565b5b906000526020600020906004020160000160009054906101000a900473ffffffffffffffffffffffffffffffffffffffff1673ffffffffffffffffffffffffffffffffffffffff16613f259092919063ffffffff16565b5b505b808061248390615275565b915050611a56565b506124bc8160066000815481106124a5576124a4615121565b5b906000526020600020906004020160020154613f0f565b60056000858152602001908152602001600020600401546124dd91906152bd565b60056000858152602001908152602001600020600401819055507f000000000000000000000000000000000000000000000000000000000000000073ffffffffffffffffffffffffffffffffffffffff166342842e0e3033866040518463ffffffff1660e01b815260040161255493929190615313565b600060405180830381600087803b15801561256e57600080fd5b505af1158015612582573d6000803e3d6000fd5b5050505060006005600085815260200190815260200160002060020160006101000a81548173ffffffffffffffffffffffffffffffffffffffff021916908373ffffffffffffffffffffffffffffffffffffffff160217905550600060056000858152602001908152602001600020600301819055505050600160008190555050565b600260009054906101000a900473ffffffffffffffffffffffffffffffffffffffff1673ffffffffffffffffffffffffffffffffffffffff163373ffffffffffffffffffffffffffffffffffffffff16146126bb57600260009054906101000a900473ffffffffffffffffffffffffffffffffffffffff16336040517f15a39f350000000000000000000000000000000000000000000000000000000081526004016126b29291906142f2565b60405180910390fd5b600460009054906101000a900460ff16612701576040517f4c9488d900000000000000000000000000000000000000000000000000000000815260040160405180910390fd5b6000600460006101000a81548160ff02191690831515021790555060005b81518110156127715760006005600084848151811061274157612740615121565b5b6020026020010151815260200190815260200160002060010181905550808061276990615275565b91505061271f565b5050565b600260009054906101000a900473ffffffffffffffffffffffffffffffffffffffff1673ffffffffffffffffffffffffffffffffffffffff163373ffffffffffffffffffffffffffffffffffffffff161461282b57600260009054906101000a900473ffffffffffffffffffffffffffffffffffffffff16336040517f15a39f350000000000000000000000000000000000000000000000000000000081526004016128229291906142f2565b60405180910390fd5b8060038190555050565b600260009054906101000a900473ffffffffffffffffffffffffffffffffffffffff1673ffffffffffffffffffffffffffffffffffffffff163373ffffffffffffffffffffffffffffffffffffffff16146128eb57600260009054906101000a900473ffffffffffffffffffffffffffffffffffffffff16336040517f15a39f350000000000000000000000000000000000000000000000000000000081526004016128e29291906142f2565b60405180910390fd5b825184511461293557835183516040517fab8b67c600000000000000000000000000000000000000000000000000000000815260040161292c92919061520a565b60405180910390fd5b815184511461297f57835182516040517fab8b67c600000000000000000000000000000000000000000000000000000000815260040161297692919061520a565b60405180910390fd5b81518351146129c957825182516040517fab8b67c60000000000000000000000000000000000000000000000000000000081526004016129c092919061520a565b60405180910390fd5b8051845114612a1357835181516040517fab8b67c6000000000000000000000000000000000000000000000000000000008152600401612a0a92919061520a565b60405180910390fd5b8051835114612a5d57825181516040517fab8b67c6000000000000000000000000000000000000000000000000000000008152600401612a5492919061520a565b60405180910390fd5b8051825114612aa757815181516040517fab8b67c6000000000000000000000000000000000000000000000000000000008152600401612a9e92919061520a565b60405180910390fd5b60005b8451811015612d8257600080838381518110612ac957612ac8615121565b5b602002602001015103612b8457600073ffffffffffffffffffffffffffffffffffffffff16868381518110612b0157612b00615121565b5b602002602001015173ffffffffffffffffffffffffffffffffffffffff1614612b7b57858281518110612b3757612b36615121565b5b60200260200101516040517fdaf08c1c000000000000000000000000000000000000000000000000000000008152600401612b729190614afc565b60405180910390fd5b60009050612c19565b6000868381518110612b9957612b98615121565b5b602002602001015190508073ffffffffffffffffffffffffffffffffffffffff166318160ddd6040518163ffffffff1660e01b8152600401602060405180830381865afa158015612bee573d6000803e3d6000fd5b505050506040513d601f19601f82011682018060405250810190612c129190615248565b5060019150505b60006040518060800160405280888581518110612c3957612c38615121565b5b602002602001015173ffffffffffffffffffffffffffffffffffffffff168152602001878581518110612c6f57612c6e615121565b5b60200260200101518152602001868581518110612c8f57612c8e615121565b5b60200260200101518152602001836001811115612caf57612cae6146e0565b5b8152509050600681908060018154018082558091505060019003906000526020600020906004020160009091909190915060008201518160000160006101000a81548173ffffffffffffffffffffffffffffffffffffffff021916908373ffffffffffffffffffffffffffffffffffffffff160217905550602082015181600101556040820151816002015560608201518160030160006101000a81548160ff02191690836001811115612d6657612d656146e0565b5b0217905550505050508080612d7a90615275565b915050612aaa565b5050505050565b7f000000000000000000000000000000000000000000000000000000000000000081565b60075481565b6000600260009054906101000a900473ffffffffffffffffffffffffffffffffffffffff1673ffffffffffffffffffffffffffffffffffffffff163373ffffffffffffffffffffffffffffffffffffffff1614612e6b57600260009054906101000a900473ffffffffffffffffffffffffffffffffffffffff16336040517f15a39f35000000000000000000000000000000000000000000000000000000008152600401612e629291906142f2565b60405180910390fd5b47905090565b60006005600083815260200190815260200160002060000160009054906101000a900460ff169050919050565b600260009054906101000a900473ffffffffffffffffffffffffffffffffffffffff1673ffffffffffffffffffffffffffffffffffffffff163373ffffffffffffffffffffffffffffffffffffffff1614612f5457600260009054906101000a900473ffffffffffffffffffffffffffffffffffffffff16336040517f15a39f35000000000000000000000000000000000000000000000000000000008152600401612f4b9291906142f2565b60405180910390fd5b60005b8251811015612fd557818181518110612f7357612f72615121565b5b602002602001015160056000858481518110612f9257612f91615121565b5b6020026020010151815260200190815260200160002060000160006101000a81548160ff0219169083151502179055508080612fcd90615275565b915050612f57565b505050565b600060056000838152602001908152602001600020600101549050919050565b60026000540361303f576040517f08c379a00000000000000000000000000000000000000000000000000000000081526004016130369061509e565b60405180910390fd5b60026000819055503373ffffffffffffffffffffffffffffffffffffffff167f000000000000000000000000000000000000000000000000000000000000000073ffffffffffffffffffffffffffffffffffffffff16636352211e836040518263ffffffff1660e01b81526004016130b79190614334565b602060405180830381865afa1580156130d4573d6000803e3d6000fd5b505050506040513d601f19601f820116820180604052508101906130f8919061535f565b73ffffffffffffffffffffffffffffffffffffffff16146131eb577f000000000000000000000000000000000000000000000000000000000000000073ffffffffffffffffffffffffffffffffffffffff16636352211e826040518263ffffffff1660e01b815260040161316c9190614334565b602060405180830381865afa158015613189573d6000803e3d6000fd5b505050506040513d601f19601f820116820180604052508101906131ad919061535f565b336040517f23295f0e0000000000000000000000000000000000000000000000000000000081526004016131e29291906142f2565b60405180910390fd5b6005600082815260200190815260200160002060000160009054906101000a900460ff1661325057806040517fcfa6511b0000000000000000000000000000000000000000000000000000000081526004016132479190614334565b60405180910390fd5b7f000000000000000000000000000000000000000000000000000000000000000073ffffffffffffffffffffffffffffffffffffffff166342842e0e3330846040518463ffffffff1660e01b81526004016132ad93929190615313565b600060405180830381600087803b1580156132c757600080fd5b505af11580156132db573d6000803e3d6000fd5b50505050336005600083815260200190815260200160002060020160006101000a81548173ffffffffffffffffffffffffffffffffffffffff021916908373ffffffffffffffffffffffffffffffffffffffff160217905550426005600083815260200190815260200160002060030181905550600060056000838152602001908152602001600020600401540361338b5760075460056000838152602001908152602001600020600401819055505b600160008190555050565b60006005600083815260200190815260200160002060020160009054906101000a900473ffffffffffffffffffffffffffffffffffffffff169050919050565b60056020528060005260406000206000915090508060000160009054906101000a900460ff16908060010154908060020160009054906101000a900473ffffffffffffffffffffffffffffffffffffffff16908060030154908060040154905085565b60008473ffffffffffffffffffffffffffffffffffffffff168673ffffffffffffffffffffffffffffffffffffffff167f9b09a98d4f66ca67c7bcc8db7b2f69356715ecbfe955feb24e615d70143b15e7868660405161349a92919061538c565b60405180910390a363bc197c8160e01b905095945050505050565b600260009054906101000a900473ffffffffffffffffffffffffffffffffffffffff1681565b600260009054906101000a900473ffffffffffffffffffffffffffffffffffffffff1673ffffffffffffffffffffffffffffffffffffffff163373ffffffffffffffffffffffffffffffffffffffff161461359157600260009054906101000a900473ffffffffffffffffffffffffffffffffffffffff16336040517f15a39f350000000000000000000000000000000000000000000000000000000081526004016135889291906142f2565b60405180910390fd5b80600260006101000a81548173ffffffffffffffffffffffffffffffffffffffff021916908373ffffffffffffffffffffffffffffffffffffffff16021790555050565b6060600060056000848152602001908152602001600020600401540361363257816040517f735b1d420000000000000000000000000000000000000000000000000000000081526004016136299190614334565b60405180910390fd5b600060056000848152602001908152602001600020600401544261365691906150ed565b9050600060068054905067ffffffffffffffff811115613679576136786144be565b5b6040519080825280602002602001820160405280156136a75781602001602082028036833780820191505090505b50905060005b600680549050811015613808576000600682815481106136d0576136cf615121565b5b906000526020600020906004020160020154846136ed919061517f565b9050600460009054906101000a900460ff161561379857613774670de0b6b3a76400006005600089815260200190815260200160002060010154613731919061517f565b6006848154811061374557613744615121565b5b90600052602060002090600402016001015461376191906151b0565b8261376c91906151b0565b612710613ef9565b83838151811061378757613786615121565b5b6020026020010181815250506137f4565b6137d4600683815481106137af576137ae615121565b5b906000526020600020906004020160010154826137cc91906151b0565b612710613ef9565b8383815181106137e7576137e6615121565b5b6020026020010181815250505b50808061380090615275565b9150506136ad565b508092505050919050565b600260009054906101000a900473ffffffffffffffffffffffffffffffffffffffff1673ffffffffffffffffffffffffffffffffffffffff163373ffffffffffffffffffffffffffffffffffffffff16146138c957600260009054906101000a900473ffffffffffffffffffffffffffffffffffffffff16336040517f15a39f350000000000000000000000000000000000000000000000000000000081526004016138c09291906142f2565b60405180910390fd5b600460009054906101000a900460ff1661390f576040517f4c9488d900000000000000000000000000000000000000000000000000000000815260040160405180910390fd5b805182511461395957815181516040517fab8b67c600000000000000000000000000000000000000000000000000000000815260040161395092919061520a565b60405180910390fd5b60005b82518110156139c75781818151811061397857613977615121565b5b60200260200101516005600085848151811061399757613996615121565b5b602002602001015181526020019081526020016000206001018190555080806139bf90615275565b91505061395c565b505050565b600160009054906101000a900473ffffffffffffffffffffffffffffffffffffffff1681565b600460009054906101000a900460ff1681565b600060056000838152602001908152602001600020600301549050919050565b6000838573ffffffffffffffffffffffffffffffffffffffff168773ffffffffffffffffffffffffffffffffffffffff167f6069b25ab451e7002a7a7c352e9cdda52578e7a6d54071402810ff8aee99e78e86604051613a859190614334565b60405180910390a463f23a6e6160e01b905095945050505050565b60068181548110613ab057600080fd5b90600052602060002090600402016000915090508060000160009054906101000a900473ffffffffffffffffffffffffffffffffffffffff16908060010154908060020154908060030160009054906101000a900460ff16905084565b600260009054906101000a900473ffffffffffffffffffffffffffffffffffffffff1673ffffffffffffffffffffffffffffffffffffffff163373ffffffffffffffffffffffffffffffffffffffff1614613bc357600260009054906101000a900473ffffffffffffffffffffffffffffffffffffffff16336040517f15a39f35000000000000000000000000000000000000000000000000000000008152600401613bba9291906142f2565b60405180910390fd5b600073ffffffffffffffffffffffffffffffffffffffff168173ffffffffffffffffffffffffffffffffffffffff1603613ca857813414613c3d5734826040517f8f0f4206000000000000000000000000000000000000000000000000000000008152600401613c3492919061520a565b60405180910390fd5b600073ffffffffffffffffffffffffffffffffffffffff163373ffffffffffffffffffffffffffffffffffffffff167f7be377fc58fe5de9bdbdbb0bc41cba05cf72996fbddb2a421c0c52e405105d8c34604051613c9b9190614334565b60405180910390a3613d3b565b613cd53330848473ffffffffffffffffffffffffffffffffffffffff16613fab909392919063ffffffff16565b8073ffffffffffffffffffffffffffffffffffffffff163373ffffffffffffffffffffffffffffffffffffffff167f7be377fc58fe5de9bdbdbb0bc41cba05cf72996fbddb2a421c0c52e405105d8c84604051613d329190614334565b60405180910390a35b5050565b600260009054906101000a900473ffffffffffffffffffffffffffffffffffffffff1673ffffffffffffffffffffffffffffffffffffffff163373ffffffffffffffffffffffffffffffffffffffff1614613df557600260009054906101000a900473ffffffffffffffffffffffffffffffffffffffff16336040517f15a39f35000000000000000000000000000000000000000000000000000000008152600401613dec9291906142f2565b60405180910390fd5b600460009054906101000a900460ff1615613e3c576040517fa4eebd4700000000000000000000000000000000000000000000000000000000815260040160405180910390fd5b8051825114613e8657815181516040517fab8b67c6000000000000000000000000000000000000000000000000000000008152600401613e7d92919061520a565b60405180910390fd5b60005b8251811015613ef457818181518110613ea557613ea4615121565b5b602002602001015160056000858481518110613ec457613ec3615121565b5b60200260200101518152602001908152602001600020600101819055508080613eec90615275565b915050613e89565b505050565b60008183613f07919061517f565b905092915050565b60008183613f1d91906151b0565b905092915050565b613fa68363a9059cbb60e01b8484604051602401613f449291906153c3565b604051602081830303815290604052907bffffffffffffffffffffffffffffffffffffffffffffffffffffffff19166020820180517bffffffffffffffffffffffffffffffffffffffffffffffffffffffff8381831617835250505050614034565b505050565b61402e846323b872dd60e01b858585604051602401613fcc93929190615313565b604051602081830303815290604052907bffffffffffffffffffffffffffffffffffffffffffffffffffffffff19166020820180517bffffffffffffffffffffffffffffffffffffffffffffffffffffffff8381831617835250505050614034565b50505050565b6000614096826040518060400160405280602081526020017f5361666545524332303a206c6f772d6c6576656c2063616c6c206661696c65648152508573ffffffffffffffffffffffffffffffffffffffff166140fb9092919063ffffffff16565b90506000815111156140f657808060200190518101906140b69190615401565b6140f5576040517f08c379a00000000000000000000000000000000000000000000000000000000081526004016140ec906154a0565b60405180910390fd5b5b505050565b606061410a8484600085614113565b90509392505050565b606082471015614158576040517f08c379a000000000000000000000000000000000000000000000000000000000815260040161414f90615532565b60405180910390fd5b61416185614227565b6141a0576040517f08c379a00000000000000000000000000000000000000000000000000000000081526004016141979061559e565b60405180910390fd5b6000808673ffffffffffffffffffffffffffffffffffffffff1685876040516141c99190615638565b60006040518083038185875af1925050503d8060008114614206576040519150601f19603f3d011682016040523d82523d6000602084013e61420b565b606091505b509150915061421b82828661424a565b92505050949350505050565b6000808273ffffffffffffffffffffffffffffffffffffffff163b119050919050565b6060831561425a578290506142aa565b60008351111561426d5782518084602001fd5b816040517f08c379a00000000000000000000000000000000000000000000000000000000081526004016142a19190615693565b60405180910390fd5b9392505050565b600073ffffffffffffffffffffffffffffffffffffffff82169050919050565b60006142dc826142b1565b9050919050565b6142ec816142d1565b82525050565b600060408201905061430760008301856142e3565b61431460208301846142e3565b9392505050565b6000819050919050565b61432e8161431b565b82525050565b60006020820190506143496000830184614325565b92915050565b6000604051905090565b600080fd5b600080fd5b60007fffffffff0000000000000000000000000000000000000000000000000000000082169050919050565b61439881614363565b81146143a357600080fd5b50565b6000813590506143b58161438f565b92915050565b6000602082840312156143d1576143d0614359565b5b60006143df848285016143a6565b91505092915050565b60008115159050919050565b6143fd816143e8565b82525050565b600060208201905061441860008301846143f4565b92915050565b6144278161431b565b811461443257600080fd5b50565b6000813590506144448161441e565b92915050565b6000602082840312156144605761445f614359565b5b600061446e84828501614435565b91505092915050565b614480816142d1565b811461448b57600080fd5b50565b60008135905061449d81614477565b92915050565b600080fd5b600080fd5b6000601f19601f8301169050919050565b7f4e487b7100000000000000000000000000000000000000000000000000000000600052604160045260246000fd5b6144f6826144ad565b810181811067ffffffffffffffff82111715614515576145146144be565b5b80604052505050565b600061452861434f565b905061453482826144ed565b919050565b600067ffffffffffffffff821115614554576145536144be565b5b61455d826144ad565b9050602081019050919050565b82818337600083830152505050565b600061458c61458784614539565b61451e565b9050828152602081018484840111156145a8576145a76144a8565b5b6145b384828561456a565b509392505050565b600082601f8301126145d0576145cf6144a3565b5b81356145e0848260208601614579565b91505092915050565b6000806000806080858703121561460357614602614359565b5b60006146118782880161448e565b94505060206146228782880161448e565b935050604061463387828801614435565b925050606085013567ffffffffffffffff8111156146545761465361435e565b5b614660878288016145bb565b91505092959194509250565b61467581614363565b82525050565b6000602082019050614690600083018461466c565b92915050565b600081519050919050565b600082825260208201905092915050565b6000819050602082019050919050565b6146cb816142d1565b82525050565b6146da8161431b565b82525050565b7f4e487b7100000000000000000000000000000000000000000000000000000000600052602160045260246000fd5b600281106147205761471f6146e0565b5b50565b60008190506147318261470f565b919050565b600061474182614723565b9050919050565b61475181614736565b82525050565b60808201600082015161476d60008501826146c2565b50602082015161478060208501826146d1565b50604082015161479360408501826146d1565b5060608201516147a66060850182614748565b50505050565b60006147b88383614757565b60808301905092915050565b6000602082019050919050565b60006147dc82614696565b6147e681856146a1565b93506147f1836146b2565b8060005b8381101561482257815161480988826147ac565b9750614814836147c4565b9250506001810190506147f5565b5085935050505092915050565b6000602082019050818103600083015261484981846147d1565b905092915050565b600067ffffffffffffffff82111561486c5761486b6144be565b5b602082029050602081019050919050565b600080fd5b600061489561489084614851565b61451e565b905080838252602082019050602084028301858111156148b8576148b761487d565b5b835b818110156148e157806148cd8882614435565b8452602084019350506020810190506148ba565b5050509392505050565b600082601f830112614900576148ff6144a3565b5b8135614910848260208601614882565b91505092915050565b60006020828403121561492f5761492e614359565b5b600082013567ffffffffffffffff81111561494d5761494c61435e565b5b614959848285016148eb565b91505092915050565b600067ffffffffffffffff82111561497d5761497c6144be565b5b602082029050602081019050919050565b60006149a161499c84614962565b61451e565b905080838252602082019050602084028301858111156149c4576149c361487d565b5b835b818110156149ed57806149d9888261448e565b8452602084019350506020810190506149c6565b5050509392505050565b600082601f830112614a0c57614a0b6144a3565b5b8135614a1c84826020860161498e565b91505092915050565b60008060008060808587031215614a3f57614a3e614359565b5b600085013567ffffffffffffffff811115614a5d57614a5c61435e565b5b614a69878288016149f7565b945050602085013567ffffffffffffffff811115614a8a57614a8961435e565b5b614a96878288016148eb565b935050604085013567ffffffffffffffff811115614ab757614ab661435e565b5b614ac3878288016148eb565b925050606085013567ffffffffffffffff811115614ae457614ae361435e565b5b614af0878288016148eb565b91505092959194509250565b6000602082019050614b1160008301846142e3565b92915050565b600067ffffffffffffffff821115614b3257614b316144be565b5b602082029050602081019050919050565b614b4c816143e8565b8114614b5757600080fd5b50565b600081359050614b6981614b43565b92915050565b6000614b82614b7d84614b17565b61451e565b90508083825260208201905060208402830185811115614ba557614ba461487d565b5b835b81811015614bce5780614bba8882614b5a565b845260208401935050602081019050614ba7565b5050509392505050565b600082601f830112614bed57614bec6144a3565b5b8135614bfd848260208601614b6f565b91505092915050565b60008060408385031215614c1d57614c1c614359565b5b600083013567ffffffffffffffff811115614c3b57614c3a61435e565b5b614c47858286016148eb565b925050602083013567ffffffffffffffff811115614c6857614c6761435e565b5b614c7485828601614bd8565b9150509250929050565b600060a082019050614c9360008301886143f4565b614ca06020830187614325565b614cad60408301866142e3565b614cba6060830185614325565b614cc76080830184614325565b9695505050505050565b600080600080600060a08688031215614ced57614cec614359565b5b6000614cfb8882890161448e565b9550506020614d0c8882890161448e565b945050604086013567ffffffffffffffff811115614d2d57614d2c61435e565b5b614d39888289016148eb565b935050606086013567ffffffffffffffff811115614d5a57614d5961435e565b5b614d66888289016148eb565b925050608086013567ffffffffffffffff811115614d8757614d8661435e565b5b614d93888289016145bb565b9150509295509295909350565b600060208284031215614db657614db5614359565b5b6000614dc48482850161448e565b91505092915050565b600081519050919050565b600082825260208201905092915050565b6000819050602082019050919050565b6000614e0583836146d1565b60208301905092915050565b6000602082019050919050565b6000614e2982614dcd565b614e338185614dd8565b9350614e3e83614de9565b8060005b83811015614e6f578151614e568882614df9565b9750614e6183614e11565b925050600181019050614e42565b5085935050505092915050565b60006020820190508181036000830152614e968184614e1e565b905092915050565b60008060408385031215614eb557614eb4614359565b5b600083013567ffffffffffffffff811115614ed357614ed261435e565b5b614edf858286016148eb565b925050602083013567ffffffffffffffff811115614f0057614eff61435e565b5b614f0c858286016148eb565b9150509250929050565b600080600080600060a08688031215614f3257614f31614359565b5b6000614f408882890161448e565b9550506020614f518882890161448e565b9450506040614f6288828901614435565b9350506060614f7388828901614435565b925050608086013567ffffffffffffffff811115614f9457614f9361435e565b5b614fa0888289016145bb565b9150509295509295909350565b614fb681614736565b82525050565b6000608082019050614fd160008301876142e3565b614fde6020830186614325565b614feb6040830185614325565b614ff86060830184614fad565b95945050505050565b6000806040838503121561501857615017614359565b5b600061502685828601614435565b92505060206150378582860161448e565b9150509250929050565b600082825260208201905092915050565b7f5265656e7472616e637947756172643a207265656e7472616e742063616c6c00600082015250565b6000615088601f83615041565b915061509382615052565b602082019050919050565b600060208201905081810360008301526150b78161507b565b9050919050565b7f4e487b7100000000000000000000000000000000000000000000000000000000600052601160045260246000fd5b60006150f88261431b565b91506151038361431b565b925082821015615116576151156150be565b5b828203905092915050565b7f4e487b7100000000000000000000000000000000000000000000000000000000600052603260045260246000fd5b7f4e487b7100000000000000000000000000000000000000000000000000000000600052601260045260246000fd5b600061518a8261431b565b91506151958361431b565b9250826151a5576151a4615150565b5b828204905092915050565b60006151bb8261431b565b91506151c68361431b565b9250817fffffffffffffffffffffffffffffffffffffffffffffffffffffffffffffffff04831182151516156151ff576151fe6150be565b5b828202905092915050565b600060408201905061521f6000830185614325565b61522c6020830184614325565b9392505050565b6000815190506152428161441e565b92915050565b60006020828403121561525e5761525d614359565b5b600061526c84828501615233565b91505092915050565b60006152808261431b565b91507fffffffffffffffffffffffffffffffffffffffffffffffffffffffffffffffff82036152b2576152b16150be565b5b600182019050919050565b60006152c88261431b565b91506152d38361431b565b9250827fffffffffffffffffffffffffffffffffffffffffffffffffffffffffffffffff03821115615308576153076150be565b5b828201905092915050565b600060608201905061532860008301866142e3565b61533560208301856142e3565b6153426040830184614325565b949350505050565b60008151905061535981614477565b92915050565b60006020828403121561537557615374614359565b5b60006153838482850161534a565b91505092915050565b600060408201905081810360008301526153a68185614e1e565b905081810360208301526153ba8184614e1e565b90509392505050565b60006040820190506153d860008301856142e3565b6153e56020830184614325565b9392505050565b6000815190506153fb81614b43565b92915050565b60006020828403121561541757615416614359565b5b6000615425848285016153ec565b91505092915050565b7f5361666545524332303a204552433230206f7065726174696f6e20646964206e60008201527f6f74207375636365656400000000000000000000000000000000000000000000602082015250565b600061548a602a83615041565b91506154958261542e565b604082019050919050565b600060208201905081810360008301526154b98161547d565b9050919050565b7f416464726573733a20696e73756666696369656e742062616c616e636520666f60008201527f722063616c6c0000000000000000000000000000000000000000000000000000602082015250565b600061551c602683615041565b9150615527826154c0565b604082019050919050565b6000602082019050818103600083015261554b8161550f565b9050919050565b7f416464726573733a2063616c6c20746f206e6f6e2d636f6e7472616374000000600082015250565b6000615588601d83615041565b915061559382615552565b602082019050919050565b600060208201905081810360008301526155b78161557b565b9050919050565b600081519050919050565b600081905092915050565b60005b838110156155f25780820151818401526020810190506155d7565b83811115615601576000848401525b50505050565b6000615612826155be565b61561c81856155c9565b935061562c8185602086016155d4565b80840191505092915050565b60006156448284615607565b915081905092915050565b600081519050919050565b60006156658261564f565b61566f8185615041565b935061567f8185602086016155d4565b615688816144ad565b840191505092915050565b600060208201905081810360008301526156ad818461565a565b90509291505056fea2646970667358221220f343edf468682916aed8724b2aae06f2a99d36bf69a52c9614ab63a8e65396b664736f6c634300080f0033",
  "linkReferences": {},
  "deployedLinkReferences": {}
}