{
  "_format": "hh-sol-artifact-1",
  "contractName": "XDSeaMarket721",
  "sourceName": "newContracts/XDSeaMarket721.sol",
  "abi": [
    {
      "inputs": [],
      "stateMutability": "nonpayable",
      "type": "constructor"
    },
    {
      "inputs": [
        {
          "internalType": "address",
          "name": "nftContract",
          "type": "address"
        },
        {
          "internalType": "uint256",
          "name": "tokenId",
          "type": "uint256"
        },
        {
          "internalType": "address",
          "name": "receiver",
          "type": "address"
        }
      ],
      "name": "CannotTransferToNull",
      "type": "error"
    },
    {
      "inputs": [],
      "name": "NotApprovedForMarketplace",
      "type": "error"
    },
    {
      "inputs": [
        {
          "internalType": "address",
          "name": "nftContract",
          "type": "address"
        },
        {
          "internalType": "uint256",
          "name": "tokenId",
          "type": "uint256"
        }
      ],
      "name": "NotListed",
      "type": "error"
    },
    {
      "inputs": [],
      "name": "NotOwner",
      "type": "error"
    },
    {
      "inputs": [
        {
          "internalType": "address",
          "name": "listingERC20Address",
          "type": "address"
        },
        {
          "internalType": "address",
          "name": "transactionERC20Address",
          "type": "address"
        }
      ],
      "name": "NotTheRightCurrency",
      "type": "error"
    },
    {
      "inputs": [],
      "name": "OwnerCannotBuyOwnNFT",
      "type": "error"
    },
    {
      "inputs": [],
      "name": "PriceMustBeAboveZero",
      "type": "error"
    },
    {
      "inputs": [
        {
          "internalType": "address",
          "name": "nftContract",
          "type": "address"
        },
        {
          "internalType": "uint256",
          "name": "tokenId",
          "type": "uint256"
        },
        {
          "internalType": "uint256",
          "name": "price",
          "type": "uint256"
        }
      ],
      "name": "PriceNotMet",
      "type": "error"
    },
    {
      "anonymous": false,
      "inputs": [
        {
          "indexed": true,
          "internalType": "address",
          "name": "operator",
          "type": "address"
        },
        {
          "indexed": true,
          "internalType": "address",
          "name": "from",
          "type": "address"
        },
        {
          "indexed": true,
          "internalType": "uint256",
          "name": "tokenId",
          "type": "uint256"
        }
      ],
      "name": "ERC721Received",
      "type": "event"
    },
    {
      "anonymous": false,
      "inputs": [
        {
          "indexed": true,
          "internalType": "address",
          "name": "seller",
          "type": "address"
        },
        {
          "indexed": true,
          "internalType": "address",
          "name": "nftContract",
          "type": "address"
        },
        {
          "indexed": true,
          "internalType": "uint256",
          "name": "tokenId",
          "type": "uint256"
        },
        {
          "indexed": false,
          "internalType": "uint256",
          "name": "price",
          "type": "uint256"
        }
      ],
      "name": "NFTListEdited",
      "type": "event"
    },
    {
      "anonymous": false,
      "inputs": [
        {
          "indexed": true,
          "internalType": "address",
          "name": "seller",
          "type": "address"
        },
        {
          "indexed": true,
          "internalType": "address",
          "name": "nftContract",
          "type": "address"
        },
        {
          "indexed": true,
          "internalType": "uint256",
          "name": "tokenId",
          "type": "uint256"
        },
        {
          "indexed": false,
          "internalType": "address",
          "name": "erc20Address",
          "type": "address"
        },
        {
          "indexed": false,
          "internalType": "uint256",
          "name": "price",
          "type": "uint256"
        }
      ],
      "name": "NFTListed",
      "type": "event"
    },
    {
      "anonymous": false,
      "inputs": [
        {
          "indexed": true,
          "internalType": "address",
          "name": "buyer",
          "type": "address"
        },
        {
          "indexed": true,
          "internalType": "address",
          "name": "nftContract",
          "type": "address"
        },
        {
          "indexed": true,
          "internalType": "uint256",
          "name": "tokenId",
          "type": "uint256"
        },
        {
          "indexed": false,
          "internalType": "uint256",
          "name": "price",
          "type": "uint256"
        }
      ],
      "name": "NFTPurchased",
      "type": "event"
    },
    {
      "anonymous": false,
      "inputs": [
        {
          "indexed": true,
          "internalType": "address",
          "name": "sender",
          "type": "address"
        },
        {
          "indexed": true,
          "internalType": "address",
          "name": "nftContract",
          "type": "address"
        },
        {
          "indexed": true,
          "internalType": "uint256",
          "name": "tokenId",
          "type": "uint256"
        },
        {
          "indexed": false,
          "internalType": "address",
          "name": "receiver",
          "type": "address"
        }
      ],
      "name": "NFTTransferred",
      "type": "event"
    },
    {
      "anonymous": false,
      "inputs": [
        {
          "indexed": true,
          "internalType": "address",
          "name": "withdrawer",
          "type": "address"
        },
        {
          "indexed": true,
          "internalType": "address",
          "name": "nftContract",
          "type": "address"
        },
        {
          "indexed": true,
          "internalType": "uint256",
          "name": "tokenId",
          "type": "uint256"
        }
      ],
      "name": "NFTWithdrawn",
      "type": "event"
    },
    {
      "inputs": [
        {
          "internalType": "address",
          "name": "nftContract",
          "type": "address"
        },
        {
          "internalType": "uint256",
          "name": "tokenId",
          "type": "uint256"
        },
        {
          "internalType": "address",
          "name": "erc20Address",
          "type": "address"
        },
        {
          "internalType": "uint256",
          "name": "commission",
          "type": "uint256"
        },
        {
          "internalType": "address",
          "name": "commissionAddress",
          "type": "address"
        }
      ],
      "name": "buy",
      "outputs": [],
      "stateMutability": "payable",
      "type": "function"
    },
    {
      "inputs": [
        {
          "internalType": "address",
          "name": "nftContract",
          "type": "address"
        },
        {
          "internalType": "uint256",
          "name": "tokenId",
          "type": "uint256"
        }
      ],
      "name": "getListing",
      "outputs": [
        {
          "components": [
            {
              "internalType": "uint256",
              "name": "price",
              "type": "uint256"
            },
            {
              "internalType": "address",
              "name": "seller",
              "type": "address"
            },
            {
              "internalType": "address",
              "name": "erc20Address",
              "type": "address"
            },
            {
              "internalType": "enum XDSeaMarket721.State",
              "name": "state",
              "type": "uint8"
            }
          ],
          "internalType": "struct XDSeaMarket721.Listing",
          "name": "",
          "type": "tuple"
        }
      ],
      "stateMutability": "view",
      "type": "function"
    },
    {
      "inputs": [
        {
          "internalType": "address",
          "name": "nftContract",
          "type": "address"
        },
        {
          "internalType": "uint256",
          "name": "tokenId",
          "type": "uint256"
        },
        {
          "internalType": "uint256",
          "name": "price",
          "type": "uint256"
        },
        {
          "internalType": "address",
          "name": "erc20Address",
          "type": "address"
        }
      ],
      "name": "list",
      "outputs": [],
      "stateMutability": "nonpayable",
      "type": "function"
    },
    {
      "inputs": [],
      "name": "marketOwner",
      "outputs": [
        {
          "internalType": "address payable",
          "name": "",
          "type": "address"
        }
      ],
      "stateMutability": "view",
      "type": "function"
    },
    {
      "inputs": [
        {
          "internalType": "address",
          "name": "operator",
          "type": "address"
        },
        {
          "internalType": "address",
          "name": "from",
          "type": "address"
        },
        {
          "internalType": "uint256",
          "name": "tokenId",
          "type": "uint256"
        },
        {
          "internalType": "bytes",
          "name": "",
          "type": "bytes"
        }
      ],
      "name": "onERC721Received",
      "outputs": [
        {
          "internalType": "bytes4",
          "name": "",
          "type": "bytes4"
        }
      ],
      "stateMutability": "nonpayable",
      "type": "function"
    },
    {
      "inputs": [
        {
          "internalType": "address",
          "name": "nftContract",
          "type": "address"
        },
        {
          "internalType": "uint256",
          "name": "tokenId",
          "type": "uint256"
        },
        {
          "internalType": "address",
          "name": "receiver",
          "type": "address"
        }
      ],
      "name": "transfer",
      "outputs": [],
      "stateMutability": "nonpayable",
      "type": "function"
    },
    {
      "inputs": [
        {
          "internalType": "address",
          "name": "nftContract",
          "type": "address"
        },
        {
          "internalType": "uint256",
          "name": "tokenId",
          "type": "uint256"
        },
        {
          "internalType": "uint256",
          "name": "newPrice",
          "type": "uint256"
        }
      ],
      "name": "updateListing",
      "outputs": [],
      "stateMutability": "nonpayable",
      "type": "function"
    },
    {
      "inputs": [
        {
          "internalType": "address",
          "name": "nftContract",
          "type": "address"
        },
        {
          "internalType": "uint256",
          "name": "tokenId",
          "type": "uint256"
        }
      ],
      "name": "withdrawListing",
      "outputs": [],
      "stateMutability": "nonpayable",
      "type": "function"
    }
  ],
  "bytecode": "0x608060405234801561001057600080fd5b50600160008190555033600160006101000a81548173ffffffffffffffffffffffffffffffffffffffff021916908373ffffffffffffffffffffffffffffffffffffffff160217905550613505806100696000396000f3fe60806040526004361061007a5760003560e01c80634fe6b4731161004e5780634fe6b4731461012c57806388700d1c14610155578063dbba0f0114610192578063f772adf1146101bb5761007a565b8062a672921461007f578063150b7a02146100a857806333563d1b146100e557806347d90b5c14610101575b600080fd5b34801561008b57600080fd5b506100a660048036038101906100a19190612582565b6101e4565b005b3480156100b457600080fd5b506100cf60048036038101906100ca9190612708565b6104f4565b6040516100dc91906127c6565b60405180910390f35b6100ff60048036038101906100fa91906127e1565b610563565b005b34801561010d57600080fd5b506101166112d9565b604051610123919061287d565b60405180910390f35b34801561013857600080fd5b50610153600480360381019061014e9190612898565b6112ff565b005b34801561016157600080fd5b5061017c60048036038101906101779190612582565b611765565b60405161018991906129e9565b60405180910390f35b34801561019e57600080fd5b506101b960048036038101906101b49190612a04565b6118c1565b005b3480156101c757600080fd5b506101e260048036038101906101dd9190612a57565b611b00565b005b8181336000600260008573ffffffffffffffffffffffffffffffffffffffff1673ffffffffffffffffffffffffffffffffffffffff1681526020019081526020016000206000848152602001908152602001600020604051806080016040529081600082015481526020016001820160009054906101000a900473ffffffffffffffffffffffffffffffffffffffff1673ffffffffffffffffffffffffffffffffffffffff1673ffffffffffffffffffffffffffffffffffffffff1681526020016002820160009054906101000a900473ffffffffffffffffffffffffffffffffffffffff1673ffffffffffffffffffffffffffffffffffffffff1673ffffffffffffffffffffffffffffffffffffffff1681526020016002820160149054906101000a900460ff16600281111561031f5761031e61291d565b5b60028111156103315761033061291d565b5b815250509050806020015173ffffffffffffffffffffffffffffffffffffffff168273ffffffffffffffffffffffffffffffffffffffff16146103a0576040517f30cd747100000000000000000000000000000000000000000000000000000000815260040160405180910390fd5b60008690508073ffffffffffffffffffffffffffffffffffffffff166342842e0e3033896040518463ffffffff1660e01b81526004016103e293929190612ac8565b600060405180830381600087803b1580156103fc57600080fd5b505af1158015610410573d6000803e3d6000fd5b505050506000600260008973ffffffffffffffffffffffffffffffffffffffff1673ffffffffffffffffffffffffffffffffffffffff168152602001908152602001600020600088815260200190815260200160002060020160146101000a81548160ff0219169083600281111561048b5761048a61291d565b5b0217905550858773ffffffffffffffffffffffffffffffffffffffff163373ffffffffffffffffffffffffffffffffffffffff167fbbde41973f9ce4890f7ad9762c23d8191f261fd643bdf13ed8bbc10549b49fcb60405160405180910390a450505050505050565b6000828473ffffffffffffffffffffffffffffffffffffffff168673ffffffffffffffffffffffffffffffffffffffff167f941a9d9a9af7f97737c018d13918859e12f44e16c4b4c6ac922dacf021cfbf1460405160405180910390a463150b7a0260e01b9050949350505050565b6002600054036105a8576040517f08c379a000000000000000000000000000000000000000000000000000000000815260040161059f90612b5c565b60405180910390fd5b60026000819055506000600260008773ffffffffffffffffffffffffffffffffffffffff1673ffffffffffffffffffffffffffffffffffffffff1681526020019081526020016000206000868152602001908152602001600020604051806080016040529081600082015481526020016001820160009054906101000a900473ffffffffffffffffffffffffffffffffffffffff1673ffffffffffffffffffffffffffffffffffffffff1673ffffffffffffffffffffffffffffffffffffffff1681526020016002820160009054906101000a900473ffffffffffffffffffffffffffffffffffffffff1673ffffffffffffffffffffffffffffffffffffffff1673ffffffffffffffffffffffffffffffffffffffff1681526020016002820160149054906101000a900460ff1660028111156106e8576106e761291d565b5b60028111156106fa576106f961291d565b5b815250509050600160028111156107145761071361291d565b5b8160600151600281111561072b5761072a61291d565b5b1461076f5785856040517f6831488c000000000000000000000000000000000000000000000000000000008152600401610766929190612b7c565b60405180910390fd5b610787816000015161078260c886611fd2565b611fe8565b3410156108ef57600073ffffffffffffffffffffffffffffffffffffffff168473ffffffffffffffffffffffffffffffffffffffff160361080757858582600001516040517f7c9345650000000000000000000000000000000000000000000000000000000081526004016107fe93929190612ba5565b60405180910390fd5b600081604001519050610828826000015161082360c887611fd2565b611fe8565b8173ffffffffffffffffffffffffffffffffffffffff166370a08231336040518263ffffffff1660e01b81526004016108619190612bdc565b602060405180830381865afa15801561087e573d6000803e3d6000fd5b505050506040513d601f19601f820116820180604052508101906108a29190612c0c565b10156108ed57868683600001516040517f7c9345650000000000000000000000000000000000000000000000000000000081526004016108e493929190612ba5565b60405180910390fd5b505b8373ffffffffffffffffffffffffffffffffffffffff16816040015173ffffffffffffffffffffffffffffffffffffffff1614610969578060400151846040517fe8113fa4000000000000000000000000000000000000000000000000000000008152600401610960929190612c39565b60405180910390fd5b806020015173ffffffffffffffffffffffffffffffffffffffff163373ffffffffffffffffffffffffffffffffffffffff16036109d2576040517f52ab620000000000000000000000000000000000000000000000000000000000815260040160405180910390fd5b600073ffffffffffffffffffffffffffffffffffffffff168473ffffffffffffffffffffffffffffffffffffffff1603610cee5760008314610a6e578173ffffffffffffffffffffffffffffffffffffffff166108fc610a41610a39846000015187612012565b612710612028565b9081150290604051600060405180830381858888f19350505050158015610a6c573d6000803e3d6000fd5b505b600160009054906101000a900473ffffffffffffffffffffffffffffffffffffffff1673ffffffffffffffffffffffffffffffffffffffff166108fc610ac4610abc846000015160c8612012565b612710612028565b9081150290604051600060405180830381858888f19350505050158015610aef573d6000803e3d6000fd5b50610af98661203e565b15610c2a576000808773ffffffffffffffffffffffffffffffffffffffff16632a55205a8885600001516040518363ffffffff1660e01b8152600401610b40929190612c62565b6040805180830381865afa158015610b5c573d6000803e3d6000fd5b505050506040513d601f19601f82011682018060405250810190610b809190612ca0565b915091508173ffffffffffffffffffffffffffffffffffffffff166108fc829081150290604051600060405180830381858888f19350505050158015610bca573d6000803e3d6000fd5b50826020015173ffffffffffffffffffffffffffffffffffffffff166108fc610bf78560000151846120cd565b9081150290604051600060405180830381858888f19350505050158015610c22573d6000803e3d6000fd5b505050610c7a565b806020015173ffffffffffffffffffffffffffffffffffffffff166108fc82600001519081150290604051600060405180830381858888f19350505050158015610c78573d6000803e3d6000fd5b505b8573ffffffffffffffffffffffffffffffffffffffff166342842e0e3033886040518463ffffffff1660e01b8152600401610cb793929190612ac8565b600060405180830381600087803b158015610cd157600080fd5b505af1158015610ce5573d6000803e3d6000fd5b5050505061113f565b60008160400151905060008414610d99578073ffffffffffffffffffffffffffffffffffffffff166323b872dd3385610d36610d2e87600001518a612012565b612710612028565b6040518463ffffffff1660e01b8152600401610d5493929190612d3f565b6020604051808303816000875af1158015610d73573d6000803e3d6000fd5b505050506040513d601f19601f82011682018060405250810190610d979190612dae565b505b8073ffffffffffffffffffffffffffffffffffffffff166323b872dd33600160009054906101000a900473ffffffffffffffffffffffffffffffffffffffff16610df3610deb876000015160c8612012565b612710612028565b6040518463ffffffff1660e01b8152600401610e1193929190612d3f565b6020604051808303816000875af1158015610e30573d6000803e3d6000fd5b505050506040513d601f19601f82011682018060405250810190610e549190612dae565b50610e5e8761203e565b15611003576000808873ffffffffffffffffffffffffffffffffffffffff16632a55205a8986600001516040518363ffffffff1660e01b8152600401610ea5929190612c62565b6040805180830381865afa158015610ec1573d6000803e3d6000fd5b505050506040513d601f19601f82011682018060405250810190610ee59190612ca0565b915091508273ffffffffffffffffffffffffffffffffffffffff166323b872dd3384846040518463ffffffff1660e01b8152600401610f2693929190612d3f565b6020604051808303816000875af1158015610f45573d6000803e3d6000fd5b505050506040513d601f19601f82011682018060405250810190610f699190612dae565b508273ffffffffffffffffffffffffffffffffffffffff166323b872dd338660200151610f9a8860000151866120cd565b6040518463ffffffff1660e01b8152600401610fb893929190612d3f565b6020604051808303816000875af1158015610fd7573d6000803e3d6000fd5b505050506040513d601f19601f82011682018060405250810190610ffb9190612dae565b50505061108d565b8073ffffffffffffffffffffffffffffffffffffffff166323b872dd33846020015185600001516040518463ffffffff1660e01b815260040161104893929190612d3f565b6020604051808303816000875af1158015611067573d6000803e3d6000fd5b505050506040513d601f19601f8201168201806040525081019061108b9190612dae565b505b600061109c83604001516120e3565b6110a984600001516122a6565b6040516020016110ba929190612f34565b60405160208183030381529060405290508773ffffffffffffffffffffffffffffffffffffffff1663b88d4fde30338a856040518563ffffffff1660e01b815260040161110a9493929190612fb8565b600060405180830381600087803b15801561112457600080fd5b505af1158015611138573d6000803e3d6000fd5b5050505050505b60028060008873ffffffffffffffffffffffffffffffffffffffff1673ffffffffffffffffffffffffffffffffffffffff168152602001908152602001600020600087815260200190815260200160002060020160146101000a81548160ff021916908360028111156111b5576111b461291d565b5b021790555033600260008873ffffffffffffffffffffffffffffffffffffffff1673ffffffffffffffffffffffffffffffffffffffff168152602001908152602001600020600087815260200190815260200160002060010160006101000a81548173ffffffffffffffffffffffffffffffffffffffff021916908373ffffffffffffffffffffffffffffffffffffffff160217905550848673ffffffffffffffffffffffffffffffffffffffff163373ffffffffffffffffffffffffffffffffffffffff167f84a34755616a04d6e547597ec5933d7ca8cf181bb354026be7e93e147edf0ab76112b485600001516112af60c88a611fd2565b611fe8565b6040516112c19190613004565b60405180910390a45060016000819055505050505050565b600160009054906101000a900473ffffffffffffffffffffffffffffffffffffffff1681565b838333600083905060008173ffffffffffffffffffffffffffffffffffffffff16636352211e856040518263ffffffff1660e01b81526004016113429190613004565b602060405180830381865afa15801561135f573d6000803e3d6000fd5b505050506040513d601f19601f82011682018060405250810190611383919061301f565b90508073ffffffffffffffffffffffffffffffffffffffff168373ffffffffffffffffffffffffffffffffffffffff16146113ea576040517f30cd747100000000000000000000000000000000000000000000000000000000815260040160405180910390fd5b60008711611424576040517fe1abbfc500000000000000000000000000000000000000000000000000000000815260040160405180910390fd5b60008990503073ffffffffffffffffffffffffffffffffffffffff168173ffffffffffffffffffffffffffffffffffffffff1663081812fc8b6040518263ffffffff1660e01b81526004016114799190613004565b602060405180830381865afa158015611496573d6000803e3d6000fd5b505050506040513d601f19601f820116820180604052508101906114ba919061301f565b73ffffffffffffffffffffffffffffffffffffffff1614611507576040517f4be3a2c500000000000000000000000000000000000000000000000000000000815260040160405180910390fd5b8073ffffffffffffffffffffffffffffffffffffffff166342842e0e33308c6040518463ffffffff1660e01b815260040161154493929190612ac8565b600060405180830381600087803b15801561155e57600080fd5b505af1158015611572573d6000803e3d6000fd5b5050505060405180608001604052808981526020013373ffffffffffffffffffffffffffffffffffffffff1681526020018873ffffffffffffffffffffffffffffffffffffffff168152602001600160028111156115d3576115d261291d565b5b815250600260008c73ffffffffffffffffffffffffffffffffffffffff1673ffffffffffffffffffffffffffffffffffffffff16815260200190815260200160002060008b81526020019081526020016000206000820151816000015560208201518160010160006101000a81548173ffffffffffffffffffffffffffffffffffffffff021916908373ffffffffffffffffffffffffffffffffffffffff16021790555060408201518160020160006101000a81548173ffffffffffffffffffffffffffffffffffffffff021916908373ffffffffffffffffffffffffffffffffffffffff16021790555060608201518160020160146101000a81548160ff021916908360028111156116e9576116e861291d565b5b0217905550905050888a73ffffffffffffffffffffffffffffffffffffffff163373ffffffffffffffffffffffffffffffffffffffff167fbe8674cddad6e98aa5c1bec8334ed8c69d4d1b1627fbbde698e6c760540dde028a8c604051611751929190612b7c565b60405180910390a450505050505050505050565b61176d612474565b600260008473ffffffffffffffffffffffffffffffffffffffff1673ffffffffffffffffffffffffffffffffffffffff1681526020019081526020016000206000838152602001908152602001600020604051806080016040529081600082015481526020016001820160009054906101000a900473ffffffffffffffffffffffffffffffffffffffff1673ffffffffffffffffffffffffffffffffffffffff1673ffffffffffffffffffffffffffffffffffffffff1681526020016002820160009054906101000a900473ffffffffffffffffffffffffffffffffffffffff1673ffffffffffffffffffffffffffffffffffffffff1673ffffffffffffffffffffffffffffffffffffffff1681526020016002820160149054906101000a900460ff1660028111156118a3576118a261291d565b5b60028111156118b5576118b461291d565b5b81525050905092915050565b828233600083905060008173ffffffffffffffffffffffffffffffffffffffff16636352211e856040518263ffffffff1660e01b81526004016119049190613004565b602060405180830381865afa158015611921573d6000803e3d6000fd5b505050506040513d601f19601f82011682018060405250810190611945919061301f565b90508073ffffffffffffffffffffffffffffffffffffffff168373ffffffffffffffffffffffffffffffffffffffff16146119ac576040517f30cd747100000000000000000000000000000000000000000000000000000000815260040160405180910390fd5b600073ffffffffffffffffffffffffffffffffffffffff168673ffffffffffffffffffffffffffffffffffffffff1603611a21578787876040517f954f92ae000000000000000000000000000000000000000000000000000000008152600401611a189392919061304c565b60405180910390fd5b8773ffffffffffffffffffffffffffffffffffffffff166342842e0e33888a6040518463ffffffff1660e01b8152600401611a5e93929190612ac8565b600060405180830381600087803b158015611a7857600080fd5b505af1158015611a8c573d6000803e3d6000fd5b50505050868873ffffffffffffffffffffffffffffffffffffffff163373ffffffffffffffffffffffffffffffffffffffff167f3b2ac3acb3cb3f130ff9bc3627b6abda2deeca3a447f302c8da25cedadab99cb89604051611aee9190612bdc565b60405180910390a45050505050505050565b600260005403611b45576040517f08c379a0000000000000000000000000000000000000000000000000000000008152600401611b3c90612b5c565b60405180910390fd5b60026000819055508282336000600260008573ffffffffffffffffffffffffffffffffffffffff1673ffffffffffffffffffffffffffffffffffffffff1681526020019081526020016000206000848152602001908152602001600020604051806080016040529081600082015481526020016001820160009054906101000a900473ffffffffffffffffffffffffffffffffffffffff1673ffffffffffffffffffffffffffffffffffffffff1673ffffffffffffffffffffffffffffffffffffffff1681526020016002820160009054906101000a900473ffffffffffffffffffffffffffffffffffffffff1673ffffffffffffffffffffffffffffffffffffffff1673ffffffffffffffffffffffffffffffffffffffff1681526020016002820160149054906101000a900460ff166002811115611c8857611c8761291d565b5b6002811115611c9a57611c9961291d565b5b815250509050806020015173ffffffffffffffffffffffffffffffffffffffff168273ffffffffffffffffffffffffffffffffffffffff1614611d09576040517f30cd747100000000000000000000000000000000000000000000000000000000815260040160405180910390fd5b6000600260008973ffffffffffffffffffffffffffffffffffffffff1673ffffffffffffffffffffffffffffffffffffffff1681526020019081526020016000206000888152602001908152602001600020604051806080016040529081600082015481526020016001820160009054906101000a900473ffffffffffffffffffffffffffffffffffffffff1673ffffffffffffffffffffffffffffffffffffffff1673ffffffffffffffffffffffffffffffffffffffff1681526020016002820160009054906101000a900473ffffffffffffffffffffffffffffffffffffffff1673ffffffffffffffffffffffffffffffffffffffff1673ffffffffffffffffffffffffffffffffffffffff1681526020016002820160149054906101000a900460ff166002811115611e4157611e4061291d565b5b6002811115611e5357611e5261291d565b5b81525050905060016002811115611e6d57611e6c61291d565b5b81606001516002811115611e8457611e8361291d565b5b14611ec85787876040517f6831488c000000000000000000000000000000000000000000000000000000008152600401611ebf929190612b7c565b60405180910390fd5b60008603611f02576040517fe1abbfc500000000000000000000000000000000000000000000000000000000815260040160405180910390fd5b85600260008a73ffffffffffffffffffffffffffffffffffffffff1673ffffffffffffffffffffffffffffffffffffffff168152602001908152602001600020600089815260200190815260200160002060000181905550868873ffffffffffffffffffffffffffffffffffffffff163373ffffffffffffffffffffffffffffffffffffffff167fd46c44fdda5800e5fa86622dcaaf95c76427dd83af39a3bbb036360e0101d31889604051611fb89190613004565b60405180910390a450505050506001600081905550505050565b60008183611fe091906130b2565b905092915050565b600061200a61200284611ffd61271086611fd2565b612012565b612710612028565b905092915050565b600081836120209190613108565b905092915050565b600081836120369190613191565b905092915050565b6000808273ffffffffffffffffffffffffffffffffffffffff166301ffc9a7632a55205a60e01b6040518263ffffffff1660e01b815260040161208191906127c6565b602060405180830381865afa15801561209e573d6000803e3d6000fd5b505050506040513d601f19601f820116820180604052508101906120c29190612dae565b905080915050919050565b600081836120db91906131c2565b905092915050565b60606000602867ffffffffffffffff811115612102576121016125dd565b5b6040519080825280601f01601f1916602001820160405280156121345781602001600182028036833780820191505090505b50905060005b601481101561229c57600081601361215291906131c2565b600861215e9190613108565b600261216a9190613329565b8573ffffffffffffffffffffffffffffffffffffffff1661218b9190613191565b60f81b9050600060108260f81c6121a29190613381565b60f81b905060008160f81c60106121b991906133b2565b8360f81c6121c791906133ed565b60f81b90506121d58261242e565b858560026121e39190613108565b815181106121f4576121f3613421565b5b60200101907effffffffffffffffffffffffffffffffffffffffffffffffffffffffffffff1916908160001a90535061222c8161242e565b85600186600261223c9190613108565b61224691906130b2565b8151811061225757612256613421565b5b60200101907effffffffffffffffffffffffffffffffffffffffffffffffffffffffffffff1916908160001a905350505050808061229490613450565b91505061213a565b5080915050919050565b6060600082036122ed576040518060400160405280600181526020017f30000000000000000000000000000000000000000000000000000000000000008152509050612429565b600082905060005b6000821461231f57808061230890613450565b915050600a826123189190613191565b91506122f5565b60008167ffffffffffffffff81111561233b5761233a6125dd565b5b6040519080825280601f01601f19166020018201604052801561236d5781602001600182028036833780820191505090505b50905060008290505b600086146124215760018161238b91906131c2565b90506000600a808861239d9190613191565b6123a79190613108565b876123b291906131c2565b60306123be9190613498565b905060008160f81b9050808484815181106123dc576123db613421565b5b60200101907effffffffffffffffffffffffffffffffffffffffffffffffffffffffffffff1916908160001a905350600a886124189190613191565b97505050612376565b819450505050505b919050565b6000600a8260f81c60ff1610156124595760308260f81c61244f9190613498565b60f81b905061246f565b60578260f81c6124699190613498565b60f81b90505b919050565b604051806080016040528060008152602001600073ffffffffffffffffffffffffffffffffffffffff168152602001600073ffffffffffffffffffffffffffffffffffffffff168152602001600060028111156124d4576124d361291d565b5b81525090565b6000604051905090565b600080fd5b600080fd5b600073ffffffffffffffffffffffffffffffffffffffff82169050919050565b6000612519826124ee565b9050919050565b6125298161250e565b811461253457600080fd5b50565b60008135905061254681612520565b92915050565b6000819050919050565b61255f8161254c565b811461256a57600080fd5b50565b60008135905061257c81612556565b92915050565b60008060408385031215612599576125986124e4565b5b60006125a785828601612537565b92505060206125b88582860161256d565b9150509250929050565b600080fd5b600080fd5b6000601f19601f8301169050919050565b7f4e487b7100000000000000000000000000000000000000000000000000000000600052604160045260246000fd5b612615826125cc565b810181811067ffffffffffffffff82111715612634576126336125dd565b5b80604052505050565b60006126476124da565b9050612653828261260c565b919050565b600067ffffffffffffffff821115612673576126726125dd565b5b61267c826125cc565b9050602081019050919050565b82818337600083830152505050565b60006126ab6126a684612658565b61263d565b9050828152602081018484840111156126c7576126c66125c7565b5b6126d2848285612689565b509392505050565b600082601f8301126126ef576126ee6125c2565b5b81356126ff848260208601612698565b91505092915050565b60008060008060808587031215612722576127216124e4565b5b600061273087828801612537565b945050602061274187828801612537565b93505060406127528782880161256d565b925050606085013567ffffffffffffffff811115612773576127726124e9565b5b61277f878288016126da565b91505092959194509250565b60007fffffffff0000000000000000000000000000000000000000000000000000000082169050919050565b6127c08161278b565b82525050565b60006020820190506127db60008301846127b7565b92915050565b600080600080600060a086880312156127fd576127fc6124e4565b5b600061280b88828901612537565b955050602061281c8882890161256d565b945050604061282d88828901612537565b935050606061283e8882890161256d565b925050608061284f88828901612537565b9150509295509295909350565b6000612867826124ee565b9050919050565b6128778161285c565b82525050565b6000602082019050612892600083018461286e565b92915050565b600080600080608085870312156128b2576128b16124e4565b5b60006128c087828801612537565b94505060206128d18782880161256d565b93505060406128e28782880161256d565b92505060606128f387828801612537565b91505092959194509250565b6129088161254c565b82525050565b6129178161250e565b82525050565b7f4e487b7100000000000000000000000000000000000000000000000000000000600052602160045260246000fd5b6003811061295d5761295c61291d565b5b50565b600081905061296e8261294c565b919050565b600061297e82612960565b9050919050565b61298e81612973565b82525050565b6080820160008201516129aa60008501826128ff565b5060208201516129bd602085018261290e565b5060408201516129d0604085018261290e565b5060608201516129e36060850182612985565b50505050565b60006080820190506129fe6000830184612994565b92915050565b600080600060608486031215612a1d57612a1c6124e4565b5b6000612a2b86828701612537565b9350506020612a3c8682870161256d565b9250506040612a4d86828701612537565b9150509250925092565b600080600060608486031215612a7057612a6f6124e4565b5b6000612a7e86828701612537565b9350506020612a8f8682870161256d565b9250506040612aa08682870161256d565b9150509250925092565b612ab38161250e565b82525050565b612ac28161254c565b82525050565b6000606082019050612add6000830186612aaa565b612aea6020830185612aaa565b612af76040830184612ab9565b949350505050565b600082825260208201905092915050565b7f5265656e7472616e637947756172643a207265656e7472616e742063616c6c00600082015250565b6000612b46601f83612aff565b9150612b5182612b10565b602082019050919050565b60006020820190508181036000830152612b7581612b39565b9050919050565b6000604082019050612b916000830185612aaa565b612b9e6020830184612ab9565b9392505050565b6000606082019050612bba6000830186612aaa565b612bc76020830185612ab9565b612bd46040830184612ab9565b949350505050565b6000602082019050612bf16000830184612aaa565b92915050565b600081519050612c0681612556565b92915050565b600060208284031215612c2257612c216124e4565b5b6000612c3084828501612bf7565b91505092915050565b6000604082019050612c4e6000830185612aaa565b612c5b6020830184612aaa565b9392505050565b6000604082019050612c776000830185612ab9565b612c846020830184612ab9565b9392505050565b600081519050612c9a81612520565b92915050565b60008060408385031215612cb757612cb66124e4565b5b6000612cc585828601612c8b565b9250506020612cd685828601612bf7565b9150509250929050565b6000819050919050565b6000612d05612d00612cfb846124ee565b612ce0565b6124ee565b9050919050565b6000612d1782612cea565b9050919050565b6000612d2982612d0c565b9050919050565b612d3981612d1e565b82525050565b6000606082019050612d546000830186612aaa565b612d616020830185612d30565b612d6e6040830184612ab9565b949350505050565b60008115159050919050565b612d8b81612d76565b8114612d9657600080fd5b50565b600081519050612da881612d82565b92915050565b600060208284031215612dc457612dc36124e4565b5b6000612dd284828501612d99565b91505092915050565b600081905092915050565b7f435553544f4d544f4b454e307800000000000000000000000000000000000000600082015250565b6000612e1c600d83612ddb565b9150612e2782612de6565b600d82019050919050565b600081519050919050565b600081905092915050565b60005b83811015612e66578082015181840152602081019050612e4b565b83811115612e75576000848401525b50505050565b6000612e8682612e32565b612e908185612e3d565b9350612ea0818560208601612e48565b80840191505092915050565b7f2727272323232727270000000000000000000000000000000000000000000000600082015250565b6000612ee2600983612ddb565b9150612eed82612eac565b600982019050919050565b600081519050919050565b6000612f0e82612ef8565b612f188185612ddb565b9350612f28818560208601612e48565b80840191505092915050565b6000612f3f82612e0f565b9150612f4b8285612e7b565b9150612f5682612ed5565b9150612f628284612f03565b91508190509392505050565b600082825260208201905092915050565b6000612f8a82612e32565b612f948185612f6e565b9350612fa4818560208601612e48565b612fad816125cc565b840191505092915050565b6000608082019050612fcd6000830187612aaa565b612fda6020830186612aaa565b612fe76040830185612ab9565b8181036060830152612ff98184612f7f565b905095945050505050565b60006020820190506130196000830184612ab9565b92915050565b600060208284031215613035576130346124e4565b5b600061304384828501612c8b565b91505092915050565b60006060820190506130616000830186612aaa565b61306e6020830185612ab9565b61307b6040830184612aaa565b949350505050565b7f4e487b7100000000000000000000000000000000000000000000000000000000600052601160045260246000fd5b60006130bd8261254c565b91506130c88361254c565b9250827fffffffffffffffffffffffffffffffffffffffffffffffffffffffffffffffff038211156130fd576130fc613083565b5b828201905092915050565b60006131138261254c565b915061311e8361254c565b9250817fffffffffffffffffffffffffffffffffffffffffffffffffffffffffffffffff048311821515161561315757613156613083565b5b828202905092915050565b7f4e487b7100000000000000000000000000000000000000000000000000000000600052601260045260246000fd5b600061319c8261254c565b91506131a78361254c565b9250826131b7576131b6613162565b5b828204905092915050565b60006131cd8261254c565b91506131d88361254c565b9250828210156131eb576131ea613083565b5b828203905092915050565b60008160011c9050919050565b6000808291508390505b600185111561324d5780860481111561322957613228613083565b5b60018516156132385780820291505b8081029050613246856131f6565b945061320d565b94509492505050565b6000826132665760019050613322565b816132745760009050613322565b816001811461328a5760028114613294576132c3565b6001915050613322565b60ff8411156132a6576132a5613083565b5b8360020a9150848211156132bd576132bc613083565b5b50613322565b5060208310610133831016604e8410600b84101617156132f85782820a9050838111156132f3576132f2613083565b5b613322565b6133058484846001613203565b9250905081840481111561331c5761331b613083565b5b81810290505b9392505050565b60006133348261254c565b915061333f8361254c565b925061336c7fffffffffffffffffffffffffffffffffffffffffffffffffffffffffffffffff8484613256565b905092915050565b600060ff82169050919050565b600061338c82613374565b915061339783613374565b9250826133a7576133a6613162565b5b828204905092915050565b60006133bd82613374565b91506133c883613374565b92508160ff04831182151516156133e2576133e1613083565b5b828202905092915050565b60006133f882613374565b915061340383613374565b92508282101561341657613415613083565b5b828203905092915050565b7f4e487b7100000000000000000000000000000000000000000000000000000000600052603260045260246000fd5b600061345b8261254c565b91507fffffffffffffffffffffffffffffffffffffffffffffffffffffffffffffffff820361348d5761348c613083565b5b600182019050919050565b60006134a382613374565b91506134ae83613374565b92508260ff038211156134c4576134c3613083565b5b82820190509291505056fea2646970667358221220c0fe889b598537cec7b819c7595a0f4087ce2db0d6738aff29f9b5060f35f6b464736f6c634300080f0033",
  "linkReferences": {},
  "deployedLinkReferences": {}
}