{
  "_format": "hh-sol-artifact-1",
  "contractName": "XDSeaMarket721",
  "sourceName": "newContracts/XDSeaMarket721.sol",
  "abi": [
    {
      "inputs": [],
      "stateMutability": "nonpayable",
      "type": "constructor"
    },
    {
      "inputs": [],
      "name": "CannotPayNullAddress",
      "type": "error"
    },
    {
      "inputs": [
        {
          "internalType": "address",
          "name": "nftContract",
          "type": "address"
        },
        {
          "internalType": "uint256",
          "name": "tokenId",
          "type": "uint256"
        },
        {
          "internalType": "address",
          "name": "receiver",
          "type": "address"
        }
      ],
      "name": "CannotTransferToNull",
      "type": "error"
    },
    {
      "inputs": [],
      "name": "NotApprovedForMarketplace",
      "type": "error"
    },
    {
      "inputs": [
        {
          "internalType": "address",
          "name": "nftContract",
          "type": "address"
        },
        {
          "internalType": "uint256",
          "name": "tokenId",
          "type": "uint256"
        }
      ],
      "name": "NotListed",
      "type": "error"
    },
    {
      "inputs": [],
      "name": "NotOwner",
      "type": "error"
    },
    {
      "inputs": [
        {
          "internalType": "address",
          "name": "listingERC20Address",
          "type": "address"
        },
        {
          "internalType": "address",
          "name": "transactionERC20Address",
          "type": "address"
        }
      ],
      "name": "NotTheRightCurrency",
      "type": "error"
    },
    {
      "inputs": [],
      "name": "OwnerCannotBuyOwnNFT",
      "type": "error"
    },
    {
      "inputs": [],
      "name": "PayoutAlreadyTheSame",
      "type": "error"
    },
    {
      "inputs": [],
      "name": "PriceAlreadyTheSame",
      "type": "error"
    },
    {
      "inputs": [],
      "name": "PriceMustBeAboveZero",
      "type": "error"
    },
    {
      "inputs": [
        {
          "internalType": "address",
          "name": "nftContract",
          "type": "address"
        },
        {
          "internalType": "uint256",
          "name": "tokenId",
          "type": "uint256"
        },
        {
          "internalType": "uint256",
          "name": "price",
          "type": "uint256"
        },
        {
          "internalType": "uint256",
          "name": "sent",
          "type": "uint256"
        }
      ],
      "name": "PriceNotMet",
      "type": "error"
    },
    {
      "anonymous": false,
      "inputs": [
        {
          "indexed": true,
          "internalType": "address",
          "name": "operator",
          "type": "address"
        },
        {
          "indexed": true,
          "internalType": "address",
          "name": "from",
          "type": "address"
        },
        {
          "indexed": true,
          "internalType": "uint256",
          "name": "tokenId",
          "type": "uint256"
        }
      ],
      "name": "ERC721Received",
      "type": "event"
    },
    {
      "anonymous": false,
      "inputs": [
        {
          "indexed": true,
          "internalType": "address",
          "name": "seller",
          "type": "address"
        },
        {
          "indexed": true,
          "internalType": "address",
          "name": "nftContract",
          "type": "address"
        },
        {
          "indexed": true,
          "internalType": "uint256",
          "name": "tokenId",
          "type": "uint256"
        },
        {
          "indexed": false,
          "internalType": "uint256",
          "name": "price",
          "type": "uint256"
        },
        {
          "indexed": false,
          "internalType": "address",
          "name": "payout",
          "type": "address"
        }
      ],
      "name": "NFTListEdited",
      "type": "event"
    },
    {
      "anonymous": false,
      "inputs": [
        {
          "indexed": true,
          "internalType": "address",
          "name": "seller",
          "type": "address"
        },
        {
          "indexed": true,
          "internalType": "address",
          "name": "nftContract",
          "type": "address"
        },
        {
          "indexed": true,
          "internalType": "uint256",
          "name": "tokenId",
          "type": "uint256"
        },
        {
          "indexed": false,
          "internalType": "address",
          "name": "erc20Address",
          "type": "address"
        },
        {
          "indexed": false,
          "internalType": "uint256",
          "name": "price",
          "type": "uint256"
        }
      ],
      "name": "NFTListed",
      "type": "event"
    },
    {
      "anonymous": false,
      "inputs": [
        {
          "indexed": true,
          "internalType": "address",
          "name": "buyer",
          "type": "address"
        },
        {
          "indexed": true,
          "internalType": "address",
          "name": "nftContract",
          "type": "address"
        },
        {
          "indexed": true,
          "internalType": "uint256",
          "name": "tokenId",
          "type": "uint256"
        },
        {
          "indexed": false,
          "internalType": "uint256",
          "name": "price",
          "type": "uint256"
        }
      ],
      "name": "NFTPurchased",
      "type": "event"
    },
    {
      "anonymous": false,
      "inputs": [
        {
          "indexed": true,
          "internalType": "address",
          "name": "sender",
          "type": "address"
        },
        {
          "indexed": true,
          "internalType": "address",
          "name": "nftContract",
          "type": "address"
        },
        {
          "indexed": true,
          "internalType": "uint256",
          "name": "tokenId",
          "type": "uint256"
        },
        {
          "indexed": false,
          "internalType": "address",
          "name": "receiver",
          "type": "address"
        }
      ],
      "name": "NFTTransferred",
      "type": "event"
    },
    {
      "anonymous": false,
      "inputs": [
        {
          "indexed": true,
          "internalType": "address",
          "name": "withdrawer",
          "type": "address"
        },
        {
          "indexed": true,
          "internalType": "address",
          "name": "nftContract",
          "type": "address"
        },
        {
          "indexed": true,
          "internalType": "uint256",
          "name": "tokenId",
          "type": "uint256"
        }
      ],
      "name": "NFTWithdrawn",
      "type": "event"
    },
    {
      "inputs": [
        {
          "internalType": "address",
          "name": "nftContract",
          "type": "address"
        },
        {
          "internalType": "uint256",
          "name": "tokenId",
          "type": "uint256"
        },
        {
          "internalType": "address",
          "name": "erc20Address",
          "type": "address"
        },
        {
          "internalType": "uint256",
          "name": "commission",
          "type": "uint256"
        },
        {
          "internalType": "address",
          "name": "commissionAddress",
          "type": "address"
        }
      ],
      "name": "buy",
      "outputs": [],
      "stateMutability": "payable",
      "type": "function"
    },
    {
      "inputs": [
        {
          "internalType": "address",
          "name": "nftContract",
          "type": "address"
        },
        {
          "internalType": "uint256",
          "name": "tokenId",
          "type": "uint256"
        }
      ],
      "name": "getListing",
      "outputs": [
        {
          "components": [
            {
              "internalType": "uint256",
              "name": "price",
              "type": "uint256"
            },
            {
              "internalType": "address",
              "name": "seller",
              "type": "address"
            },
            {
              "internalType": "address",
              "name": "erc20Address",
              "type": "address"
            },
            {
              "internalType": "uint256",
              "name": "royalty",
              "type": "uint256"
            },
            {
              "internalType": "address",
              "name": "royaltyReceiver",
              "type": "address"
            },
            {
              "internalType": "address",
              "name": "payout",
              "type": "address"
            },
            {
              "internalType": "enum XDSeaMarket721.State",
              "name": "state",
              "type": "uint8"
            }
          ],
          "internalType": "struct XDSeaMarket721.Listing",
          "name": "",
          "type": "tuple"
        }
      ],
      "stateMutability": "view",
      "type": "function"
    },
    {
      "inputs": [
        {
          "internalType": "address",
          "name": "nftContract",
          "type": "address"
        },
        {
          "internalType": "uint256",
          "name": "tokenId",
          "type": "uint256"
        },
        {
          "internalType": "uint256",
          "name": "price",
          "type": "uint256"
        },
        {
          "internalType": "address",
          "name": "erc20Address",
          "type": "address"
        },
        {
          "internalType": "uint256",
          "name": "royalty",
          "type": "uint256"
        },
        {
          "internalType": "address",
          "name": "receiver",
          "type": "address"
        },
        {
          "internalType": "address",
          "name": "payout",
          "type": "address"
        }
      ],
      "name": "list",
      "outputs": [],
      "stateMutability": "nonpayable",
      "type": "function"
    },
    {
      "inputs": [],
      "name": "marketOwner",
      "outputs": [
        {
          "internalType": "address payable",
          "name": "",
          "type": "address"
        }
      ],
      "stateMutability": "view",
      "type": "function"
    },
    {
      "inputs": [
        {
          "internalType": "address",
          "name": "operator",
          "type": "address"
        },
        {
          "internalType": "address",
          "name": "from",
          "type": "address"
        },
        {
          "internalType": "uint256",
          "name": "tokenId",
          "type": "uint256"
        },
        {
          "internalType": "bytes",
          "name": "",
          "type": "bytes"
        }
      ],
      "name": "onERC721Received",
      "outputs": [
        {
          "internalType": "bytes4",
          "name": "",
          "type": "bytes4"
        }
      ],
      "stateMutability": "nonpayable",
      "type": "function"
    },
    {
      "inputs": [
        {
          "internalType": "address",
          "name": "nftContract",
          "type": "address"
        },
        {
          "internalType": "uint256",
          "name": "tokenId",
          "type": "uint256"
        },
        {
          "internalType": "address",
          "name": "receiver",
          "type": "address"
        }
      ],
      "name": "transfer",
      "outputs": [],
      "stateMutability": "nonpayable",
      "type": "function"
    },
    {
      "inputs": [
        {
          "internalType": "address",
          "name": "nftContract",
          "type": "address"
        },
        {
          "internalType": "uint256",
          "name": "tokenId",
          "type": "uint256"
        },
        {
          "internalType": "uint256",
          "name": "newPrice",
          "type": "uint256"
        }
      ],
      "name": "updateListing",
      "outputs": [],
      "stateMutability": "nonpayable",
      "type": "function"
    },
    {
      "inputs": [
        {
          "internalType": "address",
          "name": "nftContract",
          "type": "address"
        },
        {
          "internalType": "uint256",
          "name": "tokenId",
          "type": "uint256"
        },
        {
          "internalType": "address",
          "name": "newPayout",
          "type": "address"
        }
      ],
      "name": "updatePayout",
      "outputs": [],
      "stateMutability": "nonpayable",
      "type": "function"
    },
    {
      "inputs": [
        {
          "internalType": "address",
          "name": "nftContract",
          "type": "address"
        },
        {
          "internalType": "uint256",
          "name": "tokenId",
          "type": "uint256"
        }
      ],
      "name": "withdrawListing",
      "outputs": [],
      "stateMutability": "nonpayable",
      "type": "function"
    }
  ],
  "bytecode": "0x608060405234801561001057600080fd5b50600160008190555033600160006101000a81548173ffffffffffffffffffffffffffffffffffffffff021916908373ffffffffffffffffffffffffffffffffffffffff160217905550614f4c806100696000396000f3fe6080604052600436106100855760003560e01c806347d90b5c1161005957806347d90b5c1461013557806388700d1c146101605780638ac126771461019d578063dbba0f01146101c6578063f772adf1146101ef57610085565b8062a672921461008a578063150b7a02146100b35780631f8a2cc6146100f057806333563d1b14610119575b600080fd5b34801561009657600080fd5b506100b160048036038101906100ac9190613d44565b610218565b005b3480156100bf57600080fd5b506100da60048036038101906100d59190613eca565b610633565b6040516100e79190613f88565b60405180910390f35b3480156100fc57600080fd5b5061011760048036038101906101129190613fa3565b6106a2565b005b610133600480360381019061012e9190614045565b61133f565b005b34801561014157600080fd5b5061014a6121ce565b60405161015791906140e1565b60405180910390f35b34801561016c57600080fd5b5061018760048036038101906101829190613d44565b6121f4565b604051610194919061421f565b60405180910390f35b3480156101a957600080fd5b506101c460048036038101906101bf919061423a565b612406565b005b3480156101d257600080fd5b506101ed60048036038101906101e8919061423a565b612b19565b005b3480156101fb57600080fd5b506102166004803603810190610211919061428d565b612dad565b005b60026000540361025d576040517f08c379a00000000000000000000000000000000000000000000000000000000081526004016102549061433d565b60405180910390fd5b60026000819055508181336000600260008573ffffffffffffffffffffffffffffffffffffffff1673ffffffffffffffffffffffffffffffffffffffff16815260200190815260200160002060008481526020019081526020016000206040518060e0016040529081600082015481526020016001820160009054906101000a900473ffffffffffffffffffffffffffffffffffffffff1673ffffffffffffffffffffffffffffffffffffffff1673ffffffffffffffffffffffffffffffffffffffff1681526020016002820160009054906101000a900473ffffffffffffffffffffffffffffffffffffffff1673ffffffffffffffffffffffffffffffffffffffff1673ffffffffffffffffffffffffffffffffffffffff168152602001600382015481526020016004820160009054906101000a900473ffffffffffffffffffffffffffffffffffffffff1673ffffffffffffffffffffffffffffffffffffffff1673ffffffffffffffffffffffffffffffffffffffff1681526020016005820160009054906101000a900473ffffffffffffffffffffffffffffffffffffffff1673ffffffffffffffffffffffffffffffffffffffff1673ffffffffffffffffffffffffffffffffffffffff1681526020016005820160149054906101000a900460ff1660028111156104565761045561411a565b5b60028111156104685761046761411a565b5b815250509050806020015173ffffffffffffffffffffffffffffffffffffffff168273ffffffffffffffffffffffffffffffffffffffff16146104d7576040517f30cd747100000000000000000000000000000000000000000000000000000000815260040160405180910390fd5b60008690508073ffffffffffffffffffffffffffffffffffffffff166342842e0e3033896040518463ffffffff1660e01b81526004016105199392919061437b565b600060405180830381600087803b15801561053357600080fd5b505af1158015610547573d6000803e3d6000fd5b505050506000600260008973ffffffffffffffffffffffffffffffffffffffff1673ffffffffffffffffffffffffffffffffffffffff168152602001908152602001600020600088815260200190815260200160002060050160146101000a81548160ff021916908360028111156105c2576105c161411a565b5b0217905550858773ffffffffffffffffffffffffffffffffffffffff163373ffffffffffffffffffffffffffffffffffffffff167fbbde41973f9ce4890f7ad9762c23d8191f261fd643bdf13ed8bbc10549b49fcb60405160405180910390a4505050505060016000819055505050565b6000828473ffffffffffffffffffffffffffffffffffffffff168673ffffffffffffffffffffffffffffffffffffffff167f941a9d9a9af7f97737c018d13918859e12f44e16c4b4c6ac922dacf021cfbf1460405160405180910390a463150b7a0260e01b9050949350505050565b6002600054036106e7576040517f08c379a00000000000000000000000000000000000000000000000000000000081526004016106de9061433d565b60405180910390fd5b6002600081905550600087905060008173ffffffffffffffffffffffffffffffffffffffff16636352211e896040518263ffffffff1660e01b815260040161072f91906143b2565b602060405180830381865afa15801561074c573d6000803e3d6000fd5b505050506040513d601f19601f8201168201806040525081019061077091906143e2565b90508073ffffffffffffffffffffffffffffffffffffffff163373ffffffffffffffffffffffffffffffffffffffff16146107d7576040517f30cd747100000000000000000000000000000000000000000000000000000000815260040160405180910390fd5b60008711610811576040517fe1abbfc500000000000000000000000000000000000000000000000000000000815260040160405180910390fd5b3073ffffffffffffffffffffffffffffffffffffffff168273ffffffffffffffffffffffffffffffffffffffff1663081812fc8a6040518263ffffffff1660e01b815260040161086191906143b2565b602060405180830381865afa15801561087e573d6000803e3d6000fd5b505050506040513d601f19601f820116820180604052508101906108a291906143e2565b73ffffffffffffffffffffffffffffffffffffffff16146108ef576040517f4be3a2c500000000000000000000000000000000000000000000000000000000815260040160405180910390fd5b600073ffffffffffffffffffffffffffffffffffffffff168373ffffffffffffffffffffffffffffffffffffffff1603610955576040517f3a77426800000000000000000000000000000000000000000000000000000000815260040160405180910390fd5b61095e8961342e565b15610c3f576000808a73ffffffffffffffffffffffffffffffffffffffff16632a55205a8b6127106040518363ffffffff1660e01b81526004016109a3929190614454565b6040805180830381865afa1580156109bf573d6000803e3d6000fd5b505050506040513d601f19601f820116820180604052508101906109e39190614492565b915091506040518060e001604052808a81526020013373ffffffffffffffffffffffffffffffffffffffff1681526020018973ffffffffffffffffffffffffffffffffffffffff1681526020018281526020018373ffffffffffffffffffffffffffffffffffffffff1681526020018673ffffffffffffffffffffffffffffffffffffffff16815260200160016002811115610a8257610a8161411a565b5b815250600260008d73ffffffffffffffffffffffffffffffffffffffff1673ffffffffffffffffffffffffffffffffffffffff16815260200190815260200160002060008c81526020019081526020016000206000820151816000015560208201518160010160006101000a81548173ffffffffffffffffffffffffffffffffffffffff021916908373ffffffffffffffffffffffffffffffffffffffff16021790555060408201518160020160006101000a81548173ffffffffffffffffffffffffffffffffffffffff021916908373ffffffffffffffffffffffffffffffffffffffff1602179055506060820151816003015560808201518160040160006101000a81548173ffffffffffffffffffffffffffffffffffffffff021916908373ffffffffffffffffffffffffffffffffffffffff16021790555060a08201518160050160006101000a81548173ffffffffffffffffffffffffffffffffffffffff021916908373ffffffffffffffffffffffffffffffffffffffff16021790555060c08201518160050160146101000a81548160ff02191690836002811115610c3057610c2f61411a565b5b02179055509050505050611255565b600073ffffffffffffffffffffffffffffffffffffffff16600260008b73ffffffffffffffffffffffffffffffffffffffff1673ffffffffffffffffffffffffffffffffffffffff16815260200190815260200160002060008a815260200190815260200160002060040160009054906101000a900473ffffffffffffffffffffffffffffffffffffffff1673ffffffffffffffffffffffffffffffffffffffff1614611002576040518060e001604052808881526020013373ffffffffffffffffffffffffffffffffffffffff1681526020018773ffffffffffffffffffffffffffffffffffffffff168152602001600260008c73ffffffffffffffffffffffffffffffffffffffff1673ffffffffffffffffffffffffffffffffffffffff16815260200190815260200160002060008b8152602001908152602001600020600301548152602001600260008c73ffffffffffffffffffffffffffffffffffffffff1673ffffffffffffffffffffffffffffffffffffffff16815260200190815260200160002060008b815260200190815260200160002060040160009054906101000a900473ffffffffffffffffffffffffffffffffffffffff1673ffffffffffffffffffffffffffffffffffffffff1681526020018473ffffffffffffffffffffffffffffffffffffffff16815260200160016002811115610e4757610e4661411a565b5b815250600260008b73ffffffffffffffffffffffffffffffffffffffff1673ffffffffffffffffffffffffffffffffffffffff16815260200190815260200160002060008a81526020019081526020016000206000820151816000015560208201518160010160006101000a81548173ffffffffffffffffffffffffffffffffffffffff021916908373ffffffffffffffffffffffffffffffffffffffff16021790555060408201518160020160006101000a81548173ffffffffffffffffffffffffffffffffffffffff021916908373ffffffffffffffffffffffffffffffffffffffff1602179055506060820151816003015560808201518160040160006101000a81548173ffffffffffffffffffffffffffffffffffffffff021916908373ffffffffffffffffffffffffffffffffffffffff16021790555060a08201518160050160006101000a81548173ffffffffffffffffffffffffffffffffffffffff021916908373ffffffffffffffffffffffffffffffffffffffff16021790555060c08201518160050160146101000a81548160ff02191690836002811115610ff557610ff461411a565b5b0217905550905050611254565b6040518060e001604052808881526020013373ffffffffffffffffffffffffffffffffffffffff1681526020018773ffffffffffffffffffffffffffffffffffffffff1681526020018681526020018573ffffffffffffffffffffffffffffffffffffffff1681526020018473ffffffffffffffffffffffffffffffffffffffff1681526020016001600281111561109d5761109c61411a565b5b815250600260008b73ffffffffffffffffffffffffffffffffffffffff1673ffffffffffffffffffffffffffffffffffffffff16815260200190815260200160002060008a81526020019081526020016000206000820151816000015560208201518160010160006101000a81548173ffffffffffffffffffffffffffffffffffffffff021916908373ffffffffffffffffffffffffffffffffffffffff16021790555060408201518160020160006101000a81548173ffffffffffffffffffffffffffffffffffffffff021916908373ffffffffffffffffffffffffffffffffffffffff1602179055506060820151816003015560808201518160040160006101000a81548173ffffffffffffffffffffffffffffffffffffffff021916908373ffffffffffffffffffffffffffffffffffffffff16021790555060a08201518160050160006101000a81548173ffffffffffffffffffffffffffffffffffffffff021916908373ffffffffffffffffffffffffffffffffffffffff16021790555060c08201518160050160146101000a81548160ff0219169083600281111561124b5761124a61411a565b5b02179055509050505b5b8173ffffffffffffffffffffffffffffffffffffffff166342842e0e33308b6040518463ffffffff1660e01b81526004016112929392919061437b565b600060405180830381600087803b1580156112ac57600080fd5b505af11580156112c0573d6000803e3d6000fd5b50505050878973ffffffffffffffffffffffffffffffffffffffff163373ffffffffffffffffffffffffffffffffffffffff167fbe8674cddad6e98aa5c1bec8334ed8c69d4d1b1627fbbde698e6c760540dde02898b6040516113249291906144d2565b60405180910390a45050600160008190555050505050505050565b600260005403611384576040517f08c379a000000000000000000000000000000000000000000000000000000000815260040161137b9061433d565b60405180910390fd5b60026000819055506000600260008773ffffffffffffffffffffffffffffffffffffffff1673ffffffffffffffffffffffffffffffffffffffff16815260200190815260200160002060008681526020019081526020016000206040518060e0016040529081600082015481526020016001820160009054906101000a900473ffffffffffffffffffffffffffffffffffffffff1673ffffffffffffffffffffffffffffffffffffffff1673ffffffffffffffffffffffffffffffffffffffff1681526020016002820160009054906101000a900473ffffffffffffffffffffffffffffffffffffffff1673ffffffffffffffffffffffffffffffffffffffff1673ffffffffffffffffffffffffffffffffffffffff168152602001600382015481526020016004820160009054906101000a900473ffffffffffffffffffffffffffffffffffffffff1673ffffffffffffffffffffffffffffffffffffffff1673ffffffffffffffffffffffffffffffffffffffff1681526020016005820160009054906101000a900473ffffffffffffffffffffffffffffffffffffffff1673ffffffffffffffffffffffffffffffffffffffff1673ffffffffffffffffffffffffffffffffffffffff1681526020016005820160149054906101000a900460ff16600281111561157a5761157961411a565b5b600281111561158c5761158b61411a565b5b815250509050600160028111156115a6576115a561411a565b5b8160c0015160028111156115bd576115bc61411a565b5b146116015785856040517f6831488c0000000000000000000000000000000000000000000000000000000081526004016115f89291906144d2565b60405180910390fd5b611619816000015161161460c8866134bd565b6134d3565b34101561182457600073ffffffffffffffffffffffffffffffffffffffff168473ffffffffffffffffffffffffffffffffffffffff16036116ae57858561166e836000015161166960c8886134bd565b6134d3565b346040517f0544dbb30000000000000000000000000000000000000000000000000000000081526004016116a594939291906144fb565b60405180910390fd5b6000816040015190506116cf82600001516116ca60c8876134bd565b6134d3565b8173ffffffffffffffffffffffffffffffffffffffff166370a08231336040518263ffffffff1660e01b81526004016117089190614540565b602060405180830381865afa158015611725573d6000803e3d6000fd5b505050506040513d601f19601f82011682018060405250810190611749919061455b565b1015611822578686611769846000015161176460c8896134bd565b6134d3565b8373ffffffffffffffffffffffffffffffffffffffff166370a08231336040518263ffffffff1660e01b81526004016117a29190614540565b602060405180830381865afa1580156117bf573d6000803e3d6000fd5b505050506040513d601f19601f820116820180604052508101906117e3919061455b565b6040517f0544dbb300000000000000000000000000000000000000000000000000000000815260040161181994939291906144fb565b60405180910390fd5b505b8373ffffffffffffffffffffffffffffffffffffffff16816040015173ffffffffffffffffffffffffffffffffffffffff161461189e578060400151846040517fe8113fa4000000000000000000000000000000000000000000000000000000008152600401611895929190614588565b60405180910390fd5b806020015173ffffffffffffffffffffffffffffffffffffffff163373ffffffffffffffffffffffffffffffffffffffff1603611907576040517f52ab620000000000000000000000000000000000000000000000000000000000815260040160405180910390fd5b600073ffffffffffffffffffffffffffffffffffffffff168473ffffffffffffffffffffffffffffffffffffffff1603611c9957600083146119a3578173ffffffffffffffffffffffffffffffffffffffff166108fc61197661196e8460000151876134fd565b612710613513565b9081150290604051600060405180830381858888f193505050501580156119a1573d6000803e3d6000fd5b505b600160009054906101000a900473ffffffffffffffffffffffffffffffffffffffff1673ffffffffffffffffffffffffffffffffffffffff166108fc6119f96119f1846000015160c86134fd565b612710613513565b9081150290604051600060405180830381858888f19350505050158015611a24573d6000803e3d6000fd5b50611a2e8661342e565b15611b5f576000808773ffffffffffffffffffffffffffffffffffffffff16632a55205a8885600001516040518363ffffffff1660e01b8152600401611a759291906145b1565b6040805180830381865afa158015611a91573d6000803e3d6000fd5b505050506040513d601f19601f82011682018060405250810190611ab59190614492565b915091508173ffffffffffffffffffffffffffffffffffffffff166108fc829081150290604051600060405180830381858888f19350505050158015611aff573d6000803e3d6000fd5b508260a0015173ffffffffffffffffffffffffffffffffffffffff166108fc611b2c856000015184613529565b9081150290604051600060405180830381858888f19350505050158015611b57573d6000803e3d6000fd5b505050611c25565b806080015173ffffffffffffffffffffffffffffffffffffffff166108fc611b8f8360000151846060015161353f565b9081150290604051600060405180830381858888f19350505050158015611bba573d6000803e3d6000fd5b508060a0015173ffffffffffffffffffffffffffffffffffffffff166108fc611bf88360000151611bf38560000151866060015161353f565b613529565b9081150290604051600060405180830381858888f19350505050158015611c23573d6000803e3d6000fd5b505b8573ffffffffffffffffffffffffffffffffffffffff166342842e0e3033886040518463ffffffff1660e01b8152600401611c629392919061437b565b600060405180830381600087803b158015611c7c57600080fd5b505af1158015611c90573d6000803e3d6000fd5b50505050611fa2565b60008160400151905060008414611cf057611cef3384611cc8611cc08660000151896134fd565b612710613513565b8473ffffffffffffffffffffffffffffffffffffffff1661355e909392919063ffffffff16565b5b611d5833600160009054906101000a900473ffffffffffffffffffffffffffffffffffffffff16611d31611d29866000015160c86134fd565b612710613513565b8473ffffffffffffffffffffffffffffffffffffffff1661355e909392919063ffffffff16565b611d618761342e565b15611e5e576000808873ffffffffffffffffffffffffffffffffffffffff16632a55205a8986600001516040518363ffffffff1660e01b8152600401611da89291906145b1565b6040805180830381865afa158015611dc4573d6000803e3d6000fd5b505050506040513d601f19601f82011682018060405250810190611de89190614492565b91509150611e193383838673ffffffffffffffffffffffffffffffffffffffff1661355e909392919063ffffffff16565b611e57338560a00151611e30876000015185613529565b8673ffffffffffffffffffffffffffffffffffffffff1661355e909392919063ffffffff16565b5050611ef0565b611ea0338360800151611e798560000151866060015161353f565b8473ffffffffffffffffffffffffffffffffffffffff1661355e909392919063ffffffff16565b611eef338360a00151611ec88560000151611ec38760000151886060015161353f565b613529565b8473ffffffffffffffffffffffffffffffffffffffff1661355e909392919063ffffffff16565b5b6000611eff83604001516135e7565b611f0c84600001516137aa565b604051602001611f1d929190614733565b60405160208183030381529060405290508773ffffffffffffffffffffffffffffffffffffffff1663b88d4fde30338a856040518563ffffffff1660e01b8152600401611f6d94939291906147b7565b600060405180830381600087803b158015611f8757600080fd5b505af1158015611f9b573d6000803e3d6000fd5b5050505050505b60028060008873ffffffffffffffffffffffffffffffffffffffff1673ffffffffffffffffffffffffffffffffffffffff168152602001908152602001600020600087815260200190815260200160002060050160146101000a81548160ff021916908360028111156120185761201761411a565b5b021790555033600260008873ffffffffffffffffffffffffffffffffffffffff1673ffffffffffffffffffffffffffffffffffffffff168152602001908152602001600020600087815260200190815260200160002060010160006101000a81548173ffffffffffffffffffffffffffffffffffffffff021916908373ffffffffffffffffffffffffffffffffffffffff16021790555033600260008873ffffffffffffffffffffffffffffffffffffffff1673ffffffffffffffffffffffffffffffffffffffff168152602001908152602001600020600087815260200190815260200160002060050160006101000a81548173ffffffffffffffffffffffffffffffffffffffff021916908373ffffffffffffffffffffffffffffffffffffffff160217905550848673ffffffffffffffffffffffffffffffffffffffff163373ffffffffffffffffffffffffffffffffffffffff167f84a34755616a04d6e547597ec5933d7ca8cf181bb354026be7e93e147edf0ab76121a985600001516121a460c88a6134bd565b6134d3565b6040516121b691906143b2565b60405180910390a45060016000819055505050505050565b600160009054906101000a900473ffffffffffffffffffffffffffffffffffffffff1681565b6121fc613bf5565b600260008473ffffffffffffffffffffffffffffffffffffffff1673ffffffffffffffffffffffffffffffffffffffff16815260200190815260200160002060008381526020019081526020016000206040518060e0016040529081600082015481526020016001820160009054906101000a900473ffffffffffffffffffffffffffffffffffffffff1673ffffffffffffffffffffffffffffffffffffffff1673ffffffffffffffffffffffffffffffffffffffff1681526020016002820160009054906101000a900473ffffffffffffffffffffffffffffffffffffffff1673ffffffffffffffffffffffffffffffffffffffff1673ffffffffffffffffffffffffffffffffffffffff168152602001600382015481526020016004820160009054906101000a900473ffffffffffffffffffffffffffffffffffffffff1673ffffffffffffffffffffffffffffffffffffffff1673ffffffffffffffffffffffffffffffffffffffff1681526020016005820160009054906101000a900473ffffffffffffffffffffffffffffffffffffffff1673ffffffffffffffffffffffffffffffffffffffff1673ffffffffffffffffffffffffffffffffffffffff1681526020016005820160149054906101000a900460ff1660028111156123e8576123e761411a565b5b60028111156123fa576123f961411a565b5b81525050905092915050565b60026000540361244b576040517f08c379a00000000000000000000000000000000000000000000000000000000081526004016124429061433d565b60405180910390fd5b60026000819055508282336000600260008573ffffffffffffffffffffffffffffffffffffffff1673ffffffffffffffffffffffffffffffffffffffff16815260200190815260200160002060008481526020019081526020016000206040518060e0016040529081600082015481526020016001820160009054906101000a900473ffffffffffffffffffffffffffffffffffffffff1673ffffffffffffffffffffffffffffffffffffffff1673ffffffffffffffffffffffffffffffffffffffff1681526020016002820160009054906101000a900473ffffffffffffffffffffffffffffffffffffffff1673ffffffffffffffffffffffffffffffffffffffff1673ffffffffffffffffffffffffffffffffffffffff168152602001600382015481526020016004820160009054906101000a900473ffffffffffffffffffffffffffffffffffffffff1673ffffffffffffffffffffffffffffffffffffffff1673ffffffffffffffffffffffffffffffffffffffff1681526020016005820160009054906101000a900473ffffffffffffffffffffffffffffffffffffffff1673ffffffffffffffffffffffffffffffffffffffff1673ffffffffffffffffffffffffffffffffffffffff1681526020016005820160149054906101000a900460ff1660028111156126445761264361411a565b5b60028111156126565761265561411a565b5b815250509050806020015173ffffffffffffffffffffffffffffffffffffffff168273ffffffffffffffffffffffffffffffffffffffff16146126c5576040517f30cd747100000000000000000000000000000000000000000000000000000000815260040160405180910390fd5b6000600260008973ffffffffffffffffffffffffffffffffffffffff1673ffffffffffffffffffffffffffffffffffffffff16815260200190815260200160002060008881526020019081526020016000206040518060e0016040529081600082015481526020016001820160009054906101000a900473ffffffffffffffffffffffffffffffffffffffff1673ffffffffffffffffffffffffffffffffffffffff1673ffffffffffffffffffffffffffffffffffffffff1681526020016002820160009054906101000a900473ffffffffffffffffffffffffffffffffffffffff1673ffffffffffffffffffffffffffffffffffffffff1673ffffffffffffffffffffffffffffffffffffffff168152602001600382015481526020016004820160009054906101000a900473ffffffffffffffffffffffffffffffffffffffff1673ffffffffffffffffffffffffffffffffffffffff1673ffffffffffffffffffffffffffffffffffffffff1681526020016005820160009054906101000a900473ffffffffffffffffffffffffffffffffffffffff1673ffffffffffffffffffffffffffffffffffffffff1673ffffffffffffffffffffffffffffffffffffffff1681526020016005820160149054906101000a900460ff1660028111156128b3576128b261411a565b5b60028111156128c5576128c461411a565b5b815250509050600160028111156128df576128de61411a565b5b8160c0015160028111156128f6576128f561411a565b5b1461293a5787876040517f6831488c0000000000000000000000000000000000000000000000000000000081526004016129319291906144d2565b60405180910390fd5b600073ffffffffffffffffffffffffffffffffffffffff168673ffffffffffffffffffffffffffffffffffffffff16036129a0576040517f3a77426800000000000000000000000000000000000000000000000000000000815260040160405180910390fd5b8060a0015173ffffffffffffffffffffffffffffffffffffffff168673ffffffffffffffffffffffffffffffffffffffff1603612a09576040517f67b6924600000000000000000000000000000000000000000000000000000000815260040160405180910390fd5b85600260008a73ffffffffffffffffffffffffffffffffffffffff1673ffffffffffffffffffffffffffffffffffffffff168152602001908152602001600020600089815260200190815260200160002060050160006101000a81548173ffffffffffffffffffffffffffffffffffffffff021916908373ffffffffffffffffffffffffffffffffffffffff160217905550868873ffffffffffffffffffffffffffffffffffffffff163373ffffffffffffffffffffffffffffffffffffffff167ffb38b45b61d941f67d4eadd9ce62b8c2c013efdc16d33151e58a11037bf127d284600001518a604051612aff929190614803565b60405180910390a450505050506001600081905550505050565b600260005403612b5e576040517f08c379a0000000000000000000000000000000000000000000000000000000008152600401612b559061433d565b60405180910390fd5b6002600081905550828233600083905060008173ffffffffffffffffffffffffffffffffffffffff16636352211e856040518263ffffffff1660e01b8152600401612ba991906143b2565b602060405180830381865afa158015612bc6573d6000803e3d6000fd5b505050506040513d601f19601f82011682018060405250810190612bea91906143e2565b90508073ffffffffffffffffffffffffffffffffffffffff168373ffffffffffffffffffffffffffffffffffffffff1614612c51576040517f30cd747100000000000000000000000000000000000000000000000000000000815260040160405180910390fd5b600073ffffffffffffffffffffffffffffffffffffffff168673ffffffffffffffffffffffffffffffffffffffff1603612cc6578787876040517f954f92ae000000000000000000000000000000000000000000000000000000008152600401612cbd9392919061482c565b60405180910390fd5b8773ffffffffffffffffffffffffffffffffffffffff166342842e0e33888a6040518463ffffffff1660e01b8152600401612d039392919061437b565b600060405180830381600087803b158015612d1d57600080fd5b505af1158015612d31573d6000803e3d6000fd5b50505050868873ffffffffffffffffffffffffffffffffffffffff163373ffffffffffffffffffffffffffffffffffffffff167f3b2ac3acb3cb3f130ff9bc3627b6abda2deeca3a447f302c8da25cedadab99cb89604051612d939190614540565b60405180910390a450505050506001600081905550505050565b600260005403612df2576040517f08c379a0000000000000000000000000000000000000000000000000000000008152600401612de99061433d565b60405180910390fd5b60026000819055508282336000600260008573ffffffffffffffffffffffffffffffffffffffff1673ffffffffffffffffffffffffffffffffffffffff16815260200190815260200160002060008481526020019081526020016000206040518060e0016040529081600082015481526020016001820160009054906101000a900473ffffffffffffffffffffffffffffffffffffffff1673ffffffffffffffffffffffffffffffffffffffff1673ffffffffffffffffffffffffffffffffffffffff1681526020016002820160009054906101000a900473ffffffffffffffffffffffffffffffffffffffff1673ffffffffffffffffffffffffffffffffffffffff1673ffffffffffffffffffffffffffffffffffffffff168152602001600382015481526020016004820160009054906101000a900473ffffffffffffffffffffffffffffffffffffffff1673ffffffffffffffffffffffffffffffffffffffff1673ffffffffffffffffffffffffffffffffffffffff1681526020016005820160009054906101000a900473ffffffffffffffffffffffffffffffffffffffff1673ffffffffffffffffffffffffffffffffffffffff1673ffffffffffffffffffffffffffffffffffffffff1681526020016005820160149054906101000a900460ff166002811115612feb57612fea61411a565b5b6002811115612ffd57612ffc61411a565b5b815250509050806020015173ffffffffffffffffffffffffffffffffffffffff168273ffffffffffffffffffffffffffffffffffffffff161461306c576040517f30cd747100000000000000000000000000000000000000000000000000000000815260040160405180910390fd5b6000600260008973ffffffffffffffffffffffffffffffffffffffff1673ffffffffffffffffffffffffffffffffffffffff16815260200190815260200160002060008881526020019081526020016000206040518060e0016040529081600082015481526020016001820160009054906101000a900473ffffffffffffffffffffffffffffffffffffffff1673ffffffffffffffffffffffffffffffffffffffff1673ffffffffffffffffffffffffffffffffffffffff1681526020016002820160009054906101000a900473ffffffffffffffffffffffffffffffffffffffff1673ffffffffffffffffffffffffffffffffffffffff1673ffffffffffffffffffffffffffffffffffffffff168152602001600382015481526020016004820160009054906101000a900473ffffffffffffffffffffffffffffffffffffffff1673ffffffffffffffffffffffffffffffffffffffff1673ffffffffffffffffffffffffffffffffffffffff1681526020016005820160009054906101000a900473ffffffffffffffffffffffffffffffffffffffff1673ffffffffffffffffffffffffffffffffffffffff1673ffffffffffffffffffffffffffffffffffffffff1681526020016005820160149054906101000a900460ff16600281111561325a5761325961411a565b5b600281111561326c5761326b61411a565b5b815250509050600160028111156132865761328561411a565b5b8160c00151600281111561329d5761329c61411a565b5b146132e15787876040517f6831488c0000000000000000000000000000000000000000000000000000000081526004016132d89291906144d2565b60405180910390fd5b6000860361331b576040517fe1abbfc500000000000000000000000000000000000000000000000000000000815260040160405180910390fd5b80600001518603613358576040517f4c7b5fe500000000000000000000000000000000000000000000000000000000815260040160405180910390fd5b85600260008a73ffffffffffffffffffffffffffffffffffffffff1673ffffffffffffffffffffffffffffffffffffffff168152602001908152602001600020600089815260200190815260200160002060000181905550868873ffffffffffffffffffffffffffffffffffffffff163373ffffffffffffffffffffffffffffffffffffffff167ffb38b45b61d941f67d4eadd9ce62b8c2c013efdc16d33151e58a11037bf127d2898560a00151604051613414929190614803565b60405180910390a450505050506001600081905550505050565b6000808273ffffffffffffffffffffffffffffffffffffffff166301ffc9a7632a55205a60e01b6040518263ffffffff1660e01b81526004016134719190613f88565b602060405180830381865afa15801561348e573d6000803e3d6000fd5b505050506040513d601f19601f820116820180604052508101906134b2919061489b565b905080915050919050565b600081836134cb91906148f7565b905092915050565b60006134f56134ed846134e8612710866134bd565b6134fd565b612710613513565b905092915050565b6000818361350b919061494d565b905092915050565b6000818361352191906149d6565b905092915050565b600081836135379190614a07565b905092915050565b600061355661354e83856134fd565b612710613513565b905092915050565b6135e1846323b872dd60e01b85858560405160240161357f9392919061437b565b604051602081830303815290604052907bffffffffffffffffffffffffffffffffffffffffffffffffffffffff19166020820180517bffffffffffffffffffffffffffffffffffffffffffffffffffffffff8381831617835250505050613932565b50505050565b60606000602867ffffffffffffffff81111561360657613605613d9f565b5b6040519080825280601f01601f1916602001820160405280156136385781602001600182028036833780820191505090505b50905060005b60148110156137a05760008160136136569190614a07565b6008613662919061494d565b600261366e9190614b6e565b8573ffffffffffffffffffffffffffffffffffffffff1661368f91906149d6565b60f81b9050600060108260f81c6136a69190614bc6565b60f81b905060008160f81c60106136bd9190614bf7565b8360f81c6136cb9190614c32565b60f81b90506136d9826139f9565b858560026136e7919061494d565b815181106136f8576136f7614c66565b5b60200101907effffffffffffffffffffffffffffffffffffffffffffffffffffffffffffff1916908160001a905350613730816139f9565b856001866002613740919061494d565b61374a91906148f7565b8151811061375b5761375a614c66565b5b60200101907effffffffffffffffffffffffffffffffffffffffffffffffffffffffffffff1916908160001a905350505050808061379890614c95565b91505061363e565b5080915050919050565b6060600082036137f1576040518060400160405280600181526020017f3000000000000000000000000000000000000000000000000000000000000000815250905061392d565b600082905060005b6000821461382357808061380c90614c95565b915050600a8261381c91906149d6565b91506137f9565b60008167ffffffffffffffff81111561383f5761383e613d9f565b5b6040519080825280601f01601f1916602001820160405280156138715781602001600182028036833780820191505090505b50905060008290505b600086146139255760018161388f9190614a07565b90506000600a80886138a191906149d6565b6138ab919061494d565b876138b69190614a07565b60306138c29190614cdd565b905060008160f81b9050808484815181106138e0576138df614c66565b5b60200101907effffffffffffffffffffffffffffffffffffffffffffffffffffffffffffff1916908160001a905350600a8861391c91906149d6565b9750505061387a565b819450505050505b919050565b6000613994826040518060400160405280602081526020017f5361666545524332303a206c6f772d6c6576656c2063616c6c206661696c65648152508573ffffffffffffffffffffffffffffffffffffffff16613a3f9092919063ffffffff16565b90506000815111156139f457808060200190518101906139b4919061489b565b6139f3576040517f08c379a00000000000000000000000000000000000000000000000000000000081526004016139ea90614d86565b60405180910390fd5b5b505050565b6000600a8260f81c60ff161015613a245760308260f81c613a1a9190614cdd565b60f81b9050613a3a565b60578260f81c613a349190614cdd565b60f81b90505b919050565b6060613a4e8484600085613a57565b90509392505050565b606082471015613a9c576040517f08c379a0000000000000000000000000000000000000000000000000000000008152600401613a9390614e18565b60405180910390fd5b613aa585613b6b565b613ae4576040517f08c379a0000000000000000000000000000000000000000000000000000000008152600401613adb90614e84565b60405180910390fd5b6000808673ffffffffffffffffffffffffffffffffffffffff168587604051613b0d9190614ea4565b60006040518083038185875af1925050503d8060008114613b4a576040519150601f19603f3d011682016040523d82523d6000602084013e613b4f565b606091505b5091509150613b5f828286613b8e565b92505050949350505050565b6000808273ffffffffffffffffffffffffffffffffffffffff163b119050919050565b60608315613b9e57829050613bee565b600083511115613bb15782518084602001fd5b816040517f08c379a0000000000000000000000000000000000000000000000000000000008152600401613be59190614ef4565b60405180910390fd5b9392505050565b6040518060e0016040528060008152602001600073ffffffffffffffffffffffffffffffffffffffff168152602001600073ffffffffffffffffffffffffffffffffffffffff16815260200160008152602001600073ffffffffffffffffffffffffffffffffffffffff168152602001600073ffffffffffffffffffffffffffffffffffffffff16815260200160006002811115613c9657613c9561411a565b5b81525090565b6000604051905090565b600080fd5b600080fd5b600073ffffffffffffffffffffffffffffffffffffffff82169050919050565b6000613cdb82613cb0565b9050919050565b613ceb81613cd0565b8114613cf657600080fd5b50565b600081359050613d0881613ce2565b92915050565b6000819050919050565b613d2181613d0e565b8114613d2c57600080fd5b50565b600081359050613d3e81613d18565b92915050565b60008060408385031215613d5b57613d5a613ca6565b5b6000613d6985828601613cf9565b9250506020613d7a85828601613d2f565b9150509250929050565b600080fd5b600080fd5b6000601f19601f8301169050919050565b7f4e487b7100000000000000000000000000000000000000000000000000000000600052604160045260246000fd5b613dd782613d8e565b810181811067ffffffffffffffff82111715613df657613df5613d9f565b5b80604052505050565b6000613e09613c9c565b9050613e158282613dce565b919050565b600067ffffffffffffffff821115613e3557613e34613d9f565b5b613e3e82613d8e565b9050602081019050919050565b82818337600083830152505050565b6000613e6d613e6884613e1a565b613dff565b905082815260208101848484011115613e8957613e88613d89565b5b613e94848285613e4b565b509392505050565b600082601f830112613eb157613eb0613d84565b5b8135613ec1848260208601613e5a565b91505092915050565b60008060008060808587031215613ee457613ee3613ca6565b5b6000613ef287828801613cf9565b9450506020613f0387828801613cf9565b9350506040613f1487828801613d2f565b925050606085013567ffffffffffffffff811115613f3557613f34613cab565b5b613f4187828801613e9c565b91505092959194509250565b60007fffffffff0000000000000000000000000000000000000000000000000000000082169050919050565b613f8281613f4d565b82525050565b6000602082019050613f9d6000830184613f79565b92915050565b600080600080600080600060e0888a031215613fc257613fc1613ca6565b5b6000613fd08a828b01613cf9565b9750506020613fe18a828b01613d2f565b9650506040613ff28a828b01613d2f565b95505060606140038a828b01613cf9565b94505060806140148a828b01613d2f565b93505060a06140258a828b01613cf9565b92505060c06140368a828b01613cf9565b91505092959891949750929550565b600080600080600060a0868803121561406157614060613ca6565b5b600061406f88828901613cf9565b955050602061408088828901613d2f565b945050604061409188828901613cf9565b93505060606140a288828901613d2f565b92505060806140b388828901613cf9565b9150509295509295909350565b60006140cb82613cb0565b9050919050565b6140db816140c0565b82525050565b60006020820190506140f660008301846140d2565b92915050565b61410581613d0e565b82525050565b61411481613cd0565b82525050565b7f4e487b7100000000000000000000000000000000000000000000000000000000600052602160045260246000fd5b6003811061415a5761415961411a565b5b50565b600081905061416b82614149565b919050565b600061417b8261415d565b9050919050565b61418b81614170565b82525050565b60e0820160008201516141a760008501826140fc565b5060208201516141ba602085018261410b565b5060408201516141cd604085018261410b565b5060608201516141e060608501826140fc565b5060808201516141f3608085018261410b565b5060a082015161420660a085018261410b565b5060c082015161421960c0850182614182565b50505050565b600060e0820190506142346000830184614191565b92915050565b60008060006060848603121561425357614252613ca6565b5b600061426186828701613cf9565b935050602061427286828701613d2f565b925050604061428386828701613cf9565b9150509250925092565b6000806000606084860312156142a6576142a5613ca6565b5b60006142b486828701613cf9565b93505060206142c586828701613d2f565b92505060406142d686828701613d2f565b9150509250925092565b600082825260208201905092915050565b7f5265656e7472616e637947756172643a207265656e7472616e742063616c6c00600082015250565b6000614327601f836142e0565b9150614332826142f1565b602082019050919050565b600060208201905081810360008301526143568161431a565b9050919050565b61436681613cd0565b82525050565b61437581613d0e565b82525050565b6000606082019050614390600083018661435d565b61439d602083018561435d565b6143aa604083018461436c565b949350505050565b60006020820190506143c7600083018461436c565b92915050565b6000815190506143dc81613ce2565b92915050565b6000602082840312156143f8576143f7613ca6565b5b6000614406848285016143cd565b91505092915050565b6000819050919050565b6000819050919050565b600061443e6144396144348461440f565b614419565b613d0e565b9050919050565b61444e81614423565b82525050565b6000604082019050614469600083018561436c565b6144766020830184614445565b9392505050565b60008151905061448c81613d18565b92915050565b600080604083850312156144a9576144a8613ca6565b5b60006144b7858286016143cd565b92505060206144c88582860161447d565b9150509250929050565b60006040820190506144e7600083018561435d565b6144f4602083018461436c565b9392505050565b6000608082019050614510600083018761435d565b61451d602083018661436c565b61452a604083018561436c565b614537606083018461436c565b95945050505050565b6000602082019050614555600083018461435d565b92915050565b60006020828403121561457157614570613ca6565b5b600061457f8482850161447d565b91505092915050565b600060408201905061459d600083018561435d565b6145aa602083018461435d565b9392505050565b60006040820190506145c6600083018561436c565b6145d3602083018461436c565b9392505050565b600081905092915050565b7f435553544f4d544f4b454e307800000000000000000000000000000000000000600082015250565b600061461b600d836145da565b9150614626826145e5565b600d82019050919050565b600081519050919050565b600081905092915050565b60005b8381101561466557808201518184015260208101905061464a565b83811115614674576000848401525b50505050565b600061468582614631565b61468f818561463c565b935061469f818560208601614647565b80840191505092915050565b7f2727272323232727270000000000000000000000000000000000000000000000600082015250565b60006146e16009836145da565b91506146ec826146ab565b600982019050919050565b600081519050919050565b600061470d826146f7565b61471781856145da565b9350614727818560208601614647565b80840191505092915050565b600061473e8261460e565b915061474a828561467a565b9150614755826146d4565b91506147618284614702565b91508190509392505050565b600082825260208201905092915050565b600061478982614631565b614793818561476d565b93506147a3818560208601614647565b6147ac81613d8e565b840191505092915050565b60006080820190506147cc600083018761435d565b6147d9602083018661435d565b6147e6604083018561436c565b81810360608301526147f8818461477e565b905095945050505050565b6000604082019050614818600083018561436c565b614825602083018461435d565b9392505050565b6000606082019050614841600083018661435d565b61484e602083018561436c565b61485b604083018461435d565b949350505050565b60008115159050919050565b61487881614863565b811461488357600080fd5b50565b6000815190506148958161486f565b92915050565b6000602082840312156148b1576148b0613ca6565b5b60006148bf84828501614886565b91505092915050565b7f4e487b7100000000000000000000000000000000000000000000000000000000600052601160045260246000fd5b600061490282613d0e565b915061490d83613d0e565b9250827fffffffffffffffffffffffffffffffffffffffffffffffffffffffffffffffff03821115614942576149416148c8565b5b828201905092915050565b600061495882613d0e565b915061496383613d0e565b9250817fffffffffffffffffffffffffffffffffffffffffffffffffffffffffffffffff048311821515161561499c5761499b6148c8565b5b828202905092915050565b7f4e487b7100000000000000000000000000000000000000000000000000000000600052601260045260246000fd5b60006149e182613d0e565b91506149ec83613d0e565b9250826149fc576149fb6149a7565b5b828204905092915050565b6000614a1282613d0e565b9150614a1d83613d0e565b925082821015614a3057614a2f6148c8565b5b828203905092915050565b60008160011c9050919050565b6000808291508390505b6001851115614a9257808604811115614a6e57614a6d6148c8565b5b6001851615614a7d5780820291505b8081029050614a8b85614a3b565b9450614a52565b94509492505050565b600082614aab5760019050614b67565b81614ab95760009050614b67565b8160018114614acf5760028114614ad957614b08565b6001915050614b67565b60ff841115614aeb57614aea6148c8565b5b8360020a915084821115614b0257614b016148c8565b5b50614b67565b5060208310610133831016604e8410600b8410161715614b3d5782820a905083811115614b3857614b376148c8565b5b614b67565b614b4a8484846001614a48565b92509050818404811115614b6157614b606148c8565b5b81810290505b9392505050565b6000614b7982613d0e565b9150614b8483613d0e565b9250614bb17fffffffffffffffffffffffffffffffffffffffffffffffffffffffffffffffff8484614a9b565b905092915050565b600060ff82169050919050565b6000614bd182614bb9565b9150614bdc83614bb9565b925082614bec57614beb6149a7565b5b828204905092915050565b6000614c0282614bb9565b9150614c0d83614bb9565b92508160ff0483118215151615614c2757614c266148c8565b5b828202905092915050565b6000614c3d82614bb9565b9150614c4883614bb9565b925082821015614c5b57614c5a6148c8565b5b828203905092915050565b7f4e487b7100000000000000000000000000000000000000000000000000000000600052603260045260246000fd5b6000614ca082613d0e565b91507fffffffffffffffffffffffffffffffffffffffffffffffffffffffffffffffff8203614cd257614cd16148c8565b5b600182019050919050565b6000614ce882614bb9565b9150614cf383614bb9565b92508260ff03821115614d0957614d086148c8565b5b828201905092915050565b7f5361666545524332303a204552433230206f7065726174696f6e20646964206e60008201527f6f74207375636365656400000000000000000000000000000000000000000000602082015250565b6000614d70602a836142e0565b9150614d7b82614d14565b604082019050919050565b60006020820190508181036000830152614d9f81614d63565b9050919050565b7f416464726573733a20696e73756666696369656e742062616c616e636520666f60008201527f722063616c6c0000000000000000000000000000000000000000000000000000602082015250565b6000614e026026836142e0565b9150614e0d82614da6565b604082019050919050565b60006020820190508181036000830152614e3181614df5565b9050919050565b7f416464726573733a2063616c6c20746f206e6f6e2d636f6e7472616374000000600082015250565b6000614e6e601d836142e0565b9150614e7982614e38565b602082019050919050565b60006020820190508181036000830152614e9d81614e61565b9050919050565b6000614eb0828461467a565b915081905092915050565b6000614ec6826146f7565b614ed081856142e0565b9350614ee0818560208601614647565b614ee981613d8e565b840191505092915050565b60006020820190508181036000830152614f0e8184614ebb565b90509291505056fea2646970667358221220577b8a488094c4f3171dc48df2b26ced4dbf4cee231d3a54ca308b481cb4bcbc64736f6c634300080f0033",
  "linkReferences": {},
  "deployedLinkReferences": {}
}