{
  "_format": "hh-sol-artifact-1",
  "contractName": "XDSeaMarket721",
  "sourceName": "newContracts/XDSeaMarket721.sol",
  "abi": [
    {
      "inputs": [],
      "stateMutability": "nonpayable",
      "type": "constructor"
    },
    {
      "inputs": [
        {
          "internalType": "address",
          "name": "nftContract",
          "type": "address"
        },
        {
          "internalType": "uint256",
          "name": "tokenId",
          "type": "uint256"
        },
        {
          "internalType": "address",
          "name": "receiver",
          "type": "address"
        }
      ],
      "name": "CannotTransferToNull",
      "type": "error"
    },
    {
      "inputs": [],
      "name": "NotApprovedForMarketplace",
      "type": "error"
    },
    {
      "inputs": [
        {
          "internalType": "address",
          "name": "nftContract",
          "type": "address"
        },
        {
          "internalType": "uint256",
          "name": "tokenId",
          "type": "uint256"
        }
      ],
      "name": "NotListed",
      "type": "error"
    },
    {
      "inputs": [],
      "name": "NotOwner",
      "type": "error"
    },
    {
      "inputs": [
        {
          "internalType": "address",
          "name": "listingERC20Address",
          "type": "address"
        },
        {
          "internalType": "address",
          "name": "transactionERC20Address",
          "type": "address"
        }
      ],
      "name": "NotTheRightCurrency",
      "type": "error"
    },
    {
      "inputs": [],
      "name": "OwnerCannotBuyOwnNFT",
      "type": "error"
    },
    {
      "inputs": [],
      "name": "PriceMustBeAboveZero",
      "type": "error"
    },
    {
      "inputs": [
        {
          "internalType": "address",
          "name": "nftContract",
          "type": "address"
        },
        {
          "internalType": "uint256",
          "name": "tokenId",
          "type": "uint256"
        },
        {
          "internalType": "uint256",
          "name": "price",
          "type": "uint256"
        },
        {
          "internalType": "uint256",
          "name": "sent",
          "type": "uint256"
        }
      ],
      "name": "PriceNotMet",
      "type": "error"
    },
    {
      "anonymous": false,
      "inputs": [
        {
          "indexed": true,
          "internalType": "address",
          "name": "operator",
          "type": "address"
        },
        {
          "indexed": true,
          "internalType": "address",
          "name": "from",
          "type": "address"
        },
        {
          "indexed": true,
          "internalType": "uint256",
          "name": "tokenId",
          "type": "uint256"
        }
      ],
      "name": "ERC721Received",
      "type": "event"
    },
    {
      "anonymous": false,
      "inputs": [
        {
          "indexed": true,
          "internalType": "address",
          "name": "seller",
          "type": "address"
        },
        {
          "indexed": true,
          "internalType": "address",
          "name": "nftContract",
          "type": "address"
        },
        {
          "indexed": true,
          "internalType": "uint256",
          "name": "tokenId",
          "type": "uint256"
        },
        {
          "indexed": false,
          "internalType": "uint256",
          "name": "price",
          "type": "uint256"
        }
      ],
      "name": "NFTListEdited",
      "type": "event"
    },
    {
      "anonymous": false,
      "inputs": [
        {
          "indexed": true,
          "internalType": "address",
          "name": "seller",
          "type": "address"
        },
        {
          "indexed": true,
          "internalType": "address",
          "name": "nftContract",
          "type": "address"
        },
        {
          "indexed": true,
          "internalType": "uint256",
          "name": "tokenId",
          "type": "uint256"
        },
        {
          "indexed": false,
          "internalType": "address",
          "name": "erc20Address",
          "type": "address"
        },
        {
          "indexed": false,
          "internalType": "uint256",
          "name": "price",
          "type": "uint256"
        }
      ],
      "name": "NFTListed",
      "type": "event"
    },
    {
      "anonymous": false,
      "inputs": [
        {
          "indexed": true,
          "internalType": "address",
          "name": "buyer",
          "type": "address"
        },
        {
          "indexed": true,
          "internalType": "address",
          "name": "nftContract",
          "type": "address"
        },
        {
          "indexed": true,
          "internalType": "uint256",
          "name": "tokenId",
          "type": "uint256"
        },
        {
          "indexed": false,
          "internalType": "uint256",
          "name": "price",
          "type": "uint256"
        }
      ],
      "name": "NFTPurchased",
      "type": "event"
    },
    {
      "anonymous": false,
      "inputs": [
        {
          "indexed": true,
          "internalType": "address",
          "name": "sender",
          "type": "address"
        },
        {
          "indexed": true,
          "internalType": "address",
          "name": "nftContract",
          "type": "address"
        },
        {
          "indexed": true,
          "internalType": "uint256",
          "name": "tokenId",
          "type": "uint256"
        },
        {
          "indexed": false,
          "internalType": "address",
          "name": "receiver",
          "type": "address"
        }
      ],
      "name": "NFTTransferred",
      "type": "event"
    },
    {
      "anonymous": false,
      "inputs": [
        {
          "indexed": true,
          "internalType": "address",
          "name": "withdrawer",
          "type": "address"
        },
        {
          "indexed": true,
          "internalType": "address",
          "name": "nftContract",
          "type": "address"
        },
        {
          "indexed": true,
          "internalType": "uint256",
          "name": "tokenId",
          "type": "uint256"
        }
      ],
      "name": "NFTWithdrawn",
      "type": "event"
    },
    {
      "inputs": [
        {
          "internalType": "address",
          "name": "nftContract",
          "type": "address"
        },
        {
          "internalType": "uint256",
          "name": "tokenId",
          "type": "uint256"
        },
        {
          "internalType": "address",
          "name": "erc20Address",
          "type": "address"
        },
        {
          "internalType": "uint256",
          "name": "commission",
          "type": "uint256"
        },
        {
          "internalType": "address",
          "name": "commissionAddress",
          "type": "address"
        }
      ],
      "name": "buy",
      "outputs": [],
      "stateMutability": "payable",
      "type": "function"
    },
    {
      "inputs": [
        {
          "internalType": "address",
          "name": "nftContract",
          "type": "address"
        },
        {
          "internalType": "uint256",
          "name": "tokenId",
          "type": "uint256"
        }
      ],
      "name": "getListing",
      "outputs": [
        {
          "components": [
            {
              "internalType": "uint256",
              "name": "price",
              "type": "uint256"
            },
            {
              "internalType": "address",
              "name": "seller",
              "type": "address"
            },
            {
              "internalType": "address",
              "name": "erc20Address",
              "type": "address"
            },
            {
              "internalType": "uint256",
              "name": "royalty",
              "type": "uint256"
            },
            {
              "internalType": "address",
              "name": "royaltyReceiver",
              "type": "address"
            },
            {
              "internalType": "enum XDSeaMarket721.State",
              "name": "state",
              "type": "uint8"
            }
          ],
          "internalType": "struct XDSeaMarket721.Listing",
          "name": "",
          "type": "tuple"
        }
      ],
      "stateMutability": "view",
      "type": "function"
    },
    {
      "inputs": [
        {
          "internalType": "address",
          "name": "nftContract",
          "type": "address"
        },
        {
          "internalType": "uint256",
          "name": "tokenId",
          "type": "uint256"
        },
        {
          "internalType": "uint256",
          "name": "price",
          "type": "uint256"
        },
        {
          "internalType": "address",
          "name": "erc20Address",
          "type": "address"
        },
        {
          "internalType": "uint256",
          "name": "royalty",
          "type": "uint256"
        },
        {
          "internalType": "address",
          "name": "receiver",
          "type": "address"
        }
      ],
      "name": "list",
      "outputs": [],
      "stateMutability": "nonpayable",
      "type": "function"
    },
    {
      "inputs": [],
      "name": "marketOwner",
      "outputs": [
        {
          "internalType": "address payable",
          "name": "",
          "type": "address"
        }
      ],
      "stateMutability": "view",
      "type": "function"
    },
    {
      "inputs": [
        {
          "internalType": "address",
          "name": "operator",
          "type": "address"
        },
        {
          "internalType": "address",
          "name": "from",
          "type": "address"
        },
        {
          "internalType": "uint256",
          "name": "tokenId",
          "type": "uint256"
        },
        {
          "internalType": "bytes",
          "name": "",
          "type": "bytes"
        }
      ],
      "name": "onERC721Received",
      "outputs": [
        {
          "internalType": "bytes4",
          "name": "",
          "type": "bytes4"
        }
      ],
      "stateMutability": "nonpayable",
      "type": "function"
    },
    {
      "inputs": [
        {
          "internalType": "address",
          "name": "nftContract",
          "type": "address"
        },
        {
          "internalType": "uint256",
          "name": "tokenId",
          "type": "uint256"
        },
        {
          "internalType": "address",
          "name": "receiver",
          "type": "address"
        }
      ],
      "name": "transfer",
      "outputs": [],
      "stateMutability": "nonpayable",
      "type": "function"
    },
    {
      "inputs": [
        {
          "internalType": "address",
          "name": "nftContract",
          "type": "address"
        },
        {
          "internalType": "uint256",
          "name": "tokenId",
          "type": "uint256"
        },
        {
          "internalType": "uint256",
          "name": "newPrice",
          "type": "uint256"
        }
      ],
      "name": "updateListing",
      "outputs": [],
      "stateMutability": "nonpayable",
      "type": "function"
    },
    {
      "inputs": [
        {
          "internalType": "address",
          "name": "nftContract",
          "type": "address"
        },
        {
          "internalType": "uint256",
          "name": "tokenId",
          "type": "uint256"
        }
      ],
      "name": "withdrawListing",
      "outputs": [],
      "stateMutability": "nonpayable",
      "type": "function"
    }
  ],
  "bytecode": "0x608060405234801561001057600080fd5b50600160008190555033600160006101000a81548173ffffffffffffffffffffffffffffffffffffffff021916908373ffffffffffffffffffffffffffffffffffffffff160217905550614001806100696000396000f3fe60806040526004361061007a5760003560e01c806388700d1c1161004e57806388700d1c1461012c578063aa242a6014610169578063dbba0f0114610192578063f772adf1146101bb5761007a565b8062a672921461007f578063150b7a02146100a857806333563d1b146100e557806347d90b5c14610101575b600080fd5b34801561008b57600080fd5b506100a660048036038101906100a19190612fc0565b6101e4565b005b3480156100b457600080fd5b506100cf60048036038101906100ca9190613146565b610554565b6040516100dc9190613204565b60405180910390f35b6100ff60048036038101906100fa919061321f565b6105c3565b005b34801561010d57600080fd5b50610116611562565b60405161012391906132bb565b60405180910390f35b34801561013857600080fd5b50610153600480360381019061014e9190612fc0565b611588565b60405161016091906133e6565b60405180910390f35b34801561017557600080fd5b50610190600480360381019061018b9190613401565b611744565b005b34801561019e57600080fd5b506101b960048036038101906101b4919061348e565b6121fc565b005b3480156101c757600080fd5b506101e260048036038101906101dd91906134e1565b61243b565b005b8181336000600260008573ffffffffffffffffffffffffffffffffffffffff1673ffffffffffffffffffffffffffffffffffffffff16815260200190815260200160002060008481526020019081526020016000206040518060c0016040529081600082015481526020016001820160009054906101000a900473ffffffffffffffffffffffffffffffffffffffff1673ffffffffffffffffffffffffffffffffffffffff1673ffffffffffffffffffffffffffffffffffffffff1681526020016002820160009054906101000a900473ffffffffffffffffffffffffffffffffffffffff1673ffffffffffffffffffffffffffffffffffffffff1673ffffffffffffffffffffffffffffffffffffffff168152602001600382015481526020016004820160009054906101000a900473ffffffffffffffffffffffffffffffffffffffff1673ffffffffffffffffffffffffffffffffffffffff1673ffffffffffffffffffffffffffffffffffffffff1681526020016004820160149054906101000a900460ff16600281111561037f5761037e6132f4565b5b6002811115610391576103906132f4565b5b815250509050806020015173ffffffffffffffffffffffffffffffffffffffff168273ffffffffffffffffffffffffffffffffffffffff1614610400576040517f30cd747100000000000000000000000000000000000000000000000000000000815260040160405180910390fd5b60008690508073ffffffffffffffffffffffffffffffffffffffff166342842e0e3033896040518463ffffffff1660e01b815260040161044293929190613552565b600060405180830381600087803b15801561045c57600080fd5b505af1158015610470573d6000803e3d6000fd5b505050506000600260008973ffffffffffffffffffffffffffffffffffffffff1673ffffffffffffffffffffffffffffffffffffffff168152602001908152602001600020600088815260200190815260200160002060040160146101000a81548160ff021916908360028111156104eb576104ea6132f4565b5b0217905550858773ffffffffffffffffffffffffffffffffffffffff163373ffffffffffffffffffffffffffffffffffffffff167fbbde41973f9ce4890f7ad9762c23d8191f261fd643bdf13ed8bbc10549b49fcb60405160405180910390a450505050505050565b6000828473ffffffffffffffffffffffffffffffffffffffff168673ffffffffffffffffffffffffffffffffffffffff167f941a9d9a9af7f97737c018d13918859e12f44e16c4b4c6ac922dacf021cfbf1460405160405180910390a463150b7a0260e01b9050949350505050565b600260005403610608576040517f08c379a00000000000000000000000000000000000000000000000000000000081526004016105ff906135e6565b60405180910390fd5b60026000819055506000600260008773ffffffffffffffffffffffffffffffffffffffff1673ffffffffffffffffffffffffffffffffffffffff16815260200190815260200160002060008681526020019081526020016000206040518060c0016040529081600082015481526020016001820160009054906101000a900473ffffffffffffffffffffffffffffffffffffffff1673ffffffffffffffffffffffffffffffffffffffff1673ffffffffffffffffffffffffffffffffffffffff1681526020016002820160009054906101000a900473ffffffffffffffffffffffffffffffffffffffff1673ffffffffffffffffffffffffffffffffffffffff1673ffffffffffffffffffffffffffffffffffffffff168152602001600382015481526020016004820160009054906101000a900473ffffffffffffffffffffffffffffffffffffffff1673ffffffffffffffffffffffffffffffffffffffff1673ffffffffffffffffffffffffffffffffffffffff1681526020016004820160149054906101000a900460ff1660028111156107a8576107a76132f4565b5b60028111156107ba576107b96132f4565b5b815250509050600160028111156107d4576107d36132f4565b5b8160a0015160028111156107eb576107ea6132f4565b5b1461082f5785856040517f6831488c000000000000000000000000000000000000000000000000000000008152600401610826929190613606565b60405180910390fd5b610847816000015161084260c8866129cd565b6129e3565b341015610a5257600073ffffffffffffffffffffffffffffffffffffffff168473ffffffffffffffffffffffffffffffffffffffff16036108dc57858561089c836000015161089760c8886129cd565b6129e3565b346040517f0544dbb30000000000000000000000000000000000000000000000000000000081526004016108d3949392919061362f565b60405180910390fd5b6000816040015190506108fd82600001516108f860c8876129cd565b6129e3565b8173ffffffffffffffffffffffffffffffffffffffff166370a08231336040518263ffffffff1660e01b81526004016109369190613674565b602060405180830381865afa158015610953573d6000803e3d6000fd5b505050506040513d601f19601f8201168201806040525081019061097791906136a4565b1015610a50578686610997846000015161099260c8896129cd565b6129e3565b8373ffffffffffffffffffffffffffffffffffffffff166370a08231336040518263ffffffff1660e01b81526004016109d09190613674565b602060405180830381865afa1580156109ed573d6000803e3d6000fd5b505050506040513d601f19601f82011682018060405250810190610a1191906136a4565b6040517f0544dbb3000000000000000000000000000000000000000000000000000000008152600401610a47949392919061362f565b60405180910390fd5b505b8373ffffffffffffffffffffffffffffffffffffffff16816040015173ffffffffffffffffffffffffffffffffffffffff1614610acc578060400151846040517fe8113fa4000000000000000000000000000000000000000000000000000000008152600401610ac39291906136d1565b60405180910390fd5b806020015173ffffffffffffffffffffffffffffffffffffffff163373ffffffffffffffffffffffffffffffffffffffff1603610b35576040517f52ab620000000000000000000000000000000000000000000000000000000000815260040160405180910390fd5b600073ffffffffffffffffffffffffffffffffffffffff168473ffffffffffffffffffffffffffffffffffffffff1603610ec75760008314610bd1578173ffffffffffffffffffffffffffffffffffffffff166108fc610ba4610b9c846000015187612a0d565b612710612a23565b9081150290604051600060405180830381858888f19350505050158015610bcf573d6000803e3d6000fd5b505b600160009054906101000a900473ffffffffffffffffffffffffffffffffffffffff1673ffffffffffffffffffffffffffffffffffffffff166108fc610c27610c1f846000015160c8612a0d565b612710612a23565b9081150290604051600060405180830381858888f19350505050158015610c52573d6000803e3d6000fd5b50610c5c86612a39565b15610d8d576000808773ffffffffffffffffffffffffffffffffffffffff16632a55205a8885600001516040518363ffffffff1660e01b8152600401610ca39291906136fa565b6040805180830381865afa158015610cbf573d6000803e3d6000fd5b505050506040513d601f19601f82011682018060405250810190610ce39190613738565b915091508173ffffffffffffffffffffffffffffffffffffffff166108fc829081150290604051600060405180830381858888f19350505050158015610d2d573d6000803e3d6000fd5b50826020015173ffffffffffffffffffffffffffffffffffffffff166108fc610d5a856000015184612ac8565b9081150290604051600060405180830381858888f19350505050158015610d85573d6000803e3d6000fd5b505050610e53565b806080015173ffffffffffffffffffffffffffffffffffffffff166108fc610dbd83600001518460600151612ade565b9081150290604051600060405180830381858888f19350505050158015610de8573d6000803e3d6000fd5b50806020015173ffffffffffffffffffffffffffffffffffffffff166108fc610e268360000151610e2185600001518660600151612ade565b612ac8565b9081150290604051600060405180830381858888f19350505050158015610e51573d6000803e3d6000fd5b505b8573ffffffffffffffffffffffffffffffffffffffff166342842e0e3033886040518463ffffffff1660e01b8152600401610e9093929190613552565b600060405180830381600087803b158015610eaa57600080fd5b505af1158015610ebe573d6000803e3d6000fd5b505050506113c8565b60008160400151905060008414610f72578073ffffffffffffffffffffffffffffffffffffffff166323b872dd3385610f0f610f0787600001518a612a0d565b612710612a23565b6040518463ffffffff1660e01b8152600401610f2d939291906137d7565b6020604051808303816000875af1158015610f4c573d6000803e3d6000fd5b505050506040513d601f19601f82011682018060405250810190610f709190613846565b505b8073ffffffffffffffffffffffffffffffffffffffff166323b872dd33600160009054906101000a900473ffffffffffffffffffffffffffffffffffffffff16610fcc610fc4876000015160c8612a0d565b612710612a23565b6040518463ffffffff1660e01b8152600401610fea939291906137d7565b6020604051808303816000875af1158015611009573d6000803e3d6000fd5b505050506040513d601f19601f8201168201806040525081019061102d9190613846565b5061103787612a39565b156111dc576000808873ffffffffffffffffffffffffffffffffffffffff16632a55205a8986600001516040518363ffffffff1660e01b815260040161107e9291906136fa565b6040805180830381865afa15801561109a573d6000803e3d6000fd5b505050506040513d601f19601f820116820180604052508101906110be9190613738565b915091508273ffffffffffffffffffffffffffffffffffffffff166323b872dd3384846040518463ffffffff1660e01b81526004016110ff939291906137d7565b6020604051808303816000875af115801561111e573d6000803e3d6000fd5b505050506040513d601f19601f820116820180604052508101906111429190613846565b508273ffffffffffffffffffffffffffffffffffffffff166323b872dd338660200151611173886000015186612ac8565b6040518463ffffffff1660e01b8152600401611191939291906137d7565b6020604051808303816000875af11580156111b0573d6000803e3d6000fd5b505050506040513d601f19601f820116820180604052508101906111d49190613846565b505050611316565b8073ffffffffffffffffffffffffffffffffffffffff166323b872dd33846080015161121086600001518760600151612ade565b6040518463ffffffff1660e01b815260040161122e939291906137d7565b6020604051808303816000875af115801561124d573d6000803e3d6000fd5b505050506040513d601f19601f820116820180604052508101906112719190613846565b508073ffffffffffffffffffffffffffffffffffffffff166323b872dd3384602001516112b386600001516112ae88600001518960600151612ade565b612ac8565b6040518463ffffffff1660e01b81526004016112d1939291906137d7565b6020604051808303816000875af11580156112f0573d6000803e3d6000fd5b505050506040513d601f19601f820116820180604052508101906113149190613846565b505b60006113258360400151612afd565b6113328460000151612cc0565b6040516020016113439291906139cc565b60405160208183030381529060405290508773ffffffffffffffffffffffffffffffffffffffff1663b88d4fde30338a856040518563ffffffff1660e01b81526004016113939493929190613a50565b600060405180830381600087803b1580156113ad57600080fd5b505af11580156113c1573d6000803e3d6000fd5b5050505050505b60028060008873ffffffffffffffffffffffffffffffffffffffff1673ffffffffffffffffffffffffffffffffffffffff168152602001908152602001600020600087815260200190815260200160002060040160146101000a81548160ff0219169083600281111561143e5761143d6132f4565b5b021790555033600260008873ffffffffffffffffffffffffffffffffffffffff1673ffffffffffffffffffffffffffffffffffffffff168152602001908152602001600020600087815260200190815260200160002060010160006101000a81548173ffffffffffffffffffffffffffffffffffffffff021916908373ffffffffffffffffffffffffffffffffffffffff160217905550848673ffffffffffffffffffffffffffffffffffffffff163373ffffffffffffffffffffffffffffffffffffffff167f84a34755616a04d6e547597ec5933d7ca8cf181bb354026be7e93e147edf0ab761153d856000015161153860c88a6129cd565b6129e3565b60405161154a9190613a9c565b60405180910390a45060016000819055505050505050565b600160009054906101000a900473ffffffffffffffffffffffffffffffffffffffff1681565b611590612e8e565b600260008473ffffffffffffffffffffffffffffffffffffffff1673ffffffffffffffffffffffffffffffffffffffff16815260200190815260200160002060008381526020019081526020016000206040518060c0016040529081600082015481526020016001820160009054906101000a900473ffffffffffffffffffffffffffffffffffffffff1673ffffffffffffffffffffffffffffffffffffffff1673ffffffffffffffffffffffffffffffffffffffff1681526020016002820160009054906101000a900473ffffffffffffffffffffffffffffffffffffffff1673ffffffffffffffffffffffffffffffffffffffff1673ffffffffffffffffffffffffffffffffffffffff168152602001600382015481526020016004820160009054906101000a900473ffffffffffffffffffffffffffffffffffffffff1673ffffffffffffffffffffffffffffffffffffffff1673ffffffffffffffffffffffffffffffffffffffff1681526020016004820160149054906101000a900460ff166002811115611726576117256132f4565b5b6002811115611738576117376132f4565b5b81525050905092915050565b600086905060008173ffffffffffffffffffffffffffffffffffffffff16636352211e886040518263ffffffff1660e01b81526004016117849190613a9c565b602060405180830381865afa1580156117a1573d6000803e3d6000fd5b505050506040513d601f19601f820116820180604052508101906117c59190613ab7565b90508073ffffffffffffffffffffffffffffffffffffffff163373ffffffffffffffffffffffffffffffffffffffff161461182c576040517f30cd747100000000000000000000000000000000000000000000000000000000815260040160405180910390fd5b60008611611866576040517fe1abbfc500000000000000000000000000000000000000000000000000000000815260040160405180910390fd5b3073ffffffffffffffffffffffffffffffffffffffff168273ffffffffffffffffffffffffffffffffffffffff1663081812fc896040518263ffffffff1660e01b81526004016118b69190613a9c565b602060405180830381865afa1580156118d3573d6000803e3d6000fd5b505050506040513d601f19601f820116820180604052508101906118f79190613ab7565b73ffffffffffffffffffffffffffffffffffffffff1614611944576040517f4be3a2c500000000000000000000000000000000000000000000000000000000815260040160405180910390fd5b61194d88612a39565b15611bcb576000808973ffffffffffffffffffffffffffffffffffffffff16632a55205a8a6127106040518363ffffffff1660e01b8152600401611992929190613b1f565b6040805180830381865afa1580156119ae573d6000803e3d6000fd5b505050506040513d601f19601f820116820180604052508101906119d29190613738565b915091506040518060c001604052808981526020013373ffffffffffffffffffffffffffffffffffffffff1681526020018873ffffffffffffffffffffffffffffffffffffffff1681526020018281526020018373ffffffffffffffffffffffffffffffffffffffff16815260200160016002811115611a5557611a546132f4565b5b815250600260008c73ffffffffffffffffffffffffffffffffffffffff1673ffffffffffffffffffffffffffffffffffffffff16815260200190815260200160002060008b81526020019081526020016000206000820151816000015560208201518160010160006101000a81548173ffffffffffffffffffffffffffffffffffffffff021916908373ffffffffffffffffffffffffffffffffffffffff16021790555060408201518160020160006101000a81548173ffffffffffffffffffffffffffffffffffffffff021916908373ffffffffffffffffffffffffffffffffffffffff1602179055506060820151816003015560808201518160040160006101000a81548173ffffffffffffffffffffffffffffffffffffffff021916908373ffffffffffffffffffffffffffffffffffffffff16021790555060a08201518160040160146101000a81548160ff02191690836002811115611bbc57611bbb6132f4565b5b0217905550905050505061211b565b600073ffffffffffffffffffffffffffffffffffffffff16600260008a73ffffffffffffffffffffffffffffffffffffffff1673ffffffffffffffffffffffffffffffffffffffff168152602001908152602001600020600089815260200190815260200160002060040160009054906101000a900473ffffffffffffffffffffffffffffffffffffffff1673ffffffffffffffffffffffffffffffffffffffff1614611f2b576040518060c001604052808781526020013373ffffffffffffffffffffffffffffffffffffffff1681526020018673ffffffffffffffffffffffffffffffffffffffff168152602001600260008b73ffffffffffffffffffffffffffffffffffffffff1673ffffffffffffffffffffffffffffffffffffffff16815260200190815260200160002060008a8152602001908152602001600020600301548152602001600260008b73ffffffffffffffffffffffffffffffffffffffff1673ffffffffffffffffffffffffffffffffffffffff16815260200190815260200160002060008a815260200190815260200160002060040160009054906101000a900473ffffffffffffffffffffffffffffffffffffffff1673ffffffffffffffffffffffffffffffffffffffff16815260200160016002811115611db757611db66132f4565b5b815250600260008a73ffffffffffffffffffffffffffffffffffffffff1673ffffffffffffffffffffffffffffffffffffffff16815260200190815260200160002060008981526020019081526020016000206000820151816000015560208201518160010160006101000a81548173ffffffffffffffffffffffffffffffffffffffff021916908373ffffffffffffffffffffffffffffffffffffffff16021790555060408201518160020160006101000a81548173ffffffffffffffffffffffffffffffffffffffff021916908373ffffffffffffffffffffffffffffffffffffffff1602179055506060820151816003015560808201518160040160006101000a81548173ffffffffffffffffffffffffffffffffffffffff021916908373ffffffffffffffffffffffffffffffffffffffff16021790555060a08201518160040160146101000a81548160ff02191690836002811115611f1e57611f1d6132f4565b5b021790555090505061211a565b6040518060c001604052808781526020013373ffffffffffffffffffffffffffffffffffffffff1681526020018673ffffffffffffffffffffffffffffffffffffffff1681526020018581526020018473ffffffffffffffffffffffffffffffffffffffff16815260200160016002811115611faa57611fa96132f4565b5b815250600260008a73ffffffffffffffffffffffffffffffffffffffff1673ffffffffffffffffffffffffffffffffffffffff16815260200190815260200160002060008981526020019081526020016000206000820151816000015560208201518160010160006101000a81548173ffffffffffffffffffffffffffffffffffffffff021916908373ffffffffffffffffffffffffffffffffffffffff16021790555060408201518160020160006101000a81548173ffffffffffffffffffffffffffffffffffffffff021916908373ffffffffffffffffffffffffffffffffffffffff1602179055506060820151816003015560808201518160040160006101000a81548173ffffffffffffffffffffffffffffffffffffffff021916908373ffffffffffffffffffffffffffffffffffffffff16021790555060a08201518160040160146101000a81548160ff02191690836002811115612111576121106132f4565b5b02179055509050505b5b8173ffffffffffffffffffffffffffffffffffffffff166342842e0e33308a6040518463ffffffff1660e01b815260040161215893929190613552565b600060405180830381600087803b15801561217257600080fd5b505af1158015612186573d6000803e3d6000fd5b50505050868873ffffffffffffffffffffffffffffffffffffffff163373ffffffffffffffffffffffffffffffffffffffff167fbe8674cddad6e98aa5c1bec8334ed8c69d4d1b1627fbbde698e6c760540dde02888a6040516121ea929190613606565b60405180910390a45050505050505050565b828233600083905060008173ffffffffffffffffffffffffffffffffffffffff16636352211e856040518263ffffffff1660e01b815260040161223f9190613a9c565b602060405180830381865afa15801561225c573d6000803e3d6000fd5b505050506040513d601f19601f820116820180604052508101906122809190613ab7565b90508073ffffffffffffffffffffffffffffffffffffffff168373ffffffffffffffffffffffffffffffffffffffff16146122e7576040517f30cd747100000000000000000000000000000000000000000000000000000000815260040160405180910390fd5b600073ffffffffffffffffffffffffffffffffffffffff168673ffffffffffffffffffffffffffffffffffffffff160361235c578787876040517f954f92ae00000000000000000000000000000000000000000000000000000000815260040161235393929190613b48565b60405180910390fd5b8773ffffffffffffffffffffffffffffffffffffffff166342842e0e33888a6040518463ffffffff1660e01b815260040161239993929190613552565b600060405180830381600087803b1580156123b357600080fd5b505af11580156123c7573d6000803e3d6000fd5b50505050868873ffffffffffffffffffffffffffffffffffffffff163373ffffffffffffffffffffffffffffffffffffffff167f3b2ac3acb3cb3f130ff9bc3627b6abda2deeca3a447f302c8da25cedadab99cb896040516124299190613674565b60405180910390a45050505050505050565b600260005403612480576040517f08c379a0000000000000000000000000000000000000000000000000000000008152600401612477906135e6565b60405180910390fd5b60026000819055508282336000600260008573ffffffffffffffffffffffffffffffffffffffff1673ffffffffffffffffffffffffffffffffffffffff16815260200190815260200160002060008481526020019081526020016000206040518060c0016040529081600082015481526020016001820160009054906101000a900473ffffffffffffffffffffffffffffffffffffffff1673ffffffffffffffffffffffffffffffffffffffff1673ffffffffffffffffffffffffffffffffffffffff1681526020016002820160009054906101000a900473ffffffffffffffffffffffffffffffffffffffff1673ffffffffffffffffffffffffffffffffffffffff1673ffffffffffffffffffffffffffffffffffffffff168152602001600382015481526020016004820160009054906101000a900473ffffffffffffffffffffffffffffffffffffffff1673ffffffffffffffffffffffffffffffffffffffff1673ffffffffffffffffffffffffffffffffffffffff1681526020016004820160149054906101000a900460ff166002811115612623576126226132f4565b5b6002811115612635576126346132f4565b5b815250509050806020015173ffffffffffffffffffffffffffffffffffffffff168273ffffffffffffffffffffffffffffffffffffffff16146126a4576040517f30cd747100000000000000000000000000000000000000000000000000000000815260040160405180910390fd5b6000600260008973ffffffffffffffffffffffffffffffffffffffff1673ffffffffffffffffffffffffffffffffffffffff16815260200190815260200160002060008881526020019081526020016000206040518060c0016040529081600082015481526020016001820160009054906101000a900473ffffffffffffffffffffffffffffffffffffffff1673ffffffffffffffffffffffffffffffffffffffff1673ffffffffffffffffffffffffffffffffffffffff1681526020016002820160009054906101000a900473ffffffffffffffffffffffffffffffffffffffff1673ffffffffffffffffffffffffffffffffffffffff1673ffffffffffffffffffffffffffffffffffffffff168152602001600382015481526020016004820160009054906101000a900473ffffffffffffffffffffffffffffffffffffffff1673ffffffffffffffffffffffffffffffffffffffff1673ffffffffffffffffffffffffffffffffffffffff1681526020016004820160149054906101000a900460ff16600281111561283c5761283b6132f4565b5b600281111561284e5761284d6132f4565b5b81525050905060016002811115612868576128676132f4565b5b8160a00151600281111561287f5761287e6132f4565b5b146128c35787876040517f6831488c0000000000000000000000000000000000000000000000000000000081526004016128ba929190613606565b60405180910390fd5b600086036128fd576040517fe1abbfc500000000000000000000000000000000000000000000000000000000815260040160405180910390fd5b85600260008a73ffffffffffffffffffffffffffffffffffffffff1673ffffffffffffffffffffffffffffffffffffffff168152602001908152602001600020600089815260200190815260200160002060000181905550868873ffffffffffffffffffffffffffffffffffffffff163373ffffffffffffffffffffffffffffffffffffffff167fd46c44fdda5800e5fa86622dcaaf95c76427dd83af39a3bbb036360e0101d318896040516129b39190613a9c565b60405180910390a450505050506001600081905550505050565b600081836129db9190613bae565b905092915050565b6000612a056129fd846129f8612710866129cd565b612a0d565b612710612a23565b905092915050565b60008183612a1b9190613c04565b905092915050565b60008183612a319190613c8d565b905092915050565b6000808273ffffffffffffffffffffffffffffffffffffffff166301ffc9a7632a55205a60e01b6040518263ffffffff1660e01b8152600401612a7c9190613204565b602060405180830381865afa158015612a99573d6000803e3d6000fd5b505050506040513d601f19601f82011682018060405250810190612abd9190613846565b905080915050919050565b60008183612ad69190613cbe565b905092915050565b6000612af5612aed8385612a0d565b612710612a23565b905092915050565b60606000602867ffffffffffffffff811115612b1c57612b1b61301b565b5b6040519080825280601f01601f191660200182016040528015612b4e5781602001600182028036833780820191505090505b50905060005b6014811015612cb6576000816013612b6c9190613cbe565b6008612b789190613c04565b6002612b849190613e25565b8573ffffffffffffffffffffffffffffffffffffffff16612ba59190613c8d565b60f81b9050600060108260f81c612bbc9190613e7d565b60f81b905060008160f81c6010612bd39190613eae565b8360f81c612be19190613ee9565b60f81b9050612bef82612e48565b85856002612bfd9190613c04565b81518110612c0e57612c0d613f1d565b5b60200101907effffffffffffffffffffffffffffffffffffffffffffffffffffffffffffff1916908160001a905350612c4681612e48565b856001866002612c569190613c04565b612c609190613bae565b81518110612c7157612c70613f1d565b5b60200101907effffffffffffffffffffffffffffffffffffffffffffffffffffffffffffff1916908160001a9053505050508080612cae90613f4c565b915050612b54565b5080915050919050565b606060008203612d07576040518060400160405280600181526020017f30000000000000000000000000000000000000000000000000000000000000008152509050612e43565b600082905060005b60008214612d39578080612d2290613f4c565b915050600a82612d329190613c8d565b9150612d0f565b60008167ffffffffffffffff811115612d5557612d5461301b565b5b6040519080825280601f01601f191660200182016040528015612d875781602001600182028036833780820191505090505b50905060008290505b60008614612e3b57600181612da59190613cbe565b90506000600a8088612db79190613c8d565b612dc19190613c04565b87612dcc9190613cbe565b6030612dd89190613f94565b905060008160f81b905080848481518110612df657612df5613f1d565b5b60200101907effffffffffffffffffffffffffffffffffffffffffffffffffffffffffffff1916908160001a905350600a88612e329190613c8d565b97505050612d90565b819450505050505b919050565b6000600a8260f81c60ff161015612e735760308260f81c612e699190613f94565b60f81b9050612e89565b60578260f81c612e839190613f94565b60f81b90505b919050565b6040518060c0016040528060008152602001600073ffffffffffffffffffffffffffffffffffffffff168152602001600073ffffffffffffffffffffffffffffffffffffffff16815260200160008152602001600073ffffffffffffffffffffffffffffffffffffffff16815260200160006002811115612f1257612f116132f4565b5b81525090565b6000604051905090565b600080fd5b600080fd5b600073ffffffffffffffffffffffffffffffffffffffff82169050919050565b6000612f5782612f2c565b9050919050565b612f6781612f4c565b8114612f7257600080fd5b50565b600081359050612f8481612f5e565b92915050565b6000819050919050565b612f9d81612f8a565b8114612fa857600080fd5b50565b600081359050612fba81612f94565b92915050565b60008060408385031215612fd757612fd6612f22565b5b6000612fe585828601612f75565b9250506020612ff685828601612fab565b9150509250929050565b600080fd5b600080fd5b6000601f19601f8301169050919050565b7f4e487b7100000000000000000000000000000000000000000000000000000000600052604160045260246000fd5b6130538261300a565b810181811067ffffffffffffffff821117156130725761307161301b565b5b80604052505050565b6000613085612f18565b9050613091828261304a565b919050565b600067ffffffffffffffff8211156130b1576130b061301b565b5b6130ba8261300a565b9050602081019050919050565b82818337600083830152505050565b60006130e96130e484613096565b61307b565b90508281526020810184848401111561310557613104613005565b5b6131108482856130c7565b509392505050565b600082601f83011261312d5761312c613000565b5b813561313d8482602086016130d6565b91505092915050565b600080600080608085870312156131605761315f612f22565b5b600061316e87828801612f75565b945050602061317f87828801612f75565b935050604061319087828801612fab565b925050606085013567ffffffffffffffff8111156131b1576131b0612f27565b5b6131bd87828801613118565b91505092959194509250565b60007fffffffff0000000000000000000000000000000000000000000000000000000082169050919050565b6131fe816131c9565b82525050565b600060208201905061321960008301846131f5565b92915050565b600080600080600060a0868803121561323b5761323a612f22565b5b600061324988828901612f75565b955050602061325a88828901612fab565b945050604061326b88828901612f75565b935050606061327c88828901612fab565b925050608061328d88828901612f75565b9150509295509295909350565b60006132a582612f2c565b9050919050565b6132b58161329a565b82525050565b60006020820190506132d060008301846132ac565b92915050565b6132df81612f8a565b82525050565b6132ee81612f4c565b82525050565b7f4e487b7100000000000000000000000000000000000000000000000000000000600052602160045260246000fd5b60038110613334576133336132f4565b5b50565b600081905061334582613323565b919050565b600061335582613337565b9050919050565b6133658161334a565b82525050565b60c08201600082015161338160008501826132d6565b50602082015161339460208501826132e5565b5060408201516133a760408501826132e5565b5060608201516133ba60608501826132d6565b5060808201516133cd60808501826132e5565b5060a08201516133e060a085018261335c565b50505050565b600060c0820190506133fb600083018461336b565b92915050565b60008060008060008060c0878903121561341e5761341d612f22565b5b600061342c89828a01612f75565b965050602061343d89828a01612fab565b955050604061344e89828a01612fab565b945050606061345f89828a01612f75565b935050608061347089828a01612fab565b92505060a061348189828a01612f75565b9150509295509295509295565b6000806000606084860312156134a7576134a6612f22565b5b60006134b586828701612f75565b93505060206134c686828701612fab565b92505060406134d786828701612f75565b9150509250925092565b6000806000606084860312156134fa576134f9612f22565b5b600061350886828701612f75565b935050602061351986828701612fab565b925050604061352a86828701612fab565b9150509250925092565b61353d81612f4c565b82525050565b61354c81612f8a565b82525050565b60006060820190506135676000830186613534565b6135746020830185613534565b6135816040830184613543565b949350505050565b600082825260208201905092915050565b7f5265656e7472616e637947756172643a207265656e7472616e742063616c6c00600082015250565b60006135d0601f83613589565b91506135db8261359a565b602082019050919050565b600060208201905081810360008301526135ff816135c3565b9050919050565b600060408201905061361b6000830185613534565b6136286020830184613543565b9392505050565b60006080820190506136446000830187613534565b6136516020830186613543565b61365e6040830185613543565b61366b6060830184613543565b95945050505050565b60006020820190506136896000830184613534565b92915050565b60008151905061369e81612f94565b92915050565b6000602082840312156136ba576136b9612f22565b5b60006136c88482850161368f565b91505092915050565b60006040820190506136e66000830185613534565b6136f36020830184613534565b9392505050565b600060408201905061370f6000830185613543565b61371c6020830184613543565b9392505050565b60008151905061373281612f5e565b92915050565b6000806040838503121561374f5761374e612f22565b5b600061375d85828601613723565b925050602061376e8582860161368f565b9150509250929050565b6000819050919050565b600061379d61379861379384612f2c565b613778565b612f2c565b9050919050565b60006137af82613782565b9050919050565b60006137c1826137a4565b9050919050565b6137d1816137b6565b82525050565b60006060820190506137ec6000830186613534565b6137f960208301856137c8565b6138066040830184613543565b949350505050565b60008115159050919050565b6138238161380e565b811461382e57600080fd5b50565b6000815190506138408161381a565b92915050565b60006020828403121561385c5761385b612f22565b5b600061386a84828501613831565b91505092915050565b600081905092915050565b7f435553544f4d544f4b454e307800000000000000000000000000000000000000600082015250565b60006138b4600d83613873565b91506138bf8261387e565b600d82019050919050565b600081519050919050565b600081905092915050565b60005b838110156138fe5780820151818401526020810190506138e3565b8381111561390d576000848401525b50505050565b600061391e826138ca565b61392881856138d5565b93506139388185602086016138e0565b80840191505092915050565b7f2727272323232727270000000000000000000000000000000000000000000000600082015250565b600061397a600983613873565b915061398582613944565b600982019050919050565b600081519050919050565b60006139a682613990565b6139b08185613873565b93506139c08185602086016138e0565b80840191505092915050565b60006139d7826138a7565b91506139e38285613913565b91506139ee8261396d565b91506139fa828461399b565b91508190509392505050565b600082825260208201905092915050565b6000613a22826138ca565b613a2c8185613a06565b9350613a3c8185602086016138e0565b613a458161300a565b840191505092915050565b6000608082019050613a656000830187613534565b613a726020830186613534565b613a7f6040830185613543565b8181036060830152613a918184613a17565b905095945050505050565b6000602082019050613ab16000830184613543565b92915050565b600060208284031215613acd57613acc612f22565b5b6000613adb84828501613723565b91505092915050565b6000819050919050565b6000613b09613b04613aff84613ae4565b613778565b612f8a565b9050919050565b613b1981613aee565b82525050565b6000604082019050613b346000830185613543565b613b416020830184613b10565b9392505050565b6000606082019050613b5d6000830186613534565b613b6a6020830185613543565b613b776040830184613534565b949350505050565b7f4e487b7100000000000000000000000000000000000000000000000000000000600052601160045260246000fd5b6000613bb982612f8a565b9150613bc483612f8a565b9250827fffffffffffffffffffffffffffffffffffffffffffffffffffffffffffffffff03821115613bf957613bf8613b7f565b5b828201905092915050565b6000613c0f82612f8a565b9150613c1a83612f8a565b9250817fffffffffffffffffffffffffffffffffffffffffffffffffffffffffffffffff0483118215151615613c5357613c52613b7f565b5b828202905092915050565b7f4e487b7100000000000000000000000000000000000000000000000000000000600052601260045260246000fd5b6000613c9882612f8a565b9150613ca383612f8a565b925082613cb357613cb2613c5e565b5b828204905092915050565b6000613cc982612f8a565b9150613cd483612f8a565b925082821015613ce757613ce6613b7f565b5b828203905092915050565b60008160011c9050919050565b6000808291508390505b6001851115613d4957808604811115613d2557613d24613b7f565b5b6001851615613d345780820291505b8081029050613d4285613cf2565b9450613d09565b94509492505050565b600082613d625760019050613e1e565b81613d705760009050613e1e565b8160018114613d865760028114613d9057613dbf565b6001915050613e1e565b60ff841115613da257613da1613b7f565b5b8360020a915084821115613db957613db8613b7f565b5b50613e1e565b5060208310610133831016604e8410600b8410161715613df45782820a905083811115613def57613dee613b7f565b5b613e1e565b613e018484846001613cff565b92509050818404811115613e1857613e17613b7f565b5b81810290505b9392505050565b6000613e3082612f8a565b9150613e3b83612f8a565b9250613e687fffffffffffffffffffffffffffffffffffffffffffffffffffffffffffffffff8484613d52565b905092915050565b600060ff82169050919050565b6000613e8882613e70565b9150613e9383613e70565b925082613ea357613ea2613c5e565b5b828204905092915050565b6000613eb982613e70565b9150613ec483613e70565b92508160ff0483118215151615613ede57613edd613b7f565b5b828202905092915050565b6000613ef482613e70565b9150613eff83613e70565b925082821015613f1257613f11613b7f565b5b828203905092915050565b7f4e487b7100000000000000000000000000000000000000000000000000000000600052603260045260246000fd5b6000613f5782612f8a565b91507fffffffffffffffffffffffffffffffffffffffffffffffffffffffffffffffff8203613f8957613f88613b7f565b5b600182019050919050565b6000613f9f82613e70565b9150613faa83613e70565b92508260ff03821115613fc057613fbf613b7f565b5b82820190509291505056fea2646970667358221220fc1015b25344d94aa3b9e8d513253a602665624181c11f24fc27922a60f1c06b64736f6c634300080f0033",
  "linkReferences": {},
  "deployedLinkReferences": {}
}